{
    "contractName": "CollateralizedMinter",
    "abi": [
        {
            "inputs": [
                {
                    "internalType": "address",
                    "name": "zchfAddress",
                    "type": "address"
                },
                {
                    "internalType": "address",
                    "name": "collateralAddress",
                    "type": "address"
                }
            ],
            "stateMutability": "nonpayable",
            "type": "constructor"
        },
        {
            "anonymous": false,
            "inputs": [
                {
                    "indexed": true,
                    "internalType": "address",
                    "name": "previousOwner",
                    "type": "address"
                },
                {
                    "indexed": true,
                    "internalType": "address",
                    "name": "newOwner",
                    "type": "address"
                }
            ],
            "name": "OwnershipTransferred",
            "type": "event"
        },
        {
            "inputs": [],
            "name": "BASE",
            "outputs": [
                {
                    "internalType": "uint32",
                    "name": "",
                    "type": "uint32"
                }
            ],
            "stateMutability": "view",
            "type": "function"
        },
        {
            "inputs": [],
            "name": "CHALLENGER_REWARD",
            "outputs": [
                {
                    "internalType": "uint32",
                    "name": "",
                    "type": "uint32"
                }
            ],
            "stateMutability": "view",
            "type": "function"
        },
        {
            "inputs": [],
            "name": "CHALLENGE_PERIOD",
            "outputs": [
                {
                    "internalType": "uint256",
                    "name": "",
                    "type": "uint256"
                }
            ],
            "stateMutability": "view",
            "type": "function"
        },
        {
            "inputs": [],
            "name": "COLLATERALIZATION",
            "outputs": [
                {
                    "internalType": "uint32",
                    "name": "",
                    "type": "uint32"
                }
            ],
            "stateMutability": "view",
            "type": "function"
        },
        {
            "inputs": [],
            "name": "MIN_CHALLENGE",
            "outputs": [
                {
                    "internalType": "uint256",
                    "name": "",
                    "type": "uint256"
                }
            ],
            "stateMutability": "view",
            "type": "function"
        },
        {
            "inputs": [
                {
                    "internalType": "uint32",
                    "name": "challengeNumber",
                    "type": "uint32"
                },
                {
                    "internalType": "uint256",
                    "name": "amount",
                    "type": "uint256"
                }
            ],
            "name": "bid",
            "outputs": [],
            "stateMutability": "nonpayable",
            "type": "function"
        },
        {
            "inputs": [],
            "name": "challengeCount",
            "outputs": [
                {
                    "internalType": "uint32",
                    "name": "",
                    "type": "uint32"
                }
            ],
            "stateMutability": "view",
            "type": "function"
        },
        {
            "inputs": [],
            "name": "closedChallenges",
            "outputs": [
                {
                    "internalType": "uint32",
                    "name": "",
                    "type": "uint32"
                }
            ],
            "stateMutability": "view",
            "type": "function"
        },
        {
            "inputs": [],
            "name": "coolDownEnd",
            "outputs": [
                {
                    "internalType": "uint256",
                    "name": "",
                    "type": "uint256"
                }
            ],
            "stateMutability": "view",
            "type": "function"
        },
        {
            "inputs": [],
            "name": "depositedCollateral",
            "outputs": [
                {
                    "internalType": "uint256",
                    "name": "",
                    "type": "uint256"
                }
            ],
            "stateMutability": "view",
            "type": "function"
        },
        {
            "inputs": [
                {
                    "internalType": "uint32",
                    "name": "challengeNumber",
                    "type": "uint32"
                }
            ],
            "name": "end",
            "outputs": [],
            "stateMutability": "nonpayable",
            "type": "function"
        },
        {
            "inputs": [
                {
                    "internalType": "uint256",
                    "name": "_mintingLimit",
                    "type": "uint256"
                },
                {
                    "internalType": "uint256",
                    "name": "_collateralAmount",
                    "type": "uint256"
                },
                {
                    "internalType": "uint256",
                    "name": "period",
                    "type": "uint256"
                },
                {
                    "internalType": "uint256",
                    "name": "fee",
                    "type": "uint256"
                }
            ],
            "name": "initialize",
            "outputs": [],
            "stateMutability": "nonpayable",
            "type": "function"
        },
        {
            "inputs": [
                {
                    "internalType": "uint256",
                    "name": "challengeSize",
                    "type": "uint256"
                }
            ],
            "name": "launchChallenge",
            "outputs": [
                {
                    "internalType": "uint32",
                    "name": "",
                    "type": "uint32"
                }
            ],
            "stateMutability": "nonpayable",
            "type": "function"
        },
        {
            "inputs": [
                {
                    "internalType": "address",
                    "name": "target",
                    "type": "address"
                }
            ],
            "name": "mint",
            "outputs": [],
            "stateMutability": "nonpayable",
            "type": "function"
        },
        {
            "inputs": [],
            "name": "minted",
            "outputs": [
                {
                    "internalType": "uint256",
                    "name": "",
                    "type": "uint256"
                }
            ],
            "stateMutability": "view",
            "type": "function"
        },
        {
            "inputs": [],
            "name": "mintingLimit",
            "outputs": [
                {
                    "internalType": "uint256",
                    "name": "",
                    "type": "uint256"
                }
            ],
            "stateMutability": "view",
            "type": "function"
        },
        {
            "inputs": [
                {
                    "internalType": "address",
                    "name": "from",
                    "type": "address"
                },
                {
                    "internalType": "uint256",
                    "name": "returnedCurrency",
                    "type": "uint256"
                },
                {
                    "internalType": "bytes",
                    "name": "data",
                    "type": "bytes"
                }
            ],
            "name": "onTokenTransfer",
            "outputs": [
                {
                    "internalType": "bool",
                    "name": "",
                    "type": "bool"
                }
            ],
            "stateMutability": "nonpayable",
            "type": "function"
        },
        {
            "inputs": [],
            "name": "owner",
            "outputs": [
                {
                    "internalType": "address",
                    "name": "",
                    "type": "address"
                }
            ],
            "stateMutability": "view",
            "type": "function"
        },
        {
            "inputs": [],
            "name": "payback",
            "outputs": [],
            "stateMutability": "nonpayable",
            "type": "function"
        },
        {
            "inputs": [
                {
                    "internalType": "address",
                    "name": "newOwner",
                    "type": "address"
                }
            ],
            "name": "transferOwnership",
            "outputs": [],
            "stateMutability": "nonpayable",
            "type": "function"
        },
        {
            "inputs": [
                {
                    "internalType": "address",
                    "name": "target",
                    "type": "address"
                },
                {
                    "internalType": "uint256",
                    "name": "amount",
                    "type": "uint256"
                }
            ],
            "name": "withdrawCollateral",
            "outputs": [],
            "stateMutability": "nonpayable",
            "type": "function"
        }
    ],
    "bytecode": "60e06040523480156200001157600080fd5b506040516200235738038062002357833981016040819052620000349162000161565b33806200006d5760405162461bcd60e51b815260206004820152600360248201526203078360ec1b604482015260640160405180910390fd5b600080546001600160a01b0319166001600160a01b03831690811782556040519091907f8be0079c531659141344cd1fd0a4f28419497f9722a3daafe3b4186f6b6457e0908290a3506001600160a01b03808216608052821660a08190526040805163669949ef60e11b8152905163cd3293de9160048082019260209290919082900301816000875af115801562000109573d6000803e3d6000fd5b505050506040513d601f19601f820116820180604052508101906200012f919062000199565b6001600160a01b031660c05250620001be9050565b80516001600160a01b03811681146200015c57600080fd5b919050565b600080604083850312156200017557600080fd5b620001808362000144565b9150620001906020840162000144565b90509250929050565b600060208284031215620001ac57600080fd5b620001b78262000144565b9392505050565b60805160a05160c051612090620002c760003960008181610bbf01528181610d4e015281816110d001528181611251015281816117cc015281816118850152611b7f01526000818161036e015281816104400152818161060001528181610917015281816109ba01528181610b0f01528181610b9801528181610c6801528181610d2701528181610de701528181610e7101528181611052015281816111a101528181611222015281816114ac0152818161157301528181611964015281816119fc01528181611aca0152611ccc0152600081816104d7015281816107bd0152818161085a01528181610a7201528181610fc0015281816112fa01526116de01526120906000f3fe608060405234801561001057600080fd5b50600436106101375760003560e01c806373c8d01f116100b8578063a2f057251161007c578063a2f0572514610260578063a4c0ed3614610277578063af5806b61461029a578063c3a079ed146102a3578063ec342ad0146102ad578063f2fde38b146102b757600080fd5b806373c8d01f146101fa5780637c10c08c1461020357806380eca6b914610216578063854bec871461022d5780638da5cb5b1461023557600080fd5b806349072f12116100ff57806349072f12146101af5780634d9171c9146101b85780634f02c420146101cb57806360a2da44146101d45780636a627842146101e757600080fd5b806308ee32811461013c5780630a0e362714610158578063228e89181461016857806330db70b11461017d578063350c35e91461019c575b600080fd5b61014560045481565b6040519081526020015b60405180910390f35b61014568056bc75e2d6310000081565b61017b610176366004611d87565b6102ca565b005b610187621312d081565b60405163ffffffff909116815260200161014f565b61017b6101aa366004611dc8565b610690565b61014560035481565b61017b6101c6366004611de4565b61071b565b61014560025481565b61017b6101e2366004611e06565b610f75565b61017b6101f5366004611e38565b61113c565b61014560015481565b610187610211366004611e53565b6112cb565b60005461018790600160c81b900463ffffffff1681565b61017b611460565b600054610248906001600160a01b031681565b6040516001600160a01b03909116815260200161014f565b60005461018790600160a81b900463ffffffff1681565b61028a610285366004611e6c565b611535565b604051901515815260200161014f565b610187614e2081565b61014562093a8081565b610187620f424081565b61017b6102c5366004611e38565b6115bf565b63ffffffff8216600090815260056020908152604091829020825160a08101845281546001600160a01b03908116825260018301549382019390935260028201549381018490526003820154909216606083015260040154608082015290421061033357600080fd5b8060800151821161034357600080fd5b6080810151156103e6576060810151608082015160405163a9059cbb60e01b81526001600160a01b037f0000000000000000000000000000000000000000000000000000000000000000169263a9059cbb926103a192600401611ef3565b6020604051808303816000875af11580156103c0573d6000803e3d6000fd5b505050506040513d601f19601f820116820180604052508101906103e49190611f0c565b505b6020810151600354620f42409061040190621312d090611f44565b61040b9190611f63565b6104159190611f44565b6004546104229084611f44565b106105e95780516040516323b872dd60e01b81526001600160a01b037f000000000000000000000000000000000000000000000000000000000000000016916323b872dd916104779133918790600401611f85565b6020604051808303816000875af1158015610496573d6000803e3d6000fd5b505050506040513d601f19601f820116820180604052508101906104ba9190611f0c565b50602081015160405163a9059cbb60e01b81526001600160a01b037f0000000000000000000000000000000000000000000000000000000000000000169163a9059cbb9161050c913391600401611ef3565b6020604051808303816000875af115801561052b573d6000803e3d6000fd5b505050506040513d601f19601f8201168201806040525081019061054f9190611f0c565b5060008054600160c81b900463ffffffff1690601961056d83611fa9565b91906101000a81548163ffffffff021916908363ffffffff16021790555050426201518061059b9190611fcc565b600190815563ffffffff8416600090815260056020526040812080546001600160a01b0319908116825592810182905560028101829055600381018054909316909255600490910155505050565b6040516323b872dd60e01b81526001600160a01b037f000000000000000000000000000000000000000000000000000000000000000016906323b872dd9061063990339030908790600401611f85565b6020604051808303816000875af1158015610658573d6000803e3d6000fd5b505050506040513d601f19601f8201168201806040525081019061067c9190611f0c565b50608081018290523360608201525b505050565b6000546001600160a01b031633146106db5760405162461bcd60e51b81526020600482015260096024820152683737ba1037bbb732b960b91b60448201526064015b60405180910390fd5b600054600160c81b810463ffffffff908116600160a81b90920416148015610704575060015442115b61070d57600080fd5b610717828261168c565b5050565b63ffffffff81166000908152600560205260409020600281015442101561074157600080fd5b60006004548260010154101561075b57816001015461075f565b6004545b90506000600454826003546107749190611f44565b61077e9190611f63565b90506000620f424061079283614e20611f44565b61079c9190611f63565b8454600186015460405163a9059cbb60e01b81529293506001600160a01b037f000000000000000000000000000000000000000000000000000000000000000081169363a9059cbb936107f59392169190600401611ef3565b6020604051808303816000875af1158015610814573d6000803e3d6000fd5b505050506040513d601f19601f820116820180604052508101906108389190611f0c565b506003840154600185015460405163a9059cbb60e01b81526001600160a01b037f000000000000000000000000000000000000000000000000000000000000000081169363a9059cbb9361089493919092169190600401611ef3565b6020604051808303816000875af11580156108b3573d6000803e3d6000fd5b505050506040513d601f19601f820116820180604052508101906108d79190611f0c565b508360010154600460008282546108ee9190611fe4565b90915550506004840154811061099b57835460405163a9059cbb60e01b81526001600160a01b037f000000000000000000000000000000000000000000000000000000000000000081169263a9059cbb926109529291909116908590600401611ef3565b6020604051808303816000875af1158015610971573d6000803e3d6000fd5b505050506040513d601f19601f820116820180604052508101906109959190611f0c565b50610a36565b835460048086015460405163a9059cbb60e01b81526001600160a01b037f000000000000000000000000000000000000000000000000000000000000000081169463a9059cbb946109f194929091169201611ef3565b6020604051808303816000875af1158015610a10573d6000803e3d6000fd5b505050506040513d601f19601f82011682018060405250810190610a349190611f0c565b505b6000818560040154610a489190611fe4565b9050600254600003610cf7576000546004805460405163a9059cbb60e01b81526001600160a01b037f000000000000000000000000000000000000000000000000000000000000000081169463a9059cbb94610aa994929091169201611ef3565b6020604051808303816000875af1158015610ac8573d6000803e3d6000fd5b505050506040513d601f19601f82011682018060405250810190610aec9190611f0c565b5082811115610c4e5760005460405163a9059cbb60e01b81526001600160a01b037f000000000000000000000000000000000000000000000000000000000000000081169263a9059cbb92610b4a9291909116908790600401611ef3565b6020604051808303816000875af1158015610b69573d6000803e3d6000fd5b505050506040513d601f19601f82011682018060405250810190610b8d9190611f0c565b506001600160a01b037f00000000000000000000000000000000000000000000000000000000000000001663a9059cbb7f0000000000000000000000000000000000000000000000000000000000000000610be88685611fe4565b6040518363ffffffff1660e01b8152600401610c05929190611ef3565b6020604051808303816000875af1158015610c24573d6000803e3d6000fd5b505050506040513d601f19601f82011682018060405250810190610c489190611f0c565b50610ce8565b60005460405163a9059cbb60e01b81526001600160a01b037f000000000000000000000000000000000000000000000000000000000000000081169263a9059cbb92610ca39291909116908590600401611ef3565b6020604051808303816000875af1158015610cc2573d6000803e3d6000fd5b505050506040513d601f19601f82011682018060405250810190610ce69190611f0c565b505b60006003819055600455610ef4565b6000620f4240610d0a621312d086611f44565b610d149190611f63565b9050808210610ddd576001600160a01b037f00000000000000000000000000000000000000000000000000000000000000001663a9059cbb7f0000000000000000000000000000000000000000000000000000000000000000610d778486611fe4565b6040518363ffffffff1660e01b8152600401610d94929190611ef3565b6020604051808303816000875af1158015610db3573d6000803e3d6000fd5b505050506040513d601f19601f82011682018060405250810190610dd79190611f0c565b50610e67565b6001600160a01b037f0000000000000000000000000000000000000000000000000000000000000000166361f3d110610e168484611fe4565b6040518263ffffffff1660e01b8152600401610e3491815260200190565b600060405180830381600087803b158015610e4e57600080fd5b505af1158015610e62573d6000803e3d6000fd5b505050505b6001600160a01b037f00000000000000000000000000000000000000000000000000000000000000001663f5298aca3083610ea28882611fe4565b6040518463ffffffff1660e01b8152600401610ec093929190611ffb565b600060405180830381600087803b158015610eda57600080fd5b505af1158015610eee573d6000803e3d6000fd5b50505050505b60008054600160c81b900463ffffffff16906019610f1183611fa9565b82546101009290920a63ffffffff81810219909316918316021790915596909616600090815260056020526040812080546001600160a01b031990811682556001820183905560028201839055600382018054909116905560040155505050505050565b600054600160a01b900460ff1615610f8c57600080fd5b6000805460ff60a01b1916600160a01b179055600384905560048381556040516323b872dd60e01b81526001600160a01b037f000000000000000000000000000000000000000000000000000000000000000016916323b872dd91610ff79133913091899101611f85565b6020604051808303816000875af1158015611016573d6000803e3d6000fd5b505050506040513d601f19601f8201168201806040525081019061103a9190611f0c565b50604051636caa878d60e01b81526001600160a01b037f00000000000000000000000000000000000000000000000000000000000000001690636caa878d9061108b90309086908690600401611ffb565b600060405180830381600087803b1580156110a557600080fd5b505af11580156110b9573d6000803e3d6000fd5b5050604051639823004f60e01b81523360048201527f00000000000000000000000000000000000000000000000000000000000000006001600160a01b03169250639823004f9150602401600060405180830381600087803b15801561111e57600080fd5b505af1158015611132573d6000803e3d6000fd5b5050505050505050565b600354600254819061114f908290611fcc565b111561115a57600080fd5b6000620f424061116d81621312d061201c565b61117d9063ffffffff1684611f44565b6111879190611f63565b604051630ab714fb60e11b81529091506001600160a01b037f0000000000000000000000000000000000000000000000000000000000000000169063156e29f6906111db9086908690600090600401611ffb565b600060405180830381600087803b1580156111f557600080fd5b505af1158015611209573d6000803e3d6000fd5b5050604051634b95746960e11b81526001600160a01b037f000000000000000000000000000000000000000000000000000000000000000016925063972ae8d2915061127d907f00000000000000000000000000000000000000000000000000000000000000009085908190600401611ffb565b600060405180830381600087803b15801561129757600080fd5b505af11580156112ab573d6000803e3d6000fd5b5050505081600260008282546112c19190611fcc565b9091555050505050565b600068056bc75e2d631000008210156112e357600080fd5b6040516323b872dd60e01b81526001600160a01b037f000000000000000000000000000000000000000000000000000000000000000016906323b872dd9061133390339030908790600401611f85565b6020604051808303816000875af1158015611352573d6000803e3d6000fd5b505050506040513d601f19601f820116820180604052508101906113769190611f0c565b5060008054600160a81b900463ffffffff1681601561139483611fa9565b91906101000a81548163ffffffff021916908363ffffffff16021790555090506040518060a00160405280336001600160a01b0316815260200184815260200162093a80426113e39190611fcc565b815260006020808301829052604092830182905263ffffffff851682526005815290829020835181546001600160a01b03199081166001600160a01b039283161783559285015160018301559284015160028201556060840151600382018054909316931692909217905560809091015160049091015592915050565b600054600160c81b810463ffffffff908116600160a81b90920416148015611489575060015442115b61149257600080fd5b6003546040516323b872dd60e01b81526001600160a01b037f000000000000000000000000000000000000000000000000000000000000000016906323b872dd906114e590339030908690600401611f85565b6020604051808303816000875af1158015611504573d6000803e3d6000fd5b505050506040513d601f19601f820116820180604052508101906115289190611f0c565b50611532816117b4565b50565b60008054600160c81b810463ffffffff908116600160a81b9092041614801561155f575060015442115b61156857600080fd5b336001600160a01b037f0000000000000000000000000000000000000000000000000000000000000000161461159d57600080fd5b60035484146115ab57600080fd5b6115b4846117b4565b506001949350505050565b6000546001600160a01b031633146116055760405162461bcd60e51b81526020600482015260096024820152683737ba1037bbb732b960b91b60448201526064016106d2565b6001600160a01b0381166116415760405162461bcd60e51b815260206004820152600360248201526203078360ec1b60448201526064016106d2565b600080546001600160a01b0319166001600160a01b0383169081178255604051909182917f8be0079c531659141344cd1fd0a4f28419497f9722a3daafe3b4186f6b6457e09190a350565b60006003546002546003546116a19190611fe4565b6004546116ae9190611f44565b6116b89190611f63565b9050808211156116c757600080fd5b60405163a9059cbb60e01b81526001600160a01b037f0000000000000000000000000000000000000000000000000000000000000000169063a9059cbb906117159086908690600401611ef3565b6020604051808303816000875af1158015611734573d6000803e3d6000fd5b505050506040513d601f19601f820116820180604052508101906117589190611f0c565b506004548260035461176a9190611f44565b6117749190611f63565b600360008282546117859190611fe4565b92505081905550816004600082825461179e9190611fe4565b9091555050600354600254111561068b57600080fd5b60405163140c825160e31b81523060048201526000907f00000000000000000000000000000000000000000000000000000000000000006001600160a01b03169063a0641288906024016020604051808303816000875af115801561181d573d6000803e3d6000fd5b505050506040513d601f19601f820116820180604052508101906118419190612041565b600254909150600090620f42409061185d90621312d090611f44565b6118679190611f63565b9050808210611aa7576040516370a0823160e01b81523060048201527f00000000000000000000000000000000000000000000000000000000000000006001600160a01b03169063db006a759082906370a0823190602401602060405180830381865afa1580156118dc573d6000803e3d6000fd5b505050506040513d601f19601f820116820180604052508101906119009190612041565b6040518263ffffffff1660e01b815260040161191e91815260200190565b6020604051808303816000875af115801561193d573d6000803e3d6000fd5b505050506040513d601f19601f820116820180604052508101906119619190612041565b507f00000000000000000000000000000000000000000000000000000000000000006001600160a01b031663f5298aca3083600254856119a19190611fe4565b6040518463ffffffff1660e01b81526004016119bf93929190611ffb565b600060405180830381600087803b1580156119d957600080fd5b505af11580156119ed573d6000803e3d6000fd5b50506000546001600160a01b037f00000000000000000000000000000000000000000000000000000000000000008116935063a9059cbb92501683611a328688611fcc565b611a3c9190611fe4565b6040518363ffffffff1660e01b8152600401611a59929190611ef3565b6020604051808303816000875af1158015611a78573d6000803e3d6000fd5b505050506040513d601f19601f82011682018060405250810190611a9c9190611f0c565b506000600255505050565b6000611ab38383611fe4565b905080841115611b62576000546001600160a01b037f000000000000000000000000000000000000000000000000000000000000000081169163a9059cbb9116611afd8488611fe4565b6040518363ffffffff1660e01b8152600401611b1a929190611ef3565b6020604051808303816000875af1158015611b39573d6000803e3d6000fd5b505050506040513d601f19601f82011682018060405250810190611b5d9190611f0c565b508093505b6040516370a0823160e01b81523060048201526001600160a01b037f0000000000000000000000000000000000000000000000000000000000000000169063db006a75908390879084906370a0823190602401602060405180830381865afa158015611bd2573d6000803e3d6000fd5b505050506040513d601f19601f82011682018060405250810190611bf69190612041565b611c009190611f44565b611c0a9190611f63565b6040518263ffffffff1660e01b8152600401611c2891815260200190565b6020604051808303816000875af1158015611c47573d6000803e3d6000fd5b505050506040513d601f19601f82011682018060405250810190611c6b9190612041565b50600081611c798685611f44565b611c839190611f63565b90506000621312d0611c98620f42408261201c565b611ca89063ffffffff1684611f44565b611cb29190611f63565b604051637a94c56560e11b81529091506001600160a01b037f0000000000000000000000000000000000000000000000000000000000000000169063f5298aca90611d0590309086908690600401611ffb565b600060405180830381600087803b158015611d1f57600080fd5b505af1158015611d33573d6000803e3d6000fd5b505050508286600254611d469190611f44565b611d509190611f63565b60026000828254611d619190611fe4565b9091555050505050505050565b803563ffffffff81168114611d8257600080fd5b919050565b60008060408385031215611d9a57600080fd5b611da383611d6e565b946020939093013593505050565b80356001600160a01b0381168114611d8257600080fd5b60008060408385031215611ddb57600080fd5b611da383611db1565b600060208284031215611df657600080fd5b611dff82611d6e565b9392505050565b60008060008060808587031215611e1c57600080fd5b5050823594602084013594506040840135936060013592509050565b600060208284031215611e4a57600080fd5b611dff82611db1565b600060208284031215611e6557600080fd5b5035919050565b60008060008060608587031215611e8257600080fd5b611e8b85611db1565b935060208501359250604085013567ffffffffffffffff80821115611eaf57600080fd5b818701915087601f830112611ec357600080fd5b813581811115611ed257600080fd5b886020828501011115611ee457600080fd5b95989497505060200194505050565b6001600160a01b03929092168252602082015260400190565b600060208284031215611f1e57600080fd5b81518015158114611dff57600080fd5b634e487b7160e01b600052601160045260246000fd5b6000816000190483118215151615611f5e57611f5e611f2e565b500290565b600082611f8057634e487b7160e01b600052601260045260246000fd5b500490565b6001600160a01b039384168152919092166020820152604081019190915260600190565b600063ffffffff808316818103611fc257611fc2611f2e565b6001019392505050565b60008219821115611fdf57611fdf611f2e565b500190565b600082821015611ff657611ff6611f2e565b500390565b6001600160a01b039390931683526020830191909152604082015260600190565b600063ffffffff8381169083168181101561203957612039611f2e565b039392505050565b60006020828403121561205357600080fd5b505191905056fea26469706673582212201af12e4a5cad698c1d80d9d415a6dfb0383969ef835bacffcfff7bac33112a0d64736f6c634300080e0033",
    "sourcePath": "c:/Users/luziu/Documents/GitHub/FrankenCoin/contracts/CollateralizedMinter.sol",
    "compiler": {
        "name": "solc",
        "version": "0.8.14+commit.80d49f37"
    },
    "functionHashes": {
        "BASE()": "ec342ad0",
        "CHALLENGER_REWARD()": "af5806b6",
        "CHALLENGE_PERIOD()": "c3a079ed",
        "COLLATERALIZATION()": "30db70b1",
        "MIN_CHALLENGE()": "0a0e3627",
        "bid(uint32,uint256)": "228e8918",
        "challengeCount()": "a2f05725",
        "closedChallenges()": "80eca6b9",
        "coolDownEnd()": "73c8d01f",
        "depositedCollateral()": "08ee3281",
        "end(uint32)": "4d9171c9",
        "initialize(uint256,uint256,uint256,uint256)": "60a2da44",
        "launchChallenge(uint256)": "7c10c08c",
        "mint(address)": "6a627842",
        "minted()": "4f02c420",
        "mintingLimit()": "49072f12",
        "onTokenTransfer(address,uint256,bytes)": "a4c0ed36",
        "owner()": "8da5cb5b",
        "payback()": "854bec87",
        "transferOwnership(address)": "f2fde38b",
        "withdrawCollateral(address,uint256)": "350c35e9"
    },
    "gasEstimates": {
        "creation": {
            "codeDepositCost": "1667200",
            "executionCost": "infinite",
            "totalCost": "infinite"
        },
        "external": {
            "BASE()": "314",
            "CHALLENGER_REWARD()": "270",
            "CHALLENGE_PERIOD()": "272",
            "COLLATERALIZATION()": "294",
            "MIN_CHALLENGE()": "230",
            "bid(uint32,uint256)": "infinite",
            "challengeCount()": "2352",
            "closedChallenges()": "2397",
            "coolDownEnd()": "2307",
            "depositedCollateral()": "2308",
            "end(uint32)": "infinite",
            "initialize(uint256,uint256,uint256,uint256)": "infinite",
            "launchChallenge(uint256)": "infinite",
            "mint(address)": "infinite",
            "minted()": "2351",
            "mintingLimit()": "2307",
            "onTokenTransfer(address,uint256,bytes)": "infinite",
            "owner()": "2448",
            "payback()": "infinite",
            "transferOwnership(address)": "28398",
            "withdrawCollateral(address,uint256)": "infinite"
        },
        "internal": {
            "internalWithdrawCollateral(address,uint256)": "infinite",
            "processPayback(uint256)": "infinite"
        }
    }
}