{
    "contractName": "Equity",
    "abi": [
        {
            "inputs": [
                {
                    "internalType": "contract Frankencoin",
                    "name": "zchf_",
                    "type": "address"
                }
            ],
            "stateMutability": "nonpayable",
            "type": "constructor"
        },
        {
            "anonymous": false,
            "inputs": [
                {
                    "indexed": true,
                    "internalType": "address",
                    "name": "owner",
                    "type": "address"
                },
                {
                    "indexed": true,
                    "internalType": "address",
                    "name": "spender",
                    "type": "address"
                },
                {
                    "indexed": false,
                    "internalType": "uint256",
                    "name": "value",
                    "type": "uint256"
                }
            ],
            "name": "Approval",
            "type": "event"
        },
        {
            "anonymous": false,
            "inputs": [
                {
                    "indexed": true,
                    "internalType": "address",
                    "name": "from",
                    "type": "address"
                },
                {
                    "indexed": true,
                    "internalType": "address",
                    "name": "to",
                    "type": "address"
                }
            ],
            "name": "Delegation",
            "type": "event"
        },
        {
            "anonymous": false,
            "inputs": [
                {
                    "indexed": true,
                    "internalType": "address",
                    "name": "from",
                    "type": "address"
                },
                {
                    "indexed": true,
                    "internalType": "address",
                    "name": "to",
                    "type": "address"
                },
                {
                    "indexed": false,
                    "internalType": "uint256",
                    "name": "value",
                    "type": "uint256"
                }
            ],
            "name": "Transfer",
            "type": "event"
        },
        {
            "inputs": [],
            "name": "MIN_HOLDING_DURATION",
            "outputs": [
                {
                    "internalType": "uint256",
                    "name": "",
                    "type": "uint256"
                }
            ],
            "stateMutability": "view",
            "type": "function"
        },
        {
            "inputs": [],
            "name": "VALUATION_FACTOR",
            "outputs": [
                {
                    "internalType": "uint32",
                    "name": "",
                    "type": "uint32"
                }
            ],
            "stateMutability": "view",
            "type": "function"
        },
        {
            "inputs": [
                {
                    "internalType": "address",
                    "name": "owner",
                    "type": "address"
                },
                {
                    "internalType": "address",
                    "name": "spender",
                    "type": "address"
                }
            ],
            "name": "allowance",
            "outputs": [
                {
                    "internalType": "uint256",
                    "name": "",
                    "type": "uint256"
                }
            ],
            "stateMutability": "view",
            "type": "function"
        },
        {
            "inputs": [
                {
                    "internalType": "address",
                    "name": "spender",
                    "type": "address"
                },
                {
                    "internalType": "uint256",
                    "name": "value",
                    "type": "uint256"
                }
            ],
            "name": "approve",
            "outputs": [
                {
                    "internalType": "bool",
                    "name": "",
                    "type": "bool"
                }
            ],
            "stateMutability": "nonpayable",
            "type": "function"
        },
        {
            "inputs": [
                {
                    "internalType": "address",
                    "name": "account",
                    "type": "address"
                }
            ],
            "name": "balanceOf",
            "outputs": [
                {
                    "internalType": "uint256",
                    "name": "",
                    "type": "uint256"
                }
            ],
            "stateMutability": "view",
            "type": "function"
        },
        {
            "inputs": [
                {
                    "internalType": "uint256",
                    "name": "shares",
                    "type": "uint256"
                }
            ],
            "name": "calculateProceeds",
            "outputs": [
                {
                    "internalType": "uint256",
                    "name": "",
                    "type": "uint256"
                }
            ],
            "stateMutability": "view",
            "type": "function"
        },
        {
            "inputs": [
                {
                    "internalType": "uint256",
                    "name": "investment",
                    "type": "uint256"
                }
            ],
            "name": "calculateShares",
            "outputs": [
                {
                    "internalType": "uint256",
                    "name": "",
                    "type": "uint256"
                }
            ],
            "stateMutability": "view",
            "type": "function"
        },
        {
            "inputs": [
                {
                    "internalType": "address",
                    "name": "owner",
                    "type": "address"
                }
            ],
            "name": "canRedeem",
            "outputs": [
                {
                    "internalType": "bool",
                    "name": "",
                    "type": "bool"
                }
            ],
            "stateMutability": "view",
            "type": "function"
        },
        {
            "inputs": [],
            "name": "canRedeem",
            "outputs": [
                {
                    "internalType": "bool",
                    "name": "",
                    "type": "bool"
                }
            ],
            "stateMutability": "view",
            "type": "function"
        },
        {
            "inputs": [
                {
                    "internalType": "address",
                    "name": "delegate",
                    "type": "address"
                },
                {
                    "internalType": "address",
                    "name": "owner",
                    "type": "address"
                }
            ],
            "name": "canVoteFor",
            "outputs": [
                {
                    "internalType": "bool",
                    "name": "",
                    "type": "bool"
                }
            ],
            "stateMutability": "view",
            "type": "function"
        },
        {
            "inputs": [],
            "name": "decimals",
            "outputs": [
                {
                    "internalType": "uint8",
                    "name": "",
                    "type": "uint8"
                }
            ],
            "stateMutability": "view",
            "type": "function"
        },
        {
            "inputs": [
                {
                    "internalType": "address",
                    "name": "delegate",
                    "type": "address"
                }
            ],
            "name": "delegateVoteTo",
            "outputs": [],
            "stateMutability": "nonpayable",
            "type": "function"
        },
        {
            "inputs": [
                {
                    "internalType": "address",
                    "name": "",
                    "type": "address"
                }
            ],
            "name": "delegates",
            "outputs": [
                {
                    "internalType": "address",
                    "name": "",
                    "type": "address"
                }
            ],
            "stateMutability": "view",
            "type": "function"
        },
        {
            "inputs": [
                {
                    "internalType": "address",
                    "name": "sender",
                    "type": "address"
                },
                {
                    "internalType": "address[]",
                    "name": "helpers",
                    "type": "address[]"
                }
            ],
            "name": "isQualified",
            "outputs": [
                {
                    "internalType": "bool",
                    "name": "",
                    "type": "bool"
                }
            ],
            "stateMutability": "view",
            "type": "function"
        },
        {
            "inputs": [],
            "name": "name",
            "outputs": [
                {
                    "internalType": "string",
                    "name": "",
                    "type": "string"
                }
            ],
            "stateMutability": "pure",
            "type": "function"
        },
        {
            "inputs": [
                {
                    "internalType": "address",
                    "name": "from",
                    "type": "address"
                },
                {
                    "internalType": "uint256",
                    "name": "amount",
                    "type": "uint256"
                },
                {
                    "internalType": "bytes",
                    "name": "",
                    "type": "bytes"
                }
            ],
            "name": "onTokenTransfer",
            "outputs": [
                {
                    "internalType": "bool",
                    "name": "",
                    "type": "bool"
                }
            ],
            "stateMutability": "nonpayable",
            "type": "function"
        },
        {
            "inputs": [],
            "name": "price",
            "outputs": [
                {
                    "internalType": "uint256",
                    "name": "",
                    "type": "uint256"
                }
            ],
            "stateMutability": "view",
            "type": "function"
        },
        {
            "inputs": [
                {
                    "internalType": "address",
                    "name": "target",
                    "type": "address"
                },
                {
                    "internalType": "uint256",
                    "name": "shares",
                    "type": "uint256"
                }
            ],
            "name": "redeem",
            "outputs": [
                {
                    "internalType": "uint256",
                    "name": "",
                    "type": "uint256"
                }
            ],
            "stateMutability": "nonpayable",
            "type": "function"
        },
        {
            "inputs": [],
            "name": "symbol",
            "outputs": [
                {
                    "internalType": "string",
                    "name": "",
                    "type": "string"
                }
            ],
            "stateMutability": "pure",
            "type": "function"
        },
        {
            "inputs": [],
            "name": "totalSupply",
            "outputs": [
                {
                    "internalType": "uint256",
                    "name": "",
                    "type": "uint256"
                }
            ],
            "stateMutability": "view",
            "type": "function"
        },
        {
            "inputs": [],
            "name": "totalVotes",
            "outputs": [
                {
                    "internalType": "uint256",
                    "name": "",
                    "type": "uint256"
                }
            ],
            "stateMutability": "view",
            "type": "function"
        },
        {
            "inputs": [
                {
                    "internalType": "address",
                    "name": "recipient",
                    "type": "address"
                },
                {
                    "internalType": "uint256",
                    "name": "amount",
                    "type": "uint256"
                }
            ],
            "name": "transfer",
            "outputs": [
                {
                    "internalType": "bool",
                    "name": "",
                    "type": "bool"
                }
            ],
            "stateMutability": "nonpayable",
            "type": "function"
        },
        {
            "inputs": [
                {
                    "internalType": "address",
                    "name": "recipient",
                    "type": "address"
                },
                {
                    "internalType": "uint256",
                    "name": "amount",
                    "type": "uint256"
                },
                {
                    "internalType": "bytes",
                    "name": "data",
                    "type": "bytes"
                }
            ],
            "name": "transferAndCall",
            "outputs": [
                {
                    "internalType": "bool",
                    "name": "",
                    "type": "bool"
                }
            ],
            "stateMutability": "nonpayable",
            "type": "function"
        },
        {
            "inputs": [
                {
                    "internalType": "address",
                    "name": "sender",
                    "type": "address"
                },
                {
                    "internalType": "address",
                    "name": "recipient",
                    "type": "address"
                },
                {
                    "internalType": "uint256",
                    "name": "amount",
                    "type": "uint256"
                }
            ],
            "name": "transferFrom",
            "outputs": [
                {
                    "internalType": "bool",
                    "name": "",
                    "type": "bool"
                }
            ],
            "stateMutability": "nonpayable",
            "type": "function"
        },
        {
            "inputs": [
                {
                    "internalType": "address",
                    "name": "holder",
                    "type": "address"
                }
            ],
            "name": "votes",
            "outputs": [
                {
                    "internalType": "uint256",
                    "name": "",
                    "type": "uint256"
                }
            ],
            "stateMutability": "view",
            "type": "function"
        },
        {
            "inputs": [],
            "name": "zchf",
            "outputs": [
                {
                    "internalType": "contract Frankencoin",
                    "name": "",
                    "type": "address"
                }
            ],
            "stateMutability": "view",
            "type": "function"
        }
    ],
    "bytecode": "60c060405234801561001057600080fd5b5060405161158b38038061158b83398101604081905261002f91610045565b60126080526001600160a01b031660a052610075565b60006020828403121561005757600080fd5b81516001600160a01b038116811461006e57600080fd5b9392505050565b60805160a0516114ce6100bd600039600081816103e1015281816105420152818161068b0152818161097a01528181610a1c0152610af00152600061027301526114ce6000f3fe608060405234801561001057600080fd5b506004361061018e5760003560e01c80635e1121cf116100de578063a9059cbb11610097578063c4d4803a11610071578063c4d4803a146103dc578063d8bff5a514610403578063dd62ed3e14610416578063f97ed5091461044f57600080fd5b8063a9059cbb146103ac578063ad08ce5b146103bf578063b0c2bf06146103d257600080fd5b80635e1121cf1461032157806370a082311461033457806395d89b411461035d5780639823004f1461037c578063a035b1fe14610391578063a4c0ed361461039957600080fd5b806323b872dd1161014b5780633c835ab0116101255780633c835ab0146102a75780633ec16194146102ba5780634000aea0146102cd578063587cde1e146102e057600080fd5b806323b872dd1461023e578063250f25f414610251578063313ce5671461026e57600080fd5b806306fdde0314610193578063095ea7b3146101d75780630d15fd77146101fa578063151535b91461021057806318160ddd146102235780631e9a69501461022b575b600080fd5b6040805180820190915260168152754672616e6b656e636f696e20506f6f6c20536861726560501b60208201525b6040516101ce91906110fb565b60405180910390f35b6101ea6101e5366004611165565b610457565b60405190151581526020016101ce565b61020261046e565b6040519081526020016101ce565b6101ea61021e36600461118f565b6104b7565b600254610202565b610202610239366004611165565b6104f1565b6101ea61024c3660046111aa565b6105b7565b610259600381565b60405163ffffffff90911681526020016101ce565b6102957f000000000000000000000000000000000000000000000000000000000000000081565b60405160ff90911681526020016101ce565b6101ea6102b53660046111e6565b610613565b6102026102c8366004611219565b610679565b6101ea6102db366004611232565b610749565b6103096102ee36600461118f565b6004602052600090815260409020546001600160a01b031681565b6040516001600160a01b0390911681526020016101ce565b6101ea61032f3660046112b9565b6107dd565b61020261034236600461118f565b6001600160a01b031660009081526020819052604090205490565b60408051808201909152600381526246505360e81b60208201526101c1565b61038f61038a36600461118f565b610916565b005b61020261096d565b6101ea6103a7366004611232565b610a0f565b6101ea6103ba366004611165565b610ad1565b6102026103cd366004611219565b610ade565b6102026209e34081565b6103097f000000000000000000000000000000000000000000000000000000000000000081565b61020261041136600461118f565b610bc7565b6102026104243660046111e6565b6001600160a01b03918216600090815260016020908152604080832093909416825291909152205490565b6101ea610c17565b6000610464338484610c22565b5060015b92915050565b6003546000906104889067ffffffffffffffff1643611355565b6002546104959190611368565b6003546104b29190600160401b90046001600160c01b031661137f565b905090565b6001600160a01b0381166000908152600560205260408120546209e340906104e99067ffffffffffffffff1643611355565b101592915050565b60006104fc336104b7565b61050557600080fd5b600061051083610ade565b905061051c3384610c84565b60405163a9059cbb60e01b81526001600160a01b038581166004830152602482018390527f0000000000000000000000000000000000000000000000000000000000000000169063a9059cbb906044016020604051808303816000875af115801561058b573d6000803e3d6000fd5b505050506040513d601f19601f820116820180604052508101906105af9190611392565b509392505050565b60006105c4848484610d1a565b6001600160a01b0384166000908152600160209081526040808320338452909152902054600160ff1b8110156106085761060885336106038685611355565b610c22565b506001949350505050565b6000826001600160a01b0316826001600160a01b03160361063657506001610468565b6001600160a01b03821661064c57506000610468565b6001600160a01b0380831660009081526004602052604090205461067291859116610613565b9050610468565b60008061068560025490565b905060007f00000000000000000000000000000000000000000000000000000000000000006001600160a01b03166391a0ac6a6040518163ffffffff1660e01b8152600401602060405180830381865afa1580156106e7573d6000803e3d6000fd5b505050506040513d601f19601f8201168201806040525081019061070b91906113b4565b9050600061072a61072561071f878561137f565b84610dd9565b610dff565b6107349084611368565b90506107408382611355565b95945050505050565b6000806107568686610ad1565b9050801561074057604051635260769b60e11b81526001600160a01b0387169063a4c0ed36906107909033908990899089906004016113cd565b6020604051808303816000875af11580156107af573d6000803e3d6000fd5b505050506040513d601f19601f820116820180604052508101906107d39190611392565b9695505050505050565b6000806107e985610bc7565b905060005b838110156108ea57600085858381811061080a5761080a611415565b905060200201602081019061081f919061118f565b9050866001600160a01b0316816001600160a01b03160361083f57600080fd5b6108498782610613565b61085257600080fd5b600061085f83600161137f565b90505b858110156108c05786868281811061087c5761087c611415565b9050602002016020810190610891919061118f565b6001600160a01b0316826001600160a01b0316036108ae57600080fd5b806108b88161142b565b915050610862565b506108ca81610bc7565b6108d4908461137f565b92505080806108e29061142b565b9150506107ee565b506108f361046e565b6108ff9061012c611368565b61090b82612710611368565b101595945050505050565b3360008181526004602052604080822080546001600160a01b0319166001600160a01b03861690811790915590519092917fd000f39f92c3ed77f890f16b6ced1555e0ab2cdf470522d2210de67d8c83d45b91a350565b600061097860025490565b7f00000000000000000000000000000000000000000000000000000000000000006001600160a01b03166391a0ac6a6040518163ffffffff1660e01b8152600401602060405180830381865afa1580156109d6573d6000803e3d6000fd5b505050506040513d601f19601f820116820180604052508101906109fa91906113b4565b610a05906003611368565b6104b2919061145a565b6000336001600160a01b037f00000000000000000000000000000000000000000000000000000000000000001614610a835760405162461bcd60e51b815260206004820152601360248201527231b0b63632b91036bab9ba103132903d31b43360691b604482015260640160405180910390fd5b600254600003610aa457610a9f85670de0b6b3a7640000610ea9565b610608565b610ab685610ab186610679565b610ea9565b6001605a1b610ac460025490565b106106085761060861146e565b6000610464338484610d1a565b600080610aea60025490565b905060007f00000000000000000000000000000000000000000000000000000000000000006001600160a01b03166391a0ac6a6040518163ffffffff1660e01b8152600401602060405180830381865afa158015610b4c573d6000803e3d6000fd5b505050506040513d601f19601f82011682018060405250810190610b7091906113b4565b905081610b8585670de0b6b3a764000061137f565b10610b8f57600080fd5b6000610b9b8584611355565b90506000610bb1610bac8584610dd9565b610f4a565b610bbb908461145a565b90506107d38184611355565b6001600160a01b038116600090815260056020526040812054610bf49067ffffffffffffffff1643611355565b6001600160a01b0383166000908152602081905260409020546104689190611368565b60006104b2336104b7565b6001600160a01b0383811660008181526001602090815260408083209487168084529482529182902085905590518481527f8c5be1e5ebec7d5bd14f71427d1e84f3dd0314c0f7b2291e5b200ac8c7c3b92591015b60405180910390a3505050565b610c9082600083610f5f565b8060026000828254610ca29190611355565b90915550506001600160a01b03821660009081526020819052604081208054839290610ccf908490611355565b90915550506040518181526000906001600160a01b038416907fddf252ad1be2c89b69c2b068fc378daa952ba7f163c4a11628f55a4df523b3ef906020015b60405180910390a35050565b6001600160a01b038216610d2d57600080fd5b610d38838383610f5f565b6001600160a01b03831660009081526020819052604081208054839290610d60908490611355565b90915550506001600160a01b03821660009081526020819052604081208054839290610d8d90849061137f565b92505081905550816001600160a01b0316836001600160a01b03167fddf252ad1be2c89b69c2b068fc378daa952ba7f163c4a11628f55a4df523b3ef83604051610c7791815260200190565b6000670de0b6b3a7640000610dee838561145a565b610df89190611368565b9392505050565b6000670de0b6b3a764000081805b8291506000610e25610e1f8586610f85565b85610f85565b9050610e6384610e5e610e39896002611368565b610e43908561137f565b89610e4f866002611368565b610e59919061137f565b610dd9565b610f85565b9350838311610e8457662386f26fc10000610e7e8486611355565b11610e98565b662386f26fc10000610e968585611355565b115b91505080610e0d5750909392505050565b6001600160a01b038216610ebc57600080fd5b610ec860008383610f5f565b8060026000828254610eda919061137f565b90915550506001600160a01b03821660009081526020819052604081208054839290610f0790849061137f565b90915550506040518181526001600160a01b038316906000907fddf252ad1be2c89b69c2b068fc378daa952ba7f163c4a11628f55a4df523b3ef90602001610d0e565b6000610468610f598384610f85565b83610f85565b8015610f80576000610f718383610fa4565b9050610f7e848383611057565b505b505050565b6000670de0b6b3a7640000610f9a8385611368565b610df8919061145a565b60006001600160a01b0383161561104f576000610fc084610bc7565b9050600083610fe4866001600160a01b031660009081526020819052604090205490565b610fee919061137f565b9050610ffa818361145a565b6110049043611355565b6001600160a01b0386166000908152600560205260409020805467ffffffffffffffff191667ffffffffffffffff929092169190911790556110468183611484565b92505050610468565b506000610468565b60006001600160a01b038416156110a6576001600160a01b03841660009081526005602052604090205483906110979067ffffffffffffffff1643611355565b6110a19190611368565b6110a9565b60005b905080826110b561046e565b6110bf9190611355565b6110c99190611355565b4367ffffffffffffffff166001600160c01b0391909116600160401b0267ffffffffffffffff19161760035550505050565b600060208083528351808285015260005b818110156111285785810183015185820160400152820161110c565b506000604082860101526040601f19601f8301168501019250505092915050565b80356001600160a01b038116811461116057600080fd5b919050565b6000806040838503121561117857600080fd5b61118183611149565b946020939093013593505050565b6000602082840312156111a157600080fd5b610df882611149565b6000806000606084860312156111bf57600080fd5b6111c884611149565b92506111d660208501611149565b9150604084013590509250925092565b600080604083850312156111f957600080fd5b61120283611149565b915061121060208401611149565b90509250929050565b60006020828403121561122b57600080fd5b5035919050565b6000806000806060858703121561124857600080fd5b61125185611149565b935060208501359250604085013567ffffffffffffffff8082111561127557600080fd5b818701915087601f83011261128957600080fd5b81358181111561129857600080fd5b8860208285010111156112aa57600080fd5b95989497505060200194505050565b6000806000604084860312156112ce57600080fd5b6112d784611149565b9250602084013567ffffffffffffffff808211156112f457600080fd5b818601915086601f83011261130857600080fd5b81358181111561131757600080fd5b8760208260051b850101111561132c57600080fd5b6020830194508093505050509250925092565b634e487b7160e01b600052601160045260246000fd5b818103818111156104685761046861133f565b80820281158282048414176104685761046861133f565b808201808211156104685761046861133f565b6000602082840312156113a457600080fd5b81518015158114610df857600080fd5b6000602082840312156113c657600080fd5b5051919050565b6001600160a01b0385168152602081018490526060604082018190528101829052818360808301376000818301608090810191909152601f909201601f191601019392505050565b634e487b7160e01b600052603260045260246000fd5b60006001820161143d5761143d61133f565b5060010190565b634e487b7160e01b600052601260045260246000fd5b60008261146957611469611444565b500490565b634e487b7160e01b600052600160045260246000fd5b60008261149357611493611444565b50069056fea26469706673582212202f6282081e2078e6978f417f04913f5a38e70e2f59e508f1788e94799f89f7f764736f6c63430008110033",
    "sourcePath": "c:/Users/luziu/Documents/GitHub/FrankenCoin-ZCHF/contracts/Equity.sol",
    "compiler": {
        "name": "solc",
        "version": "0.8.17+commit.8df45f5f"
    },
    "functionHashes": {
        "MIN_HOLDING_DURATION()": "b0c2bf06",
        "VALUATION_FACTOR()": "250f25f4",
        "allowance(address,address)": "dd62ed3e",
        "approve(address,uint256)": "095ea7b3",
        "balanceOf(address)": "70a08231",
        "calculateProceeds(uint256)": "ad08ce5b",
        "calculateShares(uint256)": "3ec16194",
        "canRedeem()": "f97ed509",
        "canRedeem(address)": "151535b9",
        "canVoteFor(address,address)": "3c835ab0",
        "decimals()": "313ce567",
        "delegateVoteTo(address)": "9823004f",
        "delegates(address)": "587cde1e",
        "isQualified(address,address[])": "5e1121cf",
        "name()": "06fdde03",
        "onTokenTransfer(address,uint256,bytes)": "a4c0ed36",
        "price()": "a035b1fe",
        "redeem(address,uint256)": "1e9a6950",
        "symbol()": "95d89b41",
        "totalSupply()": "18160ddd",
        "totalVotes()": "0d15fd77",
        "transfer(address,uint256)": "a9059cbb",
        "transferAndCall(address,uint256,bytes)": "4000aea0",
        "transferFrom(address,address,uint256)": "23b872dd",
        "votes(address)": "d8bff5a5",
        "zchf()": "c4d4803a"
    },
    "gasEstimates": {
        "creation": {
            "codeDepositCost": "1065200",
            "executionCost": "infinite",
            "totalCost": "infinite"
        },
        "external": {
            "MIN_HOLDING_DURATION()": "284",
            "VALUATION_FACTOR()": "272",
            "allowance(address,address)": "infinite",
            "approve(address,uint256)": "24574",
            "balanceOf(address)": "2585",
            "calculateProceeds(uint256)": "infinite",
            "calculateShares(uint256)": "infinite",
            "canRedeem()": "2646",
            "canRedeem(address)": "2747",
            "canVoteFor(address,address)": "infinite",
            "decimals()": "infinite",
            "delegateVoteTo(address)": "26248",
            "delegates(address)": "2669",
            "isQualified(address,address[])": "infinite",
            "name()": "infinite",
            "onTokenTransfer(address,uint256,bytes)": "infinite",
            "price()": "infinite",
            "redeem(address,uint256)": "infinite",
            "symbol()": "infinite",
            "totalSupply()": "2404",
            "totalVotes()": "infinite",
            "transfer(address,uint256)": "infinite",
            "transferAndCall(address,uint256,bytes)": "infinite",
            "transferFrom(address,address,uint256)": "infinite",
            "votes(address)": "infinite",
            "zchf()": "infinite"
        },
        "internal": {
            "_beforeTokenTransfer(address,address,uint256)": "infinite",
            "adjustRecipientVoteAnchor(address,uint256)": "infinite",
            "adjustTotalVotes(address,uint256,uint256)": "infinite"
        }
    }
}