{
    "contractName": "Frankencoin",
    "abi": [
        {
            "inputs": [
                {
                    "internalType": "address",
                    "name": "_reserve",
                    "type": "address"
                }
            ],
            "stateMutability": "nonpayable",
            "type": "constructor"
        },
        {
            "anonymous": false,
            "inputs": [
                {
                    "indexed": true,
                    "internalType": "address",
                    "name": "owner",
                    "type": "address"
                },
                {
                    "indexed": true,
                    "internalType": "address",
                    "name": "spender",
                    "type": "address"
                },
                {
                    "indexed": false,
                    "internalType": "uint256",
                    "name": "value",
                    "type": "uint256"
                }
            ],
            "name": "Approval",
            "type": "event"
        },
        {
            "anonymous": false,
            "inputs": [
                {
                    "indexed": true,
                    "internalType": "address",
                    "name": "minter",
                    "type": "address"
                },
                {
                    "indexed": false,
                    "internalType": "uint256",
                    "name": "applicationPeriod",
                    "type": "uint256"
                },
                {
                    "indexed": false,
                    "internalType": "uint256",
                    "name": "applicationFee",
                    "type": "uint256"
                }
            ],
            "name": "MinterApplied",
            "type": "event"
        },
        {
            "anonymous": false,
            "inputs": [
                {
                    "indexed": true,
                    "internalType": "address",
                    "name": "minter",
                    "type": "address"
                }
            ],
            "name": "MinterDenied",
            "type": "event"
        },
        {
            "anonymous": false,
            "inputs": [
                {
                    "indexed": true,
                    "internalType": "address",
                    "name": "from",
                    "type": "address"
                },
                {
                    "indexed": true,
                    "internalType": "address",
                    "name": "to",
                    "type": "address"
                },
                {
                    "indexed": false,
                    "internalType": "uint256",
                    "name": "value",
                    "type": "uint256"
                }
            ],
            "name": "Transfer",
            "type": "event"
        },
        {
            "inputs": [],
            "name": "MIN_APPLICATION_PERIOD",
            "outputs": [
                {
                    "internalType": "uint256",
                    "name": "",
                    "type": "uint256"
                }
            ],
            "stateMutability": "view",
            "type": "function"
        },
        {
            "inputs": [],
            "name": "MIN_FEE",
            "outputs": [
                {
                    "internalType": "uint256",
                    "name": "",
                    "type": "uint256"
                }
            ],
            "stateMutability": "view",
            "type": "function"
        },
        {
            "inputs": [
                {
                    "internalType": "address",
                    "name": "owner",
                    "type": "address"
                },
                {
                    "internalType": "address",
                    "name": "spender",
                    "type": "address"
                }
            ],
            "name": "allowance",
            "outputs": [
                {
                    "internalType": "uint256",
                    "name": "",
                    "type": "uint256"
                }
            ],
            "stateMutability": "view",
            "type": "function"
        },
        {
            "inputs": [
                {
                    "internalType": "address",
                    "name": "spender",
                    "type": "address"
                },
                {
                    "internalType": "uint256",
                    "name": "value",
                    "type": "uint256"
                }
            ],
            "name": "approve",
            "outputs": [
                {
                    "internalType": "bool",
                    "name": "",
                    "type": "bool"
                }
            ],
            "stateMutability": "nonpayable",
            "type": "function"
        },
        {
            "inputs": [
                {
                    "internalType": "address",
                    "name": "account",
                    "type": "address"
                }
            ],
            "name": "balanceOf",
            "outputs": [
                {
                    "internalType": "uint256",
                    "name": "",
                    "type": "uint256"
                }
            ],
            "stateMutability": "view",
            "type": "function"
        },
        {
            "inputs": [
                {
                    "internalType": "uint256",
                    "name": "amount",
                    "type": "uint256"
                }
            ],
            "name": "burn",
            "outputs": [],
            "stateMutability": "nonpayable",
            "type": "function"
        },
        {
            "inputs": [
                {
                    "internalType": "address",
                    "name": "target",
                    "type": "address"
                },
                {
                    "internalType": "uint256",
                    "name": "amount",
                    "type": "uint256"
                },
                {
                    "internalType": "uint256",
                    "name": "reserveRequirementDecrement",
                    "type": "uint256"
                }
            ],
            "name": "burn",
            "outputs": [],
            "stateMutability": "nonpayable",
            "type": "function"
        },
        {
            "inputs": [],
            "name": "decimals",
            "outputs": [
                {
                    "internalType": "uint8",
                    "name": "",
                    "type": "uint8"
                }
            ],
            "stateMutability": "view",
            "type": "function"
        },
        {
            "inputs": [
                {
                    "internalType": "address",
                    "name": "minter",
                    "type": "address"
                },
                {
                    "internalType": "address[]",
                    "name": "helpers",
                    "type": "address[]"
                }
            ],
            "name": "denyMinter",
            "outputs": [],
            "stateMutability": "nonpayable",
            "type": "function"
        },
        {
            "inputs": [],
            "name": "hasEnoughReserves",
            "outputs": [
                {
                    "internalType": "bool",
                    "name": "",
                    "type": "bool"
                }
            ],
            "stateMutability": "view",
            "type": "function"
        },
        {
            "inputs": [
                {
                    "internalType": "address",
                    "name": "minter",
                    "type": "address"
                }
            ],
            "name": "isMinter",
            "outputs": [
                {
                    "internalType": "bool",
                    "name": "",
                    "type": "bool"
                }
            ],
            "stateMutability": "view",
            "type": "function"
        },
        {
            "inputs": [
                {
                    "internalType": "address",
                    "name": "target",
                    "type": "address"
                },
                {
                    "internalType": "uint256",
                    "name": "amount",
                    "type": "uint256"
                },
                {
                    "internalType": "uint256",
                    "name": "reserveRequirementIncrement",
                    "type": "uint256"
                }
            ],
            "name": "mint",
            "outputs": [],
            "stateMutability": "nonpayable",
            "type": "function"
        },
        {
            "inputs": [
                {
                    "internalType": "address",
                    "name": "target",
                    "type": "address"
                },
                {
                    "internalType": "uint256",
                    "name": "amount",
                    "type": "uint256"
                },
                {
                    "internalType": "uint256",
                    "name": "reserveRequirementIncrement",
                    "type": "uint256"
                }
            ],
            "name": "mintAndCall",
            "outputs": [],
            "stateMutability": "nonpayable",
            "type": "function"
        },
        {
            "inputs": [
                {
                    "internalType": "address",
                    "name": "",
                    "type": "address"
                }
            ],
            "name": "minters",
            "outputs": [
                {
                    "internalType": "uint256",
                    "name": "",
                    "type": "uint256"
                }
            ],
            "stateMutability": "view",
            "type": "function"
        },
        {
            "inputs": [],
            "name": "name",
            "outputs": [
                {
                    "internalType": "string",
                    "name": "",
                    "type": "string"
                }
            ],
            "stateMutability": "pure",
            "type": "function"
        },
        {
            "inputs": [],
            "name": "reserve",
            "outputs": [
                {
                    "internalType": "address",
                    "name": "",
                    "type": "address"
                }
            ],
            "stateMutability": "view",
            "type": "function"
        },
        {
            "inputs": [],
            "name": "reserveRequirement",
            "outputs": [
                {
                    "internalType": "uint256",
                    "name": "",
                    "type": "uint256"
                }
            ],
            "stateMutability": "view",
            "type": "function"
        },
        {
            "inputs": [],
            "name": "reserves",
            "outputs": [
                {
                    "internalType": "uint256",
                    "name": "",
                    "type": "uint256"
                }
            ],
            "stateMutability": "view",
            "type": "function"
        },
        {
            "inputs": [
                {
                    "internalType": "address",
                    "name": "minter",
                    "type": "address"
                },
                {
                    "internalType": "uint256",
                    "name": "applicationPeriod",
                    "type": "uint256"
                },
                {
                    "internalType": "uint256",
                    "name": "applicationFee",
                    "type": "uint256"
                }
            ],
            "name": "suggestMinter",
            "outputs": [],
            "stateMutability": "nonpayable",
            "type": "function"
        },
        {
            "inputs": [],
            "name": "symbol",
            "outputs": [
                {
                    "internalType": "string",
                    "name": "",
                    "type": "string"
                }
            ],
            "stateMutability": "pure",
            "type": "function"
        },
        {
            "inputs": [],
            "name": "totalSupply",
            "outputs": [
                {
                    "internalType": "uint256",
                    "name": "",
                    "type": "uint256"
                }
            ],
            "stateMutability": "view",
            "type": "function"
        },
        {
            "inputs": [
                {
                    "internalType": "address",
                    "name": "recipient",
                    "type": "address"
                },
                {
                    "internalType": "uint256",
                    "name": "amount",
                    "type": "uint256"
                }
            ],
            "name": "transfer",
            "outputs": [
                {
                    "internalType": "bool",
                    "name": "",
                    "type": "bool"
                }
            ],
            "stateMutability": "nonpayable",
            "type": "function"
        },
        {
            "inputs": [
                {
                    "internalType": "address",
                    "name": "recipient",
                    "type": "address"
                },
                {
                    "internalType": "uint256",
                    "name": "amount",
                    "type": "uint256"
                },
                {
                    "internalType": "bytes",
                    "name": "data",
                    "type": "bytes"
                }
            ],
            "name": "transferAndCall",
            "outputs": [
                {
                    "internalType": "bool",
                    "name": "",
                    "type": "bool"
                }
            ],
            "stateMutability": "nonpayable",
            "type": "function"
        },
        {
            "inputs": [
                {
                    "internalType": "address",
                    "name": "sender",
                    "type": "address"
                },
                {
                    "internalType": "address",
                    "name": "recipient",
                    "type": "address"
                },
                {
                    "internalType": "uint256",
                    "name": "amount",
                    "type": "uint256"
                }
            ],
            "name": "transferFrom",
            "outputs": [
                {
                    "internalType": "bool",
                    "name": "",
                    "type": "bool"
                }
            ],
            "stateMutability": "nonpayable",
            "type": "function"
        }
    ],
    "bytecode": "60c060405234801561001057600080fd5b5060405161109738038061109783398101604081905261002f91610045565b60126080526001600160a01b031660a052610075565b60006020828403121561005757600080fd5b81516001600160a01b038116811461006e57600080fd5b9392505050565b60805160a051610fe16100b6600039600081816102b301528181610379015281816105be015281816106ae01526107a40152600061020b0152610fe16000f3fe608060405234801561001057600080fd5b50600436106101585760003560e01c806375172a8b116100c3578063a9059cbb1161007c578063a9059cbb14610336578063aa271e1a14610349578063cd3293de14610374578063dd62ed3e146103b3578063f46eccc4146103ec578063f5298aca1461040c57600080fd5b806375172a8b146102a957806376c7a3c7146101e35780637f3c587e146102e757806381eed3d9146102f057806395d89b4114610303578063972ae8d21461032357600080fd5b8063313ce56711610115578063313ce567146102065780634000aea01461023f57806342966c681461025257806354a5aaea146102655780636caa878d1461026d57806370a082311461028057600080fd5b806306fdde031461015d578063095ea7b314610199578063156e29f6146101bc57806318160ddd146101d15780631a46c7e9146101e357806323b872dd146101f3575b600080fd5b60408051808201909152600e81526d4672616e6b656e636f696e20563160901b60208201525b6040516101909190610c38565b60405180910390f35b6101ac6101a7366004610c6e565b61041f565b6040519015158152602001610190565b6101cf6101ca366004610c98565b610435565b005b6002545b604051908152602001610190565b6101d5683635c9adc5dea0000081565b6101ac610201366004610ccb565b6104b5565b61022d7f000000000000000000000000000000000000000000000000000000000000000081565b60405160ff9091168152602001610190565b6101ac61024d366004610d07565b610511565b6101cf610260366004610d8e565b6105a7565b6101ac6105b4565b6101cf61027b366004610c98565b6105ff565b6101d561028e366004610da7565b6001600160a01b031660009081526020819052604090205490565b6001600160a01b037f0000000000000000000000000000000000000000000000000000000000000000166000908152602081905260409020546101d5565b6101d560035481565b6101cf6102fe366004610dc2565b61073a565b6040805180820190915260048152632d21a42360e11b6020820152610183565b6101cf610331366004610c98565b6108a2565b6101ac610344366004610c6e565b610933565b6101ac610357366004610da7565b6001600160a01b0316600090815260046020526040902054421190565b61039b7f000000000000000000000000000000000000000000000000000000000000000081565b6040516001600160a01b039091168152602001610190565b6101d56103c1366004610e48565b6001600160a01b03918216600090815260016020908152604080832093909416825291909152205490565b6101d56103fa366004610da7565b60046020526000908152604090205481565b6101cf61041a366004610c98565b610940565b600061042c3384846109b6565b50600192915050565b33600090815260046020526040902054421161048e5760405162461bcd60e51b81526020600482015260136024820152723737ba1030b8383937bb32b21036b4b73a32b960691b60448201526064015b60405180910390fd5b80600360008282546104a09190610e91565b909155506104b090508383610a18565b505050565b60006104c2848484610ab5565b6001600160a01b0384166000908152600160209081526040808320338452909152902054600160ff1b8110156105065761050685336105018685610ea9565b6109b6565b506001949350505050565b60008061051e8686610933565b9050801561059e57604051635260769b60e11b81526001600160a01b0387169063a4c0ed3690610558903390899089908990600401610ec0565b6020604051808303816000875af1158015610577573d6000803e3d6000fd5b505050506040513d601f19601f8201168201806040525081019061059b9190610f08565b90505b95945050505050565b6105b13382610b69565b50565b60006003546105f87f00000000000000000000000000000000000000000000000000000000000000006001600160a01b031660009081526020819052604090205490565b1015905090565b683635c9adc5dea00000821015806106175750600254155b6106565760405162461bcd60e51b815260206004820152601060248201526f1c195c9a5bd9081d1bdbc81cda1bdc9d60821b6044820152606401610485565b683635c9adc5dea000008110158061066e5750600254155b6106a85760405162461bcd60e51b815260206004820152600b60248201526a66656520746f6f206c6f7760a81b6044820152606401610485565b6106d3337f000000000000000000000000000000000000000000000000000000000000000083610ab5565b6106dd8242610e91565b6001600160a01b03841660008181526004602090815260409182902093909355805185815292830184905290917f9743d52b6d6c7d23d50364a8554954a49e07ae866a1be204f760f5320460551b910160405180910390a2505050565b6001600160a01b03831660009081526004602052604090205442111561078d5760405162461bcd60e51b8152602060048201526008602482015267746f6f206c61746560c01b6044820152606401610485565b604051635e1121cf60e01b81526001600160a01b037f00000000000000000000000000000000000000000000000000000000000000001690635e1121cf906107dd90339086908690600401610f2a565b6020604051808303816000875af11580156107fc573d6000803e3d6000fd5b505050506040513d601f19601f820116820180604052508101906108209190610f08565b61085c5760405162461bcd60e51b815260206004820152600d60248201526c1b9bdd081c5d585b1a599a5959609a1b6044820152606401610485565b6001600160a01b038316600081815260046020526040808220829055517f0d1f8fd00f5bb425127983efc0dadc572e2df670bff11691d187b9f7d0cf5b439190a2505050565b6108ad838383610435565b60408051600081526020810191829052635260769b60e11b9091526001600160a01b0384169063a4c0ed36906108ea903390869060248101610f84565b6020604051808303816000875af1158015610909573d6000803e3d6000fd5b505050506040513d601f19601f8201168201806040525081019061092d9190610f08565b50505050565b600061042c338484610ab5565b3360009081526004602052604090205442116109945760405162461bcd60e51b81526020600482015260136024820152723737ba1030b8383937bb32b21036b4b73a32b960691b6044820152606401610485565b80600360008282546109a69190610ea9565b909155506104b090508383610b69565b6001600160a01b0383811660008181526001602090815260408083209487168084529482529182902085905590518481527f8c5be1e5ebec7d5bd14f71427d1e84f3dd0314c0f7b2291e5b200ac8c7c3b92591015b60405180910390a3505050565b6001600160a01b038216610a2b57600080fd5b8060026000828254610a3d9190610e91565b90915550506001600160a01b03821660009081526020819052604081208054839290610a6a908490610e91565b90915550506040518181526001600160a01b038316906000907fddf252ad1be2c89b69c2b068fc378daa952ba7f163c4a11628f55a4df523b3ef906020015b60405180910390a35050565b6001600160a01b038216610ac857600080fd5b6001600160a01b03831660009081526020819052604081208054839290610af0908490610ea9565b90915550506001600160a01b03821660009081526020819052604081208054839290610b1d908490610e91565b92505081905550816001600160a01b0316836001600160a01b03167fddf252ad1be2c89b69c2b068fc378daa952ba7f163c4a11628f55a4df523b3ef83604051610a0b91815260200190565b8060026000828254610b7b9190610ea9565b90915550506001600160a01b03821660009081526020819052604081208054839290610ba8908490610ea9565b90915550506040518181526000906001600160a01b038416907fddf252ad1be2c89b69c2b068fc378daa952ba7f163c4a11628f55a4df523b3ef90602001610aa9565b6000815180845260005b81811015610c1157602081850181015186830182015201610bf5565b81811115610c23576000602083870101525b50601f01601f19169290920160200192915050565b602081526000610c4b6020830184610beb565b9392505050565b80356001600160a01b0381168114610c6957600080fd5b919050565b60008060408385031215610c8157600080fd5b610c8a83610c52565b946020939093013593505050565b600080600060608486031215610cad57600080fd5b610cb684610c52565b95602085013595506040909401359392505050565b600080600060608486031215610ce057600080fd5b610ce984610c52565b9250610cf760208501610c52565b9150604084013590509250925092565b60008060008060608587031215610d1d57600080fd5b610d2685610c52565b935060208501359250604085013567ffffffffffffffff80821115610d4a57600080fd5b818701915087601f830112610d5e57600080fd5b813581811115610d6d57600080fd5b886020828501011115610d7f57600080fd5b95989497505060200194505050565b600060208284031215610da057600080fd5b5035919050565b600060208284031215610db957600080fd5b610c4b82610c52565b600080600060408486031215610dd757600080fd5b610de084610c52565b9250602084013567ffffffffffffffff80821115610dfd57600080fd5b818601915086601f830112610e1157600080fd5b813581811115610e2057600080fd5b8760208260051b8501011115610e3557600080fd5b6020830194508093505050509250925092565b60008060408385031215610e5b57600080fd5b610e6483610c52565b9150610e7260208401610c52565b90509250929050565b634e487b7160e01b600052601160045260246000fd5b60008219821115610ea457610ea4610e7b565b500190565b600082821015610ebb57610ebb610e7b565b500390565b6001600160a01b0385168152602081018490526060604082018190528101829052818360808301376000818301608090810191909152601f909201601f191601019392505050565b600060208284031215610f1a57600080fd5b81518015158114610c4b57600080fd5b6001600160a01b03848116825260406020808401829052908301849052600091859160608501845b87811015610f775783610f6486610c52565b1682529382019390820190600101610f52565b5098975050505050505050565b60018060a01b038416815282602082015260606040820152600061059e6060830184610beb56fea2646970667358221220e240c8d95189e0092deda826da7b85fbed43dd973e27c0d697596c19dc21ed9664736f6c634300080e0033",
    "sourcePath": "c:/Users/luziu/Documents/GitHub/FrankenCoin/contracts/Frankencoin.sol",
    "compiler": {
        "name": "solc",
        "version": "0.8.14+commit.80d49f37"
    },
    "functionHashes": {
        "MIN_APPLICATION_PERIOD()": "1a46c7e9",
        "MIN_FEE()": "76c7a3c7",
        "allowance(address,address)": "dd62ed3e",
        "approve(address,uint256)": "095ea7b3",
        "balanceOf(address)": "70a08231",
        "burn(address,uint256,uint256)": "f5298aca",
        "burn(uint256)": "42966c68",
        "decimals()": "313ce567",
        "denyMinter(address,address[])": "81eed3d9",
        "hasEnoughReserves()": "54a5aaea",
        "isMinter(address)": "aa271e1a",
        "mint(address,uint256,uint256)": "156e29f6",
        "mintAndCall(address,uint256,uint256)": "972ae8d2",
        "minters(address)": "f46eccc4",
        "name()": "06fdde03",
        "reserve()": "cd3293de",
        "reserveRequirement()": "7f3c587e",
        "reserves()": "75172a8b",
        "suggestMinter(address,uint256,uint256)": "6caa878d",
        "symbol()": "95d89b41",
        "totalSupply()": "18160ddd",
        "transfer(address,uint256)": "a9059cbb",
        "transferAndCall(address,uint256,bytes)": "4000aea0",
        "transferFrom(address,address,uint256)": "23b872dd"
    },
    "gasEstimates": {
        "creation": {
            "codeDepositCost": "813000",
            "executionCost": "infinite",
            "totalCost": "infinite"
        },
        "external": {
            "MIN_APPLICATION_PERIOD()": "307",
            "MIN_FEE()": "240",
            "allowance(address,address)": "infinite",
            "approve(address,uint256)": "24573",
            "balanceOf(address)": "2673",
            "burn(address,uint256,uint256)": "infinite",
            "burn(uint256)": "infinite",
            "decimals()": "infinite",
            "denyMinter(address,address[])": "infinite",
            "hasEnoughReserves()": "infinite",
            "isMinter(address)": "2592",
            "mint(address,uint256,uint256)": "infinite",
            "mintAndCall(address,uint256,uint256)": "infinite",
            "minters(address)": "2629",
            "name()": "infinite",
            "reserve()": "infinite",
            "reserveRequirement()": "2362",
            "reserves()": "infinite",
            "suggestMinter(address,uint256,uint256)": "infinite",
            "symbol()": "infinite",
            "totalSupply()": "2371",
            "transfer(address,uint256)": "51135",
            "transferAndCall(address,uint256,bytes)": "infinite",
            "transferFrom(address,address,uint256)": "infinite"
        }
    }
}