{
    "contractName": "Frankencoin",
    "abi": [
        {
            "inputs": [
                {
                    "internalType": "address",
                    "name": "_reserve",
                    "type": "address"
                }
            ],
            "stateMutability": "nonpayable",
            "type": "constructor"
        },
        {
            "anonymous": false,
            "inputs": [
                {
                    "indexed": true,
                    "internalType": "address",
                    "name": "owner",
                    "type": "address"
                },
                {
                    "indexed": true,
                    "internalType": "address",
                    "name": "spender",
                    "type": "address"
                },
                {
                    "indexed": false,
                    "internalType": "uint256",
                    "name": "value",
                    "type": "uint256"
                }
            ],
            "name": "Approval",
            "type": "event"
        },
        {
            "anonymous": false,
            "inputs": [
                {
                    "indexed": true,
                    "internalType": "address",
                    "name": "minter",
                    "type": "address"
                },
                {
                    "indexed": false,
                    "internalType": "uint256",
                    "name": "applicationPeriod",
                    "type": "uint256"
                },
                {
                    "indexed": false,
                    "internalType": "uint256",
                    "name": "applicationFee",
                    "type": "uint256"
                }
            ],
            "name": "MinterApplied",
            "type": "event"
        },
        {
            "anonymous": false,
            "inputs": [
                {
                    "indexed": true,
                    "internalType": "address",
                    "name": "minter",
                    "type": "address"
                }
            ],
            "name": "MinterDenied",
            "type": "event"
        },
        {
            "anonymous": false,
            "inputs": [
                {
                    "indexed": true,
                    "internalType": "address",
                    "name": "from",
                    "type": "address"
                },
                {
                    "indexed": true,
                    "internalType": "address",
                    "name": "to",
                    "type": "address"
                },
                {
                    "indexed": false,
                    "internalType": "uint256",
                    "name": "value",
                    "type": "uint256"
                }
            ],
            "name": "Transfer",
            "type": "event"
        },
        {
            "inputs": [],
            "name": "MIN_APPLICATION_PERIOD",
            "outputs": [
                {
                    "internalType": "uint256",
                    "name": "",
                    "type": "uint256"
                }
            ],
            "stateMutability": "view",
            "type": "function"
        },
        {
            "inputs": [],
            "name": "MIN_FEE",
            "outputs": [
                {
                    "internalType": "uint256",
                    "name": "",
                    "type": "uint256"
                }
            ],
            "stateMutability": "view",
            "type": "function"
        },
        {
            "inputs": [
                {
                    "internalType": "address",
                    "name": "owner",
                    "type": "address"
                },
                {
                    "internalType": "address",
                    "name": "spender",
                    "type": "address"
                }
            ],
            "name": "allowance",
            "outputs": [
                {
                    "internalType": "uint256",
                    "name": "",
                    "type": "uint256"
                }
            ],
            "stateMutability": "view",
            "type": "function"
        },
        {
            "inputs": [
                {
                    "internalType": "address",
                    "name": "spender",
                    "type": "address"
                },
                {
                    "internalType": "uint256",
                    "name": "value",
                    "type": "uint256"
                }
            ],
            "name": "approve",
            "outputs": [
                {
                    "internalType": "bool",
                    "name": "",
                    "type": "bool"
                }
            ],
            "stateMutability": "nonpayable",
            "type": "function"
        },
        {
            "inputs": [
                {
                    "internalType": "address",
                    "name": "account",
                    "type": "address"
                }
            ],
            "name": "balanceOf",
            "outputs": [
                {
                    "internalType": "uint256",
                    "name": "",
                    "type": "uint256"
                }
            ],
            "stateMutability": "view",
            "type": "function"
        },
        {
            "inputs": [
                {
                    "internalType": "uint256",
                    "name": "amount",
                    "type": "uint256"
                }
            ],
            "name": "burn",
            "outputs": [],
            "stateMutability": "nonpayable",
            "type": "function"
        },
        {
            "inputs": [
                {
                    "internalType": "address",
                    "name": "target",
                    "type": "address"
                },
                {
                    "internalType": "uint256",
                    "name": "amount",
                    "type": "uint256"
                },
                {
                    "internalType": "uint256",
                    "name": "reserveRequirementDecrement",
                    "type": "uint256"
                }
            ],
            "name": "burn",
            "outputs": [],
            "stateMutability": "nonpayable",
            "type": "function"
        },
        {
            "inputs": [],
            "name": "decimals",
            "outputs": [
                {
                    "internalType": "uint8",
                    "name": "",
                    "type": "uint8"
                }
            ],
            "stateMutability": "view",
            "type": "function"
        },
        {
            "inputs": [
                {
                    "internalType": "address",
                    "name": "minter",
                    "type": "address"
                },
                {
                    "internalType": "address[]",
                    "name": "helpers",
                    "type": "address[]"
                }
            ],
            "name": "denyMinter",
            "outputs": [],
            "stateMutability": "nonpayable",
            "type": "function"
        },
        {
            "inputs": [],
            "name": "hasEnoughReserves",
            "outputs": [
                {
                    "internalType": "bool",
                    "name": "",
                    "type": "bool"
                }
            ],
            "stateMutability": "view",
            "type": "function"
        },
        {
            "inputs": [
                {
                    "internalType": "address",
                    "name": "minter",
                    "type": "address"
                }
            ],
            "name": "isMinter",
            "outputs": [
                {
                    "internalType": "bool",
                    "name": "",
                    "type": "bool"
                }
            ],
            "stateMutability": "view",
            "type": "function"
        },
        {
            "inputs": [
                {
                    "internalType": "address",
                    "name": "target",
                    "type": "address"
                },
                {
                    "internalType": "uint256",
                    "name": "amount",
                    "type": "uint256"
                },
                {
                    "internalType": "uint256",
                    "name": "reserveRequirementIncrement",
                    "type": "uint256"
                }
            ],
            "name": "mint",
            "outputs": [],
            "stateMutability": "nonpayable",
            "type": "function"
        },
        {
            "inputs": [
                {
                    "internalType": "address",
                    "name": "target",
                    "type": "address"
                },
                {
                    "internalType": "uint256",
                    "name": "amount",
                    "type": "uint256"
                },
                {
                    "internalType": "uint256",
                    "name": "reserveRequirementIncrement",
                    "type": "uint256"
                }
            ],
            "name": "mintAndCall",
            "outputs": [],
            "stateMutability": "nonpayable",
            "type": "function"
        },
        {
            "inputs": [
                {
                    "internalType": "address",
                    "name": "",
                    "type": "address"
                }
            ],
            "name": "minters",
            "outputs": [
                {
                    "internalType": "uint256",
                    "name": "",
                    "type": "uint256"
                }
            ],
            "stateMutability": "view",
            "type": "function"
        },
        {
            "inputs": [],
            "name": "name",
            "outputs": [
                {
                    "internalType": "string",
                    "name": "",
                    "type": "string"
                }
            ],
            "stateMutability": "pure",
            "type": "function"
        },
        {
            "inputs": [
                {
                    "internalType": "uint256",
                    "name": "amount",
                    "type": "uint256"
                }
            ],
            "name": "notifyLoss",
            "outputs": [],
            "stateMutability": "nonpayable",
            "type": "function"
        },
        {
            "inputs": [],
            "name": "reserve",
            "outputs": [
                {
                    "internalType": "address",
                    "name": "",
                    "type": "address"
                }
            ],
            "stateMutability": "view",
            "type": "function"
        },
        {
            "inputs": [],
            "name": "reserveRequirement",
            "outputs": [
                {
                    "internalType": "uint256",
                    "name": "",
                    "type": "uint256"
                }
            ],
            "stateMutability": "view",
            "type": "function"
        },
        {
            "inputs": [],
            "name": "reserves",
            "outputs": [
                {
                    "internalType": "uint256",
                    "name": "",
                    "type": "uint256"
                }
            ],
            "stateMutability": "view",
            "type": "function"
        },
        {
            "inputs": [
                {
                    "internalType": "address",
                    "name": "minter",
                    "type": "address"
                },
                {
                    "internalType": "uint256",
                    "name": "applicationPeriod",
                    "type": "uint256"
                },
                {
                    "internalType": "uint256",
                    "name": "applicationFee",
                    "type": "uint256"
                }
            ],
            "name": "suggestMinter",
            "outputs": [],
            "stateMutability": "nonpayable",
            "type": "function"
        },
        {
            "inputs": [],
            "name": "symbol",
            "outputs": [
                {
                    "internalType": "string",
                    "name": "",
                    "type": "string"
                }
            ],
            "stateMutability": "pure",
            "type": "function"
        },
        {
            "inputs": [],
            "name": "totalSupply",
            "outputs": [
                {
                    "internalType": "uint256",
                    "name": "",
                    "type": "uint256"
                }
            ],
            "stateMutability": "view",
            "type": "function"
        },
        {
            "inputs": [
                {
                    "internalType": "address",
                    "name": "recipient",
                    "type": "address"
                },
                {
                    "internalType": "uint256",
                    "name": "amount",
                    "type": "uint256"
                }
            ],
            "name": "transfer",
            "outputs": [
                {
                    "internalType": "bool",
                    "name": "",
                    "type": "bool"
                }
            ],
            "stateMutability": "nonpayable",
            "type": "function"
        },
        {
            "inputs": [
                {
                    "internalType": "address",
                    "name": "recipient",
                    "type": "address"
                },
                {
                    "internalType": "uint256",
                    "name": "amount",
                    "type": "uint256"
                },
                {
                    "internalType": "bytes",
                    "name": "data",
                    "type": "bytes"
                }
            ],
            "name": "transferAndCall",
            "outputs": [
                {
                    "internalType": "bool",
                    "name": "",
                    "type": "bool"
                }
            ],
            "stateMutability": "nonpayable",
            "type": "function"
        },
        {
            "inputs": [
                {
                    "internalType": "address",
                    "name": "sender",
                    "type": "address"
                },
                {
                    "internalType": "address",
                    "name": "recipient",
                    "type": "address"
                },
                {
                    "internalType": "uint256",
                    "name": "amount",
                    "type": "uint256"
                }
            ],
            "name": "transferFrom",
            "outputs": [
                {
                    "internalType": "bool",
                    "name": "",
                    "type": "bool"
                }
            ],
            "stateMutability": "nonpayable",
            "type": "function"
        }
    ],
    "bytecode": "60c060405234801561001057600080fd5b5060405161113538038061113583398101604081905261002f91610045565b60126080526001600160a01b031660a052610075565b60006020828403121561005757600080fd5b81516001600160a01b038116811461006e57600080fd5b9392505050565b60805160a0516110786100bd600039600081816102e1015281816103a7015281816105ec0152818161064d01528181610745015261083b0152600061022601526110786000f3fe608060405234801561001057600080fd5b50600436106101735760003560e01c806370a08231116100de578063972ae8d211610097578063cd3293de11610071578063cd3293de146103a2578063dd62ed3e146103e1578063f46eccc41461041a578063f5298aca1461043a57600080fd5b8063972ae8d214610351578063a9059cbb14610364578063aa271e1a1461037757600080fd5b806370a08231146102ae57806375172a8b146102d757806376c7a3c7146101fe5780637f3c587e1461031557806381eed3d91461031e57806395d89b411461033157600080fd5b8063313ce56711610130578063313ce567146102215780634000aea01461025a57806342966c681461026d57806354a5aaea1461028057806361f3d110146102885780636caa878d1461029b57600080fd5b806306fdde0314610178578063095ea7b3146101b4578063156e29f6146101d757806318160ddd146101ec5780631a46c7e9146101fe57806323b872dd1461020e575b600080fd5b60408051808201909152600e81526d4672616e6b656e636f696e20563160901b60208201525b6040516101ab9190610ccf565b60405180910390f35b6101c76101c2366004610d05565b61044d565b60405190151581526020016101ab565b6101ea6101e5366004610d2f565b610463565b005b6002545b6040519081526020016101ab565b6101f0683635c9adc5dea0000081565b6101c761021c366004610d62565b6104e3565b6102487f000000000000000000000000000000000000000000000000000000000000000081565b60405160ff90911681526020016101ab565b6101c7610268366004610d9e565b61053f565b6101ea61027b366004610e25565b6105d5565b6101c76105e2565b6101ea610296366004610e25565b61062d565b6101ea6102a9366004610d2f565b610673565b6101f06102bc366004610e3e565b6001600160a01b031660009081526020819052604090205490565b6001600160a01b037f0000000000000000000000000000000000000000000000000000000000000000166000908152602081905260409020546101f0565b6101f060035481565b6101ea61032c366004610e59565b6107d1565b6040805180820190915260048152632d21a42360e11b602082015261019e565b6101ea61035f366004610d2f565b610939565b6101c7610372366004610d05565b6109ca565b6101c7610385366004610e3e565b6001600160a01b0316600090815260046020526040902054421190565b6103c97f000000000000000000000000000000000000000000000000000000000000000081565b6040516001600160a01b0390911681526020016101ab565b6101f06103ef366004610edf565b6001600160a01b03918216600090815260016020908152604080832093909416825291909152205490565b6101f0610428366004610e3e565b60046020526000908152604090205481565b6101ea610448366004610d2f565b6109d7565b600061045a338484610a4d565b50600192915050565b3360009081526004602052604090205442116104bc5760405162461bcd60e51b81526020600482015260136024820152723737ba1030b8383937bb32b21036b4b73a32b960691b60448201526064015b60405180910390fd5b80600360008282546104ce9190610f28565b909155506104de90508383610aaf565b505050565b60006104f0848484610b4c565b6001600160a01b0384166000908152600160209081526040808320338452909152902054600160ff1b81101561053457610534853361052f8685610f40565b610a4d565b506001949350505050565b60008061054c86866109ca565b905080156105cc57604051635260769b60e11b81526001600160a01b0387169063a4c0ed3690610586903390899089908990600401610f57565b6020604051808303816000875af11580156105a5573d6000803e3d6000fd5b505050506040513d601f19601f820116820180604052508101906105c99190610f9f565b90505b95945050505050565b6105df3382610c00565b50565b60006003546106267f00000000000000000000000000000000000000000000000000000000000000006001600160a01b031660009081526020819052604090205490565b1015905090565b33600090815260046020526040902054421161064857600080fd5b6105df7f00000000000000000000000000000000000000000000000000000000000000003383610b4c565b683635c9adc5dea000008210158061068b5750600254155b6106ca5760405162461bcd60e51b815260206004820152601060248201526f1c195c9a5bd9081d1bdbc81cda1bdc9d60821b60448201526064016104b3565b683635c9adc5dea00000811015806106e25750600254155b61071c5760405162461bcd60e51b815260206004820152600b60248201526a66656520746f6f206c6f7760a81b60448201526064016104b3565b6001600160a01b0383166000908152600460205260409020541561073f57600080fd5b61076a337f000000000000000000000000000000000000000000000000000000000000000083610b4c565b6107748242610f28565b6001600160a01b03841660008181526004602090815260409182902093909355805185815292830184905290917f9743d52b6d6c7d23d50364a8554954a49e07ae866a1be204f760f5320460551b910160405180910390a2505050565b6001600160a01b0383166000908152600460205260409020544211156108245760405162461bcd60e51b8152602060048201526008602482015267746f6f206c61746560c01b60448201526064016104b3565b604051635e1121cf60e01b81526001600160a01b037f00000000000000000000000000000000000000000000000000000000000000001690635e1121cf9061087490339086908690600401610fc1565b6020604051808303816000875af1158015610893573d6000803e3d6000fd5b505050506040513d601f19601f820116820180604052508101906108b79190610f9f565b6108f35760405162461bcd60e51b815260206004820152600d60248201526c1b9bdd081c5d585b1a599a5959609a1b60448201526064016104b3565b6001600160a01b038316600081815260046020526040808220829055517f0d1f8fd00f5bb425127983efc0dadc572e2df670bff11691d187b9f7d0cf5b439190a2505050565b610944838383610463565b60408051600081526020810191829052635260769b60e11b9091526001600160a01b0384169063a4c0ed369061098190339086906024810161101b565b6020604051808303816000875af11580156109a0573d6000803e3d6000fd5b505050506040513d601f19601f820116820180604052508101906109c49190610f9f565b50505050565b600061045a338484610b4c565b336000908152600460205260409020544211610a2b5760405162461bcd60e51b81526020600482015260136024820152723737ba1030b8383937bb32b21036b4b73a32b960691b60448201526064016104b3565b8060036000828254610a3d9190610f40565b909155506104de90508383610c00565b6001600160a01b0383811660008181526001602090815260408083209487168084529482529182902085905590518481527f8c5be1e5ebec7d5bd14f71427d1e84f3dd0314c0f7b2291e5b200ac8c7c3b92591015b60405180910390a3505050565b6001600160a01b038216610ac257600080fd5b8060026000828254610ad49190610f28565b90915550506001600160a01b03821660009081526020819052604081208054839290610b01908490610f28565b90915550506040518181526001600160a01b038316906000907fddf252ad1be2c89b69c2b068fc378daa952ba7f163c4a11628f55a4df523b3ef906020015b60405180910390a35050565b6001600160a01b038216610b5f57600080fd5b6001600160a01b03831660009081526020819052604081208054839290610b87908490610f40565b90915550506001600160a01b03821660009081526020819052604081208054839290610bb4908490610f28565b92505081905550816001600160a01b0316836001600160a01b03167fddf252ad1be2c89b69c2b068fc378daa952ba7f163c4a11628f55a4df523b3ef83604051610aa291815260200190565b8060026000828254610c129190610f40565b90915550506001600160a01b03821660009081526020819052604081208054839290610c3f908490610f40565b90915550506040518181526000906001600160a01b038416907fddf252ad1be2c89b69c2b068fc378daa952ba7f163c4a11628f55a4df523b3ef90602001610b40565b6000815180845260005b81811015610ca857602081850181015186830182015201610c8c565b81811115610cba576000602083870101525b50601f01601f19169290920160200192915050565b602081526000610ce26020830184610c82565b9392505050565b80356001600160a01b0381168114610d0057600080fd5b919050565b60008060408385031215610d1857600080fd5b610d2183610ce9565b946020939093013593505050565b600080600060608486031215610d4457600080fd5b610d4d84610ce9565b95602085013595506040909401359392505050565b600080600060608486031215610d7757600080fd5b610d8084610ce9565b9250610d8e60208501610ce9565b9150604084013590509250925092565b60008060008060608587031215610db457600080fd5b610dbd85610ce9565b935060208501359250604085013567ffffffffffffffff80821115610de157600080fd5b818701915087601f830112610df557600080fd5b813581811115610e0457600080fd5b886020828501011115610e1657600080fd5b95989497505060200194505050565b600060208284031215610e3757600080fd5b5035919050565b600060208284031215610e5057600080fd5b610ce282610ce9565b600080600060408486031215610e6e57600080fd5b610e7784610ce9565b9250602084013567ffffffffffffffff80821115610e9457600080fd5b818601915086601f830112610ea857600080fd5b813581811115610eb757600080fd5b8760208260051b8501011115610ecc57600080fd5b6020830194508093505050509250925092565b60008060408385031215610ef257600080fd5b610efb83610ce9565b9150610f0960208401610ce9565b90509250929050565b634e487b7160e01b600052601160045260246000fd5b60008219821115610f3b57610f3b610f12565b500190565b600082821015610f5257610f52610f12565b500390565b6001600160a01b0385168152602081018490526060604082018190528101829052818360808301376000818301608090810191909152601f909201601f191601019392505050565b600060208284031215610fb157600080fd5b81518015158114610ce257600080fd5b6001600160a01b03848116825260406020808401829052908301849052600091859160608501845b8781101561100e5783610ffb86610ce9565b1682529382019390820190600101610fe9565b5098975050505050505050565b60018060a01b03841681528260208201526060604082015260006105cc6060830184610c8256fea26469706673582212209431f8ebe3f9ae341686c893acda5899b5641f5fc836fe9e7b9d582a6f04cb1364736f6c634300080e0033",
    "sourcePath": "c:/Users/luziu/Documents/GitHub/FrankenCoin/contracts/Frankencoin.sol",
    "compiler": {
        "name": "solc",
        "version": "0.8.14+commit.80d49f37"
    },
    "functionHashes": {
        "MIN_APPLICATION_PERIOD()": "1a46c7e9",
        "MIN_FEE()": "76c7a3c7",
        "allowance(address,address)": "dd62ed3e",
        "approve(address,uint256)": "095ea7b3",
        "balanceOf(address)": "70a08231",
        "burn(address,uint256,uint256)": "f5298aca",
        "burn(uint256)": "42966c68",
        "decimals()": "313ce567",
        "denyMinter(address,address[])": "81eed3d9",
        "hasEnoughReserves()": "54a5aaea",
        "isMinter(address)": "aa271e1a",
        "mint(address,uint256,uint256)": "156e29f6",
        "mintAndCall(address,uint256,uint256)": "972ae8d2",
        "minters(address)": "f46eccc4",
        "name()": "06fdde03",
        "notifyLoss(uint256)": "61f3d110",
        "reserve()": "cd3293de",
        "reserveRequirement()": "7f3c587e",
        "reserves()": "75172a8b",
        "suggestMinter(address,uint256,uint256)": "6caa878d",
        "symbol()": "95d89b41",
        "totalSupply()": "18160ddd",
        "transfer(address,uint256)": "a9059cbb",
        "transferAndCall(address,uint256,bytes)": "4000aea0",
        "transferFrom(address,address,uint256)": "23b872dd"
    },
    "gasEstimates": {
        "creation": {
            "codeDepositCost": "843200",
            "executionCost": "infinite",
            "totalCost": "infinite"
        },
        "external": {
            "MIN_APPLICATION_PERIOD()": "307",
            "MIN_FEE()": "262",
            "allowance(address,address)": "infinite",
            "approve(address,uint256)": "24573",
            "balanceOf(address)": "2563",
            "burn(address,uint256,uint256)": "infinite",
            "burn(uint256)": "infinite",
            "decimals()": "infinite",
            "denyMinter(address,address[])": "infinite",
            "hasEnoughReserves()": "infinite",
            "isMinter(address)": "2637",
            "mint(address,uint256,uint256)": "infinite",
            "mintAndCall(address,uint256,uint256)": "infinite",
            "minters(address)": "2607",
            "name()": "infinite",
            "notifyLoss(uint256)": "infinite",
            "reserve()": "infinite",
            "reserveRequirement()": "2384",
            "reserves()": "infinite",
            "suggestMinter(address,uint256,uint256)": "infinite",
            "symbol()": "infinite",
            "totalSupply()": "2371",
            "transfer(address,uint256)": "51180",
            "transferAndCall(address,uint256,bytes)": "infinite",
            "transferFrom(address,address,uint256)": "infinite"
        }
    }
}