{
    "contractName": "Frankencoin",
    "abi": [
        {
            "inputs": [],
            "stateMutability": "nonpayable",
            "type": "constructor"
        },
        {
            "anonymous": false,
            "inputs": [
                {
                    "indexed": true,
                    "internalType": "address",
                    "name": "owner",
                    "type": "address"
                },
                {
                    "indexed": true,
                    "internalType": "address",
                    "name": "spender",
                    "type": "address"
                },
                {
                    "indexed": false,
                    "internalType": "uint256",
                    "name": "value",
                    "type": "uint256"
                }
            ],
            "name": "Approval",
            "type": "event"
        },
        {
            "anonymous": false,
            "inputs": [
                {
                    "indexed": true,
                    "internalType": "address",
                    "name": "minter",
                    "type": "address"
                },
                {
                    "indexed": false,
                    "internalType": "uint256",
                    "name": "applicationPeriod",
                    "type": "uint256"
                },
                {
                    "indexed": false,
                    "internalType": "uint256",
                    "name": "applicationFee",
                    "type": "uint256"
                },
                {
                    "indexed": false,
                    "internalType": "string",
                    "name": "message",
                    "type": "string"
                }
            ],
            "name": "MinterApplied",
            "type": "event"
        },
        {
            "anonymous": false,
            "inputs": [
                {
                    "indexed": true,
                    "internalType": "address",
                    "name": "minter",
                    "type": "address"
                },
                {
                    "indexed": false,
                    "internalType": "string",
                    "name": "message",
                    "type": "string"
                }
            ],
            "name": "MinterDenied",
            "type": "event"
        },
        {
            "anonymous": false,
            "inputs": [
                {
                    "indexed": true,
                    "internalType": "address",
                    "name": "from",
                    "type": "address"
                },
                {
                    "indexed": true,
                    "internalType": "address",
                    "name": "to",
                    "type": "address"
                },
                {
                    "indexed": false,
                    "internalType": "uint256",
                    "name": "value",
                    "type": "uint256"
                }
            ],
            "name": "Transfer",
            "type": "event"
        },
        {
            "inputs": [],
            "name": "MIN_APPLICATION_PERIOD",
            "outputs": [
                {
                    "internalType": "uint256",
                    "name": "",
                    "type": "uint256"
                }
            ],
            "stateMutability": "view",
            "type": "function"
        },
        {
            "inputs": [],
            "name": "MIN_FEE",
            "outputs": [
                {
                    "internalType": "uint256",
                    "name": "",
                    "type": "uint256"
                }
            ],
            "stateMutability": "view",
            "type": "function"
        },
        {
            "inputs": [
                {
                    "internalType": "address",
                    "name": "owner",
                    "type": "address"
                },
                {
                    "internalType": "address",
                    "name": "spender",
                    "type": "address"
                }
            ],
            "name": "allowance",
            "outputs": [
                {
                    "internalType": "uint256",
                    "name": "",
                    "type": "uint256"
                }
            ],
            "stateMutability": "view",
            "type": "function"
        },
        {
            "inputs": [
                {
                    "internalType": "address",
                    "name": "spender",
                    "type": "address"
                },
                {
                    "internalType": "uint256",
                    "name": "value",
                    "type": "uint256"
                }
            ],
            "name": "approve",
            "outputs": [
                {
                    "internalType": "bool",
                    "name": "",
                    "type": "bool"
                }
            ],
            "stateMutability": "nonpayable",
            "type": "function"
        },
        {
            "inputs": [
                {
                    "internalType": "address",
                    "name": "account",
                    "type": "address"
                }
            ],
            "name": "balanceOf",
            "outputs": [
                {
                    "internalType": "uint256",
                    "name": "",
                    "type": "uint256"
                }
            ],
            "stateMutability": "view",
            "type": "function"
        },
        {
            "inputs": [
                {
                    "internalType": "uint256",
                    "name": "amount",
                    "type": "uint256"
                }
            ],
            "name": "burn",
            "outputs": [],
            "stateMutability": "nonpayable",
            "type": "function"
        },
        {
            "inputs": [
                {
                    "internalType": "address",
                    "name": "owner",
                    "type": "address"
                },
                {
                    "internalType": "uint256",
                    "name": "amount",
                    "type": "uint256"
                }
            ],
            "name": "burn",
            "outputs": [],
            "stateMutability": "nonpayable",
            "type": "function"
        },
        {
            "inputs": [
                {
                    "internalType": "uint256",
                    "name": "amountExcludingReserve",
                    "type": "uint256"
                },
                {
                    "internalType": "uint32",
                    "name": "reservePPM",
                    "type": "uint32"
                }
            ],
            "name": "burnWithReserve",
            "outputs": [
                {
                    "internalType": "uint256",
                    "name": "",
                    "type": "uint256"
                }
            ],
            "stateMutability": "nonpayable",
            "type": "function"
        },
        {
            "inputs": [],
            "name": "decimals",
            "outputs": [
                {
                    "internalType": "uint8",
                    "name": "",
                    "type": "uint8"
                }
            ],
            "stateMutability": "view",
            "type": "function"
        },
        {
            "inputs": [
                {
                    "internalType": "address",
                    "name": "minter",
                    "type": "address"
                },
                {
                    "internalType": "address[]",
                    "name": "helpers",
                    "type": "address[]"
                },
                {
                    "internalType": "string",
                    "name": "message",
                    "type": "string"
                }
            ],
            "name": "denyMinter",
            "outputs": [],
            "stateMutability": "nonpayable",
            "type": "function"
        },
        {
            "inputs": [],
            "name": "equity",
            "outputs": [
                {
                    "internalType": "uint256",
                    "name": "",
                    "type": "uint256"
                }
            ],
            "stateMutability": "view",
            "type": "function"
        },
        {
            "inputs": [
                {
                    "internalType": "address",
                    "name": "minter",
                    "type": "address"
                }
            ],
            "name": "isMinter",
            "outputs": [
                {
                    "internalType": "bool",
                    "name": "",
                    "type": "bool"
                }
            ],
            "stateMutability": "view",
            "type": "function"
        },
        {
            "inputs": [
                {
                    "internalType": "address",
                    "name": "position",
                    "type": "address"
                }
            ],
            "name": "isPosition",
            "outputs": [
                {
                    "internalType": "address",
                    "name": "",
                    "type": "address"
                }
            ],
            "stateMutability": "view",
            "type": "function"
        },
        {
            "inputs": [
                {
                    "internalType": "address",
                    "name": "target",
                    "type": "address"
                },
                {
                    "internalType": "uint256",
                    "name": "amount",
                    "type": "uint256"
                }
            ],
            "name": "mint",
            "outputs": [],
            "stateMutability": "nonpayable",
            "type": "function"
        },
        {
            "inputs": [
                {
                    "internalType": "address",
                    "name": "target",
                    "type": "address"
                },
                {
                    "internalType": "uint256",
                    "name": "amount",
                    "type": "uint256"
                },
                {
                    "internalType": "uint32",
                    "name": "reservePPM",
                    "type": "uint32"
                },
                {
                    "internalType": "uint32",
                    "name": "feesPPM",
                    "type": "uint32"
                }
            ],
            "name": "mint",
            "outputs": [],
            "stateMutability": "nonpayable",
            "type": "function"
        },
        {
            "inputs": [],
            "name": "minterReserve",
            "outputs": [
                {
                    "internalType": "uint256",
                    "name": "",
                    "type": "uint256"
                }
            ],
            "stateMutability": "view",
            "type": "function"
        },
        {
            "inputs": [
                {
                    "internalType": "address",
                    "name": "",
                    "type": "address"
                }
            ],
            "name": "minters",
            "outputs": [
                {
                    "internalType": "uint256",
                    "name": "",
                    "type": "uint256"
                }
            ],
            "stateMutability": "view",
            "type": "function"
        },
        {
            "inputs": [],
            "name": "name",
            "outputs": [
                {
                    "internalType": "string",
                    "name": "",
                    "type": "string"
                }
            ],
            "stateMutability": "pure",
            "type": "function"
        },
        {
            "inputs": [
                {
                    "internalType": "uint256",
                    "name": "amount",
                    "type": "uint256"
                }
            ],
            "name": "notifyLoss",
            "outputs": [],
            "stateMutability": "nonpayable",
            "type": "function"
        },
        {
            "inputs": [
                {
                    "internalType": "address",
                    "name": "",
                    "type": "address"
                }
            ],
            "name": "positions",
            "outputs": [
                {
                    "internalType": "address",
                    "name": "",
                    "type": "address"
                }
            ],
            "stateMutability": "view",
            "type": "function"
        },
        {
            "inputs": [
                {
                    "internalType": "address",
                    "name": "position",
                    "type": "address"
                }
            ],
            "name": "registerPosition",
            "outputs": [],
            "stateMutability": "nonpayable",
            "type": "function"
        },
        {
            "inputs": [],
            "name": "reserve",
            "outputs": [
                {
                    "internalType": "contract IReserve",
                    "name": "",
                    "type": "address"
                }
            ],
            "stateMutability": "view",
            "type": "function"
        },
        {
            "inputs": [
                {
                    "internalType": "address",
                    "name": "minter",
                    "type": "address"
                },
                {
                    "internalType": "uint256",
                    "name": "applicationPeriod",
                    "type": "uint256"
                },
                {
                    "internalType": "uint256",
                    "name": "applicationFee",
                    "type": "uint256"
                },
                {
                    "internalType": "string",
                    "name": "message",
                    "type": "string"
                }
            ],
            "name": "suggestMinter",
            "outputs": [],
            "stateMutability": "nonpayable",
            "type": "function"
        },
        {
            "inputs": [],
            "name": "symbol",
            "outputs": [
                {
                    "internalType": "string",
                    "name": "",
                    "type": "string"
                }
            ],
            "stateMutability": "pure",
            "type": "function"
        },
        {
            "inputs": [],
            "name": "totalSupply",
            "outputs": [
                {
                    "internalType": "uint256",
                    "name": "",
                    "type": "uint256"
                }
            ],
            "stateMutability": "view",
            "type": "function"
        },
        {
            "inputs": [
                {
                    "internalType": "address",
                    "name": "recipient",
                    "type": "address"
                },
                {
                    "internalType": "uint256",
                    "name": "amount",
                    "type": "uint256"
                }
            ],
            "name": "transfer",
            "outputs": [
                {
                    "internalType": "bool",
                    "name": "",
                    "type": "bool"
                }
            ],
            "stateMutability": "nonpayable",
            "type": "function"
        },
        {
            "inputs": [
                {
                    "internalType": "address",
                    "name": "recipient",
                    "type": "address"
                },
                {
                    "internalType": "uint256",
                    "name": "amount",
                    "type": "uint256"
                },
                {
                    "internalType": "bytes",
                    "name": "data",
                    "type": "bytes"
                }
            ],
            "name": "transferAndCall",
            "outputs": [
                {
                    "internalType": "bool",
                    "name": "",
                    "type": "bool"
                }
            ],
            "stateMutability": "nonpayable",
            "type": "function"
        },
        {
            "inputs": [
                {
                    "internalType": "address",
                    "name": "sender",
                    "type": "address"
                },
                {
                    "internalType": "address",
                    "name": "recipient",
                    "type": "address"
                },
                {
                    "internalType": "uint256",
                    "name": "amount",
                    "type": "uint256"
                }
            ],
            "name": "transferFrom",
            "outputs": [
                {
                    "internalType": "bool",
                    "name": "",
                    "type": "bool"
                }
            ],
            "stateMutability": "nonpayable",
            "type": "function"
        }
    ],
    "bytecode": "60c060405234801561001057600080fd5b506012608052604051309061002490610062565b6001600160a01b039091168152602001604051809103906000f080158015610050573d6000803e3d6000fd5b506001600160a01b031660a05261006f565b61158b806116c183390190565b60805160a0516115ee6100d36000396000818161043601528181610696015281816106d9015281816107040152818161074701528181610804015281816109d001528181610a9b01528181610c7b0152610dc8015260006102a001526115ee6000f3fe608060405234801561001057600080fd5b50600436106101c45760003560e01c806391a0ac6a116100f9578063b52c696d11610097578063d1a15ff111610071578063d1a15ff114610458578063d38bb0091461046b578063dd62ed3e14610474578063f46eccc4146104ad57600080fd5b8063b52c696d1461040b578063cbca628e1461041e578063cd3293de1461043157600080fd5b80639dc29fac116100d35780639dc29fac146103bf578063a47d75ad146103d2578063a9059cbb146103e5578063aa271e1a146103f857600080fd5b806391a0ac6a1461038457806395d89b411461038c5780639b404da6146103ac57600080fd5b80634000aea01161016657806355f575101161014057806355f575101461030f57806361f3d1101461033857806370a082311461034b57806376c7a3c71461037457600080fd5b80634000aea0146102d457806340c10f19146102e757806342966c68146102fc57600080fd5b80631a46c7e9116101a25780631a46c7e91461023a57806323b872dd146102445780632748913b14610257578063313ce5671461029b57600080fd5b806306fdde03146101c9578063095ea7b31461020557806318160ddd14610228575b600080fd5b60408051808201909152600e81526d4672616e6b656e636f696e20563160901b60208201525b6040516101fc919061107f565b60405180910390f35b6102186102133660046110e9565b6104cd565b60405190151581526020016101fc565b6002545b6040519081526020016101fc565b61022c620d2f0081565b610218610252366004611113565b6104e4565b61028361026536600461114f565b6001600160a01b039081166000908152600560205260409020541690565b6040516001600160a01b0390911681526020016101fc565b6102c27f000000000000000000000000000000000000000000000000000000000000000081565b60405160ff90911681526020016101fc565b6102186102e23660046111ba565b610540565b6102fa6102f53660046110e9565b6105d6565b005b6102fa61030a366004611214565b61063a565b61028361031d36600461114f565b6005602052600090815260409020546001600160a01b031681565b6102fa610346366004611214565b610647565b61022c61035936600461114f565b6001600160a01b031660009081526020819052604090205490565b61022c683635c9adc5dea0000081565b61022c61073d565b6040805180820190915260048152632d21a42360e11b60208201526101ef565b6102fa6103ba36600461122d565b61079a565b6102fa6103cd3660046110e9565b610916565b61022c6103e03660046112f3565b61096d565b6102186103f33660046110e9565b610b11565b61021861040636600461114f565b610b1e565b6102fa61041936600461114f565b610b5e565b6102fa61042c36600461131f565b610bc9565b6102837f000000000000000000000000000000000000000000000000000000000000000081565b6102fa61046636600461136c565b610cc4565b61022c60035481565b61022c6104823660046113c3565b6001600160a01b03918216600090815260016020908152604080832093909416825291909152205490565b61022c6104bb36600461114f565b60046020526000908152604090205481565b60006104da338484610e4a565b5060015b92915050565b60006104f1848484610eac565b6001600160a01b0384166000908152600160209081526040808320338452909152902054600160ff1b8110156105355761053585336105308685611403565b610e4a565b506001949350505050565b60008061054d8686610b11565b905080156105cd57604051635260769b60e11b81526001600160a01b0387169063a4c0ed369061058790339089908990899060040161143f565b6020604051808303816000875af11580156105a6573d6000803e3d6000fd5b505050506040513d601f19601f820116820180604052508101906105ca9190611471565b90505b95945050505050565b6105df33610b1e565b80610607575033600090815260056020526040902054610607906001600160a01b0316610b1e565b61062c5760405162461bcd60e51b815260040161062390611493565b60405180910390fd5b6106368282610f60565b5050565b6106443382610ffd565b50565b61065033610b1e565b80610678575033600090815260056020526040902054610678906001600160a01b0316610b1e565b6106945760405162461bcd60e51b815260040161062390611493565b7f00000000000000000000000000000000000000000000000000000000000000006001600160a01b03166000908152602081905260409020548181106106ff576106367f00000000000000000000000000000000000000000000000000000000000000003384610eac565b61072a7f00000000000000000000000000000000000000000000000000000000000000003383610eac565b610636336107388385611403565b610f60565b6001600160a01b037f000000000000000000000000000000000000000000000000000000000000000016600090815260208190526040812054600354811161078757600091505090565b6003546107949082611403565b91505090565b6001600160a01b0385166000908152600460205260409020544211156107ed5760405162461bcd60e51b8152602060048201526008602482015267746f6f206c61746560c01b6044820152606401610623565b604051635e1121cf60e01b81526001600160a01b037f00000000000000000000000000000000000000000000000000000000000000001690635e1121cf9061083d903390889088906004016114c0565b602060405180830381865afa15801561085a573d6000803e3d6000fd5b505050506040513d601f19601f8201168201806040525081019061087e9190611471565b6108ba5760405162461bcd60e51b815260206004820152600d60248201526c1b9bdd081c5d585b1a599a5959609a1b6044820152606401610623565b6001600160a01b03851660008181526004602052604080822091909155517fd60c86e83346fdbe3124cb7d1cba32973a9f62d05c4ec801bfe6c09d1038038190610907908590859061151a565b60405180910390a25050505050565b61091f33610b1e565b80610947575033600090815260056020526040902054610947906001600160a01b0316610b1e565b6109635760405162461bcd60e51b815260040161062390611493565b6106368282610ffd565b600061097833610b1e565b806109a05750336000908152600560205260409020546109a0906001600160a01b0316610b1e565b6109bc5760405162461bcd60e51b815260040161062390611493565b6109c63384610ffd565b6001600160a01b037f000000000000000000000000000000000000000000000000000000000000000016600090815260208190526040812054905060006003548210610a18578363ffffffff16610a35565b600354610a2b8363ffffffff8716611536565b610a35919061154d565b90506000610a4682620f4240611403565b610a508784611536565b610a5a919061154d565b90506000620f4240610a728363ffffffff8916611536565b610a7c919061154d565b90508060036000828254610a909190611403565b90915550610ad790507f0000000000000000000000000000000000000000000000000000000000000000620f4240610ac88587611536565b610ad2919061154d565b610ffd565b620f4240610ae58385611536565b610aef919061154d565b610af9908861156f565b8214610b0757610b07611582565b5095945050505050565b60006104da338484610eac565b6001600160a01b038116600090815260046020526040812054158015906104de5750506001600160a01b0316600090815260046020526040902054421190565b610b6733610b1e565b610ba05760405162461bcd60e51b815260206004820152600a6024820152693737ba1036b4b73a32b960b11b6044820152606401610623565b6001600160a01b0316600090815260056020526040902080546001600160a01b03191633179055565b610bd233610b1e565b80610bfa575033600090815260056020526040902054610bfa906001600160a01b0316610b1e565b610c165760405162461bcd60e51b815260040161062390611493565b6000610c2863ffffffff841685611536565b90506000610c39620f42408361154d565b90506000620f4240610c5163ffffffff861688611536565b610c5b919061154d565b9050610c768782610c6c858a611403565b6107389190611403565b610ca47f0000000000000000000000000000000000000000000000000000000000000000610738838561156f565b8260036000828254610cb6919061156f565b909155505050505050505050565b620d2f0084101580610cd65750600254155b610d155760405162461bcd60e51b815260206004820152601060248201526f1c195c9a5bd9081d1bdbc81cda1bdc9d60821b6044820152606401610623565b683635c9adc5dea0000083101580610d2d5750600254155b610d675760405162461bcd60e51b815260206004820152600b60248201526a66656520746f6f206c6f7760a81b6044820152606401610623565b6001600160a01b03851660009081526004602052604090205415610dc25760405162461bcd60e51b8152602060048201526012602482015271185b1c9958591e481c9959da5cdd195c995960721b6044820152606401610623565b610ded337f000000000000000000000000000000000000000000000000000000000000000085610eac565b610df7844261156f565b6001600160a01b038616600081815260046020526040908190209290925590517f97326258efdae63280617ca33884e507791c2abeed7b82acd77f1853394ef94b90610907908790879087908790611598565b6001600160a01b0383811660008181526001602090815260408083209487168084529482529182902085905590518481527f8c5be1e5ebec7d5bd14f71427d1e84f3dd0314c0f7b2291e5b200ac8c7c3b92591015b60405180910390a3505050565b6001600160a01b038216610ebf57600080fd5b6001600160a01b03831660009081526020819052604081208054839290610ee7908490611403565b90915550506001600160a01b03821660009081526020819052604081208054839290610f1490849061156f565b92505081905550816001600160a01b0316836001600160a01b03167fddf252ad1be2c89b69c2b068fc378daa952ba7f163c4a11628f55a4df523b3ef83604051610e9f91815260200190565b6001600160a01b038216610f7357600080fd5b8060026000828254610f85919061156f565b90915550506001600160a01b03821660009081526020819052604081208054839290610fb290849061156f565b90915550506040518181526001600160a01b038316906000907fddf252ad1be2c89b69c2b068fc378daa952ba7f163c4a11628f55a4df523b3ef906020015b60405180910390a35050565b806002600082825461100f9190611403565b90915550506001600160a01b0382166000908152602081905260408120805483929061103c908490611403565b90915550506040518181526000906001600160a01b038416907fddf252ad1be2c89b69c2b068fc378daa952ba7f163c4a11628f55a4df523b3ef90602001610ff1565b600060208083528351808285015260005b818110156110ac57858101830151858201604001528201611090565b506000604082860101526040601f19601f8301168501019250505092915050565b80356001600160a01b03811681146110e457600080fd5b919050565b600080604083850312156110fc57600080fd5b611105836110cd565b946020939093013593505050565b60008060006060848603121561112857600080fd5b611131846110cd565b925061113f602085016110cd565b9150604084013590509250925092565b60006020828403121561116157600080fd5b61116a826110cd565b9392505050565b60008083601f84011261118357600080fd5b50813567ffffffffffffffff81111561119b57600080fd5b6020830191508360208285010111156111b357600080fd5b9250929050565b600080600080606085870312156111d057600080fd5b6111d9856110cd565b935060208501359250604085013567ffffffffffffffff8111156111fc57600080fd5b61120887828801611171565b95989497509550505050565b60006020828403121561122657600080fd5b5035919050565b60008060008060006060868803121561124557600080fd5b61124e866110cd565b9450602086013567ffffffffffffffff8082111561126b57600080fd5b818801915088601f83011261127f57600080fd5b81358181111561128e57600080fd5b8960208260051b85010111156112a357600080fd5b6020830196508095505060408801359150808211156112c157600080fd5b506112ce88828901611171565b969995985093965092949392505050565b803563ffffffff811681146110e457600080fd5b6000806040838503121561130657600080fd5b82359150611316602084016112df565b90509250929050565b6000806000806080858703121561133557600080fd5b61133e856110cd565b935060208501359250611353604086016112df565b9150611361606086016112df565b905092959194509250565b60008060008060006080868803121561138457600080fd5b61138d866110cd565b94506020860135935060408601359250606086013567ffffffffffffffff8111156113b757600080fd5b6112ce88828901611171565b600080604083850312156113d657600080fd5b6113df836110cd565b9150611316602084016110cd565b634e487b7160e01b600052601160045260246000fd5b818103818111156104de576104de6113ed565b81835281816020850137506000828201602090810191909152601f909101601f19169091010190565b60018060a01b0385168152836020820152606060408201526000611467606083018486611416565b9695505050505050565b60006020828403121561148357600080fd5b8151801515811461116a57600080fd5b6020808252601390820152723737ba1030b8383937bb32b21036b4b73a32b960691b604082015260600190565b6001600160a01b03848116825260406020808401829052908301849052600091859160608501845b8781101561150d57836114fa866110cd565b16825293820193908201906001016114e8565b5098975050505050505050565b60208152600061152e602083018486611416565b949350505050565b80820281158282048414176104de576104de6113ed565b60008261156a57634e487b7160e01b600052601260045260246000fd5b500490565b808201808211156104de576104de6113ed565b634e487b7160e01b600052600160045260246000fd5b84815283602082015260606040820152600061146760608301848661141656fea2646970667358221220918aadbc8e57b69c61537d263ad82e4585de7e5390a795a2de5c4a0bd75eef4e64736f6c6343000811003360c060405234801561001057600080fd5b5060405161158b38038061158b83398101604081905261002f91610045565b60126080526001600160a01b031660a052610075565b60006020828403121561005757600080fd5b81516001600160a01b038116811461006e57600080fd5b9392505050565b60805160a0516114ce6100bd600039600081816103e1015281816105420152818161068b0152818161097a01528181610a1c0152610af00152600061027301526114ce6000f3fe608060405234801561001057600080fd5b506004361061018e5760003560e01c80635e1121cf116100de578063a9059cbb11610097578063c4d4803a11610071578063c4d4803a146103dc578063d8bff5a514610403578063dd62ed3e14610416578063f97ed5091461044f57600080fd5b8063a9059cbb146103ac578063ad08ce5b146103bf578063b0c2bf06146103d257600080fd5b80635e1121cf1461032157806370a082311461033457806395d89b411461035d5780639823004f1461037c578063a035b1fe14610391578063a4c0ed361461039957600080fd5b806323b872dd1161014b5780633c835ab0116101255780633c835ab0146102a75780633ec16194146102ba5780634000aea0146102cd578063587cde1e146102e057600080fd5b806323b872dd1461023e578063250f25f414610251578063313ce5671461026e57600080fd5b806306fdde0314610193578063095ea7b3146101d75780630d15fd77146101fa578063151535b91461021057806318160ddd146102235780631e9a69501461022b575b600080fd5b6040805180820190915260168152754672616e6b656e636f696e20506f6f6c20536861726560501b60208201525b6040516101ce91906110fb565b60405180910390f35b6101ea6101e5366004611165565b610457565b60405190151581526020016101ce565b61020261046e565b6040519081526020016101ce565b6101ea61021e36600461118f565b6104b7565b600254610202565b610202610239366004611165565b6104f1565b6101ea61024c3660046111aa565b6105b7565b610259600381565b60405163ffffffff90911681526020016101ce565b6102957f000000000000000000000000000000000000000000000000000000000000000081565b60405160ff90911681526020016101ce565b6101ea6102b53660046111e6565b610613565b6102026102c8366004611219565b610679565b6101ea6102db366004611232565b610749565b6103096102ee36600461118f565b6004602052600090815260409020546001600160a01b031681565b6040516001600160a01b0390911681526020016101ce565b6101ea61032f3660046112b9565b6107dd565b61020261034236600461118f565b6001600160a01b031660009081526020819052604090205490565b60408051808201909152600381526246505360e81b60208201526101c1565b61038f61038a36600461118f565b610916565b005b61020261096d565b6101ea6103a7366004611232565b610a0f565b6101ea6103ba366004611165565b610ad1565b6102026103cd366004611219565b610ade565b6102026209e34081565b6103097f000000000000000000000000000000000000000000000000000000000000000081565b61020261041136600461118f565b610bc7565b6102026104243660046111e6565b6001600160a01b03918216600090815260016020908152604080832093909416825291909152205490565b6101ea610c17565b6000610464338484610c22565b5060015b92915050565b6003546000906104889067ffffffffffffffff1643611355565b6002546104959190611368565b6003546104b29190600160401b90046001600160c01b031661137f565b905090565b6001600160a01b0381166000908152600560205260408120546209e340906104e99067ffffffffffffffff1643611355565b101592915050565b60006104fc336104b7565b61050557600080fd5b600061051083610ade565b905061051c3384610c84565b60405163a9059cbb60e01b81526001600160a01b038581166004830152602482018390527f0000000000000000000000000000000000000000000000000000000000000000169063a9059cbb906044016020604051808303816000875af115801561058b573d6000803e3d6000fd5b505050506040513d601f19601f820116820180604052508101906105af9190611392565b509392505050565b60006105c4848484610d1a565b6001600160a01b0384166000908152600160209081526040808320338452909152902054600160ff1b8110156106085761060885336106038685611355565b610c22565b506001949350505050565b6000826001600160a01b0316826001600160a01b03160361063657506001610468565b6001600160a01b03821661064c57506000610468565b6001600160a01b0380831660009081526004602052604090205461067291859116610613565b9050610468565b60008061068560025490565b905060007f00000000000000000000000000000000000000000000000000000000000000006001600160a01b03166391a0ac6a6040518163ffffffff1660e01b8152600401602060405180830381865afa1580156106e7573d6000803e3d6000fd5b505050506040513d601f19601f8201168201806040525081019061070b91906113b4565b9050600061072a61072561071f878561137f565b84610dd9565b610dff565b6107349084611368565b90506107408382611355565b95945050505050565b6000806107568686610ad1565b9050801561074057604051635260769b60e11b81526001600160a01b0387169063a4c0ed36906107909033908990899089906004016113cd565b6020604051808303816000875af11580156107af573d6000803e3d6000fd5b505050506040513d601f19601f820116820180604052508101906107d39190611392565b9695505050505050565b6000806107e985610bc7565b905060005b838110156108ea57600085858381811061080a5761080a611415565b905060200201602081019061081f919061118f565b9050866001600160a01b0316816001600160a01b03160361083f57600080fd5b6108498782610613565b61085257600080fd5b600061085f83600161137f565b90505b858110156108c05786868281811061087c5761087c611415565b9050602002016020810190610891919061118f565b6001600160a01b0316826001600160a01b0316036108ae57600080fd5b806108b88161142b565b915050610862565b506108ca81610bc7565b6108d4908461137f565b92505080806108e29061142b565b9150506107ee565b506108f361046e565b6108ff9061012c611368565b61090b82612710611368565b101595945050505050565b3360008181526004602052604080822080546001600160a01b0319166001600160a01b03861690811790915590519092917fd000f39f92c3ed77f890f16b6ced1555e0ab2cdf470522d2210de67d8c83d45b91a350565b600061097860025490565b7f00000000000000000000000000000000000000000000000000000000000000006001600160a01b03166391a0ac6a6040518163ffffffff1660e01b8152600401602060405180830381865afa1580156109d6573d6000803e3d6000fd5b505050506040513d601f19601f820116820180604052508101906109fa91906113b4565b610a05906003611368565b6104b2919061145a565b6000336001600160a01b037f00000000000000000000000000000000000000000000000000000000000000001614610a835760405162461bcd60e51b815260206004820152601360248201527231b0b63632b91036bab9ba103132903d31b43360691b604482015260640160405180910390fd5b600254600003610aa457610a9f85670de0b6b3a7640000610ea9565b610608565b610ab685610ab186610679565b610ea9565b6001605a1b610ac460025490565b106106085761060861146e565b6000610464338484610d1a565b600080610aea60025490565b905060007f00000000000000000000000000000000000000000000000000000000000000006001600160a01b03166391a0ac6a6040518163ffffffff1660e01b8152600401602060405180830381865afa158015610b4c573d6000803e3d6000fd5b505050506040513d601f19601f82011682018060405250810190610b7091906113b4565b905081610b8585670de0b6b3a764000061137f565b10610b8f57600080fd5b6000610b9b8584611355565b90506000610bb1610bac8584610dd9565b610f4a565b610bbb908461145a565b90506107d38184611355565b6001600160a01b038116600090815260056020526040812054610bf49067ffffffffffffffff1643611355565b6001600160a01b0383166000908152602081905260409020546104689190611368565b60006104b2336104b7565b6001600160a01b0383811660008181526001602090815260408083209487168084529482529182902085905590518481527f8c5be1e5ebec7d5bd14f71427d1e84f3dd0314c0f7b2291e5b200ac8c7c3b92591015b60405180910390a3505050565b610c9082600083610f5f565b8060026000828254610ca29190611355565b90915550506001600160a01b03821660009081526020819052604081208054839290610ccf908490611355565b90915550506040518181526000906001600160a01b038416907fddf252ad1be2c89b69c2b068fc378daa952ba7f163c4a11628f55a4df523b3ef906020015b60405180910390a35050565b6001600160a01b038216610d2d57600080fd5b610d38838383610f5f565b6001600160a01b03831660009081526020819052604081208054839290610d60908490611355565b90915550506001600160a01b03821660009081526020819052604081208054839290610d8d90849061137f565b92505081905550816001600160a01b0316836001600160a01b03167fddf252ad1be2c89b69c2b068fc378daa952ba7f163c4a11628f55a4df523b3ef83604051610c7791815260200190565b6000670de0b6b3a7640000610dee838561145a565b610df89190611368565b9392505050565b6000670de0b6b3a764000081805b8291506000610e25610e1f8586610f85565b85610f85565b9050610e6384610e5e610e39896002611368565b610e43908561137f565b89610e4f866002611368565b610e59919061137f565b610dd9565b610f85565b9350838311610e8457662386f26fc10000610e7e8486611355565b11610e98565b662386f26fc10000610e968585611355565b115b91505080610e0d5750909392505050565b6001600160a01b038216610ebc57600080fd5b610ec860008383610f5f565b8060026000828254610eda919061137f565b90915550506001600160a01b03821660009081526020819052604081208054839290610f0790849061137f565b90915550506040518181526001600160a01b038316906000907fddf252ad1be2c89b69c2b068fc378daa952ba7f163c4a11628f55a4df523b3ef90602001610d0e565b6000610468610f598384610f85565b83610f85565b8015610f80576000610f718383610fa4565b9050610f7e848383611057565b505b505050565b6000670de0b6b3a7640000610f9a8385611368565b610df8919061145a565b60006001600160a01b0383161561104f576000610fc084610bc7565b9050600083610fe4866001600160a01b031660009081526020819052604090205490565b610fee919061137f565b9050610ffa818361145a565b6110049043611355565b6001600160a01b0386166000908152600560205260409020805467ffffffffffffffff191667ffffffffffffffff929092169190911790556110468183611484565b92505050610468565b506000610468565b60006001600160a01b038416156110a6576001600160a01b03841660009081526005602052604090205483906110979067ffffffffffffffff1643611355565b6110a19190611368565b6110a9565b60005b905080826110b561046e565b6110bf9190611355565b6110c99190611355565b4367ffffffffffffffff166001600160c01b0391909116600160401b0267ffffffffffffffff19161760035550505050565b600060208083528351808285015260005b818110156111285785810183015185820160400152820161110c565b506000604082860101526040601f19601f8301168501019250505092915050565b80356001600160a01b038116811461116057600080fd5b919050565b6000806040838503121561117857600080fd5b61118183611149565b946020939093013593505050565b6000602082840312156111a157600080fd5b610df882611149565b6000806000606084860312156111bf57600080fd5b6111c884611149565b92506111d660208501611149565b9150604084013590509250925092565b600080604083850312156111f957600080fd5b61120283611149565b915061121060208401611149565b90509250929050565b60006020828403121561122b57600080fd5b5035919050565b6000806000806060858703121561124857600080fd5b61125185611149565b935060208501359250604085013567ffffffffffffffff8082111561127557600080fd5b818701915087601f83011261128957600080fd5b81358181111561129857600080fd5b8860208285010111156112aa57600080fd5b95989497505060200194505050565b6000806000604084860312156112ce57600080fd5b6112d784611149565b9250602084013567ffffffffffffffff808211156112f457600080fd5b818601915086601f83011261130857600080fd5b81358181111561131757600080fd5b8760208260051b850101111561132c57600080fd5b6020830194508093505050509250925092565b634e487b7160e01b600052601160045260246000fd5b818103818111156104685761046861133f565b80820281158282048414176104685761046861133f565b808201808211156104685761046861133f565b6000602082840312156113a457600080fd5b81518015158114610df857600080fd5b6000602082840312156113c657600080fd5b5051919050565b6001600160a01b0385168152602081018490526060604082018190528101829052818360808301376000818301608090810191909152601f909201601f191601019392505050565b634e487b7160e01b600052603260045260246000fd5b60006001820161143d5761143d61133f565b5060010190565b634e487b7160e01b600052601260045260246000fd5b60008261146957611469611444565b500490565b634e487b7160e01b600052600160045260246000fd5b60008261149357611493611444565b50069056fea26469706673582212202f6282081e2078e6978f417f04913f5a38e70e2f59e508f1788e94799f89f7f764736f6c63430008110033",
    "sourcePath": "c:/Users/luziu/Documents/GitHub/FrankenCoin-ZCHF/contracts/Frankencoin.sol",
    "compiler": {
        "name": "solc",
        "version": "0.8.17+commit.8df45f5f"
    },
    "functionHashes": {
        "MIN_APPLICATION_PERIOD()": "1a46c7e9",
        "MIN_FEE()": "76c7a3c7",
        "allowance(address,address)": "dd62ed3e",
        "approve(address,uint256)": "095ea7b3",
        "balanceOf(address)": "70a08231",
        "burn(address,uint256)": "9dc29fac",
        "burn(uint256)": "42966c68",
        "burnWithReserve(uint256,uint32)": "a47d75ad",
        "decimals()": "313ce567",
        "denyMinter(address,address[],string)": "9b404da6",
        "equity()": "91a0ac6a",
        "isMinter(address)": "aa271e1a",
        "isPosition(address)": "2748913b",
        "mint(address,uint256)": "40c10f19",
        "mint(address,uint256,uint32,uint32)": "cbca628e",
        "minterReserve()": "d38bb009",
        "minters(address)": "f46eccc4",
        "name()": "06fdde03",
        "notifyLoss(uint256)": "61f3d110",
        "positions(address)": "55f57510",
        "registerPosition(address)": "b52c696d",
        "reserve()": "cd3293de",
        "suggestMinter(address,uint256,uint256,string)": "d1a15ff1",
        "symbol()": "95d89b41",
        "totalSupply()": "18160ddd",
        "transfer(address,uint256)": "a9059cbb",
        "transferAndCall(address,uint256,bytes)": "4000aea0",
        "transferFrom(address,address,uint256)": "23b872dd"
    },
    "gasEstimates": {
        "creation": {
            "codeDepositCost": "1122800",
            "executionCost": "infinite",
            "totalCost": "infinite"
        },
        "external": {
            "MIN_APPLICATION_PERIOD()": "241",
            "MIN_FEE()": "306",
            "allowance(address,address)": "infinite",
            "approve(address,uint256)": "24597",
            "balanceOf(address)": "2629",
            "burn(address,uint256)": "infinite",
            "burn(uint256)": "infinite",
            "burnWithReserve(uint256,uint32)": "infinite",
            "decimals()": "infinite",
            "denyMinter(address,address[],string)": "infinite",
            "equity()": "infinite",
            "isMinter(address)": "4890",
            "isPosition(address)": "2657",
            "mint(address,uint256)": "infinite",
            "mint(address,uint256,uint32,uint32)": "infinite",
            "minterReserve()": "2361",
            "minters(address)": "2629",
            "name()": "infinite",
            "notifyLoss(uint256)": "infinite",
            "positions(address)": "2603",
            "registerPosition(address)": "29120",
            "reserve()": "infinite",
            "suggestMinter(address,uint256,uint256,string)": "infinite",
            "symbol()": "infinite",
            "totalSupply()": "2372",
            "transfer(address,uint256)": "infinite",
            "transferAndCall(address,uint256,bytes)": "infinite",
            "transferFrom(address,address,uint256)": "infinite"
        }
    }
}