{
    "contractName": "Frankencoin",
    "abi": [
        {
            "inputs": [
                {
                    "internalType": "address",
                    "name": "_reserve",
                    "type": "address"
                }
            ],
            "stateMutability": "nonpayable",
            "type": "constructor"
        },
        {
            "anonymous": false,
            "inputs": [
                {
                    "indexed": true,
                    "internalType": "address",
                    "name": "owner",
                    "type": "address"
                },
                {
                    "indexed": true,
                    "internalType": "address",
                    "name": "spender",
                    "type": "address"
                },
                {
                    "indexed": false,
                    "internalType": "uint256",
                    "name": "value",
                    "type": "uint256"
                }
            ],
            "name": "Approval",
            "type": "event"
        },
        {
            "anonymous": false,
            "inputs": [
                {
                    "indexed": true,
                    "internalType": "address",
                    "name": "minter",
                    "type": "address"
                },
                {
                    "indexed": false,
                    "internalType": "uint256",
                    "name": "applicationPeriod",
                    "type": "uint256"
                },
                {
                    "indexed": false,
                    "internalType": "uint256",
                    "name": "applicationFee",
                    "type": "uint256"
                },
                {
                    "indexed": false,
                    "internalType": "string",
                    "name": "message",
                    "type": "string"
                }
            ],
            "name": "MinterApplied",
            "type": "event"
        },
        {
            "anonymous": false,
            "inputs": [
                {
                    "indexed": true,
                    "internalType": "address",
                    "name": "minter",
                    "type": "address"
                },
                {
                    "indexed": false,
                    "internalType": "string",
                    "name": "message",
                    "type": "string"
                }
            ],
            "name": "MinterDenied",
            "type": "event"
        },
        {
            "anonymous": false,
            "inputs": [
                {
                    "indexed": true,
                    "internalType": "address",
                    "name": "from",
                    "type": "address"
                },
                {
                    "indexed": true,
                    "internalType": "address",
                    "name": "to",
                    "type": "address"
                },
                {
                    "indexed": false,
                    "internalType": "uint256",
                    "name": "value",
                    "type": "uint256"
                }
            ],
            "name": "Transfer",
            "type": "event"
        },
        {
            "inputs": [],
            "name": "MIN_APPLICATION_PERIOD",
            "outputs": [
                {
                    "internalType": "uint256",
                    "name": "",
                    "type": "uint256"
                }
            ],
            "stateMutability": "view",
            "type": "function"
        },
        {
            "inputs": [],
            "name": "MIN_FEE",
            "outputs": [
                {
                    "internalType": "uint256",
                    "name": "",
                    "type": "uint256"
                }
            ],
            "stateMutability": "view",
            "type": "function"
        },
        {
            "inputs": [
                {
                    "internalType": "address",
                    "name": "owner",
                    "type": "address"
                },
                {
                    "internalType": "address",
                    "name": "spender",
                    "type": "address"
                }
            ],
            "name": "allowance",
            "outputs": [
                {
                    "internalType": "uint256",
                    "name": "",
                    "type": "uint256"
                }
            ],
            "stateMutability": "view",
            "type": "function"
        },
        {
            "inputs": [
                {
                    "internalType": "address",
                    "name": "spender",
                    "type": "address"
                },
                {
                    "internalType": "uint256",
                    "name": "value",
                    "type": "uint256"
                }
            ],
            "name": "approve",
            "outputs": [
                {
                    "internalType": "bool",
                    "name": "",
                    "type": "bool"
                }
            ],
            "stateMutability": "nonpayable",
            "type": "function"
        },
        {
            "inputs": [
                {
                    "internalType": "address",
                    "name": "account",
                    "type": "address"
                }
            ],
            "name": "balanceOf",
            "outputs": [
                {
                    "internalType": "uint256",
                    "name": "",
                    "type": "uint256"
                }
            ],
            "stateMutability": "view",
            "type": "function"
        },
        {
            "inputs": [
                {
                    "internalType": "uint256",
                    "name": "amount",
                    "type": "uint256"
                }
            ],
            "name": "burn",
            "outputs": [],
            "stateMutability": "nonpayable",
            "type": "function"
        },
        {
            "inputs": [
                {
                    "internalType": "uint256",
                    "name": "amount",
                    "type": "uint256"
                },
                {
                    "internalType": "uint32",
                    "name": "reservePPM",
                    "type": "uint32"
                }
            ],
            "name": "burn",
            "outputs": [],
            "stateMutability": "nonpayable",
            "type": "function"
        },
        {
            "inputs": [
                {
                    "internalType": "address",
                    "name": "owner",
                    "type": "address"
                },
                {
                    "internalType": "uint256",
                    "name": "amount",
                    "type": "uint256"
                }
            ],
            "name": "burn",
            "outputs": [],
            "stateMutability": "nonpayable",
            "type": "function"
        },
        {
            "inputs": [],
            "name": "decimals",
            "outputs": [
                {
                    "internalType": "uint8",
                    "name": "",
                    "type": "uint8"
                }
            ],
            "stateMutability": "view",
            "type": "function"
        },
        {
            "inputs": [
                {
                    "internalType": "address",
                    "name": "minter",
                    "type": "address"
                },
                {
                    "internalType": "address[]",
                    "name": "helpers",
                    "type": "address[]"
                },
                {
                    "internalType": "string",
                    "name": "message",
                    "type": "string"
                }
            ],
            "name": "denyMinter",
            "outputs": [],
            "stateMutability": "nonpayable",
            "type": "function"
        },
        {
            "inputs": [],
            "name": "getReserveTarget",
            "outputs": [
                {
                    "internalType": "uint256",
                    "name": "",
                    "type": "uint256"
                }
            ],
            "stateMutability": "view",
            "type": "function"
        },
        {
            "inputs": [
                {
                    "internalType": "address",
                    "name": "minter",
                    "type": "address"
                }
            ],
            "name": "isMinter",
            "outputs": [
                {
                    "internalType": "bool",
                    "name": "",
                    "type": "bool"
                }
            ],
            "stateMutability": "view",
            "type": "function"
        },
        {
            "inputs": [
                {
                    "internalType": "address",
                    "name": "target",
                    "type": "address"
                },
                {
                    "internalType": "uint256",
                    "name": "amount",
                    "type": "uint256"
                }
            ],
            "name": "mint",
            "outputs": [],
            "stateMutability": "nonpayable",
            "type": "function"
        },
        {
            "inputs": [
                {
                    "internalType": "address",
                    "name": "target",
                    "type": "address"
                },
                {
                    "internalType": "uint256",
                    "name": "amount",
                    "type": "uint256"
                },
                {
                    "internalType": "uint32",
                    "name": "reservePPM",
                    "type": "uint32"
                },
                {
                    "internalType": "uint32",
                    "name": "feesPPM",
                    "type": "uint32"
                }
            ],
            "name": "mint",
            "outputs": [],
            "stateMutability": "nonpayable",
            "type": "function"
        },
        {
            "inputs": [
                {
                    "internalType": "address",
                    "name": "",
                    "type": "address"
                }
            ],
            "name": "minters",
            "outputs": [
                {
                    "internalType": "uint256",
                    "name": "",
                    "type": "uint256"
                }
            ],
            "stateMutability": "view",
            "type": "function"
        },
        {
            "inputs": [],
            "name": "name",
            "outputs": [
                {
                    "internalType": "string",
                    "name": "",
                    "type": "string"
                }
            ],
            "stateMutability": "pure",
            "type": "function"
        },
        {
            "inputs": [
                {
                    "internalType": "uint256",
                    "name": "amount",
                    "type": "uint256"
                }
            ],
            "name": "notifyLoss",
            "outputs": [],
            "stateMutability": "nonpayable",
            "type": "function"
        },
        {
            "inputs": [
                {
                    "internalType": "address",
                    "name": "",
                    "type": "address"
                }
            ],
            "name": "positions",
            "outputs": [
                {
                    "internalType": "address",
                    "name": "",
                    "type": "address"
                }
            ],
            "stateMutability": "view",
            "type": "function"
        },
        {
            "inputs": [
                {
                    "internalType": "address",
                    "name": "position",
                    "type": "address"
                }
            ],
            "name": "registerPosition",
            "outputs": [],
            "stateMutability": "nonpayable",
            "type": "function"
        },
        {
            "inputs": [],
            "name": "reserve",
            "outputs": [
                {
                    "internalType": "address",
                    "name": "",
                    "type": "address"
                }
            ],
            "stateMutability": "view",
            "type": "function"
        },
        {
            "inputs": [],
            "name": "reserveTarget",
            "outputs": [
                {
                    "internalType": "uint256",
                    "name": "",
                    "type": "uint256"
                }
            ],
            "stateMutability": "view",
            "type": "function"
        },
        {
            "inputs": [],
            "name": "reserveTargetFulfilled",
            "outputs": [
                {
                    "internalType": "bool",
                    "name": "",
                    "type": "bool"
                }
            ],
            "stateMutability": "view",
            "type": "function"
        },
        {
            "inputs": [],
            "name": "reserves",
            "outputs": [
                {
                    "internalType": "uint256",
                    "name": "",
                    "type": "uint256"
                }
            ],
            "stateMutability": "view",
            "type": "function"
        },
        {
            "inputs": [
                {
                    "internalType": "address",
                    "name": "minter",
                    "type": "address"
                },
                {
                    "internalType": "uint256",
                    "name": "applicationPeriod",
                    "type": "uint256"
                },
                {
                    "internalType": "uint256",
                    "name": "applicationFee",
                    "type": "uint256"
                },
                {
                    "internalType": "string",
                    "name": "message",
                    "type": "string"
                }
            ],
            "name": "suggestMinter",
            "outputs": [],
            "stateMutability": "nonpayable",
            "type": "function"
        },
        {
            "inputs": [],
            "name": "symbol",
            "outputs": [
                {
                    "internalType": "string",
                    "name": "",
                    "type": "string"
                }
            ],
            "stateMutability": "pure",
            "type": "function"
        },
        {
            "inputs": [],
            "name": "totalSupply",
            "outputs": [
                {
                    "internalType": "uint256",
                    "name": "",
                    "type": "uint256"
                }
            ],
            "stateMutability": "view",
            "type": "function"
        },
        {
            "inputs": [
                {
                    "internalType": "address",
                    "name": "recipient",
                    "type": "address"
                },
                {
                    "internalType": "uint256",
                    "name": "amount",
                    "type": "uint256"
                }
            ],
            "name": "transfer",
            "outputs": [
                {
                    "internalType": "bool",
                    "name": "",
                    "type": "bool"
                }
            ],
            "stateMutability": "nonpayable",
            "type": "function"
        },
        {
            "inputs": [
                {
                    "internalType": "address",
                    "name": "recipient",
                    "type": "address"
                },
                {
                    "internalType": "uint256",
                    "name": "amount",
                    "type": "uint256"
                },
                {
                    "internalType": "bytes",
                    "name": "data",
                    "type": "bytes"
                }
            ],
            "name": "transferAndCall",
            "outputs": [
                {
                    "internalType": "bool",
                    "name": "",
                    "type": "bool"
                }
            ],
            "stateMutability": "nonpayable",
            "type": "function"
        },
        {
            "inputs": [
                {
                    "internalType": "address",
                    "name": "sender",
                    "type": "address"
                },
                {
                    "internalType": "address",
                    "name": "recipient",
                    "type": "address"
                },
                {
                    "internalType": "uint256",
                    "name": "amount",
                    "type": "uint256"
                }
            ],
            "name": "transferFrom",
            "outputs": [
                {
                    "internalType": "bool",
                    "name": "",
                    "type": "bool"
                }
            ],
            "stateMutability": "nonpayable",
            "type": "function"
        }
    ],
    "bytecode": "60c060405234801561001057600080fd5b5060405161168338038061168383398101604081905261002f91610045565b60126080526001600160a01b031660a052610075565b60006020828403121561005757600080fd5b81516001600160a01b038116811461006e57600080fd5b9392505050565b60805160a0516115aa6100d96000396000818161036601528181610464015281816106ba015281816106fd01528181610728015281816107700152818161082001528181610b7a01528181610bc80152610d500152600061026701526115aa6000f3fe608060405234801561001057600080fd5b50600436106101cf5760003560e01c806376c7a3c711610104578063a9059cbb116100a2578063cd3293de11610071578063cd3293de1461045f578063d1a15ff114610486578063dd62ed3e14610499578063f46eccc4146104d257600080fd5b8063a9059cbb14610413578063aa271e1a14610426578063b52c696d14610439578063cbca628e1461044c57600080fd5b80639b404da6116100de5780639b404da6146103d25780639cc06358146103e55780639dc29fac146103f8578063a16498d91461040b57600080fd5b806376c7a3c71461039a57806381676185146103aa57806395d89b41146103b257600080fd5b80634000aea01161017157806355f575101161014b57806355f57510146102df57806361f3d1101461032057806370a082311461033357806375172a8b1461035c57600080fd5b80634000aea0146102a457806340c10f19146102b757806342966c68146102cc57600080fd5b80631a46c7e9116101ad5780631a46c7e91461024557806323b872dd1461024f578063313ce5671461026257806331ae50bc1461029b57600080fd5b806306fdde03146101d4578063095ea7b31461021057806318160ddd14610233575b600080fd5b60408051808201909152600e81526d4672616e6b656e636f696e20563160901b60208201525b6040516102079190611054565b60405180910390f35b61022361021e36600461108a565b6104f2565b6040519015158152602001610207565b6002545b604051908152602001610207565b610237620d2f0081565b61022361025d3660046110b4565b610508565b6102897f000000000000000000000000000000000000000000000000000000000000000081565b60405160ff9091168152602001610207565b61023760035481565b6102236102b2366004611139565b610564565b6102ca6102c536600461108a565b6105fa565b005b6102ca6102da366004611193565b61065e565b6103086102ed3660046111ac565b6005602052600090815260409020546001600160a01b031681565b6040516001600160a01b039091168152602001610207565b6102ca61032e366004611193565b61066b565b6102376103413660046111ac565b6001600160a01b031660009081526020819052604090205490565b6001600160a01b037f000000000000000000000000000000000000000000000000000000000000000016600090815260208190526040902054610237565b610237683635c9adc5dea0000081565b610223610766565b6040805180820190915260048152632d21a42360e11b60208201526101fa565b6102ca6103e03660046111c7565b6107b6565b6102ca6103f336600461128d565b610932565b6102ca61040636600461108a565b6109b3565b610237610a0a565b61022361042136600461108a565b610a1d565b6102236104343660046111ac565b610a2a565b6102ca6104473660046111ac565b610a47565b6102ca61045a3660046112b9565b610ab2565b6103087f000000000000000000000000000000000000000000000000000000000000000081565b6102ca610494366004611306565b610c4c565b6102376104a736600461135d565b6001600160a01b03918216600090815260016020908152604080832093909416825291909152205490565b6102376104e03660046111ac565b60046020526000908152604090205481565b60006104ff338484610dd2565b50600192915050565b6000610515848484610e34565b6001600160a01b0384166000908152600160209081526040808320338452909152902054600160ff1b811015610559576105598533610554868561139d565b610dd2565b506001949350505050565b6000806105718686610a1d565b905080156105f157604051635260769b60e11b81526001600160a01b0387169063a4c0ed36906105ab9033908990899089906004016113dd565b6020604051808303816000875af11580156105ca573d6000803e3d6000fd5b505050506040513d601f19601f820116820180604052508101906105ee919061140f565b90505b95945050505050565b61060333610a2a565b8061062b57503360009081526005602052604090205461062b906001600160a01b0316610a2a565b6106505760405162461bcd60e51b815260040161064790611431565b60405180910390fd5b61065a8282610ee8565b5050565b6106683382610f85565b50565b61067433610a2a565b8061069c57503360009081526005602052604090205461069c906001600160a01b0316610a2a565b6106b85760405162461bcd60e51b815260040161064790611431565b7f00000000000000000000000000000000000000000000000000000000000000006001600160a01b03166000908152602081905260409020548181106107235761065a7f00000000000000000000000000000000000000000000000000000000000000003384610e34565b61074e7f00000000000000000000000000000000000000000000000000000000000000003383610e34565b61065a3361075c838561139d565b610ee8565b905090565b6001600160a01b037f0000000000000000000000000000000000000000000000000000000000000000166000908152602081905260408120546107ac90620f424061145e565b6003541115905090565b6001600160a01b0385166000908152600460205260409020544211156108095760405162461bcd60e51b8152602060048201526008602482015267746f6f206c61746560c01b6044820152606401610647565b604051635e1121cf60e01b81526001600160a01b037f00000000000000000000000000000000000000000000000000000000000000001690635e1121cf906108599033908890889060040161147d565b602060405180830381865afa158015610876573d6000803e3d6000fd5b505050506040513d601f19601f8201168201806040525081019061089a919061140f565b6108d65760405162461bcd60e51b815260206004820152600d60248201526c1b9bdd081c5d585b1a599a5959609a1b6044820152606401610647565b6001600160a01b03851660008181526004602052604080822091909155517fd60c86e83346fdbe3124cb7d1cba32973a9f62d05c4ec801bfe6c09d103803819061092390859085906114d7565b60405180910390a25050505050565b61093b33610a2a565b80610963575033600090815260056020526040902054610963906001600160a01b0316610a2a565b61097f5760405162461bcd60e51b815260040161064790611431565b6109893383610f85565b6109998263ffffffff831661145e565b600360008282546109aa919061139d565b90915550505050565b6109bc33610a2a565b806109e45750336000908152600560205260409020546109e4906001600160a01b0316610a2a565b610a005760405162461bcd60e51b815260040161064790611431565b61065a8282610f85565b6000620f424060035461076191906114f3565b60006104ff338484610e34565b6001600160a01b0316600090815260046020526040902054421190565b610a5033610a2a565b610a895760405162461bcd60e51b815260206004820152600a6024820152693737ba1036b4b73a32b960b11b6044820152606401610647565b6001600160a01b0316600090815260056020526040902080546001600160a01b03191633179055565b610abb33610a2a565b80610ae3575033600090815260056020526040902054610ae3906001600160a01b0316610a2a565b610aff5760405162461bcd60e51b815260040161064790611431565b6000610b1163ffffffff84168561145e565b90508060036000828254610b259190611515565b90915550610b389050620f4240826114f3565b90506000620f4240610b5063ffffffff85168761145e565b610b5a91906114f3565b9050610b758682610b6b858961139d565b61075c919061139d565b610ba37f000000000000000000000000000000000000000000000000000000000000000061075c8385611515565b60408051600081526020810191829052635260769b60e11b9091526001600160a01b037f0000000000000000000000000000000000000000000000000000000000000000169063a4c0ed3690610c0090339086906024810161152d565b6020604051808303816000875af1158015610c1f573d6000803e3d6000fd5b505050506040513d601f19601f82011682018060405250810190610c43919061140f565b50505050505050565b620d2f0084101580610c5e5750600254155b610c9d5760405162461bcd60e51b815260206004820152601060248201526f1c195c9a5bd9081d1bdbc81cda1bdc9d60821b6044820152606401610647565b683635c9adc5dea0000083101580610cb55750600254155b610cef5760405162461bcd60e51b815260206004820152600b60248201526a66656520746f6f206c6f7760a81b6044820152606401610647565b6001600160a01b03851660009081526004602052604090205415610d4a5760405162461bcd60e51b8152602060048201526012602482015271185b1c9958591e481c9959da5cdd195c995960721b6044820152606401610647565b610d75337f000000000000000000000000000000000000000000000000000000000000000085610e34565b610d7f8442611515565b6001600160a01b038616600081815260046020526040908190209290925590517f97326258efdae63280617ca33884e507791c2abeed7b82acd77f1853394ef94b90610923908790879087908790611554565b6001600160a01b0383811660008181526001602090815260408083209487168084529482529182902085905590518481527f8c5be1e5ebec7d5bd14f71427d1e84f3dd0314c0f7b2291e5b200ac8c7c3b92591015b60405180910390a3505050565b6001600160a01b038216610e4757600080fd5b6001600160a01b03831660009081526020819052604081208054839290610e6f90849061139d565b90915550506001600160a01b03821660009081526020819052604081208054839290610e9c908490611515565b92505081905550816001600160a01b0316836001600160a01b03167fddf252ad1be2c89b69c2b068fc378daa952ba7f163c4a11628f55a4df523b3ef83604051610e2791815260200190565b6001600160a01b038216610efb57600080fd5b8060026000828254610f0d9190611515565b90915550506001600160a01b03821660009081526020819052604081208054839290610f3a908490611515565b90915550506040518181526001600160a01b038316906000907fddf252ad1be2c89b69c2b068fc378daa952ba7f163c4a11628f55a4df523b3ef906020015b60405180910390a35050565b8060026000828254610f97919061139d565b90915550506001600160a01b03821660009081526020819052604081208054839290610fc490849061139d565b90915550506040518181526000906001600160a01b038416907fddf252ad1be2c89b69c2b068fc378daa952ba7f163c4a11628f55a4df523b3ef90602001610f79565b6000815180845260005b8181101561102d57602081850181015186830182015201611011565b8181111561103f576000602083870101525b50601f01601f19169290920160200192915050565b6020815260006110676020830184611007565b9392505050565b80356001600160a01b038116811461108557600080fd5b919050565b6000806040838503121561109d57600080fd5b6110a68361106e565b946020939093013593505050565b6000806000606084860312156110c957600080fd5b6110d28461106e565b92506110e06020850161106e565b9150604084013590509250925092565b60008083601f84011261110257600080fd5b50813567ffffffffffffffff81111561111a57600080fd5b60208301915083602082850101111561113257600080fd5b9250929050565b6000806000806060858703121561114f57600080fd5b6111588561106e565b935060208501359250604085013567ffffffffffffffff81111561117b57600080fd5b611187878288016110f0565b95989497509550505050565b6000602082840312156111a557600080fd5b5035919050565b6000602082840312156111be57600080fd5b6110678261106e565b6000806000806000606086880312156111df57600080fd5b6111e88661106e565b9450602086013567ffffffffffffffff8082111561120557600080fd5b818801915088601f83011261121957600080fd5b81358181111561122857600080fd5b8960208260051b850101111561123d57600080fd5b60208301965080955050604088013591508082111561125b57600080fd5b50611268888289016110f0565b969995985093965092949392505050565b803563ffffffff8116811461108557600080fd5b600080604083850312156112a057600080fd5b823591506112b060208401611279565b90509250929050565b600080600080608085870312156112cf57600080fd5b6112d88561106e565b9350602085013592506112ed60408601611279565b91506112fb60608601611279565b905092959194509250565b60008060008060006080868803121561131e57600080fd5b6113278661106e565b94506020860135935060408601359250606086013567ffffffffffffffff81111561135157600080fd5b611268888289016110f0565b6000806040838503121561137057600080fd5b6113798361106e565b91506112b06020840161106e565b634e487b7160e01b600052601160045260246000fd5b6000828210156113af576113af611387565b500390565b81835281816020850137506000828201602090810191909152601f909101601f19169091010190565b60018060a01b03851681528360208201526060604082015260006114056060830184866113b4565b9695505050505050565b60006020828403121561142157600080fd5b8151801515811461106757600080fd5b6020808252601390820152723737ba1030b8383937bb32b21036b4b73a32b960691b604082015260600190565b600081600019048311821515161561147857611478611387565b500290565b6001600160a01b03848116825260406020808401829052908301849052600091859160608501845b878110156114ca57836114b78661106e565b16825293820193908201906001016114a5565b5098975050505050505050565b6020815260006114eb6020830184866113b4565b949350505050565b60008261151057634e487b7160e01b600052601260045260246000fd5b500490565b6000821982111561152857611528611387565b500190565b60018060a01b03841681528260208201526060604082015260006105f16060830184611007565b8481528360208201526060604082015260006114056060830184866113b456fea26469706673582212206d6cbdc90a4eb67179365e1a0a45cba6af01853f27074c222ff4b9164f0f0ca264736f6c634300080e0033",
    "sourcePath": "c:/Users/luziu/Documents/GitHub/FrankenCoin/contracts/Frankencoin.sol",
    "compiler": {
        "name": "solc",
        "version": "0.8.14+commit.80d49f37"
    },
    "functionHashes": {
        "MIN_APPLICATION_PERIOD()": "1a46c7e9",
        "MIN_FEE()": "76c7a3c7",
        "allowance(address,address)": "dd62ed3e",
        "approve(address,uint256)": "095ea7b3",
        "balanceOf(address)": "70a08231",
        "burn(address,uint256)": "9dc29fac",
        "burn(uint256)": "42966c68",
        "burn(uint256,uint32)": "9cc06358",
        "decimals()": "313ce567",
        "denyMinter(address,address[],string)": "9b404da6",
        "getReserveTarget()": "a16498d9",
        "isMinter(address)": "aa271e1a",
        "mint(address,uint256)": "40c10f19",
        "mint(address,uint256,uint32,uint32)": "cbca628e",
        "minters(address)": "f46eccc4",
        "name()": "06fdde03",
        "notifyLoss(uint256)": "61f3d110",
        "positions(address)": "55f57510",
        "registerPosition(address)": "b52c696d",
        "reserve()": "cd3293de",
        "reserveTarget()": "31ae50bc",
        "reserveTargetFulfilled()": "81676185",
        "reserves()": "75172a8b",
        "suggestMinter(address,uint256,uint256,string)": "d1a15ff1",
        "symbol()": "95d89b41",
        "totalSupply()": "18160ddd",
        "transfer(address,uint256)": "a9059cbb",
        "transferAndCall(address,uint256,bytes)": "4000aea0",
        "transferFrom(address,address,uint256)": "23b872dd"
    },
    "gasEstimates": {
        "creation": {
            "codeDepositCost": "1109200",
            "executionCost": "infinite",
            "totalCost": "infinite"
        },
        "external": {
            "MIN_APPLICATION_PERIOD()": "241",
            "MIN_FEE()": "241",
            "allowance(address,address)": "infinite",
            "approve(address,uint256)": "24596",
            "balanceOf(address)": "2629",
            "burn(address,uint256)": "infinite",
            "burn(uint256)": "infinite",
            "burn(uint256,uint32)": "infinite",
            "decimals()": "infinite",
            "denyMinter(address,address[],string)": "infinite",
            "getReserveTarget()": "2489",
            "isMinter(address)": "2627",
            "mint(address,uint256)": "infinite",
            "mint(address,uint256,uint32,uint32)": "infinite",
            "minters(address)": "2629",
            "name()": "infinite",
            "notifyLoss(uint256)": "infinite",
            "positions(address)": "2603",
            "registerPosition(address)": "26945",
            "reserve()": "infinite",
            "reserveTarget()": "2407",
            "reserveTargetFulfilled()": "infinite",
            "reserves()": "infinite",
            "suggestMinter(address,uint256,uint256,string)": "infinite",
            "symbol()": "infinite",
            "totalSupply()": "2372",
            "transfer(address,uint256)": "51158",
            "transferAndCall(address,uint256,bytes)": "infinite",
            "transferFrom(address,address,uint256)": "infinite"
        }
    }
}