{
    "contractName": "MintingHub",
    "abi": [
        {
            "inputs": [
                {
                    "internalType": "address",
                    "name": "_zchf",
                    "type": "address"
                }
            ],
            "stateMutability": "nonpayable",
            "type": "constructor"
        },
        {
            "anonymous": false,
            "inputs": [
                {
                    "indexed": false,
                    "internalType": "uint32",
                    "name": "number",
                    "type": "uint32"
                }
            ],
            "name": "ChallengeAverted",
            "type": "event"
        },
        {
            "anonymous": false,
            "inputs": [
                {
                    "indexed": true,
                    "internalType": "address",
                    "name": "challenger",
                    "type": "address"
                },
                {
                    "indexed": false,
                    "internalType": "address",
                    "name": "position",
                    "type": "address"
                },
                {
                    "indexed": false,
                    "internalType": "uint256",
                    "name": "size",
                    "type": "uint256"
                },
                {
                    "indexed": false,
                    "internalType": "uint32",
                    "name": "number",
                    "type": "uint32"
                }
            ],
            "name": "ChallengeStarted",
            "type": "event"
        },
        {
            "anonymous": false,
            "inputs": [
                {
                    "indexed": false,
                    "internalType": "uint32",
                    "name": "number",
                    "type": "uint32"
                }
            ],
            "name": "ChallengeSucceeded",
            "type": "event"
        },
        {
            "inputs": [],
            "name": "BASE",
            "outputs": [
                {
                    "internalType": "uint32",
                    "name": "",
                    "type": "uint32"
                }
            ],
            "stateMutability": "view",
            "type": "function"
        },
        {
            "inputs": [],
            "name": "CHALLENGER_REWARD",
            "outputs": [
                {
                    "internalType": "uint32",
                    "name": "",
                    "type": "uint32"
                }
            ],
            "stateMutability": "view",
            "type": "function"
        },
        {
            "inputs": [],
            "name": "CHALLENGE_PERIOD",
            "outputs": [
                {
                    "internalType": "uint256",
                    "name": "",
                    "type": "uint256"
                }
            ],
            "stateMutability": "view",
            "type": "function"
        },
        {
            "inputs": [],
            "name": "OPENING_FEE",
            "outputs": [
                {
                    "internalType": "uint256",
                    "name": "",
                    "type": "uint256"
                }
            ],
            "stateMutability": "view",
            "type": "function"
        },
        {
            "inputs": [
                {
                    "internalType": "uint32",
                    "name": "challengeNumber",
                    "type": "uint32"
                },
                {
                    "internalType": "uint256",
                    "name": "amount",
                    "type": "uint256"
                }
            ],
            "name": "bid",
            "outputs": [],
            "stateMutability": "nonpayable",
            "type": "function"
        },
        {
            "inputs": [],
            "name": "challengeCount",
            "outputs": [
                {
                    "internalType": "uint32",
                    "name": "",
                    "type": "uint32"
                }
            ],
            "stateMutability": "view",
            "type": "function"
        },
        {
            "inputs": [
                {
                    "internalType": "uint32",
                    "name": "challengeNumber",
                    "type": "uint32"
                }
            ],
            "name": "end",
            "outputs": [],
            "stateMutability": "nonpayable",
            "type": "function"
        },
        {
            "inputs": [
                {
                    "internalType": "contract Position",
                    "name": "position",
                    "type": "address"
                },
                {
                    "internalType": "uint256",
                    "name": "size",
                    "type": "uint256"
                }
            ],
            "name": "launchChallenge",
            "outputs": [
                {
                    "internalType": "uint32",
                    "name": "",
                    "type": "uint32"
                }
            ],
            "stateMutability": "nonpayable",
            "type": "function"
        },
        {
            "inputs": [
                {
                    "internalType": "address",
                    "name": "collateral",
                    "type": "address"
                },
                {
                    "internalType": "uint256",
                    "name": "initialCollateral",
                    "type": "uint256"
                },
                {
                    "internalType": "uint256",
                    "name": "initialLimit",
                    "type": "uint256"
                },
                {
                    "internalType": "uint256",
                    "name": "duration",
                    "type": "uint256"
                },
                {
                    "internalType": "uint32",
                    "name": "fees",
                    "type": "uint32"
                },
                {
                    "internalType": "uint32",
                    "name": "reserve",
                    "type": "uint32"
                }
            ],
            "name": "openPosition",
            "outputs": [
                {
                    "internalType": "address",
                    "name": "",
                    "type": "address"
                }
            ],
            "stateMutability": "nonpayable",
            "type": "function"
        },
        {
            "inputs": [],
            "name": "zchf",
            "outputs": [
                {
                    "internalType": "contract IFrankencoin",
                    "name": "",
                    "type": "address"
                }
            ],
            "stateMutability": "view",
            "type": "function"
        }
    ],
    "bytecode": "60a060405234801561001057600080fd5b50604051613cdd380380613cdd83398101604081905261002f91610040565b6001600160a01b0316608052610070565b60006020828403121561005257600080fd5b81516001600160a01b038116811461006957600080fd5b9392505050565b608051613bf06100ed6000396000818161018d01528181610270015281816103a5015281816105ac015281816108a80152818161094f0152818161097e01528181610aaf01528181610b4c01528181610bdf0152818161108e0152818161114a015281816111ac015281816111dc01526114010152613bf06000f3fe60806040523480156200001157600080fd5b5060043610620000ab5760003560e01c8063a2f05725116200006e578063a2f057251462000161578063af5806b61462000172578063c3a079ed146200017c578063c4d4803a1462000187578063ec342ad014620001af57600080fd5b8063228e891814620000b05780632bf78dd814620000c95780634d9171c914620000ed5780637b7da10e14620001045780638fabe4931462000131575b600080fd5b620000c7620000c1366004620014f1565b620001ba565b005b620000da683635c9adc5dea0000081565b6040519081526020015b60405180910390f35b620000c7620000fe3660046200151e565b62000641565b6200011b620001153660046200155c565b62000d88565b60405163ffffffff9091168152602001620000e4565b62000148620001423660046200157d565b62001088565b6040516001600160a01b039091168152602001620000e4565b6000546200011b9063ffffffff1681565b6200011b614e2081565b620000da62093a8081565b620001487f000000000000000000000000000000000000000000000000000000000000000081565b6200011b620f424081565b63ffffffff8216600090815260016020818152604092839020835160c08101855281546001600160a01b039081168252938201548416928101929092526002810154938201939093526003830154606082018190526004840154909216608082015260059092015460a083015242106200023357600080fd5b8060a0015182116200024457600080fd5b60a0810151156200030057608081015160a082015160405163a9059cbb60e01b81526001600160a01b037f0000000000000000000000000000000000000000000000000000000000000000169263a9059cbb92620002b8926004016001600160a01b03929092168252602082015260400190565b6020604051808303816000875af1158015620002d8573d6000803e3d6000fd5b505050506040513d601f19601f82011682018060405250810190620002fe9190620015e5565b505b80602001516001600160a01b0316633e94e2428260400151846040518363ffffffff1660e01b815260040162000340929190918252602082015260400190565b6020604051808303816000875af115801562000360573d6000803e3d6000fd5b505050506040513d601f19601f82011682018060405250810190620003869190620015e5565b15620005955780516040516323b872dd60e01b81526001600160a01b037f000000000000000000000000000000000000000000000000000000000000000016916323b872dd91620003de913391879060040162001609565b6020604051808303816000875af1158015620003fe573d6000803e3d6000fd5b505050506040513d601f19601f82011682018060405250810190620004249190620015e5565b5080602001516001600160a01b031663d8dfeb456040518163ffffffff1660e01b8152600401602060405180830381865afa15801562000468573d6000803e3d6000fd5b505050506040513d601f19601f820116820180604052508101906200048e91906200162d565b604080830151905163a9059cbb60e01b815233600482015260248101919091526001600160a01b03919091169063a9059cbb906044016020604051808303816000875af1158015620004e4573d6000803e3d6000fd5b505050506040513d601f19601f820116820180604052508101906200050a9190620015e5565b5060405163ffffffff841681527fcc83554602a17cd49e51674704717a7a311c025a611ae2734a69a9091a9832d19060200160405180910390a1505063ffffffff166000908152600160208190526040822080546001600160a01b03199081168255918101805483169055600281018390556003810183905560048101805490921690915560050155565b6040516323b872dd60e01b81526001600160a01b037f000000000000000000000000000000000000000000000000000000000000000016906323b872dd90620005e79033903090879060040162001609565b6020604051808303816000875af115801562000607573d6000803e3d6000fd5b505050506040513d601f19601f820116820180604052508101906200062d9190620015e5565b5060a081018290523360808201525b505050565b63ffffffff8116600090815260016020818152604080842092830154815163d8dfeb4560e01b815291519394936001600160a01b039091169263d8dfeb4592600480820193918290030181865afa158015620006a1573d6000803e3d6000fd5b505050506040513d601f19601f82011682018060405250810190620006c791906200162d565b90508160030154421015620006db57600080fd5b8154600283015460405163a9059cbb60e01b81526001600160a01b03928316600482015260248101919091529082169063a9059cbb906044016020604051808303816000875af115801562000734573d6000803e3d6000fd5b505050506040513d601f19601f820116820180604052508101906200075a9190620015e5565b506040805160c08101825283546001600160a01b0390811682526001850154811660208301526002850154928201929092526003840154606082015260048401549091166080820152600583015460a0820152620007b9908262001354565b600182015460048084015460028501546040516310554f3960e11b81526001600160a01b0392831693810193909352602483015260009283928392909116906320aa9e72906044016060604051808303816000875af115801562000821573d6000803e3d6000fd5b505050506040513d601f19601f820116820180604052508101906200084791906200164d565b919450925090506000620f424062000862614e208462001692565b6200086e9190620016b4565b90506000816200087f8585620016d7565b6200088b9087620016f1565b620008979190620016f1565b9050866005015481111562000940577f00000000000000000000000000000000000000000000000000000000000000006001600160a01b03166361f3d110886005015483620008e79190620016d7565b6040518263ffffffff1660e01b81526004016200090691815260200190565b600060405180830381600087803b1580156200092157600080fd5b505af115801562000936573d6000803e3d6000fd5b5050505062000a87565b866005015481101562000a87577f00000000000000000000000000000000000000000000000000000000000000006001600160a01b031663a9059cbb7f00000000000000000000000000000000000000000000000000000000000000006001600160a01b031663cd3293de6040518163ffffffff1660e01b8152600401602060405180830381865afa158015620009db573d6000803e3d6000fd5b505050506040513d601f19601f8201168201806040525081019062000a0191906200162d565b838a6005015462000a139190620016d7565b6040516001600160e01b031960e085901b1681526001600160a01b03909216600483015260248201526044016020604051808303816000875af115801562000a5f573d6000803e3d6000fd5b505050506040513d601f19601f8201168201806040525081019062000a859190620015e5565b505b865460405163a9059cbb60e01b81526001600160a01b039182166004820152602481018490527f00000000000000000000000000000000000000000000000000000000000000009091169063a9059cbb906044016020604051808303816000875af115801562000afb573d6000803e3d6000fd5b505050506040513d601f19601f8201168201806040525081019062000b219190620015e5565b50600187015460408051600081526020810191829052630200057560e51b9091526001600160a01b037f0000000000000000000000000000000000000000000000000000000000000000811692634000aea09262000b8992909116908990602481016200170c565b6020604051808303816000875af115801562000ba9573d6000803e3d6000fd5b505050506040513d601f19601f8201168201806040525081019062000bcf9190620015e5565b5060018701546001600160a01b037f000000000000000000000000000000000000000000000000000000000000000081169163a9059cbb911680630826294062000c1a8989620016d7565b6040516001600160e01b031960e084901b168152600481019190915260016024820152604401602060405180830381865afa15801562000c5e573d6000803e3d6000fd5b505050506040513d601f19601f8201168201806040525081019062000c8491906200177b565b6040516001600160e01b031960e085901b1681526001600160a01b03909216600483015260248201526044016020604051808303816000875af115801562000cd0573d6000803e3d6000fd5b505050506040513d601f19601f8201168201806040525081019062000cf69190620015e5565b5060405163ffffffff891681527f50b7f0976d9b02a39575c339eec1a0e58ddb05fd3c5a642a37ad5ffbe527e3449060200160405180910390a150505063ffffffff9094166000908152600160208190526040822080546001600160a01b0319908116825591810180548316905560028101839055600381018390556004810180549092169091556005015550505050565b6000826001600160a01b031663fc92d2366040518163ffffffff1660e01b8152600401602060405180830381865afa15801562000dc9573d6000803e3d6000fd5b505050506040513d601f19601f8201168201806040525081019062000def91906200177b565b82101562000dfc57600080fd5b826001600160a01b031663d8dfeb456040518163ffffffff1660e01b8152600401602060405180830381865afa15801562000e3b573d6000803e3d6000fd5b505050506040513d601f19601f8201168201806040525081019062000e6191906200162d565b6001600160a01b03166323b872dd3330856040518463ffffffff1660e01b815260040162000e929392919062001609565b6020604051808303816000875af115801562000eb2573d6000803e3d6000fd5b505050506040513d601f19601f8201168201806040525081019062000ed89190620015e5565b506000805463ffffffff16818062000ef08362001795565b91906101000a81548163ffffffff021916908363ffffffff16021790555090506040518060c00160405280336001600160a01b03168152602001856001600160a01b0316815260200184815260200162093a804262000f509190620016f1565b815260006020808301829052604092830182905263ffffffff851682526001808252838320855181546001600160a01b03199081166001600160a01b03928316178355938701519282018054851693821693909317909255858501516002820155606086015160038201556080860151600480830180549095169184169190911790935560a0909501516005909501949094558251633553aacf60e01b8152925193881693633553aacf9380830193929082900301818387803b1580156200101757600080fd5b505af11580156200102c573d6000803e3d6000fd5b5050604080516001600160a01b03881681526020810187905263ffffffff85168183015290513393507f6fe9fd549aacdcf021380940ee8ca98dec67e5d0f3b30a0cab9f1f77fb5575f492509081900360600190a29392505050565b600080337f0000000000000000000000000000000000000000000000000000000000000000898989898989604051620010c190620014c9565b6001600160a01b03988916815296881660208801529690941660408601526060850192909252608084015260a083015263ffffffff90811660c083015290911660e082015261010001604051809103906000f08015801562001127573d6000803e3d6000fd5b5060405163b52c696d60e01b81526001600160a01b0380831660048301529192507f00000000000000000000000000000000000000000000000000000000000000009091169063b52c696d90602401600060405180830381600087803b1580156200119157600080fd5b505af1158015620011a6573d6000803e3d6000fd5b505050507f00000000000000000000000000000000000000000000000000000000000000006001600160a01b03166323b872dd337f00000000000000000000000000000000000000000000000000000000000000006001600160a01b031663cd3293de6040518163ffffffff1660e01b8152600401602060405180830381865afa15801562001239573d6000803e3d6000fd5b505050506040513d601f19601f820116820180604052508101906200125f91906200162d565b683635c9adc5dea000006040518463ffffffff1660e01b8152600401620012899392919062001609565b6020604051808303816000875af1158015620012a9573d6000803e3d6000fd5b505050506040513d601f19601f82011682018060405250810190620012cf9190620015e5565b506040516323b872dd60e01b81526001600160a01b038916906323b872dd906200130290339085908c9060040162001609565b6020604051808303816000875af115801562001322573d6000803e3d6000fd5b505050506040513d601f19601f82011682018060405250810190620013489190620015e5565b50979650505050505050565b60208201516040516370a0823160e01b81526001600160a01b0391821660048201526000918316906370a0823190602401602060405180830381865afa158015620013a3573d6000803e3d6000fd5b505050506040513d601f19601f82011682018060405250810190620013c991906200177b565b905080836040015111156200063c5760008360400151828560a00151620013f1919062001692565b620013fd9190620016b4565b90507f00000000000000000000000000000000000000000000000000000000000000006001600160a01b031663a9059cbb8560800151838760a00151620014459190620016d7565b6040516001600160e01b031960e085901b1681526001600160a01b03909216600483015260248201526044016020604051808303816000875af115801562001491573d6000803e3d6000fd5b505050506040513d601f19601f82011682018060405250810190620014b79190620015e5565b506040840182905260a0840152505050565b6123ff80620017bc83390190565b803563ffffffff81168114620014ec57600080fd5b919050565b600080604083850312156200150557600080fd5b6200151083620014d7565b946020939093013593505050565b6000602082840312156200153157600080fd5b6200153c82620014d7565b9392505050565b6001600160a01b03811681146200155957600080fd5b50565b600080604083850312156200157057600080fd5b8235620015108162001543565b60008060008060008060c087890312156200159757600080fd5b8635620015a48162001543565b9550602087013594506040870135935060608701359250620015c960808801620014d7565b9150620015d960a08801620014d7565b90509295509295509295565b600060208284031215620015f857600080fd5b815180151581146200153c57600080fd5b6001600160a01b039384168152919092166020820152604081019190915260600190565b6000602082840312156200164057600080fd5b81516200153c8162001543565b6000806000606084860312156200166357600080fd5b8351925060208401519150604084015190509250925092565b634e487b7160e01b600052601160045260246000fd5b6000816000190483118215151615620016af57620016af6200167c565b500290565b600082620016d257634e487b7160e01b600052601260045260246000fd5b500490565b600082821015620016ec57620016ec6200167c565b500390565b600082198211156200170757620017076200167c565b500190565b60018060a01b038416815260006020848184015260606040840152835180606085015260005b81811015620017505785810183015185820160800152820162001732565b8181111562001763576000608083870101525b50601f01601f19169290920160800195945050505050565b6000602082840312156200178e57600080fd5b5051919050565b600063ffffffff808316818103620017b157620017b16200167c565b600101939250505056fe6101806040523480156200001257600080fd5b50604051620023ff380380620023ff833981016040819052620000359162000287565b876001600160a01b038116620000775760405162461bcd60e51b815260206004820152600360248201526203078360ec1b604482015260640160405180910390fd5b600080546001600160a01b0319166001600160a01b03831690811782556040519091907f8be0079c531659141344cd1fd0a4f28419497f9722a3daafe3b4186f6b6457e0908290a350336080526001600160a01b0387811660a052861660c05263ffffffff80831660e052811661010052620000f483426200031e565b6101605242610140526200010a600a8662000345565b61012081815250506080516001600160a01b031663cd3293de6040518163ffffffff1660e01b81526004016020604051808303816000875af115801562000155573d6000803e3d6000fd5b505050506040513d601f19601f820116820180604052508101906200017b919062000368565b604051639823004f60e01b81526001600160a01b038a811660048301529190911690639823004f90602401600060405180830381600087803b158015620001c157600080fd5b505af1158015620001d6573d6000803e3d6000fd5b5050604080516001600160a01b038a81168252602082018a90529181018890526060810187905263ffffffff8087166080830152851660a0820152908b1692503391507fa9acafc66e8ebd3a7783dd5a2db26dc6e9ebbc9672fbfef5a4bb77f9de4059159060c00160405180910390a350505050505050506200038f565b6001600160a01b03811681146200026a57600080fd5b50565b805163ffffffff811681146200028257600080fd5b919050565b600080600080600080600080610100898b031215620002a557600080fd5b8851620002b28162000254565b60208a0151909850620002c58162000254565b60408a0151909750620002d88162000254565b80965050606089015194506080890151935060a08901519250620002ff60c08a016200026d565b91506200030f60e08a016200026d565b90509295985092959890939650565b600082198211156200034057634e487b7160e01b600052601160045260246000fd5b500190565b6000826200036357634e487b7160e01b600052601260045260246000fd5b500490565b6000602082840312156200037b57600080fd5b8151620003888162000254565b9392505050565b60805160a05160c05160e05161010051610120516101405161016051611f31620004ce6000396000818161032a0152610e770152600081816101be015261053b0152600061042a01526000818161029d0152818161045801528181610a310152818161117e0152611662015260008181610376015281816104af015261168a0152600081816103f0015281816106eb015281816108e70152818161099201528181610c6f01528181610ec701528181611245015281816113b80152818161142d0152818161172b01526118c90152600081816103c90152818161059f01528181610acd01528181610daa01528181610fc701528181611041015281816111a50152818161130d015281816116b1015261176c01526000818161024b0152818161083201528181610d1401528181610e3801526117ad0152611f316000f3fe608060405234801561001057600080fd5b506004361061018e5760003560e01c806340c10f19116100de578063a4c0ed3611610097578063c4d4803a11610071578063c4d4803a146103c4578063d8dfeb45146103eb578063f2fde38b14610412578063fc92d2361461042557600080fd5b8063a4c0ed3614610398578063a4d66daf146103ab578063b8c072e3146103b457600080fd5b806340c10f19146103125780634665096d146103255780634f02c4201461034c578063787a08a6146103555780638da5cb5b1461035e578063a13620331461037157600080fd5b80633553aacf1161014b5780633a7c29fb116101255780633a7c29fb146102985780633e94e242146102d4578063402d8883146102f757806340ab3e16146102ff57600080fd5b80633553aacf1461023e578063365a86fc14610246578063371fd8e61461028557600080fd5b8063082629401461019357806313845d2f146101b95780631bbea34c146101e057806320aa9e72146101f557806323ef70bc14610223578063306512d71461022b575b600080fd5b6101a66101a1366004611a5b565b61044c565b6040519081526020015b60405180910390f35b6101a67f000000000000000000000000000000000000000000000000000000000000000081565b6101f36101ee366004611ad4565b6104f8565b005b610208610203366004611b83565b610823565b604080519384526020840192909252908201526060016101b0565b6101a6610ac8565b6101f3610239366004611baf565b610bdf565b6101f3610d09565b61026d7f000000000000000000000000000000000000000000000000000000000000000081565b6040516001600160a01b0390911681526020016101b0565b6101f3610293366004611baf565b610d88565b6102bf7f000000000000000000000000000000000000000000000000000000000000000081565b60405163ffffffff90911681526020016101b0565b6102e76102e2366004611bc8565b610e2b565b60405190151581526020016101b0565b6101f3610f9a565b6101f361030d366004611bea565b6112e1565b6101f3610320366004611b83565b61158f565b6101a67f000000000000000000000000000000000000000000000000000000000000000081565b6101a660025481565b6101a660045481565b60005461026d906001600160a01b031681565b6102bf7f000000000000000000000000000000000000000000000000000000000000000081565b6102e76103a6366004611c2b565b61171f565b6101a660015481565b6003546102bf9063ffffffff1681565b61026d7f000000000000000000000000000000000000000000000000000000000000000081565b61026d7f000000000000000000000000000000000000000000000000000000000000000081565b6101f3610420366004611c7b565b6117a2565b6101a67f000000000000000000000000000000000000000000000000000000000000000081565b600080620f424061047d7f000000000000000000000000000000000000000000000000000000000000000082611cb5565b61048d9063ffffffff1686611cda565b6104979190611cf9565b905082156104a65790506104f2565b620f42406104d47f000000000000000000000000000000000000000000000000000000000000000082611cb5565b6104e49063ffffffff1686611cda565b6104ee9190611cf9565b9150505b92915050565b600254156105365760405162461bcd60e51b81526020600482015260066024820152651b5a5b9d195960d21b60448201526064015b60405180910390fd5b6105637f00000000000000000000000000000000000000000000000000000000000000006203f480611d1b565b42111561059d5760405162461bcd60e51b8152602060048201526008602482015267746f6f206c61746560c01b604482015260640161052d565b7f00000000000000000000000000000000000000000000000000000000000000006001600160a01b031663cd3293de6040518163ffffffff1660e01b8152600401602060405180830381865afa1580156105fb573d6000803e3d6000fd5b505050506040513d601f19601f8201168201806040525081019061061f9190611d33565b6001600160a01b0316635e1121cf3386866040518463ffffffff1660e01b815260040161064e93929190611d50565b602060405180830381865afa15801561066b573d6000803e3d6000fd5b505050506040513d601f19601f8201168201806040525081019061068f9190611dac565b6106cb5760405162461bcd60e51b815260206004820152600d60248201526c1b9bdd081c5d585b1a599a5959609a1b604482015260640161052d565b6000546040516370a0823160e01b81523060048201526001600160a01b037f000000000000000000000000000000000000000000000000000000000000000081169263a9059cbb9291169083906370a0823190602401602060405180830381865afa15801561073e573d6000803e3d6000fd5b505050506040513d601f19601f820116820180604052508101906107629190611dc9565b6040516001600160e01b031960e085901b1681526001600160a01b03909216600483015260248201526044016020604051808303816000875af11580156107ad573d6000803e3d6000fd5b505050506040513d601f19601f820116820180604052508101906107d19190611dac565b50336001600160a01b03167faca80c800ec0d2aa9d9d31b7f886a1dd3067d4676abc637626a18ffb9381653d838360405161080d929190611de2565b60405180910390a26000546001600160a01b0316ff5b60008080336001600160a01b037f0000000000000000000000000000000000000000000000000000000000000000161461086f5760405162461bcd60e51b815260040161052d90611e11565b6003805463ffffffff1690600061088583611e32565b91906101000a81548163ffffffff021916908363ffffffff160217905550506000600154600254620f42406108ba9190611cda565b6108c49190611cf9565b6040516370a0823160e01b81523060048201529091506000906001600160a01b037f000000000000000000000000000000000000000000000000000000000000000016906370a0823190602401602060405180830381865afa15801561092e573d6000803e3d6000fd5b505050506040513d601f19601f820116820180604052508101906109529190611dc9565b61095f87620f4240611cda565b6109699190611cf9565b60405163a9059cbb60e01b81526001600160a01b038981166004830152602482018990529192507f00000000000000000000000000000000000000000000000000000000000000009091169063a9059cbb906044016020604051808303816000875af11580156109dd573d6000803e3d6000fd5b505050506040513d601f19601f82011682018060405250810190610a019190611dac565b50600154620f4240610a1963ffffffff841683611cda565b610a239190611cf9565b6001556000620f4240610a567f000000000000000000000000000000000000000000000000000000000000000082611cb5565b63ffffffff1660015484610a6a9190611e52565b610a749190611cda565b610a7e9190611cf9565b90508263ffffffff16610a8f610ac8565b610a999190611cda565b620f4240610aad63ffffffff871684611cda565b610ab79190611cf9565b909750955093505050509250925092565b6000807f00000000000000000000000000000000000000000000000000000000000000006001600160a01b031663cd3293de6040518163ffffffff1660e01b8152600401602060405180830381865afa158015610b29573d6000803e3d6000fd5b505050506040513d601f19601f82011682018060405250810190610b4d9190611d33565b60405163140c825160e31b81523060048201526001600160a01b03919091169063a064128890602401602060405180830381865afa158015610b93573d6000803e3d6000fd5b505050506040513d601f19601f82011682018060405250810190610bb79190611dc9565b9050600254811115610bcb57600091505090565b80600254610bd99190611e52565b91505090565b6000546001600160a01b03163314610c095760405162461bcd60e51b815260040161052d90611e69565b60035463ffffffff1615610c2f5760405162461bcd60e51b815260040161052d90611e8c565b600154811115610c4557610c456203f48061188f565b60018190556040516370a0823160e01b8152306004820152600080516020611edc833981519152907f00000000000000000000000000000000000000000000000000000000000000006001600160a01b0316906370a0823190602401602060405180830381865afa158015610cbe573d6000803e3d6000fd5b505050506040513d601f19601f82011682018060405250810190610ce29190611dc9565b6001546002546040805193845260208401929092529082015260600160405180910390a150565b336001600160a01b037f00000000000000000000000000000000000000000000000000000000000000001614610d515760405162461bcd60e51b815260040161052d90611e11565b6003805463ffffffff16906000610d6783611eb8565b91906101000a81548163ffffffff021916908363ffffffff16021790555050565b6040516323b872dd60e01b8152336004820152306024820152604481018290527f00000000000000000000000000000000000000000000000000000000000000006001600160a01b0316906323b872dd906064016020604051808303816000875af1158015610dfb573d6000803e3d6000fd5b505050506040513d601f19601f82011682018060405250810190610e1f9190611dac565b50610e28610f9a565b50565b6000336001600160a01b037f00000000000000000000000000000000000000000000000000000000000000001614610e755760405162461bcd60e51b815260040161052d90611e11565b7f00000000000000000000000000000000000000000000000000000000000000004210610ea4575060006104f2565b82600154610eb29190611cda565b6040516370a0823160e01b81523060048201527f00000000000000000000000000000000000000000000000000000000000000006001600160a01b0316906370a0823190602401602060405180830381865afa158015610f16573d6000803e3d6000fd5b505050506040513d601f19601f82011682018060405250810190610f3a9190611dc9565b610f449084611cda565b10610f92576003805463ffffffff16906000610f5f83611e32565b91906101000a81548163ffffffff021916908363ffffffff16021790555050610f8a6201518061188f565b5060016104f2565b5060006104f2565b6000610fa4610ac8565b6040516370a0823160e01b81523060048201529091506000906001600160a01b037f000000000000000000000000000000000000000000000000000000000000000016906370a0823190602401602060405180830381865afa15801561100e573d6000803e3d6000fd5b505050506040513d601f19601f820116820180604052508101906110329190611dc9565b90508181111561103f5750805b7f00000000000000000000000000000000000000000000000000000000000000006001600160a01b031663cd3293de6040518163ffffffff1660e01b8152600401602060405180830381865afa15801561109d573d6000803e3d6000fd5b505050506040513d601f19601f820116820180604052508101906110c19190611d33565b6001600160a01b031663ecc1a3c7836110dd84620f4240611cda565b6110e79190611cf9565b6040518263ffffffff1660e01b815260040161110591815260200190565b6020604051808303816000875af1158015611124573d6000803e3d6000fd5b505050506040513d601f19601f820116820180604052508101906111489190611dc9565b6111529082611d1b565b905060025481111561116357506002545b6040516313980c6b60e31b81526004810182905263ffffffff7f00000000000000000000000000000000000000000000000000000000000000001660248201527f00000000000000000000000000000000000000000000000000000000000000006001600160a01b031690639cc0635890604401600060405180830381600087803b1580156111f157600080fd5b505af1158015611205573d6000803e3d6000fd5b50505050806002600082825461121b9190611e52565b90915550506040516370a0823160e01b8152306004820152600080516020611edc833981519152907f00000000000000000000000000000000000000000000000000000000000000006001600160a01b0316906370a0823190602401602060405180830381865afa158015611294573d6000803e3d6000fd5b505050506040513d601f19601f820116820180604052508101906112b89190611dc9565b600154600254604080519384526020840192909252908201526060015b60405180910390a15050565b6000546001600160a01b0316331461130b5760405162461bcd60e51b815260040161052d90611e69565b7f00000000000000000000000000000000000000000000000000000000000000006001600160a01b031663cd3293de6040518163ffffffff1660e01b8152600401602060405180830381865afa158015611369573d6000803e3d6000fd5b505050506040513d601f19601f8201168201806040525081019061138d9190611d33565b6001600160a01b0316836001600160a01b03161415806113ad5750600254155b6113b657600080fd5b7f00000000000000000000000000000000000000000000000000000000000000006001600160a01b0316836001600160a01b0316036115165760035463ffffffff16156114155760405162461bcd60e51b815260040161052d90611e8c565b6040516370a0823160e01b81523060048201526000907f00000000000000000000000000000000000000000000000000000000000000006001600160a01b0316906370a0823190602401602060405180830381865afa15801561147c573d6000803e3d6000fd5b505050506040513d601f19601f820116820180604052508101906114a09190611dc9565b9050806114ad8382611e52565b6001546114ba9190611cda565b6114c49190611cf9565b600181905560025411156114d757600080fd5b600080516020611edc8339815191526114f08383611e52565b6001546002546040805193845260208401929092529082015260600160405180910390a1505b60405163a9059cbb60e01b81526001600160a01b0383811660048301526024820183905284169063a9059cbb906044016020604051808303816000875af1158015611565573d6000803e3d6000fd5b505050506040513d601f19601f820116820180604052508101906115899190611dac565b50505050565b6000546001600160a01b031633146115b95760405162461bcd60e51b815260040161052d90611e69565b60035463ffffffff16156115df5760405162461bcd60e51b815260040161052d90611e8c565b426004541061161b5760405162461bcd60e51b815260206004820152600860248201526731b7b7b63237bbb760c11b604482015260640161052d565b6001548160025461162c9190611d1b565b111561163757600080fd5b6040516365e5314760e11b81526001600160a01b0383811660048301526024820183905263ffffffff7f0000000000000000000000000000000000000000000000000000000000000000811660448401527f00000000000000000000000000000000000000000000000000000000000000001660648301527f0000000000000000000000000000000000000000000000000000000000000000169063cbca628e90608401600060405180830381600087803b1580156116f557600080fd5b505af1158015611709573d6000803e3d6000fd5b50505050806002600082825461121b9190611d1b565b60006001600160a01b037f00000000000000000000000000000000000000000000000000000000000000001633036117625761175a846118b1565b50600161179a565b6001600160a01b037f000000000000000000000000000000000000000000000000000000000000000016330361018e5761175a610f9a565b949350505050565b6117ab8161199c565b7f00000000000000000000000000000000000000000000000000000000000000006001600160a01b031663cd3293de6040518163ffffffff1660e01b81526004016020604051808303816000875af115801561180b573d6000803e3d6000fd5b505050506040513d601f19601f8201168201806040525081019061182f9190611d33565b604051639823004f60e01b81526001600160a01b0383811660048301529190911690639823004f90602401600060405180830381600087803b15801561187457600080fd5b505af1158015611888573d6000803e3d6000fd5b5050505050565b600061189b8242611d1b565b90506004548111156118ad5760048190555b5050565b6040516370a0823160e01b81523060048201526000907f00000000000000000000000000000000000000000000000000000000000000006001600160a01b0316906370a0823190602401602060405180830381865afa158015611918573d6000803e3d6000fd5b505050506040513d601f19601f8201168201806040525081019061193c9190611dc9565b90508181111561196c576119508282611e52565b8160015461195e9190611cda565b6119689190611cf9565b6001555b600154600254604080518481526020810193909352820152600080516020611edc833981519152906060016112d5565b6000546001600160a01b031633146119c65760405162461bcd60e51b815260040161052d90611e69565b6001600160a01b038116611a025760405162461bcd60e51b815260206004820152600360248201526203078360ec1b604482015260640161052d565b600080546001600160a01b0319166001600160a01b0383169081178255604051909182917f8be0079c531659141344cd1fd0a4f28419497f9722a3daafe3b4186f6b6457e09190a350565b8015158114610e2857600080fd5b60008060408385031215611a6e57600080fd5b823591506020830135611a8081611a4d565b809150509250929050565b60008083601f840112611a9d57600080fd5b50813567ffffffffffffffff811115611ab557600080fd5b602083019150836020828501011115611acd57600080fd5b9250929050565b60008060008060408587031215611aea57600080fd5b843567ffffffffffffffff80821115611b0257600080fd5b818701915087601f830112611b1657600080fd5b813581811115611b2557600080fd5b8860208260051b8501011115611b3a57600080fd5b602092830196509450908601359080821115611b5557600080fd5b50611b6287828801611a8b565b95989497509550505050565b6001600160a01b0381168114610e2857600080fd5b60008060408385031215611b9657600080fd5b8235611ba181611b6e565b946020939093013593505050565b600060208284031215611bc157600080fd5b5035919050565b60008060408385031215611bdb57600080fd5b50508035926020909101359150565b600080600060608486031215611bff57600080fd5b8335611c0a81611b6e565b92506020840135611c1a81611b6e565b929592945050506040919091013590565b60008060008060608587031215611c4157600080fd5b8435611c4c81611b6e565b935060208501359250604085013567ffffffffffffffff811115611c6f57600080fd5b611b6287828801611a8b565b600060208284031215611c8d57600080fd5b8135611c9881611b6e565b9392505050565b634e487b7160e01b600052601160045260246000fd5b600063ffffffff83811690831681811015611cd257611cd2611c9f565b039392505050565b6000816000190483118215151615611cf457611cf4611c9f565b500290565b600082611d1657634e487b7160e01b600052601260045260246000fd5b500490565b60008219821115611d2e57611d2e611c9f565b500190565b600060208284031215611d4557600080fd5b8151611c9881611b6e565b6001600160a01b03848116825260406020808401829052908301849052600091859160608501845b87811015611d9f578435611d8b81611b6e565b841682529382019390820190600101611d78565b5098975050505050505050565b600060208284031215611dbe57600080fd5b8151611c9881611a4d565b600060208284031215611ddb57600080fd5b5051919050565b60208152816020820152818360408301376000818301604090810191909152601f909201601f19160101919050565b6020808252600790820152663737ba10343ab160c91b604082015260600190565b600063ffffffff821680611e4857611e48611c9f565b6000190192915050565b600082821015611e6457611e64611c9f565b500390565b6020808252600990820152683737ba1037bbb732b960b91b604082015260600190565b6020808252601290820152716368616c6c656e6765732070656e64696e6760701b604082015260600190565b600063ffffffff808316818103611ed157611ed1611c9f565b600101939250505056fe9483a26ad376f30b5199a79e75df3bb05158c4ee32a348f53e83245a5e50c86ea2646970667358221220feffc9c3a65c1ad90d442a929def2d35b593eee3e3b7ae29c663167a916a74cf64736f6c634300080e0033a26469706673582212200144b41322e87d5bd5d2ec5a11f4ad3f16d468f539c04ddc21ec4424d258e5d364736f6c634300080e0033",
    "sourcePath": "c:/Users/luziu/Documents/GitHub/FrankenCoin/contracts/MintingHub.sol",
    "compiler": {
        "name": "solc",
        "version": "0.8.14+commit.80d49f37"
    },
    "functionHashes": {
        "BASE()": "ec342ad0",
        "CHALLENGER_REWARD()": "af5806b6",
        "CHALLENGE_PERIOD()": "c3a079ed",
        "OPENING_FEE()": "2bf78dd8",
        "bid(uint32,uint256)": "228e8918",
        "challengeCount()": "a2f05725",
        "end(uint32)": "4d9171c9",
        "launchChallenge(address,uint256)": "7b7da10e",
        "openPosition(address,uint256,uint256,uint256,uint32,uint32)": "8fabe493",
        "zchf()": "c4d4803a"
    },
    "gasEstimates": {
        "creation": {
            "codeDepositCost": "3068800",
            "executionCost": "infinite",
            "totalCost": "infinite"
        },
        "external": {
            "BASE()": "292",
            "CHALLENGER_REWARD()": "226",
            "CHALLENGE_PERIOD()": "228",
            "OPENING_FEE()": "207",
            "bid(uint32,uint256)": "infinite",
            "challengeCount()": "2313",
            "end(uint32)": "infinite",
            "launchChallenge(address,uint256)": "infinite",
            "openPosition(address,uint256,uint256,uint256,uint32,uint32)": "infinite",
            "zchf()": "infinite"
        },
        "internal": {
            "checkSize(struct MintingHub.Challenge memory,contract IERC20)": "infinite"
        }
    }
}