{
    "contractName": "Position",
    "abi": [
        {
            "inputs": [
                {
                    "internalType": "address",
                    "name": "owner",
                    "type": "address"
                },
                {
                    "internalType": "address",
                    "name": "_hub",
                    "type": "address"
                },
                {
                    "internalType": "address",
                    "name": "_zchf",
                    "type": "address"
                },
                {
                    "internalType": "address",
                    "name": "_collateral",
                    "type": "address"
                },
                {
                    "internalType": "uint256",
                    "name": "minCollateral",
                    "type": "uint256"
                },
                {
                    "internalType": "uint256",
                    "name": "initialCollateral",
                    "type": "uint256"
                },
                {
                    "internalType": "uint256",
                    "name": "initialLimit",
                    "type": "uint256"
                },
                {
                    "internalType": "uint256",
                    "name": "duration",
                    "type": "uint256"
                },
                {
                    "internalType": "uint32",
                    "name": "_mintingFeePPM",
                    "type": "uint32"
                },
                {
                    "internalType": "uint32",
                    "name": "_reserve",
                    "type": "uint32"
                }
            ],
            "stateMutability": "nonpayable",
            "type": "constructor"
        },
        {
            "anonymous": false,
            "inputs": [
                {
                    "indexed": false,
                    "internalType": "uint256",
                    "name": "collateral",
                    "type": "uint256"
                },
                {
                    "indexed": false,
                    "internalType": "uint256",
                    "name": "price",
                    "type": "uint256"
                },
                {
                    "indexed": false,
                    "internalType": "uint256",
                    "name": "minted",
                    "type": "uint256"
                },
                {
                    "indexed": false,
                    "internalType": "uint256",
                    "name": "limit",
                    "type": "uint256"
                }
            ],
            "name": "MintingUpdate",
            "type": "event"
        },
        {
            "anonymous": false,
            "inputs": [
                {
                    "indexed": true,
                    "internalType": "address",
                    "name": "previousOwner",
                    "type": "address"
                },
                {
                    "indexed": true,
                    "internalType": "address",
                    "name": "newOwner",
                    "type": "address"
                }
            ],
            "name": "OwnershipTransferred",
            "type": "event"
        },
        {
            "anonymous": false,
            "inputs": [
                {
                    "indexed": true,
                    "internalType": "address",
                    "name": "sender",
                    "type": "address"
                },
                {
                    "indexed": false,
                    "internalType": "string",
                    "name": "message",
                    "type": "string"
                }
            ],
            "name": "PositionDenied",
            "type": "event"
        },
        {
            "anonymous": false,
            "inputs": [
                {
                    "indexed": true,
                    "internalType": "address",
                    "name": "hub",
                    "type": "address"
                },
                {
                    "indexed": true,
                    "internalType": "address",
                    "name": "owner",
                    "type": "address"
                },
                {
                    "indexed": false,
                    "internalType": "address",
                    "name": "collateral",
                    "type": "address"
                },
                {
                    "indexed": false,
                    "internalType": "uint256",
                    "name": "initialCollateral",
                    "type": "uint256"
                },
                {
                    "indexed": false,
                    "internalType": "uint256",
                    "name": "initialLimit",
                    "type": "uint256"
                },
                {
                    "indexed": false,
                    "internalType": "uint256",
                    "name": "duration",
                    "type": "uint256"
                },
                {
                    "indexed": false,
                    "internalType": "uint32",
                    "name": "fees",
                    "type": "uint32"
                },
                {
                    "indexed": false,
                    "internalType": "uint32",
                    "name": "reserve",
                    "type": "uint32"
                }
            ],
            "name": "PositionOpened",
            "type": "event"
        },
        {
            "inputs": [
                {
                    "internalType": "uint256",
                    "name": "newPrice",
                    "type": "uint256"
                }
            ],
            "name": "adjustPrice",
            "outputs": [],
            "stateMutability": "nonpayable",
            "type": "function"
        },
        {
            "inputs": [],
            "name": "challengedAmount",
            "outputs": [
                {
                    "internalType": "uint256",
                    "name": "",
                    "type": "uint256"
                }
            ],
            "stateMutability": "view",
            "type": "function"
        },
        {
            "inputs": [],
            "name": "collateral",
            "outputs": [
                {
                    "internalType": "contract IERC20",
                    "name": "",
                    "type": "address"
                }
            ],
            "stateMutability": "view",
            "type": "function"
        },
        {
            "inputs": [],
            "name": "cooldown",
            "outputs": [
                {
                    "internalType": "uint256",
                    "name": "",
                    "type": "uint256"
                }
            ],
            "stateMutability": "view",
            "type": "function"
        },
        {
            "inputs": [
                {
                    "internalType": "address[]",
                    "name": "helpers",
                    "type": "address[]"
                },
                {
                    "internalType": "string",
                    "name": "message",
                    "type": "string"
                }
            ],
            "name": "deny",
            "outputs": [],
            "stateMutability": "nonpayable",
            "type": "function"
        },
        {
            "inputs": [],
            "name": "expiration",
            "outputs": [
                {
                    "internalType": "uint256",
                    "name": "",
                    "type": "uint256"
                }
            ],
            "stateMutability": "view",
            "type": "function"
        },
        {
            "inputs": [],
            "name": "factory",
            "outputs": [
                {
                    "internalType": "address",
                    "name": "",
                    "type": "address"
                }
            ],
            "stateMutability": "view",
            "type": "function"
        },
        {
            "inputs": [
                {
                    "internalType": "uint256",
                    "name": "totalMint",
                    "type": "uint256"
                },
                {
                    "internalType": "bool",
                    "name": "beforeFees",
                    "type": "bool"
                }
            ],
            "name": "getUsableMint",
            "outputs": [
                {
                    "internalType": "uint256",
                    "name": "",
                    "type": "uint256"
                }
            ],
            "stateMutability": "view",
            "type": "function"
        },
        {
            "inputs": [],
            "name": "hub",
            "outputs": [
                {
                    "internalType": "address",
                    "name": "",
                    "type": "address"
                }
            ],
            "stateMutability": "view",
            "type": "function"
        },
        {
            "inputs": [
                {
                    "internalType": "address",
                    "name": "owner",
                    "type": "address"
                },
                {
                    "internalType": "uint256",
                    "name": "price_",
                    "type": "uint256"
                },
                {
                    "internalType": "uint256",
                    "name": "limit_",
                    "type": "uint256"
                },
                {
                    "internalType": "uint256",
                    "name": "coll",
                    "type": "uint256"
                },
                {
                    "internalType": "uint256",
                    "name": "mint_",
                    "type": "uint256"
                }
            ],
            "name": "initializeClone",
            "outputs": [],
            "stateMutability": "nonpayable",
            "type": "function"
        },
        {
            "inputs": [],
            "name": "limit",
            "outputs": [
                {
                    "internalType": "uint256",
                    "name": "",
                    "type": "uint256"
                }
            ],
            "stateMutability": "view",
            "type": "function"
        },
        {
            "inputs": [],
            "name": "minimumCollateral",
            "outputs": [
                {
                    "internalType": "uint256",
                    "name": "",
                    "type": "uint256"
                }
            ],
            "stateMutability": "view",
            "type": "function"
        },
        {
            "inputs": [
                {
                    "internalType": "address",
                    "name": "target",
                    "type": "address"
                },
                {
                    "internalType": "uint256",
                    "name": "amount",
                    "type": "uint256"
                }
            ],
            "name": "mint",
            "outputs": [],
            "stateMutability": "nonpayable",
            "type": "function"
        },
        {
            "inputs": [],
            "name": "minted",
            "outputs": [
                {
                    "internalType": "uint256",
                    "name": "",
                    "type": "uint256"
                }
            ],
            "stateMutability": "view",
            "type": "function"
        },
        {
            "inputs": [],
            "name": "mintingFeePPM",
            "outputs": [
                {
                    "internalType": "uint32",
                    "name": "",
                    "type": "uint32"
                }
            ],
            "stateMutability": "view",
            "type": "function"
        },
        {
            "inputs": [
                {
                    "internalType": "uint256",
                    "name": "size",
                    "type": "uint256"
                }
            ],
            "name": "notifyChallengeStarted",
            "outputs": [],
            "stateMutability": "nonpayable",
            "type": "function"
        },
        {
            "inputs": [
                {
                    "internalType": "address",
                    "name": "bidder",
                    "type": "address"
                },
                {
                    "internalType": "uint256",
                    "name": "bid",
                    "type": "uint256"
                },
                {
                    "internalType": "uint256",
                    "name": "size",
                    "type": "uint256"
                }
            ],
            "name": "notifyChallengeSucceeded",
            "outputs": [
                {
                    "internalType": "uint256",
                    "name": "",
                    "type": "uint256"
                },
                {
                    "internalType": "uint256",
                    "name": "",
                    "type": "uint256"
                },
                {
                    "internalType": "uint32",
                    "name": "",
                    "type": "uint32"
                }
            ],
            "stateMutability": "nonpayable",
            "type": "function"
        },
        {
            "inputs": [
                {
                    "internalType": "address",
                    "name": "",
                    "type": "address"
                },
                {
                    "internalType": "uint256",
                    "name": "amount",
                    "type": "uint256"
                },
                {
                    "internalType": "bytes",
                    "name": "",
                    "type": "bytes"
                }
            ],
            "name": "onTokenTransfer",
            "outputs": [
                {
                    "internalType": "bool",
                    "name": "",
                    "type": "bool"
                }
            ],
            "stateMutability": "nonpayable",
            "type": "function"
        },
        {
            "inputs": [],
            "name": "owner",
            "outputs": [
                {
                    "internalType": "address",
                    "name": "",
                    "type": "address"
                }
            ],
            "stateMutability": "view",
            "type": "function"
        },
        {
            "inputs": [],
            "name": "price",
            "outputs": [
                {
                    "internalType": "uint256",
                    "name": "",
                    "type": "uint256"
                }
            ],
            "stateMutability": "view",
            "type": "function"
        },
        {
            "inputs": [
                {
                    "internalType": "uint256",
                    "name": "minimum",
                    "type": "uint256"
                }
            ],
            "name": "reduceLimitForClone",
            "outputs": [
                {
                    "internalType": "uint256",
                    "name": "",
                    "type": "uint256"
                }
            ],
            "stateMutability": "nonpayable",
            "type": "function"
        },
        {
            "inputs": [
                {
                    "internalType": "uint256",
                    "name": "amount",
                    "type": "uint256"
                }
            ],
            "name": "repay",
            "outputs": [],
            "stateMutability": "nonpayable",
            "type": "function"
        },
        {
            "inputs": [],
            "name": "repay",
            "outputs": [],
            "stateMutability": "nonpayable",
            "type": "function"
        },
        {
            "inputs": [],
            "name": "reserveContribution",
            "outputs": [
                {
                    "internalType": "uint32",
                    "name": "",
                    "type": "uint32"
                }
            ],
            "stateMutability": "view",
            "type": "function"
        },
        {
            "inputs": [
                {
                    "internalType": "address",
                    "name": "newOwner",
                    "type": "address"
                }
            ],
            "name": "transferOwnership",
            "outputs": [],
            "stateMutability": "nonpayable",
            "type": "function"
        },
        {
            "inputs": [
                {
                    "internalType": "uint256",
                    "name": "size",
                    "type": "uint256"
                },
                {
                    "internalType": "uint256",
                    "name": "bid",
                    "type": "uint256"
                }
            ],
            "name": "tryAvertChallenge",
            "outputs": [
                {
                    "internalType": "bool",
                    "name": "",
                    "type": "bool"
                }
            ],
            "stateMutability": "nonpayable",
            "type": "function"
        },
        {
            "inputs": [
                {
                    "internalType": "address",
                    "name": "token",
                    "type": "address"
                },
                {
                    "internalType": "address",
                    "name": "target",
                    "type": "address"
                },
                {
                    "internalType": "uint256",
                    "name": "amount",
                    "type": "uint256"
                }
            ],
            "name": "withdraw",
            "outputs": [],
            "stateMutability": "nonpayable",
            "type": "function"
        },
        {
            "inputs": [
                {
                    "internalType": "address",
                    "name": "target",
                    "type": "address"
                },
                {
                    "internalType": "uint256",
                    "name": "amount",
                    "type": "uint256"
                }
            ],
            "name": "withdrawCollateral",
            "outputs": [],
            "stateMutability": "nonpayable",
            "type": "function"
        },
        {
            "inputs": [],
            "name": "zchf",
            "outputs": [
                {
                    "internalType": "contract IFrankencoin",
                    "name": "",
                    "type": "address"
                }
            ],
            "stateMutability": "view",
            "type": "function"
        }
    ],
    "bytecode": "6101806040523480156200001257600080fd5b50604051620020f1380380620020f18339810160408190526200003591620001fa565b896001600160a01b038116620000775760405162461bcd60e51b815260206004820152600360248201526203078360ec1b604482015260640160405180910390fd5b600080546001600160a01b0319166001600160a01b03831690811782556040519091907f8be0079c531659141344cd1fd0a4f28419497f9722a3daafe3b4186f6b6457e0908290a3503360a0526001600160a01b0389811660c05288811660e05287166101005263ffffffff8083166101405281166101605285851015620000fe57600080fd5b610120869052620001108342620002a5565b6080526200012162093a80620001a3565b6005849055604080516001600160a01b038981168252602082018890529181018690526060810185905263ffffffff8085166080830152831660a0820152818c16918b16907fa9acafc66e8ebd3a7783dd5a2db26dc6e9ebbc9672fbfef5a4bb77f9de4059159060c00160405180910390a350505050505050505050620002cd565b6000620001b18242620002a5565b9050600454811115620001c45760048190555b5050565b80516001600160a01b0381168114620001e057600080fd5b919050565b805163ffffffff81168114620001e057600080fd5b6000806000806000806000806000806101408b8d0312156200021b57600080fd5b620002268b620001c8565b99506200023660208c01620001c8565b98506200024660408c01620001c8565b97506200025660608c01620001c8565b965060808b0151955060a08b0151945060c08b0151935060e08b01519250620002836101008c01620001e5565b9150620002946101208c01620001e5565b90509295989b9194979a5092959850565b80820180821115620002c757634e487b7160e01b600052601160045260246000fd5b92915050565b60805160a05160c05160e05161010051610120516101405161016051611cec6200040560003960008181610282015281816104dd01528181611048015281816115e501526116f40152600081816103ab01528181610534015261171c01526000818161041401528181610aa9015261118c0152600081816104890152818161070f015281816109e701528181610fca0152818161132b01526114c2015260008181610462015281816105c30152818161081601528181610b4101528181610ce80152818161111b0152818161160f015261174301526000818161023001528181610bd001528181610e490152610eed01526000818161043b01528181611160015261125101526000818161030f015281816108ff01528181610a8001528181610c0f01528181610dce01526111ec0152611cec6000f3fe608060405234801561001057600080fd5b50600436106101cf5760003560e01c806372bf079e11610104578063aee1a959116100a2578063c4d4803a11610071578063c4d4803a1461045d578063d8dfeb4514610484578063d9caed12146104ab578063f2fde38b146104be57600080fd5b8063aee1a959146103e9578063b0c2ec82146103fc578063babe7c741461040f578063c45a01551461043657600080fd5b8063a035b1fe116100de578063a035b1fe1461039d578063a1362033146103a6578063a4c0ed36146103cd578063a4d66daf146103e057600080fd5b806372bf079e1461036e578063787a08a6146103815780638da5cb5b1461038a57600080fd5b80633e94e2421161017157806342d020411161014b57806342d02041146102f75780634665096d1461030a5780634f02c42014610331578063707271b11461033a57600080fd5b80633e94e242146102b9578063402d8883146102dc57806340c10f19146102e457600080fd5b8063350c35e9116101ad578063350c35e914610218578063365a86fc1461022b578063371fd8e61461026a5780633a7c29fb1461027d57600080fd5b806308262940146101d45780631bbea34c146101fa57806324e657fe1461020f575b600080fd5b6101e76101e236600461180a565b6104d1565b6040519081526020015b60405180910390f35b61020d610208366004611883565b610583565b005b6101e760035481565b61020d610226366004611932565b610963565b6102527f000000000000000000000000000000000000000000000000000000000000000081565b6040516001600160a01b0390911681526020016101f1565b61020d61027836600461195e565b610ae1565b6102a47f000000000000000000000000000000000000000000000000000000000000000081565b60405163ffffffff90911681526020016101f1565b6102cc6102c7366004611977565b610bc3565b60405190151581526020016101f1565b61020d610c91565b61020d6102f2366004611932565b610d62565b61020d61030536600461195e565b610e3e565b6101e77f000000000000000000000000000000000000000000000000000000000000000081565b6101e760025481565b61034d610348366004611999565b610ede565b60408051938452602084019290925263ffffffff16908201526060016101f1565b61020d61037c36600461195e565b61106f565b6101e760045481565b600054610252906001600160a01b031681565b6101e760015481565b6102a47f000000000000000000000000000000000000000000000000000000000000000081565b6102cc6103db3660046119ce565b61110f565b6101e760055481565b61020d6103f7366004611a1e565b611155565b6101e761040a36600461195e565b6111dc565b6101e77f000000000000000000000000000000000000000000000000000000000000000081565b6102527f000000000000000000000000000000000000000000000000000000000000000081565b6102527f000000000000000000000000000000000000000000000000000000000000000081565b6102527f000000000000000000000000000000000000000000000000000000000000000081565b61020d6104b9366004611a62565b6112eb565b61020d6104cc366004611aa3565b6113e5565b600080620f42406105027f000000000000000000000000000000000000000000000000000000000000000082611ad6565b6105129063ffffffff1686611af3565b61051c9190611b0a565b9050821561052b57905061057d565b620f42406105597f000000000000000000000000000000000000000000000000000000000000000082611ad6565b6105699063ffffffff1686611af3565b6105739190611b0a565b91505061057d565b505b92915050565b600254156105c15760405162461bcd60e51b81526020600482015260066024820152651b5a5b9d195960d21b60448201526064015b60405180910390fd5b7f00000000000000000000000000000000000000000000000000000000000000006001600160a01b031663cd3293de6040518163ffffffff1660e01b8152600401602060405180830381865afa15801561061f573d6000803e3d6000fd5b505050506040513d601f19601f820116820180604052508101906106439190611b2c565b6001600160a01b0316635e1121cf3386866040518463ffffffff1660e01b815260040161067293929190611b49565b602060405180830381865afa15801561068f573d6000803e3d6000fd5b505050506040513d601f19601f820116820180604052508101906106b39190611ba5565b6106ef5760405162461bcd60e51b815260206004820152600d60248201526c1b9bdd081c5d585b1a599a5959609a1b60448201526064016105b8565b6000546040516370a0823160e01b81523060048201526001600160a01b037f000000000000000000000000000000000000000000000000000000000000000081169263a9059cbb9291169083906370a0823190602401602060405180830381865afa158015610762573d6000803e3d6000fd5b505050506040513d601f19601f820116820180604052508101906107869190611bc2565b6040516001600160e01b031960e085901b1681526001600160a01b03909216600483015260248201526044016020604051808303816000875af11580156107d1573d6000803e3d6000fd5b505050506040513d601f19601f820116820180604052508101906107f59190611ba5565b506000546040516370a0823160e01b81523060048201526001600160a01b037f000000000000000000000000000000000000000000000000000000000000000081169263a9059cbb9291169083906370a0823190602401602060405180830381865afa158015610869573d6000803e3d6000fd5b505050506040513d601f19601f8201168201806040525081019061088d9190611bc2565b6040516001600160e01b031960e085901b1681526001600160a01b03909216600483015260248201526044016020604051808303816000875af11580156108d8573d6000803e3d6000fd5b505050506040513d601f19601f820116820180604052508101906108fc9190611ba5565b507f000000000000000000000000000000000000000000000000000000000000000060045560405133907faca80c800ec0d2aa9d9d31b7f886a1dd3067d4676abc637626a18ffb9381653d906109559085908590611bdb565b60405180910390a250505050565b6000546001600160a01b031633148061098557506000546001600160a01b0316155b6109a15760405162461bcd60e51b81526004016105b890611c0a565b600354156109c15760405162461bcd60e51b81526004016105b890611c2d565b60405163a9059cbb60e01b81526001600160a01b038381166004830152602482018390527f0000000000000000000000000000000000000000000000000000000000000000169063a9059cbb906044016020604051808303816000875af1158015610a30573d6000803e3d6000fd5b505050506040513d601f19601f82011682018060405250810190610a549190611ba5565b506000610a5f6114aa565b9050610a6d8160015461153a565b610a7657600080fd5b80600003610aa7577f0000000000000000000000000000000000000000000000000000000000000000600455610ad4565b7f0000000000000000000000000000000000000000000000000000000000000000811015610ad457600080fd5b610adc611553565b505050565b6000546001600160a01b0316331480610b0357506000546001600160a01b0316155b610b1f5760405162461bcd60e51b81526004016105b890611c0a565b6040516323b872dd60e01b8152336004820152306024820152604481018290527f00000000000000000000000000000000000000000000000000000000000000006001600160a01b0316906323b872dd906064016020604051808303816000875af1158015610b92573d6000803e3d6000fd5b505050506040513d601f19601f82011682018060405250810190610bb69190611ba5565b50610bc0816115aa565b50565b6000336001600160a01b037f00000000000000000000000000000000000000000000000000000000000000001614610c0d5760405162461bcd60e51b81526004016105b890611c59565b7f00000000000000000000000000000000000000000000000000000000000000004210610c3c5750600061057d565b82600154610c4a9190611af3565b8210610c895782600154610c5e9190611af3565b60036000828254610c6f9190611c7a565b90915550610c8190506201518061168f565b50600161057d565b50600061057d565b6000546001600160a01b0316331480610cb357506000546001600160a01b0316155b610ccf5760405162461bcd60e51b81526004016105b890611c0a565b6040516370a0823160e01b8152306004820152610d60907f00000000000000000000000000000000000000000000000000000000000000006001600160a01b0316906370a0823190602401602060405180830381865afa158015610d37573d6000803e3d6000fd5b505050506040513d601f19601f82011682018060405250810190610d5b9190611bc2565b6115aa565b565b6000546001600160a01b0316331480610d8457506000546001600160a01b0316155b610da05760405162461bcd60e51b81526004016105b890611c0a565b60035415610dc05760405162461bcd60e51b81526004016105b890611c2d565b42600454108015610df157507f00000000000000000000000000000000000000000000000000000000000000004211155b610e285760405162461bcd60e51b815260206004820152600860248201526731b7b7b63237bbb760c11b60448201526064016105b8565b610e3a8282610e356114aa565b6116ad565b5050565b336001600160a01b037f00000000000000000000000000000000000000000000000000000000000000001614610e865760405162461bcd60e51b81526004016105b890611c59565b6000610e906114aa565b905060008111610e9f57600080fd5b610eaa601482611b0a565b821015610eb657600080fd5b81600154610ec49190611af3565b60036000828254610ed59190611c8d565b90915550505050565b60008080336001600160a01b037f00000000000000000000000000000000000000000000000000000000000000001614610f2a5760405162461bcd60e51b81526004016105b890611c59565b600084600154610f3a9190611af3565b90508060036000828254610f4e9190611c7a565b9091555050600254811115610f94575060025480610f6c8187611af3565b610f769190611b0a565b94508060025487610f879190611af3565b610f919190611b0a565b95505b80861115610fa457610fa4611ca0565b60405163a9059cbb60e01b81526001600160a01b038881166004830152602482018790527f0000000000000000000000000000000000000000000000000000000000000000169063a9059cbb906044016020604051808303816000875af1158015611013573d6000803e3d6000fd5b505050506040513d601f19601f820116820180604052508101906110379190611ba5565b50611041816117cd565b94969495507f0000000000000000000000000000000000000000000000000000000000000000949350505050565b6000546001600160a01b031633148061109157506000546001600160a01b0316155b6110ad5760405162461bcd60e51b81526004016105b890611c0a565b600354156110cd5760405162461bcd60e51b81526004016105b890611c2d565b6001548111156110e8576110e36203f48061168f565b611102565b6110f96110f36114aa565b8261153a565b61110257600080fd5b6001819055610bc0611553565b60006001600160a01b037f00000000000000000000000000000000000000000000000000000000000000001633036101cf5761114a846115aa565b506001949350505050565b336001600160a01b037f0000000000000000000000000000000000000000000000000000000000000000161461118a57600080fd5b7f00000000000000000000000000000000000000000000000000000000000000008210156111b757600080fd5b6111c0856113e5565b600184905560058390556111d58582846116ad565b5050505050565b60004260045410801561120f57507f00000000000000000000000000000000000000000000000000000000000000004211155b6112465760405162461bcd60e51b815260206004820152600860248201526731b7b7b63237bbb760c11b60448201526064016105b8565b336001600160a01b037f0000000000000000000000000000000000000000000000000000000000000000161461127b57600080fd5b6005548260025461128c9190611c8d565b111561129757600080fd5b60006002836002546005546112ac9190611c7a565b6112b69190611c7a565b6112c09190611b0a565b905080600560008282546112d49190611c7a565b909155506112e490508382611c8d565b9392505050565b6000546001600160a01b031633148061130d57506000546001600160a01b0316155b6113295760405162461bcd60e51b81526004016105b890611c0a565b7f00000000000000000000000000000000000000000000000000000000000000006001600160a01b0316836001600160a01b03160361136c57610adc8282610963565b60405163a9059cbb60e01b81526001600160a01b0383811660048301526024820183905284169063a9059cbb906044016020604051808303816000875af11580156113bb573d6000803e3d6000fd5b505050506040513d601f19601f820116820180604052508101906113df9190611ba5565b50505050565b6000546001600160a01b031633148061140757506000546001600160a01b0316155b6114235760405162461bcd60e51b81526004016105b890611c0a565b6001600160a01b03811661145f5760405162461bcd60e51b815260206004820152600360248201526203078360ec1b60448201526064016105b8565b600080546001600160a01b0319166001600160a01b0383169081178255604051909182917f8be0079c531659141344cd1fd0a4f28419497f9722a3daafe3b4186f6b6457e09190a350565b6040516370a0823160e01b81523060048201526000907f00000000000000000000000000000000000000000000000000000000000000006001600160a01b0316906370a0823190602401602060405180830381865afa158015611511573d6000803e3d6000fd5b505050506040513d601f19601f820116820180604052508101906115359190611bc2565b905090565b60025460009061154a8385611af3565b10159392505050565b7fcb2040b7eb3265a4335698c9ecbe81a5f9857e92aa32e07ce235f44c321a7e3561157c6114aa565b60015460025460055460408051948552602085019390935291830152606082015260800160405180910390a1565b600354156115ca5760405162461bcd60e51b81526004016105b890611c2d565b60405163a47d75ad60e01b81526004810182905263ffffffff7f00000000000000000000000000000000000000000000000000000000000000001660248201526000907f00000000000000000000000000000000000000000000000000000000000000006001600160a01b03169063a47d75ad906044016020604051808303816000875af1158015611660573d6000803e3d6000fd5b505050506040513d601f19601f820116820180604052508101906116849190611bc2565b9050610e3a816117cd565b600061169b8242611c8d565b9050600454811115610e3a5760045550565b600554826002546116be9190611c8d565b11156116c957600080fd5b6040516365e5314760e11b81526001600160a01b0384811660048301526024820184905263ffffffff7f0000000000000000000000000000000000000000000000000000000000000000811660448401527f00000000000000000000000000000000000000000000000000000000000000001660648301527f0000000000000000000000000000000000000000000000000000000000000000169063cbca628e90608401600060405180830381600087803b15801561178757600080fd5b505af115801561179b573d6000803e3d6000fd5b5050505081600260008282546117b19190611c8d565b925050819055506117c48160015461153a565b610ad457600080fd5b6002548111156117dc57600080fd5b80600260008282546117ee9190611c7a565b90915550610bc09050611553565b8015158114610bc057600080fd5b6000806040838503121561181d57600080fd5b82359150602083013561182f816117fc565b809150509250929050565b60008083601f84011261184c57600080fd5b50813567ffffffffffffffff81111561186457600080fd5b60208301915083602082850101111561187c57600080fd5b9250929050565b6000806000806040858703121561189957600080fd5b843567ffffffffffffffff808211156118b157600080fd5b818701915087601f8301126118c557600080fd5b8135818111156118d457600080fd5b8860208260051b85010111156118e957600080fd5b60209283019650945090860135908082111561190457600080fd5b506119118782880161183a565b95989497509550505050565b6001600160a01b0381168114610bc057600080fd5b6000806040838503121561194557600080fd5b82356119508161191d565b946020939093013593505050565b60006020828403121561197057600080fd5b5035919050565b6000806040838503121561198a57600080fd5b50508035926020909101359150565b6000806000606084860312156119ae57600080fd5b83356119b98161191d565b95602085013595506040909401359392505050565b600080600080606085870312156119e457600080fd5b84356119ef8161191d565b935060208501359250604085013567ffffffffffffffff811115611a1257600080fd5b6119118782880161183a565b600080600080600060a08688031215611a3657600080fd5b8535611a418161191d565b97602087013597506040870135966060810135965060800135945092505050565b600080600060608486031215611a7757600080fd5b8335611a828161191d565b92506020840135611a928161191d565b929592945050506040919091013590565b600060208284031215611ab557600080fd5b81356112e48161191d565b634e487b7160e01b600052601160045260246000fd5b63ffffffff82811682821603908082111561057b5761057b611ac0565b808202811582820484141761057d5761057d611ac0565b600082611b2757634e487b7160e01b600052601260045260246000fd5b500490565b600060208284031215611b3e57600080fd5b81516112e48161191d565b6001600160a01b03848116825260406020808401829052908301849052600091859160608501845b87811015611b98578435611b848161191d565b841682529382019390820190600101611b71565b5098975050505050505050565b600060208284031215611bb757600080fd5b81516112e4816117fc565b600060208284031215611bd457600080fd5b5051919050565b60208152816020820152818360408301376000818301604090810191909152601f909201601f19160101919050565b6020808252600990820152683737ba1037bbb732b960b91b604082015260600190565b6020808252601290820152716368616c6c656e6765732070656e64696e6760701b604082015260600190565b6020808252600790820152663737ba10343ab160c91b604082015260600190565b8181038181111561057d5761057d611ac0565b8082018082111561057d5761057d611ac0565b634e487b7160e01b600052600160045260246000fdfea26469706673582212200ae5d30dd081d8643abe9166190b2706bcd31c42730d9d3070ca3e582d3df56b64736f6c63430008110033",
    "sourcePath": "c:/Users/luziu/Documents/GitHub/FrankenCoin-ZCHF/contracts/Position.sol",
    "compiler": {
        "name": "solc",
        "version": "0.8.17+commit.8df45f5f"
    },
    "functionHashes": {
        "adjustPrice(uint256)": "72bf079e",
        "challengedAmount()": "24e657fe",
        "collateral()": "d8dfeb45",
        "cooldown()": "787a08a6",
        "deny(address[],string)": "1bbea34c",
        "expiration()": "4665096d",
        "factory()": "c45a0155",
        "getUsableMint(uint256,bool)": "08262940",
        "hub()": "365a86fc",
        "initializeClone(address,uint256,uint256,uint256,uint256)": "aee1a959",
        "limit()": "a4d66daf",
        "minimumCollateral()": "babe7c74",
        "mint(address,uint256)": "40c10f19",
        "minted()": "4f02c420",
        "mintingFeePPM()": "a1362033",
        "notifyChallengeStarted(uint256)": "42d02041",
        "notifyChallengeSucceeded(address,uint256,uint256)": "707271b1",
        "onTokenTransfer(address,uint256,bytes)": "a4c0ed36",
        "owner()": "8da5cb5b",
        "price()": "a035b1fe",
        "reduceLimitForClone(uint256)": "b0c2ec82",
        "repay()": "402d8883",
        "repay(uint256)": "371fd8e6",
        "reserveContribution()": "3a7c29fb",
        "transferOwnership(address)": "f2fde38b",
        "tryAvertChallenge(uint256,uint256)": "3e94e242",
        "withdraw(address,address,uint256)": "d9caed12",
        "withdrawCollateral(address,uint256)": "350c35e9",
        "zchf()": "c4d4803a"
    },
    "gasEstimates": {
        "creation": {
            "codeDepositCost": "1480800",
            "executionCost": "infinite",
            "totalCost": "infinite"
        },
        "external": {
            "adjustPrice(uint256)": "infinite",
            "challengedAmount()": "2375",
            "collateral()": "infinite",
            "cooldown()": "2352",
            "deny(address[],string)": "infinite",
            "expiration()": "infinite",
            "factory()": "infinite",
            "getUsableMint(uint256,bool)": "infinite",
            "hub()": "infinite",
            "initializeClone(address,uint256,uint256,uint256,uint256)": "infinite",
            "limit()": "2395",
            "minimumCollateral()": "infinite",
            "mint(address,uint256)": "infinite",
            "minted()": "2373",
            "mintingFeePPM()": "infinite",
            "notifyChallengeStarted(uint256)": "infinite",
            "notifyChallengeSucceeded(address,uint256,uint256)": "infinite",
            "onTokenTransfer(address,uint256,bytes)": "infinite",
            "owner()": "2427",
            "price()": "2329",
            "reduceLimitForClone(uint256)": "infinite",
            "repay()": "infinite",
            "repay(uint256)": "infinite",
            "reserveContribution()": "infinite",
            "transferOwnership(address)": "30513",
            "tryAvertChallenge(uint256,uint256)": "infinite",
            "withdraw(address,address,uint256)": "infinite",
            "withdrawCollateral(address,uint256)": "infinite",
            "zchf()": "infinite"
        },
        "internal": {
            "collateralBalance()": "infinite",
            "emitUpdate()": "infinite",
            "isWellCollateralized(uint256,uint256)": "2232",
            "mintInternal(address,uint256,uint256)": "infinite",
            "notifyRepaidInternal(uint256)": "infinite",
            "repayInternal(uint256)": "infinite",
            "restrictMinting(uint256)": "24321"
        }
    }
}