{
    "contractName": "ReservePool",
    "abi": [
        {
            "inputs": [],
            "stateMutability": "nonpayable",
            "type": "constructor"
        },
        {
            "anonymous": false,
            "inputs": [
                {
                    "indexed": true,
                    "internalType": "address",
                    "name": "owner",
                    "type": "address"
                },
                {
                    "indexed": true,
                    "internalType": "address",
                    "name": "spender",
                    "type": "address"
                },
                {
                    "indexed": false,
                    "internalType": "uint256",
                    "name": "value",
                    "type": "uint256"
                }
            ],
            "name": "Approval",
            "type": "event"
        },
        {
            "anonymous": false,
            "inputs": [
                {
                    "indexed": true,
                    "internalType": "address",
                    "name": "from",
                    "type": "address"
                },
                {
                    "indexed": true,
                    "internalType": "address",
                    "name": "to",
                    "type": "address"
                },
                {
                    "indexed": false,
                    "internalType": "uint256",
                    "name": "value",
                    "type": "uint256"
                }
            ],
            "name": "Transfer",
            "type": "event"
        },
        {
            "inputs": [
                {
                    "internalType": "address",
                    "name": "owner",
                    "type": "address"
                },
                {
                    "internalType": "address",
                    "name": "spender",
                    "type": "address"
                }
            ],
            "name": "allowance",
            "outputs": [
                {
                    "internalType": "uint256",
                    "name": "",
                    "type": "uint256"
                }
            ],
            "stateMutability": "view",
            "type": "function"
        },
        {
            "inputs": [
                {
                    "internalType": "address",
                    "name": "spender",
                    "type": "address"
                },
                {
                    "internalType": "uint256",
                    "name": "value",
                    "type": "uint256"
                }
            ],
            "name": "approve",
            "outputs": [
                {
                    "internalType": "bool",
                    "name": "",
                    "type": "bool"
                }
            ],
            "stateMutability": "nonpayable",
            "type": "function"
        },
        {
            "inputs": [
                {
                    "internalType": "address",
                    "name": "account",
                    "type": "address"
                }
            ],
            "name": "balanceOf",
            "outputs": [
                {
                    "internalType": "uint256",
                    "name": "",
                    "type": "uint256"
                }
            ],
            "stateMutability": "view",
            "type": "function"
        },
        {
            "inputs": [
                {
                    "internalType": "address",
                    "name": "delegate",
                    "type": "address"
                },
                {
                    "internalType": "address",
                    "name": "owner",
                    "type": "address"
                }
            ],
            "name": "canVoteFor",
            "outputs": [
                {
                    "internalType": "bool",
                    "name": "",
                    "type": "bool"
                }
            ],
            "stateMutability": "nonpayable",
            "type": "function"
        },
        {
            "inputs": [],
            "name": "decimals",
            "outputs": [
                {
                    "internalType": "uint8",
                    "name": "",
                    "type": "uint8"
                }
            ],
            "stateMutability": "view",
            "type": "function"
        },
        {
            "inputs": [
                {
                    "internalType": "address",
                    "name": "delegate",
                    "type": "address"
                }
            ],
            "name": "delegateVoteTo",
            "outputs": [],
            "stateMutability": "nonpayable",
            "type": "function"
        },
        {
            "inputs": [
                {
                    "internalType": "address",
                    "name": "frankencoin",
                    "type": "address"
                }
            ],
            "name": "initialize",
            "outputs": [],
            "stateMutability": "nonpayable",
            "type": "function"
        },
        {
            "inputs": [
                {
                    "internalType": "address",
                    "name": "sender",
                    "type": "address"
                },
                {
                    "internalType": "address[]",
                    "name": "helpers",
                    "type": "address[]"
                }
            ],
            "name": "isQualified",
            "outputs": [
                {
                    "internalType": "bool",
                    "name": "",
                    "type": "bool"
                }
            ],
            "stateMutability": "nonpayable",
            "type": "function"
        },
        {
            "inputs": [],
            "name": "name",
            "outputs": [
                {
                    "internalType": "string",
                    "name": "",
                    "type": "string"
                }
            ],
            "stateMutability": "pure",
            "type": "function"
        },
        {
            "inputs": [
                {
                    "internalType": "address",
                    "name": "from",
                    "type": "address"
                },
                {
                    "internalType": "uint256",
                    "name": "amount",
                    "type": "uint256"
                },
                {
                    "internalType": "bytes",
                    "name": "",
                    "type": "bytes"
                }
            ],
            "name": "onTokenTransfer",
            "outputs": [
                {
                    "internalType": "bool",
                    "name": "",
                    "type": "bool"
                }
            ],
            "stateMutability": "nonpayable",
            "type": "function"
        },
        {
            "inputs": [],
            "name": "price",
            "outputs": [
                {
                    "internalType": "uint256",
                    "name": "",
                    "type": "uint256"
                }
            ],
            "stateMutability": "view",
            "type": "function"
        },
        {
            "inputs": [
                {
                    "internalType": "uint256",
                    "name": "shares",
                    "type": "uint256"
                }
            ],
            "name": "redeem",
            "outputs": [
                {
                    "internalType": "uint256",
                    "name": "",
                    "type": "uint256"
                }
            ],
            "stateMutability": "nonpayable",
            "type": "function"
        },
        {
            "inputs": [
                {
                    "internalType": "address",
                    "name": "holder",
                    "type": "address"
                }
            ],
            "name": "redeemableBalance",
            "outputs": [
                {
                    "internalType": "uint256",
                    "name": "",
                    "type": "uint256"
                }
            ],
            "stateMutability": "view",
            "type": "function"
        },
        {
            "inputs": [],
            "name": "symbol",
            "outputs": [
                {
                    "internalType": "string",
                    "name": "",
                    "type": "string"
                }
            ],
            "stateMutability": "pure",
            "type": "function"
        },
        {
            "inputs": [],
            "name": "totalSupply",
            "outputs": [
                {
                    "internalType": "uint256",
                    "name": "",
                    "type": "uint256"
                }
            ],
            "stateMutability": "view",
            "type": "function"
        },
        {
            "inputs": [
                {
                    "internalType": "address",
                    "name": "recipient",
                    "type": "address"
                },
                {
                    "internalType": "uint256",
                    "name": "amount",
                    "type": "uint256"
                }
            ],
            "name": "transfer",
            "outputs": [
                {
                    "internalType": "bool",
                    "name": "",
                    "type": "bool"
                }
            ],
            "stateMutability": "nonpayable",
            "type": "function"
        },
        {
            "inputs": [
                {
                    "internalType": "address",
                    "name": "recipient",
                    "type": "address"
                },
                {
                    "internalType": "uint256",
                    "name": "amount",
                    "type": "uint256"
                },
                {
                    "internalType": "bytes",
                    "name": "data",
                    "type": "bytes"
                }
            ],
            "name": "transferAndCall",
            "outputs": [
                {
                    "internalType": "bool",
                    "name": "",
                    "type": "bool"
                }
            ],
            "stateMutability": "nonpayable",
            "type": "function"
        },
        {
            "inputs": [
                {
                    "internalType": "address",
                    "name": "sender",
                    "type": "address"
                },
                {
                    "internalType": "address",
                    "name": "recipient",
                    "type": "address"
                },
                {
                    "internalType": "uint256",
                    "name": "amount",
                    "type": "uint256"
                }
            ],
            "name": "transferFrom",
            "outputs": [
                {
                    "internalType": "bool",
                    "name": "",
                    "type": "bool"
                }
            ],
            "stateMutability": "nonpayable",
            "type": "function"
        },
        {
            "inputs": [],
            "name": "zchf",
            "outputs": [
                {
                    "internalType": "contract IFrankencoin",
                    "name": "",
                    "type": "address"
                }
            ],
            "stateMutability": "view",
            "type": "function"
        }
    ],
    "bytecode": "60a060405234801561001057600080fd5b50601260805260805161113161003160003960006101b701526111316000f3fe608060405234801561001057600080fd5b50600436106101215760003560e01c806395d89b41116100ad578063a9059cbb11610071578063a9059cbb146102d9578063c4d4803a146102ec578063c4d66de814610317578063db006a751461032a578063dd62ed3e1461033d57600080fd5b806395d89b411461024d5780639823004f1461026c578063a035b1fe146102ab578063a0641288146102b3578063a4c0ed36146102c657600080fd5b8063313ce567116100f4578063313ce567146101b25780633c835ab0146101eb5780634000aea0146101fe5780635e1121cf1461021157806370a082311461022457600080fd5b806306fdde0314610126578063095ea7b31461016a57806318160ddd1461018d57806323b872dd1461019f575b600080fd5b6040805180820190915260168152754672616e6b656e636f696e20506f6f6c20536861726560501b60208201525b6040516101619190610d71565b60405180910390f35b61017d610178366004610de2565b610376565b6040519015158152602001610161565b6002545b604051908152602001610161565b61017d6101ad366004610e0c565b61038d565b6101d97f000000000000000000000000000000000000000000000000000000000000000081565b60405160ff9091168152602001610161565b61017d6101f9366004610e48565b6103e9565b61017d61020c366004610e7b565b61044f565b61017d61021f366004610f02565b6104e5565b610191610232366004610f88565b6001600160a01b031660009081526020819052604090205490565b60408051808201909152600381526246505360e81b6020820152610154565b6102a961027a366004610f88565b33600090815260036020526040902080546001600160a01b0319166001600160a01b0392909216919091179055565b005b61019161069c565b6101916102c1366004610f88565b610733565b61017d6102d4366004610e7b565b6107d8565b61017d6102e7366004610de2565b6108bf565b6004546102ff906001600160a01b031681565b6040516001600160a01b039091168152602001610161565b6102a9610325366004610f88565b6108cc565b610191610338366004610faa565b610904565b61019161034b366004610e48565b6001600160a01b03918216600090815260016020908152604080832093909416825291909152205490565b6000610383338484610b3c565b5060015b92915050565b600061039a848484610b9e565b6001600160a01b0384166000908152600160209081526040808320338452909152902054600160ff1b8110156103de576103de85336103d98685610fd9565b610b3c565b506001949350505050565b6000826001600160a01b0316826001600160a01b03160361040c57506001610387565b6001600160a01b03821661042257506000610387565b6001600160a01b03808316600090815260036020526040902054610448918591166103e9565b9050610387565b60008061045c86866108bf565b905080156104dc57604051635260769b60e11b81526001600160a01b0387169063a4c0ed3690610496903390899089908990600401610ff0565b6020604051808303816000875af11580156104b5573d6000803e3d6000fd5b505050506040513d601f19601f820116820180604052508101906104d99190611038565b90505b95945050505050565b6001600160a01b03831660009081526020819052604081205460005b8381101561060d57600085858381811061051d5761051d61105a565b90506020020160208101906105329190610f88565b9050866001600160a01b0316816001600160a01b03160361055257600080fd5b61055c87826103e9565b61056557600080fd5b6000610572836001611070565b90505b858110156105d35786868281811061058f5761058f61105a565b90506020020160208101906105a49190610f88565b6001600160a01b0316826001600160a01b0316036105c157600080fd5b806105cb81611088565b915050610575565b506001600160a01b0381166000908152602081905260409020546105f79084611070565b925050808061060590611088565b915050610501565b5060048054604080516318160ddd60e01b815290516001600160a01b03909216926318160ddd9282820192602092908290030181865afa158015610655573d6000803e3d6000fd5b505050506040513d601f19601f8201168201806040525081019061067991906110a1565b6106859061012c6110ba565b610691826127106110ba565b101595945050505050565b600480546040516370a0823160e01b8152309281019290925260009182916001600160a01b0316906370a0823190602401602060405180830381865afa1580156106ea573d6000803e3d6000fd5b505050506040513d601f19601f8201168201806040525081019061070e91906110a1565b90508060000361072057600091505090565b60025461072d90826110d9565b91505090565b600061073e60025490565b600480546040516370a0823160e01b815230928101929092526001600160a01b0316906370a0823190602401602060405180830381865afa158015610787573d6000803e3d6000fd5b505050506040513d601f19601f820116820180604052508101906107ab91906110a1565b6001600160a01b0384166000908152602081905260409020546107ce91906110ba565b61038791906110d9565b6004546000906001600160a01b031633146107f257600080fd5b60006107fd60025490565b905080600003610816576108118686610c52565b6108b3565b600480546040516370a0823160e01b815230928101929092526108b391889188916001600160a01b03909116906370a0823190602401602060405180830381865afa158015610869573d6000803e3d6000fd5b505050506040513d601f19601f8201168201806040525081019061088d91906110a1565b6108979190610fd9565b6002546108a490896110ba565b6108ae91906110d9565b610c52565b50600195945050505050565b6000610383338484610b9e565b6004546001600160a01b0316156108e257600080fd5b600480546001600160a01b0319166001600160a01b0392909216919091179055565b60008061091060025490565b600480546040516370a0823160e01b815230928101929092526001600160a01b0316906370a0823190602401602060405180830381865afa158015610959573d6000803e3d6000fd5b505050506040513d601f19601f8201168201806040525081019061097d91906110a1565b61098790856110ba565b61099191906110d9565b905061099d3384610cef565b6004805460405163a9059cbb60e01b81523392810192909252602482018390526001600160a01b03169063a9059cbb906044016020604051808303816000875af11580156109ef573d6000803e3d6000fd5b505050506040513d601f19601f82011682018060405250810190610a139190611038565b506004805460408051632a52d57560e11b815290516001600160a01b03909216926354a5aaea92828201926020929082900301816000875af1158015610a5d573d6000803e3d6000fd5b505050506040513d601f19601f82011682018060405250810190610a819190611038565b80610af65750600480546040516355138f0d60e11b815233928101929092526001600160a01b03169063aa271e1a906024016020604051808303816000875af1158015610ad2573d6000803e3d6000fd5b505050506040513d601f19601f82011682018060405250810190610af69190611038565b6103875760405162461bcd60e51b81526020600482015260136024820152721c995cd95c9d99481c995c5d5a5c995b595b9d606a1b604482015260640160405180910390fd5b6001600160a01b0383811660008181526001602090815260408083209487168084529482529182902085905590518481527f8c5be1e5ebec7d5bd14f71427d1e84f3dd0314c0f7b2291e5b200ac8c7c3b92591015b60405180910390a3505050565b6001600160a01b038216610bb157600080fd5b6001600160a01b03831660009081526020819052604081208054839290610bd9908490610fd9565b90915550506001600160a01b03821660009081526020819052604081208054839290610c06908490611070565b92505081905550816001600160a01b0316836001600160a01b03167fddf252ad1be2c89b69c2b068fc378daa952ba7f163c4a11628f55a4df523b3ef83604051610b9191815260200190565b6001600160a01b038216610c6557600080fd5b8060026000828254610c779190611070565b90915550506001600160a01b03821660009081526020819052604081208054839290610ca4908490611070565b90915550506040518181526001600160a01b038316906000907fddf252ad1be2c89b69c2b068fc378daa952ba7f163c4a11628f55a4df523b3ef906020015b60405180910390a35050565b8060026000828254610d019190610fd9565b90915550506001600160a01b03821660009081526020819052604081208054839290610d2e908490610fd9565b90915550506040518181526000906001600160a01b038416907fddf252ad1be2c89b69c2b068fc378daa952ba7f163c4a11628f55a4df523b3ef90602001610ce3565b600060208083528351808285015260005b81811015610d9e57858101830151858201604001528201610d82565b81811115610db0576000604083870101525b50601f01601f1916929092016040019392505050565b80356001600160a01b0381168114610ddd57600080fd5b919050565b60008060408385031215610df557600080fd5b610dfe83610dc6565b946020939093013593505050565b600080600060608486031215610e2157600080fd5b610e2a84610dc6565b9250610e3860208501610dc6565b9150604084013590509250925092565b60008060408385031215610e5b57600080fd5b610e6483610dc6565b9150610e7260208401610dc6565b90509250929050565b60008060008060608587031215610e9157600080fd5b610e9a85610dc6565b935060208501359250604085013567ffffffffffffffff80821115610ebe57600080fd5b818701915087601f830112610ed257600080fd5b813581811115610ee157600080fd5b886020828501011115610ef357600080fd5b95989497505060200194505050565b600080600060408486031215610f1757600080fd5b610f2084610dc6565b9250602084013567ffffffffffffffff80821115610f3d57600080fd5b818601915086601f830112610f5157600080fd5b813581811115610f6057600080fd5b8760208260051b8501011115610f7557600080fd5b6020830194508093505050509250925092565b600060208284031215610f9a57600080fd5b610fa382610dc6565b9392505050565b600060208284031215610fbc57600080fd5b5035919050565b634e487b7160e01b600052601160045260246000fd5b600082821015610feb57610feb610fc3565b500390565b6001600160a01b0385168152602081018490526060604082018190528101829052818360808301376000818301608090810191909152601f909201601f191601019392505050565b60006020828403121561104a57600080fd5b81518015158114610fa357600080fd5b634e487b7160e01b600052603260045260246000fd5b6000821982111561108357611083610fc3565b500190565b60006001820161109a5761109a610fc3565b5060010190565b6000602082840312156110b357600080fd5b5051919050565b60008160001904831182151516156110d4576110d4610fc3565b500290565b6000826110f657634e487b7160e01b600052601260045260246000fd5b50049056fea2646970667358221220be0efa9c711c57fb697eb94178d6063820bfe880e3199e9cd3bd31737c5f55d364736f6c634300080e0033",
    "sourcePath": "c:/Users/luziu/Documents/GitHub/FrankenCoin/contracts/ReservePool.sol",
    "compiler": {
        "name": "solc",
        "version": "0.8.14+commit.80d49f37"
    },
    "functionHashes": {
        "allowance(address,address)": "dd62ed3e",
        "approve(address,uint256)": "095ea7b3",
        "balanceOf(address)": "70a08231",
        "canVoteFor(address,address)": "3c835ab0",
        "decimals()": "313ce567",
        "delegateVoteTo(address)": "9823004f",
        "initialize(address)": "c4d66de8",
        "isQualified(address,address[])": "5e1121cf",
        "name()": "06fdde03",
        "onTokenTransfer(address,uint256,bytes)": "a4c0ed36",
        "price()": "a035b1fe",
        "redeem(uint256)": "db006a75",
        "redeemableBalance(address)": "a0641288",
        "symbol()": "95d89b41",
        "totalSupply()": "18160ddd",
        "transfer(address,uint256)": "a9059cbb",
        "transferAndCall(address,uint256,bytes)": "4000aea0",
        "transferFrom(address,address,uint256)": "23b872dd",
        "zchf()": "c4d4803a"
    },
    "gasEstimates": {
        "creation": {
            "codeDepositCost": "880200",
            "executionCost": "infinite",
            "totalCost": "infinite"
        },
        "external": {
            "allowance(address,address)": "infinite",
            "approve(address,uint256)": "24574",
            "balanceOf(address)": "2651",
            "canVoteFor(address,address)": "infinite",
            "decimals()": "infinite",
            "delegateVoteTo(address)": "24672",
            "initialize(address)": "26775",
            "isQualified(address,address[])": "infinite",
            "name()": "infinite",
            "onTokenTransfer(address,uint256,bytes)": "infinite",
            "price()": "infinite",
            "redeem(uint256)": "infinite",
            "redeemableBalance(address)": "infinite",
            "symbol()": "infinite",
            "totalSupply()": "2349",
            "transfer(address,uint256)": "51136",
            "transferAndCall(address,uint256,bytes)": "infinite",
            "transferFrom(address,address,uint256)": "infinite",
            "zchf()": "2381"
        }
    }
}