{
    "contractName": "ReservePool",
    "abi": [
        {
            "inputs": [],
            "stateMutability": "nonpayable",
            "type": "constructor"
        },
        {
            "anonymous": false,
            "inputs": [
                {
                    "indexed": true,
                    "internalType": "address",
                    "name": "owner",
                    "type": "address"
                },
                {
                    "indexed": true,
                    "internalType": "address",
                    "name": "spender",
                    "type": "address"
                },
                {
                    "indexed": false,
                    "internalType": "uint256",
                    "name": "value",
                    "type": "uint256"
                }
            ],
            "name": "Approval",
            "type": "event"
        },
        {
            "anonymous": false,
            "inputs": [
                {
                    "indexed": true,
                    "internalType": "address",
                    "name": "from",
                    "type": "address"
                },
                {
                    "indexed": true,
                    "internalType": "address",
                    "name": "to",
                    "type": "address"
                },
                {
                    "indexed": false,
                    "internalType": "uint256",
                    "name": "value",
                    "type": "uint256"
                }
            ],
            "name": "Transfer",
            "type": "event"
        },
        {
            "inputs": [
                {
                    "internalType": "address",
                    "name": "owner",
                    "type": "address"
                },
                {
                    "internalType": "address",
                    "name": "spender",
                    "type": "address"
                }
            ],
            "name": "allowance",
            "outputs": [
                {
                    "internalType": "uint256",
                    "name": "",
                    "type": "uint256"
                }
            ],
            "stateMutability": "view",
            "type": "function"
        },
        {
            "inputs": [
                {
                    "internalType": "address",
                    "name": "spender",
                    "type": "address"
                },
                {
                    "internalType": "uint256",
                    "name": "value",
                    "type": "uint256"
                }
            ],
            "name": "approve",
            "outputs": [
                {
                    "internalType": "bool",
                    "name": "",
                    "type": "bool"
                }
            ],
            "stateMutability": "nonpayable",
            "type": "function"
        },
        {
            "inputs": [
                {
                    "internalType": "address",
                    "name": "account",
                    "type": "address"
                }
            ],
            "name": "balanceOf",
            "outputs": [
                {
                    "internalType": "uint256",
                    "name": "",
                    "type": "uint256"
                }
            ],
            "stateMutability": "view",
            "type": "function"
        },
        {
            "inputs": [
                {
                    "internalType": "address",
                    "name": "delegate",
                    "type": "address"
                },
                {
                    "internalType": "address",
                    "name": "owner",
                    "type": "address"
                }
            ],
            "name": "canVoteFor",
            "outputs": [
                {
                    "internalType": "bool",
                    "name": "",
                    "type": "bool"
                }
            ],
            "stateMutability": "nonpayable",
            "type": "function"
        },
        {
            "inputs": [],
            "name": "decimals",
            "outputs": [
                {
                    "internalType": "uint8",
                    "name": "",
                    "type": "uint8"
                }
            ],
            "stateMutability": "view",
            "type": "function"
        },
        {
            "inputs": [
                {
                    "internalType": "address",
                    "name": "delegate",
                    "type": "address"
                }
            ],
            "name": "delegateVoteTo",
            "outputs": [],
            "stateMutability": "nonpayable",
            "type": "function"
        },
        {
            "inputs": [
                {
                    "internalType": "address",
                    "name": "frankencoin",
                    "type": "address"
                }
            ],
            "name": "initialize",
            "outputs": [],
            "stateMutability": "nonpayable",
            "type": "function"
        },
        {
            "inputs": [
                {
                    "internalType": "address",
                    "name": "sender",
                    "type": "address"
                },
                {
                    "internalType": "address[]",
                    "name": "helpers",
                    "type": "address[]"
                }
            ],
            "name": "isQualified",
            "outputs": [
                {
                    "internalType": "bool",
                    "name": "",
                    "type": "bool"
                }
            ],
            "stateMutability": "nonpayable",
            "type": "function"
        },
        {
            "inputs": [],
            "name": "name",
            "outputs": [
                {
                    "internalType": "string",
                    "name": "",
                    "type": "string"
                }
            ],
            "stateMutability": "pure",
            "type": "function"
        },
        {
            "inputs": [
                {
                    "internalType": "address",
                    "name": "from",
                    "type": "address"
                },
                {
                    "internalType": "uint256",
                    "name": "amount",
                    "type": "uint256"
                },
                {
                    "internalType": "bytes",
                    "name": "",
                    "type": "bytes"
                }
            ],
            "name": "onTokenTransfer",
            "outputs": [
                {
                    "internalType": "bool",
                    "name": "",
                    "type": "bool"
                }
            ],
            "stateMutability": "nonpayable",
            "type": "function"
        },
        {
            "inputs": [],
            "name": "price",
            "outputs": [
                {
                    "internalType": "uint256",
                    "name": "",
                    "type": "uint256"
                }
            ],
            "stateMutability": "view",
            "type": "function"
        },
        {
            "inputs": [
                {
                    "internalType": "uint256",
                    "name": "amount",
                    "type": "uint256"
                }
            ],
            "name": "redeem",
            "outputs": [],
            "stateMutability": "nonpayable",
            "type": "function"
        },
        {
            "inputs": [],
            "name": "symbol",
            "outputs": [
                {
                    "internalType": "string",
                    "name": "",
                    "type": "string"
                }
            ],
            "stateMutability": "pure",
            "type": "function"
        },
        {
            "inputs": [],
            "name": "totalSupply",
            "outputs": [
                {
                    "internalType": "uint256",
                    "name": "",
                    "type": "uint256"
                }
            ],
            "stateMutability": "view",
            "type": "function"
        },
        {
            "inputs": [
                {
                    "internalType": "address",
                    "name": "recipient",
                    "type": "address"
                },
                {
                    "internalType": "uint256",
                    "name": "amount",
                    "type": "uint256"
                }
            ],
            "name": "transfer",
            "outputs": [
                {
                    "internalType": "bool",
                    "name": "",
                    "type": "bool"
                }
            ],
            "stateMutability": "nonpayable",
            "type": "function"
        },
        {
            "inputs": [
                {
                    "internalType": "address",
                    "name": "recipient",
                    "type": "address"
                },
                {
                    "internalType": "uint256",
                    "name": "amount",
                    "type": "uint256"
                },
                {
                    "internalType": "bytes",
                    "name": "data",
                    "type": "bytes"
                }
            ],
            "name": "transferAndCall",
            "outputs": [
                {
                    "internalType": "bool",
                    "name": "",
                    "type": "bool"
                }
            ],
            "stateMutability": "nonpayable",
            "type": "function"
        },
        {
            "inputs": [
                {
                    "internalType": "address",
                    "name": "sender",
                    "type": "address"
                },
                {
                    "internalType": "address",
                    "name": "recipient",
                    "type": "address"
                },
                {
                    "internalType": "uint256",
                    "name": "amount",
                    "type": "uint256"
                }
            ],
            "name": "transferFrom",
            "outputs": [
                {
                    "internalType": "bool",
                    "name": "",
                    "type": "bool"
                }
            ],
            "stateMutability": "nonpayable",
            "type": "function"
        },
        {
            "inputs": [],
            "name": "zchf",
            "outputs": [
                {
                    "internalType": "contract IFrankencoin",
                    "name": "",
                    "type": "address"
                }
            ],
            "stateMutability": "view",
            "type": "function"
        }
    ],
    "bytecode": "60a060405234801561001057600080fd5b50601260805260805161107161003160003960006101ac01526110716000f3fe608060405234801561001057600080fd5b50600436106101165760003560e01c806395d89b41116100a2578063a9059cbb11610071578063a9059cbb146102bb578063c4d4803a146102ce578063c4d66de8146102f9578063db006a751461030c578063dd62ed3e1461031f57600080fd5b806395d89b41146102425780639823004f14610261578063a035b1fe146102a0578063a4c0ed36146102a857600080fd5b8063313ce567116100e9578063313ce567146101a75780633c835ab0146101e05780634000aea0146101f35780635e1121cf1461020657806370a082311461021957600080fd5b806306fdde031461011b578063095ea7b31461015f57806318160ddd1461018257806323b872dd14610194575b600080fd5b6040805180820190915260168152754672616e6b656e636f696e20506f6f6c20536861726560501b60208201525b6040516101569190610cb1565b60405180910390f35b61017261016d366004610d22565b610358565b6040519015158152602001610156565b6002545b604051908152602001610156565b6101726101a2366004610d4c565b61036f565b6101ce7f000000000000000000000000000000000000000000000000000000000000000081565b60405160ff9091168152602001610156565b6101726101ee366004610d88565b6103cb565b610172610201366004610dbb565b610431565b610172610214366004610e42565b6104c7565b610186610227366004610ec8565b6001600160a01b031660009081526020819052604090205490565b60408051808201909152600381526246505360e81b6020820152610149565b61029e61026f366004610ec8565b33600090815260036020526040902080546001600160a01b0319166001600160a01b0392909216919091179055565b005b61018661067e565b6101726102b6366004610dbb565b610715565b6101726102c9366004610d22565b6107fc565b6004546102e1906001600160a01b031681565b6040516001600160a01b039091168152602001610156565b61029e610307366004610ec8565b610809565b61029e61031a366004610eea565b610841565b61018661032d366004610d88565b6001600160a01b03918216600090815260016020908152604080832093909416825291909152205490565b6000610365338484610a7c565b5060015b92915050565b600061037c848484610ade565b6001600160a01b0384166000908152600160209081526040808320338452909152902054600160ff1b8110156103c0576103c085336103bb8685610f19565b610a7c565b506001949350505050565b6000826001600160a01b0316826001600160a01b0316036103ee57506001610369565b6001600160a01b03821661040457506000610369565b6001600160a01b0380831660009081526003602052604090205461042a918591166103cb565b9050610369565b60008061043e86866107fc565b905080156104be57604051635260769b60e11b81526001600160a01b0387169063a4c0ed3690610478903390899089908990600401610f30565b6020604051808303816000875af1158015610497573d6000803e3d6000fd5b505050506040513d601f19601f820116820180604052508101906104bb9190610f78565b90505b95945050505050565b6001600160a01b03831660009081526020819052604081205460005b838110156105ef5760008585838181106104ff576104ff610f9a565b90506020020160208101906105149190610ec8565b9050866001600160a01b0316816001600160a01b03160361053457600080fd5b61053e87826103cb565b61054757600080fd5b6000610554836001610fb0565b90505b858110156105b55786868281811061057157610571610f9a565b90506020020160208101906105869190610ec8565b6001600160a01b0316826001600160a01b0316036105a357600080fd5b806105ad81610fc8565b915050610557565b506001600160a01b0381166000908152602081905260409020546105d99084610fb0565b92505080806105e790610fc8565b9150506104e3565b5060048054604080516318160ddd60e01b815290516001600160a01b03909216926318160ddd9282820192602092908290030181865afa158015610637573d6000803e3d6000fd5b505050506040513d601f19601f8201168201806040525081019061065b9190610fe1565b6106679061012c610ffa565b61067382612710610ffa565b101595945050505050565b600480546040516370a0823160e01b8152309281019290925260009182916001600160a01b0316906370a0823190602401602060405180830381865afa1580156106cc573d6000803e3d6000fd5b505050506040513d601f19601f820116820180604052508101906106f09190610fe1565b90508060000361070257600091505090565b60025461070f9082611019565b91505090565b6004546000906001600160a01b0316331461072f57600080fd5b600061073a60025490565b9050806000036107535761074e8686610b92565b6107f0565b600480546040516370a0823160e01b815230928101929092526107f091889188916001600160a01b03909116906370a0823190602401602060405180830381865afa1580156107a6573d6000803e3d6000fd5b505050506040513d601f19601f820116820180604052508101906107ca9190610fe1565b6107d49190610f19565b6002546107e19089610ffa565b6107eb9190611019565b610b92565b50600195945050505050565b6000610365338484610ade565b6004546001600160a01b03161561081f57600080fd5b600480546001600160a01b0319166001600160a01b0392909216919091179055565b600061084c60025490565b600480546040516370a0823160e01b815230928101929092526001600160a01b0316906370a0823190602401602060405180830381865afa158015610895573d6000803e3d6000fd5b505050506040513d601f19601f820116820180604052508101906108b99190610fe1565b6108c39084610ffa565b6108cd9190611019565b90506108d93383610c2f565b6004805460405163a9059cbb60e01b81523392810192909252602482018390526001600160a01b03169063a9059cbb906044016020604051808303816000875af115801561092b573d6000803e3d6000fd5b505050506040513d601f19601f8201168201806040525081019061094f9190610f78565b506004805460408051632a52d57560e11b815290516001600160a01b03909216926354a5aaea92828201926020929082900301816000875af1158015610999573d6000803e3d6000fd5b505050506040513d601f19601f820116820180604052508101906109bd9190610f78565b80610a325750600480546040516355138f0d60e11b815233928101929092526001600160a01b03169063aa271e1a906024016020604051808303816000875af1158015610a0e573d6000803e3d6000fd5b505050506040513d601f19601f82011682018060405250810190610a329190610f78565b610a785760405162461bcd60e51b81526020600482015260136024820152721c995cd95c9d99481c995c5d5a5c995b595b9d606a1b604482015260640160405180910390fd5b5050565b6001600160a01b0383811660008181526001602090815260408083209487168084529482529182902085905590518481527f8c5be1e5ebec7d5bd14f71427d1e84f3dd0314c0f7b2291e5b200ac8c7c3b92591015b60405180910390a3505050565b6001600160a01b038216610af157600080fd5b6001600160a01b03831660009081526020819052604081208054839290610b19908490610f19565b90915550506001600160a01b03821660009081526020819052604081208054839290610b46908490610fb0565b92505081905550816001600160a01b0316836001600160a01b03167fddf252ad1be2c89b69c2b068fc378daa952ba7f163c4a11628f55a4df523b3ef83604051610ad191815260200190565b6001600160a01b038216610ba557600080fd5b8060026000828254610bb79190610fb0565b90915550506001600160a01b03821660009081526020819052604081208054839290610be4908490610fb0565b90915550506040518181526001600160a01b038316906000907fddf252ad1be2c89b69c2b068fc378daa952ba7f163c4a11628f55a4df523b3ef906020015b60405180910390a35050565b8060026000828254610c419190610f19565b90915550506001600160a01b03821660009081526020819052604081208054839290610c6e908490610f19565b90915550506040518181526000906001600160a01b038416907fddf252ad1be2c89b69c2b068fc378daa952ba7f163c4a11628f55a4df523b3ef90602001610c23565b600060208083528351808285015260005b81811015610cde57858101830151858201604001528201610cc2565b81811115610cf0576000604083870101525b50601f01601f1916929092016040019392505050565b80356001600160a01b0381168114610d1d57600080fd5b919050565b60008060408385031215610d3557600080fd5b610d3e83610d06565b946020939093013593505050565b600080600060608486031215610d6157600080fd5b610d6a84610d06565b9250610d7860208501610d06565b9150604084013590509250925092565b60008060408385031215610d9b57600080fd5b610da483610d06565b9150610db260208401610d06565b90509250929050565b60008060008060608587031215610dd157600080fd5b610dda85610d06565b935060208501359250604085013567ffffffffffffffff80821115610dfe57600080fd5b818701915087601f830112610e1257600080fd5b813581811115610e2157600080fd5b886020828501011115610e3357600080fd5b95989497505060200194505050565b600080600060408486031215610e5757600080fd5b610e6084610d06565b9250602084013567ffffffffffffffff80821115610e7d57600080fd5b818601915086601f830112610e9157600080fd5b813581811115610ea057600080fd5b8760208260051b8501011115610eb557600080fd5b6020830194508093505050509250925092565b600060208284031215610eda57600080fd5b610ee382610d06565b9392505050565b600060208284031215610efc57600080fd5b5035919050565b634e487b7160e01b600052601160045260246000fd5b600082821015610f2b57610f2b610f03565b500390565b6001600160a01b0385168152602081018490526060604082018190528101829052818360808301376000818301608090810191909152601f909201601f191601019392505050565b600060208284031215610f8a57600080fd5b81518015158114610ee357600080fd5b634e487b7160e01b600052603260045260246000fd5b60008219821115610fc357610fc3610f03565b500190565b600060018201610fda57610fda610f03565b5060010190565b600060208284031215610ff357600080fd5b5051919050565b600081600019048311821515161561101457611014610f03565b500290565b60008261103657634e487b7160e01b600052601260045260246000fd5b50049056fea264697066735822122078187a58f0b90cbc142019fca21c221771c2630b26ba55fe5127efa3ae861ca164736f6c634300080e0033",
    "sourcePath": "c:/Users/luziu/Documents/GitHub/FrankenCoin/contracts/ReservePool.sol",
    "compiler": {
        "name": "solc",
        "version": "0.8.14+commit.80d49f37"
    },
    "functionHashes": {
        "allowance(address,address)": "dd62ed3e",
        "approve(address,uint256)": "095ea7b3",
        "balanceOf(address)": "70a08231",
        "canVoteFor(address,address)": "3c835ab0",
        "decimals()": "313ce567",
        "delegateVoteTo(address)": "9823004f",
        "initialize(address)": "c4d66de8",
        "isQualified(address,address[])": "5e1121cf",
        "name()": "06fdde03",
        "onTokenTransfer(address,uint256,bytes)": "a4c0ed36",
        "price()": "a035b1fe",
        "redeem(uint256)": "db006a75",
        "symbol()": "95d89b41",
        "totalSupply()": "18160ddd",
        "transfer(address,uint256)": "a9059cbb",
        "transferAndCall(address,uint256,bytes)": "4000aea0",
        "transferFrom(address,address,uint256)": "23b872dd",
        "zchf()": "c4d4803a"
    },
    "gasEstimates": {
        "creation": {
            "codeDepositCost": "841800",
            "executionCost": "infinite",
            "totalCost": "infinite"
        },
        "external": {
            "allowance(address,address)": "infinite",
            "approve(address,uint256)": "24574",
            "balanceOf(address)": "2651",
            "canVoteFor(address,address)": "infinite",
            "decimals()": "infinite",
            "delegateVoteTo(address)": "24672",
            "initialize(address)": "26775",
            "isQualified(address,address[])": "infinite",
            "name()": "infinite",
            "onTokenTransfer(address,uint256,bytes)": "infinite",
            "price()": "infinite",
            "redeem(uint256)": "infinite",
            "symbol()": "infinite",
            "totalSupply()": "2349",
            "transfer(address,uint256)": "51136",
            "transferAndCall(address,uint256,bytes)": "infinite",
            "transferFrom(address,address,uint256)": "infinite",
            "zchf()": "2381"
        }
    }
}