{
    "contractName": "ReservePool",
    "abi": [
        {
            "inputs": [],
            "stateMutability": "nonpayable",
            "type": "constructor"
        },
        {
            "anonymous": false,
            "inputs": [
                {
                    "indexed": true,
                    "internalType": "address",
                    "name": "owner",
                    "type": "address"
                },
                {
                    "indexed": true,
                    "internalType": "address",
                    "name": "spender",
                    "type": "address"
                },
                {
                    "indexed": false,
                    "internalType": "uint256",
                    "name": "value",
                    "type": "uint256"
                }
            ],
            "name": "Approval",
            "type": "event"
        },
        {
            "anonymous": false,
            "inputs": [
                {
                    "indexed": true,
                    "internalType": "address",
                    "name": "from",
                    "type": "address"
                },
                {
                    "indexed": true,
                    "internalType": "address",
                    "name": "to",
                    "type": "address"
                },
                {
                    "indexed": false,
                    "internalType": "uint256",
                    "name": "value",
                    "type": "uint256"
                }
            ],
            "name": "Transfer",
            "type": "event"
        },
        {
            "inputs": [
                {
                    "internalType": "address",
                    "name": "owner",
                    "type": "address"
                },
                {
                    "internalType": "address",
                    "name": "spender",
                    "type": "address"
                }
            ],
            "name": "allowance",
            "outputs": [
                {
                    "internalType": "uint256",
                    "name": "",
                    "type": "uint256"
                }
            ],
            "stateMutability": "view",
            "type": "function"
        },
        {
            "inputs": [
                {
                    "internalType": "address",
                    "name": "spender",
                    "type": "address"
                },
                {
                    "internalType": "uint256",
                    "name": "value",
                    "type": "uint256"
                }
            ],
            "name": "approve",
            "outputs": [
                {
                    "internalType": "bool",
                    "name": "",
                    "type": "bool"
                }
            ],
            "stateMutability": "nonpayable",
            "type": "function"
        },
        {
            "inputs": [
                {
                    "internalType": "address",
                    "name": "account",
                    "type": "address"
                }
            ],
            "name": "balanceOf",
            "outputs": [
                {
                    "internalType": "uint256",
                    "name": "",
                    "type": "uint256"
                }
            ],
            "stateMutability": "view",
            "type": "function"
        },
        {
            "inputs": [
                {
                    "internalType": "address",
                    "name": "delegate",
                    "type": "address"
                },
                {
                    "internalType": "address",
                    "name": "owner",
                    "type": "address"
                }
            ],
            "name": "canVoteFor",
            "outputs": [
                {
                    "internalType": "bool",
                    "name": "",
                    "type": "bool"
                }
            ],
            "stateMutability": "view",
            "type": "function"
        },
        {
            "inputs": [],
            "name": "decimals",
            "outputs": [
                {
                    "internalType": "uint8",
                    "name": "",
                    "type": "uint8"
                }
            ],
            "stateMutability": "view",
            "type": "function"
        },
        {
            "inputs": [
                {
                    "internalType": "address",
                    "name": "delegate",
                    "type": "address"
                }
            ],
            "name": "delegateVoteTo",
            "outputs": [],
            "stateMutability": "nonpayable",
            "type": "function"
        },
        {
            "inputs": [
                {
                    "internalType": "address",
                    "name": "frankencoin",
                    "type": "address"
                }
            ],
            "name": "initialize",
            "outputs": [],
            "stateMutability": "nonpayable",
            "type": "function"
        },
        {
            "inputs": [
                {
                    "internalType": "address",
                    "name": "sender",
                    "type": "address"
                },
                {
                    "internalType": "address[]",
                    "name": "helpers",
                    "type": "address[]"
                }
            ],
            "name": "isQualified",
            "outputs": [
                {
                    "internalType": "bool",
                    "name": "",
                    "type": "bool"
                }
            ],
            "stateMutability": "view",
            "type": "function"
        },
        {
            "inputs": [],
            "name": "name",
            "outputs": [
                {
                    "internalType": "string",
                    "name": "",
                    "type": "string"
                }
            ],
            "stateMutability": "pure",
            "type": "function"
        },
        {
            "inputs": [
                {
                    "internalType": "address",
                    "name": "from",
                    "type": "address"
                },
                {
                    "internalType": "uint256",
                    "name": "amount",
                    "type": "uint256"
                },
                {
                    "internalType": "bytes",
                    "name": "",
                    "type": "bytes"
                }
            ],
            "name": "onTokenTransfer",
            "outputs": [
                {
                    "internalType": "bool",
                    "name": "",
                    "type": "bool"
                }
            ],
            "stateMutability": "nonpayable",
            "type": "function"
        },
        {
            "inputs": [],
            "name": "price",
            "outputs": [
                {
                    "internalType": "uint256",
                    "name": "",
                    "type": "uint256"
                }
            ],
            "stateMutability": "view",
            "type": "function"
        },
        {
            "inputs": [
                {
                    "internalType": "uint256",
                    "name": "shares",
                    "type": "uint256"
                }
            ],
            "name": "redeem",
            "outputs": [
                {
                    "internalType": "uint256",
                    "name": "",
                    "type": "uint256"
                }
            ],
            "stateMutability": "nonpayable",
            "type": "function"
        },
        {
            "inputs": [
                {
                    "internalType": "uint256",
                    "name": "partsPerMillion",
                    "type": "uint256"
                }
            ],
            "name": "redeemFraction",
            "outputs": [
                {
                    "internalType": "uint256",
                    "name": "",
                    "type": "uint256"
                }
            ],
            "stateMutability": "nonpayable",
            "type": "function"
        },
        {
            "inputs": [
                {
                    "internalType": "address",
                    "name": "holder",
                    "type": "address"
                }
            ],
            "name": "redeemableBalance",
            "outputs": [
                {
                    "internalType": "uint256",
                    "name": "",
                    "type": "uint256"
                }
            ],
            "stateMutability": "view",
            "type": "function"
        },
        {
            "inputs": [],
            "name": "symbol",
            "outputs": [
                {
                    "internalType": "string",
                    "name": "",
                    "type": "string"
                }
            ],
            "stateMutability": "pure",
            "type": "function"
        },
        {
            "inputs": [],
            "name": "totalSupply",
            "outputs": [
                {
                    "internalType": "uint256",
                    "name": "",
                    "type": "uint256"
                }
            ],
            "stateMutability": "view",
            "type": "function"
        },
        {
            "inputs": [
                {
                    "internalType": "address",
                    "name": "recipient",
                    "type": "address"
                },
                {
                    "internalType": "uint256",
                    "name": "amount",
                    "type": "uint256"
                }
            ],
            "name": "transfer",
            "outputs": [
                {
                    "internalType": "bool",
                    "name": "",
                    "type": "bool"
                }
            ],
            "stateMutability": "nonpayable",
            "type": "function"
        },
        {
            "inputs": [
                {
                    "internalType": "address",
                    "name": "recipient",
                    "type": "address"
                },
                {
                    "internalType": "uint256",
                    "name": "amount",
                    "type": "uint256"
                },
                {
                    "internalType": "bytes",
                    "name": "data",
                    "type": "bytes"
                }
            ],
            "name": "transferAndCall",
            "outputs": [
                {
                    "internalType": "bool",
                    "name": "",
                    "type": "bool"
                }
            ],
            "stateMutability": "nonpayable",
            "type": "function"
        },
        {
            "inputs": [
                {
                    "internalType": "address",
                    "name": "sender",
                    "type": "address"
                },
                {
                    "internalType": "address",
                    "name": "recipient",
                    "type": "address"
                },
                {
                    "internalType": "uint256",
                    "name": "amount",
                    "type": "uint256"
                }
            ],
            "name": "transferFrom",
            "outputs": [
                {
                    "internalType": "bool",
                    "name": "",
                    "type": "bool"
                }
            ],
            "stateMutability": "nonpayable",
            "type": "function"
        },
        {
            "inputs": [],
            "name": "zchf",
            "outputs": [
                {
                    "internalType": "contract IFrankencoin",
                    "name": "",
                    "type": "address"
                }
            ],
            "stateMutability": "view",
            "type": "function"
        }
    ],
    "bytecode": "60a060405234801561001057600080fd5b50601260805260805161111061003160003960006101c201526111106000f3fe608060405234801561001057600080fd5b506004361061012c5760003560e01c80639823004f116100ad578063c4d4803a11610071578063c4d4803a146102f7578063c4d66de814610322578063db006a7514610335578063dd62ed3e14610348578063ecc1a3c71461038157600080fd5b80639823004f14610277578063a035b1fe146102b6578063a0641288146102be578063a4c0ed36146102d1578063a9059cbb146102e457600080fd5b80633c835ab0116100f45780633c835ab0146101f65780634000aea0146102095780635e1121cf1461021c57806370a082311461022f57806395d89b411461025857600080fd5b806306fdde0314610131578063095ea7b31461017557806318160ddd1461019857806323b872dd146101aa578063313ce567146101bd575b600080fd5b6040805180820190915260168152754672616e6b656e636f696e20506f6f6c20536861726560501b60208201525b60405161016c9190610d50565b60405180910390f35b610188610183366004610dc1565b610394565b604051901515815260200161016c565b6002545b60405190815260200161016c565b6101886101b8366004610deb565b6103ab565b6101e47f000000000000000000000000000000000000000000000000000000000000000081565b60405160ff909116815260200161016c565b610188610204366004610e27565b610407565b610188610217366004610e5a565b61046d565b61018861022a366004610ee1565b610503565b61019c61023d366004610f67565b6001600160a01b031660009081526020819052604090205490565b60408051808201909152600381526246505360e81b602082015261015f565b6102b4610285366004610f67565b33600090815260036020526040902080546001600160a01b0319166001600160a01b0392909216919091179055565b005b61019c610652565b61019c6102cc366004610f67565b6106e9565b6101886102df366004610e5a565b61078e565b6101886102f2366004610dc1565b610875565b60045461030a906001600160a01b031681565b6040516001600160a01b03909116815260200161016c565b6102b4610330366004610f67565b610882565b61019c610343366004610f89565b6108ba565b61019c610356366004610e27565b6001600160a01b03918216600090815260016020908152604080832093909416825291909152205490565b61019c61038f366004610f89565b610aee565b60006103a1338484610b1b565b5060015b92915050565b60006103b8848484610b7d565b6001600160a01b0384166000908152600160209081526040808320338452909152902054600160ff1b8110156103fc576103fc85336103f78685610fb8565b610b1b565b506001949350505050565b6000826001600160a01b0316826001600160a01b03160361042a575060016103a5565b6001600160a01b038216610440575060006103a5565b6001600160a01b0380831660009081526003602052604090205461046691859116610407565b90506103a5565b60008061047a8686610875565b905080156104fa57604051635260769b60e11b81526001600160a01b0387169063a4c0ed36906104b4903390899089908990600401610fcf565b6020604051808303816000875af11580156104d3573d6000803e3d6000fd5b505050506040513d601f19601f820116820180604052508101906104f79190611017565b90505b95945050505050565b6001600160a01b03831660009081526020819052604081205460005b8381101561062b57600085858381811061053b5761053b611039565b90506020020160208101906105509190610f67565b9050866001600160a01b0316816001600160a01b03160361057057600080fd5b61057a8782610407565b61058357600080fd5b600061059083600161104f565b90505b858110156105f1578686828181106105ad576105ad611039565b90506020020160208101906105c29190610f67565b6001600160a01b0316826001600160a01b0316036105df57600080fd5b806105e981611067565b915050610593565b506001600160a01b038116600090815260208190526040902054610615908461104f565b925050808061062390611067565b91505061051f565b5060025461063b9061012c611080565b61064782612710611080565b101595945050505050565b600480546040516370a0823160e01b8152309281019290925260009182916001600160a01b0316906370a0823190602401602060405180830381865afa1580156106a0573d6000803e3d6000fd5b505050506040513d601f19601f820116820180604052508101906106c4919061109f565b9050806000036106d657600091505090565b6002546106e390826110b8565b91505090565b60006106f460025490565b600480546040516370a0823160e01b815230928101929092526001600160a01b0316906370a0823190602401602060405180830381865afa15801561073d573d6000803e3d6000fd5b505050506040513d601f19601f82011682018060405250810190610761919061109f565b6001600160a01b0384166000908152602081905260409020546107849190611080565b6103a591906110b8565b6004546000906001600160a01b031633146107a857600080fd5b60006107b360025490565b9050806000036107cc576107c78686610c31565b610869565b600480546040516370a0823160e01b8152309281019290925261086991889188916001600160a01b03909116906370a0823190602401602060405180830381865afa15801561081f573d6000803e3d6000fd5b505050506040513d601f19601f82011682018060405250810190610843919061109f565b61084d9190610fb8565b60025461085a9089611080565b61086491906110b8565b610c31565b50600195945050505050565b60006103a1338484610b7d565b6004546001600160a01b03161561089857600080fd5b600480546001600160a01b0319166001600160a01b0392909216919091179055565b6000806108c660025490565b600480546040516370a0823160e01b815230928101929092526001600160a01b0316906370a0823190602401602060405180830381865afa15801561090f573d6000803e3d6000fd5b505050506040513d601f19601f82011682018060405250810190610933919061109f565b61093d9085611080565b61094791906110b8565b90506109533384610cce565b6004805460405163a9059cbb60e01b81523392810192909252602482018390526001600160a01b03169063a9059cbb906044016020604051808303816000875af11580156109a5573d6000803e3d6000fd5b505050506040513d601f19601f820116820180604052508101906109c99190611017565b506004805460408051638167618560e01b815290516001600160a01b039092169263816761859282820192602092908290030181865afa158015610a11573d6000803e3d6000fd5b505050506040513d601f19601f82011682018060405250810190610a359190611017565b80610aa85750600480546040516355138f0d60e11b815233928101929092526001600160a01b03169063aa271e1a90602401602060405180830381865afa158015610a84573d6000803e3d6000fd5b505050506040513d601f19601f82011682018060405250810190610aa89190611017565b6103a55760405162461bcd60e51b81526020600482015260136024820152721c995cd95c9d99481c995c5d5a5c995b595b9d606a1b604482015260640160405180910390fd5b336000908152602081905260408120546103a590620f424090610b119085611080565b61034391906110b8565b6001600160a01b0383811660008181526001602090815260408083209487168084529482529182902085905590518481527f8c5be1e5ebec7d5bd14f71427d1e84f3dd0314c0f7b2291e5b200ac8c7c3b92591015b60405180910390a3505050565b6001600160a01b038216610b9057600080fd5b6001600160a01b03831660009081526020819052604081208054839290610bb8908490610fb8565b90915550506001600160a01b03821660009081526020819052604081208054839290610be590849061104f565b92505081905550816001600160a01b0316836001600160a01b03167fddf252ad1be2c89b69c2b068fc378daa952ba7f163c4a11628f55a4df523b3ef83604051610b7091815260200190565b6001600160a01b038216610c4457600080fd5b8060026000828254610c56919061104f565b90915550506001600160a01b03821660009081526020819052604081208054839290610c8390849061104f565b90915550506040518181526001600160a01b038316906000907fddf252ad1be2c89b69c2b068fc378daa952ba7f163c4a11628f55a4df523b3ef906020015b60405180910390a35050565b8060026000828254610ce09190610fb8565b90915550506001600160a01b03821660009081526020819052604081208054839290610d0d908490610fb8565b90915550506040518181526000906001600160a01b038416907fddf252ad1be2c89b69c2b068fc378daa952ba7f163c4a11628f55a4df523b3ef90602001610cc2565b600060208083528351808285015260005b81811015610d7d57858101830151858201604001528201610d61565b81811115610d8f576000604083870101525b50601f01601f1916929092016040019392505050565b80356001600160a01b0381168114610dbc57600080fd5b919050565b60008060408385031215610dd457600080fd5b610ddd83610da5565b946020939093013593505050565b600080600060608486031215610e0057600080fd5b610e0984610da5565b9250610e1760208501610da5565b9150604084013590509250925092565b60008060408385031215610e3a57600080fd5b610e4383610da5565b9150610e5160208401610da5565b90509250929050565b60008060008060608587031215610e7057600080fd5b610e7985610da5565b935060208501359250604085013567ffffffffffffffff80821115610e9d57600080fd5b818701915087601f830112610eb157600080fd5b813581811115610ec057600080fd5b886020828501011115610ed257600080fd5b95989497505060200194505050565b600080600060408486031215610ef657600080fd5b610eff84610da5565b9250602084013567ffffffffffffffff80821115610f1c57600080fd5b818601915086601f830112610f3057600080fd5b813581811115610f3f57600080fd5b8760208260051b8501011115610f5457600080fd5b6020830194508093505050509250925092565b600060208284031215610f7957600080fd5b610f8282610da5565b9392505050565b600060208284031215610f9b57600080fd5b5035919050565b634e487b7160e01b600052601160045260246000fd5b600082821015610fca57610fca610fa2565b500390565b6001600160a01b0385168152602081018490526060604082018190528101829052818360808301376000818301608090810191909152601f909201601f191601019392505050565b60006020828403121561102957600080fd5b81518015158114610f8257600080fd5b634e487b7160e01b600052603260045260246000fd5b6000821982111561106257611062610fa2565b500190565b60006001820161107957611079610fa2565b5060010190565b600081600019048311821515161561109a5761109a610fa2565b500290565b6000602082840312156110b157600080fd5b5051919050565b6000826110d557634e487b7160e01b600052601260045260246000fd5b50049056fea2646970667358221220465eae95e3fb7126e0bf66f0a87f1086170ff5c88d48db9e1b59c1da75795c6f64736f6c634300080e0033",
    "sourcePath": "c:/Users/luziu/Documents/GitHub/FrankenCoin/contracts/ReservePool.sol",
    "compiler": {
        "name": "solc",
        "version": "0.8.14+commit.80d49f37"
    },
    "functionHashes": {
        "allowance(address,address)": "dd62ed3e",
        "approve(address,uint256)": "095ea7b3",
        "balanceOf(address)": "70a08231",
        "canVoteFor(address,address)": "3c835ab0",
        "decimals()": "313ce567",
        "delegateVoteTo(address)": "9823004f",
        "initialize(address)": "c4d66de8",
        "isQualified(address,address[])": "5e1121cf",
        "name()": "06fdde03",
        "onTokenTransfer(address,uint256,bytes)": "a4c0ed36",
        "price()": "a035b1fe",
        "redeem(uint256)": "db006a75",
        "redeemFraction(uint256)": "ecc1a3c7",
        "redeemableBalance(address)": "a0641288",
        "symbol()": "95d89b41",
        "totalSupply()": "18160ddd",
        "transfer(address,uint256)": "a9059cbb",
        "transferAndCall(address,uint256,bytes)": "4000aea0",
        "transferFrom(address,address,uint256)": "23b872dd",
        "zchf()": "c4d4803a"
    },
    "gasEstimates": {
        "creation": {
            "codeDepositCost": "873600",
            "executionCost": "infinite",
            "totalCost": "infinite"
        },
        "external": {
            "allowance(address,address)": "infinite",
            "approve(address,uint256)": "24574",
            "balanceOf(address)": "2629",
            "canVoteFor(address,address)": "infinite",
            "decimals()": "infinite",
            "delegateVoteTo(address)": "24650",
            "initialize(address)": "26753",
            "isQualified(address,address[])": "infinite",
            "name()": "infinite",
            "onTokenTransfer(address,uint256,bytes)": "infinite",
            "price()": "infinite",
            "redeem(uint256)": "infinite",
            "redeemFraction(uint256)": "infinite",
            "redeemableBalance(address)": "infinite",
            "symbol()": "infinite",
            "totalSupply()": "2349",
            "transfer(address,uint256)": "51225",
            "transferAndCall(address,uint256,bytes)": "infinite",
            "transferFrom(address,address,uint256)": "infinite",
            "zchf()": "2359"
        }
    }
}