{
    "contractName": "StablecoinBridge",
    "abi": [
        {
            "inputs": [
                {
                    "internalType": "address",
                    "name": "other",
                    "type": "address"
                },
                {
                    "internalType": "address",
                    "name": "zchfAddress",
                    "type": "address"
                }
            ],
            "stateMutability": "nonpayable",
            "type": "constructor"
        },
        {
            "inputs": [
                {
                    "internalType": "address",
                    "name": "target",
                    "type": "address"
                },
                {
                    "internalType": "uint256",
                    "name": "amount",
                    "type": "uint256"
                }
            ],
            "name": "burn",
            "outputs": [],
            "stateMutability": "nonpayable",
            "type": "function"
        },
        {
            "inputs": [],
            "name": "chf",
            "outputs": [
                {
                    "internalType": "contract IERC20",
                    "name": "",
                    "type": "address"
                }
            ],
            "stateMutability": "view",
            "type": "function"
        },
        {
            "inputs": [],
            "name": "horizon",
            "outputs": [
                {
                    "internalType": "uint256",
                    "name": "",
                    "type": "uint256"
                }
            ],
            "stateMutability": "view",
            "type": "function"
        },
        {
            "inputs": [
                {
                    "internalType": "address",
                    "name": "target",
                    "type": "address"
                },
                {
                    "internalType": "uint256",
                    "name": "amount",
                    "type": "uint256"
                }
            ],
            "name": "mint",
            "outputs": [],
            "stateMutability": "nonpayable",
            "type": "function"
        },
        {
            "inputs": [],
            "name": "zchf",
            "outputs": [
                {
                    "internalType": "contract IFrankencoin",
                    "name": "",
                    "type": "address"
                }
            ],
            "stateMutability": "view",
            "type": "function"
        }
    ],
    "bytecode": "60e060405234801561001057600080fd5b5060405161054c38038061054c83398101604081905261002f91610077565b6001600160a01b03808316608052811660a052610050426301dfe2006100aa565b60c052506100d09050565b80516001600160a01b038116811461007257600080fd5b919050565b6000806040838503121561008a57600080fd5b6100938361005b565b91506100a16020840161005b565b90509250929050565b600082198211156100cb57634e487b7160e01b600052601160045260246000fd5b500190565b60805160a05160c05161042c6101206000396000818160610152610126015260008181610102015281816102160152610299015260008181609b015281816101730152610321015261042c6000f3fe608060405234801561001057600080fd5b50600436106100575760003560e01c80631ce832b51461005c57806337b272b01461009657806340c10f19146100d55780639dc29fac146100ea578063c4d4803a146100fd575b600080fd5b6100837f000000000000000000000000000000000000000000000000000000000000000081565b6040519081526020015b60405180910390f35b6100bd7f000000000000000000000000000000000000000000000000000000000000000081565b6040516001600160a01b03909116815260200161008d565b6100e86100e3366004610395565b610124565b005b6100e86100f8366004610395565b610276565b6100bd7f000000000000000000000000000000000000000000000000000000000000000081565b7f000000000000000000000000000000000000000000000000000000000000000042111561015157600080fd5b6040516323b872dd60e01b8152336004820152306024820152604481018290527f00000000000000000000000000000000000000000000000000000000000000006001600160a01b0316906323b872dd906064016020604051808303816000875af11580156101c4573d6000803e3d6000fd5b505050506040513d601f19601f820116820180604052508101906101e891906103cd565b50604051630ab714fb60e11b81526001600160a01b03838116600483015260248201839052600060448301527f0000000000000000000000000000000000000000000000000000000000000000169063156e29f690606401600060405180830381600087803b15801561025a57600080fd5b505af115801561026e573d6000803e3d6000fd5b505050505050565b604051637a94c56560e11b815233600482015260248101829052600060448201527f00000000000000000000000000000000000000000000000000000000000000006001600160a01b03169063f5298aca90606401600060405180830381600087803b1580156102e557600080fd5b505af11580156102f9573d6000803e3d6000fd5b505060405163a9059cbb60e01b81526001600160a01b038581166004830152602482018590527f000000000000000000000000000000000000000000000000000000000000000016925063a9059cbb91506044016020604051808303816000875af115801561036c573d6000803e3d6000fd5b505050506040513d601f19601f8201168201806040525081019061039091906103cd565b505050565b600080604083850312156103a857600080fd5b82356001600160a01b03811681146103bf57600080fd5b946020939093013593505050565b6000602082840312156103df57600080fd5b815180151581146103ef57600080fd5b939250505056fea264697066735822122084ba38a816296b35a9c59f6957034c5a16a7216a68a1a721f7fa364a18005ab264736f6c634300080e0033",
    "sourcePath": "c:/Users/luziu/Documents/GitHub/FrankenCoin/contracts/StablecoinBridge.sol",
    "compiler": {
        "name": "solc",
        "version": "0.8.14+commit.80d49f37"
    },
    "functionHashes": {
        "burn(address,uint256)": "9dc29fac",
        "chf()": "37b272b0",
        "horizon()": "1ce832b5",
        "mint(address,uint256)": "40c10f19",
        "zchf()": "c4d4803a"
    },
    "gasEstimates": {
        "creation": {
            "codeDepositCost": "213600",
            "executionCost": "infinite",
            "totalCost": "infinite"
        },
        "external": {
            "burn(address,uint256)": "infinite",
            "chf()": "infinite",
            "horizon()": "infinite",
            "mint(address,uint256)": "infinite",
            "zchf()": "infinite"
        }
    }
}