{
    "contractName": "StablecoinBridge",
    "abi": [
        {
            "inputs": [
                {
                    "internalType": "address",
                    "name": "other",
                    "type": "address"
                },
                {
                    "internalType": "address",
                    "name": "zchfAddress",
                    "type": "address"
                }
            ],
            "stateMutability": "nonpayable",
            "type": "constructor"
        },
        {
            "inputs": [
                {
                    "internalType": "address",
                    "name": "target",
                    "type": "address"
                },
                {
                    "internalType": "uint256",
                    "name": "amount",
                    "type": "uint256"
                }
            ],
            "name": "burn",
            "outputs": [],
            "stateMutability": "nonpayable",
            "type": "function"
        },
        {
            "inputs": [],
            "name": "chf",
            "outputs": [
                {
                    "internalType": "contract IERC20",
                    "name": "",
                    "type": "address"
                }
            ],
            "stateMutability": "view",
            "type": "function"
        },
        {
            "inputs": [],
            "name": "horizon",
            "outputs": [
                {
                    "internalType": "uint256",
                    "name": "",
                    "type": "uint256"
                }
            ],
            "stateMutability": "view",
            "type": "function"
        },
        {
            "inputs": [
                {
                    "internalType": "address",
                    "name": "target",
                    "type": "address"
                },
                {
                    "internalType": "uint256",
                    "name": "amount",
                    "type": "uint256"
                }
            ],
            "name": "mint",
            "outputs": [],
            "stateMutability": "nonpayable",
            "type": "function"
        },
        {
            "inputs": [
                {
                    "internalType": "address",
                    "name": "from",
                    "type": "address"
                },
                {
                    "internalType": "uint256",
                    "name": "amount",
                    "type": "uint256"
                },
                {
                    "internalType": "bytes",
                    "name": "",
                    "type": "bytes"
                }
            ],
            "name": "onTokenTransfer",
            "outputs": [
                {
                    "internalType": "bool",
                    "name": "",
                    "type": "bool"
                }
            ],
            "stateMutability": "nonpayable",
            "type": "function"
        },
        {
            "inputs": [],
            "name": "zchf",
            "outputs": [
                {
                    "internalType": "contract IFrankencoin",
                    "name": "",
                    "type": "address"
                }
            ],
            "stateMutability": "view",
            "type": "function"
        }
    ],
    "bytecode": "60e060405234801561001057600080fd5b5060405161079a38038061079a83398101604081905261002f91610077565b6001600160a01b03808316608052811660a052610050426301dfe2006100aa565b60c052506100d09050565b80516001600160a01b038116811461007257600080fd5b919050565b6000806040838503121561008a57600080fd5b6100938361005b565b91506100a16020840161005b565b90509250929050565b600082198211156100cb57634e487b7160e01b600052601160045260246000fd5b500190565b60805160a05160c05161066561013560003960008181606c01526101540152600081816101300152818161026f01528181610336015281816103a1015261044401526000818160a6015281816101d3015281816102ea01526104c401526106656000f3fe608060405234801561001057600080fd5b50600436106100625760003560e01c80631ce832b51461006757806337b272b0146100a157806340c10f19146100e05780639dc29fac146100f5578063a4c0ed3614610108578063c4d4803a1461012b575b600080fd5b61008e7f000000000000000000000000000000000000000000000000000000000000000081565b6040519081526020015b60405180910390f35b6100c87f000000000000000000000000000000000000000000000000000000000000000081565b6040516001600160a01b039091168152602001610098565b6100f36100ee366004610555565b610152565b005b6100f3610103366004610555565b6102cf565b61011b61011636600461057f565b6102de565b6040519015158152602001610098565b6100c87f000000000000000000000000000000000000000000000000000000000000000081565b7f00000000000000000000000000000000000000000000000000000000000000004211156101b15760405162461bcd60e51b8152602060048201526007602482015266195e1c1a5c995960ca1b60448201526064015b60405180910390fd5b6040516323b872dd60e01b8152336004820152306024820152604481018290527f00000000000000000000000000000000000000000000000000000000000000006001600160a01b0316906323b872dd906064016020604051808303816000875af1158015610224573d6000803e3d6000fd5b505050506040513d601f19601f820116820180604052508101906102489190610606565b506040516340c10f1960e01b81526001600160a01b038381166004830152602482018390527f000000000000000000000000000000000000000000000000000000000000000016906340c10f1990604401600060405180830381600087803b1580156102b357600080fd5b505af11580156102c7573d6000803e3d6000fd5b505050505050565b6102da33838361041e565b5050565b60006001600160a01b037f0000000000000000000000000000000000000000000000000000000000000000163303610397576040516340c10f1960e01b81526001600160a01b038681166004830152602482018690527f000000000000000000000000000000000000000000000000000000000000000016906340c10f1990604401600060405180830381600087803b15801561037a57600080fd5b505af115801561038e573d6000803e3d6000fd5b50505050610413565b6001600160a01b037f00000000000000000000000000000000000000000000000000000000000000001633036103d7576103d230868661041e565b610413565b60405162461bcd60e51b81526020600482015260116024820152703ab739bab83837b93a32b2103a37b5b2b760791b60448201526064016101a8565b506001949350505050565b604051632770a7eb60e21b81526001600160a01b038481166004830152602482018390527f00000000000000000000000000000000000000000000000000000000000000001690639dc29fac90604401600060405180830381600087803b15801561048857600080fd5b505af115801561049c573d6000803e3d6000fd5b505060405163a9059cbb60e01b81526001600160a01b038581166004830152602482018590527f000000000000000000000000000000000000000000000000000000000000000016925063a9059cbb91506044016020604051808303816000875af115801561050f573d6000803e3d6000fd5b505050506040513d601f19601f820116820180604052508101906105339190610606565b50505050565b80356001600160a01b038116811461055057600080fd5b919050565b6000806040838503121561056857600080fd5b61057183610539565b946020939093013593505050565b6000806000806060858703121561059557600080fd5b61059e85610539565b935060208501359250604085013567ffffffffffffffff808211156105c257600080fd5b818701915087601f8301126105d657600080fd5b8135818111156105e557600080fd5b8860208285010111156105f757600080fd5b95989497505060200194505050565b60006020828403121561061857600080fd5b8151801515811461062857600080fd5b939250505056fea264697066735822122038695567f7c269e4b7df972f046ebfaffcd7dad9350a02443efd7f85043d804964736f6c634300080e0033",
    "sourcePath": "c:/Users/luziu/Documents/GitHub/FrankenCoin/contracts/StablecoinBridge.sol",
    "compiler": {
        "name": "solc",
        "version": "0.8.14+commit.80d49f37"
    },
    "functionHashes": {
        "burn(address,uint256)": "9dc29fac",
        "chf()": "37b272b0",
        "horizon()": "1ce832b5",
        "mint(address,uint256)": "40c10f19",
        "onTokenTransfer(address,uint256,bytes)": "a4c0ed36",
        "zchf()": "c4d4803a"
    },
    "gasEstimates": {
        "creation": {
            "codeDepositCost": "327400",
            "executionCost": "infinite",
            "totalCost": "infinite"
        },
        "external": {
            "burn(address,uint256)": "infinite",
            "chf()": "infinite",
            "horizon()": "infinite",
            "mint(address,uint256)": "infinite",
            "onTokenTransfer(address,uint256,bytes)": "infinite",
            "zchf()": "infinite"
        },
        "internal": {
            "burnInternal(address,address,uint256)": "infinite"
        }
    }
}