{
    "contractName": "StablecoinBridge",
    "abi": [
        {
            "inputs": [
                {
                    "internalType": "address",
                    "name": "other",
                    "type": "address"
                },
                {
                    "internalType": "address",
                    "name": "zchfAddress",
                    "type": "address"
                },
                {
                    "internalType": "uint256",
                    "name": "limit_",
                    "type": "uint256"
                }
            ],
            "stateMutability": "nonpayable",
            "type": "constructor"
        },
        {
            "inputs": [
                {
                    "internalType": "uint256",
                    "name": "amount",
                    "type": "uint256"
                }
            ],
            "name": "burn",
            "outputs": [],
            "stateMutability": "nonpayable",
            "type": "function"
        },
        {
            "inputs": [
                {
                    "internalType": "address",
                    "name": "target",
                    "type": "address"
                },
                {
                    "internalType": "uint256",
                    "name": "amount",
                    "type": "uint256"
                }
            ],
            "name": "burn",
            "outputs": [],
            "stateMutability": "nonpayable",
            "type": "function"
        },
        {
            "inputs": [],
            "name": "chf",
            "outputs": [
                {
                    "internalType": "contract IERC20",
                    "name": "",
                    "type": "address"
                }
            ],
            "stateMutability": "view",
            "type": "function"
        },
        {
            "inputs": [],
            "name": "horizon",
            "outputs": [
                {
                    "internalType": "uint256",
                    "name": "",
                    "type": "uint256"
                }
            ],
            "stateMutability": "view",
            "type": "function"
        },
        {
            "inputs": [],
            "name": "limit",
            "outputs": [
                {
                    "internalType": "uint256",
                    "name": "",
                    "type": "uint256"
                }
            ],
            "stateMutability": "view",
            "type": "function"
        },
        {
            "inputs": [
                {
                    "internalType": "address",
                    "name": "target",
                    "type": "address"
                },
                {
                    "internalType": "uint256",
                    "name": "amount",
                    "type": "uint256"
                }
            ],
            "name": "mint",
            "outputs": [],
            "stateMutability": "nonpayable",
            "type": "function"
        },
        {
            "inputs": [
                {
                    "internalType": "uint256",
                    "name": "amount",
                    "type": "uint256"
                }
            ],
            "name": "mint",
            "outputs": [],
            "stateMutability": "nonpayable",
            "type": "function"
        },
        {
            "inputs": [
                {
                    "internalType": "address",
                    "name": "from",
                    "type": "address"
                },
                {
                    "internalType": "uint256",
                    "name": "amount",
                    "type": "uint256"
                },
                {
                    "internalType": "bytes",
                    "name": "",
                    "type": "bytes"
                }
            ],
            "name": "onTokenTransfer",
            "outputs": [
                {
                    "internalType": "bool",
                    "name": "",
                    "type": "bool"
                }
            ],
            "stateMutability": "nonpayable",
            "type": "function"
        },
        {
            "inputs": [],
            "name": "zchf",
            "outputs": [
                {
                    "internalType": "contract IFrankencoin",
                    "name": "",
                    "type": "address"
                }
            ],
            "stateMutability": "view",
            "type": "function"
        }
    ],
    "bytecode": "61010060405234801561001157600080fd5b506040516108ee3803806108ee8339810160408190526100309161007b565b6001600160a01b03808416608052821660a052610051426301dfe2006100b7565b60c05260e052506100de9050565b80516001600160a01b038116811461007657600080fd5b919050565b60008060006060848603121561009057600080fd5b6100998461005f565b92506100a76020850161005f565b9150604084015190509250925092565b808201808211156100d857634e487b7160e01b600052601160045260246000fd5b92915050565b60805160a05160c05160e05161079a6101546000396000818161018701526103d0015260008181609d01526103630152600081816101ae015281816102e4015281816104c1015261054701526000818160d7015281816101f2015281816102a5015281816103f201526105c7015261079a6000f3fe608060405234801561001057600080fd5b50600436106100935760003560e01c80639dc29fac116100665780639dc29fac14610139578063a0712d681461014c578063a4c0ed361461015f578063a4d66daf14610182578063c4d4803a146101a957600080fd5b80631ce832b51461009857806337b272b0146100d257806340c10f191461011157806342966c6814610126575b600080fd5b6100bf7f000000000000000000000000000000000000000000000000000000000000000081565b6040519081526020015b60405180910390f35b6100f97f000000000000000000000000000000000000000000000000000000000000000081565b6040516001600160a01b0390911681526020016100c9565b61012461011f366004610658565b6101d0565b005b610124610134366004610682565b610276565b610124610147366004610658565b610284565b61012461015a366004610682565b61028f565b61017261016d36600461069b565b610299565b60405190151581526020016100c9565b6100bf7f000000000000000000000000000000000000000000000000000000000000000081565b6100f97f000000000000000000000000000000000000000000000000000000000000000081565b6040516323b872dd60e01b8152336004820152306024820152604481018290527f00000000000000000000000000000000000000000000000000000000000000006001600160a01b0316906323b872dd906064016020604051808303816000875af1158015610243573d6000803e3d6000fd5b505050506040513d601f19601f820116820180604052508101906102679190610722565b506102728282610361565b5050565b610281333383610521565b50565b610272338383610521565b61028133826101d0565b60006001600160a01b037f00000000000000000000000000000000000000000000000000000000000000001633036102da576102d58585610361565b610356565b6001600160a01b037f0000000000000000000000000000000000000000000000000000000000000000163303610315576102d5308686610521565b60405162461bcd60e51b81526020600482015260116024820152703ab739bab83837b93a32b2103a37b5b2b760791b60448201526064015b60405180910390fd5b506001949350505050565b7f00000000000000000000000000000000000000000000000000000000000000004211156103bb5760405162461bcd60e51b8152602060048201526007602482015266195e1c1a5c995960ca1b604482015260640161034d565b6040516370a0823160e01b81523060048201527f0000000000000000000000000000000000000000000000000000000000000000907f00000000000000000000000000000000000000000000000000000000000000006001600160a01b0316906370a0823190602401602060405180830381865afa158015610441573d6000803e3d6000fd5b505050506040513d601f19601f82011682018060405250810190610465919061074b565b111561049b5760405162461bcd60e51b81526020600482015260056024820152641b1a5b5a5d60da1b604482015260640161034d565b6040516340c10f1960e01b81526001600160a01b038381166004830152602482018390527f000000000000000000000000000000000000000000000000000000000000000016906340c10f1990604401600060405180830381600087803b15801561050557600080fd5b505af1158015610519573d6000803e3d6000fd5b505050505050565b604051632770a7eb60e21b81526001600160a01b038481166004830152602482018390527f00000000000000000000000000000000000000000000000000000000000000001690639dc29fac90604401600060405180830381600087803b15801561058b57600080fd5b505af115801561059f573d6000803e3d6000fd5b505060405163a9059cbb60e01b81526001600160a01b038581166004830152602482018590527f000000000000000000000000000000000000000000000000000000000000000016925063a9059cbb91506044016020604051808303816000875af1158015610612573d6000803e3d6000fd5b505050506040513d601f19601f820116820180604052508101906106369190610722565b50505050565b80356001600160a01b038116811461065357600080fd5b919050565b6000806040838503121561066b57600080fd5b6106748361063c565b946020939093013593505050565b60006020828403121561069457600080fd5b5035919050565b600080600080606085870312156106b157600080fd5b6106ba8561063c565b935060208501359250604085013567ffffffffffffffff808211156106de57600080fd5b818701915087601f8301126106f257600080fd5b81358181111561070157600080fd5b88602082850101111561071357600080fd5b95989497505060200194505050565b60006020828403121561073457600080fd5b8151801515811461074457600080fd5b9392505050565b60006020828403121561075d57600080fd5b505191905056fea2646970667358221220ed5348e9e4276b6645aa6cd3eff6d95d2287baccf540001d616e8742d6707f9964736f6c63430008110033",
    "sourcePath": "c:/Users/luziu/Documents/GitHub/FrankenCoin-ZCHF/contracts/StablecoinBridge.sol",
    "compiler": {
        "name": "solc",
        "version": "0.8.17+commit.8df45f5f"
    },
    "functionHashes": {
        "burn(address,uint256)": "9dc29fac",
        "burn(uint256)": "42966c68",
        "chf()": "37b272b0",
        "horizon()": "1ce832b5",
        "limit()": "a4d66daf",
        "mint(address,uint256)": "40c10f19",
        "mint(uint256)": "a0712d68",
        "onTokenTransfer(address,uint256,bytes)": "a4c0ed36",
        "zchf()": "c4d4803a"
    },
    "gasEstimates": {
        "creation": {
            "codeDepositCost": "389200",
            "executionCost": "infinite",
            "totalCost": "infinite"
        },
        "external": {
            "burn(address,uint256)": "infinite",
            "burn(uint256)": "infinite",
            "chf()": "infinite",
            "horizon()": "infinite",
            "limit()": "infinite",
            "mint(address,uint256)": "infinite",
            "mint(uint256)": "infinite",
            "onTokenTransfer(address,uint256,bytes)": "infinite",
            "zchf()": "infinite"
        },
        "internal": {
            "burnInternal(address,address,uint256)": "infinite",
            "mintInternal(address,uint256)": "infinite"
        }
    }
}