{
  "address": "0xE699A78B3eC44Ab013f1839305bB1a5a987A05B0",
  "abi": [
    {
      "inputs": [
        {
          "internalType": "contract Equity",
          "name": "nDEPS_",
          "type": "address"
        }
      ],
      "stateMutability": "nonpayable",
      "type": "constructor"
    },
    {
      "inputs": [],
      "name": "ECDSAInvalidSignature",
      "type": "error"
    },
    {
      "inputs": [
        {
          "internalType": "uint256",
          "name": "length",
          "type": "uint256"
        }
      ],
      "name": "ECDSAInvalidSignatureLength",
      "type": "error"
    },
    {
      "inputs": [
        {
          "internalType": "bytes32",
          "name": "s",
          "type": "bytes32"
        }
      ],
      "name": "ECDSAInvalidSignatureS",
      "type": "error"
    },
    {
      "inputs": [
        {
          "internalType": "address",
          "name": "spender",
          "type": "address"
        },
        {
          "internalType": "uint256",
          "name": "allowance",
          "type": "uint256"
        },
        {
          "internalType": "uint256",
          "name": "needed",
          "type": "uint256"
        }
      ],
      "name": "ERC20InsufficientAllowance",
      "type": "error"
    },
    {
      "inputs": [
        {
          "internalType": "address",
          "name": "sender",
          "type": "address"
        },
        {
          "internalType": "uint256",
          "name": "balance",
          "type": "uint256"
        },
        {
          "internalType": "uint256",
          "name": "needed",
          "type": "uint256"
        }
      ],
      "name": "ERC20InsufficientBalance",
      "type": "error"
    },
    {
      "inputs": [
        {
          "internalType": "address",
          "name": "approver",
          "type": "address"
        }
      ],
      "name": "ERC20InvalidApprover",
      "type": "error"
    },
    {
      "inputs": [
        {
          "internalType": "address",
          "name": "receiver",
          "type": "address"
        }
      ],
      "name": "ERC20InvalidReceiver",
      "type": "error"
    },
    {
      "inputs": [
        {
          "internalType": "address",
          "name": "sender",
          "type": "address"
        }
      ],
      "name": "ERC20InvalidSender",
      "type": "error"
    },
    {
      "inputs": [
        {
          "internalType": "address",
          "name": "spender",
          "type": "address"
        }
      ],
      "name": "ERC20InvalidSpender",
      "type": "error"
    },
    {
      "inputs": [
        {
          "internalType": "address",
          "name": "token",
          "type": "address"
        }
      ],
      "name": "ERC20InvalidUnderlying",
      "type": "error"
    },
    {
      "inputs": [
        {
          "internalType": "uint256",
          "name": "deadline",
          "type": "uint256"
        }
      ],
      "name": "ERC2612ExpiredSignature",
      "type": "error"
    },
    {
      "inputs": [
        {
          "internalType": "address",
          "name": "signer",
          "type": "address"
        },
        {
          "internalType": "address",
          "name": "owner",
          "type": "address"
        }
      ],
      "name": "ERC2612InvalidSigner",
      "type": "error"
    },
    {
      "inputs": [
        {
          "internalType": "address",
          "name": "account",
          "type": "address"
        },
        {
          "internalType": "uint256",
          "name": "currentNonce",
          "type": "uint256"
        }
      ],
      "name": "InvalidAccountNonce",
      "type": "error"
    },
    {
      "inputs": [],
      "name": "InvalidShortString",
      "type": "error"
    },
    {
      "inputs": [
        {
          "internalType": "address",
          "name": "token",
          "type": "address"
        }
      ],
      "name": "SafeERC20FailedOperation",
      "type": "error"
    },
    {
      "inputs": [
        {
          "internalType": "string",
          "name": "str",
          "type": "string"
        }
      ],
      "name": "StringTooLong",
      "type": "error"
    },
    {
      "anonymous": false,
      "inputs": [
        {
          "indexed": true,
          "internalType": "address",
          "name": "owner",
          "type": "address"
        },
        {
          "indexed": true,
          "internalType": "address",
          "name": "spender",
          "type": "address"
        },
        {
          "indexed": false,
          "internalType": "uint256",
          "name": "value",
          "type": "uint256"
        }
      ],
      "name": "Approval",
      "type": "event"
    },
    {
      "anonymous": false,
      "inputs": [],
      "name": "EIP712DomainChanged",
      "type": "event"
    },
    {
      "anonymous": false,
      "inputs": [
        {
          "indexed": true,
          "internalType": "address",
          "name": "from",
          "type": "address"
        },
        {
          "indexed": true,
          "internalType": "address",
          "name": "to",
          "type": "address"
        },
        {
          "indexed": false,
          "internalType": "uint256",
          "name": "value",
          "type": "uint256"
        }
      ],
      "name": "Transfer",
      "type": "event"
    },
    {
      "inputs": [],
      "name": "DOMAIN_SEPARATOR",
      "outputs": [
        {
          "internalType": "bytes32",
          "name": "",
          "type": "bytes32"
        }
      ],
      "stateMutability": "view",
      "type": "function"
    },
    {
      "inputs": [
        {
          "internalType": "address",
          "name": "owner",
          "type": "address"
        },
        {
          "internalType": "address",
          "name": "spender",
          "type": "address"
        }
      ],
      "name": "allowance",
      "outputs": [
        {
          "internalType": "uint256",
          "name": "",
          "type": "uint256"
        }
      ],
      "stateMutability": "view",
      "type": "function"
    },
    {
      "inputs": [
        {
          "internalType": "address",
          "name": "spender",
          "type": "address"
        },
        {
          "internalType": "uint256",
          "name": "value",
          "type": "uint256"
        }
      ],
      "name": "approve",
      "outputs": [
        {
          "internalType": "bool",
          "name": "",
          "type": "bool"
        }
      ],
      "stateMutability": "nonpayable",
      "type": "function"
    },
    {
      "inputs": [
        {
          "internalType": "address",
          "name": "account",
          "type": "address"
        }
      ],
      "name": "balanceOf",
      "outputs": [
        {
          "internalType": "uint256",
          "name": "",
          "type": "uint256"
        }
      ],
      "stateMutability": "view",
      "type": "function"
    },
    {
      "inputs": [],
      "name": "decimals",
      "outputs": [
        {
          "internalType": "uint8",
          "name": "",
          "type": "uint8"
        }
      ],
      "stateMutability": "view",
      "type": "function"
    },
    {
      "inputs": [
        {
          "internalType": "address",
          "name": "account",
          "type": "address"
        },
        {
          "internalType": "uint256",
          "name": "value",
          "type": "uint256"
        }
      ],
      "name": "depositFor",
      "outputs": [
        {
          "internalType": "bool",
          "name": "",
          "type": "bool"
        }
      ],
      "stateMutability": "nonpayable",
      "type": "function"
    },
    {
      "inputs": [],
      "name": "eip712Domain",
      "outputs": [
        {
          "internalType": "bytes1",
          "name": "fields",
          "type": "bytes1"
        },
        {
          "internalType": "string",
          "name": "name",
          "type": "string"
        },
        {
          "internalType": "string",
          "name": "version",
          "type": "string"
        },
        {
          "internalType": "uint256",
          "name": "chainId",
          "type": "uint256"
        },
        {
          "internalType": "address",
          "name": "verifyingContract",
          "type": "address"
        },
        {
          "internalType": "bytes32",
          "name": "salt",
          "type": "bytes32"
        },
        {
          "internalType": "uint256[]",
          "name": "extensions",
          "type": "uint256[]"
        }
      ],
      "stateMutability": "view",
      "type": "function"
    },
    {
      "inputs": [
        {
          "internalType": "address[]",
          "name": "helpers",
          "type": "address[]"
        }
      ],
      "name": "halveHoldingDuration",
      "outputs": [],
      "stateMutability": "nonpayable",
      "type": "function"
    },
    {
      "inputs": [],
      "name": "name",
      "outputs": [
        {
          "internalType": "string",
          "name": "",
          "type": "string"
        }
      ],
      "stateMutability": "view",
      "type": "function"
    },
    {
      "inputs": [
        {
          "internalType": "address",
          "name": "owner",
          "type": "address"
        }
      ],
      "name": "nonces",
      "outputs": [
        {
          "internalType": "uint256",
          "name": "",
          "type": "uint256"
        }
      ],
      "stateMutability": "view",
      "type": "function"
    },
    {
      "inputs": [
        {
          "internalType": "address",
          "name": "owner",
          "type": "address"
        },
        {
          "internalType": "address",
          "name": "spender",
          "type": "address"
        },
        {
          "internalType": "uint256",
          "name": "value",
          "type": "uint256"
        },
        {
          "internalType": "uint256",
          "name": "deadline",
          "type": "uint256"
        },
        {
          "internalType": "uint8",
          "name": "v",
          "type": "uint8"
        },
        {
          "internalType": "bytes32",
          "name": "r",
          "type": "bytes32"
        },
        {
          "internalType": "bytes32",
          "name": "s",
          "type": "bytes32"
        }
      ],
      "name": "permit",
      "outputs": [],
      "stateMutability": "nonpayable",
      "type": "function"
    },
    {
      "inputs": [],
      "name": "symbol",
      "outputs": [
        {
          "internalType": "string",
          "name": "",
          "type": "string"
        }
      ],
      "stateMutability": "view",
      "type": "function"
    },
    {
      "inputs": [],
      "name": "totalSupply",
      "outputs": [
        {
          "internalType": "uint256",
          "name": "",
          "type": "uint256"
        }
      ],
      "stateMutability": "view",
      "type": "function"
    },
    {
      "inputs": [
        {
          "internalType": "address",
          "name": "to",
          "type": "address"
        },
        {
          "internalType": "uint256",
          "name": "value",
          "type": "uint256"
        }
      ],
      "name": "transfer",
      "outputs": [
        {
          "internalType": "bool",
          "name": "",
          "type": "bool"
        }
      ],
      "stateMutability": "nonpayable",
      "type": "function"
    },
    {
      "inputs": [
        {
          "internalType": "address",
          "name": "from",
          "type": "address"
        },
        {
          "internalType": "address",
          "name": "to",
          "type": "address"
        },
        {
          "internalType": "uint256",
          "name": "value",
          "type": "uint256"
        }
      ],
      "name": "transferFrom",
      "outputs": [
        {
          "internalType": "bool",
          "name": "",
          "type": "bool"
        }
      ],
      "stateMutability": "nonpayable",
      "type": "function"
    },
    {
      "inputs": [],
      "name": "underlying",
      "outputs": [
        {
          "internalType": "contract IERC20",
          "name": "",
          "type": "address"
        }
      ],
      "stateMutability": "view",
      "type": "function"
    },
    {
      "inputs": [
        {
          "internalType": "uint256",
          "name": "amount",
          "type": "uint256"
        }
      ],
      "name": "unwrap",
      "outputs": [],
      "stateMutability": "nonpayable",
      "type": "function"
    },
    {
      "inputs": [
        {
          "internalType": "uint256",
          "name": "amount",
          "type": "uint256"
        }
      ],
      "name": "unwrapAndSell",
      "outputs": [],
      "stateMutability": "nonpayable",
      "type": "function"
    },
    {
      "inputs": [
        {
          "internalType": "address",
          "name": "account",
          "type": "address"
        },
        {
          "internalType": "uint256",
          "name": "value",
          "type": "uint256"
        }
      ],
      "name": "withdrawTo",
      "outputs": [
        {
          "internalType": "bool",
          "name": "",
          "type": "bool"
        }
      ],
      "stateMutability": "nonpayable",
      "type": "function"
    },
    {
      "inputs": [
        {
          "internalType": "uint256",
          "name": "amount",
          "type": "uint256"
        }
      ],
      "name": "wrap",
      "outputs": [],
      "stateMutability": "nonpayable",
      "type": "function"
    }
  ],
  "transactionHash": "0x138ee9eced4b7f9192b979c3c06dc29ce3f052e0971f15294ae93455bc973b48",
  "args": [
    "0xC92aF56C354FCF641f4567a04fd7032013E8A314"
  ],
  "numDeployments": 2,
  "solcInputHash": "0449dda96396733b842fd7a2ae4fda4b",
  "bytecode": "0x6101a060405234801561001157600080fd5b50604051611b16380380611b1683398101604081905261003091610224565b80604051806060016040528060218152602001611af56021913980604051806040016040528060018152602001603160f81b815250604051806060016040528060218152602001611af5602191396040805180820190915260048152634445505360e01b602082015260036100a583826102f3565b5060046100b282826102f3565b506100c2915083905060056101b3565b610120526100d18160066101b3565b61014052815160208084019190912060e052815190820120610100524660a05261015e60e05161010051604080517f8b73c3c69bb8fe3d512ecc4cf759cc79239f7b179b0ffacaa9a75d522b39400f60208201529081019290925260608201524660808201523060a082015260009060c00160405160208183030381529060405280519060200120905090565b60805250503060c08190526001600160a01b03831603905061019a5760405163438d6fe360e01b81523060048201526024015b60405180910390fd5b6001600160a01b03908116610160521661018052610423565b60006020835110156101cf576101c8836101e6565b90506101e0565b816101da84826102f3565b5060ff90505b92915050565b600080829050601f81511115610211578260405163305a27a960e01b815260040161019191906103b1565b805161021c826103ff565b179392505050565b60006020828403121561023657600080fd5b81516001600160a01b038116811461024d57600080fd5b9392505050565b634e487b7160e01b600052604160045260246000fd5b600181811c9082168061027e57607f821691505b60208210810361029e57634e487b7160e01b600052602260045260246000fd5b50919050565b601f8211156102ee57806000526020600020601f840160051c810160208510156102cb5750805b601f840160051c820191505b818110156102eb57600081556001016102d7565b50505b505050565b81516001600160401b0381111561030c5761030c610254565b6103208161031a845461026a565b846102a4565b6020601f821160018114610354576000831561033c5750848201515b600019600385901b1c1916600184901b1784556102eb565b600084815260208120601f198516915b828110156103845787850151825560209485019460019092019101610364565b50848210156103a25786840151600019600387901b60f8161c191681555b50505050600190811b01905550565b602081526000825180602084015260005b818110156103df57602081860181015160408684010152016103c2565b506000604082850101526040601f19601f83011684010191505092915050565b8051602080830151919081101561029e5760001960209190910360031b1b16919050565b60805160a05160c05160e051610100516101205161014051610160516101805161163f6104b66000396000818161058e015281816105f901526106ca0152600081816101ec01528181610418015281816104c90152610aa001526000610c8601526000610c5901526000610c0101526000610bd901526000610b3401526000610b5e01526000610b88015261163f6000f3fe608060405234801561001057600080fd5b506004361061012c5760003560e01c80637ecebe00116100ad578063a9059cbb11610071578063a9059cbb1461029d578063d505accf146102b0578063dd62ed3e146102c3578063de0e9a3e146102fc578063ea598cb01461030f57600080fd5b80637ecebe001461023f57806384b0196e146102525780638747842b1461026d57806387481e731461028257806395d89b411461029557600080fd5b80632f4f21e2116100f45780632f4f21e2146101aa578063313ce567146101bd5780633644e515146101d75780636f307dc3146101df57806370a082311461021657600080fd5b806306fdde0314610131578063095ea7b31461014f57806318160ddd14610172578063205c28781461018457806323b872dd14610197575b600080fd5b610139610322565b6040516101469190611257565b60405180910390f35b61016261015d366004611288565b6103b4565b6040519015158152602001610146565b6002545b604051908152602001610146565b610162610192366004611288565b6103ce565b6101626101a53660046112b2565b610447565b6101626101b8366004611288565b61046b565b6101c56104fa565b60405160ff9091168152602001610146565b610176610509565b6040516001600160a01b037f0000000000000000000000000000000000000000000000000000000000000000168152602001610146565b6101766102243660046112ef565b6001600160a01b031660009081526020819052604090205490565b61017661024d3660046112ef565b610513565b61025a610531565b604051610146979695949392919061130a565b61028061027b3660046113a2565b610577565b005b610280610290366004611419565b6106a4565b610139610743565b6101626102ab366004611288565b610752565b6102806102be366004611444565b610760565b6101766102d13660046114b1565b6001600160a01b03918216600090815260016020908152604080832093909416825291909152205490565b61028061030a366004611419565b61089a565b61028061031d366004611419565b6108a4565b606060038054610331906114e4565b80601f016020809104026020016040519081016040528092919081815260200182805461035d906114e4565b80156103aa5780601f1061037f576101008083540402835291602001916103aa565b820191906000526020600020905b81548152906001019060200180831161038d57829003601f168201915b5050505050905090565b6000336103c28185856108ae565b60019150505b92915050565b6000306001600160a01b038416036104095760405163ec442f0560e01b81526001600160a01b03841660048201526024015b60405180910390fd5b61041333836108bb565b61043e7f000000000000000000000000000000000000000000000000000000000000000084846108f1565b50600192915050565b600033610455858285610950565b6104608585856109ce565b506001949350505050565b60003330810361049057604051634b637e8f60e11b8152306004820152602401610400565b306001600160a01b038516036104c45760405163ec442f0560e01b81526001600160a01b0385166004820152602401610400565b6104f07f0000000000000000000000000000000000000000000000000000000000000000823086610a2d565b6103c28484610a66565b6000610504610a9c565b905090565b6000610504610b27565b6001600160a01b0381166000908152600760205260408120546103c8565b600060608060008060006060610545610c52565b61054d610c7f565b60408051600080825260208201909252600f60f81b9b939a50919850469750309650945092509050565b60405163352e3a8360e01b81526001600160a01b037f0000000000000000000000000000000000000000000000000000000000000000169063352e3a83906105c79033908690869060040161151e565b60006040518083038186803b1580156105df57600080fd5b505afa1580156105f3573d6000803e3d6000fd5b505050507f00000000000000000000000000000000000000000000000000000000000000006001600160a01b031663a9059cbb3061063060025490565b6040516001600160e01b031960e085901b1681526001600160a01b03909216600483015260248201526044016020604051808303816000875af115801561067b573d6000803e3d6000fd5b505050506040513d601f19601f8201168201806040525081019061069f919061157a565b505050565b6106ae33826108bb565b6040516301e9a69560e41b8152336004820152602481018290527f00000000000000000000000000000000000000000000000000000000000000006001600160a01b031690631e9a6950906044016020604051808303816000875af115801561071b573d6000803e3d6000fd5b505050506040513d601f19601f8201168201806040525081019061073f919061159c565b5050565b606060048054610331906114e4565b6000336103c28185856109ce565b834211156107845760405163313c898160e11b815260048101859052602401610400565b60007f6e71edae12b1b97f4d1f60370fef10105fa2faae0126114a169c64845d6126c98888886107d18c6001600160a01b0316600090815260076020526040902080546001810190915590565b6040805160208101969096526001600160a01b0394851690860152929091166060840152608083015260a082015260c0810186905260e001604051602081830303815290604052805190602001209050600061082c82610cac565b9050600061083c82878787610cd9565b9050896001600160a01b0316816001600160a01b031614610883576040516325c0072360e11b81526001600160a01b0380831660048301528b166024820152604401610400565b61088e8a8a8a6108ae565b50505050505050505050565b61073f33826103ce565b61073f338261046b565b61069f8383836001610d07565b6001600160a01b0382166108e557604051634b637e8f60e11b815260006004820152602401610400565b61073f82600083610ddc565b6040516001600160a01b0383811660248301526044820183905261069f91859182169063a9059cbb906064015b604051602081830303815290604052915060e01b6020820180516001600160e01b038381831617835250505050610f06565b6001600160a01b0383811660009081526001602090815260408083209386168352929052205460001981146109c857818110156109b957604051637dc7a0d960e11b81526001600160a01b03841660048201526024810182905260448101839052606401610400565b6109c884848484036000610d07565b50505050565b6001600160a01b0383166109f857604051634b637e8f60e11b815260006004820152602401610400565b6001600160a01b038216610a225760405163ec442f0560e01b815260006004820152602401610400565b61069f838383610ddc565b6040516001600160a01b0384811660248301528381166044830152606482018390526109c89186918216906323b872dd9060840161091e565b6001600160a01b038216610a905760405163ec442f0560e01b815260006004820152602401610400565b61073f60008383610ddc565b60007f00000000000000000000000000000000000000000000000000000000000000006001600160a01b031663313ce5676040518163ffffffff1660e01b8152600401602060405180830381865afa925050508015610b18575060408051601f3d908101601f19168201909252610b15918101906115b5565b60015b610b225750601290565b919050565b6000306001600160a01b037f000000000000000000000000000000000000000000000000000000000000000016148015610b8057507f000000000000000000000000000000000000000000000000000000000000000046145b15610baa57507f000000000000000000000000000000000000000000000000000000000000000090565b610504604080517f8b73c3c69bb8fe3d512ecc4cf759cc79239f7b179b0ffacaa9a75d522b39400f60208201527f0000000000000000000000000000000000000000000000000000000000000000918101919091527f000000000000000000000000000000000000000000000000000000000000000060608201524660808201523060a082015260009060c00160405160208183030381529060405280519060200120905090565b60606105047f00000000000000000000000000000000000000000000000000000000000000006005610f77565b60606105047f00000000000000000000000000000000000000000000000000000000000000006006610f77565b60006103c8610cb9610b27565b8360405161190160f01b8152600281019290925260228201526042902090565b600080600080610ceb88888888611022565b925092509250610cfb82826110f1565b50909695505050505050565b6001600160a01b038416610d315760405163e602df0560e01b815260006004820152602401610400565b6001600160a01b038316610d5b57604051634a1406b160e11b815260006004820152602401610400565b6001600160a01b03808516600090815260016020908152604080832093871683529290522082905580156109c857826001600160a01b0316846001600160a01b03167f8c5be1e5ebec7d5bd14f71427d1e84f3dd0314c0f7b2291e5b200ac8c7c3b92584604051610dce91815260200190565b60405180910390a350505050565b6001600160a01b038316610e07578060026000828254610dfc91906115d2565b90915550610e799050565b6001600160a01b03831660009081526020819052604090205481811015610e5a5760405163391434e360e21b81526001600160a01b03851660048201526024810182905260448101839052606401610400565b6001600160a01b03841660009081526020819052604090209082900390555b6001600160a01b038216610e9557600280548290039055610eb4565b6001600160a01b03821660009081526020819052604090208054820190555b816001600160a01b0316836001600160a01b03167fddf252ad1be2c89b69c2b068fc378daa952ba7f163c4a11628f55a4df523b3ef83604051610ef991815260200190565b60405180910390a3505050565b600080602060008451602086016000885af180610f29576040513d6000823e3d81fd5b50506000513d91508115610f41578060011415610f4e565b6001600160a01b0384163b155b156109c857604051635274afe760e01b81526001600160a01b0385166004820152602401610400565b606060ff8314610f9157610f8a836111aa565b90506103c8565b818054610f9d906114e4565b80601f0160208091040260200160405190810160405280929190818152602001828054610fc9906114e4565b80156110165780601f10610feb57610100808354040283529160200191611016565b820191906000526020600020905b815481529060010190602001808311610ff957829003601f168201915b505050505090506103c8565b600080807f7fffffffffffffffffffffffffffffff5d576e7357a4501ddfe92f46681b20a084111561105d57506000915060039050826110e7565b604080516000808252602082018084528a905260ff891692820192909252606081018790526080810186905260019060a0016020604051602081039080840390855afa1580156110b1573d6000803e3d6000fd5b5050604051601f1901519150506001600160a01b0381166110dd575060009250600191508290506110e7565b9250600091508190505b9450945094915050565b6000826003811115611105576111056115f3565b0361110e575050565b6001826003811115611122576111226115f3565b036111405760405163f645eedf60e01b815260040160405180910390fd5b6002826003811115611154576111546115f3565b036111755760405163fce698f760e01b815260048101829052602401610400565b6003826003811115611189576111896115f3565b0361073f576040516335e2f38360e21b815260048101829052602401610400565b606060006111b7836111e9565b604080516020808252818301909252919250600091906020820181803683375050509182525060208101929092525090565b600060ff8216601f8111156103c857604051632cd44ac360e21b815260040160405180910390fd5b6000815180845260005b818110156112375760208185018101518683018201520161121b565b506000602082860101526020601f19601f83011685010191505092915050565b60208152600061126a6020830184611211565b9392505050565b80356001600160a01b0381168114610b2257600080fd5b6000806040838503121561129b57600080fd5b6112a483611271565b946020939093013593505050565b6000806000606084860312156112c757600080fd5b6112d084611271565b92506112de60208501611271565b929592945050506040919091013590565b60006020828403121561130157600080fd5b61126a82611271565b60ff60f81b8816815260e06020820152600061132960e0830189611211565b828103604084015261133b8189611211565b606084018890526001600160a01b038716608085015260a0840186905283810360c08501528451808252602080870193509091019060005b81811015611391578351835260209384019390920191600101611373565b50909b9a5050505050505050505050565b600080602083850312156113b557600080fd5b823567ffffffffffffffff8111156113cc57600080fd5b8301601f810185136113dd57600080fd5b803567ffffffffffffffff8111156113f457600080fd5b8560208260051b840101111561140957600080fd5b6020919091019590945092505050565b60006020828403121561142b57600080fd5b5035919050565b60ff8116811461144157600080fd5b50565b600080600080600080600060e0888a03121561145f57600080fd5b61146888611271565b965061147660208901611271565b95506040880135945060608801359350608088013561149481611432565b9699959850939692959460a0840135945060c09093013592915050565b600080604083850312156114c457600080fd5b6114cd83611271565b91506114db60208401611271565b90509250929050565b600181811c908216806114f857607f821691505b60208210810361151857634e487b7160e01b600052602260045260246000fd5b50919050565b6001600160a01b0384168152604060208201819052810182905260008360608301825b8581101561156f576001600160a01b0361155a84611271565b16825260209283019290910190600101611541565b509695505050505050565b60006020828403121561158c57600080fd5b8151801515811461126a57600080fd5b6000602082840312156115ae57600080fd5b5051919050565b6000602082840312156115c757600080fd5b815161126a81611432565b808201808211156103c857634e487b7160e01b600052601160045260246000fd5b634e487b7160e01b600052602160045260246000fdfea2646970667358221220cc9a2003b5efd6da020a34ec8e2d37c28f1e453503fc6fe12120ca90ed69f25264736f6c634300081a0033446563656e7472616c697a6564204575726f2050726f746f636f6c205368617265",
  "devdoc": {
    "errors": {
      "ECDSAInvalidSignature()": [
        {
          "details": "The signature derives the `address(0)`."
        }
      ],
      "ECDSAInvalidSignatureLength(uint256)": [
        {
          "details": "The signature has an invalid length."
        }
      ],
      "ECDSAInvalidSignatureS(bytes32)": [
        {
          "details": "The signature has an S value that is in the upper half order."
        }
      ],
      "ERC20InsufficientAllowance(address,uint256,uint256)": [
        {
          "details": "Indicates a failure with the `spender`s `allowance`. Used in transfers.",
          "params": {
            "allowance": "Amount of tokens a `spender` is allowed to operate with.",
            "needed": "Minimum amount required to perform a transfer.",
            "spender": "Address that may be allowed to operate on tokens without being their owner."
          }
        }
      ],
      "ERC20InsufficientBalance(address,uint256,uint256)": [
        {
          "details": "Indicates an error related to the current `balance` of a `sender`. Used in transfers.",
          "params": {
            "balance": "Current balance for the interacting account.",
            "needed": "Minimum amount required to perform a transfer.",
            "sender": "Address whose tokens are being transferred."
          }
        }
      ],
      "ERC20InvalidApprover(address)": [
        {
          "details": "Indicates a failure with the `approver` of a token to be approved. Used in approvals.",
          "params": {
            "approver": "Address initiating an approval operation."
          }
        }
      ],
      "ERC20InvalidReceiver(address)": [
        {
          "details": "Indicates a failure with the token `receiver`. Used in transfers.",
          "params": {
            "receiver": "Address to which tokens are being transferred."
          }
        }
      ],
      "ERC20InvalidSender(address)": [
        {
          "details": "Indicates a failure with the token `sender`. Used in transfers.",
          "params": {
            "sender": "Address whose tokens are being transferred."
          }
        }
      ],
      "ERC20InvalidSpender(address)": [
        {
          "details": "Indicates a failure with the `spender` to be approved. Used in approvals.",
          "params": {
            "spender": "Address that may be allowed to operate on tokens without being their owner."
          }
        }
      ],
      "ERC20InvalidUnderlying(address)": [
        {
          "details": "The underlying token couldn't be wrapped."
        }
      ],
      "ERC2612ExpiredSignature(uint256)": [
        {
          "details": "Permit deadline has expired."
        }
      ],
      "ERC2612InvalidSigner(address,address)": [
        {
          "details": "Mismatched signature."
        }
      ],
      "InvalidAccountNonce(address,uint256)": [
        {
          "details": "The nonce used for an `account` is not the expected current nonce."
        }
      ],
      "SafeERC20FailedOperation(address)": [
        {
          "details": "An operation with an ERC-20 token failed."
        }
      ]
    },
    "events": {
      "Approval(address,address,uint256)": {
        "details": "Emitted when the allowance of a `spender` for an `owner` is set by a call to {approve}. `value` is the new allowance."
      },
      "EIP712DomainChanged()": {
        "details": "MAY be emitted to signal that the domain could have changed."
      },
      "Transfer(address,address,uint256)": {
        "details": "Emitted when `value` tokens are moved from one account (`from`) to another (`to`). Note that `value` may be zero."
      }
    },
    "kind": "dev",
    "methods": {
      "DOMAIN_SEPARATOR()": {
        "details": "Returns the domain separator used in the encoding of the signature for {permit}, as defined by {EIP712}."
      },
      "allowance(address,address)": {
        "details": "See {IERC20-allowance}."
      },
      "approve(address,uint256)": {
        "details": "See {IERC20-approve}. NOTE: If `value` is the maximum `uint256`, the allowance is not updated on `transferFrom`. This is semantically equivalent to an infinite approval. Requirements: - `spender` cannot be the zero address."
      },
      "balanceOf(address)": {
        "details": "See {IERC20-balanceOf}."
      },
      "depositFor(address,uint256)": {
        "details": "Allow a user to deposit underlying tokens and mint the corresponding number of wrapped tokens."
      },
      "eip712Domain()": {
        "details": "See {IERC-5267}."
      },
      "name()": {
        "details": "Returns the name of the token."
      },
      "nonces(address)": {
        "details": "Returns the current nonce for `owner`. This value must be included whenever a signature is generated for {permit}. Every successful call to {permit} increases ``owner``'s nonce by one. This prevents a signature from being used multiple times."
      },
      "permit(address,address,uint256,uint256,uint8,bytes32,bytes32)": {
        "details": "Sets `value` as the allowance of `spender` over ``owner``'s tokens, given ``owner``'s signed approval. IMPORTANT: The same issues {IERC20-approve} has related to transaction ordering also apply here. Emits an {Approval} event. Requirements: - `spender` cannot be the zero address. - `deadline` must be a timestamp in the future. - `v`, `r` and `s` must be a valid `secp256k1` signature from `owner` over the EIP712-formatted function arguments. - the signature must use ``owner``'s current nonce (see {nonces}). For more information on the signature format, see the https://eips.ethereum.org/EIPS/eip-2612#specification[relevant EIP section]. CAUTION: See Security Considerations above."
      },
      "symbol()": {
        "details": "Returns the symbol of the token, usually a shorter version of the name."
      },
      "totalSupply()": {
        "details": "See {IERC20-totalSupply}."
      },
      "transfer(address,uint256)": {
        "details": "See {IERC20-transfer}. Requirements: - `to` cannot be the zero address. - the caller must have a balance of at least `value`."
      },
      "transferFrom(address,address,uint256)": {
        "details": "See {IERC20-transferFrom}. Skips emitting an {Approval} event indicating an allowance update. This is not required by the ERC. See {xref-ERC20-_approve-address-address-uint256-bool-}[_approve]. NOTE: Does not update the allowance if the current allowance is the maximum `uint256`. Requirements: - `from` and `to` cannot be the zero address. - `from` must have a balance of at least `value`. - the caller must have allowance for ``from``'s tokens of at least `value`."
      },
      "underlying()": {
        "details": "Returns the address of the underlying ERC-20 token that is being wrapped."
      },
      "withdrawTo(address,uint256)": {
        "details": "Allow a user to burn a number of wrapped tokens and withdraw the corresponding number of underlying tokens."
      }
    },
    "version": 1
  },
  "userdoc": {
    "kind": "user",
    "methods": {
      "halveHoldingDuration(address[])": {
        "notice": "Reduces the recorded holding duration of the wrapped nDEPS. This has two effects: - Averts the risk of this contract accumulating too many votes over time (i.e. 98%) - Can prevent \"unwrapAndSell\" from succeeding (which can be desired to prevent short   term arbitrage at the cost of all other nDEPS holders) Anyone with 2% of the votes can call this."
      },
      "unwrapAndSell(uint256)": {
        "notice": "Sell immediately, bypassing the 90 day holding requirement if the average wrapped token has been around for long enough and no one cancelled the votes of this contract. Can help with market making between chains when this token is bridged. Anyone can prevent this method from being executable via the halveHoldingDuration function. Also, it won't be executable in an expanding market where the number of wrapped nDEPS doubles every 90 days such that the average holding period of this contract stays below that duration."
      }
    },
    "version": 1
  },
  "storageLayout": {
    "storage": [
      {
        "astId": 422,
        "contract": "contracts/utils/DEPSWrapper.sol:DEPSWrapper",
        "label": "_balances",
        "offset": 0,
        "slot": "0",
        "type": "t_mapping(t_address,t_uint256)"
      },
      {
        "astId": 428,
        "contract": "contracts/utils/DEPSWrapper.sol:DEPSWrapper",
        "label": "_allowances",
        "offset": 0,
        "slot": "1",
        "type": "t_mapping(t_address,t_mapping(t_address,t_uint256))"
      },
      {
        "astId": 430,
        "contract": "contracts/utils/DEPSWrapper.sol:DEPSWrapper",
        "label": "_totalSupply",
        "offset": 0,
        "slot": "2",
        "type": "t_uint256"
      },
      {
        "astId": 432,
        "contract": "contracts/utils/DEPSWrapper.sol:DEPSWrapper",
        "label": "_name",
        "offset": 0,
        "slot": "3",
        "type": "t_string_storage"
      },
      {
        "astId": 434,
        "contract": "contracts/utils/DEPSWrapper.sol:DEPSWrapper",
        "label": "_symbol",
        "offset": 0,
        "slot": "4",
        "type": "t_string_storage"
      },
      {
        "astId": 3309,
        "contract": "contracts/utils/DEPSWrapper.sol:DEPSWrapper",
        "label": "_nameFallback",
        "offset": 0,
        "slot": "5",
        "type": "t_string_storage"
      },
      {
        "astId": 3311,
        "contract": "contracts/utils/DEPSWrapper.sol:DEPSWrapper",
        "label": "_versionFallback",
        "offset": 0,
        "slot": "6",
        "type": "t_string_storage"
      },
      {
        "astId": 2157,
        "contract": "contracts/utils/DEPSWrapper.sol:DEPSWrapper",
        "label": "_nonces",
        "offset": 0,
        "slot": "7",
        "type": "t_mapping(t_address,t_uint256)"
      }
    ],
    "types": {
      "t_address": {
        "encoding": "inplace",
        "label": "address",
        "numberOfBytes": "20"
      },
      "t_mapping(t_address,t_mapping(t_address,t_uint256))": {
        "encoding": "mapping",
        "key": "t_address",
        "label": "mapping(address => mapping(address => uint256))",
        "numberOfBytes": "32",
        "value": "t_mapping(t_address,t_uint256)"
      },
      "t_mapping(t_address,t_uint256)": {
        "encoding": "mapping",
        "key": "t_address",
        "label": "mapping(address => uint256)",
        "numberOfBytes": "32",
        "value": "t_uint256"
      },
      "t_string_storage": {
        "encoding": "bytes",
        "label": "string",
        "numberOfBytes": "32"
      },
      "t_uint256": {
        "encoding": "inplace",
        "label": "uint256",
        "numberOfBytes": "32"
      }
    }
  }
}