{
  "address": "0x3728c472bfD43D84A8A108dfbF5C16Fc538F1dC5",
  "abi": [
    {
      "inputs": [
        {
          "internalType": "uint256",
          "name": "_minApplicationPeriod",
          "type": "uint256"
        }
      ],
      "stateMutability": "nonpayable",
      "type": "constructor"
    },
    {
      "anonymous": false,
      "inputs": [
        {
          "indexed": true,
          "internalType": "address",
          "name": "owner",
          "type": "address"
        },
        {
          "indexed": true,
          "internalType": "address",
          "name": "spender",
          "type": "address"
        },
        {
          "indexed": false,
          "internalType": "uint256",
          "name": "value",
          "type": "uint256"
        }
      ],
      "name": "Approval",
      "type": "event"
    },
    {
      "anonymous": false,
      "inputs": [
        {
          "indexed": true,
          "internalType": "address",
          "name": "minter",
          "type": "address"
        },
        {
          "indexed": false,
          "internalType": "uint256",
          "name": "applicationPeriod",
          "type": "uint256"
        },
        {
          "indexed": false,
          "internalType": "uint256",
          "name": "applicationFee",
          "type": "uint256"
        },
        {
          "indexed": false,
          "internalType": "string",
          "name": "message",
          "type": "string"
        }
      ],
      "name": "MinterApplied",
      "type": "event"
    },
    {
      "anonymous": false,
      "inputs": [
        {
          "indexed": true,
          "internalType": "address",
          "name": "minter",
          "type": "address"
        },
        {
          "indexed": false,
          "internalType": "string",
          "name": "message",
          "type": "string"
        }
      ],
      "name": "MinterDenied",
      "type": "event"
    },
    {
      "anonymous": false,
      "inputs": [
        {
          "indexed": true,
          "internalType": "address",
          "name": "from",
          "type": "address"
        },
        {
          "indexed": true,
          "internalType": "address",
          "name": "to",
          "type": "address"
        },
        {
          "indexed": false,
          "internalType": "uint256",
          "name": "value",
          "type": "uint256"
        }
      ],
      "name": "Transfer",
      "type": "event"
    },
    {
      "inputs": [],
      "name": "DOMAIN_SEPARATOR",
      "outputs": [
        {
          "internalType": "bytes32",
          "name": "",
          "type": "bytes32"
        }
      ],
      "stateMutability": "view",
      "type": "function"
    },
    {
      "inputs": [],
      "name": "MIN_APPLICATION_PERIOD",
      "outputs": [
        {
          "internalType": "uint256",
          "name": "",
          "type": "uint256"
        }
      ],
      "stateMutability": "view",
      "type": "function"
    },
    {
      "inputs": [],
      "name": "MIN_FEE",
      "outputs": [
        {
          "internalType": "uint256",
          "name": "",
          "type": "uint256"
        }
      ],
      "stateMutability": "view",
      "type": "function"
    },
    {
      "inputs": [
        {
          "internalType": "address",
          "name": "owner",
          "type": "address"
        },
        {
          "internalType": "address",
          "name": "spender",
          "type": "address"
        }
      ],
      "name": "allowance",
      "outputs": [
        {
          "internalType": "uint256",
          "name": "",
          "type": "uint256"
        }
      ],
      "stateMutability": "view",
      "type": "function"
    },
    {
      "inputs": [
        {
          "internalType": "address",
          "name": "spender",
          "type": "address"
        },
        {
          "internalType": "uint256",
          "name": "value",
          "type": "uint256"
        }
      ],
      "name": "approve",
      "outputs": [
        {
          "internalType": "bool",
          "name": "",
          "type": "bool"
        }
      ],
      "stateMutability": "nonpayable",
      "type": "function"
    },
    {
      "inputs": [
        {
          "internalType": "address",
          "name": "account",
          "type": "address"
        }
      ],
      "name": "balanceOf",
      "outputs": [
        {
          "internalType": "uint256",
          "name": "",
          "type": "uint256"
        }
      ],
      "stateMutability": "view",
      "type": "function"
    },
    {
      "inputs": [
        {
          "internalType": "uint256",
          "name": "_amount",
          "type": "uint256"
        }
      ],
      "name": "burn",
      "outputs": [],
      "stateMutability": "nonpayable",
      "type": "function"
    },
    {
      "inputs": [
        {
          "internalType": "uint256",
          "name": "amount",
          "type": "uint256"
        },
        {
          "internalType": "uint32",
          "name": "reservePPM",
          "type": "uint32"
        }
      ],
      "name": "burn",
      "outputs": [],
      "stateMutability": "nonpayable",
      "type": "function"
    },
    {
      "inputs": [
        {
          "internalType": "address",
          "name": "_owner",
          "type": "address"
        },
        {
          "internalType": "uint256",
          "name": "_amount",
          "type": "uint256"
        }
      ],
      "name": "burn",
      "outputs": [],
      "stateMutability": "nonpayable",
      "type": "function"
    },
    {
      "inputs": [
        {
          "internalType": "address",
          "name": "payer",
          "type": "address"
        },
        {
          "internalType": "uint256",
          "name": "targetTotalBurnAmount",
          "type": "uint256"
        },
        {
          "internalType": "uint32",
          "name": "_reservePPM",
          "type": "uint32"
        }
      ],
      "name": "burnFrom",
      "outputs": [
        {
          "internalType": "uint256",
          "name": "",
          "type": "uint256"
        }
      ],
      "stateMutability": "nonpayable",
      "type": "function"
    },
    {
      "inputs": [
        {
          "internalType": "uint256",
          "name": "_amountExcludingReserve",
          "type": "uint256"
        },
        {
          "internalType": "uint32",
          "name": "_reservePPM",
          "type": "uint32"
        }
      ],
      "name": "burnWithReserve",
      "outputs": [
        {
          "internalType": "uint256",
          "name": "",
          "type": "uint256"
        }
      ],
      "stateMutability": "nonpayable",
      "type": "function"
    },
    {
      "inputs": [
        {
          "internalType": "uint256",
          "name": "mintedAmount",
          "type": "uint256"
        },
        {
          "internalType": "uint32",
          "name": "_reservePPM",
          "type": "uint32"
        }
      ],
      "name": "calculateAssignedReserve",
      "outputs": [
        {
          "internalType": "uint256",
          "name": "",
          "type": "uint256"
        }
      ],
      "stateMutability": "view",
      "type": "function"
    },
    {
      "inputs": [],
      "name": "decimals",
      "outputs": [
        {
          "internalType": "uint8",
          "name": "",
          "type": "uint8"
        }
      ],
      "stateMutability": "view",
      "type": "function"
    },
    {
      "inputs": [
        {
          "internalType": "address",
          "name": "_minter",
          "type": "address"
        },
        {
          "internalType": "address[]",
          "name": "_helpers",
          "type": "address[]"
        },
        {
          "internalType": "string",
          "name": "_message",
          "type": "string"
        }
      ],
      "name": "denyMinter",
      "outputs": [],
      "stateMutability": "nonpayable",
      "type": "function"
    },
    {
      "inputs": [],
      "name": "equity",
      "outputs": [
        {
          "internalType": "uint256",
          "name": "",
          "type": "uint256"
        }
      ],
      "stateMutability": "view",
      "type": "function"
    },
    {
      "inputs": [
        {
          "internalType": "address",
          "name": "_minter",
          "type": "address"
        }
      ],
      "name": "isMinter",
      "outputs": [
        {
          "internalType": "bool",
          "name": "",
          "type": "bool"
        }
      ],
      "stateMutability": "view",
      "type": "function"
    },
    {
      "inputs": [
        {
          "internalType": "address",
          "name": "_position",
          "type": "address"
        }
      ],
      "name": "isPosition",
      "outputs": [
        {
          "internalType": "address",
          "name": "",
          "type": "address"
        }
      ],
      "stateMutability": "view",
      "type": "function"
    },
    {
      "inputs": [
        {
          "internalType": "address",
          "name": "_target",
          "type": "address"
        },
        {
          "internalType": "uint256",
          "name": "_amount",
          "type": "uint256"
        }
      ],
      "name": "mint",
      "outputs": [],
      "stateMutability": "nonpayable",
      "type": "function"
    },
    {
      "inputs": [
        {
          "internalType": "address",
          "name": "_target",
          "type": "address"
        },
        {
          "internalType": "uint256",
          "name": "_amount",
          "type": "uint256"
        },
        {
          "internalType": "uint32",
          "name": "_reservePPM",
          "type": "uint32"
        },
        {
          "internalType": "uint32",
          "name": "_feesPPM",
          "type": "uint32"
        }
      ],
      "name": "mint",
      "outputs": [],
      "stateMutability": "nonpayable",
      "type": "function"
    },
    {
      "inputs": [],
      "name": "minterReserve",
      "outputs": [
        {
          "internalType": "uint256",
          "name": "",
          "type": "uint256"
        }
      ],
      "stateMutability": "view",
      "type": "function"
    },
    {
      "inputs": [
        {
          "internalType": "address",
          "name": "",
          "type": "address"
        }
      ],
      "name": "minters",
      "outputs": [
        {
          "internalType": "uint256",
          "name": "",
          "type": "uint256"
        }
      ],
      "stateMutability": "view",
      "type": "function"
    },
    {
      "inputs": [],
      "name": "name",
      "outputs": [
        {
          "internalType": "string",
          "name": "",
          "type": "string"
        }
      ],
      "stateMutability": "pure",
      "type": "function"
    },
    {
      "inputs": [
        {
          "internalType": "address",
          "name": "",
          "type": "address"
        }
      ],
      "name": "nonces",
      "outputs": [
        {
          "internalType": "uint256",
          "name": "",
          "type": "uint256"
        }
      ],
      "stateMutability": "view",
      "type": "function"
    },
    {
      "inputs": [
        {
          "internalType": "uint256",
          "name": "_amount",
          "type": "uint256"
        }
      ],
      "name": "notifyLoss",
      "outputs": [],
      "stateMutability": "nonpayable",
      "type": "function"
    },
    {
      "inputs": [
        {
          "internalType": "address",
          "name": "owner",
          "type": "address"
        },
        {
          "internalType": "address",
          "name": "spender",
          "type": "address"
        },
        {
          "internalType": "uint256",
          "name": "value",
          "type": "uint256"
        },
        {
          "internalType": "uint256",
          "name": "deadline",
          "type": "uint256"
        },
        {
          "internalType": "uint8",
          "name": "v",
          "type": "uint8"
        },
        {
          "internalType": "bytes32",
          "name": "r",
          "type": "bytes32"
        },
        {
          "internalType": "bytes32",
          "name": "s",
          "type": "bytes32"
        }
      ],
      "name": "permit",
      "outputs": [],
      "stateMutability": "nonpayable",
      "type": "function"
    },
    {
      "inputs": [
        {
          "internalType": "address",
          "name": "",
          "type": "address"
        }
      ],
      "name": "positions",
      "outputs": [
        {
          "internalType": "address",
          "name": "",
          "type": "address"
        }
      ],
      "stateMutability": "view",
      "type": "function"
    },
    {
      "inputs": [
        {
          "internalType": "address",
          "name": "_position",
          "type": "address"
        }
      ],
      "name": "registerPosition",
      "outputs": [],
      "stateMutability": "nonpayable",
      "type": "function"
    },
    {
      "inputs": [],
      "name": "reserve",
      "outputs": [
        {
          "internalType": "contract IReserve",
          "name": "",
          "type": "address"
        }
      ],
      "stateMutability": "view",
      "type": "function"
    },
    {
      "inputs": [
        {
          "internalType": "address",
          "name": "_minter",
          "type": "address"
        },
        {
          "internalType": "uint256",
          "name": "_applicationPeriod",
          "type": "uint256"
        },
        {
          "internalType": "uint256",
          "name": "_applicationFee",
          "type": "uint256"
        },
        {
          "internalType": "string",
          "name": "_message",
          "type": "string"
        }
      ],
      "name": "suggestMinter",
      "outputs": [],
      "stateMutability": "nonpayable",
      "type": "function"
    },
    {
      "inputs": [],
      "name": "symbol",
      "outputs": [
        {
          "internalType": "string",
          "name": "",
          "type": "string"
        }
      ],
      "stateMutability": "pure",
      "type": "function"
    },
    {
      "inputs": [],
      "name": "totalSupply",
      "outputs": [
        {
          "internalType": "uint256",
          "name": "",
          "type": "uint256"
        }
      ],
      "stateMutability": "view",
      "type": "function"
    },
    {
      "inputs": [
        {
          "internalType": "address",
          "name": "recipient",
          "type": "address"
        },
        {
          "internalType": "uint256",
          "name": "amount",
          "type": "uint256"
        }
      ],
      "name": "transfer",
      "outputs": [
        {
          "internalType": "bool",
          "name": "",
          "type": "bool"
        }
      ],
      "stateMutability": "nonpayable",
      "type": "function"
    },
    {
      "inputs": [
        {
          "internalType": "address",
          "name": "recipient",
          "type": "address"
        },
        {
          "internalType": "uint256",
          "name": "amount",
          "type": "uint256"
        },
        {
          "internalType": "bytes",
          "name": "data",
          "type": "bytes"
        }
      ],
      "name": "transferAndCall",
      "outputs": [
        {
          "internalType": "bool",
          "name": "",
          "type": "bool"
        }
      ],
      "stateMutability": "nonpayable",
      "type": "function"
    },
    {
      "inputs": [
        {
          "internalType": "address",
          "name": "sender",
          "type": "address"
        },
        {
          "internalType": "address",
          "name": "recipient",
          "type": "address"
        },
        {
          "internalType": "uint256",
          "name": "amount",
          "type": "uint256"
        }
      ],
      "name": "transferFrom",
      "outputs": [
        {
          "internalType": "bool",
          "name": "",
          "type": "bool"
        }
      ],
      "stateMutability": "nonpayable",
      "type": "function"
    }
  ],
  "transactionHash": "0x6fdc02bd146404240530bae17c05c7495fb8055a6d348907f1dc5194cf74222d",
  "args": [
    900
  ],
  "numDeployments": 1,
  "solcInputHash": "136145d8f7fed417ceaceee7a052d74d",
  "bytecode": "0x60e06040523480156200001157600080fd5b50604051620038593803806200385983398101604081905262000034916200009d565b601260805260a081905260405130906200004e906200008f565b6001600160a01b039091168152602001604051809103906000f0801580156200007b573d6000803e3d6000fd5b506001600160a01b031660c05250620000b7565b611ad68062001d8383390190565b600060208284031215620000b057600080fd5b5051919050565b60805160a05160c051611c486200013b600039600081816104e7015281816105e4015281816108a9015281816108ec015281816109170152818161095a01528181610a2001528181610c5b01528181610d1601528181610edf0152818161105501526113410152600081816102980152610f36015260006103160152611c486000f3fe608060405234801561001057600080fd5b50600436106102065760003560e01c806391a0ac6a1161011a578063b52c696d116100ad578063d38bb0091161007c578063d38bb0091461051c578063d505accf14610524578063dd62ed3e14610537578063ea889b8a14610570578063f46eccc41461058357600080fd5b8063b52c696d146104bc578063cbca628e146104cf578063cd3293de146104e2578063d1a15ff11461050957600080fd5b80639dc29fac116100e95780639dc29fac14610470578063a47d75ad14610483578063a9059cbb14610496578063aa271e1a146104a957600080fd5b806391a0ac6a1461042257806395d89b411461042a5780639b404da61461044a5780639cc063581461045d57600080fd5b80633644e5151161019d57806355f575101161016c57806355f575101461038d57806361f3d110146103b657806370a08231146103c957806376c7a3c7146103f25780637ecebe001461040257600080fd5b80633644e5151461034a5780634000aea01461035257806340c10f191461036557806342966c681461037a57600080fd5b80631a46c7e9116101d95780631a46c7e91461029357806323b872dd146102ba5780632748913b146102cd578063313ce5671461031157600080fd5b806306fdde031461020b578063095ea7b31461024757806316e0e5381461026a57806318160ddd1461028b575b600080fd5b60408051808201909152600e81526d4672616e6b656e636f696e20563160901b60208201525b60405161023e9190611632565b60405180910390f35b61025a6102553660046116a3565b6105a3565b604051901515815260200161023e565b61027d6102783660046116e1565b6105ba565b60405190815260200161023e565b60025461027d565b61027d7f000000000000000000000000000000000000000000000000000000000000000081565b61025a6102c836600461170d565b61065c565b6102f96102db366004611749565b6001600160a01b039081166000908152600660205260409020541690565b6040516001600160a01b03909116815260200161023e565b6103387f000000000000000000000000000000000000000000000000000000000000000081565b60405160ff909116815260200161023e565b61027d610703565b61025a6103603660046117b4565b61075c565b6103786103733660046116a3565b6107f2565b005b61037861038836600461180e565b61084d565b6102f961039b366004611749565b6006602052600090815260409020546001600160a01b031681565b6103786103c436600461180e565b61085a565b61027d6103d7366004611749565b6001600160a01b031660009081526020819052604090205490565b61027d683635c9adc5dea0000081565b61027d610410366004611749565b60036020526000908152604090205481565b61027d610950565b6040805180820190915260048152632d21a42360e11b6020820152610231565b610378610458366004611827565b6109b6565b61037861046b3660046116e1565b610b32565b61037861047e3660046116a3565b610bb3565b61027d6104913660046116e1565b610c0a565b61025a6104a43660046116a3565b610d59565b61025a6104b7366004611749565b610d66565b6103786104ca366004611749565b610da7565b6103786104dd3660046118d9565b610e12565b6102f97f000000000000000000000000000000000000000000000000000000000000000081565b610378610517366004611926565b610f34565b61027d6110d7565b61037861053236600461197d565b6110ef565b61027d6105453660046119f0565b6001600160a01b03918216600090815260016020908152604080832093909416825291909152205490565b61027d61057e366004611a1a565b6112df565b61027d610591366004611749565b60056020526000908152604090205481565b60006105b03384846113a0565b5060015b92915050565b600080620f42406105d18563ffffffff8616611a6c565b6105db9190611a8b565b9050600061061e7f00000000000000000000000000000000000000000000000000000000000000006001600160a01b031660009081526020819052604090205490565b90506106286110d7565b811015610654576106376110d7565b6106418284611a6c565b61064b9190611a8b565b925050506105b4565b5090506105b4565b6000610669848484611402565b6001600160a01b0384166000908152600160209081526040808320338452909152902054600160ff1b8110156106f857828110156106e45760405162461bcd60e51b81526020600482015260136024820152720c2e0e0e4deecc2d840dcdee840cadcdeeaced606b1b60448201526064015b60405180910390fd5b6106f885336106f38685611aad565b6113a0565b506001949350505050565b604080517f47e79534a245952e8b16893a336b85a3d9ea9fa8c573f3d803afb92a794692186020820152469181019190915230606082015260009060800160405160208183030381529060405280519060200120905090565b6000806107698686610d59565b905080156107e957604051635260769b60e11b81526001600160a01b0387169063a4c0ed36906107a3903390899089908990600401611aed565b6020604051808303816000875af11580156107c2573d6000803e3d6000fd5b505050506040513d601f19601f820116820180604052508101906107e69190611b15565b90505b95945050505050565b6107fb33610d66565b80610823575033600090815260066020526040902054610823906001600160a01b0316610d66565b61083f5760405162461bcd60e51b81526004016106db90611b37565b6108498282611513565b5050565b61085733826115b0565b50565b61086333610d66565b8061088b57503360009081526006602052604090205461088b906001600160a01b0316610d66565b6108a75760405162461bcd60e51b81526004016106db90611b37565b7f00000000000000000000000000000000000000000000000000000000000000006001600160a01b0316600090815260208190526040902054818110610912576108497f00000000000000000000000000000000000000000000000000000000000000003384611402565b61093d7f00000000000000000000000000000000000000000000000000000000000000003383611402565b6108493361094b8385611aad565b611513565b6001600160a01b037f00000000000000000000000000000000000000000000000000000000000000001660009081526020819052604081205460006109936110d7565b90508082116109a55760009250505090565b6109af8183611aad565b9250505090565b6001600160a01b038516600090815260056020526040902054421115610a095760405162461bcd60e51b8152602060048201526008602482015267746f6f206c61746560c01b60448201526064016106db565b604051635e1121cf60e01b81526001600160a01b037f00000000000000000000000000000000000000000000000000000000000000001690635e1121cf90610a5990339088908890600401611b64565b602060405180830381865afa158015610a76573d6000803e3d6000fd5b505050506040513d601f19601f82011682018060405250810190610a9a9190611b15565b610ad65760405162461bcd60e51b815260206004820152600d60248201526c1b9bdd081c5d585b1a599a5959609a1b60448201526064016106db565b6001600160a01b03851660008181526005602052604080822091909155517fd60c86e83346fdbe3124cb7d1cba32973a9f62d05c4ec801bfe6c09d1038038190610b239085908590611bbe565b60405180910390a25050505050565b610b3b33610d66565b80610b63575033600090815260066020526040902054610b63906001600160a01b0316610d66565b610b7f5760405162461bcd60e51b81526004016106db90611b37565b610b8933836115b0565b610b9963ffffffff821683611a6c565b60046000828254610baa9190611aad565b90915550505050565b610bbc33610d66565b80610be4575033600090815260066020526040902054610be4906001600160a01b0316610d66565b610c005760405162461bcd60e51b81526004016106db90611b37565b61084982826115b0565b6000610c1533610d66565b80610c3d575033600090815260066020526040902054610c3d906001600160a01b0316610d66565b610c595760405162461bcd60e51b81526004016106db90611b37565b7f00000000000000000000000000000000000000000000000000000000000000006001600160a01b031660009081526020819052604081205490610c9b6110d7565b90506000818310610cb2578463ffffffff16610ccd565b81610cc38463ffffffff8816611a6c565b610ccd9190611a8b565b90506000610cde82620f4240611aad565b610ce89088611a8b565b9050610cfa63ffffffff871682611a6c565b60046000828254610d0b9190611aad565b90915550610d4590507f000000000000000000000000000000000000000000000000000000000000000033610d408a85611aad565b611402565b610d4f33826115b0565b9695505050505050565b60006105b0338484611402565b6001600160a01b038116600090815260056020526040812054158015906105b45750506001600160a01b031660009081526005602052604090205442101590565b610db033610d66565b610de95760405162461bcd60e51b815260206004820152600a6024820152693737ba1036b4b73a32b960b11b60448201526064016106db565b6001600160a01b0316600090815260066020526040902080546001600160a01b03191633179055565b610e1b33610d66565b80610e43575033600090815260066020526040902054610e43906001600160a01b0316610d66565b610e5f5760405162461bcd60e51b81526004016106db90611b37565b6000610e7163ffffffff841685611a6c565b90506000620f4240610e8683620f423f611bda565b610e909190611a8b565b90506000620f4240610ea863ffffffff861688611a6c565b610eb590620f423f611bda565b610ebf9190611a8b565b9050610eda8782610ed0858a611aad565b61094b9190611aad565b610f087f000000000000000000000000000000000000000000000000000000000000000061094b8385611bda565b610f1582620f4240611a6c565b60046000828254610f269190611bda565b909155505050505050505050565b7f000000000000000000000000000000000000000000000000000000000000000084101580610f635750600254155b610fa25760405162461bcd60e51b815260206004820152601060248201526f1c195c9a5bd9081d1bdbc81cda1bdc9d60821b60448201526064016106db565b683635c9adc5dea0000083101580610fba5750600254155b610ff45760405162461bcd60e51b815260206004820152600b60248201526a66656520746f6f206c6f7760a81b60448201526064016106db565b6001600160a01b0385166000908152600560205260409020541561104f5760405162461bcd60e51b8152602060048201526012602482015271185b1c9958591e481c9959da5cdd195c995960721b60448201526064016106db565b61107a337f000000000000000000000000000000000000000000000000000000000000000085611402565b6110848442611bda565b6001600160a01b038616600081815260056020526040908190209290925590517f97326258efdae63280617ca33884e507791c2abeed7b82acd77f1853394ef94b90610b23908790879087908790611bf2565b6000620f42406004546110ea9190611a8b565b905090565b4284101561113f5760405162461bcd60e51b815260206004820152601760248201527f5045524d49545f444541444c494e455f4558504952454400000000000000000060448201526064016106db565b6000600161114b610703565b6001600160a01b038a811660008181526003602090815260409182902080546001810190915582517f6e71edae12b1b97f4d1f60370fef10105fa2faae0126114a169c64845d6126c98184015280840194909452938d166060840152608083018c905260a083019390935260c08083018b90528151808403909101815260e08301909152805192019190912061190160f01b6101008301526101028201929092526101228101919091526101420160408051601f198184030181528282528051602091820120600084529083018083525260ff871690820152606081018590526080810184905260a0016020604051602081039080840390855afa158015611257573d6000803e3d6000fd5b5050604051601f1901519150506001600160a01b0381161580159061128d5750876001600160a01b0316816001600160a01b0316145b6112ca5760405162461bcd60e51b815260206004820152600e60248201526d24a72b20a624a22fa9a4a3a722a960911b60448201526064016106db565b6112d58188886113a0565b5050505050505050565b60006112ea33610d66565b80611312575033600090815260066020526040902054611312906001600160a01b0316610d66565b61132e5760405162461bcd60e51b81526004016106db90611b37565b600061133a84846105ba565b90506113677f00000000000000000000000000000000000000000000000000000000000000008683611402565b61137185856115b0565b61138163ffffffff841685611a6c565b600460008282546113929190611aad565b909155509095945050505050565b6001600160a01b0383811660008181526001602090815260408083209487168084529482529182902085905590518481527f8c5be1e5ebec7d5bd14f71427d1e84f3dd0314c0f7b2291e5b200ac8c7c3b92591015b60405180910390a3505050565b6001600160a01b03821661141557600080fd5b6001600160a01b0383166000908152602081905260409020548111156114725760405162461bcd60e51b81526020600482015260126024820152710c4c2d8c2dcc6ca40dcdee840cadcdeeaced60731b60448201526064016106db565b6001600160a01b0383166000908152602081905260408120805483929061149a908490611aad565b90915550506001600160a01b038216600090815260208190526040812080548392906114c7908490611bda565b92505081905550816001600160a01b0316836001600160a01b03167fddf252ad1be2c89b69c2b068fc378daa952ba7f163c4a11628f55a4df523b3ef836040516113f591815260200190565b6001600160a01b03821661152657600080fd5b80600260008282546115389190611bda565b90915550506001600160a01b03821660009081526020819052604081208054839290611565908490611bda565b90915550506040518181526001600160a01b038316906000907fddf252ad1be2c89b69c2b068fc378daa952ba7f163c4a11628f55a4df523b3ef906020015b60405180910390a35050565b80600260008282546115c29190611aad565b90915550506001600160a01b038216600090815260208190526040812080548392906115ef908490611aad565b90915550506040518181526000906001600160a01b038416907fddf252ad1be2c89b69c2b068fc378daa952ba7f163c4a11628f55a4df523b3ef906020016115a4565b600060208083528351808285015260005b8181101561165f57858101830151858201604001528201611643565b81811115611671576000604083870101525b50601f01601f1916929092016040019392505050565b80356001600160a01b038116811461169e57600080fd5b919050565b600080604083850312156116b657600080fd5b6116bf83611687565b946020939093013593505050565b803563ffffffff8116811461169e57600080fd5b600080604083850312156116f457600080fd5b82359150611704602084016116cd565b90509250929050565b60008060006060848603121561172257600080fd5b61172b84611687565b925061173960208501611687565b9150604084013590509250925092565b60006020828403121561175b57600080fd5b61176482611687565b9392505050565b60008083601f84011261177d57600080fd5b50813567ffffffffffffffff81111561179557600080fd5b6020830191508360208285010111156117ad57600080fd5b9250929050565b600080600080606085870312156117ca57600080fd5b6117d385611687565b935060208501359250604085013567ffffffffffffffff8111156117f657600080fd5b6118028782880161176b565b95989497509550505050565b60006020828403121561182057600080fd5b5035919050565b60008060008060006060868803121561183f57600080fd5b61184886611687565b9450602086013567ffffffffffffffff8082111561186557600080fd5b818801915088601f83011261187957600080fd5b81358181111561188857600080fd5b8960208260051b850101111561189d57600080fd5b6020830196508095505060408801359150808211156118bb57600080fd5b506118c88882890161176b565b969995985093965092949392505050565b600080600080608085870312156118ef57600080fd5b6118f885611687565b93506020850135925061190d604086016116cd565b915061191b606086016116cd565b905092959194509250565b60008060008060006080868803121561193e57600080fd5b61194786611687565b94506020860135935060408601359250606086013567ffffffffffffffff81111561197157600080fd5b6118c88882890161176b565b600080600080600080600060e0888a03121561199857600080fd5b6119a188611687565b96506119af60208901611687565b95506040880135945060608801359350608088013560ff811681146119d357600080fd5b9699959850939692959460a0840135945060c09093013592915050565b60008060408385031215611a0357600080fd5b611a0c83611687565b915061170460208401611687565b600080600060608486031215611a2f57600080fd5b611a3884611687565b925060208401359150611a4d604085016116cd565b90509250925092565b634e487b7160e01b600052601160045260246000fd5b6000816000190483118215151615611a8657611a86611a56565b500290565b600082611aa857634e487b7160e01b600052601260045260246000fd5b500490565b600082821015611abf57611abf611a56565b500390565b81835281816020850137506000828201602090810191909152601f909101601f19169091010190565b60018060a01b0385168152836020820152606060408201526000610d4f606083018486611ac4565b600060208284031215611b2757600080fd5b8151801515811461176457600080fd5b6020808252601390820152723737ba1030b8383937bb32b21036b4b73a32b960691b604082015260600190565b6001600160a01b03848116825260406020808401829052908301849052600091859160608501845b87811015611bb15783611b9e86611687565b1682529382019390820190600101611b8c565b5098975050505050505050565b602081526000611bd2602083018486611ac4565b949350505050565b60008219821115611bed57611bed611a56565b500190565b848152836020820152606060408201526000610d4f606083018486611ac456fea2646970667358221220b9de62ff756ed2bdf08c7d38e5bf5bfb1203547e207d562413f5c2a4a45696ce64736f6c634300080d003360c060405234801561001057600080fd5b50604051611ad6380380611ad683398101604081905261002f91610045565b60126080526001600160a01b031660a052610075565b60006020828403121561005757600080fd5b81516001600160a01b038116811461006e57600080fd5b9392505050565b60805160a051611a126100c46000396000818161044a015281816105be015281816107a001528181610a6201528181610b0e01528181610c050152610d0c015260006102b40152611a126000f3fe608060405234801561001057600080fd5b50600436106101cf5760003560e01c80635e1121cf11610104578063a9059cbb116100a2578063d505accf11610071578063d505accf1461046c578063d8bff5a51461047f578063dd62ed3e14610492578063f97ed509146104cb57600080fd5b8063a9059cbb14610415578063ad08ce5b14610428578063b0c2bf061461043b578063c4d4803a1461044557600080fd5b806395d89b41116100de57806395d89b41146103c65780639823004f146103e5578063a035b1fe146103fa578063a4c0ed361461040257600080fd5b80635e1121cf1461036a57806370a082311461037d5780637ecebe00146103a657600080fd5b8063250f25f4116101715780633c835ab01161014b5780633c835ab0146102f05780633ec16194146103035780634000aea014610316578063587cde1e1461032957600080fd5b8063250f25f414610292578063313ce567146102af5780633644e515146102e857600080fd5b8063151535b9116101ad578063151535b91461025157806318160ddd146102645780631e9a69501461026c57806323b872dd1461027f57600080fd5b806306fdde03146101d4578063095ea7b3146102185780630d15fd771461023b575b600080fd5b6040805180820190915260168152754672616e6b656e636f696e20506f6f6c20536861726560501b60208201525b60405161020f91906115ca565b60405180910390f35b61022b61022636600461163b565b6104d3565b604051901515815260200161020f565b6102436104ea565b60405190815260200161020f565b61022b61025f366004611665565b610533565b600254610243565b61024361027a36600461163b565b61056d565b61022b61028d366004611680565b610633565b61029a600381565b60405163ffffffff909116815260200161020f565b6102d67f000000000000000000000000000000000000000000000000000000000000000081565b60405160ff909116815260200161020f565b6102436106da565b61022b6102fe3660046116bc565b610733565b6102436103113660046116ef565b610799565b61022b610324366004611708565b610826565b610352610337366004611665565b6005602052600090815260409020546001600160a01b031681565b6040516001600160a01b03909116815260200161020f565b61022b61037836600461178f565b6108bc565b61024361038b366004611665565b6001600160a01b031660009081526020819052604090205490565b6102436103b4366004611665565b60036020526000908152604090205481565b60408051808201909152600381526246505360e81b6020820152610202565b6103f86103f3366004611665565b6109f5565b005b610243610a4c565b61022b610410366004611708565b610b01565b61022b61042336600461163b565b610ced565b6102436104363660046116ef565b610cfa565b610243620dbba081565b6103527f000000000000000000000000000000000000000000000000000000000000000081565b6103f861047a366004611815565b610e21565b61024361048d366004611665565b611011565b6102436104a03660046116bc565b6001600160a01b03918216600090815260016020908152604080832093909416825291909152205490565b61022b611061565b60006104e033848461106c565b5060015b92915050565b6004546000906105049067ffffffffffffffff164361189e565b60025461051191906118b5565b60045461052e9190600160401b90046001600160c01b03166118d4565b905090565b6001600160a01b038116600090815260066020526040812054620dbba0906105659067ffffffffffffffff164361189e565b101592915050565b600061057833610533565b61058157600080fd5b600061058c83610cfa565b905061059833846110ce565b60405163a9059cbb60e01b81526001600160a01b038581166004830152602482018390527f0000000000000000000000000000000000000000000000000000000000000000169063a9059cbb906044016020604051808303816000875af1158015610607573d6000803e3d6000fd5b505050506040513d601f19601f8201168201806040525081019061062b91906118ec565b509392505050565b6000610640848484611164565b6001600160a01b0384166000908152600160209081526040808320338452909152902054600160ff1b8110156106cf57828110156106bb5760405162461bcd60e51b81526020600482015260136024820152720c2e0e0e4deecc2d840dcdee840cadcdeeaced606b1b60448201526064015b60405180910390fd5b6106cf85336106ca868561189e565b61106c565b506001949350505050565b604080517f47e79534a245952e8b16893a336b85a3d9ea9fa8c573f3d803afb92a794692186020820152469181019190915230606082015260009060800160405160208183030381529060405280519060200120905090565b6000826001600160a01b0316826001600160a01b031603610756575060016104e4565b6001600160a01b03821661076c575060006104e4565b6001600160a01b0380831660009081526005602052604090205461079291859116610733565b90506104e4565b60006104e47f00000000000000000000000000000000000000000000000000000000000000006001600160a01b03166391a0ac6a6040518163ffffffff1660e01b8152600401602060405180830381865afa1580156107fc573d6000803e3d6000fd5b505050506040513d601f19601f82011682018060405250810190610820919061190e565b83611280565b6000806108338686610ced565b905080156108b357604051635260769b60e11b81526001600160a01b0387169063a4c0ed369061086d903390899089908990600401611927565b6020604051808303816000875af115801561088c573d6000803e3d6000fd5b505050506040513d601f19601f820116820180604052508101906108b091906118ec565b90505b95945050505050565b6000806108c885611011565b905060005b838110156109c95760008585838181106108e9576108e961196f565b90506020020160208101906108fe9190611665565b9050866001600160a01b0316816001600160a01b03160361091e57600080fd5b6109288782610733565b61093157600080fd5b600061093e8360016118d4565b90505b8581101561099f5786868281811061095b5761095b61196f565b90506020020160208101906109709190611665565b6001600160a01b0316826001600160a01b03160361098d57600080fd5b8061099781611985565b915050610941565b506109a981611011565b6109b390846118d4565b92505080806109c190611985565b9150506108cd565b506109d26104ea565b6109de9061012c6118b5565b6109ea826127106118b5565b101595945050505050565b3360008181526005602052604080822080546001600160a01b0319166001600160a01b03861690811790915590519092917fd000f39f92c3ed77f890f16b6ced1555e0ab2cdf470522d2210de67d8c83d45b91a350565b6000610a5760025490565b670de0b6b3a76400007f00000000000000000000000000000000000000000000000000000000000000006001600160a01b03166391a0ac6a6040518163ffffffff1660e01b8152600401602060405180830381865afa158015610abe573d6000803e3d6000fd5b505050506040513d601f19601f82011682018060405250810190610ae2919061190e565b610aed9060036118b5565b610af791906118b5565b61052e91906119b4565b6000336001600160a01b037f00000000000000000000000000000000000000000000000000000000000000001614610b715760405162461bcd60e51b815260206004820152601360248201527231b0b63632b91036bab9ba103132903d31b43360691b60448201526064016106b2565b600254600003610bfb57670de0b6b3a7640000841015610bd35760405162461bcd60e51b815260206004820152601960248201527f696e697469616c206465706f736974206d757374203e3d20310000000000000060448201526064016106b2565b610be685683635c9adc5dea000006112bb565b610bf8670de0b6b3a76400008561189e565b93505b610c9a85610c95867f00000000000000000000000000000000000000000000000000000000000000006001600160a01b03166391a0ac6a6040518163ffffffff1660e01b8152600401602060405180830381865afa158015610c61573d6000803e3d6000fd5b505050506040513d601f19601f82011682018060405250810190610c85919061190e565b610c8f919061189e565b87611280565b6112bb565b6001605a1b610ca860025490565b106106cf5760405162461bcd60e51b81526020600482015260156024820152741d1bdd185b081cdd5c1c1b1e48195e18d959591959605a1b60448201526064016106b2565b60006104e0338484611164565b600080610d0660025490565b905060007f00000000000000000000000000000000000000000000000000000000000000006001600160a01b03166391a0ac6a6040518163ffffffff1660e01b8152600401602060405180830381865afa158015610d68573d6000803e3d6000fd5b505050506040513d601f19601f82011682018060405250810190610d8c919061190e565b905081610da1670de0b6b3a7640000866118d4565b10610de05760405162461bcd60e51b815260206004820152600f60248201526e746f6f206d616e792073686172657360881b60448201526064016106b2565b6000610dec858461189e565b90506000610e0b83610e06610e01858861135c565b611382565b611393565b9050610e17818461189e565b9695505050505050565b42841015610e715760405162461bcd60e51b815260206004820152601760248201527f5045524d49545f444541444c494e455f4558504952454400000000000000000060448201526064016106b2565b60006001610e7d6106da565b6001600160a01b038a811660008181526003602090815260409182902080546001810190915582517f6e71edae12b1b97f4d1f60370fef10105fa2faae0126114a169c64845d6126c98184015280840194909452938d166060840152608083018c905260a083019390935260c08083018b90528151808403909101815260e08301909152805192019190912061190160f01b6101008301526101028201929092526101228101919091526101420160408051601f198184030181528282528051602091820120600084529083018083525260ff871690820152606081018590526080810184905260a0016020604051602081039080840390855afa158015610f89573d6000803e3d6000fd5b5050604051601f1901519150506001600160a01b03811615801590610fbf5750876001600160a01b0316816001600160a01b0316145b610ffc5760405162461bcd60e51b815260206004820152600e60248201526d24a72b20a624a22fa9a4a3a722a960911b60448201526064016106b2565b61100781888861106c565b5050505050505050565b6001600160a01b03811660009081526006602052604081205461103e9067ffffffffffffffff164361189e565b6001600160a01b0383166000908152602081905260409020546104e491906118b5565b600061052e33610533565b6001600160a01b0383811660008181526001602090815260408083209487168084529482529182902085905590518481527f8c5be1e5ebec7d5bd14f71427d1e84f3dd0314c0f7b2291e5b200ac8c7c3b92591015b60405180910390a3505050565b6110da826000836113a8565b80600260008282546110ec919061189e565b90915550506001600160a01b0382166000908152602081905260408120805483929061111990849061189e565b90915550506040518181526000906001600160a01b038416907fddf252ad1be2c89b69c2b068fc378daa952ba7f163c4a11628f55a4df523b3ef906020015b60405180910390a35050565b6001600160a01b03821661117757600080fd5b6111828383836113a8565b6001600160a01b0383166000908152602081905260409020548111156111df5760405162461bcd60e51b81526020600482015260126024820152710c4c2d8c2dcc6ca40dcdee840cadcdeeaced60731b60448201526064016106b2565b6001600160a01b0383166000908152602081905260408120805483929061120790849061189e565b90915550506001600160a01b038216600090815260208190526040812080548392906112349084906118d4565b92505081905550816001600160a01b0316836001600160a01b03167fddf252ad1be2c89b69c2b068fc378daa952ba7f163c4a11628f55a4df523b3ef836040516110c191815260200190565b60008061128c60025490565b905060006112af82610e066112aa6112a4888a6118d4565b8961135c565b6113ce565b90506108b3828261189e565b6001600160a01b0382166112ce57600080fd5b6112da600083836113a8565b80600260008282546112ec91906118d4565b90915550506001600160a01b038216600090815260208190526040812080548392906113199084906118d4565b90915550506040518181526001600160a01b038316906000907fddf252ad1be2c89b69c2b068fc378daa952ba7f163c4a11628f55a4df523b3ef90602001611158565b600081611371670de0b6b3a7640000856118b5565b61137b91906119b4565b9392505050565b60006104e46113918384611393565b835b6000670de0b6b3a764000061137183856118b5565b80156113c95760006113ba8383611473565b90506113c7848383611526565b505b505050565b6000670de0b6b3a764000081805b82915060006113f46113ee8586611393565b85611393565b905061142d84610e066114088960026118b5565b61141290856118d4565b8961141e8660026118b5565b61142891906118d4565b61135c565b935083831161144e57662386f26fc10000611448848661189e565b11611462565b662386f26fc10000611460858561189e565b115b915050806113dc5750909392505050565b60006001600160a01b0383161561151e57600061148f84611011565b90506000836114b3866001600160a01b031660009081526020819052604090205490565b6114bd91906118d4565b90506114c981836119b4565b6114d3904361189e565b6001600160a01b0386166000908152600660205260409020805467ffffffffffffffff191667ffffffffffffffff9290921691909117905561151581836119c8565b925050506104e4565b5060006104e4565b60006001600160a01b03841615611575576001600160a01b03841660009081526006602052604090205483906115669067ffffffffffffffff164361189e565b61157091906118b5565b611578565b60005b905080826115846104ea565b61158e919061189e565b611598919061189e565b4367ffffffffffffffff166001600160c01b0391909116600160401b0267ffffffffffffffff19161760045550505050565b600060208083528351808285015260005b818110156115f7578581018301518582016040015282016115db565b81811115611609576000604083870101525b50601f01601f1916929092016040019392505050565b80356001600160a01b038116811461163657600080fd5b919050565b6000806040838503121561164e57600080fd5b6116578361161f565b946020939093013593505050565b60006020828403121561167757600080fd5b61137b8261161f565b60008060006060848603121561169557600080fd5b61169e8461161f565b92506116ac6020850161161f565b9150604084013590509250925092565b600080604083850312156116cf57600080fd5b6116d88361161f565b91506116e66020840161161f565b90509250929050565b60006020828403121561170157600080fd5b5035919050565b6000806000806060858703121561171e57600080fd5b6117278561161f565b935060208501359250604085013567ffffffffffffffff8082111561174b57600080fd5b818701915087601f83011261175f57600080fd5b81358181111561176e57600080fd5b88602082850101111561178057600080fd5b95989497505060200194505050565b6000806000604084860312156117a457600080fd5b6117ad8461161f565b9250602084013567ffffffffffffffff808211156117ca57600080fd5b818601915086601f8301126117de57600080fd5b8135818111156117ed57600080fd5b8760208260051b850101111561180257600080fd5b6020830194508093505050509250925092565b600080600080600080600060e0888a03121561183057600080fd5b6118398861161f565b96506118476020890161161f565b95506040880135945060608801359350608088013560ff8116811461186b57600080fd5b9699959850939692959460a0840135945060c09093013592915050565b634e487b7160e01b600052601160045260246000fd5b6000828210156118b0576118b0611888565b500390565b60008160001904831182151516156118cf576118cf611888565b500290565b600082198211156118e7576118e7611888565b500190565b6000602082840312156118fe57600080fd5b8151801515811461137b57600080fd5b60006020828403121561192057600080fd5b5051919050565b6001600160a01b0385168152602081018490526060604082018190528101829052818360808301376000818301608090810191909152601f909201601f191601019392505050565b634e487b7160e01b600052603260045260246000fd5b60006001820161199757611997611888565b5060010190565b634e487b7160e01b600052601260045260246000fd5b6000826119c3576119c361199e565b500490565b6000826119d7576119d761199e565b50069056fea2646970667358221220621e5d85dcb1e4fc97a605f8b5df54aa36c2355dcb81b4a42582e2347d0b4b9e64736f6c634300080d0033",
  "devdoc": {
    "kind": "dev",
    "methods": {
      "allowance(address,address)": {
        "details": "See `IERC20.allowance`."
      },
      "approve(address,uint256)": {
        "details": "See `IERC20.approve`. Requirements: - `spender` cannot be the zero address."
      },
      "balanceOf(address)": {
        "details": "See `IERC20.balanceOf`."
      },
      "equity()": {
        "returns": {
          "_0": "ZCHF in dec18 format"
        }
      },
      "mint(address,uint256)": {
        "params": {
          "_amount": "amount in dec18 format",
          "_target": "address that receives ZCHF if it's a minter"
        }
      },
      "mint(address,uint256,uint32,uint32)": {
        "params": {
          "_amount": "amount ZCHF before fees and pool contribution requested                      number in dec18 format",
          "_feesPPM": "fees in parts per million",
          "_reservePPM": "reserve requirement in parts per million",
          "_target": "address that receives ZCHF if it's a minter"
        }
      },
      "suggestMinter(address,uint256,uint256,string)": {
        "params": {
          "_applicationFee": "application fee in parts per million",
          "_applicationPeriod": "application period in seconds",
          "_message": "message string",
          "_minter": "address of the position want to add to the minters"
        }
      },
      "totalSupply()": {
        "details": "See `IERC20.totalSupply`."
      },
      "transfer(address,uint256)": {
        "details": "See `IERC20.transfer`. Requirements: - `recipient` cannot be the zero address. - the caller must have a balance of at least `amount`."
      },
      "transferFrom(address,address,uint256)": {
        "details": "See `IERC20.transferFrom`. Emits an `Approval` event indicating the updated allowance. This is not required by the EIP. See the note at the beginning of `ERC20`; Requirements: - `sender` and `recipient` cannot be the zero address. - `sender` must have a balance of at least `value`. - the caller must have allowance for `sender`'s tokens of at least `amount`."
      }
    },
    "version": 1
  },
  "userdoc": {
    "kind": "user",
    "methods": {
      "equity()": {
        "notice": "Get reserve balance (amount of ZCHF)"
      },
      "mint(address,uint256)": {
        "notice": "Mint amount of ZCHF for address _target"
      },
      "mint(address,uint256,uint32,uint32)": {
        "notice": "Mint amount of ZCHF for address _target"
      },
      "suggestMinter(address,uint256,uint256,string)": {
        "notice": "Minting is suggested either by (1) person applying for a new original position, or (2) by the minting hub when cloning a position. The minting hub has the priviledge to call with zero application fee and period."
      }
    },
    "version": 1
  },
  "storageLayout": {
    "storage": [
      {
        "astId": 10,
        "contract": "contracts/Frankencoin.sol:Frankencoin",
        "label": "_balances",
        "offset": 0,
        "slot": "0",
        "type": "t_mapping(t_address,t_uint256)"
      },
      {
        "astId": 16,
        "contract": "contracts/Frankencoin.sol:Frankencoin",
        "label": "_allowances",
        "offset": 0,
        "slot": "1",
        "type": "t_mapping(t_address,t_mapping(t_address,t_uint256))"
      },
      {
        "astId": 18,
        "contract": "contracts/Frankencoin.sol:Frankencoin",
        "label": "_totalSupply",
        "offset": 0,
        "slot": "2",
        "type": "t_uint256"
      },
      {
        "astId": 389,
        "contract": "contracts/Frankencoin.sol:Frankencoin",
        "label": "nonces",
        "offset": 0,
        "slot": "3",
        "type": "t_mapping(t_address,t_uint256)"
      },
      {
        "astId": 1174,
        "contract": "contracts/Frankencoin.sol:Frankencoin",
        "label": "minterReserveE6",
        "offset": 0,
        "slot": "4",
        "type": "t_uint256"
      },
      {
        "astId": 1178,
        "contract": "contracts/Frankencoin.sol:Frankencoin",
        "label": "minters",
        "offset": 0,
        "slot": "5",
        "type": "t_mapping(t_address,t_uint256)"
      },
      {
        "astId": 1182,
        "contract": "contracts/Frankencoin.sol:Frankencoin",
        "label": "positions",
        "offset": 0,
        "slot": "6",
        "type": "t_mapping(t_address,t_address)"
      }
    ],
    "types": {
      "t_address": {
        "encoding": "inplace",
        "label": "address",
        "numberOfBytes": "20"
      },
      "t_mapping(t_address,t_address)": {
        "encoding": "mapping",
        "key": "t_address",
        "label": "mapping(address => address)",
        "numberOfBytes": "32",
        "value": "t_address"
      },
      "t_mapping(t_address,t_mapping(t_address,t_uint256))": {
        "encoding": "mapping",
        "key": "t_address",
        "label": "mapping(address => mapping(address => uint256))",
        "numberOfBytes": "32",
        "value": "t_mapping(t_address,t_uint256)"
      },
      "t_mapping(t_address,t_uint256)": {
        "encoding": "mapping",
        "key": "t_address",
        "label": "mapping(address => uint256)",
        "numberOfBytes": "32",
        "value": "t_uint256"
      },
      "t_uint256": {
        "encoding": "inplace",
        "label": "uint256",
        "numberOfBytes": "32"
      }
    }
  }
}