{
  "address": "0x42c43F17Dbea70a4a6f1ff9F3E5c023Da21B42C1",
  "abi": [
    {
      "inputs": [
        {
          "internalType": "contract IReserve",
          "name": "equity_",
          "type": "address"
        },
        {
          "internalType": "uint24",
          "name": "initialRatePPM",
          "type": "uint24"
        }
      ],
      "stateMutability": "nonpayable",
      "type": "constructor"
    },
    {
      "inputs": [],
      "name": "ChangeNotReady",
      "type": "error"
    },
    {
      "inputs": [],
      "name": "NoPendingChange",
      "type": "error"
    },
    {
      "anonymous": false,
      "inputs": [
        {
          "indexed": false,
          "internalType": "uint24",
          "name": "newRate",
          "type": "uint24"
        }
      ],
      "name": "RateChanged",
      "type": "event"
    },
    {
      "anonymous": false,
      "inputs": [
        {
          "indexed": false,
          "internalType": "address",
          "name": "who",
          "type": "address"
        },
        {
          "indexed": false,
          "internalType": "uint24",
          "name": "nextRate",
          "type": "uint24"
        },
        {
          "indexed": false,
          "internalType": "uint40",
          "name": "nextChange",
          "type": "uint40"
        }
      ],
      "name": "RateProposed",
      "type": "event"
    },
    {
      "inputs": [],
      "name": "applyChange",
      "outputs": [],
      "stateMutability": "nonpayable",
      "type": "function"
    },
    {
      "inputs": [],
      "name": "currentRatePPM",
      "outputs": [
        {
          "internalType": "uint24",
          "name": "",
          "type": "uint24"
        }
      ],
      "stateMutability": "view",
      "type": "function"
    },
    {
      "inputs": [],
      "name": "currentTicks",
      "outputs": [
        {
          "internalType": "uint64",
          "name": "",
          "type": "uint64"
        }
      ],
      "stateMutability": "view",
      "type": "function"
    },
    {
      "inputs": [],
      "name": "equity",
      "outputs": [
        {
          "internalType": "contract IReserve",
          "name": "",
          "type": "address"
        }
      ],
      "stateMutability": "view",
      "type": "function"
    },
    {
      "inputs": [],
      "name": "nextChange",
      "outputs": [
        {
          "internalType": "uint40",
          "name": "",
          "type": "uint40"
        }
      ],
      "stateMutability": "view",
      "type": "function"
    },
    {
      "inputs": [],
      "name": "nextRatePPM",
      "outputs": [
        {
          "internalType": "uint24",
          "name": "",
          "type": "uint24"
        }
      ],
      "stateMutability": "view",
      "type": "function"
    },
    {
      "inputs": [
        {
          "internalType": "uint24",
          "name": "newRatePPM_",
          "type": "uint24"
        },
        {
          "internalType": "address[]",
          "name": "helpers",
          "type": "address[]"
        }
      ],
      "name": "proposeChange",
      "outputs": [],
      "stateMutability": "nonpayable",
      "type": "function"
    },
    {
      "inputs": [
        {
          "internalType": "uint256",
          "name": "timestamp",
          "type": "uint256"
        }
      ],
      "name": "ticks",
      "outputs": [
        {
          "internalType": "uint64",
          "name": "",
          "type": "uint64"
        }
      ],
      "stateMutability": "view",
      "type": "function"
    }
  ],
  "transactionHash": "0x4dbb23e56a93f621fbe814d86de2420860f23496d6cecc4cb4f7627d6df9ee76",
  "args": [
    "0xC92aF56C354FCF641f4567a04fd7032013E8A314",
    5
  ],
  "numDeployments": 1,
  "solcInputHash": "2b6c9a674c0f5cac576001fd230e0d7c",
  "bytecode": "0x60a060405234801561001057600080fd5b506040516107f93803806107f983398101604081905261002f916100f7565b6001600160a01b03821660805260008054600160801b600160c01b03196b010000000000000000000000660100000000000064ffffffffff42811682026affffffffff000000ffffff1962ffffff891663010000008102919091166001600160581b031990971696909617861717918204169190910291909116600160581b600160c01b031991909116179091556040519081527fd76dfbd4c35cffe2a846b6488bc677c511aa4337e1551f3a360427ac7a78de7b9060200160405180910390a15050610145565b6000806040838503121561010a57600080fd5b82516001600160a01b038116811461012157600080fd5b602084015190925062ffffff8116811461013a57600080fd5b809150509250929050565b6080516106926101676000396000818161011901526101a001526106926000f3fe608060405234801561001057600080fd5b50600436106100885760003560e01c8063534cb30d1161005b578063534cb30d146100e857806391a0ac6a14610114578063b079f16314610153578063b6f83c171461015b57600080fd5b806306a7b3761461008d5780631de252e4146100b55780632e4b20ab146100ca5780634e65037e146100e0575b600080fd5b60005461009c9062ffffff1681565b60405162ffffff90911681526020015b60405180910390f35b6100c86100c336600461047e565b610189565b005b60005461009c906301000000900462ffffff1681565b6100c86102b1565b6100fb6100f6366004610510565b61041d565b60405167ffffffffffffffff90911681526020016100ac565b61013b7f000000000000000000000000000000000000000000000000000000000000000081565b6040516001600160a01b0390911681526020016100ac565b6100fb61046e565b60005461017390600160301b900464ffffffffff1681565b60405164ffffffffff90911681526020016100ac565b60405163352e3a8360e01b81526001600160a01b037f0000000000000000000000000000000000000000000000000000000000000000169063352e3a83906101d990339086908690600401610529565b60006040518083038186803b1580156101f157600080fd5b505afa158015610205573d6000803e3d6000fd5b50506000805465ffffff0000001916630100000062ffffff8816021790555061023390504262093a806105a2565b600080546affffffffff0000000000001916600160301b64ffffffffff93841681029190911791829055604080513381526301000000840462ffffff16602082015291909204909216908201527e4964f2e48bd8a460fb41883098593956d335f36fdded4ca9cbac9252d72b2f9060600160405180910390a1505050565b60005462ffffff6301000000820481169116036102e15760405163147fde5f60e31b815260040160405180910390fd5b600054429064ffffffffff600160301b90910481169082161015610318576040516301b3782160e21b815260040160405180910390fd5b60005462ffffff81169061033a90600160581b900464ffffffffff16836105b5565b61034491906105d2565b64ffffffffff16600060108282829054906101000a900467ffffffffffffffff1661036f91906105f9565b82546101009290920a67ffffffffffffffff8181021990931691909216919091021790555060008054630100000064ffffffffff60581b198216600160581b64ffffffffff8616029081179190910462ffffff166fffffffffff0000000000000000ffffff1990921662ffffff19919091161781179091556040519081527fd76dfbd4c35cffe2a846b6488bc677c511aa4337e1551f3a360427ac7a78de7b9060200160405180910390a150565b6000805462ffffff81169061044090600160581b900464ffffffffff1684610619565b61044a9190610639565b6000546104689190600160801b900467ffffffffffffffff166105f9565b92915050565b60006104794261041d565b905090565b60008060006040848603121561049357600080fd5b833562ffffff811681146104a657600080fd5b9250602084013567ffffffffffffffff8111156104c257600080fd5b8401601f810186136104d357600080fd5b803567ffffffffffffffff8111156104ea57600080fd5b8660208260051b84010111156104ff57600080fd5b939660209190910195509293505050565b60006020828403121561052257600080fd5b5035919050565b6001600160a01b0384168152604060208201819052810182905260008360608301825b858110156105815782356001600160a01b03811680821461056c57600080fd5b8352506020928301929091019060010161054c565b509695505050505050565b634e487b7160e01b600052601160045260246000fd5b808201808211156104685761046861058c565b64ffffffffff82811682821603908111156104685761046861058c565b64ffffffffff81811683821602908116908181146105f2576105f261058c565b5092915050565b67ffffffffffffffff81811683821601908111156104685761046861058c565b67ffffffffffffffff82811682821603908111156104685761046861058c565b67ffffffffffffffff81811683821602908116908181146105f2576105f261058c56fea26469706673582212205d945829b920980152e3a05e26404fba27e9b03980b52c68ba2952799f1c6fe964736f6c634300081a0033",
  "devdoc": {
    "kind": "dev",
    "methods": {},
    "title": "Leadrate (attempt at translating the nicely concise German term 'Leitzins') A module that can provide other modules with the lead interest rate for the system.*",
    "version": 1
  },
  "userdoc": {
    "kind": "user",
    "methods": {
      "applyChange()": {
        "notice": "Setting a previously proposed interest rate change into force."
      },
      "currentTicks()": {
        "notice": "Total accumulated 'interest ticks' since this contract was deployed. One 'tick' is a ppm-second, so one months of 12% annual interest is   120000*30*24*3600 = 311040000000 ticks. Two months of 6% annual interest would result in the same number of ticks. For simplicity, this is linear, so there is no \"interest on interest\"."
      },
      "proposeChange(uint24,address[])": {
        "notice": "Proposes a new interest rate that will automatically be applied after seven days. To cancel a proposal, just overwrite it with a new one proposing the current rate."
      }
    },
    "version": 1
  },
  "storageLayout": {
    "storage": [
      {
        "astId": 9214,
        "contract": "contracts/Leadrate.sol:Leadrate",
        "label": "currentRatePPM",
        "offset": 0,
        "slot": "0",
        "type": "t_uint24"
      },
      {
        "astId": 9216,
        "contract": "contracts/Leadrate.sol:Leadrate",
        "label": "nextRatePPM",
        "offset": 3,
        "slot": "0",
        "type": "t_uint24"
      },
      {
        "astId": 9218,
        "contract": "contracts/Leadrate.sol:Leadrate",
        "label": "nextChange",
        "offset": 6,
        "slot": "0",
        "type": "t_uint40"
      },
      {
        "astId": 9220,
        "contract": "contracts/Leadrate.sol:Leadrate",
        "label": "anchorTime",
        "offset": 11,
        "slot": "0",
        "type": "t_uint40"
      },
      {
        "astId": 9222,
        "contract": "contracts/Leadrate.sol:Leadrate",
        "label": "ticksAnchor",
        "offset": 16,
        "slot": "0",
        "type": "t_uint64"
      }
    ],
    "types": {
      "t_uint24": {
        "encoding": "inplace",
        "label": "uint24",
        "numberOfBytes": "3"
      },
      "t_uint40": {
        "encoding": "inplace",
        "label": "uint40",
        "numberOfBytes": "5"
      },
      "t_uint64": {
        "encoding": "inplace",
        "label": "uint64",
        "numberOfBytes": "8"
      }
    }
  }
}