{
  "address": "0x7546762fdb1a6d9146b33960545C3f6394265219",
  "abi": [
    {
      "inputs": [
        {
          "internalType": "address",
          "name": "_zchf",
          "type": "address"
        },
        {
          "internalType": "address",
          "name": "_factory",
          "type": "address"
        }
      ],
      "stateMutability": "nonpayable",
      "type": "constructor"
    },
    {
      "inputs": [],
      "name": "InvalidPos",
      "type": "error"
    },
    {
      "inputs": [],
      "name": "UnexpectedPrice",
      "type": "error"
    },
    {
      "anonymous": false,
      "inputs": [
        {
          "indexed": true,
          "internalType": "address",
          "name": "position",
          "type": "address"
        },
        {
          "indexed": false,
          "internalType": "uint256",
          "name": "number",
          "type": "uint256"
        },
        {
          "indexed": false,
          "internalType": "uint256",
          "name": "size",
          "type": "uint256"
        }
      ],
      "name": "ChallengeAverted",
      "type": "event"
    },
    {
      "anonymous": false,
      "inputs": [
        {
          "indexed": true,
          "internalType": "address",
          "name": "challenger",
          "type": "address"
        },
        {
          "indexed": true,
          "internalType": "address",
          "name": "position",
          "type": "address"
        },
        {
          "indexed": false,
          "internalType": "uint256",
          "name": "size",
          "type": "uint256"
        },
        {
          "indexed": false,
          "internalType": "uint256",
          "name": "number",
          "type": "uint256"
        }
      ],
      "name": "ChallengeStarted",
      "type": "event"
    },
    {
      "anonymous": false,
      "inputs": [
        {
          "indexed": true,
          "internalType": "address",
          "name": "position",
          "type": "address"
        },
        {
          "indexed": false,
          "internalType": "uint256",
          "name": "number",
          "type": "uint256"
        },
        {
          "indexed": false,
          "internalType": "uint256",
          "name": "bid",
          "type": "uint256"
        },
        {
          "indexed": false,
          "internalType": "uint256",
          "name": "acquiredCollateral",
          "type": "uint256"
        },
        {
          "indexed": false,
          "internalType": "uint256",
          "name": "challengeSize",
          "type": "uint256"
        }
      ],
      "name": "ChallengeSucceeded",
      "type": "event"
    },
    {
      "anonymous": false,
      "inputs": [
        {
          "indexed": true,
          "internalType": "address",
          "name": "owner",
          "type": "address"
        },
        {
          "indexed": true,
          "internalType": "address",
          "name": "position",
          "type": "address"
        },
        {
          "indexed": false,
          "internalType": "address",
          "name": "zchf",
          "type": "address"
        },
        {
          "indexed": false,
          "internalType": "address",
          "name": "collateral",
          "type": "address"
        },
        {
          "indexed": false,
          "internalType": "uint256",
          "name": "price",
          "type": "uint256"
        }
      ],
      "name": "PositionOpened",
      "type": "event"
    },
    {
      "anonymous": false,
      "inputs": [
        {
          "indexed": false,
          "internalType": "address",
          "name": "collateral",
          "type": "address"
        },
        {
          "indexed": true,
          "internalType": "address",
          "name": "beneficiary",
          "type": "address"
        },
        {
          "indexed": false,
          "internalType": "uint256",
          "name": "amount",
          "type": "uint256"
        }
      ],
      "name": "PostPonedReturn",
      "type": "event"
    },
    {
      "inputs": [],
      "name": "CHALLENGER_REWARD",
      "outputs": [
        {
          "internalType": "uint32",
          "name": "",
          "type": "uint32"
        }
      ],
      "stateMutability": "view",
      "type": "function"
    },
    {
      "inputs": [],
      "name": "OPENING_FEE",
      "outputs": [
        {
          "internalType": "uint256",
          "name": "",
          "type": "uint256"
        }
      ],
      "stateMutability": "view",
      "type": "function"
    },
    {
      "inputs": [
        {
          "internalType": "uint32",
          "name": "_challengeNumber",
          "type": "uint32"
        },
        {
          "internalType": "uint256",
          "name": "size",
          "type": "uint256"
        },
        {
          "internalType": "bool",
          "name": "postponeCollateralReturn",
          "type": "bool"
        }
      ],
      "name": "bid",
      "outputs": [],
      "stateMutability": "nonpayable",
      "type": "function"
    },
    {
      "inputs": [
        {
          "internalType": "address",
          "name": "_positionAddr",
          "type": "address"
        },
        {
          "internalType": "uint256",
          "name": "_collateralAmount",
          "type": "uint256"
        },
        {
          "internalType": "uint256",
          "name": "expectedPrice",
          "type": "uint256"
        }
      ],
      "name": "challenge",
      "outputs": [
        {
          "internalType": "uint256",
          "name": "",
          "type": "uint256"
        }
      ],
      "stateMutability": "nonpayable",
      "type": "function"
    },
    {
      "inputs": [
        {
          "internalType": "uint256",
          "name": "",
          "type": "uint256"
        }
      ],
      "name": "challenges",
      "outputs": [
        {
          "internalType": "address",
          "name": "challenger",
          "type": "address"
        },
        {
          "internalType": "uint64",
          "name": "start",
          "type": "uint64"
        },
        {
          "internalType": "contract IPosition",
          "name": "position",
          "type": "address"
        },
        {
          "internalType": "uint256",
          "name": "size",
          "type": "uint256"
        }
      ],
      "stateMutability": "view",
      "type": "function"
    },
    {
      "inputs": [
        {
          "internalType": "address",
          "name": "position",
          "type": "address"
        },
        {
          "internalType": "uint256",
          "name": "_initialCollateral",
          "type": "uint256"
        },
        {
          "internalType": "uint256",
          "name": "_initialMint",
          "type": "uint256"
        },
        {
          "internalType": "uint256",
          "name": "expiration",
          "type": "uint256"
        }
      ],
      "name": "clone",
      "outputs": [
        {
          "internalType": "address",
          "name": "",
          "type": "address"
        }
      ],
      "stateMutability": "nonpayable",
      "type": "function"
    },
    {
      "inputs": [
        {
          "internalType": "address",
          "name": "_collateralAddress",
          "type": "address"
        },
        {
          "internalType": "uint256",
          "name": "_minCollateral",
          "type": "uint256"
        },
        {
          "internalType": "uint256",
          "name": "_initialCollateral",
          "type": "uint256"
        },
        {
          "internalType": "uint256",
          "name": "_mintingMaximum",
          "type": "uint256"
        },
        {
          "internalType": "uint256",
          "name": "_initPeriodSeconds",
          "type": "uint256"
        },
        {
          "internalType": "uint256",
          "name": "_expirationSeconds",
          "type": "uint256"
        },
        {
          "internalType": "uint64",
          "name": "_challengeSeconds",
          "type": "uint64"
        },
        {
          "internalType": "uint32",
          "name": "_annualInterestPPM",
          "type": "uint32"
        },
        {
          "internalType": "uint256",
          "name": "_liqPrice",
          "type": "uint256"
        },
        {
          "internalType": "uint32",
          "name": "_reservePPM",
          "type": "uint32"
        }
      ],
      "name": "openPosition",
      "outputs": [
        {
          "internalType": "address",
          "name": "",
          "type": "address"
        }
      ],
      "stateMutability": "nonpayable",
      "type": "function"
    },
    {
      "inputs": [
        {
          "internalType": "address",
          "name": "_collateralAddress",
          "type": "address"
        },
        {
          "internalType": "uint256",
          "name": "_minCollateral",
          "type": "uint256"
        },
        {
          "internalType": "uint256",
          "name": "_initialCollateral",
          "type": "uint256"
        },
        {
          "internalType": "uint256",
          "name": "_mintingMaximum",
          "type": "uint256"
        },
        {
          "internalType": "uint256",
          "name": "_expirationSeconds",
          "type": "uint256"
        },
        {
          "internalType": "uint64",
          "name": "_challengeSeconds",
          "type": "uint64"
        },
        {
          "internalType": "uint32",
          "name": "_annualInterestPPM",
          "type": "uint32"
        },
        {
          "internalType": "uint256",
          "name": "_liqPrice",
          "type": "uint256"
        },
        {
          "internalType": "uint32",
          "name": "_reservePPM",
          "type": "uint32"
        }
      ],
      "name": "openPositionOneWeek",
      "outputs": [
        {
          "internalType": "address",
          "name": "",
          "type": "address"
        }
      ],
      "stateMutability": "nonpayable",
      "type": "function"
    },
    {
      "inputs": [
        {
          "internalType": "address",
          "name": "collateral",
          "type": "address"
        },
        {
          "internalType": "address",
          "name": "owner",
          "type": "address"
        }
      ],
      "name": "pendingReturns",
      "outputs": [
        {
          "internalType": "uint256",
          "name": "amount",
          "type": "uint256"
        }
      ],
      "stateMutability": "view",
      "type": "function"
    },
    {
      "inputs": [
        {
          "internalType": "uint32",
          "name": "challengeNumber",
          "type": "uint32"
        }
      ],
      "name": "price",
      "outputs": [
        {
          "internalType": "uint256",
          "name": "",
          "type": "uint256"
        }
      ],
      "stateMutability": "view",
      "type": "function"
    },
    {
      "inputs": [
        {
          "internalType": "address",
          "name": "collateral",
          "type": "address"
        },
        {
          "internalType": "address",
          "name": "target",
          "type": "address"
        }
      ],
      "name": "returnPostponedCollateral",
      "outputs": [],
      "stateMutability": "nonpayable",
      "type": "function"
    },
    {
      "inputs": [],
      "name": "zchf",
      "outputs": [
        {
          "internalType": "contract IFrankencoin",
          "name": "",
          "type": "address"
        }
      ],
      "stateMutability": "view",
      "type": "function"
    }
  ],
  "transactionHash": "0x650dbfe37491a3defdbe08085754ac2d95520290f1c8a8feaf31f5492e38c578",
  "args": [
    "0xB58E61C3098d85632Df34EecfB899A1Ed80921cB",
    "0x0CDE500e6940931ED190ded77bb48640c9486392"
  ],
  "numDeployments": 1,
  "solcInputHash": "b9f4a1c164efac5e1e967e1b0ca42ccf",
  "bytecode": "0x60c06040523480156200001157600080fd5b50604051620024a1380380620024a1833981016040819052620000349162000069565b6001600160a01b0391821660a05216608052620000a1565b80516001600160a01b03811681146200006457600080fd5b919050565b600080604083850312156200007d57600080fd5b62000088836200004c565b915062000098602084016200004c565b90509250929050565b60805160a05161236a62000137600039600081816101dd01528181610384015281816104920152818161050501528181610624015281816106910152818161090801528181610b5b01528181610ee1015281816114a001528181611926015281816119db01528181611aae01528181611b1901528181611bd70152611c790152600081816104000152610878015261236a6000f3fe608060405234801561001057600080fd5b50600436106100b45760003560e01c8063af5806b611610071578063af5806b6146101a7578063c14a9f05146101c5578063c4d4803a146101d8578063e6c99cdf146101ff578063e6ca1df214610212578063e85cde6f1461022557600080fd5b806306c697ef146100b95780632bf78dd8146100e95780635cb4791914610107578063643745fb1461011a5780637eb81bb3146101455780638f1d37761461015a575b600080fd5b6100cc6100c7366004611ecd565b610238565b6040516001600160a01b0390911681526020015b60405180910390f35b6100f9683635c9adc5dea0000081565b6040519081526020016100e0565b6100cc610115366004611f67565b61066b565b6100f9610128366004611fa2565b600160209081526000928352604080842090915290825290205481565b610158610153366004611fe9565b610c64565b005b61016d61016836600461202b565b610e67565b604080516001600160a01b0395861681526001600160401b03949094166020850152919093169082015260608101919091526080016100e0565b6101b0614e2081565b60405163ffffffff90911681526020016100e0565b6100f96101d3366004612044565b610ebb565b6100cc7f000000000000000000000000000000000000000000000000000000000000000081565b6100cc61020d366004612079565b611273565b6100f9610220366004612108565b611298565b610158610233366004611fa2565b6113d4565b6000620f42408463ffffffff16111561025057600080fd5b63ffffffff8216614e20118015906102715750620f42408263ffffffff1611155b61027a57600080fd5b60188b6001600160a01b031663313ce5676040518163ffffffff1660e01b8152600401602060405180830381865afa1580156102ba573d6000803e3d6000fd5b505050506040513d601f19601f820116820180604052508101906102de9190612125565b60ff1611156102ec57600080fd5b898910156103405760405162461bcd60e51b815260206004820152601760248201527f6d7573742073746172742077697468206d696e20636f6c000000000000000000604482015260640160405180910390fd5b700eb194f8e1ae525fd5dcfab0800000000061035c848c61215e565b101561036757600080fd5b60405163c3fd1c3760e01b81523360048201526001600160a01b037f0000000000000000000000000000000000000000000000000000000000000000811660248301528c81166044830152606482018c9052608482018a905260a4820189905260c482018890526001600160401b03871660e483015263ffffffff868116610104840152610124830186905284166101448301526000917f00000000000000000000000000000000000000000000000000000000000000009091169063c3fd1c3790610164016020604051808303816000875af115801561044c573d6000803e3d6000fd5b505050506040513d601f19601f82011682018060405250810190610470919061217b565b60405163b52c696d60e01b81526001600160a01b0380831660048301529192507f00000000000000000000000000000000000000000000000000000000000000009091169063b52c696d90602401600060405180830381600087803b1580156104d857600080fd5b505af11580156104ec573d6000803e3d6000fd5b505060405163375edc7760e11b81526001600160a01b037f0000000000000000000000000000000000000000000000000000000000000000169250636ebdb8ee9150610547903390683635c9adc5dea0000090600401612198565b600060405180830381600087803b15801561056157600080fd5b505af1158015610575573d6000803e3d6000fd5b50506040516323b872dd60e01b81526001600160a01b038f1692506323b872dd91506105a990339085908f906004016121b1565b6020604051808303816000875af11580156105c8573d6000803e3d6000fd5b505050506040513d601f19601f820116820180604052508101906105ec91906121d5565b50806001600160a01b0316336001600160a01b03167f591ede549d7e337ac63249acd2d7849532b0a686377bbf0b0cca6c8abd9552f27f00000000000000000000000000000000000000000000000000000000000000008f88604051610654939291906121b1565b60405180910390a39b9a5050505050505050505050565b60405163aa5dd7f160e01b81526001600160a01b038581166004830152600091869130917f00000000000000000000000000000000000000000000000000000000000000009091169063aa5dd7f190602401602060405180830381865afa1580156106da573d6000803e3d6000fd5b505050506040513d601f19601f820116820180604052508101906106fe919061217b565b6001600160a01b031614610725576040516369229ba760e01b815260040160405180910390fd5b6000869050806001600160a01b03166346c715fa6040518163ffffffff1660e01b81526004016020604051808303816000875af115801561076a573d6000803e3d6000fd5b505050506040513d601f19601f8201168201806040525081019061078e919061217b565b6001600160a01b0316634665096d6040518163ffffffff1660e01b81526004016020604051808303816000875af11580156107cd573d6000803e3d6000fd5b505050506040513d601f19601f820116820180604052508101906107f191906121f2565b8411156107fd57600080fd5b604051635861764160e11b8152600481018690526001600160a01b0382169063b0c2ec8290602401600060405180830381600087803b15801561083f57600080fd5b505af1158015610853573d6000803e3d6000fd5b5050604051630167d12360e71b81526001600160a01b038a81166004830152600093507f000000000000000000000000000000000000000000000000000000000000000016915063b3e89180906024016020604051808303816000875af11580156108c2573d6000803e3d6000fd5b505050506040513d601f19601f820116820180604052508101906108e6919061217b565b60405163b52c696d60e01b81526001600160a01b0380831660048301529192507f00000000000000000000000000000000000000000000000000000000000000009091169063b52c696d90602401600060405180830381600087803b15801561094e57600080fd5b505af1158015610962573d6000803e3d6000fd5b50505050806001600160a01b031663aee1a95933846001600160a01b031663a035b1fe6040518163ffffffff1660e01b81526004016020604051808303816000875af11580156109b6573d6000803e3d6000fd5b505050506040513d601f19601f820116820180604052508101906109da91906121f2565b6040516001600160e01b031960e085901b1681526001600160a01b0390921660048301526024820152604481018a9052606481018990526084810188905260a401600060405180830381600087803b158015610a3557600080fd5b505af1158015610a49573d6000803e3d6000fd5b50505050816001600160a01b031663d8dfeb456040518163ffffffff1660e01b81526004016020604051808303816000875af1158015610a8d573d6000803e3d6000fd5b505050506040513d601f19601f82011682018060405250810190610ab1919061217b565b6001600160a01b03166323b872dd33838a6040518463ffffffff1660e01b8152600401610ae0939291906121b1565b6020604051808303816000875af1158015610aff573d6000803e3d6000fd5b505050506040513d601f19601f82011682018060405250810190610b2391906121d5565b50806001600160a01b0316336001600160a01b03167f591ede549d7e337ac63249acd2d7849532b0a686377bbf0b0cca6c8abd9552f27f0000000000000000000000000000000000000000000000000000000000000000846001600160a01b031663d8dfeb456040518163ffffffff1660e01b81526004016020604051808303816000875af1158015610bba573d6000803e3d6000fd5b505050506040513d601f19601f82011682018060405250810190610bde919061217b565b856001600160a01b031663a035b1fe6040518163ffffffff1660e01b81526004016020604051808303816000875af1158015610c1e573d6000803e3d6000fd5b505050506040513d601f19601f82011682018060405250810190610c4291906121f2565b604051610c51939291906121b1565b60405180910390a3979650505050505050565b6000808463ffffffff1681548110610c7e57610c7e61220b565b600091825260208083206040805160808101825260039490940290910180546001600160a01b038082168652600160a01b9091046001600160401b03169385018490526001820154168483018190526002909101546060850152905163d6e8f96b60e01b815260048101929092529193508291829163d6e8f96b90602401606060405180830381865afa158015610d19573d6000803e3d6000fd5b505050506040513d601f19601f82011682018060405250810190610d3d9190612221565b92509250925085846060015110610d545785610d5a565b83606001515b9550818460200151610d6c9190612259565b6001600160401b03164211610ddb57610d878488858961146a565b604080850151815163ffffffff8a168152602081018990526001600160a01b03909116917f1eee30d91b773ac47d7485a3acb6bcd8c7c9cd8d95301b1af361baf5f0991d2e910160405180910390a2610e5e565b610de784888888611737565b600080610df7868686868c61184c565b604080890151815163ffffffff8e16815260208101849052918201849052606082018c90529294509092506001600160a01b03909116907f7d3a26e8d43c5b70f86266bfa26c212e3c097716ff7240ccb6a9034e48754e239060800160405180910390a250505b50505050505050565b60008181548110610e7757600080fd5b60009182526020909120600390910201805460018201546002909201546001600160a01b038083169450600160a01b9092046001600160401b031692919091169084565b60405163aa5dd7f160e01b81526001600160a01b038481166004830152600091859130917f00000000000000000000000000000000000000000000000000000000000000009091169063aa5dd7f190602401602060405180830381865afa158015610f2a573d6000803e3d6000fd5b505050506040513d601f19601f82011682018060405250810190610f4e919061217b565b6001600160a01b031614610f75576040516369229ba760e01b815260040160405180910390fd5b600085905083816001600160a01b031663a035b1fe6040518163ffffffff1660e01b81526004016020604051808303816000875af1158015610fbb573d6000803e3d6000fd5b505050506040513d601f19601f82011682018060405250810190610fdf91906121f2565b14610ffd57604051630d57523160e11b815260040160405180910390fd5b806001600160a01b031663d8dfeb456040518163ffffffff1660e01b81526004016020604051808303816000875af115801561103d573d6000803e3d6000fd5b505050506040513d601f19601f82011682018060405250810190611061919061217b565b6001600160a01b03166323b872dd3330886040518463ffffffff1660e01b8152600401611090939291906121b1565b6020604051808303816000875af11580156110af573d6000803e3d6000fd5b505050506040513d601f19601f820116820180604052508101906110d391906121d5565b5060008054604080516080810182523381526001600160401b03428116602083019081526001600160a01b03878116848601818152606086018e8152600189018a559880529451600388027f290decd9548b62a8d60345a988386fc84ba6bc95484008f6362f93160ef3e563810180549551909616600160a01b026001600160e01b0319909516918416919091179390931790935592517f290decd9548b62a8d60345a988386fc84ba6bc95484008f6362f93160ef3e56482018054919094166001600160a01b0319919091161790925593517f290decd9548b62a8d60345a988386fc84ba6bc95484008f6362f93160ef3e56590910155516342d0204160e01b81529091906342d02041906111f190899060040190815260200190565b600060405180830381600087803b15801561120b57600080fd5b505af115801561121f573d6000803e3d6000fd5b505060408051898152602081018590526001600160a01b03861693503392507fc4b384b2c5ca32c8e77081f4083be594a1ea9ba34f208a9f9a458f70608585f5910160405180910390a39695505050505050565b600061128a8a8a8a8a62093a808b8b8b8b8b610238565b9a9950505050505050505050565b60008060008363ffffffff16815481106112b4576112b461220b565b60009182526020918290206040805160808101825260039390930290910180546001600160a01b03808216808652600160a01b9092046001600160401b03169585019590955260018201549094169183019190915260020154606082015291506113215750600092915050565b600080600083604001516001600160a01b031663d6e8f96b85602001516040518263ffffffff1660e01b815260040161136991906001600160401b0391909116815260200190565b606060405180830381865afa158015611386573d6000803e3d6000fd5b505050506040513d601f19601f820116820180604052508101906113aa9190612221565b9250925092506113ca8285602001516113c39190612259565b8285611cf2565b9695505050505050565b6001600160a01b038216600081815260016020908152604080832033845290915280822080549290555163a9059cbb60e01b815290919063a9059cbb906114219085908590600401612198565b6020604051808303816000875af1158015611440573d6000803e3d6000fd5b505050506040513d601f19601f8201168201806040525081019061146491906121d5565b50505050565b83602001516001600160401b0316420361148357600080fd5b83516001600160a01b031633146115495783516001600160a01b037f000000000000000000000000000000000000000000000000000000000000000016906323b872dd903390670de0b6b3a76400006114dc878761215e565b6114e69190612280565b6040518463ffffffff1660e01b8152600401611504939291906121b1565b6020604051808303816000875af1158015611523573d6000803e3d6000fd5b505050506040513d601f19601f8201168201806040525081019061154791906121d5565b505b83604001516001600160a01b03166349746f10826040518263ffffffff1660e01b815260040161157b91815260200190565b600060405180830381600087803b15801561159557600080fd5b505af11580156115a9573d6000803e3d6000fd5b5050505083604001516001600160a01b031663d8dfeb456040518163ffffffff1660e01b81526004016020604051808303816000875af11580156115f1573d6000803e3d6000fd5b505050506040513d601f19601f82011682018060405250810190611615919061217b565b6001600160a01b031663a9059cbb33836040518363ffffffff1660e01b8152600401611642929190612198565b6020604051808303816000875af1158015611661573d6000803e3d6000fd5b505050506040513d601f19601f8201168201806040525081019061168591906121d5565b5083606001518110156116d5578084606001516116a291906122a2565b60008463ffffffff16815481106116bb576116bb61220b565b906000526020600020906003020160020181905550611464565b836060015181146116e557600080fd5b60008363ffffffff16815481106116fe576116fe61220b565b60009182526020822060039091020180546001600160e01b03191681556001810180546001600160a01b03191690556002015550505050565b6117ab84604001516001600160a01b031663d8dfeb456040518163ffffffff1660e01b81526004016020604051808303816000875af115801561177e573d6000803e3d6000fd5b505050506040513d601f19601f820116820180604052508101906117a2919061217b565b85518484611d8a565b818460600151036118075760008363ffffffff16815481106117cf576117cf61220b565b60009182526020822060039091020180546001600160e01b03191681556001810180546001600160a01b031916905560020155611464565b8160008463ffffffff16815481106118215761182161220b565b9060005260206000209060030201600201600082825461184191906122a2565b909155505050505050565b6000806000806000808a604001516001600160a01b03166320aa9e7233896040518363ffffffff1660e01b8152600401611887929190612198565b6080604051808303816000875af11580156118a6573d6000803e3d6000fd5b505050506040513d601f19601f820116820180604052508101906118ca91906122b5565b93509350935093506000670de0b6b3a7640000846118f88c8f602001516118f19190612259565b8c8f611cf2565b611902919061215e565b61190c9190612280565b6040516323b872dd60e01b81529091506001600160a01b037f000000000000000000000000000000000000000000000000000000000000000016906323b872dd9061195f903390309086906004016121b1565b6020604051808303816000875af115801561197e573d6000803e3d6000fd5b505050506040513d601f19601f820116820180604052508101906119a291906121d5565b506000620f42406119b5614e208461215e565b6119bf9190612280565b8d5160405163a9059cbb60e01b81529192506001600160a01b037f0000000000000000000000000000000000000000000000000000000000000000169163a9059cbb91611a10918590600401612198565b6020604051808303816000875af1158015611a2f573d6000803e3d6000fd5b505050506040513d601f19601f82011682018060405250810190611a5391906121d5565b506000611a6082846122a2565b905084811115611bc5576000620f4240611a7a87846122a2565b611a8a9063ffffffff881661215e565b611a949190612280565b60405163375edc7760e11b81529091506001600160a01b037f00000000000000000000000000000000000000000000000000000000000000001690636ebdb8ee90611ae59030908590600401612198565b600060405180830381600087803b158015611aff57600080fd5b505af1158015611b13573d6000803e3d6000fd5b505050507f00000000000000000000000000000000000000000000000000000000000000006001600160a01b031663a9059cbb89838986611b5491906122a2565b611b5e91906122a2565b6040518363ffffffff1660e01b8152600401611b7b929190612198565b6020604051808303816000875af1158015611b9a573d6000803e3d6000fd5b505050506040513d601f19601f82011682018060405250810190611bbe91906121d5565b5050611c57565b84811015611c57576001600160a01b037f00000000000000000000000000000000000000000000000000000000000000001663d1fa5e9830611c0784896122a2565b6040518363ffffffff1660e01b8152600401611c24929190612198565b600060405180830381600087803b158015611c3e57600080fd5b505af1158015611c52573d6000803e3d6000fd5b505050505b6040516363b20c3360e11b81526004810186905263ffffffff851660248201527f00000000000000000000000000000000000000000000000000000000000000006001600160a01b03169063c764186690604401600060405180830381600087803b158015611cc557600080fd5b505af1158015611cd9573d6000803e3d6000fd5b50979a5093985050505050505050509550959350505050565b6000426001600160401b0380861690821611611d115782915050611d83565b611d1b8486612259565b6001600160401b0316816001600160401b031610611d3d576000915050611d83565b6000611d498683612301565b611d539086612301565b6001600160401b0316905080856001600160401b031685611d749190612280565b611d7e919061215e565b925050505b9392505050565b8015611e16576001600160a01b03808516600090815260016020908152604080832093871683529290529081208054849290611dc7908490612321565b92505081905550826001600160a01b03167f8ab298b78a235f73eee230f82012c0cf4db76003eaabd16a0195f112e7d625c88584604051611e09929190612198565b60405180910390a2611464565b60405163a9059cbb60e01b81526001600160a01b0385169063a9059cbb90611e449086908690600401612198565b6020604051808303816000875af1158015611e63573d6000803e3d6000fd5b505050506040513d601f19601f82011682018060405250810190611e8791906121d5565b5050505050565b6001600160a01b0381168114611ea357600080fd5b50565b6001600160401b0381168114611ea357600080fd5b63ffffffff81168114611ea357600080fd5b6000806000806000806000806000806101408b8d031215611eed57600080fd5b8a35611ef881611e8e565b995060208b0135985060408b0135975060608b0135965060808b0135955060a08b0135945060c08b0135611f2b81611ea6565b935060e08b0135611f3b81611ebb565b92506101008b013591506101208b0135611f5481611ebb565b809150509295989b9194979a5092959850565b60008060008060808587031215611f7d57600080fd5b8435611f8881611e8e565b966020860135965060408601359560600135945092505050565b60008060408385031215611fb557600080fd5b8235611fc081611e8e565b91506020830135611fd081611e8e565b809150509250929050565b8015158114611ea357600080fd5b600080600060608486031215611ffe57600080fd5b833561200981611ebb565b925060208401359150604084013561202081611fdb565b809150509250925092565b60006020828403121561203d57600080fd5b5035919050565b60008060006060848603121561205957600080fd5b833561206481611e8e565b95602085013595506040909401359392505050565b60008060008060008060008060006101208a8c03121561209857600080fd5b89356120a381611e8e565b985060208a0135975060408a0135965060608a0135955060808a0135945060a08a01356120cf81611ea6565b935060c08a01356120df81611ebb565b925060e08a013591506101008a01356120f781611ebb565b809150509295985092959850929598565b60006020828403121561211a57600080fd5b8135611d8381611ebb565b60006020828403121561213757600080fd5b815160ff81168114611d8357600080fd5b634e487b7160e01b600052601160045260246000fd5b808202811582820484141761217557612175612148565b92915050565b60006020828403121561218d57600080fd5b8151611d8381611e8e565b6001600160a01b03929092168252602082015260400190565b6001600160a01b039384168152919092166020820152604081019190915260600190565b6000602082840312156121e757600080fd5b8151611d8381611fdb565b60006020828403121561220457600080fd5b5051919050565b634e487b7160e01b600052603260045260246000fd5b60008060006060848603121561223657600080fd5b83519250602084015161224881611ea6565b604085015190925061202081611ea6565b6001600160401b0381811683821601908082111561227957612279612148565b5092915050565b60008261229d57634e487b7160e01b600052601260045260246000fd5b500490565b8181038181111561217557612175612148565b600080600080608085870312156122cb57600080fd5b84516122d681611e8e565b80945050602085015192506040850151915060608501516122f681611ebb565b939692955090935050565b6001600160401b0382811682821603908082111561227957612279612148565b808201808211156121755761217561214856fea2646970667358221220d8b8ffc2fffb45af378c6dd602d0b56a09dfe51cd781980d51227bbb938d024f64736f6c63430008140033",
  "devdoc": {
    "details": "Only one instance of this contract is required, whereas every new position comes with a new position contract. Pending challenges are stored as structs in an array.",
    "kind": "dev",
    "methods": {
      "bid(uint32,uint256,bool)": {
        "details": "In case that the collateral cannot be transfered back to the challenger (i.e. because the collateral token has a blacklist and the challenger is on it), it is possible to postpone the return of the collateral.",
        "params": {
          "_challengeNumber": "index of the challenge as broadcast in the event",
          "postponeCollateralReturn": "To postpone the return of the collateral to the challenger. Usually false.",
          "size": "how much of the collateral the caller wants to bid for at most                          (automatically reduced to the available amount)"
        }
      },
      "challenge(address,uint256,uint256)": {
        "params": {
          "_collateralAmount": "amount of the collateral we want to challenge",
          "_positionAddr": "address of the position we want to challenge",
          "expectedPrice": "position.price() to guard against the minter fruntrunning with a price change"
        },
        "returns": {
          "_0": "index of the challenge in challenge-array"
        }
      },
      "clone(address,uint256,uint256,uint256)": {
        "details": "This needs an allowance to be set on the collateral contract such that the minting hub can get the collateral."
      },
      "openPosition(address,uint256,uint256,uint256,uint256,uint256,uint64,uint32,uint256,uint32)": {
        "details": "For a successful call, you must set an allowance for the collateral token, allowing the minting hub to transfer the initial collateral amount to the newly created position and to withdraw the fees.",
        "params": {
          "_annualInterestPPM": "ppm of minted amount that is paid as fee for each year of duration",
          "_challengeSeconds": "challenge period. Longer for less liquid collateral.",
          "_collateralAddress": "address of collateral token",
          "_expirationSeconds": "position tenor in unit of timestamp (seconds) from 'now'",
          "_initialCollateral": "amount of initial collateral to be deposited",
          "_liqPrice": "Liquidation price with (36 - token decimals) decimals,                           e.g. 18 decimals for an 18 dec collateral, 36 decs for a 0 dec collateral.",
          "_minCollateral": "minimum collateral required to prevent dust amounts",
          "_mintingMaximum": "maximal amount of ZCHF that can be minted by the position owner",
          "_reservePPM": "ppm of minted amount that is locked as borrower's reserve, e.g. 20%"
        },
        "returns": {
          "_0": "address           address of created position"
        }
      },
      "price(uint32)": {
        "details": "The price comes with (36-collateral.decimals()) digits, such that multiplying it with the raw collateral amount always yields a price with 36 digits, or 18 digits after dividing by 10**18 again."
      }
    },
    "stateVariables": {
      "pendingReturns": {
        "details": "It maps collateral => beneficiary => amount."
      }
    },
    "title": "Minting Hub",
    "version": 1
  },
  "userdoc": {
    "kind": "user",
    "methods": {
      "CHALLENGER_REWARD()": {
        "notice": "The challenger reward in parts per million (ppm) relative to the challenged amount, whereas challenged amount if defined as the challenged collateral amount times the liquidation price."
      },
      "OPENING_FEE()": {
        "notice": "Irrevocable fee in ZCHF when proposing a new position (but not when cloning an existing one)."
      },
      "bid(uint32,uint256,bool)": {
        "notice": "Post a bid in ZCHF given an open challenge."
      },
      "challenge(address,uint256,uint256)": {
        "notice": "Launch a challenge (Dutch auction) on a position"
      },
      "clone(address,uint256,uint256,uint256)": {
        "notice": "Clones an existing position and immediately tries to mint the specified amount using the given collateral."
      },
      "openPosition(address,uint256,uint256,uint256,uint256,uint256,uint64,uint32,uint256,uint32)": {
        "notice": "Open a collateralized loan position. See also https://docs.frankencoin.com/positions/open ."
      },
      "pendingReturns(address,address)": {
        "notice": "Map to remember pending postponed collateral returns."
      },
      "price(uint32)": {
        "notice": "Get the price per unit of the collateral for the given challenge."
      },
      "returnPostponedCollateral(address,address)": {
        "notice": "Challengers can call this method to withdraw collateral whose return was postponed."
      }
    },
    "notice": "The central hub for creating, cloning and challenging collateralized Frankencoin positions.",
    "version": 1
  },
  "storageLayout": {
    "storage": [
      {
        "astId": 2047,
        "contract": "contracts/MintingHub.sol:MintingHub",
        "label": "challenges",
        "offset": 0,
        "slot": "0",
        "type": "t_array(t_struct(Challenge)2064_storage)dyn_storage"
      },
      {
        "astId": 2054,
        "contract": "contracts/MintingHub.sol:MintingHub",
        "label": "pendingReturns",
        "offset": 0,
        "slot": "1",
        "type": "t_mapping(t_address,t_mapping(t_address,t_uint256))"
      }
    ],
    "types": {
      "t_address": {
        "encoding": "inplace",
        "label": "address",
        "numberOfBytes": "20"
      },
      "t_array(t_struct(Challenge)2064_storage)dyn_storage": {
        "base": "t_struct(Challenge)2064_storage",
        "encoding": "dynamic_array",
        "label": "struct MintingHub.Challenge[]",
        "numberOfBytes": "32"
      },
      "t_contract(IPosition)4991": {
        "encoding": "inplace",
        "label": "contract IPosition",
        "numberOfBytes": "20"
      },
      "t_mapping(t_address,t_mapping(t_address,t_uint256))": {
        "encoding": "mapping",
        "key": "t_address",
        "label": "mapping(address => mapping(address => uint256))",
        "numberOfBytes": "32",
        "value": "t_mapping(t_address,t_uint256)"
      },
      "t_mapping(t_address,t_uint256)": {
        "encoding": "mapping",
        "key": "t_address",
        "label": "mapping(address => uint256)",
        "numberOfBytes": "32",
        "value": "t_uint256"
      },
      "t_struct(Challenge)2064_storage": {
        "encoding": "inplace",
        "label": "struct MintingHub.Challenge",
        "members": [
          {
            "astId": 2056,
            "contract": "contracts/MintingHub.sol:MintingHub",
            "label": "challenger",
            "offset": 0,
            "slot": "0",
            "type": "t_address"
          },
          {
            "astId": 2058,
            "contract": "contracts/MintingHub.sol:MintingHub",
            "label": "start",
            "offset": 20,
            "slot": "0",
            "type": "t_uint64"
          },
          {
            "astId": 2061,
            "contract": "contracts/MintingHub.sol:MintingHub",
            "label": "position",
            "offset": 0,
            "slot": "1",
            "type": "t_contract(IPosition)4991"
          },
          {
            "astId": 2063,
            "contract": "contracts/MintingHub.sol:MintingHub",
            "label": "size",
            "offset": 0,
            "slot": "2",
            "type": "t_uint256"
          }
        ],
        "numberOfBytes": "96"
      },
      "t_uint256": {
        "encoding": "inplace",
        "label": "uint256",
        "numberOfBytes": "32"
      },
      "t_uint64": {
        "encoding": "inplace",
        "label": "uint64",
        "numberOfBytes": "8"
      }
    }
  }
}