{
  "address": "0x9F67F1FF7A22447b04277A214E9BFaF08d832bb1",
  "abi": [
    {
      "inputs": [
        {
          "internalType": "address",
          "name": "_parent",
          "type": "address"
        }
      ],
      "name": "clonePosition",
      "outputs": [
        {
          "internalType": "address",
          "name": "",
          "type": "address"
        }
      ],
      "stateMutability": "nonpayable",
      "type": "function"
    },
    {
      "inputs": [
        {
          "internalType": "address",
          "name": "_owner",
          "type": "address"
        },
        {
          "internalType": "address",
          "name": "_deuro",
          "type": "address"
        },
        {
          "internalType": "address",
          "name": "_collateral",
          "type": "address"
        },
        {
          "internalType": "uint256",
          "name": "_minCollateral",
          "type": "uint256"
        },
        {
          "internalType": "uint256",
          "name": "_initialLimit",
          "type": "uint256"
        },
        {
          "internalType": "uint40",
          "name": "_initPeriod",
          "type": "uint40"
        },
        {
          "internalType": "uint40",
          "name": "_duration",
          "type": "uint40"
        },
        {
          "internalType": "uint40",
          "name": "_challengePeriod",
          "type": "uint40"
        },
        {
          "internalType": "uint24",
          "name": "_riskPremiumPPM",
          "type": "uint24"
        },
        {
          "internalType": "uint256",
          "name": "_liqPrice",
          "type": "uint256"
        },
        {
          "internalType": "uint24",
          "name": "_reserve",
          "type": "uint24"
        }
      ],
      "name": "createNewPosition",
      "outputs": [
        {
          "internalType": "address",
          "name": "",
          "type": "address"
        }
      ],
      "stateMutability": "nonpayable",
      "type": "function"
    }
  ],
  "transactionHash": "0x95db8d8cb88da106ac544865156714a5266606423efca88ffec746d35f1d0268",
  "args": [],
  "numDeployments": 2,
  "solcInputHash": "03c47d03e6eff7df7c4a79a0658f45ce",
  "bytecode": "0x6080604052348015600f57600080fd5b5061382c8061001f6000396000f3fe608060405234801561001057600080fd5b50600436106100365760003560e01c80635d824f761461003b578063b3e891801461006a575b600080fd5b61004e61004936600461029e565b61007d565b6040516001600160a01b03909116815260200160405180910390f35b61004e61007836600461035b565b6100d9565b60008b338c8c8c8c8c8c8c8c8c8c6040516100979061024c565b6100ac9c9b9a9998979695949392919061037f565b604051809103906000f0801580156100c8573d6000803e3d6000fd5b509c9b505050505050505050505050565b600080829050806001600160a01b0316630e49d77e6040518163ffffffff1660e01b8152600401600060405180830381600087803b15801561011a57600080fd5b505af115801561012e573d6000803e3d6000fd5b50505050600061019e826001600160a01b03166346c715fa6040518163ffffffff1660e01b8152600401602060405180830381865afa158015610175573d6000803e3d6000fd5b505050506040513d601f19601f82011682018060405250810190610199919061040f565b6101a6565b949350505050565b6000808260601b9050604051733d602d80600a3d3981f3363d3d373d3d3d363d7360601b81528160148201526e5af43d82803e903d91602b57fd5bf360881b60288201526037816000f09250506001600160a01b0382166102465760405162461bcd60e51b8152602060048201526016602482015275115490cc4c4d8dce8818dc99585d194819985a5b195960521b604482015260640160405180910390fd5b50919050565b6133ca8061042d83390190565b6001600160a01b038116811461026e57600080fd5b50565b803564ffffffffff8116811461028657600080fd5b919050565b803562ffffff8116811461028657600080fd5b60008060008060008060008060008060006101608c8e0312156102c057600080fd5b8b356102cb81610259565b9a5060208c01356102db81610259565b995060408c01356102eb81610259565b985060608c0135975060808c0135965061030760a08d01610271565b955061031560c08d01610271565b945061032360e08d01610271565b93506103326101008d0161028b565b92506101208c013591506103496101408d0161028b565b90509295989b509295989b9093969950565b60006020828403121561036d57600080fd5b813561037881610259565b9392505050565b6001600160a01b038d811682528c811660208301528b811660408301528a1660608201526080810189905260a0810188905264ffffffffff87811660c0830152861660e0820152610180810164ffffffffff861661010083015262ffffff8516610120830152836101408301526103fe61016083018462ffffff169052565b9d9c50505050505050505050505050565b60006020828403121561042157600080fd5b81516103788161025956fe6101c060405234801561001157600080fd5b506040516133ca3803806133ca83398101604081905261003091610201565b8b6001600160a01b03811661005f57604051631e4fbdf760e01b81526000600482015260240160405180910390fd5b6100688161013c565b506203f4808664ffffffffff16101561008057600080fd5b3060e0526001600160a01b038b8116610100528a81166101205289166101405262ffffff8084166101805281166101a05261016088905264ffffffffff841660a0526100cc86426102e0565b64ffffffffff1660c08190526005805464ffffffffff1916821790556100f39086906102e0565b6005805464ffffffffff92909216650100000000000264ffffffffff60281b19909216919091179055608087905261012b828861018c565b50505050505050505050505061031a565b600080546001600160a01b038381166001600160a01b0319831681178455604051919092169283917f8be0079c531659141344cd1fd0a4f28419497f9722a3daafe3b4186f6b6457e09190a35050565b61019e670de0b6b3a764000082610303565b610160516101ac9084610303565b11156101b757600080fd5b50600155565b80516001600160a01b03811681146101d457600080fd5b919050565b805164ffffffffff811681146101d457600080fd5b805162ffffff811681146101d457600080fd5b6000806000806000806000806000806000806101808d8f03121561022457600080fd5b61022d8d6101bd565b9b5061023b60208e016101bd565b9a5061024960408e016101bd565b995061025760608e016101bd565b60808e015160a08f0151919a509850965061027460c08e016101d9565b955061028260e08e016101d9565b94506102916101008e016101d9565b93506102a06101208e016101ee565b6101408e015190935091506102b86101608e016101ee565b90509295989b509295989b509295989b565b634e487b7160e01b600052601160045260246000fd5b64ffffffffff81811683821601908111156102fd576102fd6102ca565b92915050565b80820281158282048414176102fd576102fd6102ca565b60805160a05160c05160e05161010051610120516101405161016051610180516101a051612e9f61052b600039600081816103d0015281816106be0152818161071901528181610aae01528181610ba701528181610c8701528181610f4f015281816110060152818161142101528181611baa01528181611ee701526126c60152600081816104e20152611d0e0152600081816105b8015281816116aa01528181612444015281816128bc015261296b01526000818161063601528181611a9f015281816121160152818161224a01526123c70152600081816105220152818161085601528181610bd101528181610cb101528181610d3101528181610e1201528181610e9901528181610f7601528181611030015281816110ba0152818161138a0152818161144b015281816117e701528181611b3f015281816120660152612695015260008181610362015281816109a601528181610ae2015281816112880152818161152b0152818161161d01528181611741015281816117c30152818161189801528181611a5101528181611d2f015261204201526000818161044b015281816111ac0152818161120601528181611916015281816122e2015261262f0152600081816105df0152818161080f01528181611e1f0152611e5301526000818161031f0152610683015260008181610589015281816111db01528181611faa0152611feb0152612e9f6000f3fe608060405234801561001057600080fd5b506004361061025e5760003560e01c80636f871cec11610146578063a035b1fe116100c3578063c2b6b58c11610087578063c2b6b58c14610601578063cfb636f01461061e578063d8dfeb4514610631578063d9caed1214610658578063f2fde38b1461066b578063f3f480d91461067e57600080fd5b8063a035b1fe1461057b578063a4d66daf14610584578063a8a3e31d146105ab578063babe7c74146105b3578063be9a6555146105da57600080fd5b80637bd6fb9b1161010a5780637bd6fb9b1461051557806382b8eaf51461051d5780638da5cb5b1461054457806399a5d747146105555780639de2f7961461056857600080fd5b80636f871cec146104af578063715018a6146104c257806372bf079e146104ca578063730d48b7146104dd578063787a08a61461050457600080fd5b8063371fd8e6116101df5780634665096d116101a35780634665096d1461041857806346c715fa1461044657806349746f101461046d5780634f02c420146104805780635be980f5146104895780636d4749fa1461049c57600080fd5b8063371fd8e61461039c578063383ef46e146103af5780633a7c29fb146103cb57806340c10f19146103f257806342d020411461040557600080fd5b806324e657fe1161022657806324e657fe146102fc5780632a37eeae14610305578063329864aa1461030d578063350c35e91461034a578063365a86fc1461035d57600080fd5b806308262940146102635780630e49d77e146102895780631bbea34c1461029357806320aa9e72146102a6578063211d7983146102e9575b600080fd5b6102766102713660046129af565b6106a5565b6040519081526020015b60405180910390f35b610291610744565b005b6102916102a1366004612a28565b61080d565b6102b96102b4366004612ae0565b610996565b604080516001600160a01b03909516855260208501939093529183015263ffffffff166060820152608001610280565b6102916102f7366004612b0c565b610ad7565b61027660045481565b6102766111a0565b6001546040805191825264ffffffffff7f000000000000000000000000000000000000000000000000000000000000000016602083015201610280565b610291610358366004612ae0565b611286565b6103847f000000000000000000000000000000000000000000000000000000000000000081565b6040516001600160a01b039091168152602001610280565b6102766103aa366004612b41565b611370565b6103b761150c565b60405162ffffff9091168152602001610280565b6103b77f000000000000000000000000000000000000000000000000000000000000000081565b610291610400366004612ae0565b611529565b610291610413366004612b41565b611612565b60055461043090600160281b900464ffffffffff1681565b60405164ffffffffff9091168152602001610280565b6103847f000000000000000000000000000000000000000000000000000000000000000081565b61029161047b366004612b41565b611736565b61027660025481565b610291610497366004612b41565b6117a6565b6102916104aa366004612b6d565b61188d565b6102916104bd366004612b9b565b611a79565b610291611ca9565b6102916104d8366004612b41565b611cbb565b6103b77f000000000000000000000000000000000000000000000000000000000000000081565b6005546104309064ffffffffff1681565b6103b7611d0a565b6103847f000000000000000000000000000000000000000000000000000000000000000081565b6000546001600160a01b0316610384565b6103b7610563366004612b41565b611e1a565b610276610576366004612b41565b611ed2565b61027660015481565b6102767f000000000000000000000000000000000000000000000000000000000000000081565b610276611f59565b6102767f000000000000000000000000000000000000000000000000000000000000000081565b6104307f000000000000000000000000000000000000000000000000000000000000000081565b600554600160501b900460ff166040519015158152602001610280565b61029161062c366004612b41565b612025565b6103847f000000000000000000000000000000000000000000000000000000000000000081565b610291610666366004612bc7565b61210c565b610291610679366004612c08565b6121f7565b6104307f000000000000000000000000000000000000000000000000000000000000000081565b6000811561071057620f42406106b961150c565b6106e67f0000000000000000000000000000000000000000000000000000000000000000620f4240612c3b565b6106f09190612c3b565b6106ff9062ffffff1685612c56565b6107099190612c6d565b905061073e565b620f42406106f07f000000000000000000000000000000000000000000000000000000000000000082612c3b565b92915050565b600454156107655760405163d26e2de960e01b815260040160405180910390fd5b60055464ffffffffff16421161078e57604051631c02820f60e21b815260040160405180910390fd5b600554600160281b900464ffffffffff1642106107e0576005546040516238ddd760e41b815264ffffffffff4281166004830152600160281b9092049190911660248201526044015b60405180910390fd5b600554600160501b900460ff161561080b57604051631cdde67b60e01b815260040160405180910390fd5b565b7f000000000000000000000000000000000000000000000000000000000000000064ffffffffff1642106108545760405163ecdd1c2960e01b815260040160405180910390fd5b7f00000000000000000000000000000000000000000000000000000000000000006001600160a01b031663cd3293de6040518163ffffffff1660e01b8152600401602060405180830381865afa1580156108b2573d6000803e3d6000fd5b505050506040513d601f19601f820116820180604052508101906108d69190612c8f565b6001600160a01b031663352e3a833386866040518463ffffffff1660e01b815260040161090593929190612cac565b60006040518083038186803b15801561091d57600080fd5b505afa158015610931573d6000803e3d6000fd5b5050505061094d6005805460ff60501b1916600160501b179055565b336001600160a01b03167faca80c800ec0d2aa9d9d31b7f886a1dd3067d4676abc637626a18ffb9381653d8383604051610988929190612d0a565b60405180910390a250505050565b6000808080336001600160a01b037f000000000000000000000000000000000000000000000000000000000000000016146109e4576040516313bd2e8360e31b815260040160405180910390fd5b84600460008282546109f69190612d39565b9091555060009050610a06612232565b905085811015610a14578095505b60008115610a3a578187600254610a2b9190612c56565b610a359190612c6d565b610a3d565b60005b9050610a4881612299565b610a546203f480612358565b6000610a608989612399565b600154600254604080518481526020810193909352820152909150600080516020612e4a8339815191529060600160405180910390a1506000546001600160a01b0316989697509562ffffff7f00000000000000000000000000000000000000000000000000000000000000001695509350505050565b336001600160a01b037f00000000000000000000000000000000000000000000000000000000000000001614610b20576040516313bd2e8360e31b815260040160405180910390fd5b600554600160281b900464ffffffffff16421015610b51576040516302de694d60e41b815260040160405180910390fd5b60045415610b725760405163d26e2de960e01b815260040160405180910390fd5b6000610b7e8484612399565b600254909150156110b8576002546040516302dc1ca760e31b8152600481019190915262ffffff7f00000000000000000000000000000000000000000000000000000000000000001660248201526000907f00000000000000000000000000000000000000000000000000000000000000006001600160a01b0316906316e0e53890604401602060405180830381865afa158015610c20573d6000803e3d6000fd5b505050506040513d601f19601f82011682018060405250810190610c449190612d4c565b600254909150610c548285612d65565b10610dfb576002546040516318af9f3960e11b81526001600160a01b038781166004830152602482019290925262ffffff7f00000000000000000000000000000000000000000000000000000000000000001660448201526000917f0000000000000000000000000000000000000000000000000000000000000000169063315f3e72906064016020604051808303816000875af1158015610cfa573d6000803e3d6000fd5b505050506040513d601f19601f82011682018060405250810190610d1e9190612d4c565b9050818114610d2f57610d2f612d78565b7f00000000000000000000000000000000000000000000000000000000000000006001600160a01b03166323b872dd87610d716000546001600160a01b031690565b600254610d7e868a612d65565b610d889190612d39565b6040518463ffffffff1660e01b8152600401610da693929190612d8e565b6020604051808303816000875af1158015610dc5573d6000803e3d6000fd5b505050506040513d601f19601f82011682018060405250810190610de99190612db2565b50610df5600254612299565b506110b2565b6040516323b872dd60e01b81526001600160a01b037f000000000000000000000000000000000000000000000000000000000000000016906323b872dd90610e4b90889030908890600401612d8e565b6020604051808303816000875af1158015610e6a573d6000803e3d6000fd5b505050506040513d601f19601f82011682018060405250810190610e8e9190612db2565b5081600003610fec577f00000000000000000000000000000000000000000000000000000000000000006001600160a01b031663d1fa5e983085600254610ed59190612d39565b6040516001600160e01b031960e085901b1681526001600160a01b0390921660048301526024820152604401600060405180830381600087803b158015610f1b57600080fd5b505af1158015610f2f573d6000803e3d6000fd5b50506002546040516363b20c3360e11b8152600481019190915262ffffff7f00000000000000000000000000000000000000000000000000000000000000001660248201527f00000000000000000000000000000000000000000000000000000000000000006001600160a01b0316925063c76418669150604401600060405180830381600087803b158015610fc457600080fd5b505af1158015610fd8573d6000803e3d6000fd5b50505050610fe7600254612299565b6110b2565b60405163a47d75ad60e01b81526004810184905262ffffff7f00000000000000000000000000000000000000000000000000000000000000001660248201526000907f00000000000000000000000000000000000000000000000000000000000000006001600160a01b03169063a47d75ad906044016020604051808303816000875af1158015611081573d6000803e3d6000fd5b505050506040513d601f19601f820116820180604052508101906110a59190612d4c565b90506110b081612299565b505b5061115e565b7f00000000000000000000000000000000000000000000000000000000000000006001600160a01b03166323b872dd856110fa6000546001600160a01b031690565b856040518463ffffffff1660e01b815260040161111993929190612d8e565b6020604051808303816000875af1158015611138573d6000803e3d6000fd5b505050506040513d601f19601f8201168201806040525081019061115c9190612db2565b505b600080516020612e4a833981519152611175612232565b600154600254604080519384526020840192909252908201526060015b60405180910390a150505050565b60006001600160a01b037f0000000000000000000000000000000000000000000000000000000000000000163003611204576003546111ff907f0000000000000000000000000000000000000000000000000000000000000000612d39565b905090565b7f00000000000000000000000000000000000000000000000000000000000000006001600160a01b031663a8a3e31d6040518163ffffffff1660e01b8152600401602060405180830381865afa158015611262573d6000803e3d6000fd5b505050506040513d601f19601f820116820180604052508101906111ff9190612d4c565b7f00000000000000000000000000000000000000000000000000000000000000006001600160a01b0316632f09177d6040518163ffffffff1660e01b8152600401602060405180830381865afa1580156112e4573d6000803e3d6000fd5b505050506040513d601f19601f820116820180604052508101906113089190612c8f565b6001600160a01b0316336001600160a01b03161461132857611328612489565b600061133483836124b6565b600154600254604080518481526020810193909352820152909150600080516020612e4a833981519152906060015b60405180910390a1505050565b6040516323b872dd60e01b81526000906001600160a01b037f000000000000000000000000000000000000000000000000000000000000000016906323b872dd906113c390339030908790600401612d8e565b6020604051808303816000875af11580156113e2573d6000803e3d6000fd5b505050506040513d601f19601f820116820180604052508101906114069190612db2565b5060405163a47d75ad60e01b81526004810183905262ffffff7f00000000000000000000000000000000000000000000000000000000000000001660248201526000907f00000000000000000000000000000000000000000000000000000000000000006001600160a01b03169063a47d75ad906044016020604051808303816000875af115801561149c573d6000803e3d6000fd5b505050506040513d601f19601f820116820180604052508101906114c09190612d4c565b90506114cb81612299565b600080516020612e4a8339815191526114e2612232565b6001546002546040805193845260208401929092529082015260600160405180910390a192915050565b6005546000906111ff90600160281b900464ffffffffff16611e1a565b7f00000000000000000000000000000000000000000000000000000000000000006001600160a01b0316632f09177d6040518163ffffffff1660e01b8152600401602060405180830381865afa158015611587573d6000803e3d6000fd5b505050506040513d601f19601f820116820180604052508101906115ab9190612c8f565b6001600160a01b0316336001600160a01b0316146115cb576115cb612489565b60006115d5612232565b90506115e283838361251d565b600154600254604080518481526020810193909352820152600080516020612e4a83398151915290606001611363565b336001600160a01b037f0000000000000000000000000000000000000000000000000000000000000000161461165b576040516313bd2e8360e31b815260040160405180910390fd5b600554600160281b900464ffffffffff1642106116a8576005546040516238ddd760e41b815264ffffffffff4281166004830152600160281b9092049190911660248201526044016107d7565b7f0000000000000000000000000000000000000000000000000000000000000000811080156116dd57506116da612232565b81105b156116fb57604051633c80636b60e21b815260040160405180910390fd5b8060000361171c57604051633c80636b60e21b815260040160405180910390fd5b806004600082825461172e9190612d65565b909155505050565b336001600160a01b037f0000000000000000000000000000000000000000000000000000000000000000161461177f576040516313bd2e8360e31b815260040160405180910390fd5b80600460008282546117919190612d39565b909155506117a3905062015180612358565b50565b60405163aa5dd7f160e01b81523360048201526001600160a01b037f00000000000000000000000000000000000000000000000000000000000000008116917f00000000000000000000000000000000000000000000000000000000000000009091169063aa5dd7f190602401602060405180830381865afa158015611830573d6000803e3d6000fd5b505050506040513d601f19601f820116820180604052508101906118549190612c8f565b6001600160a01b03161461187b576040516313bd2e8360e31b815260040160405180910390fd5b806003600082825461172e9190612d39565b336001600160a01b037f000000000000000000000000000000000000000000000000000000000000000016146118d6576040516313bd2e8360e31b815260040160405180910390fd5b600554600160281b900464ffffffffff16156119045760405162dc149f60e41b815260040160405180910390fd5b428164ffffffffff1610806119a757507f00000000000000000000000000000000000000000000000000000000000000006001600160a01b0316634665096d6040518163ffffffff1660e01b8152600401602060405180830381865afa158015611972573d6000803e3d6000fd5b505050506040513d601f19601f820116820180604052508101906119969190612dcf565b64ffffffffff168164ffffffffff16115b156119c557604051637d9533a960e11b815260040160405180910390fd5b806005806101000a81548164ffffffffff021916908364ffffffffff160217905550816001600160a01b031663a035b1fe6040518163ffffffff1660e01b8152600401602060405180830381865afa158015611a25573d6000803e3d6000fd5b505050506040513d601f19601f82011682018060405250810190611a499190612d4c565b600155611a757f0000000000000000000000000000000000000000000000000000000000000000612785565b5050565b611a81612489565b6000611a8b612232565b905080831115611b33576001600160a01b037f0000000000000000000000000000000000000000000000000000000000000000166323b872dd3330611ad08588612d39565b6040518463ffffffff1660e01b8152600401611aee93929190612d8e565b6020604051808303816000875af1158015611b0d573d6000803e3d6000fd5b505050506040513d601f19601f82011682018060405250810190611b319190612db2565b505b600254841015611c2c577f00000000000000000000000000000000000000000000000000000000000000006001600160a01b031663315f3e723386600254611b7b9190612d39565b6040516001600160e01b031960e085901b1681526001600160a01b039092166004830152602482015262ffffff7f00000000000000000000000000000000000000000000000000000000000000001660448201526064016020604051808303816000875af1158015611bf1573d6000803e3d6000fd5b505050506040513d601f19601f82011682018060405250810190611c159190612d4c565b50611c2c84600254611c279190612d39565b612299565b80831015611c4957611c4733611c428584612d39565b6124b6565b505b600254841115611c6b57611c6b3360025486611c659190612d39565b8561251d565b6001548214611c7d57611c7d826127d5565b6040805184815260208101849052908101859052600080516020612e4a83398151915290606001611192565b611cb1612489565b61080b6000612785565b611cc3612489565b611ccc816127d5565b600080516020612e4a833981519152611ce3612232565b6001546002546040805193845260208401929092529082015260600160405180910390a150565b60007f00000000000000000000000000000000000000000000000000000000000000007f00000000000000000000000000000000000000000000000000000000000000006001600160a01b0316632c4e722e6040518163ffffffff1660e01b8152600401602060405180830381865afa158015611d8b573d6000803e3d6000fd5b505050506040513d601f19601f82011682018060405250810190611daf9190612c8f565b6001600160a01b03166306a7b3766040518163ffffffff1660e01b8152600401602060405180830381865afa158015611dec573d6000803e3d6000fd5b505050506040513d601f19601f82011682018060405250810190611e109190612dec565b6111ff9190612e11565b6000807f000000000000000000000000000000000000000000000000000000000000000064ffffffffff164210611e515742611e7a565b7f000000000000000000000000000000000000000000000000000000000000000064ffffffffff165b90506000611e888285612d39565b905060006301e13380611e99611d0a565b611ea89062ffffff1684612c56565b611eb29190612c6d565b9050620f42408111611ec45780611ec9565b620f42405b95945050505050565b60008115611f5157611ee261150c565b611f0f7f0000000000000000000000000000000000000000000000000000000000000000620f4240612c3b565b611f199190612c3b565b62ffffff166001611f2d84620f4240612c56565b611f379190612d39565b611f419190612c6d565b611f4c906001612d65565b61073e565b600092915050565b600080670de0b6b3a7640000600154611f70612232565b611f7a9190612c56565b611f849190612c6d565b905060008160025411611fa357600254611f9e9083612d39565b611fa6565b60005b90507f000000000000000000000000000000000000000000000000000000000000000081600354611fd79190612d65565b10611fe55760009250505090565b806003547f00000000000000000000000000000000000000000000000000000000000000006120149190612d39565b61201e9190612d39565b9250505090565b60405163aa5dd7f160e01b81523360048201526001600160a01b037f00000000000000000000000000000000000000000000000000000000000000008116917f00000000000000000000000000000000000000000000000000000000000000009091169063aa5dd7f190602401602060405180830381865afa1580156120af573d6000803e3d6000fd5b505050506040513d601f19601f820116820180604052508101906120d39190612c8f565b6001600160a01b0316146120fa576040516313bd2e8360e31b815260040160405180910390fd5b806003600082825461172e9190612d65565b612114612489565b7f00000000000000000000000000000000000000000000000000000000000000006001600160a01b0316836001600160a01b03160361215c576121578282611286565b505050565b6000612166612232565b60405163a9059cbb60e01b81526001600160a01b038581166004830152602482018590529192509085169063a9059cbb906044016020604051808303816000875af11580156121b9573d6000803e3d6000fd5b505050506040513d601f19601f820116820180604052508101906121dd9190612db2565b506121e6612232565b81146121f157600080fd5b50505050565b6121ff612489565b6001600160a01b03811661222957604051631e4fbdf760e01b8152600060048201526024016107d7565b6117a381612785565b6040516370a0823160e01b81523060048201526000907f00000000000000000000000000000000000000000000000000000000000000006001600160a01b0316906370a0823190602401602060405180830381865afa158015611262573d6000803e3d6000fd5b6002548111156122cc576002546122b09082612d39565b604051635795d46960e11b81526004016107d791815260200190565b604051635be980f560e01b8152600481018290527f00000000000000000000000000000000000000000000000000000000000000006001600160a01b031690635be980f590602401600060405180830381600087803b15801561232e57600080fd5b505af1158015612342573d6000803e3d6000fd5b50505050806002600082825461172e9190612d39565b60006123648242612e2c565b60055490915064ffffffffff9081169082161115611a75576005805464ffffffffff831664ffffffffff199091161790555050565b600081156124365760405163a9059cbb60e01b81526001600160a01b038481166004830152602482018490527f0000000000000000000000000000000000000000000000000000000000000000169063a9059cbb906044016020604051808303816000875af1158015612410573d6000803e3d6000fd5b505050506040513d601f19601f820116820180604052508101906124349190612db2565b505b6000612440612232565b90507f0000000000000000000000000000000000000000000000000000000000000000811015612482576124826005805460ff60501b1916600160501b179055565b9392505050565b6000546001600160a01b0316331461080b5760405163118cdaa760e01b81523360048201526024016107d7565b600454600090156124da5760405163d26e2de960e01b815260040160405180910390fd5b60055464ffffffffff16421161250357604051631c02820f60e21b815260040160405180910390fd5b600061250f8484612399565b9050612482816001546128b8565b6004541561253e5760405163d26e2de960e01b815260040160405180910390fd5b60055464ffffffffff16421161256757604051631c02820f60e21b815260040160405180910390fd5b600554600160281b900464ffffffffff1642106125b4576005546040516238ddd760e41b815264ffffffffff4281166004830152600160281b9092049190911660248201526044016107d7565b600554600160501b900460ff16156125df57604051631cdde67b60e01b815260040160405180910390fd5b6125e76111a0565b82111561261957816125f76111a0565b604051634779077960e11b8152600481019290925260248201526044016107d7565b604051630cfb636f60e41b8152600481018390527f00000000000000000000000000000000000000000000000000000000000000006001600160a01b03169063cfb636f090602401600060405180830381600087803b15801561267b57600080fd5b505af115801561268f573d6000803e3d6000fd5b505050507f00000000000000000000000000000000000000000000000000000000000000006001600160a01b0316638112eb2b84847f00000000000000000000000000000000000000000000000000000000000000006126ed61150c565b6040516001600160e01b031960e087901b1681526001600160a01b039094166004850152602484019290925262ffffff9081166044840152166064820152608401600060405180830381600087803b15801561274857600080fd5b505af115801561275c573d6000803e3d6000fd5b5050505081600260008282546127729190612d65565b92505081905550612157816001546128b8565b600080546001600160a01b038381166001600160a01b0319831681178455604051919092169283917f8be0079c531659141344cd1fd0a4f28419497f9722a3daafe3b4186f6b6457e09190a35050565b600454156127f65760405163d26e2de960e01b815260040160405180910390fd5b600554600160281b900464ffffffffff164210612843576005546040516238ddd760e41b815264ffffffffff4281166004830152600160281b9092049190911660248201526044016107d7565b600554600160501b900460ff161561286e57604051631cdde67b60e01b815260040160405180910390fd5b600154811115612889576128846203f480612358565b61289a565b61289a612894612232565b826128b8565b6117a3816128a66111a0565b6002546128b39190612d65565b612954565b60007f000000000000000000000000000000000000000000000000000000000000000083106128e757826128ea565b60005b9050670de0b6b3a76400006002546129029190612c56565b61290c8383612c56565b10156121575761291c8282612c56565b670de0b6b3a76400006002546129329190612c56565b604051632c1f8ef160e21b8152600481019290925260248201526044016107d7565b612966670de0b6b3a764000082612c56565b6129907f000000000000000000000000000000000000000000000000000000000000000084612c56565b111561299b57600080fd5b50600155565b80151581146117a357600080fd5b600080604083850312156129c257600080fd5b8235915060208301356129d4816129a1565b809150509250929050565b60008083601f8401126129f157600080fd5b50813567ffffffffffffffff811115612a0957600080fd5b602083019150836020828501011115612a2157600080fd5b9250929050565b60008060008060408587031215612a3e57600080fd5b843567ffffffffffffffff811115612a5557600080fd5b8501601f81018713612a6657600080fd5b803567ffffffffffffffff811115612a7d57600080fd5b8760208260051b8401011115612a9257600080fd5b60209182019550935085013567ffffffffffffffff811115612ab357600080fd5b612abf878288016129df565b95989497509550505050565b6001600160a01b03811681146117a357600080fd5b60008060408385031215612af357600080fd5b8235612afe81612acb565b946020939093013593505050565b600080600060608486031215612b2157600080fd5b8335612b2c81612acb565b95602085013595506040909401359392505050565b600060208284031215612b5357600080fd5b5035919050565b64ffffffffff811681146117a357600080fd5b60008060408385031215612b8057600080fd5b8235612b8b81612acb565b915060208301356129d481612b5a565b600080600060608486031215612bb057600080fd5b505081359360208301359350604090920135919050565b600080600060608486031215612bdc57600080fd5b8335612be781612acb565b92506020840135612bf781612acb565b929592945050506040919091013590565b600060208284031215612c1a57600080fd5b813561248281612acb565b634e487b7160e01b600052601160045260246000fd5b62ffffff828116828216039081111561073e5761073e612c25565b808202811582820484141761073e5761073e612c25565b600082612c8a57634e487b7160e01b600052601260045260246000fd5b500490565b600060208284031215612ca157600080fd5b815161248281612acb565b6001600160a01b0384168152604060208201819052810182905260008360608301825b85811015612cff578235612ce281612acb565b6001600160a01b0316825260209283019290910190600101612ccf565b509695505050505050565b60208152816020820152818360408301376000818301604090810191909152601f909201601f19160101919050565b8181038181111561073e5761073e612c25565b600060208284031215612d5e57600080fd5b5051919050565b8082018082111561073e5761073e612c25565b634e487b7160e01b600052600160045260246000fd5b6001600160a01b039384168152919092166020820152604081019190915260600190565b600060208284031215612dc457600080fd5b8151612482816129a1565b600060208284031215612de157600080fd5b815161248281612b5a565b600060208284031215612dfe57600080fd5b815162ffffff8116811461248257600080fd5b62ffffff818116838216019081111561073e5761073e612c25565b64ffffffffff818116838216019081111561073e5761073e612c2556fe9483a26ad376f30b5199a79e75df3bb05158c4ee32a348f53e83245a5e50c86ea2646970667358221220101ceaab1c8e76d2904b1d152255e30e5e5a4703bc74f0945405b30e1e1c6cf264736f6c634300081a0033a26469706673582212202f51327b10e220784f923a18c935b9720e8f08d301bbfbf10b9adfd6c880c24064736f6c634300081a0033",
  "devdoc": {
    "kind": "dev",
    "methods": {
      "clonePosition(address)": {
        "params": {
          "_parent": "address of the position we want to clone"
        },
        "returns": {
          "_0": "address of the newly created clone position"
        }
      }
    },
    "version": 1
  },
  "userdoc": {
    "kind": "user",
    "methods": {
      "clonePosition(address)": {
        "notice": "clone an existing position. This can be a clone of another clone, or an original position."
      },
      "createNewPosition(address,address,address,uint256,uint256,uint40,uint40,uint40,uint24,uint256,uint24)": {
        "notice": "Create a completely new position in a newly deployed contract. Must be called through minting hub to be recognized as valid position."
      }
    },
    "version": 1
  },
  "storageLayout": {
    "storage": [],
    "types": null
  }
}