{
  "address": "0x18fA3796a43c297950f76A1bA6162d58dD2d7EDa",
  "abi": [
    {
      "inputs": [
        {
          "internalType": "address",
          "name": "deuro_",
          "type": "address"
        }
      ],
      "stateMutability": "nonpayable",
      "type": "constructor"
    },
    {
      "inputs": [
        {
          "internalType": "uint256",
          "name": "",
          "type": "uint256"
        },
        {
          "internalType": "uint256",
          "name": "",
          "type": "uint256"
        },
        {
          "internalType": "uint256",
          "name": "",
          "type": "uint256"
        }
      ],
      "name": "Log",
      "type": "error"
    },
    {
      "inputs": [
        {
          "internalType": "address",
          "name": "pos",
          "type": "address"
        }
      ],
      "name": "NotOwner",
      "type": "error"
    },
    {
      "inputs": [
        {
          "internalType": "address",
          "name": "pos",
          "type": "address"
        }
      ],
      "name": "NotPosition",
      "type": "error"
    },
    {
      "anonymous": false,
      "inputs": [
        {
          "indexed": false,
          "internalType": "address",
          "name": "source",
          "type": "address"
        },
        {
          "indexed": false,
          "internalType": "uint256",
          "name": "collWithdraw",
          "type": "uint256"
        },
        {
          "indexed": false,
          "internalType": "uint256",
          "name": "repay",
          "type": "uint256"
        },
        {
          "indexed": false,
          "internalType": "address",
          "name": "target",
          "type": "address"
        },
        {
          "indexed": false,
          "internalType": "uint256",
          "name": "collDeposit",
          "type": "uint256"
        },
        {
          "indexed": false,
          "internalType": "uint256",
          "name": "mint",
          "type": "uint256"
        }
      ],
      "name": "Roll",
      "type": "event"
    },
    {
      "inputs": [
        {
          "internalType": "contract IPosition",
          "name": "pos",
          "type": "address"
        }
      ],
      "name": "findRepaymentAmount",
      "outputs": [
        {
          "internalType": "uint256",
          "name": "",
          "type": "uint256"
        }
      ],
      "stateMutability": "view",
      "type": "function"
    },
    {
      "inputs": [
        {
          "internalType": "contract IPosition",
          "name": "source",
          "type": "address"
        },
        {
          "internalType": "uint256",
          "name": "repay",
          "type": "uint256"
        },
        {
          "internalType": "uint256",
          "name": "collWithdraw",
          "type": "uint256"
        },
        {
          "internalType": "contract IPosition",
          "name": "target",
          "type": "address"
        },
        {
          "internalType": "uint256",
          "name": "mint",
          "type": "uint256"
        },
        {
          "internalType": "uint256",
          "name": "collDeposit",
          "type": "uint256"
        },
        {
          "internalType": "uint40",
          "name": "expiration",
          "type": "uint40"
        }
      ],
      "name": "roll",
      "outputs": [],
      "stateMutability": "nonpayable",
      "type": "function"
    },
    {
      "inputs": [
        {
          "internalType": "contract IPosition",
          "name": "source",
          "type": "address"
        },
        {
          "internalType": "contract IPosition",
          "name": "target",
          "type": "address"
        }
      ],
      "name": "rollFully",
      "outputs": [],
      "stateMutability": "nonpayable",
      "type": "function"
    },
    {
      "inputs": [
        {
          "internalType": "contract IPosition",
          "name": "source",
          "type": "address"
        },
        {
          "internalType": "contract IPosition",
          "name": "target",
          "type": "address"
        },
        {
          "internalType": "uint40",
          "name": "expiration",
          "type": "uint40"
        }
      ],
      "name": "rollFullyWithExpiration",
      "outputs": [],
      "stateMutability": "nonpayable",
      "type": "function"
    }
  ],
  "transactionHash": "0x5009ff041dda4cf4473ae54821aa37e68e606d486c09e98e9cb3681fb07c75a0",
  "args": [
    "0xd45e911843721083A2751fA9Cc9D2a8089D8C0f5"
  ],
  "numDeployments": 2,
  "solcInputHash": "03c47d03e6eff7df7c4a79a0658f45ce",
  "bytecode": "0x6080604052348015600f57600080fd5b50604051611296380380611296833981016040819052602c916050565b600080546001600160a01b0319166001600160a01b0392909216919091179055607e565b600060208284031215606157600080fd5b81516001600160a01b0381168114607757600080fd5b9392505050565b6112098061008d6000396000f3fe608060405234801561001057600080fd5b506004361061004c5760003560e01c8063566dfba8146100515780635e871b541461007657806389523c331461008b578063c2a1c5061461009e575b600080fd5b61006461005f366004610f91565b6100b1565b60405190815260200160405180910390f35b610089610084366004610fc8565b610233565b005b610089610099366004611013565b6105a5565b6100896100ac366004611085565b610e22565b600080826001600160a01b0316634f02c4206040518163ffffffff1660e01b8152600401602060405180830381865afa1580156100f2573d6000803e3d6000fd5b505050506040513d601f19601f8201168201806040525081019061011691906110be565b90506000836001600160a01b0316633a7c29fb6040518163ffffffff1660e01b8152600401602060405180830381865afa158015610158573d6000803e3d6000fd5b505050506040513d601f19601f8201168201806040525081019061017c91906110d7565b905081600003610190575060009392505050565b60008054604051633824f22960e21b81526004810185905262ffffff841660248201526001600160a01b039091169063e093c8a490604401602060405180830381865afa1580156101e5573d6000803e3d6000fd5b505050506040513d601f19601f8201168201806040525081019061020991906110be565b905082810361021b5750909392505050565b61022a83836000808786610e8d565b95945050505050565b816001600160a01b031663d8dfeb456040518163ffffffff1660e01b8152600401602060405180830381865afa158015610271573d6000803e3d6000fd5b505050506040513d601f19601f8201168201806040525081019061029591906110fc565b6001600160a01b0316836001600160a01b031663d8dfeb456040518163ffffffff1660e01b8152600401602060405180830381865afa1580156102dc573d6000803e3d6000fd5b505050506040513d601f19601f8201168201806040525081019061030091906110fc565b6001600160a01b03161461031357600080fd5b600061031e846100b1565b604051634ef17bcb60e11b8152600481018290529091506000906001600160a01b03851690639de2f79690602401602060405180830381865afa158015610369573d6000803e3d6000fd5b505050506040513d601f19601f8201168201806040525081019061038d91906110be565b90506000856001600160a01b031663d8dfeb456040518163ffffffff1660e01b8152600401602060405180830381865afa1580156103cf573d6000803e3d6000fd5b505050506040513d601f19601f820116820180604052508101906103f391906110fc565b6040516370a0823160e01b81526001600160a01b03888116600483015291909116906370a0823190602401602060405180830381865afa15801561043b573d6000803e3d6000fd5b505050506040513d601f19601f8201168201806040525081019061045f91906110be565b90506000856001600160a01b031663a035b1fe6040518163ffffffff1660e01b8152600401602060405180830381865afa1580156104a1573d6000803e3d6000fd5b505050506040513d601f19601f820116820180604052508101906104c591906110be565b90506000816001816104df87670de0b6b3a764000061112f565b6104e9919061114c565b6104f3919061115f565b6104fd9190611172565b90508281111561058c57829050670de0b6b3a7640000876001600160a01b031663a035b1fe6040518163ffffffff1660e01b8152600401602060405180830381865afa158015610551573d6000803e3d6000fd5b505050506040513d601f19601f8201168201806040525081019061057591906110be565b61057f908361112f565b6105899190611172565b93505b61059b8886858a88868c6105a5565b5050505050505050565b6000805460405163aa5dd7f160e01b81526001600160a01b03808b1660048301528a9392169063aa5dd7f190602401602060405180830381865afa1580156105f1573d6000803e3d6000fd5b505050506040513d601f19601f8201168201806040525081019061061591906110fc565b6001600160a01b03160361064c57604051631a71b9a760e01b81526001600160a01b03821660048201526024015b60405180910390fd5b6000805460405163aa5dd7f160e01b81526001600160a01b038089166004830152889392169063aa5dd7f190602401602060405180830381865afa158015610698573d6000803e3d6000fd5b505050506040513d601f19601f820116820180604052508101906106bc91906110fc565b6001600160a01b0316036106ee57604051631a71b9a760e01b81526001600160a01b0382166004820152602401610643565b88336001600160a01b0316816001600160a01b0316638da5cb5b6040518163ffffffff1660e01b8152600401602060405180830381865afa158015610737573d6000803e3d6000fd5b505050506040513d601f19601f8201168201806040525081019061075b91906110fc565b6001600160a01b03161461078d5760405163245aecd360e01b81526001600160a01b0382166004820152602401610643565b6000546040516340c10f1960e01b8152306004820152602481018b90526001600160a01b03909116906340c10f1990604401600060405180830381600087803b1580156107d957600080fd5b505af11580156107ed573d6000803e3d6000fd5b5050604051631b8fec7360e11b8152600481018c90526001600160a01b038d16925063371fd8e691506024016020604051808303816000875af1158015610838573d6000803e3d6000fd5b505050506040513d601f19601f8201168201806040525081019061085c91906110be565b5060405163350c35e960e01b8152336004820152602481018990526001600160a01b038b169063350c35e990604401600060405180830381600087803b1580156108a557600080fd5b505af11580156108b9573d6000803e3d6000fd5b505050506000861115610d52576000876001600160a01b031663d8dfeb456040518163ffffffff1660e01b8152600401602060405180830381865afa158015610906573d6000803e3d6000fd5b505050506040513d601f19601f8201168201806040525081019061092a91906110fc565b9050336001600160a01b0316886001600160a01b0316638da5cb5b6040518163ffffffff1660e01b8152600401602060405180830381865afa158015610974573d6000803e3d6000fd5b505050506040513d601f19601f8201168201806040525081019061099891906110fc565b6001600160a01b0316141580610a1d5750876001600160a01b0316634665096d6040518163ffffffff1660e01b8152600401602060405180830381865afa1580156109e7573d6000803e3d6000fd5b505050506040513d601f19601f82011682018060405250810190610a0b9190611194565b64ffffffffff168564ffffffffff1614155b15610c75576040516323b872dd60e01b8152336004820152306024820152604481018790526001600160a01b038216906323b872dd906064016020604051808303816000875af1158015610a75573d6000803e3d6000fd5b505050506040513d601f19601f82011682018060405250810190610a9991906111b1565b50806001600160a01b031663095ea7b3896001600160a01b031663365a86fc6040518163ffffffff1660e01b8152600401602060405180830381865afa158015610ae7573d6000803e3d6000fd5b505050506040513d601f19601f82011682018060405250810190610b0b91906110fc565b6040516001600160e01b031960e084901b1681526001600160a01b039091166004820152602481018990526044016020604051808303816000875af1158015610b58573d6000803e3d6000fd5b505050506040513d601f19601f82011682018060405250810190610b7c91906111b1565b50876001600160a01b031663365a86fc6040518163ffffffff1660e01b8152600401602060405180830381865afa158015610bbb573d6000803e3d6000fd5b505050506040513d601f19601f82011682018060405250810190610bdf91906110fc565b604051634ec7f95360e11b81523360048201526001600160a01b038a8116602483015260448201899052606482018a905264ffffffffff881660848301529190911690639d8ff2a69060a4016020604051808303816000875af1158015610c4a573d6000803e3d6000fd5b505050506040513d601f19601f82011682018060405250810190610c6e91906110fc565b9750610d50565b6040516323b872dd60e01b81523360048201526001600160a01b038981166024830152604482018890528216906323b872dd906064016020604051808303816000875af1158015610cca573d6000803e3d6000fd5b505050506040513d601f19601f82011682018060405250810190610cee91906111b1565b506040516340c10f1960e01b8152336004820152602481018890526001600160a01b038916906340c10f1990604401600060405180830381600087803b158015610d3757600080fd5b505af1158015610d4b573d6000803e3d6000fd5b505050505b505b60005460405163079cc67960e41b8152336004820152602481018b90526001600160a01b03909116906379cc679090604401600060405180830381600087803b158015610d9e57600080fd5b505af1158015610db2573d6000803e3d6000fd5b5050604080516001600160a01b038e81168252602082018d90528183018e90528b1660608201526080810189905260a081018a905290517f8ba6e48d27ab46e18ba0971bb468a2e47a7fac577d846de107eb2fe948c2f59593509081900360c0019150a150505050505050505050565b610e898282836001600160a01b0316634665096d6040518163ffffffff1660e01b8152600401602060405180830381865afa158015610e65573d6000803e3d6000fd5b505050506040513d601f19601f820116820180604052508101906100849190611194565b5050565b6000806002610e9c858861114c565b610ea69190611172565b9050858103610eb85783915050610f6f565b60008054604051633824f22960e21b81526004810184905262ffffff8a1660248201526001600160a01b039091169063e093c8a490604401602060405180830381865afa158015610f0d573d6000803e3d6000fd5b505050506040513d601f19601f82011682018060405250810190610f3191906110be565b9050888103610f4257509050610f6f565b88811015610f6157610f58898984848989610e8d565b92505050610f6f565b610f58898989898686610e8d565b9695505050505050565b6001600160a01b0381168114610f8e57600080fd5b50565b600060208284031215610fa357600080fd5b8135610fae81610f79565b9392505050565b64ffffffffff81168114610f8e57600080fd5b600080600060608486031215610fdd57600080fd5b8335610fe881610f79565b92506020840135610ff881610f79565b9150604084013561100881610fb5565b809150509250925092565b600080600080600080600060e0888a03121561102e57600080fd5b873561103981610f79565b96506020880135955060408801359450606088013561105781610f79565b93506080880135925060a0880135915060c088013561107581610fb5565b8091505092959891949750929550565b6000806040838503121561109857600080fd5b82356110a381610f79565b915060208301356110b381610f79565b809150509250929050565b6000602082840312156110d057600080fd5b5051919050565b6000602082840312156110e957600080fd5b815162ffffff81168114610fae57600080fd5b60006020828403121561110e57600080fd5b8151610fae81610f79565b634e487b7160e01b600052601160045260246000fd5b808202811582820484141761114657611146611119565b92915050565b8082018082111561114657611146611119565b8181038181111561114657611146611119565b60008261118f57634e487b7160e01b600052601260045260246000fd5b500490565b6000602082840312156111a657600080fd5b8151610fae81610fb5565b6000602082840312156111c357600080fd5b81518015158114610fae57600080fdfea26469706673582212209b260b2b5ef151b3e0ae4a358a2b2b25e8a3a87cf63e8107560dbf0538b431fc64736f6c634300081a0033",
  "devdoc": {
    "kind": "dev",
    "methods": {
      "roll(address,uint256,uint256,address,uint256,uint256,uint40)": {
        "params": {
          "collDeposit": "The amount of collateral to be send from msg.sender to the target position.",
          "collWithdraw": "Collateral to move from the source position to the msg.sender .",
          "expiration": "The desired expiration date for the target position.",
          "mint": "The amount to be minted from the target position using collateral from msg.sender.",
          "repay": "The amount to flash loan in order to repay the source position and free up some or all collateral.",
          "source": "The source position, must be owned by the msg.sender .",
          "target": "The target position. If not owned by msg.sender or if it does not have the desired expiration,               it is cloned to create a position owned by the msg.sender."
        }
      }
    },
    "title": "PositionRoller Helper to roll over a debt from an old position to a new one. Both positions should have the same collateral. Otherwise, it does not make much sense.",
    "version": 1
  },
  "userdoc": {
    "kind": "user",
    "methods": {
      "findRepaymentAmount(address)": {
        "notice": "Doing a binary search is not very efficient, but guaranteed to return a valid result without rounding errors. To save gas costs, the frontend can also call this and other methods to calculate the right parameters and then call 'roll' directly."
      },
      "roll(address,uint256,uint256,address,uint256,uint256,uint40)": {
        "notice": "Rolls the source position into the target position using a flash loan. Both the source and the target position must recognize this roller. It is the responsibility of the caller to ensure that both positions are valid contracts."
      },
      "rollFully(address,address)": {
        "notice": "Convenience method to roll and old position into a new one. Pre-condition is an allowance for the roller to spend the collateral assset on behalf of the caller, i.e. one should set collateral.approve(roller, collateral.balanceOf(sourcePosition)); The following is assumed: - If the limit of the target position permits, the user wants to roll everything - The user does not want to add additional collateral, but excess collateral is returned - If not enough can be minted in the new position, it is ok for the roller to use deuro from the msg.sender"
      },
      "rollFullyWithExpiration(address,address,uint40)": {
        "notice": "Like rollFully, but with a custom expiration date for the new position."
      }
    },
    "version": 1
  },
  "storageLayout": {
    "storage": [
      {
        "astId": 11477,
        "contract": "contracts/MintingHubV2/PositionRoller.sol:PositionRoller",
        "label": "deuro",
        "offset": 0,
        "slot": "0",
        "type": "t_contract(IDecentralizedEURO)13260"
      }
    ],
    "types": {
      "t_contract(IDecentralizedEURO)13260": {
        "encoding": "inplace",
        "label": "contract IDecentralizedEURO",
        "numberOfBytes": "20"
      }
    }
  }
}