{
  "address": "0x0CDE500e6940931ED190ded77bb48640c9486392",
  "abi": [
    {
      "inputs": [
        {
          "internalType": "address",
          "name": "_existing",
          "type": "address"
        }
      ],
      "name": "clonePosition",
      "outputs": [
        {
          "internalType": "address",
          "name": "",
          "type": "address"
        }
      ],
      "stateMutability": "nonpayable",
      "type": "function"
    },
    {
      "inputs": [
        {
          "internalType": "address",
          "name": "_owner",
          "type": "address"
        },
        {
          "internalType": "address",
          "name": "_zchf",
          "type": "address"
        },
        {
          "internalType": "address",
          "name": "_collateral",
          "type": "address"
        },
        {
          "internalType": "uint256",
          "name": "_minCollateral",
          "type": "uint256"
        },
        {
          "internalType": "uint256",
          "name": "_initialLimit",
          "type": "uint256"
        },
        {
          "internalType": "uint256",
          "name": "_initPeriod",
          "type": "uint256"
        },
        {
          "internalType": "uint256",
          "name": "_duration",
          "type": "uint256"
        },
        {
          "internalType": "uint64",
          "name": "_challengePeriod",
          "type": "uint64"
        },
        {
          "internalType": "uint32",
          "name": "_annualInterestPPM",
          "type": "uint32"
        },
        {
          "internalType": "uint256",
          "name": "_liqPrice",
          "type": "uint256"
        },
        {
          "internalType": "uint32",
          "name": "_reserve",
          "type": "uint32"
        }
      ],
      "name": "createNewPosition",
      "outputs": [
        {
          "internalType": "address",
          "name": "",
          "type": "address"
        }
      ],
      "stateMutability": "nonpayable",
      "type": "function"
    }
  ],
  "transactionHash": "0x4b4985ccd8e08d5781dd86ae09d2979bb41568a1bed6eddd056287608e0fc554",
  "args": [],
  "numDeployments": 1,
  "solcInputHash": "b9f4a1c164efac5e1e967e1b0ca42ccf",
  "bytecode": "0x608060405234801561001057600080fd5b506124ff806100206000396000f3fe608060405234801561001057600080fd5b50600436106100365760003560e01c8063b3e891801461003b578063c3fd1c371461006a575b600080fd5b61004e61004936600461027b565b61007d565b6040516001600160a01b03909116815260200160405180910390f35b61004e6100783660046102b8565b6100f7565b60008082905060006100ef826001600160a01b03166346c715fa6040518163ffffffff1660e01b8152600401602060405180830381865afa1580156100c6573d6000803e3d6000fd5b505050506040513d601f19601f820116820180604052508101906100ea9190610376565b6101b0565b949350505050565b60008b338c8c8c8c8c8c8c8c8c8c60405161011190610256565b6001600160a01b039c8d1681529a8c1660208c0152988b1660408b0152969099166060890152608088019490945260a087019290925260c086015260e085015267ffffffffffffffff1661010084015263ffffffff9384166101208401526101408301529190911661016082015261018001604051809103906000f08015801561019f573d6000803e3d6000fd5b509c9b505050505050505050505050565b6000808260601b9050604051733d602d80600a3d3981f3363d3d373d3d3d363d7360601b81528160148201526e5af43d82803e903d91602b57fd5bf360881b60288201526037816000f09250506001600160a01b0382166102505760405162461bcd60e51b8152602060048201526016602482015275115490cc4c4d8dce8818dc99585d194819985a5b195960521b604482015260640160405180910390fd5b50919050565b6121368061039483390190565b6001600160a01b038116811461027857600080fd5b50565b60006020828403121561028d57600080fd5b813561029881610263565b9392505050565b803563ffffffff811681146102b357600080fd5b919050565b60008060008060008060008060008060006101608c8e0312156102da57600080fd5b8b356102e581610263565b9a5060208c01356102f581610263565b995060408c013561030581610263565b985060608c0135975060808c0135965060a08c0135955060c08c0135945060e08c013567ffffffffffffffff8116811461033e57600080fd5b935061034d6101008d0161029f565b92506101208c013591506103646101408d0161029f565b90509295989b509295989b9093969950565b60006020828403121561038857600080fd5b81516102988161026356fe6101a06040523480156200001257600080fd5b5060405162002136380380620021368339810160408190526200003591620001ac565b6203f4808610156200004657600080fd5b620000518c620000dd565b3060c0526001600160a01b038b811660e0528a81166101005289166101205263ffffffff808416610160528116610180526101408890526001600160401b038416608052620000a1864262000296565b60a08190526004819055620000b890869062000296565b6006556005879055620000cb8262000141565b505050505050505050505050620002cc565b6001600160a01b038116620000f157600080fd5b600080546001600160a01b038381166001600160a01b0319831681178455604051919092169283917f8be0079c531659141344cd1fd0a4f28419497f9722a3daafe3b4186f6b6457e09190a35050565b670de0b6b3a7640000600554620001599190620002b2565b61014051620001699083620002b2565b11156200017557600080fd5b600155565b80516001600160a01b03811681146200019257600080fd5b919050565b805163ffffffff811681146200019257600080fd5b6000806000806000806000806000806000806101808d8f031215620001d057600080fd5b620001db8d6200017a565b9b50620001eb60208e016200017a565b9a50620001fb60408e016200017a565b99506200020b60608e016200017a565b985060808d0151975060a08d0151965060c08d0151955060e08d015194506101008d015160018060401b03811681146200024457600080fd5b9350620002556101208e0162000197565b92506101408d015191506200026e6101608e0162000197565b90509295989b509295989b509295989b565b634e487b7160e01b600052601160045260246000fd5b80820180821115620002ac57620002ac62000280565b92915050565b8082028115828204841417620002ac57620002ac62000280565b60805160a05160c05160e0516101005161012051610140516101605161018051611d206200041660003960008181610319015281816105c00152818161061c0152818161089801528181610a3d01528181610f1e01526117160152600081816103e10152610bc101526000818161045b0152818161093a01528181610cc80152818161111c01528181611820015261187801526000818161051f01528181610dfb0152818161136b0152818161146b015261157d0152600081816104bf01528181610689015281816109ac01528181610a6701528181610eb201526116e50152600081816102aa015281816107cc01528181610c8801528181610d5f015281816110dc015261125b0152600061036f0152600081816104820152818161064901528181610b370152610b6401526000818161056c0152818161130401526113390152611d206000f3fe608060405234801561001057600080fd5b50600436106102065760003560e01c8063787a08a61161011a578063babe7c74116100ad578063d6e8f96b1161007c578063d6e8f96b146104e1578063d8dfeb451461051a578063d9caed1214610541578063f2fde38b14610554578063f3f480d91461056757600080fd5b8063babe7c7414610456578063be9a65551461047d578063c2b6b58c146104a4578063c4d4803a146104ba57600080fd5b8063a4d66daf116100e9578063a4d66daf1461041f578063a9ced3f014610428578063aee1a95914610430578063b0c2ec821461044357600080fd5b8063787a08a6146103d35780637bd6fb9b146103dc5780638da5cb5b14610403578063a035b1fe1461041657600080fd5b80633a7c29fb1161019d57806346c715fa1161016c57806346c715fa1461036a57806349746f10146103915780634f02c420146103a45780636f871cec146103ad57806372bf079e146103c057600080fd5b80633a7c29fb1461031457806340c10f191461033b57806342d020411461034e5780634665096d1461036157600080fd5b8063350c35e9116101d9578063350c35e914610292578063365a86fc146102a5578063371fd8e6146102e4578063383ef46e146102f757600080fd5b8063082629401461020b5780631bbea34c1461023157806320aa9e721461024657806324e657fe14610289575b600080fd5b61021e610219366004611936565b6105a7565b6040519081526020015b60405180910390f35b61024461023f366004611966565b610647565b005b610259610254366004611a40565b6107bc565b604080516001600160a01b03909516855260208501939093529183015263ffffffff166060820152608001610228565b61021e60035481565b6102446102a0366004611a40565b6108c0565b6102cc7f000000000000000000000000000000000000000000000000000000000000000081565b6040516001600160a01b039091168152602001610228565b6102446102f2366004611a6c565b61098a565b6102ff610b2e565b60405163ffffffff9091168152602001610228565b6102ff7f000000000000000000000000000000000000000000000000000000000000000081565b610244610349366004611a40565b610bf9565b61024461035c366004611a6c565b610c7d565b61021e60065481565b6102cc7f000000000000000000000000000000000000000000000000000000000000000081565b61024461039f366004611a6c565b610d54565b61021e60025481565b6102446103bb366004611a85565b610dd4565b6102446103ce366004611a6c565b610fda565b61021e60045481565b6102ff7f000000000000000000000000000000000000000000000000000000000000000081565b6000546102cc906001600160a01b031681565b61021e60015481565b61021e60055481565b61021e61107f565b61024461043e366004611ab1565b6110d1565b610244610451366004611a6c565b6111eb565b61021e7f000000000000000000000000000000000000000000000000000000000000000081565b61021e7f000000000000000000000000000000000000000000000000000000000000000081565b6004546040516000199091148152602001610228565b6102cc7f000000000000000000000000000000000000000000000000000000000000000081565b6104f46104ef366004611a6c565b6112d3565b6040805193845267ffffffffffffffff9283166020850152911690820152606001610228565b6102cc7f000000000000000000000000000000000000000000000000000000000000000081565b61024461054f366004611af5565b611360565b610244610562366004611b36565b611441565b61058e7f000000000000000000000000000000000000000000000000000000000000000081565b60405167ffffffffffffffff9091168152602001610228565b6000811561061357620f42406105bb610b2e565b6105e87f0000000000000000000000000000000000000000000000000000000000000000620f4240611b69565b6105f29190611b69565b6106029063ffffffff1685611b8d565b61060c9190611ba4565b9050610641565b620f42406105f27f000000000000000000000000000000000000000000000000000000000000000082611b69565b92915050565b7f000000000000000000000000000000000000000000000000000000000000000042106106875760405163ecdd1c2960e01b815260040160405180910390fd5b7f00000000000000000000000000000000000000000000000000000000000000006001600160a01b031663cd3293de6040518163ffffffff1660e01b8152600401602060405180830381865afa1580156106e5573d6000803e3d6000fd5b505050506040513d601f19601f820116820180604052508101906107099190611bc6565b6001600160a01b031663352e3a833386866040518463ffffffff1660e01b815260040161073893929190611be3565b60006040518083038186803b15801561075057600080fd5b505afa158015610764573d6000803e3d6000fd5b50505050610773600019600455565b336001600160a01b03167faca80c800ec0d2aa9d9d31b7f886a1dd3067d4676abc637626a18ffb9381653d83836040516107ae929190611c3f565b60405180910390a250505050565b6000808080336001600160a01b037f0000000000000000000000000000000000000000000000000000000000000000161461080a576040516313bd2e8360e31b815260040160405180910390fd5b846003600082825461081c9190611c6e565b909155506000905061082c611453565b90508581101561083a578095505b600081156108605781876002546108519190611b8d565b61085b9190611ba4565b610863565b60005b905061086e816114e3565b61087a6203f480611531565b610884888861154f565b506000546001600160a01b031698969750957f000000000000000000000000000000000000000000000000000000000000000095509350505050565b6108c933611646565b600354156108ea5760405163d26e2de960e01b815260040160405180910390fd5b6004544211158015610900575060045460001914155b1561091e57604051631c02820f60e21b815260040160405180910390fd5b600061092a838361154f565b905061093881600154611674565b7f0000000000000000000000000000000000000000000000000000000000000000811080156109675750600081115b1561098557604051633a23d82560e01b815260040160405180910390fd5b505050565b6040516323b872dd60e01b8152336004820152306024820152604481018290527f00000000000000000000000000000000000000000000000000000000000000006001600160a01b0316906323b872dd906064016020604051808303816000875af11580156109fd573d6000803e3d6000fd5b505050506040513d601f19601f82011682018060405250810190610a219190611c81565b5060405163a47d75ad60e01b81526004810182905263ffffffff7f00000000000000000000000000000000000000000000000000000000000000001660248201526000907f00000000000000000000000000000000000000000000000000000000000000006001600160a01b03169063a47d75ad906044016020604051808303816000875af1158015610ab8573d6000803e3d6000fd5b505050506040513d601f19601f82011682018060405250810190610adc9190611c9e565b9050610ae7816114e3565b600080516020611ccb833981519152610afe611453565b60015460025460055460408051948552602085019390935291830152606082015260800160405180910390a15050565b600654600090817f00000000000000000000000000000000000000000000000000000000000000004210610b625742610b84565b7f00000000000000000000000000000000000000000000000000000000000000005b90506000610b956224ea0084611c6e565b821015610bab57610ba68284611c6e565b610bb0565b6224ea005b90506301e13380610be763ffffffff7f00000000000000000000000000000000000000000000000000000000000000001683611b8d565b610bf19190611ba4565b935050505090565b610c0233611646565b60035415610c235760405163d26e2de960e01b815260040160405180910390fd5b6004544211610c4557604051631c02820f60e21b815260040160405180910390fd5b6006544210610c6757604051630407b05b60e31b815260040160405180910390fd5b610c798282610c74611453565b6116b3565b5050565b336001600160a01b037f00000000000000000000000000000000000000000000000000000000000000001614610cc6576040516313bd2e8360e31b815260040160405180910390fd5b7f000000000000000000000000000000000000000000000000000000000000000081108015610cfb5750610cf8611453565b81105b15610d1957604051633c80636b60e21b815260040160405180910390fd5b80600003610d3a57604051633c80636b60e21b815260040160405180910390fd5b8060036000828254610d4c9190611cb7565b909155505050565b336001600160a01b037f00000000000000000000000000000000000000000000000000000000000000001614610d9d576040516313bd2e8360e31b815260040160405180910390fd5b8060036000828254610daf9190611c6e565b90915550610dc1905062015180611531565b610dd1610dcc611453565b61181e565b50565b610ddd33611646565b6000610de7611453565b905080831115610ea6576001600160a01b037f0000000000000000000000000000000000000000000000000000000000000000166323b872dd3330610e2c8588611c6e565b6040516001600160e01b031960e086901b1681526001600160a01b03938416600482015292909116602483015260448201526064016020604051808303816000875af1158015610e80573d6000803e3d6000fd5b505050506040513d601f19601f82011682018060405250810190610ea49190611c81565b505b600254841015610f90577f00000000000000000000000000000000000000000000000000000000000000006001600160a01b031663315f3e723386600254610eee9190611c6e565b6040516001600160e01b031960e085901b1681526001600160a01b039092166004830152602482015263ffffffff7f00000000000000000000000000000000000000000000000000000000000000001660448201526064016020604051808303816000875af1158015610f65573d6000803e3d6000fd5b505050506040513d601f19601f82011682018060405250810190610f899190611c9e565b5060028490555b80831015610fa657610fa6336102a08584611c6e565b600254841115610fc257610fc233600254866103499190611c6e565b6001548214610fd457610fd482610fda565b50505050565b610fe333611646565b600354156110045760405163d26e2de960e01b815260040160405180910390fd5b60015481111561101f5761101a6203f480611531565b611030565b61103061102a611453565b82611674565b6110398161185d565b600080516020611ccb833981519152611050611453565b60015460025460055460408051948552602085019390935291830152606082015260800160405180910390a150565b600080670de0b6b3a7640000600154611096611453565b6110a09190611b8d565b6110aa9190611ba4565b905060055481106110bd57600091505090565b806005546110cb9190611c6e565b91505090565b336001600160a01b037f0000000000000000000000000000000000000000000000000000000000000000161461111a576040516313bd2e8360e31b815260040160405180910390fd5b7f000000000000000000000000000000000000000000000000000000000000000083101561115b57604051633a23d82560e01b815260040160405180910390fd5b600083611170670de0b6b3a764000085611b8d565b61117a9190611ba4565b9050670de0b6b3a764000061118f8583611b8d565b6111999190611ba4565b9250848111156111bc57604051633a23d82560e01b815260040160405180910390fd5b6111c5866118ad565b600583905560068290556111d88161185d565b6111e38684866116b3565b505050505050565b6003541561120c5760405163d26e2de960e01b815260040160405180910390fd5b600454421161122e57604051631c02820f60e21b815260040160405180910390fd5b600654421061125057604051630407b05b60e31b815260040160405180910390fd5b336001600160a01b037f00000000000000000000000000000000000000000000000000000000000000001614611299576040516313bd2e8360e31b815260040160405180910390fd5b6112a161107f565b8111156112c157604051631930e3c960e11b815260040160405180910390fd5b8060056000828254610d4c9190611c6e565b6000806000806006548510156112f657846006546112f19190611c6e565b6112f9565b60005b9050600154611332827f000000000000000000000000000000000000000000000000000000000000000067ffffffffffffffff16611910565b90969095507f0000000000000000000000000000000000000000000000000000000000000000945092505050565b61136933611646565b7f00000000000000000000000000000000000000000000000000000000000000006001600160a01b0316836001600160a01b0316036113ac5761098582826108c0565b60006113b6611453565b60405163a9059cbb60e01b81526001600160a01b038581166004830152602482018590529192509085169063a9059cbb906044016020604051808303816000875af1158015611409573d6000803e3d6000fd5b505050506040513d601f19601f8201168201806040525081019061142d9190611c81565b50611436611453565b8114610fd457600080fd5b61144a33611646565b610dd1816118ad565b6040516370a0823160e01b81523060048201526000907f00000000000000000000000000000000000000000000000000000000000000006001600160a01b0316906370a0823190602401602060405180830381865afa1580156114ba573d6000803e3d6000fd5b505050506040513d601f19601f820116820180604052508101906114de9190611c9e565b905090565b60025481111561151f576002546114fa9082611c6e565b604051635795d46960e11b815260040161151691815260200190565b60405180910390fd5b8060026000828254610d4c9190611c6e565b600061153d8242611cb7565b9050600454811115610c795760045550565b600081156115ec5760405163a9059cbb60e01b81526001600160a01b038481166004830152602482018490527f0000000000000000000000000000000000000000000000000000000000000000169063a9059cbb906044016020604051808303816000875af11580156115c6573d6000803e3d6000fd5b505050506040513d601f19601f820116820180604052508101906115ea9190611c81565b505b60006115f6611453565b90506116018161181e565b6001546002546005546040805185815260208101949094528301919091526060820152600080516020611ccb8339815191529060800160405180910390a19392505050565b6000546001600160a01b03828116911614610dd1576040516330cd747160e01b815260040160405180910390fd5b670de0b6b3a764000060025461168a9190611b8d565b6116948284611b8d565b1015610c7957604051633a23d82560e01b815260040160405180910390fd5b600554826002546116c49190611cb7565b11156116e357604051631930e3c960e11b815260040160405180910390fd5b7f00000000000000000000000000000000000000000000000000000000000000006001600160a01b0316638112eb2b84847f000000000000000000000000000000000000000000000000000000000000000061173d610b2e565b6040516001600160e01b031960e087901b1681526001600160a01b039094166004850152602484019290925263ffffffff9081166044840152166064820152608401600060405180830381600087803b15801561179957600080fd5b505af11580156117ad573d6000803e3d6000fd5b5050505081600260008282546117c39190611cb7565b925050819055506117d681600154611674565b600080516020611ccb8339815191526117ed611453565b60015460025460055460408051948552602085019390935291830152606082015260800160405180910390a1505050565b7f00000000000000000000000000000000000000000000000000000000000000008110801561184d5750600354155b15610dd157610dd1600019600455565b670de0b6b3a76400006005546118739190611b8d565b61189d7f000000000000000000000000000000000000000000000000000000000000000083611b8d565b11156118a857600080fd5b600155565b6001600160a01b0381166118c057600080fd5b600080546001600160a01b038381166001600160a01b0319831681178455604051919092169283917f8be0079c531659141344cd1fd0a4f28419497f9722a3daafe3b4186f6b6457e09190a35050565b600081831061191f5781611921565b825b9392505050565b8015158114610dd157600080fd5b6000806040838503121561194957600080fd5b82359150602083013561195b81611928565b809150509250929050565b6000806000806040858703121561197c57600080fd5b843567ffffffffffffffff8082111561199457600080fd5b818701915087601f8301126119a857600080fd5b8135818111156119b757600080fd5b8860208260051b85010111156119cc57600080fd5b6020928301965094509086013590808211156119e757600080fd5b818701915087601f8301126119fb57600080fd5b813581811115611a0a57600080fd5b886020828501011115611a1c57600080fd5b95989497505060200194505050565b6001600160a01b0381168114610dd157600080fd5b60008060408385031215611a5357600080fd5b8235611a5e81611a2b565b946020939093013593505050565b600060208284031215611a7e57600080fd5b5035919050565b600080600060608486031215611a9a57600080fd5b505081359360208301359350604090920135919050565b600080600080600060a08688031215611ac957600080fd5b8535611ad481611a2b565b97602087013597506040870135966060810135965060800135945092505050565b600080600060608486031215611b0a57600080fd5b8335611b1581611a2b565b92506020840135611b2581611a2b565b929592945050506040919091013590565b600060208284031215611b4857600080fd5b813561192181611a2b565b634e487b7160e01b600052601160045260246000fd5b63ffffffff828116828216039080821115611b8657611b86611b53565b5092915050565b808202811582820484141761064157610641611b53565b600082611bc157634e487b7160e01b600052601260045260246000fd5b500490565b600060208284031215611bd857600080fd5b815161192181611a2b565b6001600160a01b03848116825260406020808401829052908301849052600091859160608501845b87811015611c32578435611c1e81611a2b565b841682529382019390820190600101611c0b565b5098975050505050505050565b60208152816020820152818360408301376000818301604090810191909152601f909201601f19160101919050565b8181038181111561064157610641611b53565b600060208284031215611c9357600080fd5b815161192181611928565b600060208284031215611cb057600080fd5b5051919050565b8082018082111561064157610641611b5356fecb2040b7eb3265a4335698c9ecbe81a5f9857e92aa32e07ce235f44c321a7e35a264697066735822122033a1d869823b066283198911926f6f789832b83aa6f7e1ee38d0848552f7e9e664736f6c63430008140033a26469706673582212202846eb6087cb12a006adf4100f31dc6bf5fc0ee131f0fa8e9e26b89b60a82b1064736f6c63430008140033",
  "devdoc": {
    "kind": "dev",
    "methods": {
      "clonePosition(address)": {
        "params": {
          "_existing": "address of the position we want to clone"
        },
        "returns": {
          "_0": "address of the newly created clone position"
        }
      }
    },
    "version": 1
  },
  "userdoc": {
    "kind": "user",
    "methods": {
      "clonePosition(address)": {
        "notice": "clone an existing position. This can be a clone of another clone, or an original position."
      },
      "createNewPosition(address,address,address,uint256,uint256,uint256,uint256,uint64,uint32,uint256,uint32)": {
        "notice": "Create a completely new position in a newly deployed contract. Must be called through minting hub to be recognized as valid position."
      }
    },
    "version": 1
  },
  "storageLayout": {
    "storage": [],
    "types": null
  }
}