{
  "address": "0x5F9C74b58D2C0a4FaB41318F94b5A23ba27FA98a",
  "abi": [
    {
      "inputs": [
        {
          "internalType": "address",
          "name": "_parent",
          "type": "address"
        }
      ],
      "name": "clonePosition",
      "outputs": [
        {
          "internalType": "address",
          "name": "",
          "type": "address"
        }
      ],
      "stateMutability": "nonpayable",
      "type": "function"
    },
    {
      "inputs": [
        {
          "internalType": "address",
          "name": "_owner",
          "type": "address"
        },
        {
          "internalType": "address",
          "name": "_deuro",
          "type": "address"
        },
        {
          "internalType": "address",
          "name": "_collateral",
          "type": "address"
        },
        {
          "internalType": "uint256",
          "name": "_minCollateral",
          "type": "uint256"
        },
        {
          "internalType": "uint256",
          "name": "_initialLimit",
          "type": "uint256"
        },
        {
          "internalType": "uint40",
          "name": "_initPeriod",
          "type": "uint40"
        },
        {
          "internalType": "uint40",
          "name": "_duration",
          "type": "uint40"
        },
        {
          "internalType": "uint40",
          "name": "_challengePeriod",
          "type": "uint40"
        },
        {
          "internalType": "uint24",
          "name": "_riskPremiumPPM",
          "type": "uint24"
        },
        {
          "internalType": "uint256",
          "name": "_liqPrice",
          "type": "uint256"
        },
        {
          "internalType": "uint24",
          "name": "_reserve",
          "type": "uint24"
        }
      ],
      "name": "createNewPosition",
      "outputs": [
        {
          "internalType": "address",
          "name": "",
          "type": "address"
        }
      ],
      "stateMutability": "nonpayable",
      "type": "function"
    }
  ],
  "transactionHash": "0x0abfde7e39c291cc4000577a84c8504325165957fbe504dbf47e369addd98082",
  "args": [],
  "numDeployments": 1,
  "solcInputHash": "2b6c9a674c0f5cac576001fd230e0d7c",
  "bytecode": "0x6080604052348015600f57600080fd5b5061364f8061001f6000396000f3fe608060405234801561001057600080fd5b50600436106100365760003560e01c80635d824f761461003b578063b3e891801461006a575b600080fd5b61004e61004936600461029e565b61007d565b6040516001600160a01b03909116815260200160405180910390f35b61004e61007836600461035b565b6100d9565b60008b338c8c8c8c8c8c8c8c8c8c6040516100979061024c565b6100ac9c9b9a9998979695949392919061037f565b604051809103906000f0801580156100c8573d6000803e3d6000fd5b509c9b505050505050505050505050565b600080829050806001600160a01b0316630e49d77e6040518163ffffffff1660e01b8152600401600060405180830381600087803b15801561011a57600080fd5b505af115801561012e573d6000803e3d6000fd5b50505050600061019e826001600160a01b03166346c715fa6040518163ffffffff1660e01b8152600401602060405180830381865afa158015610175573d6000803e3d6000fd5b505050506040513d601f19601f82011682018060405250810190610199919061040f565b6101a6565b949350505050565b6000808260601b9050604051733d602d80600a3d3981f3363d3d373d3d3d363d7360601b81528160148201526e5af43d82803e903d91602b57fd5bf360881b60288201526037816000f09250506001600160a01b0382166102465760405162461bcd60e51b8152602060048201526016602482015275115490cc4c4d8dce8818dc99585d194819985a5b195960521b604482015260640160405180910390fd5b50919050565b6131ed8061042d83390190565b6001600160a01b038116811461026e57600080fd5b50565b803564ffffffffff8116811461028657600080fd5b919050565b803562ffffff8116811461028657600080fd5b60008060008060008060008060008060006101608c8e0312156102c057600080fd5b8b356102cb81610259565b9a5060208c01356102db81610259565b995060408c01356102eb81610259565b985060608c0135975060808c0135965061030760a08d01610271565b955061031560c08d01610271565b945061032360e08d01610271565b93506103326101008d0161028b565b92506101208c013591506103496101408d0161028b565b90509295989b509295989b9093969950565b60006020828403121561036d57600080fd5b813561037881610259565b9392505050565b6001600160a01b038d811682528c811660208301528b811660408301528a1660608201526080810189905260a0810188905264ffffffffff87811660c0830152861660e0820152610180810164ffffffffff861661010083015262ffffff8516610120830152836101408301526103fe61016083018462ffffff169052565b9d9c50505050505050505050505050565b60006020828403121561042157600080fd5b81516103788161025956fe6101c060405234801561001157600080fd5b506040516131ed3803806131ed83398101604081905261003091610201565b8b6001600160a01b03811661005f57604051631e4fbdf760e01b81526000600482015260240160405180910390fd5b6100688161013c565b506203f4808664ffffffffff16101561008057600080fd5b3060e0526001600160a01b038b8116610100528a81166101205289166101405262ffffff8084166101805281166101a05261016088905264ffffffffff841660a0526100cc86426102e0565b64ffffffffff1660c08190526005805464ffffffffff1916821790556100f39086906102e0565b6005805464ffffffffff92909216650100000000000264ffffffffff60281b19909216919091179055608087905261012b828861018c565b50505050505050505050505061031a565b600080546001600160a01b038381166001600160a01b0319831681178455604051919092169283917f8be0079c531659141344cd1fd0a4f28419497f9722a3daafe3b4186f6b6457e09190a35050565b61019e670de0b6b3a764000082610303565b610160516101ac9084610303565b11156101b757600080fd5b50600155565b80516001600160a01b03811681146101d457600080fd5b919050565b805164ffffffffff811681146101d457600080fd5b805162ffffff811681146101d457600080fd5b6000806000806000806000806000806000806101808d8f03121561022457600080fd5b61022d8d6101bd565b9b5061023b60208e016101bd565b9a5061024960408e016101bd565b995061025760608e016101bd565b60808e015160a08f0151919a509850965061027460c08e016101d9565b955061028260e08e016101d9565b94506102916101008e016101d9565b93506102a06101208e016101ee565b6101408e015190935091506102b86101608e016101ee565b90509295989b509295989b509295989b565b634e487b7160e01b600052601160045260246000fd5b64ffffffffff81811683821601908111156102fd576102fd6102ca565b92915050565b80820281158282048414176102fd576102fd6102ca565b60805160a05160c05160e05161010051610120516101405161016051610180516101a051612cd7610516600039600081816103d0015281816106bd0152818161071801528181610a8401528181610b4d01528181610c2d01528181610e4f0152818161130401528181611a4b01528181611d91015261255d0152600081816104e20152611bb80152600081816105b801528181611540015281816122e701526127a301526000818161063501528181610fcd0152818161194001528181611fa9015281816120dd015261225a0152600081816105220152818161082a01528181610b7701528181610c5701528181610cd701528181610db801528181610e7901528181610f030152818161126d0152818161132e01528181611688015281816119e001528181611ef9015261252c0152600081816103620152818161097c01528181610ab8015281816111740152818161140e01528181611500015281816115d70152818161166401528181611739015281816118f201528181611bd90152611ed501526000818161044b01528181611098015281816110f2015281816117b70152818161217501526124c60152600081816105df015281816107e301528181611cc90152611cfd01526000818161031f0152610682015260008181610589015281816110c701528181611e3f0152611e7f0152612cd76000f3fe608060405234801561001057600080fd5b506004361061025e5760003560e01c80636f871cec11610146578063a035b1fe116100c3578063c2b6b58c11610087578063c2b6b58c14610601578063cfb636f01461061d578063d8dfeb4514610630578063d9caed1214610657578063f2fde38b1461066a578063f3f480d91461067d57600080fd5b8063a035b1fe1461057b578063a4d66daf14610584578063a8a3e31d146105ab578063babe7c74146105b3578063be9a6555146105da57600080fd5b80637bd6fb9b1161010a5780637bd6fb9b1461051557806382b8eaf51461051d5780638da5cb5b1461054457806399a5d747146105555780639de2f7961461056857600080fd5b80636f871cec146104af578063715018a6146104c257806372bf079e146104ca578063730d48b7146104dd578063787a08a61461050457600080fd5b8063371fd8e6116101df5780634665096d116101a35780634665096d1461041857806346c715fa1461044657806349746f101461046d5780634f02c420146104805780635be980f5146104895780636d4749fa1461049c57600080fd5b8063371fd8e61461039c578063383ef46e146103af5780633a7c29fb146103cb57806340c10f19146103f257806342d020411461040557600080fd5b806324e657fe1161022657806324e657fe146102fc5780632a37eeae14610305578063329864aa1461030d578063350c35e91461034a578063365a86fc1461035d57600080fd5b806308262940146102635780630e49d77e146102895780631bbea34c1461029357806320aa9e72146102a6578063211d7983146102e9575b600080fd5b6102766102713660046127e7565b6106a4565b6040519081526020015b60405180910390f35b610291610743565b005b6102916102a1366004612860565b6107e1565b6102b96102b4366004612918565b61096c565b604080516001600160a01b03909516855260208501939093529183015263ffffffff166060820152608001610280565b6102916102f7366004612944565b610aad565b61027660045481565b61027661108c565b6001546040805191825264ffffffffff7f000000000000000000000000000000000000000000000000000000000000000016602083015201610280565b610291610358366004612918565b611172565b6103847f000000000000000000000000000000000000000000000000000000000000000081565b6040516001600160a01b039091168152602001610280565b6102766103aa366004612979565b611253565b6103b76113ef565b60405162ffffff9091168152602001610280565b6103b77f000000000000000000000000000000000000000000000000000000000000000081565b610291610400366004612918565b61140c565b610291610413366004612979565b6114f5565b60055461043090600160281b900464ffffffffff1681565b60405164ffffffffff9091168152602001610280565b6103847f000000000000000000000000000000000000000000000000000000000000000081565b61029161047b366004612979565b6115cc565b61027660025481565b610291610497366004612979565b611647565b6102916104aa3660046129a5565b61172e565b6102916104bd3660046129d3565b61191a565b610291611b53565b6102916104d8366004612979565b611b65565b6103b77f000000000000000000000000000000000000000000000000000000000000000081565b6005546104309064ffffffffff1681565b6103b7611bb4565b6103847f000000000000000000000000000000000000000000000000000000000000000081565b6000546001600160a01b0316610384565b6103b7610563366004612979565b611cc4565b610276610576366004612979565b611d7c565b61027660015481565b6102767f000000000000000000000000000000000000000000000000000000000000000081565b610276611e03565b6102767f000000000000000000000000000000000000000000000000000000000000000081565b6104307f000000000000000000000000000000000000000000000000000000000000000081565b60055460405164ffffffffff9182169091148152602001610280565b61029161062b366004612979565b611eb8565b6103847f000000000000000000000000000000000000000000000000000000000000000081565b6102916106653660046129ff565b611f9f565b610291610678366004612a40565b61208a565b6104307f000000000000000000000000000000000000000000000000000000000000000081565b6000811561070f57620f42406106b86113ef565b6106e57f0000000000000000000000000000000000000000000000000000000000000000620f4240612a73565b6106ef9190612a73565b6106fe9062ffffff1685612a8e565b6107089190612aa5565b905061073d565b620f42406106ef7f000000000000000000000000000000000000000000000000000000000000000082612a73565b92915050565b600454156107645760405163d26e2de960e01b815260040160405180910390fd5b60055464ffffffffff16421161078d57604051631c02820f60e21b815260040160405180910390fd5b600554600160281b900464ffffffffff1642106107df576005546040516238ddd760e41b815264ffffffffff4281166004830152600160281b9092049190911660248201526044015b60405180910390fd5b565b7f000000000000000000000000000000000000000000000000000000000000000064ffffffffff1642106108285760405163ecdd1c2960e01b815260040160405180910390fd5b7f00000000000000000000000000000000000000000000000000000000000000006001600160a01b031663cd3293de6040518163ffffffff1660e01b8152600401602060405180830381865afa158015610886573d6000803e3d6000fd5b505050506040513d601f19601f820116820180604052508101906108aa9190612ac7565b6001600160a01b031663352e3a833386866040518463ffffffff1660e01b81526004016108d993929190612ae4565b60006040518083038186803b1580156108f157600080fd5b505afa158015610905573d6000803e3d6000fd5b505050506109236005805464ffffffffff191664ffffffffff179055565b336001600160a01b03167faca80c800ec0d2aa9d9d31b7f886a1dd3067d4676abc637626a18ffb9381653d838360405161095e929190612b42565b60405180910390a250505050565b6000808080336001600160a01b037f000000000000000000000000000000000000000000000000000000000000000016146109ba576040516313bd2e8360e31b815260040160405180910390fd5b84600460008282546109cc9190612b71565b90915550600090506109dc6120c5565b9050858110156109ea578095505b60008115610a10578187600254610a019190612a8e565b610a0b9190612aa5565b610a13565b60005b9050610a1e8161212c565b610a2a6203f4806121eb565b6000610a36898961222c565b600154600254604080518481526020810193909352820152909150600080516020612c828339815191529060600160405180910390a1506000546001600160a01b0316989697509562ffffff7f00000000000000000000000000000000000000000000000000000000000000001695509350505050565b336001600160a01b037f00000000000000000000000000000000000000000000000000000000000000001614610af6576040516313bd2e8360e31b815260040160405180910390fd5b600554600160281b900464ffffffffff16421015610b27576040516302de694d60e41b815260040160405180910390fd5b60025415610f01576002546040516302dc1ca760e31b8152600481019190915262ffffff7f00000000000000000000000000000000000000000000000000000000000000001660248201526000907f00000000000000000000000000000000000000000000000000000000000000006001600160a01b0316906316e0e53890604401602060405180830381865afa158015610bc6573d6000803e3d6000fd5b505050506040513d601f19601f82011682018060405250810190610bea9190612b84565b600254909150610bfa8284612b9d565b10610da1576002546040516318af9f3960e11b81526001600160a01b038681166004830152602482019290925262ffffff7f00000000000000000000000000000000000000000000000000000000000000001660448201526000917f0000000000000000000000000000000000000000000000000000000000000000169063315f3e72906064016020604051808303816000875af1158015610ca0573d6000803e3d6000fd5b505050506040513d601f19601f82011682018060405250810190610cc49190612b84565b9050818114610cd557610cd5612bb0565b7f00000000000000000000000000000000000000000000000000000000000000006001600160a01b03166323b872dd86610d176000546001600160a01b031690565b600254610d248689612b9d565b610d2e9190612b71565b6040518463ffffffff1660e01b8152600401610d4c93929190612bc6565b6020604051808303816000875af1158015610d6b573d6000803e3d6000fd5b505050506040513d601f19601f82011682018060405250810190610d8f9190612bea565b50610d9b60025461212c565b50610efb565b6040516323b872dd60e01b81526001600160a01b037f000000000000000000000000000000000000000000000000000000000000000016906323b872dd90610df190879030908790600401612bc6565b6020604051808303816000875af1158015610e10573d6000803e3d6000fd5b505050506040513d601f19601f82011682018060405250810190610e349190612bea565b5060405163a47d75ad60e01b81526004810183905262ffffff7f00000000000000000000000000000000000000000000000000000000000000001660248201526000907f00000000000000000000000000000000000000000000000000000000000000006001600160a01b03169063a47d75ad906044016020604051808303816000875af1158015610eca573d6000803e3d6000fd5b505050506040513d601f19601f82011682018060405250810190610eee9190612b84565b9050610ef98161212c565b505b50610fa7565b7f00000000000000000000000000000000000000000000000000000000000000006001600160a01b03166323b872dd84610f436000546001600160a01b031690565b846040518463ffffffff1660e01b8152600401610f6293929190612bc6565b6020604051808303816000875af1158015610f81573d6000803e3d6000fd5b505050506040513d601f19601f82011682018060405250810190610fa59190612bea565b505b60405163a9059cbb60e01b81526001600160a01b038481166004830152602482018490527f0000000000000000000000000000000000000000000000000000000000000000169063a9059cbb906044016020604051808303816000875af1158015611016573d6000803e3d6000fd5b505050506040513d601f19601f8201168201806040525081019061103a9190612bea565b5061104b6110466120c5565b6122e5565b600080516020612c828339815191526110626120c5565b600154600254604080519384526020840192909252908201526060015b60405180910390a1505050565b60006001600160a01b037f00000000000000000000000000000000000000000000000000000000000000001630036110f0576003546110eb907f0000000000000000000000000000000000000000000000000000000000000000612b71565b905090565b7f00000000000000000000000000000000000000000000000000000000000000006001600160a01b031663a8a3e31d6040518163ffffffff1660e01b8152600401602060405180830381865afa15801561114e573d6000803e3d6000fd5b505050506040513d601f19601f820116820180604052508101906110eb9190612b84565b7f00000000000000000000000000000000000000000000000000000000000000006001600160a01b0316632f09177d6040518163ffffffff1660e01b8152600401602060405180830381865afa1580156111d0573d6000803e3d6000fd5b505050506040513d601f19601f820116820180604052508101906111f49190612ac7565b6001600160a01b0316336001600160a01b03161461121457611214612333565b60006112208383612360565b600154600254604080518481526020810193909352820152909150600080516020612c828339815191529060600161107f565b6040516323b872dd60e01b81526000906001600160a01b037f000000000000000000000000000000000000000000000000000000000000000016906323b872dd906112a690339030908790600401612bc6565b6020604051808303816000875af11580156112c5573d6000803e3d6000fd5b505050506040513d601f19601f820116820180604052508101906112e99190612bea565b5060405163a47d75ad60e01b81526004810183905262ffffff7f00000000000000000000000000000000000000000000000000000000000000001660248201526000907f00000000000000000000000000000000000000000000000000000000000000006001600160a01b03169063a47d75ad906044016020604051808303816000875af115801561137f573d6000803e3d6000fd5b505050506040513d601f19601f820116820180604052508101906113a39190612b84565b90506113ae8161212c565b600080516020612c828339815191526113c56120c5565b6001546002546040805193845260208401929092529082015260600160405180910390a192915050565b6005546000906110eb90600160281b900464ffffffffff16611cc4565b7f00000000000000000000000000000000000000000000000000000000000000006001600160a01b0316632f09177d6040518163ffffffff1660e01b8152600401602060405180830381865afa15801561146a573d6000803e3d6000fd5b505050506040513d601f19601f8201168201806040525081019061148e9190612ac7565b6001600160a01b0316336001600160a01b0316146114ae576114ae612333565b60006114b86120c5565b90506114c58383836123df565b600154600254604080518481526020810193909352820152600080516020612c828339815191529060600161107f565b336001600160a01b037f0000000000000000000000000000000000000000000000000000000000000000161461153e576040516313bd2e8360e31b815260040160405180910390fd5b7f00000000000000000000000000000000000000000000000000000000000000008110801561157357506115706120c5565b81105b1561159157604051633c80636b60e21b815260040160405180910390fd5b806000036115b257604051633c80636b60e21b815260040160405180910390fd5b80600460008282546115c49190612b9d565b909155505050565b336001600160a01b037f00000000000000000000000000000000000000000000000000000000000000001614611615576040516313bd2e8360e31b815260040160405180910390fd5b80600460008282546116279190612b71565b909155506116399050620151806121eb565b6116446110466120c5565b50565b60405163aa5dd7f160e01b81523360048201526001600160a01b037f00000000000000000000000000000000000000000000000000000000000000008116917f00000000000000000000000000000000000000000000000000000000000000009091169063aa5dd7f190602401602060405180830381865afa1580156116d1573d6000803e3d6000fd5b505050506040513d601f19601f820116820180604052508101906116f59190612ac7565b6001600160a01b03161461171c576040516313bd2e8360e31b815260040160405180910390fd5b80600360008282546115c49190612b71565b336001600160a01b037f00000000000000000000000000000000000000000000000000000000000000001614611777576040516313bd2e8360e31b815260040160405180910390fd5b600554600160281b900464ffffffffff16156117a55760405162dc149f60e41b815260040160405180910390fd5b428164ffffffffff16108061184857507f00000000000000000000000000000000000000000000000000000000000000006001600160a01b0316634665096d6040518163ffffffff1660e01b8152600401602060405180830381865afa158015611813573d6000803e3d6000fd5b505050506040513d601f19601f820116820180604052508101906118379190612c07565b64ffffffffff168164ffffffffff16115b1561186657604051637d9533a960e11b815260040160405180910390fd5b806005806101000a81548164ffffffffff021916908364ffffffffff160217905550816001600160a01b031663a035b1fe6040518163ffffffff1660e01b8152600401602060405180830381865afa1580156118c6573d6000803e3d6000fd5b505050506040513d601f19601f820116820180604052508101906118ea9190612b84565b6001556119167f000000000000000000000000000000000000000000000000000000000000000061261c565b5050565b611922612333565b600061192c6120c5565b9050808311156119d4576001600160a01b037f0000000000000000000000000000000000000000000000000000000000000000166323b872dd33306119718588612b71565b6040518463ffffffff1660e01b815260040161198f93929190612bc6565b6020604051808303816000875af11580156119ae573d6000803e3d6000fd5b505050506040513d601f19601f820116820180604052508101906119d29190612bea565b505b600254841015611acd577f00000000000000000000000000000000000000000000000000000000000000006001600160a01b031663315f3e723386600254611a1c9190612b71565b6040516001600160e01b031960e085901b1681526001600160a01b039092166004830152602482015262ffffff7f00000000000000000000000000000000000000000000000000000000000000001660448201526064016020604051808303816000875af1158015611a92573d6000803e3d6000fd5b505050506040513d601f19601f82011682018060405250810190611ab69190612b84565b50611acd84600254611ac89190612b71565b61212c565b80831015611aea57611ae833611ae38584612b71565b612360565b505b600254841115611b0c57611b0c3360025486611b069190612b71565b856123df565b6001548214611b1e57611b1e8261266c565b6040805184815260208101849052908101859052600080516020612c828339815191529060600160405180910390a150505050565b611b5b612333565b6107df600061261c565b611b6d612333565b611b768161266c565b600080516020612c82833981519152611b8d6120c5565b6001546002546040805193845260208401929092529082015260600160405180910390a150565b60007f00000000000000000000000000000000000000000000000000000000000000007f00000000000000000000000000000000000000000000000000000000000000006001600160a01b0316632c4e722e6040518163ffffffff1660e01b8152600401602060405180830381865afa158015611c35573d6000803e3d6000fd5b505050506040513d601f19601f82011682018060405250810190611c599190612ac7565b6001600160a01b03166306a7b3766040518163ffffffff1660e01b8152600401602060405180830381865afa158015611c96573d6000803e3d6000fd5b505050506040513d601f19601f82011682018060405250810190611cba9190612c24565b6110eb9190612c49565b6000807f000000000000000000000000000000000000000000000000000000000000000064ffffffffff164210611cfb5742611d24565b7f000000000000000000000000000000000000000000000000000000000000000064ffffffffff165b90506000611d328285612b71565b905060006301e13380611d43611bb4565b611d529062ffffff1684612a8e565b611d5c9190612aa5565b9050620f42408111611d6e5780611d73565b620f42405b95945050505050565b60008115611dfb57611d8c6113ef565b611db97f0000000000000000000000000000000000000000000000000000000000000000620f4240612a73565b611dc39190612a73565b62ffffff166001611dd784620f4240612a8e565b611de19190612b71565b611deb9190612aa5565b611df6906001612b9d565b61073d565b600092915050565b600080600254670de0b6b3a7640000600154611e1d6120c5565b611e279190612a8e565b611e319190612aa5565b611e3b9190612b71565b90507f000000000000000000000000000000000000000000000000000000000000000081600354611e6c9190612b9d565b10611e7957600091505090565b806003547f0000000000000000000000000000000000000000000000000000000000000000611ea89190612b71565b611eb29190612b71565b91505090565b60405163aa5dd7f160e01b81523360048201526001600160a01b037f00000000000000000000000000000000000000000000000000000000000000008116917f00000000000000000000000000000000000000000000000000000000000000009091169063aa5dd7f190602401602060405180830381865afa158015611f42573d6000803e3d6000fd5b505050506040513d601f19601f82011682018060405250810190611f669190612ac7565b6001600160a01b031614611f8d576040516313bd2e8360e31b815260040160405180910390fd5b80600360008282546115c49190612b9d565b611fa7612333565b7f00000000000000000000000000000000000000000000000000000000000000006001600160a01b0316836001600160a01b031603611fef57611fea8282611172565b505050565b6000611ff96120c5565b60405163a9059cbb60e01b81526001600160a01b038581166004830152602482018590529192509085169063a9059cbb906044016020604051808303816000875af115801561204c573d6000803e3d6000fd5b505050506040513d601f19601f820116820180604052508101906120709190612bea565b506120796120c5565b811461208457600080fd5b50505050565b612092612333565b6001600160a01b0381166120bc57604051631e4fbdf760e01b8152600060048201526024016107d6565b6116448161261c565b6040516370a0823160e01b81523060048201526000907f00000000000000000000000000000000000000000000000000000000000000006001600160a01b0316906370a0823190602401602060405180830381865afa15801561114e573d6000803e3d6000fd5b60025481111561215f576002546121439082612b71565b604051635795d46960e11b81526004016107d691815260200190565b604051635be980f560e01b8152600481018290527f00000000000000000000000000000000000000000000000000000000000000006001600160a01b031690635be980f590602401600060405180830381600087803b1580156121c157600080fd5b505af11580156121d5573d6000803e3d6000fd5b5050505080600260008282546115c49190612b71565b60006121f78242612c64565b60055490915064ffffffffff9081169082161115611916576005805464ffffffffff831664ffffffffff199091161790555050565b600081156122c95760405163a9059cbb60e01b81526001600160a01b038481166004830152602482018490527f0000000000000000000000000000000000000000000000000000000000000000169063a9059cbb906044016020604051808303816000875af11580156122a3573d6000803e3d6000fd5b505050506040513d601f19601f820116820180604052508101906122c79190612bea565b505b60006122d36120c5565b90506122de816122e5565b9392505050565b7f0000000000000000000000000000000000000000000000000000000000000000811080156123145750600454155b15611644576116446005805464ffffffffff191664ffffffffff179055565b6000546001600160a01b031633146107df5760405163118cdaa760e01b81523360048201526024016107d6565b600454600090156123845760405163d26e2de960e01b815260040160405180910390fd5b60055464ffffffffff1642118015906123a7575060055464ffffffffff90811614155b156123c557604051631c02820f60e21b815260040160405180910390fd5b60006123d1848461222c565b90506122de81600154612724565b600454156124005760405163d26e2de960e01b815260040160405180910390fd5b60055464ffffffffff16421161242957604051631c02820f60e21b815260040160405180910390fd5b600554600160281b900464ffffffffff164210612476576005546040516238ddd760e41b815264ffffffffff4281166004830152600160281b9092049190911660248201526044016107d6565b61247e61108c565b8211156124b0578161248e61108c565b604051634779077960e11b8152600481019290925260248201526044016107d6565b604051630cfb636f60e41b8152600481018390527f00000000000000000000000000000000000000000000000000000000000000006001600160a01b03169063cfb636f090602401600060405180830381600087803b15801561251257600080fd5b505af1158015612526573d6000803e3d6000fd5b505050507f00000000000000000000000000000000000000000000000000000000000000006001600160a01b0316638112eb2b84847f00000000000000000000000000000000000000000000000000000000000000006125846113ef565b6040516001600160e01b031960e087901b1681526001600160a01b039094166004850152602484019290925262ffffff9081166044840152166064820152608401600060405180830381600087803b1580156125df57600080fd5b505af11580156125f3573d6000803e3d6000fd5b5050505081600260008282546126099190612b9d565b92505081905550611fea81600154612724565b600080546001600160a01b038381166001600160a01b0319831681178455604051919092169283917f8be0079c531659141344cd1fd0a4f28419497f9722a3daafe3b4186f6b6457e09190a35050565b6004541561268d5760405163d26e2de960e01b815260040160405180910390fd5b600554600160281b900464ffffffffff1642106126da576005546040516238ddd760e41b815264ffffffffff4281166004830152600160281b9092049190911660248201526044016107d6565b6001548111156126f5576126f06203f4806121eb565b612706565b6127066127006120c5565b82612724565b6116448161271261108c565b60025461271f9190612b9d565b61278c565b670de0b6b3a764000060025461273a9190612a8e565b6127448284612a8e565b1015611916576127548183612a8e565b670de0b6b3a764000060025461276a9190612a8e565b604051632c1f8ef160e21b8152600481019290925260248201526044016107d6565b61279e670de0b6b3a764000082612a8e565b6127c87f000000000000000000000000000000000000000000000000000000000000000084612a8e565b11156127d357600080fd5b50600155565b801515811461164457600080fd5b600080604083850312156127fa57600080fd5b82359150602083013561280c816127d9565b809150509250929050565b60008083601f84011261282957600080fd5b50813567ffffffffffffffff81111561284157600080fd5b60208301915083602082850101111561285957600080fd5b9250929050565b6000806000806040858703121561287657600080fd5b843567ffffffffffffffff81111561288d57600080fd5b8501601f8101871361289e57600080fd5b803567ffffffffffffffff8111156128b557600080fd5b8760208260051b84010111156128ca57600080fd5b60209182019550935085013567ffffffffffffffff8111156128eb57600080fd5b6128f787828801612817565b95989497509550505050565b6001600160a01b038116811461164457600080fd5b6000806040838503121561292b57600080fd5b823561293681612903565b946020939093013593505050565b60008060006060848603121561295957600080fd5b833561296481612903565b95602085013595506040909401359392505050565b60006020828403121561298b57600080fd5b5035919050565b64ffffffffff8116811461164457600080fd5b600080604083850312156129b857600080fd5b82356129c381612903565b9150602083013561280c81612992565b6000806000606084860312156129e857600080fd5b505081359360208301359350604090920135919050565b600080600060608486031215612a1457600080fd5b8335612a1f81612903565b92506020840135612a2f81612903565b929592945050506040919091013590565b600060208284031215612a5257600080fd5b81356122de81612903565b634e487b7160e01b600052601160045260246000fd5b62ffffff828116828216039081111561073d5761073d612a5d565b808202811582820484141761073d5761073d612a5d565b600082612ac257634e487b7160e01b600052601260045260246000fd5b500490565b600060208284031215612ad957600080fd5b81516122de81612903565b6001600160a01b0384168152604060208201819052810182905260008360608301825b85811015612b37578235612b1a81612903565b6001600160a01b0316825260209283019290910190600101612b07565b509695505050505050565b60208152816020820152818360408301376000818301604090810191909152601f909201601f19160101919050565b8181038181111561073d5761073d612a5d565b600060208284031215612b9657600080fd5b5051919050565b8082018082111561073d5761073d612a5d565b634e487b7160e01b600052600160045260246000fd5b6001600160a01b039384168152919092166020820152604081019190915260600190565b600060208284031215612bfc57600080fd5b81516122de816127d9565b600060208284031215612c1957600080fd5b81516122de81612992565b600060208284031215612c3657600080fd5b815162ffffff811681146122de57600080fd5b62ffffff818116838216019081111561073d5761073d612a5d565b64ffffffffff818116838216019081111561073d5761073d612a5d56fe9483a26ad376f30b5199a79e75df3bb05158c4ee32a348f53e83245a5e50c86ea2646970667358221220b6038b5b913bbf94379e79c8f52d3682e65a7122c35a649749c2bb41bbd2f08164736f6c634300081a0033a2646970667358221220430d9d4d6f6c8a5fd60f55077182df1c1e9ba7d1484e3bb2603fcdca3e9c574a64736f6c634300081a0033",
  "devdoc": {
    "kind": "dev",
    "methods": {
      "clonePosition(address)": {
        "params": {
          "_parent": "address of the position we want to clone"
        },
        "returns": {
          "_0": "address of the newly created clone position"
        }
      }
    },
    "version": 1
  },
  "userdoc": {
    "kind": "user",
    "methods": {
      "clonePosition(address)": {
        "notice": "clone an existing position. This can be a clone of another clone, or an original position."
      },
      "createNewPosition(address,address,address,uint256,uint256,uint40,uint40,uint40,uint24,uint256,uint24)": {
        "notice": "Create a completely new position in a newly deployed contract. Must be called through minting hub to be recognized as valid position."
      }
    },
    "version": 1
  },
  "storageLayout": {
    "storage": [],
    "types": null
  }
}