{
  "address": "0x9359cd75549DaE00Cdd8D22297BC9B13FbBe4B79",
  "abi": [
    {
      "inputs": [
        {
          "components": [
            {
              "internalType": "address",
              "name": "router",
              "type": "address"
            },
            {
              "internalType": "uint64",
              "name": "mainnetChainSelector",
              "type": "uint64"
            },
            {
              "internalType": "address",
              "name": "linkToken",
              "type": "address"
            },
            {
              "internalType": "contract TokenAdminRegistry",
              "name": "tokenAdminRegistry",
              "type": "address"
            },
            {
              "internalType": "address",
              "name": "rmnProxy",
              "type": "address"
            },
            {
              "internalType": "contract RegistryModuleOwnerCustom",
              "name": "registryModuleOwnerCustom",
              "type": "address"
            },
            {
              "components": [
                {
                  "internalType": "uint64",
                  "name": "remoteChainSelector",
                  "type": "uint64"
                },
                {
                  "internalType": "bytes[]",
                  "name": "remotePoolAddresses",
                  "type": "bytes[]"
                },
                {
                  "internalType": "bytes",
                  "name": "remoteTokenAddress",
                  "type": "bytes"
                },
                {
                  "components": [
                    {
                      "internalType": "bool",
                      "name": "isEnabled",
                      "type": "bool"
                    },
                    {
                      "internalType": "uint128",
                      "name": "capacity",
                      "type": "uint128"
                    },
                    {
                      "internalType": "uint128",
                      "name": "rate",
                      "type": "uint128"
                    }
                  ],
                  "internalType": "struct RateLimiter.Config",
                  "name": "outboundRateLimiterConfig",
                  "type": "tuple"
                },
                {
                  "components": [
                    {
                      "internalType": "bool",
                      "name": "isEnabled",
                      "type": "bool"
                    },
                    {
                      "internalType": "uint128",
                      "name": "capacity",
                      "type": "uint128"
                    },
                    {
                      "internalType": "uint128",
                      "name": "rate",
                      "type": "uint128"
                    }
                  ],
                  "internalType": "struct RateLimiter.Config",
                  "name": "inboundRateLimiterConfig",
                  "type": "tuple"
                }
              ],
              "internalType": "struct ITokenPool.ChainUpdate[]",
              "name": "chainsToAdd",
              "type": "tuple[]"
            }
          ],
          "internalType": "struct L2Deployer.CCIPConfig",
          "name": "_ccipConfig",
          "type": "tuple"
        },
        {
          "internalType": "contract BridgedGovernance",
          "name": "_bridgedGovernance",
          "type": "address"
        },
        {
          "components": [
            {
              "internalType": "uint256",
              "name": "minApplicationPeriod",
              "type": "uint256"
            },
            {
              "internalType": "address",
              "name": "bridgeAccounting",
              "type": "address"
            },
            {
              "internalType": "address",
              "name": "ccipAdmin",
              "type": "address"
            }
          ],
          "internalType": "struct L2Deployer.FrankencoinConfig",
          "name": "_frankencoinConfig",
          "type": "tuple"
        }
      ],
      "stateMutability": "nonpayable",
      "type": "constructor"
    },
    {
      "inputs": [
        {
          "internalType": "address",
          "name": "expected",
          "type": "address"
        },
        {
          "internalType": "address",
          "name": "actual",
          "type": "address"
        }
      ],
      "name": "CCIPAdminMismatch",
      "type": "error"
    },
    {
      "inputs": [],
      "name": "bridgedFrankencoin",
      "outputs": [
        {
          "internalType": "contract BridgedFrankencoin",
          "name": "",
          "type": "address"
        }
      ],
      "stateMutability": "view",
      "type": "function"
    },
    {
      "inputs": [],
      "name": "ccipAdmin",
      "outputs": [
        {
          "internalType": "contract CCIPAdmin",
          "name": "",
          "type": "address"
        }
      ],
      "stateMutability": "view",
      "type": "function"
    },
    {
      "inputs": [],
      "name": "testMinter",
      "outputs": [
        {
          "internalType": "contract L2TestMinter",
          "name": "",
          "type": "address"
        }
      ],
      "stateMutability": "view",
      "type": "function"
    },
    {
      "inputs": [],
      "name": "tokenPool",
      "outputs": [
        {
          "internalType": "contract BurnMintTokenPool",
          "name": "",
          "type": "address"
        }
      ],
      "stateMutability": "view",
      "type": "function"
    }
  ],
  "transactionHash": "0x699e2379a9078d79f254aee4765337944d4931cd7fea030e9f9b223f28b53dc0",
  "args": [
    [
      "0x4aAD6071085df840abD9Baf1697d5D5992bDadce",
      "5009297550715157269",
      "0xE2e73A1c69ecF83F464EFCE6A5be353a37cA09b2",
      "0x73BC11423CBF14914998C23B0aFC9BE0cb5B2229",
      "0xf5e5e1676942520995c1e39aFaC58A75Fe1cd2bB",
      "0x1f524a11d89D68a4E4b1c8A195E91Fb1d8f0B56a",
      [
        {
          "inboundRateLimiterConfig": {
            "isEnabled": false,
            "capacity": 0,
            "rate": 0
          },
          "outboundRateLimiterConfig": {
            "isEnabled": false,
            "capacity": 0,
            "rate": 0
          },
          "remoteChainSelector": "5009297550715157269",
          "remotePoolAddresses": [
            "0x0000000000000000000000009359cd75549dae00cdd8d22297bc9b13fbbe4b79"
          ],
          "remoteTokenAddress": "0x000000000000000000000000b58e61c3098d85632df34eecfb899a1ed80921cb"
        },
        {
          "inboundRateLimiterConfig": {
            "isEnabled": false,
            "capacity": 0,
            "rate": 0
          },
          "outboundRateLimiterConfig": {
            "isEnabled": false,
            "capacity": 0,
            "rate": 0
          },
          "remoteChainSelector": "4051577828743386545",
          "remotePoolAddresses": [
            "0x0000000000000000000000005969777eef73c08df69fb2d8038836e797a0749e"
          ],
          "remoteTokenAddress": "0x000000000000000000000000a022bdf5720495b5cabd92c37c387568f941f9f2"
        },
        {
          "inboundRateLimiterConfig": {
            "isEnabled": false,
            "capacity": 0,
            "rate": 0
          },
          "outboundRateLimiterConfig": {
            "isEnabled": false,
            "capacity": 0,
            "rate": 0
          },
          "remoteChainSelector": "3734403246176062136",
          "remotePoolAddresses": [
            "0x0000000000000000000000004d780fdf7fe77e0aae68229d310d1930607ce39b"
          ],
          "remoteTokenAddress": "0x00000000000000000000000097d60696d4273e5f64ab2b7e1160f885154f1cb9"
        },
        {
          "inboundRateLimiterConfig": {
            "isEnabled": false,
            "capacity": 0,
            "rate": 0
          },
          "outboundRateLimiterConfig": {
            "isEnabled": false,
            "capacity": 0,
            "rate": 0
          },
          "remoteChainSelector": "4949039107694359620",
          "remotePoolAddresses": [
            "0x0000000000000000000000005969777eef73c08df69fb2d8038836e797a0749e"
          ],
          "remoteTokenAddress": "0x000000000000000000000000a022bdf5720495b5cabd92c37c387568f941f9f2"
        },
        {
          "inboundRateLimiterConfig": {
            "isEnabled": false,
            "capacity": 0,
            "rate": 0
          },
          "outboundRateLimiterConfig": {
            "isEnabled": false,
            "capacity": 0,
            "rate": 0
          },
          "remoteChainSelector": "15971525489660198786",
          "remotePoolAddresses": [
            "0x0000000000000000000000005969777eef73c08df69fb2d8038836e797a0749e"
          ],
          "remoteTokenAddress": "0x000000000000000000000000a022bdf5720495b5cabd92c37c387568f941f9f2"
        },
        {
          "inboundRateLimiterConfig": {
            "isEnabled": false,
            "capacity": 0,
            "rate": 0
          },
          "outboundRateLimiterConfig": {
            "isEnabled": false,
            "capacity": 0,
            "rate": 0
          },
          "remoteChainSelector": "6433500567565415381",
          "remotePoolAddresses": [
            "0x0000000000000000000000005969777eef73c08df69fb2d8038836e797a0749e"
          ],
          "remoteTokenAddress": "0x000000000000000000000000a022bdf5720495b5cabd92c37c387568f941f9f2"
        },
        {
          "inboundRateLimiterConfig": {
            "isEnabled": false,
            "capacity": 0,
            "rate": 0
          },
          "outboundRateLimiterConfig": {
            "isEnabled": false,
            "capacity": 0,
            "rate": 0
          },
          "remoteChainSelector": "1673871237479749969",
          "remotePoolAddresses": [
            "0x0000000000000000000000005969777eef73c08df69fb2d8038836e797a0749e"
          ],
          "remoteTokenAddress": "0x000000000000000000000000a022bdf5720495b5cabd92c37c387568f941f9f2"
        }
      ]
    ],
    "0x88fd2ECD0B9250F203e99E80eb78b0C32B8AdB16",
    [
      1209600,
      "0x88fd2ECD0B9250F203e99E80eb78b0C32B8AdB16",
      "0x31E483753fbEd8306631244422c46aC1a60FFc1d"
    ]
  ],
  "numDeployments": 1,
  "solcInputHash": "57e6fd2aef4f74cdcfd241869345d37e",
  "bytecode": "0x60806040523480156200001157600080fd5b506040516200ac403803806200ac40833981016040819052620000349162000a4d565b818360000151826000015185604001518660200151856020015186604001516040516200006190620005ba565b6001600160a01b0397881681529587166020870152604086019490945291851660608501526001600160401b03166080840152831660a083015290911660c082015260e001604051809103906000f080158015620000c3573d6000803e3d6000fd5b50600080546001600160a01b0319166001600160a01b039290921691821790556060840151604051909190620000f990620005c8565b6001600160a01b03928316815291166020820152604001604051809103906000f0801580156200012d573d6000803e3d6000fd5b50600180546001600160a01b0319166001600160a01b039283169081179091556040830151909116146200019357600154604082810151905163013b89ed60e61b81526001600160a01b0392831660048201529116602482015260440160405180910390fd5b6040805160008082526020808301808552915463313ce56760e01b909252925191926001600160a01b0390911691829163313ce5679160248087019291908188030181865afa158015620001eb573d6000803e3d6000fd5b505050506040513d601f19601f8201168201806040525081019062000211919062000b5a565b82866080015187600001516040516200022a90620005d6565b6200023a95949392919062000bcd565b604051809103906000f08015801562000257573d6000803e3d6000fd5b50600280546001600160a01b0319166001600160a01b0392831690811790915560015460405163f2fde38b60e01b8152921660048301529063f2fde38b90602401600060405180830381600087803b158015620002b357600080fd5b505af1158015620002c8573d6000803e3d6000fd5b50505050604051620002da90620005e4565b604051809103906000f080158015620002f7573d6000803e3d6000fd5b50600380546001600160a01b0319166001600160a01b0392909216919091179055604080516002808252606082018352600092602083019080368337505060025482519293506001600160a01b0316918391506000906200035c576200035c62000c14565b6001600160a01b03928316602091820292909201015260035482519116908290600190811062000390576200039062000c14565b6001600160a01b03929092166020928302919091019091015260408051600280825260608201909252600091816020015b6060815260200190600190039081620003c157905050905060405180604001604052806011815260200170109d5c9b935a5b9d151bdad95b941bdbdb607a1b8152508160008151811062000419576200041962000c14565b60200260200101819052506040518060400160405280600a8152602001692a32b9ba26b4b73a32b960b11b815250816001815181106200045d576200045d62000c14565b6020908102919091010152600054604051637021b42160e11b81526001600160a01b039091169063e0436842906200049c908590859060040162000c58565b600060405180830381600087803b158015620004b757600080fd5b505af1158015620004cc573d6000803e3d6000fd5b505060035460005460405163ee1fe2ad60e01b81526001600160a01b0391821660048201523360248201529116925063ee1fe2ad9150604401600060405180830381600087803b1580156200052057600080fd5b505af115801562000535573d6000803e3d6000fd5b505060015460a089015160025460c08b01516040516379124c1160e11b81526001600160a01b03948516965063f224982295506200057a949092169160040162000cd0565b600060405180830381600087803b1580156200059557600080fd5b505af1158015620005aa573d6000803e3d6000fd5b5050505050505050505062000e40565b613a338062000f3483390190565b61235d806200496783390190565b613da58062006cc483390190565b6101d7806200aa6983390190565b634e487b7160e01b600052604160045260246000fd5b604051606081016001600160401b03811182821017156200062d576200062d620005f2565b60405290565b60405160a081016001600160401b03811182821017156200062d576200062d620005f2565b60405160e081016001600160401b03811182821017156200062d576200062d620005f2565b604051601f8201601f191681016001600160401b0381118282101715620006a857620006a8620005f2565b604052919050565b6001600160a01b0381168114620006c657600080fd5b50565b8051620006d681620006b0565b919050565b80516001600160401b0381168114620006d657600080fd5b60006001600160401b038211156200070f576200070f620005f2565b5060051b60200190565b60005b83811015620007365781810151838201526020016200071c565b50506000910152565b600082601f8301126200075157600080fd5b81516001600160401b038111156200076d576200076d620005f2565b62000782601f8201601f19166020016200067d565b8181528460208386010111156200079857600080fd5b620007ab82602083016020870162000719565b949350505050565b80516001600160801b0381168114620006d657600080fd5b600060608284031215620007de57600080fd5b620007e862000608565b905081518015158114620007fb57600080fd5b81526200080b60208301620007b3565b60208201526200081e60408301620007b3565b604082015292915050565b600082601f8301126200083b57600080fd5b8151620008526200084c82620006f3565b6200067d565b808282526020820191508560208460051b87010111156200087257600080fd5b602085015b60208460051b870101811015620009fb5780516001600160401b038111156200089f57600080fd5b8601610120818903601f19011215620008b757600080fd5b620008c162000633565b620008cf60208301620006db565b815260408201516001600160401b03811115620008eb57600080fd5b89603f8285010112620008fd57600080fd5b60208184010151620009136200084c82620006f3565b808282526020820191508c60408460051b868901010111156200093557600080fd5b6040848701015b60408460051b8689010101811015620009895780516001600160401b038111156200096657600080fd5b620009798f604083898c0101016200073f565b845250602092830192016200093c565b50602085015250505060608201516001600160401b03811115620009ac57600080fd5b620009bd8a6020838601016200073f565b604083015250620009d28960808401620007cb565b6060820152620009e68960e08401620007cb565b60808201528452506020928301920162000877565b5095945050505050565b60006060828403121562000a1857600080fd5b62000a2262000608565b905081518152602082015162000a3881620006b0565b602082015260408201516200081e81620006b0565b600080600060a0848603121562000a6357600080fd5b83516001600160401b038082111562000a7b57600080fd5b9085019060e0828803121562000a9057600080fd5b62000a9a62000658565b62000aa583620006c9565b815262000ab560208401620006db565b602082015262000ac860408401620006c9565b604082015262000adb60608401620006c9565b606082015262000aee60808401620006c9565b608082015262000b0160a08401620006c9565b60a082015260c08301518281111562000b1957600080fd5b62000b278982860162000829565b60c083015250945062000b4091505060208501620006c9565b915062000b51856040860162000a05565b90509250925092565b60006020828403121562000b6d57600080fd5b815160ff8116811462000b7f57600080fd5b9392505050565b60008151808452602080850194506020840160005b8381101562000bc25781516001600160a01b03168752958201959082019060010162000b9b565b509495945050505050565b600060018060a01b03808816835260ff8716602084015260a0604084015262000bfa60a084018762000b86565b948116606084015292909216608090910152509392505050565b634e487b7160e01b600052603260045260246000fd5b6000815180845262000c4481602086016020860162000719565b601f01601f19169290920160200192915050565b60408152600062000c6d604083018562000b86565b6020838203818501528185518084528284019150828160051b85010183880160005b8381101562000cc157601f1987840301855262000cae83835162000c2a565b9486019492509085019060010162000c8f565b50909998505050505050505050565b6001600160a01b03848116825283166020808301919091526060604080840182905284518483018190526000936080929183870190600581811b890186018a850189805b8581101562000e2c578c8403607f19018752825180516001600160401b03168552888101516101208a8701819052815190870181905261014080880192828a1b890190910191908c0190865b8181101562000d935761013f198a850301855262000d8084845162000c2a565b948e01949350918d019160010162000d60565b5050508b83015191508681038c88015262000daf818362000c2a565b9150508c82015162000de88e8801828051151582526020808201516001600160801b039081169184019190915260409182015116910152565b50908b01518051151560c087015260208101516001600160801b0390811660e088015260408201511661010087015290978901979450509187019160010162000d14565b50919e9d5050505050505050505050505050565b60e58062000e4f6000396000f3fe6080604052348015600f57600080fd5b506004361060465760003560e01c8063104e992914604b57806328b41bc91460795780637412af7014608b578063f63ce79514609d575b600080fd5b600254605d906001600160a01b031681565b6040516001600160a01b03909116815260200160405180910390f35b600054605d906001600160a01b031681565b600354605d906001600160a01b031681565b600154605d906001600160a01b03168156fea2646970667358221220460d334dc447615a5e187e7ecc9c730615ca15ee3eb19535cd5809e33a5cfce564736f6c634300081800336101806040523480156200001257600080fd5b5060405162003a3338038062003a33833981016040819052620000359162000094565b60126080526001600160a01b0395861660a05292851660c05260e093909352938316610160526001600160401b039093166101205281166101005216610140526200013e565b6001600160a01b03811681146200009157600080fd5b50565b600080600080600080600060e0888a031215620000b057600080fd5b8751620000bd816200007b565b6020890151909750620000d0816200007b565b604089015160608a01519197509550620000ea816200007b565b60808901519094506001600160401b03811681146200010857600080fd5b60a08901519093506200011b816200007b565b60c08901519092506200012e816200007b565b8091505092959891949750929550565b60805160a05160c05160e051610100516101205161014051610160516137e06200025360003960008181610a56015281816111e9015281816113e70152818161169f015281816117040152818161173701528181611af90152818161274401528181612790015281816127c701526128e601526000818161044701526108270152600081816109b701528181610fa4015261149701526000818161087d01528181610f4e01526114420152600081816104d7015261154201526000818161052b0152818161266a01526129420152600081816105c501528181610dd60152818161141301528181611cd6015281816122f80152818161238d0152818161255201526126c60152600061057f01526137e06000f3fe6080604052600436106103765760003560e01c806379cc6790116101d1578063c2ba474411610102578063d1fa5e98116100a0578063e0fb2f781161006f578063e0fb2f7814610b33578063eca79fef14610b57578063f46eccc414610b77578063f507469014610ba457600080fd5b8063d1fa5e9814610ab3578063d505accf14610ad3578063dd62ed3e14610af3578063e043684214610b1357600080fd5b8063cd3293de116100dc578063cd3293de14610a44578063d15dcd6214610a78578063d1975e6a14610a8b578063d1a15ff114610a9357600080fd5b8063c2ba4744146109f1578063c3ccc9ef14610a11578063c6fede7d14610a3157600080fd5b80639b404da61161016f578063aa271e1a11610149578063aa271e1a1461092c578063aa5dd7f11461094c578063b52c696d14610985578063c038e298146109a557600080fd5b80639b404da6146108cc5780639f3b3ea3146108ec578063a9059cbb1461090c57600080fd5b80638fd6a6ac116101ab5780638fd6a6ac14610818578063912fa6161461084b57806394b936901461086b57806395d89b411461089f57600080fd5b806379cc6790146107ab5780637ecebe00146107cb578063809eb368146107f857600080fd5b80633644e515116102ab578063604248ab116102495780636ebdb8ee116102235780636ebdb8ee1461071857806370a0823114610738578063737079811461076e57806376c7a3c71461078e57600080fd5b8063604248ab146106c5578063642884df146106e55780636b2242e11461070557600080fd5b806352d48abe1161028557806352d48abe1461063c57806353c521e61461064f57806355f575101461066f57806356b8c724146106a557600080fd5b80633644e515146105e757806340c10f19146105fc57806342966c681461061c57600080fd5b806319e3c428116103185780631b6b6d23116102f25780631b6b6d231461051957806323b872dd1461054d578063313ce5671461056d57806332fe7b26146105b357600080fd5b806319e3c428146104b05780631a46c7e9146104c55780631af716ba146104f957600080fd5b806310f9c77e1161035457806310f9c77e146104155780631183801014610435578063158ef93e1461048157806318160ddd1461049b57600080fd5b806306fdde031461037b578063095ea7b3146103c15780630e57bc7d146103f1575b600080fd5b34801561038757600080fd5b5060408051808201909152600b81526a233930b735b2b731b7b4b760a91b60208201525b6040516103b891906129f2565b60405180910390f35b3480156103cd57600080fd5b506103e16103dc366004612a21565b610bc4565b60405190151581526020016103b8565b3480156103fd57600080fd5b5061040760065481565b6040519081526020016103b8565b34801561042157600080fd5b506103e1610430366004612b45565b610bdb565b34801561044157600080fd5b506104697f000000000000000000000000000000000000000000000000000000000000000081565b6040516001600160a01b0390911681526020016103b8565b34801561048d57600080fd5b506007546103e19060ff1681565b3480156104a757600080fd5b50600254610407565b6104c36104be366004612c05565b610bf9565b005b3480156104d157600080fd5b506104077f000000000000000000000000000000000000000000000000000000000000000081565b34801561050557600080fd5b506103e1610514366004612c53565b610c69565b34801561052557600080fd5b506104697f000000000000000000000000000000000000000000000000000000000000000081565b34801561055957600080fd5b506103e1610568366004612cc1565b610cdc565b34801561057957600080fd5b506105a17f000000000000000000000000000000000000000000000000000000000000000081565b60405160ff90911681526020016103b8565b3480156105bf57600080fd5b506104697f000000000000000000000000000000000000000000000000000000000000000081565b3480156105f357600080fd5b50610407610cfe565b34801561060857600080fd5b506104c3610617366004612a21565b610d57565b34801561062857600080fd5b506104c3610637366004612cfd565b610db8565b6104c361064a366004612d16565b610dc5565b34801561065b57600080fd5b5061040761066a366004612da1565b610e70565b34801561067b57600080fd5b5061046961068a366004612df0565b6005602052600090815260409020546001600160a01b031681565b3480156106b157600080fd5b506103e16106c0366004612e0b565b610e9f565b3480156106d157600080fd5b506103e16106e0366004612e64565b610f06565b3480156106f157600080fd5b50610407610700366004612f1d565b610f30565b6104c3610713366004612f6c565b610fd4565b34801561072457600080fd5b506104c3610733366004612a21565b610fe9565b34801561074457600080fd5b50610407610753366004612df0565b6001600160a01b031660009081526020819052604090205490565b34801561077a57600080fd5b506103e1610789366004612f88565b611047565b34801561079a57600080fd5b50610407683635c9adc5dea0000081565b3480156107b757600080fd5b506104c36107c6366004612a21565b611070565b3480156107d757600080fd5b506104076107e6366004612df0565b60036020526000908152604090205481565b34801561080457600080fd5b506103e1610813366004612ff5565b6110cd565b34801561082457600080fd5b507f0000000000000000000000000000000000000000000000000000000000000000610469565b34801561085757600080fd5b50610407610866366004613055565b6110f5565b34801561087757600080fd5b506104697f000000000000000000000000000000000000000000000000000000000000000081565b3480156108ab57600080fd5b506040805180820190915260048152632d21a42360e11b60208201526103ab565b3480156108d857600080fd5b506104c36108e736600461312b565b611199565b3480156108f857600080fd5b5061040761090736600461319a565b6112ae565b34801561091857600080fd5b506103e1610927366004612a21565b6112cf565b34801561093857600080fd5b506103e1610947366004612df0565b6112dc565b34801561095857600080fd5b50610469610967366004612df0565b6001600160a01b039081166000908152600560205260409020541690565b34801561099157600080fd5b506104c36109a0366004612df0565b61131d565b3480156109b157600080fd5b506109d97f000000000000000000000000000000000000000000000000000000000000000081565b6040516001600160401b0390911681526020016103b8565b3480156109fd57600080fd5b506103e1610a0c366004612df0565b61136c565b348015610a1d57600080fd5b50610407610a2c366004613207565b6113a1565b6104c3610a3f366004613224565b6113bc565b348015610a5057600080fd5b506104697f000000000000000000000000000000000000000000000000000000000000000081565b6104c3610a86366004613260565b6114fe565b6104c3611526565b348015610a9f57600080fd5b506104c3610aae36600461327e565b611540565b348015610abf57600080fd5b506104c3610ace366004612a21565b61164a565b348015610adf57600080fd5b506104c3610aee3660046132c8565b6117a5565b348015610aff57600080fd5b50610407610b0e36600461333b565b61199a565b348015610b1f57600080fd5b506104c3610b2e36600461336e565b6119ad565b348015610b3f57600080fd5b50610b48611aed565b6040516103b89392919061341d565b348015610b6357600080fd5b506103e1610b7236600461343c565b611c06565b348015610b8357600080fd5b50610407610b92366004612df0565b60046020526000908152604090205481565b348015610bb057600080fd5b506103e1610bbf36600461345d565b611c2d565b6000610bd1338484611c63565b5060015b92915050565b6000610bec87338888888888611cc5565b5060019695505050505050565b610c6384610c0685611d7c565b8461064a610c19368790038701876134da565b6040805182516024820152602092830151151560448083019190915282518083039091018152606490910190915290810180516001600160e01b0316630181dcf160e41b17905290565b50505050565b6000610c76863386611da9565b610c81868686611e11565b846001600160a01b0316866001600160a01b03167fcd6e659e4c2e75c3bfe47fecaccf39aeb368116a0ee52afb532e07f6cba6c0d1868686604051610cc893929190613558565b60405180910390a350600195945050505050565b6000610ce9848484611e11565b610cf4843384611da9565b5060019392505050565b604080517f47e79534a245952e8b16893a336b85a3d9ea9fa8c573f3d803afb92a794692186020820152469181019190915230606082015260009060800160405160208183030381529060405280519060200120905090565b610d60336112dc565b158015610d8c575033600090815260056020526040902054610d8a906001600160a01b03166112dc565b155b15610daa57604051633e34a41b60e21b815260040160405180910390fd5b610db48282611f28565b5050565b610dc23382611fc5565b50565b610dd0333084611e11565b610dfb307f000000000000000000000000000000000000000000000000000000000000000084611c63565b610e0f84610e0a858585612047565b6120e6565b505082604051610e1f9190613572565b604080519182900382206001600160401b0387168352602083018590529133917f7895812be6b9a01617f760055105f506b5e2f6dff79ff3170e4fdb3391fc0023910160405180910390a350505050565b6000610e9685610e7f86611d7c565b8585604051806020016040528060008152506110f5565b95945050505050565b6000610eac338686611e11565b846001600160a01b0316336001600160a01b03167fcd6e659e4c2e75c3bfe47fecaccf39aeb368116a0ee52afb532e07f6cba6c0d1868686604051610ef393929190613558565b60405180910390a3506001949350505050565b6000610f13873387611da9565b610f2288888888888888611cc5565b506001979650505050505050565b600080600080610f3e611aed565b9250925092506000610f9d610f727f0000000000000000000000000000000000000000000000000000000000000000611d7c565b6040805160208101889052908101869052606001604051602081830303815290604052848a8a61263e565b9050610fc97f0000000000000000000000000000000000000000000000000000000000000000826126ac565b979650505050505050565b610dc2610a3f610c19368490038401846134da565b610ff2336112dc565b15801561101e57503360009081526005602052604090205461101c906001600160a01b03166112dc565b155b1561103c57604051633e34a41b60e21b815260040160405180910390fd5b610db433838361273e565b6000610fc98761105688611d7c565b87611069610c19368a90038a018a6134da565b8787610bdb565b611079336112dc565b1580156110a55750336000908152600560205260409020546110a3906001600160a01b03166112dc565b155b156110c357604051633e34a41b60e21b815260040160405180910390fd5b610db48282611fc5565b6000610fc987876110dd88611d7c565b87604051806020016040528060008152508888610f06565b604080516001808252818301909252600091829190816020015b604080518082019091526000808252602082015281526020019060019003908161110f5790505090506040518060400160405280306001600160a01b0316815260200186815250816000815181106111695761116961358e565b6020026020010181905250610fc987611194886040518060200160405280600081525085898961263e565b6126ac565b6001600160a01b0385166000908152600460205260409020544211156111d25760405163ecdd1c2960e01b815260040160405180910390fd5b60405163352e3a8360e01b81526001600160a01b037f0000000000000000000000000000000000000000000000000000000000000000169063352e3a8390611222903390889088906004016135a4565b60006040518083038186803b15801561123a57600080fd5b505afa15801561124e573d6000803e3d6000fd5b505050506001600160a01b03851660008181526004602052604080822091909155517fd60c86e83346fdbe3124cb7d1cba32973a9f62d05c4ec801bfe6c09d103803819061129f90859085906135fe565b60405180910390a25050505050565b60006112c5866112bd87611d7c565b8686866110f5565b9695505050505050565b6000610bd1338484611e11565b6001600160a01b03811660009081526004602052604081205415801590610bd55750506001600160a01b031660009081526004602052604090205442101590565b611326336112dc565b61134357604051633e34a41b60e21b815260040160405180910390fd5b6001600160a01b0316600090815260056020526040902080546001600160a01b03191633179055565b6000611377826112dc565b80610bd557506001600160a01b03808316600090815260056020526040902054610bd591166112dc565b6000610bd58260405180602001604052806000815250610f30565b60008060006113c9611aed565b9194509250905081156113dc5760006006555b82156114385761140d7f00000000000000000000000000000000000000000000000000000000000000003085611e11565b611438307f000000000000000000000000000000000000000000000000000000000000000085611c63565b60006114906114667f0000000000000000000000000000000000000000000000000000000000000000611d7c565b6040805160208101889052908101869052606001604051602081830303815290604052848861282f565b90506114bc7f0000000000000000000000000000000000000000000000000000000000000000826120e6565b505060408051858152602081018590527f780ad21fb95421fd83047aa9bb3506c2aea4c8d383daa4476e66d56606632dc2910160405180910390a15050505050565b6115218361150b84611d7c565b8360405180602001604052806000815250610dc5565b505050565b61153e604051806020016040528060008152506113bc565b565b7f000000000000000000000000000000000000000000000000000000000000000084101561158157604051631260d0af60e31b815260040160405180910390fd5b683635c9adc5dea000008310156115ab5760405163732f941360e01b815260040160405180910390fd5b6001600160a01b038516600090815260046020526040902054156115e257604051630ea075bf60e21b815260040160405180910390fd5b6115ed30338561273e565b6115f78442613628565b6001600160a01b038616600081815260046020526040908190209290925590517f97326258efdae63280617ca33884e507791c2abeed7b82acd77f1853394ef94b9061129f90879087908790879061363b565b611653336112dc565b15801561167f57503360009081526005602052604090205461167d906001600160a01b03166112dc565b155b1561169d57604051633e34a41b60e21b815260040160405180910390fd5b7f00000000000000000000000000000000000000000000000000000000000000006001600160a01b031660009081526020819052604090205480821115611732576116e8818361365b565b600660008282546116f99190613628565b9091555061173290507f000000000000000000000000000000000000000000000000000000000000000061172d838561365b565b611f28565b61175d7f00000000000000000000000000000000000000000000000000000000000000008484611e11565b826001600160a01b03167f72fba0ba07d937c660a3130fca36005c0e476cb97b6f00de413976e37eba95018360405161179891815260200190565b60405180910390a2505050565b428410156117fa5760405162461bcd60e51b815260206004820152601760248201527f5045524d49545f444541444c494e455f4558504952454400000000000000000060448201526064015b60405180910390fd5b60006001611806610cfe565b6001600160a01b038a811660008181526003602090815260409182902080546001810190915582517f6e71edae12b1b97f4d1f60370fef10105fa2faae0126114a169c64845d6126c98184015280840194909452938d166060840152608083018c905260a083019390935260c08083018b90528151808403909101815260e08301909152805192019190912061190160f01b6101008301526101028201929092526101228101919091526101420160408051601f198184030181528282528051602091820120600084529083018083525260ff871690820152606081018590526080810184905260a0016020604051602081039080840390855afa158015611912573d6000803e3d6000fd5b5050604051601f1901519150506001600160a01b038116158015906119485750876001600160a01b0316816001600160a01b0316145b6119855760405162461bcd60e51b815260206004820152600e60248201526d24a72b20a624a22fa9a4a3a722a960911b60448201526064016117f1565b611990818888611c63565b5050505050505050565b60006119a68383612876565b9392505050565b60075460ff16156119d05760405162dc149f60e41b815260040160405180910390fd5b8281146119f05760405163b4fa3fb360e01b815260040160405180910390fd5b60005b83811015611ad9574260046000878785818110611a1257611a1261358e565b9050602002016020810190611a279190612df0565b6001600160a01b03168152602081019190915260400160002055848482818110611a5357611a5361358e565b9050602002016020810190611a689190612df0565b6001600160a01b03167f97326258efdae63280617ca33884e507791c2abeed7b82acd77f1853394ef94b600080868686818110611aa757611aa761358e565b9050602002810190611ab9919061366e565b604051611ac9949392919061363b565b60405180910390a26001016119f3565b50506007805460ff19166001179055505050565b60008060606000611b337f00000000000000000000000000000000000000000000000000000000000000006001600160a01b031660009081526020819052604090205490565b604080516000808252602082019092529192509081611b74565b6040805180820190915260008082526020820152815260200190600190039081611b4d5790505b5090508115611bf85760408051600180825281830190925290816020015b6040805180820190915260008082526020820152815260200190600190039081611b925790505090506040518060400160405280306001600160a01b031681526020018381525081600081518110611bec57611bec61358e565b60200260200101819052505b600654919591945092509050565b60006112c586611c1587611d7c565b86604051806020016040528060008152508787610bdb565b6000611c578888611c3d89611d7c565b88611c50610c19368b90038b018b6134da565b8888610f06565b98975050505050505050565b6001600160a01b0383811660008181526001602090815260408083209487168084529482529182902085905590518481527f8c5be1e5ebec7d5bd14f71427d1e84f3dd0314c0f7b2291e5b200ac8c7c3b92591015b60405180910390a3505050565b611cd0863086611e11565b611cfb307f000000000000000000000000000000000000000000000000000000000000000086611c63565b611d0a87610e0a878787612047565b505084604051611d1a9190613572565b6040518091039020866001600160a01b0316336001600160a01b03167f06666856ab7ec8eca6666144744c8bdd710c19b0aba4a36495361c82a01099288a888787604051611d6b94939291906136b4565b60405180910390a450505050505050565b604080516001600160a01b0383166020820152606091016040516020818303038152906040529050919050565b6000611db58484612876565b9050600160ff1b811015610c635781811015611dfd57604051637dc7a0d960e11b81526001600160a01b038516600482015260248101829052604481018390526064016117f1565b610c638484611e0c858561365b565b611c63565b6001600160a01b038216611e2457600080fd5b6001600160a01b038316600090815260208190526040902054811115611e87576001600160a01b0383166000818152602081905260409081902054905163391434e360e21b815260048101929092526024820152604481018290526064016117f1565b6001600160a01b03831660009081526020819052604081208054839290611eaf90849061365b565b90915550506001600160a01b03821660009081526020819052604081208054839290611edc908490613628565b92505081905550816001600160a01b0316836001600160a01b03167fddf252ad1be2c89b69c2b068fc378daa952ba7f163c4a11628f55a4df523b3ef83604051611cb891815260200190565b6001600160a01b038216611f3b57600080fd5b8060026000828254611f4d9190613628565b90915550506001600160a01b03821660009081526020819052604081208054839290611f7a908490613628565b90915550506040518181526001600160a01b038316906000907fddf252ad1be2c89b69c2b068fc378daa952ba7f163c4a11628f55a4df523b3ef906020015b60405180910390a35050565b8060026000828254611fd7919061365b565b90915550506001600160a01b0382166000908152602081905260408120805483929061200490849061365b565b90915550506040518181526000906001600160a01b038416907fddf252ad1be2c89b69c2b068fc378daa952ba7f163c4a11628f55a4df523b3ef90602001611fb9565b61204f61296a565b604080516001808252818301909252600091816020015b60408051808201909152600080825260208201528152602001906001900390816120665790505090506040518060400160405280306001600160a01b0316815260200185815250816000815181106120c0576120c061358e565b6020026020010181905250610e968560405180602001604052806000815250838661282f565b60008060006120f585856126ac565b60608501519091506000906001600160a01b0316156125025760608501516040516370a0823160e01b815233600482015283916001600160a01b0316906370a0823190602401602060405180830381865afa158015612158573d6000803e3d6000fd5b505050506040513d601f19601f8201168201806040525081019061217c91906136dd565b10156121b35760608501516040516346d55cf960e01b81526001600160a01b039091166004820152602481018390526044016117f1565b6060850151604051636eb1769f60e11b815233600482015230602482015283916001600160a01b03169063dd62ed3e90604401602060405180830381865afa158015612203573d6000803e3d6000fd5b505050506040513d601f19601f8201168201806040525081019061222791906136dd565b101561225e57606085015160405163def222f760e01b81526001600160a01b039091166004820152602481018390526044016117f1565b60608501516040516323b872dd60e01b8152336004820152306024820152604481018490526001600160a01b03909116906323b872dd906064016020604051808303816000875af11580156122b7573d6000803e3d6000fd5b505050506040513d601f19601f820116820180604052508101906122db91906136f6565b50606085015160405163095ea7b360e01b81526001600160a01b037f000000000000000000000000000000000000000000000000000000000000000081166004830152602482018590529091169063095ea7b3906044016020604051808303816000875af1158015612351573d6000803e3d6000fd5b505050506040513d601f19601f8201168201806040525081019061237591906136f6565b506040516396f4e9f960e01b81526001600160a01b037f000000000000000000000000000000000000000000000000000000000000000016906396f4e9f9906123c49089908990600401613713565b6020604051808303816000875af11580156123e3573d6000803e3d6000fd5b505050506040513d601f19601f8201168201806040525081019061240791906136dd565b60608601516040516370a0823160e01b81523060048201529192506000916001600160a01b03909116906370a0823190602401602060405180830381865afa158015612457573d6000803e3d6000fd5b505050506040513d601f19601f8201168201806040525081019061247b91906136dd565b905080156124fc57606086015160405163a9059cbb60e01b8152336004820152602481018390526001600160a01b039091169063a9059cbb906044016020604051808303816000875af11580156124d6573d6000803e3d6000fd5b505050506040513d601f19601f820116820180604052508101906124fa91906136f6565b505b50612632565b8134101561253b5760608501516040516346d55cf960e01b81526001600160a01b039091166004820152602481018390526044016117f1565b6040516396f4e9f960e01b81526001600160a01b037f000000000000000000000000000000000000000000000000000000000000000016906396f4e9f990849061258b908a908a90600401613713565b60206040518083038185885af11580156125a9573d6000803e3d6000fd5b50505050506040513d601f19601f820116820180604052508101906125ce91906136dd565b905060006125dc833461365b565b111561263257336125ed833461365b565b604051600081818185875af1925050503d8060008114612629576040519150601f19603f3d011682016040523d82523d6000602084013e61262e565b606091505b5050505b925090505b9250929050565b61264661296a565b6040518060a001604052808781526020018681526020018581526020018461268e577f0000000000000000000000000000000000000000000000000000000000000000612691565b60005b6001600160a01b031681526020019290925250949350505050565b6040516320487ded60e01b81526000906001600160a01b037f000000000000000000000000000000000000000000000000000000000000000016906320487ded906126fd9086908690600401613713565b602060405180830381865afa15801561271a573d6000803e3d6000fd5b505050506040513d601f19601f820116820180604052508101906119a691906136dd565b612769827f000000000000000000000000000000000000000000000000000000000000000083611e11565b8060065411156127ba578060066000828254612785919061365b565b909155506127b590507f000000000000000000000000000000000000000000000000000000000000000082611fc5565b6127f4565b600654156127f4576127ee7f0000000000000000000000000000000000000000000000000000000000000000600654611fc5565b60006006555b826001600160a01b03167f5314098314219d6e1ce8e41fc5e6ec1ce2f06a9d583079fb6619af9bf6efdf418260405161179891815260200190565b61283761296a565b6040518060a0016040528086815260200185815260200184815260200161285c612936565b6001600160a01b0316815260200192909252509392505050565b6001600160a01b03808316600090815260016020908152604080832093851683529290529081205480156128ab579050610bd5565b6128b4836112dc565b806128de57506001600160a01b038084166000908152600560205260409020546128de91166112dc565b8061291a57507f00000000000000000000000000000000000000000000000000000000000000006001600160a01b0316836001600160a01b0316145b1561292c57600160ff1b915050610bd5565b6000915050610bd5565b600080341161296457507f000000000000000000000000000000000000000000000000000000000000000090565b50600090565b6040518060a0016040528060608152602001606081526020016060815260200160006001600160a01b03168152602001606081525090565b60005b838110156129bd5781810151838201526020016129a5565b50506000910152565b600081518084526129de8160208601602086016129a2565b601f01601f19169290920160200192915050565b6020815260006119a660208301846129c6565b80356001600160a01b0381168114612a1c57600080fd5b919050565b60008060408385031215612a3457600080fd5b612a3d83612a05565b946020939093013593505050565b80356001600160401b0381168114612a1c57600080fd5b634e487b7160e01b600052604160045260246000fd5b600082601f830112612a8957600080fd5b81356001600160401b0380821115612aa357612aa3612a62565b604051601f8301601f19908116603f01168101908282118183101715612acb57612acb612a62565b81604052838152866020858801011115612ae457600080fd5b836020870160208301376000602085830101528094505050505092915050565b60008083601f840112612b1657600080fd5b5081356001600160401b03811115612b2d57600080fd5b60208301915083602082850101111561263757600080fd5b60008060008060008060a08789031215612b5e57600080fd5b612b6787612a4b565b955060208701356001600160401b0380821115612b8357600080fd5b612b8f8a838b01612a78565b9650604089013595506060890135915080821115612bac57600080fd5b612bb88a838b01612a78565b94506080890135915080821115612bce57600080fd5b50612bdb89828a01612b04565b979a9699509497509295939492505050565b600060408284031215612bff57600080fd5b50919050565b60008060008060a08587031215612c1b57600080fd5b612c2485612a4b565b9350612c3260208601612a05565b925060408501359150612c488660608701612bed565b905092959194509250565b600080600080600060808688031215612c6b57600080fd5b612c7486612a05565b9450612c8260208701612a05565b93506040860135925060608601356001600160401b03811115612ca457600080fd5b612cb088828901612b04565b969995985093965092949392505050565b600080600060608486031215612cd657600080fd5b612cdf84612a05565b9250612ced60208501612a05565b9150604084013590509250925092565b600060208284031215612d0f57600080fd5b5035919050565b60008060008060808587031215612d2c57600080fd5b612d3585612a4b565b935060208501356001600160401b0380821115612d5157600080fd5b612d5d88838901612a78565b9450604087013593506060870135915080821115612d7a57600080fd5b50612d8787828801612a78565b91505092959194509250565b8015158114610dc257600080fd5b60008060008060808587031215612db757600080fd5b612dc085612a4b565b9350612dce60208601612a05565b9250604085013591506060850135612de581612d93565b939692955090935050565b600060208284031215612e0257600080fd5b6119a682612a05565b60008060008060608587031215612e2157600080fd5b612e2a85612a05565b93506020850135925060408501356001600160401b03811115612e4c57600080fd5b612e5887828801612b04565b95989497509550505050565b600080600080600080600060c0888a031215612e7f57600080fd5b612e8888612a4b565b9650612e9660208901612a05565b955060408801356001600160401b0380821115612eb257600080fd5b612ebe8b838c01612a78565b965060608a0135955060808a0135915080821115612edb57600080fd5b612ee78b838c01612a78565b945060a08a0135915080821115612efd57600080fd5b50612f0a8a828b01612b04565b989b979a50959850939692959293505050565b60008060408385031215612f3057600080fd5b8235612f3b81612d93565b915060208301356001600160401b03811115612f5657600080fd5b612f6285828601612a78565b9150509250929050565b600060408284031215612f7e57600080fd5b6119a68383612bed565b60008060008060008060c08789031215612fa157600080fd5b612faa87612a4b565b9550612fb860208801612a05565b945060408701359350612fce8860608901612bed565b925060a08701356001600160401b03811115612fe957600080fd5b612bdb89828a01612b04565b60008060008060008060a0878903121561300e57600080fd5b61301787612a4b565b955061302560208801612a05565b945061303360408801612a05565b93506060870135925060808701356001600160401b03811115612fe957600080fd5b600080600080600060a0868803121561306d57600080fd5b61307686612a4b565b945060208601356001600160401b038082111561309257600080fd5b61309e89838a01612a78565b955060408801359450606088013591506130b782612d93565b909250608087013590808211156130cd57600080fd5b506130da88828901612a78565b9150509295509295909350565b60008083601f8401126130f957600080fd5b5081356001600160401b0381111561311057600080fd5b6020830191508360208260051b850101111561263757600080fd5b60008060008060006060868803121561314357600080fd5b61314c86612a05565b945060208601356001600160401b038082111561316857600080fd5b61317489838a016130e7565b9096509450604088013591508082111561318d57600080fd5b50612cb088828901612b04565b600080600080600060a086880312156131b257600080fd5b6131bb86612a4b565b94506131c960208701612a05565b93506040860135925060608601356131e081612d93565b915060808601356001600160401b038111156131fb57600080fd5b6130da88828901612a78565b60006020828403121561321957600080fd5b81356119a681612d93565b60006020828403121561323657600080fd5b81356001600160401b0381111561324c57600080fd5b61325884828501612a78565b949350505050565b60008060006060848603121561327557600080fd5b612cdf84612a4b565b60008060008060006080868803121561329657600080fd5b61329f86612a05565b9450602086013593506040860135925060608601356001600160401b03811115612ca457600080fd5b600080600080600080600060e0888a0312156132e357600080fd5b6132ec88612a05565b96506132fa60208901612a05565b95506040880135945060608801359350608088013560ff8116811461331e57600080fd5b9699959850939692959460a0840135945060c09093013592915050565b6000806040838503121561334e57600080fd5b61335783612a05565b915061336560208401612a05565b90509250929050565b6000806000806040858703121561338457600080fd5b84356001600160401b038082111561339b57600080fd5b6133a7888389016130e7565b909650945060208701359150808211156133c057600080fd5b50612e58878288016130e7565b60008151808452602080850194506020840160005b8381101561341257815180516001600160a01b0316885283015183880152604090960195908201906001016133e2565b509495945050505050565b838152826020820152606060408201526000610e9660608301846133cd565b60008060008060006080868803121561345457600080fd5b612c7486612a4b565b600080600080600080600060e0888a03121561347857600080fd5b61348188612a4b565b965061348f60208901612a05565b955061349d60408901612a05565b9450606088013593506134b38960808a01612bed565b925060c08801356001600160401b038111156134ce57600080fd5b612f0a8a828b01612b04565b6000604082840312156134ec57600080fd5b604051604081018181106001600160401b038211171561350e5761350e612a62565b60405282358152602083013561352381612d93565b60208201529392505050565b81835281816020850137506000828201602090810191909152601f909101601f19169091010190565b838152604060208201526000610e9660408301848661352f565b600082516135848184602087016129a2565b9190910192915050565b634e487b7160e01b600052603260045260246000fd5b6001600160a01b03848116825260406020808401829052908301849052600091859160608501845b878110156135f157836135de86612a05565b16825293820193908201906001016135cc565b5098975050505050505050565b60208152600061325860208301848661352f565b634e487b7160e01b600052601160045260246000fd5b80820180821115610bd557610bd5613612565b8481528360208201526060604082015260006112c560608301848661352f565b81810381811115610bd557610bd5613612565b6000808335601e1984360301811261368557600080fd5b8301803591506001600160401b0382111561369f57600080fd5b60200191503681900382131561263757600080fd5b6001600160401b03851681528360208201526060604082015260006112c560608301848661352f565b6000602082840312156136ef57600080fd5b5051919050565b60006020828403121561370857600080fd5b81516119a681612d93565b6001600160401b0383168152604060208201526000825160a0604084015261373e60e08401826129c6565b90506020840151603f198085840301606086015261375c83836129c6565b9250604086015191508085840301608086015261377983836133cd565b60608701516001600160a01b031660a0870152608087015186820390920160c0870152925090506112c582826129c656fea264697066735822122010d712851f8eade01e9a8ddec8786f5b9dc72e852a7ad7ed43de00fd8e9f640a64736f6c6343000818003360e06040523480156200001157600080fd5b506040516200235d3803806200235d8339810160408190526200003491620000d0565b806001600160a01b031663cd3293de6040518163ffffffff1660e01b8152600401602060405180830381865afa15801562000073573d6000803e3d6000fd5b505050506040513d601f19601f820116820180604052508101906200009991906200010f565b6001600160a01b0390811660805291821660a0521660c05262000136565b6001600160a01b0381168114620000cd57600080fd5b50565b60008060408385031215620000e457600080fd5b8251620000f181620000b7565b60208401519092506200010481620000b7565b809150509250929050565b6000602082840312156200012257600080fd5b81516200012f81620000b7565b9392505050565b60805160a05160c0516121a3620001ba600039600081816101b30152818161033701528181610c5201528181610d7501528181610e4f01526111610152600081816101200152818161036701528181610c7a01528181610da0015261119101526000818161018c0152818161065e01528181610a75015261100c01526121a36000f3fe608060405234801561001057600080fd5b50600436106101165760003560e01c806356813c46116100a2578063a278ce7311610071578063a278ce7314610292578063e185f1a2146102a5578063e7865c9a146102b8578063f2249822146102cb578063fdc49132146102de57600080fd5b806356813c461461024657806366b5063214610259578063867931341461026c5780638bb4e7611461027f57600080fd5b80631836e0da116100e95780631836e0da146101ae57806327cfe856146101d55780632865ae72146101f757806332ed5b121461020a5780634aef7d8b1461023357600080fd5b80630618da0e1461011b57806306b16f921461015f578063104e9929146101745780631462783414610187575b600080fd5b6101427f000000000000000000000000000000000000000000000000000000000000000081565b6040516001600160a01b0390911681526020015b60405180910390f35b61017261016d366004611384565b6102f1565b005b600054610142906001600160a01b031681565b6101427f000000000000000000000000000000000000000000000000000000000000000081565b6101427f000000000000000000000000000000000000000000000000000000000000000081565b6101df6201518081565b6040516001600160401b039091168152602001610156565b6101726102053660046113c4565b610475565b6101df6102183660046113df565b6001602052600090815260409020546001600160401b031681565b6101726102413660046115bb565b6105d9565b610172610254366004611623565b61065a565b610172610267366004611661565b61077a565b61017261027a366004611703565b610945565b61017261028d366004611863565b610a71565b6101726102a03660046118db565b610bc8565b6101726102b3366004611932565b610c3b565b6101726102c6366004611932565b610ce6565b6101726102d936600461196d565b610d5e565b6101726102ec3660046119d1565b610ec4565b6103208160405160200161030591906119ef565b60405160208183030381529060405280519060200120610f3c565b604051636ed6fd4760e11b81526001600160a01b037f00000000000000000000000000000000000000000000000000000000000000008116600483015282811660248301527f0000000000000000000000000000000000000000000000000000000000000000169063ddadfa8e90604401600060405180830381600087803b1580156103ab57600080fd5b505af11580156103bf573d6000803e3d6000fd5b50506000546001600160a01b031615915061043690505760005460405163f2fde38b60e01b81526001600160a01b0383811660048301529091169063f2fde38b90602401600060405180830381600087803b15801561041d57600080fd5b505af1158015610431573d6000803e3d6000fd5b505050505b6040516001600160a01b03821681527fe22b4f506b7da9a528a95d7063a6cde8d2b6268773b1f7f65c00057531704a3d9060200160405180910390a150565b6000546001600160a01b031661049e5760405163b346648b60e01b815260040160405180910390fd5b6104b2816040516020016103059190611a27565b6040805160018082528183019092526000916020808301908036833701905050905081816000815181106104e8576104e8611a5d565b6001600160401b039290921660209283029190910182015260408051600080825292810190915281610530565b61051d611300565b8152602001906001900390816105155790505b5060005460405163e8a1da1760e01b81529192506001600160a01b03169063e8a1da17906105649085908590600401611c05565b600060405180830381600087803b15801561057e57600080fd5b505af1158015610592573d6000803e3d6000fd5b50506040516001600160401b03861681527f5204aec90a3c794d8e90fded8b46ae9c7c552803e7e832e0c1d358396d859916925060200190505b60405180910390a1505050565b6000836040516020016105ec9190611cab565b6040516020818303038152906040528051906020012090506106118160078585611008565b336001600160a01b03167fc69c8ca301ca62431960a091e21b4ccba9198869711cb21e33c959537aa6e444828660405161064c929190611ce5565b60405180910390a250505050565b81817f00000000000000000000000000000000000000000000000000000000000000006001600160a01b031663352e3a833384846040518463ffffffff1660e01b81526004016106ac93929190611cfe565b60006040518083038186803b1580156106c457600080fd5b505afa1580156106d8573d6000803e3d6000fd5b5050506000868152600160205260408120546001600160401b03169003905061071c576040516304bbf15f60e11b8152600481018690526024015b60405180910390fd5b60008581526001602052604090819020805467ffffffffffffffff19169055517f1f31008e39db52785cc2c4af1b52bfde142d3ad9ff6b5221888a4700481f2f639061076b9087815260200190565b60405180910390a15050505050565b6000546001600160a01b03166107a35760405163b346648b60e01b815260040160405180910390fd5b6107b7816040516020016103059190611cab565b80511561088157600054602082015160408084015190516318b774f160e21b81526001600160a01b03909316926362ddd3c4926107f8929091600401611d5a565b600060405180830381600087803b15801561081257600080fd5b505af1158015610826573d6000803e3d6000fd5b50505050806040015160405161083c9190611d7c565b604051809103902081602001516001600160401b03167f7d628c9a1796743d365ab521a8b2a4686e419b3269919dc9145ea2ce853b54ea60405160405180910390a350565b6000546020820151604080840151905163acfecf9160e01b81526001600160a01b039093169263acfecf91926108bb929091600401611d5a565b600060405180830381600087803b1580156108d557600080fd5b505af11580156108e9573d6000803e3d6000fd5b5050505080604001516040516108ff9190611d7c565b604051809103902081602001516001600160401b03167f52d00ee4d9bd51b40168f2afc5848837288ce258784ad914278791464b3f4d7660405160405180910390a35b50565b6000546001600160a01b031661096e5760405163b346648b60e01b815260040160405180910390fd5b610982816040516020016103059190611d98565b604080516000808252600160208301818152606084018552929391929184015b6109aa611300565b8152602001906001900390816109a257905050905082816000815181106109d3576109d3611a5d565b602090810291909101015260005460405163e8a1da1760e01b81526001600160a01b039091169063e8a1da1790610a109085908590600401611c05565b600060405180830381600087803b158015610a2a57600080fd5b505af1158015610a3e573d6000803e3d6000fd5b505050507f997ece7f5dbb418762275ab79bd907b726b4b93ce7ce4a3bf20485ed9abe7faa836040516105cc9190611dd2565b81817f00000000000000000000000000000000000000000000000000000000000000006001600160a01b031663352e3a833384846040518463ffffffff1660e01b8152600401610ac393929190611cfe565b60006040518083038186803b158015610adb57600080fd5b505afa158015610aef573d6000803e3d6000fd5b50506000546001600160a01b03169150610b1e90505760405163b346648b60e01b815260040160405180910390fd5b60005460405163cf7401f360e01b81526001600160a01b039091169063cf7401f390610b52908a908a908a90600401611e27565b600060405180830381600087803b158015610b6c57600080fd5b505af1158015610b80573d6000803e3d6000fd5b505050507f3deebf0b3430431835efe0c537812d7973219fdd0bdd3aeaddb8db166ab7bf27878787604051610bb793929190611e27565b60405180910390a150505050505050565b600083604051602001610bdb9190611fd4565b604051602081830303815290604052805190602001209050610c008160078585611008565b336001600160a01b03167f68457984b8b28a38a49b3e46cb383b047dbca87b3b2e45d9181439f84169d028828660405161064c92919061200e565b604051630ab0ca6d60e11b81526001600160a01b037f0000000000000000000000000000000000000000000000000000000000000000811660048301527f0000000000000000000000000000000000000000000000000000000000000000169063156194da90602401600060405180830381600087803b158015610cbe57600080fd5b505af1158015610cd2573d6000803e3d6000fd5b50505050610ce183838361114a565b505050565b600083604051602001610cf991906119ef565b604051602081830303815290604052805190602001209050610d1e8160158585611008565b604080518281526001600160a01b038616602082015233917f7e3383d715b50982af3e6f86cd3a22cc104cf300b02375e0c8738244d95857c7910161064c565b60405163cb67e3b160e01b81526001600160a01b037f0000000000000000000000000000000000000000000000000000000000000000811660048301526000917f00000000000000000000000000000000000000000000000000000000000000009091169063cb67e3b190602401606060405180830381865afa158015610de9573d6000803e3d6000fd5b505050506040513d601f19601f82011682018060405250810190610e0d9190612027565b516001600160a01b031614610e3557604051630ea075bf60e21b815260040160405180910390fd5b6040516001623b4f2b60e21b031981526001600160a01b037f00000000000000000000000000000000000000000000000000000000000000008116600483015285169063ff12c35490602401600060405180830381600087803b158015610e9b57600080fd5b505af1158015610eaf573d6000803e3d6000fd5b50505050610ebe838383610c3b565b50505050565b600083604051602001610ed79190611a27565b604051602081830303815290604052805190602001209050610efc8160078585611008565b604080518281526001600160401b038616602082015233917f5a570504a3f0608bbc8a5bf898d58fba6c092e1424e5f9e5a3e8635cae1976ce910161064c565b6000818152600160205260408120546001600160401b031690819003610f78576040516304bbf15f60e11b815260048101839052602401610713565b42816001600160401b03161115610fad5760405163d606d83f60e01b81526001600160401b0382166004820152602401610713565b60008281526001602052604090819020805467ffffffffffffffff19169055517fa3b6368b6d3f37515d1e7c5f2419ec24fb57f5f867fd9456a70d950bdac1f4c690610ffc9084815260200190565b60405180910390a15050565b81817f00000000000000000000000000000000000000000000000000000000000000006001600160a01b031663352e3a833384846040518463ffffffff1660e01b815260040161105a93929190611cfe565b60006040518083038186803b15801561107257600080fd5b505afa158015611086573d6000803e3d6000fd5b5050506000878152600160205260409020546001600160401b03161590506110c457604051634c44e3d360e11b815260048101879052602401610713565b6110d16201518086612091565b6110db90426120bc565b600087815260016020908152604091829020805467ffffffffffffffff19166001600160401b039490941693841790558151898152908101929092527f497e45dce2bd7277051c7194a9252a4560c476938b268b26082614bd9d655e55910160405180910390a1505050505050565b604051634e847fc760e01b81526001600160a01b037f00000000000000000000000000000000000000000000000000000000000000008116600483015284811660248301527f00000000000000000000000000000000000000000000000000000000000000001690634e847fc790604401600060405180830381600087803b1580156111d557600080fd5b505af11580156111e9573d6000803e3d6000fd5b50505050826001600160a01b03166379ba50976040518163ffffffff1660e01b8152600401600060405180830381600087803b15801561122857600080fd5b505af115801561123c573d6000803e3d6000fd5b5050821591506112b69050576040805160008152602081019182905263e8a1da1760e01b9091526001600160a01b0384169063e8a1da1790611283908585602483016120e3565b600060405180830381600087803b15801561129d57600080fd5b505af11580156112b1573d6000803e3d6000fd5b505050505b600080546001600160a01b0319166001600160a01b038516908117825560405190917f05dbcb65b33e42bc9e68704a2b109e0f4eee368a6945cad1e857b0197c9fef4291a2505050565b6040518060a0016040528060006001600160401b03168152602001606081526020016060815260200161134c604080516060810182526000808252602082018190529181019190915290565b815260408051606081018252600080825260208281018290529282015291015290565b6001600160a01b038116811461094257600080fd5b60006020828403121561139657600080fd5b81356113a18161136f565b9392505050565b80356001600160401b03811681146113bf57600080fd5b919050565b6000602082840312156113d657600080fd5b6113a1826113a8565b6000602082840312156113f157600080fd5b5035919050565b634e487b7160e01b600052604160045260246000fd5b604051606081016001600160401b0381118282101715611430576114306113f8565b60405290565b60405160a081016001600160401b0381118282101715611430576114306113f8565b604051601f8201601f191681016001600160401b0381118282101715611480576114806113f8565b604052919050565b803580151581146113bf57600080fd5b600082601f8301126114a957600080fd5b81356001600160401b038111156114c2576114c26113f8565b6114d5601f8201601f1916602001611458565b8181528460208386010111156114ea57600080fd5b816020850160208301376000918101602001919091529392505050565b60006060828403121561151957600080fd5b61152161140e565b905061152c82611488565b815261153a602083016113a8565b602082015260408201356001600160401b0381111561155857600080fd5b61156484828501611498565b60408301525092915050565b60008083601f84011261158257600080fd5b5081356001600160401b0381111561159957600080fd5b6020830191508360208260051b85010111156115b457600080fd5b9250929050565b6000806000604084860312156115d057600080fd5b83356001600160401b03808211156115e757600080fd5b6115f387838801611507565b9450602086013591508082111561160957600080fd5b5061161686828701611570565b9497909650939450505050565b60008060006040848603121561163857600080fd5b8335925060208401356001600160401b0381111561165557600080fd5b61161686828701611570565b60006020828403121561167357600080fd5b81356001600160401b0381111561168957600080fd5b61169584828501611507565b949350505050565b80356001600160801b03811681146113bf57600080fd5b6000606082840312156116c657600080fd5b6116ce61140e565b90506116d982611488565b81526116e76020830161169d565b60208201526116f86040830161169d565b604082015292915050565b6000602080838503121561171657600080fd5b82356001600160401b038082111561172d57600080fd5b90840190610120828703121561174257600080fd5b61174a611436565b611753836113a8565b8152838301358281111561176657600080fd5b8301601f8101881361177757600080fd5b803583811115611789576117896113f8565b8060051b611798878201611458565b918252828101870191878101908b8411156117b257600080fd5b88850192505b838310156117ee578235878111156117d05760008081fd5b6117de8d8b83890101611498565b83525091880191908801906117b8565b80898701525050505050604083013593508184111561180c57600080fd5b61181887858501611498565b604082015261182a87606085016116b4565b606082015261183c8760c085016116b4565b60808201529695505050505050565b60006060828403121561185d57600080fd5b50919050565b6000806000806000610100868803121561187c57600080fd5b611885866113a8565b9450611894876020880161184b565b93506118a3876080880161184b565b925060e08601356001600160401b038111156118be57600080fd5b6118ca88828901611570565b969995985093965092949392505050565b6000806000604084860312156118f057600080fd5b83356001600160401b038082111561190757600080fd5b90850190610120828803121561191c57600080fd5b9093506020850135908082111561160957600080fd5b60008060006040848603121561194757600080fd5b83356119528161136f565b925060208401356001600160401b0381111561165557600080fd5b6000806000806060858703121561198357600080fd5b843561198e8161136f565b9350602085013561199e8161136f565b925060408501356001600160401b038111156119b957600080fd5b6119c587828801611570565b95989497509550505050565b6000806000604084860312156119e657600080fd5b611952846113a8565b6040808252600d908201526c30b236b4b72a3930b739b332b960991b60608201526001600160a01b0391909116602082015260800190565b6040808252600b908201526a3932b6b7bb32a1b430b4b760a91b60608201526001600160401b0391909116602082015260800190565b634e487b7160e01b600052603260045260246000fd5b60008151808452602080850194506020840160005b83811015611aad5781516001600160401b031687529582019590820190600101611a88565b509495945050505050565b60005b83811015611ad3578181015183820152602001611abb565b50506000910152565b60008151808452611af4816020860160208601611ab8565b601f01601f19169290920160200192915050565b80516001600160401b03168252602080820151610120828501819052815190850181905260009261014080870193600584901b88019091019290820190855b81811015611b765761013f19898603018652611b64858451611adc565b95840195945091830191600101611b47565b50505050604084015191508481036040860152611b938183611adc565b9150506060830151611bcd60608601828051151582526020808201516001600160801b039081169184019190915260409182015116910152565b5060808301518051151560c086015260208101516001600160801b0390811660e0870152604082015116610100860152509392505050565b604081526000611c186040830185611a73565b6020838203818501528185518084528284019150828160051b85010183880160005b83811015611c6857601f19878403018552611c56838351611b08565b94860194925090850190600101611c3a565b50909998505050505050505050565b8051151582526001600160401b03602082015116602083015260006040820151606060408501526116956060850182611adc565b60408152601060408201526f72656d6f7465506f6f6c55706461746560801b60608201526080602082015260006113a16080830184611c77565b8281526040602082015260006116956040830184611c77565b6001600160a01b03848116825260406020808401829052908301849052600091859160608501845b87811015611d4d578435611d398161136f565b841682529382019390820190600101611d26565b5098975050505050505050565b6001600160401b03831681526040602082015260006116956040830184611adc565b60008251611d8e818460208701611ab8565b9190910192915050565b604081526000611dc060408301600881526730b23221b430b4b760c11b602082015260400190565b82810360208401526116958185611b08565b6020815260006113a16020830184611b08565b611dee81611488565b15158252611dfe6020820161169d565b6001600160801b03808216602085015280611e1b6040850161169d565b16604085015250505050565b6001600160401b038416815260e08101611e446020830185611de5565b6116956080830184611de5565b81835281816020850137506000828201602090810191909152601f909101601f19169091010190565b6000808335601e19843603018112611e9157600080fd5b83016020810192503590506001600160401b03811115611eb057600080fd5b8036038213156115b457600080fd5b6000838385526020808601955060208560051b8301018460005b87811015611f1357848303601f19018952611ef48288611e7a565b611eff858284611e51565b9a86019a9450505090830190600101611ed9565b5090979650505050505050565b60006101206001600160401b0380611f37856113a8565b1685526020840135601e19853603018112611f5157600080fd5b840160208101903582811115611f6657600080fd5b8060051b3603821315611f7857600080fd5b836020880152611f8b8488018284611ebf565b9350505050611f9d6040840184611e7a565b8583036040870152611fb0838284611e51565b92505050611fc46060850160608501611de5565b6113a160c0850160c08501611de5565b604081526000611ffc60408301600881526730b23221b430b4b760c11b602082015260400190565b82810360208401526116958185611f20565b8281526040602082015260006116956040830184611f20565b60006060828403121561203957600080fd5b61204161140e565b825161204c8161136f565b8152602083015161205c8161136f565b6020820152604083015161206f8161136f565b60408201529392505050565b634e487b7160e01b600052601160045260246000fd5b6001600160401b038181168382160280821691908281146120b4576120b461207b565b505092915050565b6001600160401b038181168382160190808211156120dc576120dc61207b565b5092915050565b6040815260006120f66040830186611a73565b602083820360208501528185835260208301905060208660051b840101876000805b8981101561215d57868403601f190185528235368c900361011e1901811261213e578283fd5b61214a858d8301611f20565b9587019594505091850191600101612118565b50919a995050505050505050505056fea26469706673582212201955670353a01d311b3e5cf9be584737cd996feed5e950e95e05805f9b9e12dc64736f6c634300081800336101006040523480156200001257600080fd5b5060405162003da538038062003da58339810160408190526200003591620005a2565b8484848484336000816200005c57604051639b15e16f60e01b815260040160405180910390fd5b600180546001600160a01b0319166001600160a01b03848116919091179091558116156200008f576200008f81620001eb565b50506001600160a01b0385161580620000af57506001600160a01b038116155b80620000c257506001600160a01b038216155b15620000e1576040516342bcdf7f60e11b815260040160405180910390fd5b6001600160a01b03808616608081905290831660c0526040805163313ce56760e01b8152905163313ce567916004808201926020929091908290030181865afa92505050801562000151575060408051601f3d908101601f191682019092526200014e91810190620006c4565b60015b1562000191578060ff168560ff16146200018f576040516332ad3e0760e11b815260ff80871660048301528216602482015260440160405180910390fd5b505b60ff841660a052600480546001600160a01b0319166001600160a01b038316179055825115801560e052620001db57604080516000815260208101909152620001db908462000265565b5050505050505050505062000730565b336001600160a01b038216036200021557604051636d6c4ee560e11b815260040160405180910390fd5b600080546001600160a01b0319166001600160a01b03838116918217835560015460405192939116917fed8889f560326eb138920d842192f0eb3dd22b4f139c87a2c57538e05bae12789190a350565b60e05162000286576040516335f4a7b360e01b815260040160405180910390fd5b60005b825181101562000311576000838281518110620002aa57620002aa620006e2565b60209081029190910101519050620002c4600282620003c2565b1562000307576040516001600160a01b03821681527f800671136ab6cfee9fbe5ed1fb7ca417811aca3cf864800d127b927adedf75669060200160405180910390a15b5060010162000289565b5060005b8151811015620003bd576000828281518110620003365762000336620006e2565b6020026020010151905060006001600160a01b0316816001600160a01b031603620003625750620003b4565b6200036f600282620003e2565b15620003b2576040516001600160a01b03821681527f2640d4d76caf8bf478aabfa982fa4e1c4eb71a37f93cd15e80dbc657911546d89060200160405180910390a15b505b60010162000315565b505050565b6000620003d9836001600160a01b038416620003f9565b90505b92915050565b6000620003d9836001600160a01b038416620004fd565b60008181526001830160205260408120548015620004f257600062000420600183620006f8565b85549091506000906200043690600190620006f8565b9050808214620004a25760008660000182815481106200045a576200045a620006e2565b9060005260206000200154905080876000018481548110620004805762000480620006e2565b6000918252602080832090910192909255918252600188019052604090208390555b8554869080620004b657620004b66200071a565b600190038181906000526020600020016000905590558560010160008681526020019081526020016000206000905560019350505050620003dc565b6000915050620003dc565b60008181526001830160205260408120546200054657508154600181810184556000848152602080822090930184905584548482528286019093526040902091909155620003dc565b506000620003dc565b6001600160a01b03811681146200056557600080fd5b50565b805160ff811681146200057a57600080fd5b919050565b634e487b7160e01b600052604160045260246000fd5b80516200057a816200054f565b600080600080600060a08688031215620005bb57600080fd5b8551620005c8816200054f565b94506020620005d987820162000568565b60408801519095506001600160401b0380821115620005f757600080fd5b818901915089601f8301126200060c57600080fd5b8151818111156200062157620006216200057f565b8060051b604051601f19603f830116810181811085821117156200064957620006496200057f565b60405291825284820192508381018501918c8311156200066857600080fd5b938501935b828510156200069157620006818562000595565b845293850193928501926200066d565b809850505050505050620006a86060870162000595565b9150620006b86080870162000595565b90509295509295909350565b600060208284031215620006d757600080fd5b620003d98262000568565b634e487b7160e01b600052603260045260246000fd5b81810381811115620003dc57634e487b7160e01b600052601160045260246000fd5b634e487b7160e01b600052603160045260246000fd5b60805160a05160c05160e0516135c4620007e160003960008181610523015281816119f801526122f00152600081816104fd015281816116140152611d240152600081816102d101528181610b2001528181611766015281816117ee0152818161182201528181611855015281816118a1015281816118fa01526119650152600081816102520152818161029a0152818161063c01528181611e4a01528181612189015261244001526135c46000f3fe608060405234801561001057600080fd5b50600436106101da5760003560e01c80639a4575b911610104578063c0d78655116100a2578063dc0bd97111610071578063dc0bd971146104fb578063e0351e1314610521578063e8a1da1714610547578063f2fde38b1461055a57600080fd5b8063c0d78655146104ad578063c4bffe2b146104c0578063c75eea9c146104d5578063cf7401f3146104e857600080fd5b8063acfecf91116100de578063acfecf9114610410578063af58d59f14610423578063b0f479a114610489578063b79465801461049a57600080fd5b80639a4575b9146103bb578063a42a7b8b146103db578063a7cd63b7146103fb57600080fd5b806354c8a4f31161017c5780637d54534e1161014b5780637d54534e146103715780638926f54f146103845780638da5cb5b14610397578063962d4020146103a857600080fd5b806354c8a4f31461033057806362ddd3c4146103455780636d3d1a581461035857806379ba50971461036957600080fd5b8063240028e8116101b8578063240028e81461028a57806324f65ee7146102ca57806339077537146102fb5780634c5ef0ed1461031d57600080fd5b806301ffc9a7146101df578063181f5a771461020757806321df0da714610250575b600080fd5b6101f26101ed366004612910565b61056d565b60405190151581526020015b60405180910390f35b6102436040518060400160405280601781526020017f4275726e4d696e74546f6b656e506f6f6c20312e352e3100000000000000000081525081565b6040516101fe9190612980565b7f00000000000000000000000000000000000000000000000000000000000000005b6040516001600160a01b0390911681526020016101fe565b6101f26102983660046129a8565b7f00000000000000000000000000000000000000000000000000000000000000006001600160a01b0390811691161490565b60405160ff7f00000000000000000000000000000000000000000000000000000000000000001681526020016101fe565b61030e6103093660046129c5565b6105bf565b604051905181526020016101fe565b6101f261032b366004612a1c565b610742565b61034361033e366004612ae9565b61078b565b005b610343610353366004612a1c565b610806565b6009546001600160a01b0316610272565b610343610889565b61034361037f3660046129a8565b61090c565b6101f2610392366004612b54565b610968565b6001546001600160a01b0316610272565b6103436103b6366004612bb3565b61097e565b6103ce6103c9366004612c4c565b610a8c565b6040516101fe9190612c86565b6103ee6103e9366004612b54565b610b65565b6040516101fe9190612cbf565b610403610cce565b6040516101fe9190612d23565b61034361041e366004612a1c565b610cdf565b610436610431366004612b54565b610dc2565b6040516101fe919081516001600160801b03908116825260208084015163ffffffff1690830152604080840151151590830152606080840151821690830152608092830151169181019190915260a00190565b6004546001600160a01b0316610272565b6102436104a8366004612b54565b610e6f565b6103436104bb3660046129a8565b610f1e565b6104c8610fae565b6040516101fe9190612d70565b6104366104e3366004612b54565b611064565b6103436104f6366004612eb4565b61110e565b7f0000000000000000000000000000000000000000000000000000000000000000610272565b7f00000000000000000000000000000000000000000000000000000000000000006101f2565b610343610555366004612ae9565b61115f565b6103436105683660046129a8565b6115aa565b60006001600160e01b0319821663aff2afbf60e01b148061059e57506001600160e01b03198216630e64dd2960e01b145b806105b957506001600160e01b031982166301ffc9a760e01b145b92915050565b6040805160208101909152600081526105d7826115be565b6000610630606084013561062b6105f160c0870187612ef9565b8080601f01602080910402602001604051908101604052809392919081815260200183838082843760009201919091525061175892505050565b6117ea565b90506001600160a01b037f0000000000000000000000000000000000000000000000000000000000000000166340c10f1961067160608601604087016129a8565b6040516001600160e01b031960e084901b1681526001600160a01b03909116600482015260248101849052604401600060405180830381600087803b1580156106b957600080fd5b505af11580156106cd573d6000803e3d6000fd5b506106e29250505060608401604085016129a8565b6001600160a01b0316336001600160a01b03167f9d228d69b5fdb8d273a2336f8fb8612d039631024ea9bf09c424a9503aa078f08360405161072691815260200190565b60405180910390a3604080516020810190915290815292915050565b60006107838383604051610757929190612f3f565b60408051918290039091206001600160401b0387166000908152600760205291909120600501906119ae565b949350505050565b6107936119c9565b610800848480806020026020016040519081016040528093929190818152602001838360200280828437600092019190915250506040805160208088028281018201909352878252909350879250869182918501908490808284376000920191909152506119f692505050565b50505050565b61080e6119c9565b61081783610968565b61084457604051631e670e4b60e01b81526001600160401b03841660048201526024015b60405180910390fd5b6108848383838080601f016020809104026020016040519081016040528093929190818152602001838380828437600092019190915250611b5f92505050565b505050565b6000546001600160a01b031633146108b45760405163015aa1e360e11b815260040160405180910390fd5b600180546001600160a01b0319808216339081179093556000805490911681556040516001600160a01b03909216929183917f8be0079c531659141344cd1fd0a4f28419497f9722a3daafe3b4186f6b6457e091a350565b6109146119c9565b600980546001600160a01b0319166001600160a01b0383169081179091556040519081527f44676b5284b809a22248eba0da87391d79098be38bb03154be88a58bf4d091749060200160405180910390a150565b60006105b960056001600160401b0384166119ae565b6009546001600160a01b031633148015906109a457506001546001600160a01b03163314155b156109c45760405163472511eb60e11b815233600482015260240161083b565b84831415806109d35750848114155b156109f157604051632b477e7160e11b815260040160405180910390fd5b60005b85811015610a8357610a7b878783818110610a1157610a11612f4f565b9050602002016020810190610a269190612b54565b868684818110610a3857610a38612f4f565b905060600201803603810190610a4e9190612f65565b858585818110610a6057610a60612f4f565b905060600201803603810190610a769190612f65565b611c25565b6001016109f4565b50505050505050565b6040805180820190915260608082526020820152610aa982611cf3565b610ab68260600135611e34565b6040516060830135815233907f696de425f79f4a40bc6d2122ca50507f0efbeabbff86a84871b7196ab8ea8df79060200160405180910390a26040518060400160405280610b108460200160208101906104a89190612b54565b8152602001610b5d6040805160ff7f000000000000000000000000000000000000000000000000000000000000000016602082015260609101604051602081830303815290604052905090565b905292915050565b6001600160401b038116600090815260076020526040812060609190610b8d90600501611eaa565b9050600081516001600160401b03811115610baa57610baa612db1565b604051908082528060200260200182016040528015610bdd57816020015b6060815260200190600190039081610bc85790505b50905060005b8251811015610cc65760086000848381518110610c0257610c02612f4f565b602002602001015181526020019081526020016000208054610c2390612f81565b80601f0160208091040260200160405190810160405280929190818152602001828054610c4f90612f81565b8015610c9c5780601f10610c7157610100808354040283529160200191610c9c565b820191906000526020600020905b815481529060010190602001808311610c7f57829003601f168201915b5050505050828281518110610cb357610cb3612f4f565b6020908102919091010152600101610be3565b509392505050565b6060610cda6002611eaa565b905090565b610ce76119c9565b610cf083610968565b610d1857604051631e670e4b60e01b81526001600160401b038416600482015260240161083b565b610d578282604051610d2b929190612f3f565b60408051918290039091206001600160401b038616600090815260076020529190912060050190611eb7565b610d7a57828282604051631d3c8f1f60e21b815260040161083b93929190612fe4565b826001600160401b03167f52d00ee4d9bd51b40168f2afc5848837288ce258784ad914278791464b3f4d768383604051610db5929190613007565b60405180910390a2505050565b6040805160a0810182526000808252602082018190529181018290526060810182905260808101919091526001600160401b038216600090815260076020908152604091829020825160a08101845260028201546001600160801b038082168352600160801b80830463ffffffff1695840195909552600160a01b90910460ff1615159482019490945260039091015480841660608301529190910490911660808201526105b990611ec3565b6001600160401b0381166000908152600760205260409020600401805460609190610e9990612f81565b80601f0160208091040260200160405190810160405280929190818152602001828054610ec590612f81565b8015610f125780601f10610ee757610100808354040283529160200191610f12565b820191906000526020600020905b815481529060010190602001808311610ef557829003601f168201915b50505050509050919050565b610f266119c9565b6001600160a01b038116610f4d576040516342bcdf7f60e11b815260040160405180910390fd5b600480546001600160a01b038381166001600160a01b031983168117909355604080519190921680825260208201939093527f02dc5c233404867c793b749c6d644beb2277536d18a7e7974d3f238e4c6f1684910160405180910390a15050565b60606000610fbc6005611eaa565b9050600081516001600160401b03811115610fd957610fd9612db1565b604051908082528060200260200182016040528015611002578160200160208202803683370190505b50905060005b825181101561105d5782818151811061102357611023612f4f565b602002602001015182828151811061103d5761103d612f4f565b6001600160401b0390921660209283029190910190910152600101611008565b5092915050565b6040805160a0810182526000808252602082018190529181018290526060810182905260808101919091526001600160401b038216600090815260076020908152604091829020825160a08101845281546001600160801b038082168352600160801b80830463ffffffff1695840195909552600160a01b90910460ff1615159482019490945260019091015480841660608301529190910490911660808201526105b990611ec3565b6009546001600160a01b0316331480159061113457506001546001600160a01b03163314155b156111545760405163472511eb60e11b815233600482015260240161083b565b610884838383611c25565b6111676119c9565b60005b8381101561131c57600085858381811061118657611186612f4f565b905060200201602081019061119b9190612b54565b90506111b160056001600160401b038316611eb7565b6111d957604051631e670e4b60e01b81526001600160401b038216600482015260240161083b565b6001600160401b03811660009081526007602052604081206111fd90600501611eaa565b905060005b81518110156112675761125e82828151811061122057611220612f4f565b602002602001015160076000866001600160401b03166001600160401b03168152602001908152602001600020600501611eb790919063ffffffff16565b50600101611202565b506001600160401b038216600090815260076020526040812080546001600160a81b0319908116825560018201839055600282018054909116905560038101829055906112b760048301826128a3565b60058201600081816112c982826128dd565b50506040516001600160401b03871681527f5204aec90a3c794d8e90fded8b46ae9c7c552803e7e832e0c1d358396d8599169450602001925061130a915050565b60405180910390a1505060010161116a565b5060005b818110156115a357600083838381811061133c5761133c612f4f565b905060200281019061134e919061301b565b611357906130ab565b905061136881606001516000611f51565b61137781608001516000611f51565b80604001515160000361139d576040516342bcdf7f60e11b815260040160405180910390fd5b80516113b4906005906001600160401b0316612016565b6113df578051604051631d5ad3c560e01b81526001600160401b03909116600482015260240161083b565b80516001600160401b0316600090815260076020908152604091829020825160a08082018552606080870180518601516001600160801b0390811680865263ffffffff42168689018190528351511515878b0181905284518a0151841686890181905294518b0151841660809889018190528954600160a01b92830260ff60a01b19600160801b8087026001600160a01b031994851690981788178216929092178d5592810290971760018c01558c519889018d52898e0180518d01518716808b528a8e019590955280515115158a8f018190528151909d01518716988a01899052518d0151909516979098018790526002890180549a9091029990931617179094169590951790925590920290911760038201559082015160048201906115079082613221565b5060005b82602001515181101561154b5761154383600001518460200151838151811061153657611536612f4f565b6020026020010151611b5f565b60010161150b565b507f8d340f17e19058004c20453540862a9c62778504476f6756755cb33bcd6c38c28260000151836040015184606001518560800151604051611591949392919061330a565b60405180910390a15050600101611320565b5050505050565b6115b26119c9565b6115bb81612022565b50565b6115d161029860a08301608084016129a8565b61160a576115e560a08201608083016129a8565b60405163961c9a4f60e01b81526001600160a01b03909116600482015260240161083b565b6001600160a01b037f000000000000000000000000000000000000000000000000000000000000000016632cbc26bb6116496040840160208501612b54565b60405160e083901b6001600160e01b031916815260809190911b67ffffffffffffffff60801b166004820152602401602060405180830381865afa158015611695573d6000803e3d6000fd5b505050506040513d601f19601f820116820180604052508101906116b9919061334a565b156116d757604051630a75a23b60e31b815260040160405180910390fd5b6116ef6116ea6040830160208401612b54565b61209b565b61170f6117026040830160208401612b54565b61032b60a0840184612ef9565b61173b5761172060a0820182612ef9565b6040516324eb47e560e01b815260040161083b929190613007565b6115bb61174e6040830160208401612b54565b8260600135612167565b6000815160000361178a57507f0000000000000000000000000000000000000000000000000000000000000000919050565b81516020146117ae578160405163953576f760e01b815260040161083b9190612980565b6000828060200190518101906117c49190613367565b905060ff8111156105b9578260405163953576f760e01b815260040161083b9190612980565b60007f000000000000000000000000000000000000000000000000000000000000000060ff168260ff16036118205750816105b9565b7f000000000000000000000000000000000000000000000000000000000000000060ff168260ff1611156118f257600061187a7f000000000000000000000000000000000000000000000000000000000000000084613396565b9050604d8160ff1611156118d55760405163a9cb113d60e01b815260ff80851660048301527f00000000000000000000000000000000000000000000000000000000000000001660248201526044810185905260640161083b565b6118e081600a613493565b6118ea90856134a2565b9150506105b9565b600061191e837f0000000000000000000000000000000000000000000000000000000000000000613396565b9050604d8160ff161180611947575061193881600a613493565b611944906000196134a2565b84115b156119995760405163a9cb113d60e01b815260ff80851660048301527f00000000000000000000000000000000000000000000000000000000000000001660248201526044810185905260640161083b565b6119a481600a613493565b61078390856134c4565b600081815260018301602052604081205415155b9392505050565b6001546001600160a01b031633146119f4576040516315ae3a6f60e11b815260040160405180910390fd5b565b7f0000000000000000000000000000000000000000000000000000000000000000611a34576040516335f4a7b360e01b815260040160405180910390fd5b60005b8251811015611abd576000838281518110611a5457611a54612f4f565b60200260200101519050611a728160026121ad90919063ffffffff16565b15611ab4576040516001600160a01b03821681527f800671136ab6cfee9fbe5ed1fb7ca417811aca3cf864800d127b927adedf75669060200160405180910390a15b50600101611a37565b5060005b8151811015610884576000828281518110611ade57611ade612f4f565b6020026020010151905060006001600160a01b0316816001600160a01b031603611b085750611b57565b611b136002826121c2565b15611b55576040516001600160a01b03821681527f2640d4d76caf8bf478aabfa982fa4e1c4eb71a37f93cd15e80dbc657911546d89060200160405180910390a15b505b600101611ac1565b8051600003611b81576040516342bcdf7f60e11b815260040160405180910390fd5b80516020808301919091206001600160401b038416600090815260079092526040909120611bb29060050182612016565b611bd3578282604051631c9dc56960e11b815260040161083b9291906134db565b6000818152600860205260409020611beb8382613221565b50826001600160401b03167f7d628c9a1796743d365ab521a8b2a4686e419b3269919dc9145ea2ce853b54ea83604051610db59190612980565b611c2e83610968565b611c5657604051631e670e4b60e01b81526001600160401b038416600482015260240161083b565b611c61826000611f51565b6001600160401b0383166000908152600760205260409020611c8390836121d7565b611c8e816000611f51565b6001600160401b0383166000908152600760205260409020611cb390600201826121d7565b7f0350d63aa5f270e01729d00d627eeb8f3429772b1818c016c66a588a864f912b838383604051611ce6939291906134fd565b60405180910390a1505050565b611d0661029860a08301608084016129a8565b611d1a576115e560a08201608083016129a8565b6001600160a01b037f000000000000000000000000000000000000000000000000000000000000000016632cbc26bb611d596040840160208501612b54565b60405160e083901b6001600160e01b031916815260809190911b67ffffffffffffffff60801b166004820152602401602060405180830381865afa158015611da5573d6000803e3d6000fd5b505050506040513d601f19601f82011682018060405250810190611dc9919061334a565b15611de757604051630a75a23b60e31b815260040160405180910390fd5b611dff611dfa60608301604084016129a8565b6122ee565b611e17611e126040830160208401612b54565b612347565b6115bb611e2a6040830160208401612b54565b8260600135612421565b604051630852cd8d60e31b8152600481018290527f00000000000000000000000000000000000000000000000000000000000000006001600160a01b0316906342966c6890602401600060405180830381600087803b158015611e9657600080fd5b505af11580156115a3573d6000803e3d6000fd5b606060006119c283612464565b60006119c283836124bf565b6040805160a081018252600080825260208201819052918101829052606081018290526080810191909152611f3682606001516001600160801b031683600001516001600160801b0316846020015163ffffffff1642611f239190613527565b85608001516001600160801b03166125b2565b6001600160801b031682525063ffffffff4216602082015290565b815115611fcf5781602001516001600160801b031682604001516001600160801b0316101580611f8c575060408201516001600160801b0316155b15611fac5781604051632008344960e21b815260040161083b919061353a565b8015611fcb5760405163433fc33d60e01b815260040160405180910390fd5b5050565b60408201516001600160801b0316151580611ff6575060208201516001600160801b031615155b15611fcb57816040516335a2be7360e21b815260040161083b919061353a565b60006119c283836125da565b336001600160a01b0382160361204b57604051636d6c4ee560e11b815260040160405180910390fd5b600080546001600160a01b0319166001600160a01b03838116918217835560015460405192939116917fed8889f560326eb138920d842192f0eb3dd22b4f139c87a2c57538e05bae12789190a350565b6120a481610968565b6120cc576040516354c8163f60e11b81526001600160401b038216600482015260240161083b565b600480546040516383826b2b60e01b81526001600160401b038416928101929092523360248301526001600160a01b0316906383826b2b90604401602060405180830381865afa158015612124573d6000803e3d6000fd5b505050506040513d601f19601f82011682018060405250810190612148919061334a565b6115bb5760405163728fe07b60e01b815233600482015260240161083b565b6001600160401b0382166000908152600760205260409020611fcb90600201827f0000000000000000000000000000000000000000000000000000000000000000612629565b60006119c2836001600160a01b0384166124bf565b60006119c2836001600160a01b0384166125da565b81546000906121f390600160801b900463ffffffff1642613527565b905080156122515760018301548354612225916001600160801b03808216928116918591600160801b909104166125b2565b83546001600160801b03919091166001600160a01b031990911617600160801b4263ffffffff16021783555b6020820151835461226e916001600160801b03908116911661286b565b835483511515600160a01b0274ff00000000ffffffffffffffffffffffffffffffff199091166001600160801b039283161717845560208301516040808501518316600160801b0291909216176001850155517f9ea3374b67bf275e6bb9c8ae68f9cae023e1c528b4b27e092f0bb209d3531c1990611ce690849061353a565b7f0000000000000000000000000000000000000000000000000000000000000000156115bb5761231f600282612881565b6115bb576040516368692cbb60e11b81526001600160a01b038216600482015260240161083b565b61235081610968565b612378576040516354c8163f60e11b81526001600160401b038216600482015260240161083b565b6004805460405163a8d87a3b60e01b81526001600160401b038416928101929092526001600160a01b03169063a8d87a3b90602401602060405180830381865afa1580156123ca573d6000803e3d6000fd5b505050506040513d601f19601f820116820180604052508101906123ee9190613548565b6001600160a01b0316336001600160a01b0316146115bb5760405163728fe07b60e01b815233600482015260240161083b565b6001600160401b0382166000908152600760205260409020611fcb90827f0000000000000000000000000000000000000000000000000000000000000000612629565b606081600001805480602002602001604051908101604052809291908181526020018280548015610f1257602002820191906000526020600020905b8154815260200190600101908083116124a05750505050509050919050565b600081815260018301602052604081205480156125a85760006124e3600183613527565b85549091506000906124f790600190613527565b905080821461255c57600086600001828154811061251757612517612f4f565b906000526020600020015490508087600001848154811061253a5761253a612f4f565b6000918252602080832090910192909255918252600188019052604090208390555b855486908061256d5761256d613565565b6001900381819060005260206000200160009055905585600101600086815260200190815260200160002060009055600193505050506105b9565b60009150506105b9565b60006125d1856125c284866134c4565b6125cc908761357b565b61286b565b95945050505050565b6000818152600183016020526040812054612621575081546001818101845560008481526020808220909301849055845484825282860190935260409020919091556105b9565b5060006105b9565b8254600160a01b900460ff16158061263f575081155b1561264957505050565b825460018401546001600160801b038083169291169060009061267990600160801b900463ffffffff1642613527565b905080156126e557818311156126a257604051634b92ca1560e11b815260040160405180910390fd5b60018601546126c690839085908490600160801b90046001600160801b03166125b2565b865463ffffffff60801b1916600160801b4263ffffffff160217875592505b84821015612750576001600160a01b03841661271e5760405163f94ebcd160e01b8152600481018390526024810186905260440161083b565b604051630d3b2b9560e11b815260048101839052602481018690526001600160a01b038516604482015260640161083b565b8483101561280157600186810154600160801b90046001600160801b031690600090829061277e9082613527565b612788878a613527565b612792919061357b565b61279c91906134a2565b90506001600160a01b0386166127cf576040516302a4f38160e31b8152600481018290526024810186905260440161083b565b604051636864691d60e11b815260048101829052602481018690526001600160a01b038716604482015260640161083b565b61280b8584613527565b86546fffffffffffffffffffffffffffffffff19166001600160801b0382161787556040518681529093507f1871cdf8010e63f2eb8384381a68dfa7416dc571a5517e66e88b2d2d0c0a690a9060200160405180910390a1505050505050565b600081831061287a57816119c2565b5090919050565b6001600160a01b038116600090815260018301602052604081205415156119c2565b5080546128af90612f81565b6000825580601f106128bf575050565b601f0160209004906000526020600020908101906115bb91906128f7565b50805460008255906000526020600020908101906115bb91905b5b8082111561290c57600081556001016128f8565b5090565b60006020828403121561292257600080fd5b81356001600160e01b0319811681146119c257600080fd5b6000815180845260005b8181101561296057602081850181015186830182015201612944565b506000602082860101526020601f19601f83011685010191505092915050565b6020815260006119c2602083018461293a565b6001600160a01b03811681146115bb57600080fd5b6000602082840312156129ba57600080fd5b81356119c281612993565b6000602082840312156129d757600080fd5b81356001600160401b038111156129ed57600080fd5b820161010081850312156119c257600080fd5b80356001600160401b0381168114612a1757600080fd5b919050565b600080600060408486031215612a3157600080fd5b612a3a84612a00565b925060208401356001600160401b0380821115612a5657600080fd5b818601915086601f830112612a6a57600080fd5b813581811115612a7957600080fd5b876020828501011115612a8b57600080fd5b6020830194508093505050509250925092565b60008083601f840112612ab057600080fd5b5081356001600160401b03811115612ac757600080fd5b6020830191508360208260051b8501011115612ae257600080fd5b9250929050565b60008060008060408587031215612aff57600080fd5b84356001600160401b0380821115612b1657600080fd5b612b2288838901612a9e565b90965094506020870135915080821115612b3b57600080fd5b50612b4887828801612a9e565b95989497509550505050565b600060208284031215612b6657600080fd5b6119c282612a00565b60008083601f840112612b8157600080fd5b5081356001600160401b03811115612b9857600080fd5b602083019150836020606083028501011115612ae257600080fd5b60008060008060008060608789031215612bcc57600080fd5b86356001600160401b0380821115612be357600080fd5b612bef8a838b01612a9e565b90985096506020890135915080821115612c0857600080fd5b612c148a838b01612b6f565b90965094506040890135915080821115612c2d57600080fd5b50612c3a89828a01612b6f565b979a9699509497509295939492505050565b600060208284031215612c5e57600080fd5b81356001600160401b03811115612c7457600080fd5b820160a081850312156119c257600080fd5b602081526000825160406020840152612ca2606084018261293a565b90506020840151601f198483030160408501526125d1828261293a565b600060208083016020845280855180835260408601915060408160051b87010192506020870160005b82811015612d1657603f19888603018452612d0485835161293a565b94509285019290850190600101612ce8565b5092979650505050505050565b6020808252825182820181905260009190848201906040850190845b81811015612d645783516001600160a01b031683529284019291840191600101612d3f565b50909695505050505050565b6020808252825182820181905260009190848201906040850190845b81811015612d645783516001600160401b031683529284019291840191600101612d8c565b634e487b7160e01b600052604160045260246000fd5b60405160a081016001600160401b0381118282101715612de957612de9612db1565b60405290565b604051601f8201601f191681016001600160401b0381118282101715612e1757612e17612db1565b604052919050565b80151581146115bb57600080fd5b80356001600160801b0381168114612a1757600080fd5b600060608284031215612e5657600080fd5b604051606081018181106001600160401b0382111715612e7857612e78612db1565b6040529050808235612e8981612e1f565b8152612e9760208401612e2d565b6020820152612ea860408401612e2d565b60408201525092915050565b600080600060e08486031215612ec957600080fd5b612ed284612a00565b9250612ee18560208601612e44565b9150612ef08560808601612e44565b90509250925092565b6000808335601e19843603018112612f1057600080fd5b8301803591506001600160401b03821115612f2a57600080fd5b602001915036819003821315612ae257600080fd5b8183823760009101908152919050565b634e487b7160e01b600052603260045260246000fd5b600060608284031215612f7757600080fd5b6119c28383612e44565b600181811c90821680612f9557607f821691505b602082108103612fb557634e487b7160e01b600052602260045260246000fd5b50919050565b81835281816020850137506000828201602090810191909152601f909101601f19169091010190565b6001600160401b03841681526040602082015260006125d1604083018486612fbb565b602081526000610783602083018486612fbb565b6000823561011e1983360301811261303257600080fd5b9190910192915050565b600082601f83011261304d57600080fd5b81356001600160401b0381111561306657613066612db1565b613079601f8201601f1916602001612def565b81815284602083860101111561308e57600080fd5b816020850160208301376000918101602001919091529392505050565b600061012082360312156130be57600080fd5b6130c6612dc7565b6130cf83612a00565b81526020808401356001600160401b03808211156130ec57600080fd5b9085019036601f8301126130ff57600080fd5b81358181111561311157613111612db1565b8060051b613120858201612def565b918252838101850191858101903684111561313a57600080fd5b86860192505b83831015613176578235858111156131585760008081fd5b6131663689838a010161303c565b8352509186019190860190613140565b808789015250505050604086013592508083111561319357600080fd5b50506131a13682860161303c565b6040830152506131b43660608501612e44565b60608201526131c63660c08501612e44565b608082015292915050565b601f821115610884576000816000526020600020601f850160051c810160208610156131fa5750805b601f850160051c820191505b8181101561321957828155600101613206565b505050505050565b81516001600160401b0381111561323a5761323a612db1565b61324e816132488454612f81565b846131d1565b602080601f831160018114613283576000841561326b5750858301515b600019600386901b1c1916600185901b178555613219565b600085815260208120601f198616915b828110156132b257888601518255948401946001909101908401613293565b50858210156132d05787850151600019600388901b60f8161c191681555b5050505050600190811b01905550565b8051151582526020808201516001600160801b039081169184019190915260409182015116910152565b60006101006001600160401b038716835280602084015261332d8184018761293a565b91505061333d60408301856132e0565b6125d160a08301846132e0565b60006020828403121561335c57600080fd5b81516119c281612e1f565b60006020828403121561337957600080fd5b5051919050565b634e487b7160e01b600052601160045260246000fd5b60ff82811682821603908111156105b9576105b9613380565b600181815b808511156133ea5781600019048211156133d0576133d0613380565b808516156133dd57918102915b93841c93908002906133b4565b509250929050565b600082613401575060016105b9565b8161340e575060006105b9565b8160018114613424576002811461342e5761344a565b60019150506105b9565b60ff84111561343f5761343f613380565b50506001821b6105b9565b5060208310610133831016604e8410600b841016171561346d575081810a6105b9565b61347783836133af565b806000190482111561348b5761348b613380565b029392505050565b60006119c260ff8416836133f2565b6000826134bf57634e487b7160e01b600052601260045260246000fd5b500490565b80820281158282048414176105b9576105b9613380565b6001600160401b0383168152604060208201526000610783604083018461293a565b6001600160401b038416815260e0810161351a60208301856132e0565b61078360808301846132e0565b818103818111156105b9576105b9613380565b606081016105b982846132e0565b60006020828403121561355a57600080fd5b81516119c281612993565b634e487b7160e01b600052603160045260246000fd5b808201808211156105b9576105b961338056fea2646970667358221220d78ff95b8ff7c2f8ee3267c68cb3ea4058181820a6aa44dfa090e5ff6c6de89864736f6c63430008180033608060405234801561001057600080fd5b506101b7806100206000396000f3fe608060405234801561001057600080fd5b50600436106100365760003560e01c806363898e2b1461003b578063ee1fe2ad1461005c575b600080fd5b6000546100489060ff1681565b604051901515815260200160405180910390f35b61006f61006a366004610148565b610071565b005b60005460ff16156100b65760405162461bcd60e51b81526004016100ad90602080825260049082015263155cd95960e21b604082015260600190565b60405180910390fd5b6040516340c10f1960e01b81526001600160a01b038281166004830152670de0b6b3a764000060248301528316906340c10f1990604401600060405180830381600087803b15801561010757600080fd5b505af115801561011b573d6000803e3d6000fd5b50506000805460ff1916600117905550505050565b6001600160a01b038116811461014557600080fd5b50565b6000806040838503121561015b57600080fd5b823561016681610130565b9150602083013561017681610130565b80915050925092905056fea2646970667358221220dc907a75169a1c820ce8fae3cc795f6a54b8ba1177de51889b03e28cfc7c3ebd64736f6c63430008180033",
  "devdoc": {
    "kind": "dev",
    "methods": {},
    "version": 1
  },
  "userdoc": {
    "kind": "user",
    "methods": {},
    "version": 1
  },
  "storageLayout": {
    "storage": [
      {
        "astId": 6499,
        "contract": "contracts/deploy/L2Deployer.sol:L2Deployer",
        "label": "bridgedFrankencoin",
        "offset": 0,
        "slot": "0",
        "type": "t_contract(BridgedFrankencoin)15597"
      },
      {
        "astId": 6502,
        "contract": "contracts/deploy/L2Deployer.sol:L2Deployer",
        "label": "ccipAdmin",
        "offset": 0,
        "slot": "1",
        "type": "t_contract(CCIPAdmin)6052"
      },
      {
        "astId": 6505,
        "contract": "contracts/deploy/L2Deployer.sol:L2Deployer",
        "label": "tokenPool",
        "offset": 0,
        "slot": "2",
        "type": "t_contract(BurnMintTokenPool)1005"
      },
      {
        "astId": 6508,
        "contract": "contracts/deploy/L2Deployer.sol:L2Deployer",
        "label": "testMinter",
        "offset": 0,
        "slot": "3",
        "type": "t_contract(L2TestMinter)6742"
      }
    ],
    "types": {
      "t_contract(BridgedFrankencoin)15597": {
        "encoding": "inplace",
        "label": "contract BridgedFrankencoin",
        "numberOfBytes": "20"
      },
      "t_contract(BurnMintTokenPool)1005": {
        "encoding": "inplace",
        "label": "contract BurnMintTokenPool",
        "numberOfBytes": "20"
      },
      "t_contract(CCIPAdmin)6052": {
        "encoding": "inplace",
        "label": "contract CCIPAdmin",
        "numberOfBytes": "20"
      },
      "t_contract(L2TestMinter)6742": {
        "encoding": "inplace",
        "label": "contract L2TestMinter",
        "numberOfBytes": "20"
      }
    }
  }
}