{
  "address": "0x8BBcbe81FFCa30DE315d4CF6fdF839F7A01Aa4E3",
  "abi": [
    {
      "inputs": [
        {
          "internalType": "contract IGovernance",
          "name": "reserve_",
          "type": "address"
        },
        {
          "internalType": "address",
          "name": "router_",
          "type": "address"
        },
        {
          "internalType": "uint256",
          "name": "_minApplicationPeriod",
          "type": "uint256"
        },
        {
          "internalType": "address",
          "name": "_linkToken",
          "type": "address"
        },
        {
          "internalType": "uint64",
          "name": "_mainnetChainSelector",
          "type": "uint64"
        },
        {
          "internalType": "address",
          "name": "_bridgeAccounting",
          "type": "address"
        },
        {
          "internalType": "address",
          "name": "_ccipAdmin",
          "type": "address"
        }
      ],
      "stateMutability": "nonpayable",
      "type": "constructor"
    },
    {
      "inputs": [],
      "name": "AlreadyInitialized",
      "type": "error"
    },
    {
      "inputs": [],
      "name": "AlreadyRegistered",
      "type": "error"
    },
    {
      "inputs": [
        {
          "internalType": "address",
          "name": "spender",
          "type": "address"
        },
        {
          "internalType": "uint256",
          "name": "allowance",
          "type": "uint256"
        },
        {
          "internalType": "uint256",
          "name": "needed",
          "type": "uint256"
        }
      ],
      "name": "ERC20InsufficientAllowance",
      "type": "error"
    },
    {
      "inputs": [
        {
          "internalType": "address",
          "name": "sender",
          "type": "address"
        },
        {
          "internalType": "uint256",
          "name": "balance",
          "type": "uint256"
        },
        {
          "internalType": "uint256",
          "name": "needed",
          "type": "uint256"
        }
      ],
      "name": "ERC20InsufficientBalance",
      "type": "error"
    },
    {
      "inputs": [],
      "name": "FeeTooLow",
      "type": "error"
    },
    {
      "inputs": [
        {
          "internalType": "address",
          "name": "token",
          "type": "address"
        },
        {
          "internalType": "uint256",
          "name": "fee",
          "type": "uint256"
        }
      ],
      "name": "InsufficientFeeTokenAllowance",
      "type": "error"
    },
    {
      "inputs": [
        {
          "internalType": "address",
          "name": "token",
          "type": "address"
        },
        {
          "internalType": "uint256",
          "name": "fee",
          "type": "uint256"
        }
      ],
      "name": "InsufficientFeeTokens",
      "type": "error"
    },
    {
      "inputs": [],
      "name": "NotMinter",
      "type": "error"
    },
    {
      "inputs": [],
      "name": "PeriodTooShort",
      "type": "error"
    },
    {
      "inputs": [],
      "name": "TooLate",
      "type": "error"
    },
    {
      "anonymous": false,
      "inputs": [
        {
          "indexed": false,
          "internalType": "uint256",
          "name": "profit",
          "type": "uint256"
        },
        {
          "indexed": false,
          "internalType": "uint256",
          "name": "losses",
          "type": "uint256"
        }
      ],
      "name": "AccountingSynchronized",
      "type": "event"
    },
    {
      "anonymous": false,
      "inputs": [
        {
          "indexed": true,
          "internalType": "address",
          "name": "owner",
          "type": "address"
        },
        {
          "indexed": true,
          "internalType": "address",
          "name": "spender",
          "type": "address"
        },
        {
          "indexed": false,
          "internalType": "uint256",
          "name": "value",
          "type": "uint256"
        }
      ],
      "name": "Approval",
      "type": "event"
    },
    {
      "anonymous": false,
      "inputs": [
        {
          "indexed": true,
          "internalType": "address",
          "name": "reportingMinter",
          "type": "address"
        },
        {
          "indexed": false,
          "internalType": "uint256",
          "name": "amount",
          "type": "uint256"
        }
      ],
      "name": "Loss",
      "type": "event"
    },
    {
      "anonymous": false,
      "inputs": [
        {
          "indexed": true,
          "internalType": "address",
          "name": "minter",
          "type": "address"
        },
        {
          "indexed": false,
          "internalType": "uint256",
          "name": "applicationPeriod",
          "type": "uint256"
        },
        {
          "indexed": false,
          "internalType": "uint256",
          "name": "applicationFee",
          "type": "uint256"
        },
        {
          "indexed": false,
          "internalType": "string",
          "name": "message",
          "type": "string"
        }
      ],
      "name": "MinterApplied",
      "type": "event"
    },
    {
      "anonymous": false,
      "inputs": [
        {
          "indexed": true,
          "internalType": "address",
          "name": "minter",
          "type": "address"
        },
        {
          "indexed": false,
          "internalType": "string",
          "name": "message",
          "type": "string"
        }
      ],
      "name": "MinterDenied",
      "type": "event"
    },
    {
      "anonymous": false,
      "inputs": [
        {
          "indexed": true,
          "internalType": "address",
          "name": "reportingMinter",
          "type": "address"
        },
        {
          "indexed": false,
          "internalType": "uint256",
          "name": "amount",
          "type": "uint256"
        }
      ],
      "name": "Profit",
      "type": "event"
    },
    {
      "anonymous": false,
      "inputs": [
        {
          "indexed": true,
          "internalType": "address",
          "name": "from",
          "type": "address"
        },
        {
          "indexed": false,
          "internalType": "uint64",
          "name": "toChain",
          "type": "uint64"
        },
        {
          "indexed": true,
          "internalType": "bytes",
          "name": "to",
          "type": "bytes"
        },
        {
          "indexed": false,
          "internalType": "uint256",
          "name": "value",
          "type": "uint256"
        }
      ],
      "name": "Transfer",
      "type": "event"
    },
    {
      "anonymous": false,
      "inputs": [
        {
          "indexed": true,
          "internalType": "address",
          "name": "from",
          "type": "address"
        },
        {
          "indexed": true,
          "internalType": "address",
          "name": "to",
          "type": "address"
        },
        {
          "indexed": false,
          "internalType": "uint256",
          "name": "value",
          "type": "uint256"
        }
      ],
      "name": "Transfer",
      "type": "event"
    },
    {
      "inputs": [],
      "name": "BRIDGE_ACCOUNTING",
      "outputs": [
        {
          "internalType": "address",
          "name": "",
          "type": "address"
        }
      ],
      "stateMutability": "view",
      "type": "function"
    },
    {
      "inputs": [],
      "name": "CCIP_ADMIN",
      "outputs": [
        {
          "internalType": "address",
          "name": "",
          "type": "address"
        }
      ],
      "stateMutability": "view",
      "type": "function"
    },
    {
      "inputs": [],
      "name": "DOMAIN_SEPARATOR",
      "outputs": [
        {
          "internalType": "bytes32",
          "name": "",
          "type": "bytes32"
        }
      ],
      "stateMutability": "view",
      "type": "function"
    },
    {
      "inputs": [],
      "name": "LINK",
      "outputs": [
        {
          "internalType": "address",
          "name": "",
          "type": "address"
        }
      ],
      "stateMutability": "view",
      "type": "function"
    },
    {
      "inputs": [],
      "name": "MAINNET_CHAIN_SELECTOR",
      "outputs": [
        {
          "internalType": "uint64",
          "name": "",
          "type": "uint64"
        }
      ],
      "stateMutability": "view",
      "type": "function"
    },
    {
      "inputs": [],
      "name": "MIN_APPLICATION_PERIOD",
      "outputs": [
        {
          "internalType": "uint256",
          "name": "",
          "type": "uint256"
        }
      ],
      "stateMutability": "view",
      "type": "function"
    },
    {
      "inputs": [],
      "name": "MIN_FEE",
      "outputs": [
        {
          "internalType": "uint256",
          "name": "",
          "type": "uint256"
        }
      ],
      "stateMutability": "view",
      "type": "function"
    },
    {
      "inputs": [],
      "name": "ROUTER",
      "outputs": [
        {
          "internalType": "contract IRouterClient",
          "name": "",
          "type": "address"
        }
      ],
      "stateMutability": "view",
      "type": "function"
    },
    {
      "inputs": [],
      "name": "accruedLoss",
      "outputs": [
        {
          "internalType": "uint256",
          "name": "",
          "type": "uint256"
        }
      ],
      "stateMutability": "view",
      "type": "function"
    },
    {
      "inputs": [
        {
          "internalType": "address",
          "name": "owner",
          "type": "address"
        },
        {
          "internalType": "address",
          "name": "spender",
          "type": "address"
        }
      ],
      "name": "allowance",
      "outputs": [
        {
          "internalType": "uint256",
          "name": "",
          "type": "uint256"
        }
      ],
      "stateMutability": "view",
      "type": "function"
    },
    {
      "inputs": [
        {
          "internalType": "address",
          "name": "spender",
          "type": "address"
        },
        {
          "internalType": "uint256",
          "name": "value",
          "type": "uint256"
        }
      ],
      "name": "approve",
      "outputs": [
        {
          "internalType": "bool",
          "name": "",
          "type": "bool"
        }
      ],
      "stateMutability": "nonpayable",
      "type": "function"
    },
    {
      "inputs": [
        {
          "internalType": "address",
          "name": "account",
          "type": "address"
        }
      ],
      "name": "balanceOf",
      "outputs": [
        {
          "internalType": "uint256",
          "name": "",
          "type": "uint256"
        }
      ],
      "stateMutability": "view",
      "type": "function"
    },
    {
      "inputs": [
        {
          "internalType": "uint256",
          "name": "_amount",
          "type": "uint256"
        }
      ],
      "name": "burn",
      "outputs": [],
      "stateMutability": "nonpayable",
      "type": "function"
    },
    {
      "inputs": [
        {
          "internalType": "address",
          "name": "_owner",
          "type": "address"
        },
        {
          "internalType": "uint256",
          "name": "_amount",
          "type": "uint256"
        }
      ],
      "name": "burnFrom",
      "outputs": [],
      "stateMutability": "nonpayable",
      "type": "function"
    },
    {
      "inputs": [
        {
          "internalType": "address",
          "name": "_minterOrPosition",
          "type": "address"
        }
      ],
      "name": "canMint",
      "outputs": [
        {
          "internalType": "bool",
          "name": "",
          "type": "bool"
        }
      ],
      "stateMutability": "view",
      "type": "function"
    },
    {
      "inputs": [
        {
          "internalType": "address",
          "name": "source",
          "type": "address"
        },
        {
          "internalType": "uint256",
          "name": "_amount",
          "type": "uint256"
        }
      ],
      "name": "collectProfits",
      "outputs": [],
      "stateMutability": "nonpayable",
      "type": "function"
    },
    {
      "inputs": [
        {
          "internalType": "address",
          "name": "source",
          "type": "address"
        },
        {
          "internalType": "uint256",
          "name": "_amount",
          "type": "uint256"
        }
      ],
      "name": "coverLoss",
      "outputs": [],
      "stateMutability": "nonpayable",
      "type": "function"
    },
    {
      "inputs": [],
      "name": "decimals",
      "outputs": [
        {
          "internalType": "uint8",
          "name": "",
          "type": "uint8"
        }
      ],
      "stateMutability": "view",
      "type": "function"
    },
    {
      "inputs": [
        {
          "internalType": "address",
          "name": "_minter",
          "type": "address"
        },
        {
          "internalType": "address[]",
          "name": "_helpers",
          "type": "address[]"
        },
        {
          "internalType": "string",
          "name": "_message",
          "type": "string"
        }
      ],
      "name": "denyMinter",
      "outputs": [],
      "stateMutability": "nonpayable",
      "type": "function"
    },
    {
      "inputs": [],
      "name": "getCCIPAdmin",
      "outputs": [
        {
          "internalType": "address",
          "name": "",
          "type": "address"
        }
      ],
      "stateMutability": "view",
      "type": "function"
    },
    {
      "inputs": [
        {
          "internalType": "address",
          "name": "_position",
          "type": "address"
        }
      ],
      "name": "getPositionParent",
      "outputs": [
        {
          "internalType": "address",
          "name": "",
          "type": "address"
        }
      ],
      "stateMutability": "view",
      "type": "function"
    },
    {
      "inputs": [
        {
          "internalType": "address",
          "name": "_minter",
          "type": "address"
        },
        {
          "internalType": "string",
          "name": "_message",
          "type": "string"
        }
      ],
      "name": "initialize",
      "outputs": [],
      "stateMutability": "nonpayable",
      "type": "function"
    },
    {
      "inputs": [],
      "name": "initialized",
      "outputs": [
        {
          "internalType": "bool",
          "name": "",
          "type": "bool"
        }
      ],
      "stateMutability": "view",
      "type": "function"
    },
    {
      "inputs": [
        {
          "internalType": "address",
          "name": "_minter",
          "type": "address"
        }
      ],
      "name": "isMinter",
      "outputs": [
        {
          "internalType": "bool",
          "name": "",
          "type": "bool"
        }
      ],
      "stateMutability": "view",
      "type": "function"
    },
    {
      "inputs": [
        {
          "internalType": "address",
          "name": "_target",
          "type": "address"
        },
        {
          "internalType": "uint256",
          "name": "_amount",
          "type": "uint256"
        }
      ],
      "name": "mint",
      "outputs": [],
      "stateMutability": "nonpayable",
      "type": "function"
    },
    {
      "inputs": [
        {
          "internalType": "address",
          "name": "minter",
          "type": "address"
        }
      ],
      "name": "minters",
      "outputs": [
        {
          "internalType": "uint256",
          "name": "validityStart",
          "type": "uint256"
        }
      ],
      "stateMutability": "view",
      "type": "function"
    },
    {
      "inputs": [],
      "name": "name",
      "outputs": [
        {
          "internalType": "string",
          "name": "",
          "type": "string"
        }
      ],
      "stateMutability": "pure",
      "type": "function"
    },
    {
      "inputs": [
        {
          "internalType": "address",
          "name": "account",
          "type": "address"
        }
      ],
      "name": "nonces",
      "outputs": [
        {
          "internalType": "uint256",
          "name": "nonce",
          "type": "uint256"
        }
      ],
      "stateMutability": "view",
      "type": "function"
    },
    {
      "inputs": [
        {
          "internalType": "address",
          "name": "owner",
          "type": "address"
        },
        {
          "internalType": "address",
          "name": "spender",
          "type": "address"
        },
        {
          "internalType": "uint256",
          "name": "value",
          "type": "uint256"
        },
        {
          "internalType": "uint256",
          "name": "deadline",
          "type": "uint256"
        },
        {
          "internalType": "uint8",
          "name": "v",
          "type": "uint8"
        },
        {
          "internalType": "bytes32",
          "name": "r",
          "type": "bytes32"
        },
        {
          "internalType": "bytes32",
          "name": "s",
          "type": "bytes32"
        }
      ],
      "name": "permit",
      "outputs": [],
      "stateMutability": "nonpayable",
      "type": "function"
    },
    {
      "inputs": [
        {
          "internalType": "address",
          "name": "position",
          "type": "address"
        }
      ],
      "name": "positions",
      "outputs": [
        {
          "internalType": "address",
          "name": "registeringMinter",
          "type": "address"
        }
      ],
      "stateMutability": "view",
      "type": "function"
    },
    {
      "inputs": [
        {
          "internalType": "address",
          "name": "_position",
          "type": "address"
        }
      ],
      "name": "registerPosition",
      "outputs": [],
      "stateMutability": "nonpayable",
      "type": "function"
    },
    {
      "inputs": [],
      "name": "reserve",
      "outputs": [
        {
          "internalType": "contract IGovernance",
          "name": "",
          "type": "address"
        }
      ],
      "stateMutability": "view",
      "type": "function"
    },
    {
      "inputs": [
        {
          "internalType": "address",
          "name": "_minter",
          "type": "address"
        },
        {
          "internalType": "uint256",
          "name": "_applicationPeriod",
          "type": "uint256"
        },
        {
          "internalType": "uint256",
          "name": "_applicationFee",
          "type": "uint256"
        },
        {
          "internalType": "string",
          "name": "_message",
          "type": "string"
        }
      ],
      "name": "suggestMinter",
      "outputs": [],
      "stateMutability": "nonpayable",
      "type": "function"
    },
    {
      "inputs": [],
      "name": "symbol",
      "outputs": [
        {
          "internalType": "string",
          "name": "",
          "type": "string"
        }
      ],
      "stateMutability": "pure",
      "type": "function"
    },
    {
      "inputs": [
        {
          "components": [
            {
              "internalType": "uint256",
              "name": "gasLimit",
              "type": "uint256"
            },
            {
              "internalType": "bool",
              "name": "allowOutOfOrderExecution",
              "type": "bool"
            }
          ],
          "internalType": "struct Client.EVMExtraArgsV2",
          "name": "extraArgs",
          "type": "tuple"
        }
      ],
      "name": "synchronizeAccounting",
      "outputs": [],
      "stateMutability": "payable",
      "type": "function"
    },
    {
      "inputs": [
        {
          "internalType": "bytes",
          "name": "extraArgs",
          "type": "bytes"
        }
      ],
      "name": "synchronizeAccounting",
      "outputs": [],
      "stateMutability": "payable",
      "type": "function"
    },
    {
      "inputs": [],
      "name": "synchronizeAccounting",
      "outputs": [],
      "stateMutability": "payable",
      "type": "function"
    },
    {
      "inputs": [],
      "name": "totalSupply",
      "outputs": [
        {
          "internalType": "uint256",
          "name": "",
          "type": "uint256"
        }
      ],
      "stateMutability": "view",
      "type": "function"
    },
    {
      "inputs": [
        {
          "internalType": "uint64",
          "name": "targetChain",
          "type": "uint64"
        },
        {
          "internalType": "address",
          "name": "target",
          "type": "address"
        },
        {
          "internalType": "uint256",
          "name": "amount",
          "type": "uint256"
        },
        {
          "components": [
            {
              "internalType": "uint256",
              "name": "gasLimit",
              "type": "uint256"
            },
            {
              "internalType": "bool",
              "name": "allowOutOfOrderExecution",
              "type": "bool"
            }
          ],
          "internalType": "struct Client.EVMExtraArgsV2",
          "name": "extraArgs",
          "type": "tuple"
        }
      ],
      "name": "transfer",
      "outputs": [],
      "stateMutability": "payable",
      "type": "function"
    },
    {
      "inputs": [
        {
          "internalType": "uint64",
          "name": "targetChain",
          "type": "uint64"
        },
        {
          "internalType": "bytes",
          "name": "target",
          "type": "bytes"
        },
        {
          "internalType": "uint256",
          "name": "amount",
          "type": "uint256"
        },
        {
          "internalType": "bytes",
          "name": "extraArgs",
          "type": "bytes"
        }
      ],
      "name": "transfer",
      "outputs": [],
      "stateMutability": "payable",
      "type": "function"
    },
    {
      "inputs": [
        {
          "internalType": "address",
          "name": "recipient",
          "type": "address"
        },
        {
          "internalType": "uint256",
          "name": "amount",
          "type": "uint256"
        }
      ],
      "name": "transfer",
      "outputs": [
        {
          "internalType": "bool",
          "name": "",
          "type": "bool"
        }
      ],
      "stateMutability": "nonpayable",
      "type": "function"
    },
    {
      "inputs": [
        {
          "internalType": "uint64",
          "name": "targetChain",
          "type": "uint64"
        },
        {
          "internalType": "address",
          "name": "target",
          "type": "address"
        },
        {
          "internalType": "uint256",
          "name": "amount",
          "type": "uint256"
        }
      ],
      "name": "transfer",
      "outputs": [],
      "stateMutability": "payable",
      "type": "function"
    },
    {
      "inputs": [
        {
          "internalType": "address",
          "name": "sender",
          "type": "address"
        },
        {
          "internalType": "address",
          "name": "recipient",
          "type": "address"
        },
        {
          "internalType": "uint256",
          "name": "amount",
          "type": "uint256"
        }
      ],
      "name": "transferFrom",
      "outputs": [
        {
          "internalType": "bool",
          "name": "",
          "type": "bool"
        }
      ],
      "stateMutability": "nonpayable",
      "type": "function"
    }
  ],
  "transactionHash": "0xce2de481c842ec65ca4c1e66a7ada30cbc00bf8a41d710b7a41c1091c565b1db",
  "args": [
    "0xF4B56a8dD79b37658d36B0313CeA7BC43BA8157C",
    "0x9C32fCB86BF0f4a1A8921a9Fe46de3198bb884B2",
    900,
    "0x0Fd9e8d3aF1aaee056EB9e802c3A762a667b1904",
    "16015286601757825753",
    "0x3bF23a52590C2DF855bDbA748489C5fbBA54da12",
    "0x357f74a97019D601D5702665172F6D4B89A4536b"
  ],
  "numDeployments": 1,
  "solcInputHash": "ed86ae721a228ef74abfb7493ee1dd16",
  "bytecode": "0x6101806040523480156200001257600080fd5b5060405162002b5d38038062002b5d833981016040819052620000359162000094565b60126080526001600160a01b0395861660a05292851660c05260e093909352938316610160526001600160401b039093166101205281166101005216610140526200013e565b6001600160a01b03811681146200009157600080fd5b50565b600080600080600080600060e0888a031215620000b057600080fd5b8751620000bd816200007b565b6020890151909750620000d0816200007b565b604089015160608a01519197509550620000ea816200007b565b60808901519094506001600160401b03811681146200010857600080fd5b60a08901519093506200011b816200007b565b60c08901519092506200012e816200007b565b8091505092959891949750929550565b60805160a05160c05160e0516101005161012051610140516101605161292662000237600039600081816107dd01528181610c2301528181610dbc01528181610e060152818161113a0152818161119f015281816111d201528181611de701528181611e3301528181611e6a0152611f8901526000818161030d015261060d01526000818161075d0152610f320152600081816106430152610edd01526000818161039d0152610fdd0152600081816103d1015261207701526000818161046b01528181610a6801528181610e3201528181611aad01528181611b4201528181611d070152611ff30152600061042501526129266000f3fe60806040526004361061025c5760003560e01c806379cc679011610144578063c2ba4744116100b6578063d1a15ff11161007a578063d1a15ff11461081a578063d1fa5e981461083a578063d505accf1461085a578063dd62ed3e1461087a578063f399e22e1461089a578063f46eccc4146108ba57600080fd5b8063c2ba474414610798578063c6fede7d146107b8578063cd3293de146107cb578063d15dcd62146107ff578063d1975e6a1461081257600080fd5b80639b404da6116101085780639b404da614610692578063a9059cbb146106b2578063aa271e1a146106d2578063aa5dd7f1146106f2578063b52c696d1461072b578063c038e2981461074b57600080fd5b806379cc6790146105b15780637ecebe00146105d15780638fd6a6ac146105fe57806394b936901461063157806395d89b411461066557600080fd5b8063313ce567116101dd57806352d48abe116101a157806352d48abe146104e257806355f57510146104f55780636b2242e11461052b5780636ebdb8ee1461053e57806370a082311461055e57806376c7a3c71461059457600080fd5b8063313ce5671461041357806332fe7b26146104595780633644e5151461048d57806340c10f19146104a257806342966c68146104c257600080fd5b806318160ddd1161022457806318160ddd1461036157806319e3c428146103765780631a46c7e91461038b5780631b6b6d23146103bf57806323b872dd146103f357600080fd5b806306fdde0314610261578063095ea7b3146102a75780630e57bc7d146102d757806311838010146102fb578063158ef93e14610347575b600080fd5b34801561026d57600080fd5b5060408051808201909152600b81526a233930b735b2b731b7b4b760a91b60208201525b60405161029e9190612127565b60405180910390f35b3480156102b357600080fd5b506102c76102c2366004612156565b6108e7565b604051901515815260200161029e565b3480156102e357600080fd5b506102ed60065481565b60405190815260200161029e565b34801561030757600080fd5b5061032f7f000000000000000000000000000000000000000000000000000000000000000081565b6040516001600160a01b03909116815260200161029e565b34801561035357600080fd5b506007546102c79060ff1681565b34801561036d57600080fd5b506002546102ed565b6103896103843660046121b0565b6108fe565b005b34801561039757600080fd5b506102ed7f000000000000000000000000000000000000000000000000000000000000000081565b3480156103cb57600080fd5b5061032f7f000000000000000000000000000000000000000000000000000000000000000081565b3480156103ff57600080fd5b506102c761040e3660046121fe565b61096e565b34801561041f57600080fd5b506104477f000000000000000000000000000000000000000000000000000000000000000081565b60405160ff909116815260200161029e565b34801561046557600080fd5b5061032f7f000000000000000000000000000000000000000000000000000000000000000081565b34801561049957600080fd5b506102ed610990565b3480156104ae57600080fd5b506103896104bd366004612156565b6109e9565b3480156104ce57600080fd5b506103896104dd36600461223a565b610a4a565b6103896104f03660046122f6565b610a57565b34801561050157600080fd5b5061032f610510366004612374565b6005602052600090815260409020546001600160a01b031681565b61038961053936600461238f565b610b03565b34801561054a57600080fd5b50610389610559366004612156565b610b18565b34801561056a57600080fd5b506102ed610579366004612374565b6001600160a01b031660009081526020819052604090205490565b3480156105a057600080fd5b506102ed683635c9adc5dea0000081565b3480156105bd57600080fd5b506103896105cc366004612156565b610b76565b3480156105dd57600080fd5b506102ed6105ec366004612374565b60036020526000908152604090205481565b34801561060a57600080fd5b507f000000000000000000000000000000000000000000000000000000000000000061032f565b34801561063d57600080fd5b5061032f7f000000000000000000000000000000000000000000000000000000000000000081565b34801561067157600080fd5b506040805180820190915260048152632d21a42360e11b6020820152610291565b34801561069e57600080fd5b506103896106ad3660046123ed565b610bd3565b3480156106be57600080fd5b506102c76106cd366004612156565b610ce8565b3480156106de57600080fd5b506102c76106ed366004612374565b610cf5565b3480156106fe57600080fd5b5061032f61070d366004612374565b6001600160a01b039081166000908152600560205260409020541690565b34801561073757600080fd5b50610389610746366004612374565b610d36565b34801561075757600080fd5b5061077f7f000000000000000000000000000000000000000000000000000000000000000081565b60405167ffffffffffffffff909116815260200161029e565b3480156107a457600080fd5b506102c76107b3366004612374565b610d85565b6103896107c636600461249f565b610dba565b3480156107d757600080fd5b5061032f7f000000000000000000000000000000000000000000000000000000000000000081565b61038961080d3660046124dc565b610f99565b610389610fc1565b34801561082657600080fd5b506103896108353660046124fa565b610fdb565b34801561084657600080fd5b50610389610855366004612156565b6110e5565b34801561086657600080fd5b50610389610875366004612551565b611240565b34801561088657600080fd5b506102ed6108953660046125c4565b611435565b3480156108a657600080fd5b506103896108b53660046125f7565b611448565b3480156108c657600080fd5b506102ed6108d5366004612374565b60046020526000908152604090205481565b60006108f43384846114c6565b5060015b92915050565b6109688461090b85611528565b846104f061091e36879003870187612658565b6040805182516024820152602092830151151560448083019190915282518083039091018152606490910190915290810180516001600160e01b0316630181dcf160e41b17905290565b50505050565b600061097b848484611555565b61098684338461166c565b5060019392505050565b604080517f47e79534a245952e8b16893a336b85a3d9ea9fa8c573f3d803afb92a794692186020820152469181019190915230606082015260009060800160405160208183030381529060405280519060200120905090565b6109f233610cf5565b158015610a1e575033600090815260056020526040902054610a1c906001600160a01b0316610cf5565b155b15610a3c57604051633e34a41b60e21b815260040160405180910390fd5b610a4682826116d4565b5050565b610a543382611771565b50565b610a62333084611555565b610a8d307f0000000000000000000000000000000000000000000000000000000000000000846114c6565b610aa184610a9c8585856117f3565b61189b565b505082604051610ab191906126ae565b6040805191829003822067ffffffffffffffff87168352602083018590529133917f7895812be6b9a01617f760055105f506b5e2f6dff79ff3170e4fdb3391fc0023910160405180910390a350505050565b610a546107c661091e36849003840184612658565b610b2133610cf5565b158015610b4d575033600090815260056020526040902054610b4b906001600160a01b0316610cf5565b155b15610b6b57604051633e34a41b60e21b815260040160405180910390fd5b610a46338383611de1565b610b7f33610cf5565b158015610bab575033600090815260056020526040902054610ba9906001600160a01b0316610cf5565b155b15610bc957604051633e34a41b60e21b815260040160405180910390fd5b610a468282611771565b6001600160a01b038516600090815260046020526040902054421115610c0c5760405163ecdd1c2960e01b815260040160405180910390fd5b60405163352e3a8360e01b81526001600160a01b037f0000000000000000000000000000000000000000000000000000000000000000169063352e3a8390610c5c903390889088906004016126ca565b60006040518083038186803b158015610c7457600080fd5b505afa158015610c88573d6000803e3d6000fd5b505050506001600160a01b03851660008181526004602052604080822091909155517fd60c86e83346fdbe3124cb7d1cba32973a9f62d05c4ec801bfe6c09d1038038190610cd9908590859061274d565b60405180910390a25050505050565b60006108f4338484611555565b6001600160a01b038116600090815260046020526040812054158015906108f85750506001600160a01b031660009081526004602052604090205442101590565b610d3f33610cf5565b610d5c57604051633e34a41b60e21b815260040160405180910390fd5b6001600160a01b0316600090815260056020526040902080546001600160a01b03191633179055565b6000610d9082610cf5565b806108f857506001600160a01b038083166000908152600560205260409020546108f89116610cf5565b7f00000000000000000000000000000000000000000000000000000000000000006001600160a01b031660009081526020819052604081205460068054929055908115610e5757610e2c7f00000000000000000000000000000000000000000000000000000000000000003084611555565b610e57307f0000000000000000000000000000000000000000000000000000000000000000846114c6565b604080516001808252818301909252600091816020015b6040805180820190915260008082526020820152815260200190600190039081610e6e5790505090506040518060400160405280306001600160a01b031681526020018481525081600081518110610ec857610ec8612761565b60200260200101819052506000610f2b610f017f0000000000000000000000000000000000000000000000000000000000000000611528565b60408051602081018890529081018690526060016040516020818303038152906040528488611ed2565b9050610f577f00000000000000000000000000000000000000000000000000000000000000008261189b565b505060408051858152602081018590527f780ad21fb95421fd83047aa9bb3506c2aea4c8d383daa4476e66d56606632dc2910160405180910390a15050505050565b610fbc83610fa684611528565b8360405180602001604052806000815250610a57565b505050565b610fd960405180602001604052806000815250610dba565b565b7f000000000000000000000000000000000000000000000000000000000000000084101561101c57604051631260d0af60e31b815260040160405180910390fd5b683635c9adc5dea000008310156110465760405163732f941360e01b815260040160405180910390fd5b6001600160a01b0385166000908152600460205260409020541561107d57604051630ea075bf60e21b815260040160405180910390fd5b611088303385611de1565b611092844261278d565b6001600160a01b038616600081815260046020526040908190209290925590517f97326258efdae63280617ca33884e507791c2abeed7b82acd77f1853394ef94b90610cd99087908790879087906127a0565b6110ee33610cf5565b15801561111a575033600090815260056020526040902054611118906001600160a01b0316610cf5565b155b1561113857604051633e34a41b60e21b815260040160405180910390fd5b7f00000000000000000000000000000000000000000000000000000000000000006001600160a01b0316600090815260208190526040902054808211156111cd5761118381836127ca565b60066000828254611194919061278d565b909155506111cd90507f00000000000000000000000000000000000000000000000000000000000000006111c883856127ca565b6116d4565b6111f87f00000000000000000000000000000000000000000000000000000000000000008484611555565b826001600160a01b03167f72fba0ba07d937c660a3130fca36005c0e476cb97b6f00de413976e37eba95018360405161123391815260200190565b60405180910390a2505050565b428410156112955760405162461bcd60e51b815260206004820152601760248201527f5045524d49545f444541444c494e455f4558504952454400000000000000000060448201526064015b60405180910390fd5b600060016112a1610990565b6001600160a01b038a811660008181526003602090815260409182902080546001810190915582517f6e71edae12b1b97f4d1f60370fef10105fa2faae0126114a169c64845d6126c98184015280840194909452938d166060840152608083018c905260a083019390935260c08083018b90528151808403909101815260e08301909152805192019190912061190160f01b6101008301526101028201929092526101228101919091526101420160408051601f198184030181528282528051602091820120600084529083018083525260ff871690820152606081018590526080810184905260a0016020604051602081039080840390855afa1580156113ad573d6000803e3d6000fd5b5050604051601f1901519150506001600160a01b038116158015906113e35750876001600160a01b0316816001600160a01b0316145b6114205760405162461bcd60e51b815260206004820152600e60248201526d24a72b20a624a22fa9a4a3a722a960911b604482015260640161128c565b61142b8188886114c6565b5050505050505050565b60006114418383611f19565b9392505050565b60075460ff161561146b5760405162dc149f60e41b815260040160405180910390fd5b6001600160a01b0383166000818152600460205260408082204290556007805460ff19166001179055517f97326258efdae63280617ca33884e507791c2abeed7b82acd77f1853394ef94b91611233918190879087906127a0565b6001600160a01b0383811660008181526001602090815260408083209487168084529482529182902085905590518481527f8c5be1e5ebec7d5bd14f71427d1e84f3dd0314c0f7b2291e5b200ac8c7c3b92591015b60405180910390a3505050565b604080516001600160a01b0383166020820152606091016040516020818303038152906040529050919050565b6001600160a01b03821661156857600080fd5b6001600160a01b0383166000908152602081905260409020548111156115cb576001600160a01b0383166000818152602081905260409081902054905163391434e360e21b8152600481019290925260248201526044810182905260640161128c565b6001600160a01b038316600090815260208190526040812080548392906115f39084906127ca565b90915550506001600160a01b0382166000908152602081905260408120805483929061162090849061278d565b92505081905550816001600160a01b0316836001600160a01b03167fddf252ad1be2c89b69c2b068fc378daa952ba7f163c4a11628f55a4df523b3ef8360405161151b91815260200190565b60006116788484611f19565b9050600160ff1b81101561096857818110156116c057604051637dc7a0d960e11b81526001600160a01b0385166004820152602481018290526044810183905260640161128c565b61096884846116cf85856127ca565b6114c6565b6001600160a01b0382166116e757600080fd5b80600260008282546116f9919061278d565b90915550506001600160a01b0382166000908152602081905260408120805483929061172690849061278d565b90915550506040518181526001600160a01b038316906000907fddf252ad1be2c89b69c2b068fc378daa952ba7f163c4a11628f55a4df523b3ef906020015b60405180910390a35050565b806002600082825461178391906127ca565b90915550506001600160a01b038216600090815260208190526040812080548392906117b09084906127ca565b90915550506040518181526000906001600160a01b038416907fddf252ad1be2c89b69c2b068fc378daa952ba7f163c4a11628f55a4df523b3ef90602001611765565b6117fb61209f565b604080516001808252818301909252600091816020015b60408051808201909152600080825260208201528152602001906001900390816118125790505090506040518060400160405280306001600160a01b03168152602001858152508160008151811061186c5761186c612761565b602002602001018190525061189285604051806020016040528060008152508386611ed2565b95945050505050565b60008060006118aa8585611fd9565b60608501519091506000906001600160a01b031615611cb75760608501516040516370a0823160e01b815233600482015283916001600160a01b0316906370a0823190602401602060405180830381865afa15801561190d573d6000803e3d6000fd5b505050506040513d601f19601f8201168201806040525081019061193191906127dd565b10156119685760608501516040516346d55cf960e01b81526001600160a01b0390911660048201526024810183905260440161128c565b6060850151604051636eb1769f60e11b815233600482015230602482015283916001600160a01b03169063dd62ed3e90604401602060405180830381865afa1580156119b8573d6000803e3d6000fd5b505050506040513d601f19601f820116820180604052508101906119dc91906127dd565b1015611a1357606085015160405163def222f760e01b81526001600160a01b0390911660048201526024810183905260440161128c565b60608501516040516323b872dd60e01b8152336004820152306024820152604481018490526001600160a01b03909116906323b872dd906064016020604051808303816000875af1158015611a6c573d6000803e3d6000fd5b505050506040513d601f19601f82011682018060405250810190611a9091906127f6565b50606085015160405163095ea7b360e01b81526001600160a01b037f000000000000000000000000000000000000000000000000000000000000000081166004830152602482018590529091169063095ea7b3906044016020604051808303816000875af1158015611b06573d6000803e3d6000fd5b505050506040513d601f19601f82011682018060405250810190611b2a91906127f6565b506040516396f4e9f960e01b81526001600160a01b037f000000000000000000000000000000000000000000000000000000000000000016906396f4e9f990611b799089908990600401612813565b6020604051808303816000875af1158015611b98573d6000803e3d6000fd5b505050506040513d601f19601f82011682018060405250810190611bbc91906127dd565b60608601516040516370a0823160e01b81523060048201529192506000916001600160a01b03909116906370a0823190602401602060405180830381865afa158015611c0c573d6000803e3d6000fd5b505050506040513d601f19601f82011682018060405250810190611c3091906127dd565b90508015611cb157606086015160405163a9059cbb60e01b8152336004820152602481018390526001600160a01b039091169063a9059cbb906044016020604051808303816000875af1158015611c8b573d6000803e3d6000fd5b505050506040513d601f19601f82011682018060405250810190611caf91906127f6565b505b50611dd5565b81341015611cf05760608501516040516346d55cf960e01b81526001600160a01b0390911660048201526024810183905260440161128c565b6040516396f4e9f960e01b81526001600160a01b037f000000000000000000000000000000000000000000000000000000000000000016906396f4e9f9908490611d40908a908a90600401612813565b60206040518083038185885af1158015611d5e573d6000803e3d6000fd5b50505050506040513d601f19601f82011682018060405250810190611d8391906127dd565b905033611d9083346127ca565b604051600081818185875af1925050503d8060008114611dcc576040519150601f19603f3d011682016040523d82523d6000602084013e611dd1565b606091505b5050505b925090505b9250929050565b611e0c827f000000000000000000000000000000000000000000000000000000000000000083611555565b806006541115611e5d578060066000828254611e2891906127ca565b90915550611e5890507f000000000000000000000000000000000000000000000000000000000000000082611771565b611e97565b60065415611e9757611e917f0000000000000000000000000000000000000000000000000000000000000000600654611771565b60006006555b826001600160a01b03167f5314098314219d6e1ce8e41fc5e6ec1ce2f06a9d583079fb6619af9bf6efdf418260405161123391815260200190565b611eda61209f565b6040518060a00160405280868152602001858152602001848152602001611eff61206b565b6001600160a01b0316815260200192909252509392505050565b6001600160a01b0380831660009081526001602090815260408083209385168352929052908120548015611f4e5790506108f8565b611f5783610cf5565b80611f8157506001600160a01b03808416600090815260056020526040902054611f819116610cf5565b80611fbd57507f00000000000000000000000000000000000000000000000000000000000000006001600160a01b0316836001600160a01b0316145b15611fcf57600160ff1b9150506108f8565b60009150506108f8565b6040516320487ded60e01b81526000906001600160a01b037f000000000000000000000000000000000000000000000000000000000000000016906320487ded9061202a9086908690600401612813565b602060405180830381865afa158015612047573d6000803e3d6000fd5b505050506040513d601f19601f8201168201806040525081019061144191906127dd565b600080341161209957507f000000000000000000000000000000000000000000000000000000000000000090565b50600090565b6040518060a0016040528060608152602001606081526020016060815260200160006001600160a01b03168152602001606081525090565b60005b838110156120f25781810151838201526020016120da565b50506000910152565b600081518084526121138160208601602086016120d7565b601f01601f19169290920160200192915050565b60208152600061144160208301846120fb565b80356001600160a01b038116811461215157600080fd5b919050565b6000806040838503121561216957600080fd5b6121728361213a565b946020939093013593505050565b803567ffffffffffffffff8116811461215157600080fd5b6000604082840312156121aa57600080fd5b50919050565b60008060008060a085870312156121c657600080fd5b6121cf85612180565b93506121dd6020860161213a565b9250604085013591506121f38660608701612198565b905092959194509250565b60008060006060848603121561221357600080fd5b61221c8461213a565b925061222a6020850161213a565b9150604084013590509250925092565b60006020828403121561224c57600080fd5b5035919050565b634e487b7160e01b600052604160045260246000fd5b600082601f83011261227a57600080fd5b813567ffffffffffffffff8082111561229557612295612253565b604051601f8301601f19908116603f011681019082821181831017156122bd576122bd612253565b816040528381528660208588010111156122d657600080fd5b836020870160208301376000602085830101528094505050505092915050565b6000806000806080858703121561230c57600080fd5b61231585612180565b9350602085013567ffffffffffffffff8082111561233257600080fd5b61233e88838901612269565b945060408701359350606087013591508082111561235b57600080fd5b5061236887828801612269565b91505092959194509250565b60006020828403121561238657600080fd5b6114418261213a565b6000604082840312156123a157600080fd5b6114418383612198565b60008083601f8401126123bd57600080fd5b50813567ffffffffffffffff8111156123d557600080fd5b602083019150836020828501011115611dda57600080fd5b60008060008060006060868803121561240557600080fd5b61240e8661213a565b9450602086013567ffffffffffffffff8082111561242b57600080fd5b818801915088601f83011261243f57600080fd5b81358181111561244e57600080fd5b8960208260051b850101111561246357600080fd5b60208301965080955050604088013591508082111561248157600080fd5b5061248e888289016123ab565b969995985093965092949392505050565b6000602082840312156124b157600080fd5b813567ffffffffffffffff8111156124c857600080fd5b6124d484828501612269565b949350505050565b6000806000606084860312156124f157600080fd5b61221c84612180565b60008060008060006080868803121561251257600080fd5b61251b8661213a565b94506020860135935060408601359250606086013567ffffffffffffffff81111561254557600080fd5b61248e888289016123ab565b600080600080600080600060e0888a03121561256c57600080fd5b6125758861213a565b96506125836020890161213a565b95506040880135945060608801359350608088013560ff811681146125a757600080fd5b9699959850939692959460a0840135945060c09093013592915050565b600080604083850312156125d757600080fd5b6125e08361213a565b91506125ee6020840161213a565b90509250929050565b60008060006040848603121561260c57600080fd5b6126158461213a565b9250602084013567ffffffffffffffff81111561263157600080fd5b61263d868287016123ab565b9497909650939450505050565b8015158114610a5457600080fd5b60006040828403121561266a57600080fd5b6040516040810181811067ffffffffffffffff8211171561268d5761268d612253565b6040528235815260208301356126a28161264a565b60208201529392505050565b600082516126c08184602087016120d7565b9190910192915050565b6001600160a01b03848116825260406020808401829052908301849052600091859160608501845b8781101561271757836127048661213a565b16825293820193908201906001016126f2565b5098975050505050505050565b81835281816020850137506000828201602090810191909152601f909101601f19169091010190565b6020815260006124d4602083018486612724565b634e487b7160e01b600052603260045260246000fd5b634e487b7160e01b600052601160045260246000fd5b808201808211156108f8576108f8612777565b8481528360208201526060604082015260006127c0606083018486612724565b9695505050505050565b818103818111156108f8576108f8612777565b6000602082840312156127ef57600080fd5b5051919050565b60006020828403121561280857600080fd5b81516114418161264a565b6000604067ffffffffffffffff851683526020604081850152845160a0604086015261284260e08601826120fb565b905081860151603f198087840301606088015261285f83836120fb565b6040890151888203830160808a01528051808352908601945060009350908501905b808410156128b357845180516001600160a01b0316835286015186830152938501936001939093019290860190612881565b5060608901516001600160a01b031660a08901526080890151888203830160c08a015295506128e281876120fb565b9a995050505050505050505056fea2646970667358221220e6f2f3327b6af9f934519aca10257246524c336c32434a23f9b8bf1b47b69dc364736f6c63430008180033",
  "devdoc": {
    "events": {
      "Approval(address,address,uint256)": {
        "details": "Emitted when the allowance of a `spender` for an `owner` is set by a call to `approve`. `value` is the new allowance."
      },
      "Transfer(address,address,uint256)": {
        "details": "Emitted when `value` tokens are moved from one account (`from`) to another (`to`). Note that `value` may be zero."
      }
    },
    "kind": "dev",
    "methods": {
      "allowance(address,address)": {
        "details": "See `IERC20.allowance`."
      },
      "approve(address,uint256)": {
        "details": "See `IERC20.approve`. Requirements: - `spender` cannot be the zero address."
      },
      "balanceOf(address)": {
        "details": "See `IERC20.balanceOf`."
      },
      "denyMinter(address,address[],string)": {
        "details": "Calling this function is relatively cheap thanks to the deletion of a storage slot."
      },
      "registerPosition(address)": {
        "details": "It is assumed that the responsible minter that registers the position ensures that the position can be trusted."
      },
      "suggestMinter(address,uint256,uint256,string)": {
        "details": "The caller has to pay an application fee that is irrevocably lost even if the new minter is vetoed. The caller must assume that someone will veto the new minter unless there is broad consensus that the new minter adds value to the Frankencoin system. Complex proposals should have application periods and applications fees above the minimum. It is assumed that over time, informal ways to coordinate on new minters emerge. The message parameter might be useful for initiating further communication. Maybe it contains a link to a website describing the proposed minter.",
        "params": {
          "_applicationFee": "The fee paid by the caller, at least MIN_FEE",
          "_applicationPeriod": "The time others have to veto the suggestion, at least MIN_APPLICATION_PERIOD",
          "_message": "An optional human readable message to everyone watching this contract",
          "_minter": "An address that is given the permission to mint Frankencoins"
        }
      },
      "totalSupply()": {
        "details": "See `IERC20.totalSupply`."
      },
      "transfer(address,uint256)": {
        "details": "See `IERC20.transfer`. Requirements: - `recipient` cannot be the zero address. - the caller must have a balance of at least `amount`."
      },
      "transferFrom(address,address,uint256)": {
        "details": "See `IERC20.transferFrom`. Emits an `Approval` event indicating the updated allowance. This is not required by the EIP. See the note at the beginning of `ERC20`; Requirements: - `sender` and `recipient` cannot be the zero address. - `sender` must have a balance of at least `value`. - the caller must have allowance for `sender`'s tokens of at least `amount`."
      }
    },
    "title": "Bridged Frankencoin ERC-20 Token Like its mainnet counterpart, it has the capapbility to add minting modules. This allows to potentially add similar collateralized minting methods as in the mainnet Frankencoin. However, there is only one FPS, the one on mainnet and voting power has to be projected onto the side chains.",
    "version": 1
  },
  "userdoc": {
    "kind": "user",
    "methods": {
      "MIN_FEE()": {
        "notice": "Minimal fee and application period when suggesting a new minter."
      },
      "burn(uint256)": {
        "notice": "Anyone is allowed to burn their ZCHF."
      },
      "burnFrom(address,uint256)": {
        "notice": "Burn someone elses ZCHF."
      },
      "constructor": {
        "notice": "Initiates the Frankencoin with the provided minimum application period for new plugins in seconds, for example 10 days, i.e. 3600*24*10 = 864000"
      },
      "coverLoss(address,uint256)": {
        "notice": "Notify the Frankencoin that a minter lost economic access to some coins. This does not mean that the coins are literally lost. It just means that some ZCHF will likely never be repaid and that in order to bring the system back into balance, the lost amount of ZCHF must be removed from the reserve instead. For example, if a minter printed 1 million ZCHF for a mortgage and the mortgage turned out to be unsound with the house only yielding 800'000 in the subsequent auction, there is a loss of 200'000 that needs to be covered by the reserve."
      },
      "denyMinter(address,address[],string)": {
        "notice": "Qualified pool share holders can deny minters during the application period."
      },
      "getPositionParent(address)": {
        "notice": "Returns the address of the minter that created this position or null if the provided address is unknown."
      },
      "isMinter(address)": {
        "notice": "Returns true if the address is an approved minter."
      },
      "minters(address)": {
        "notice": "Map of minters to approval time stamps. If the time stamp is in the past, the minter contract is allowed to mint Frankencoins."
      },
      "positions(address)": {
        "notice": "List of positions that are allowed to mint and the minter that registered them."
      },
      "registerPosition(address)": {
        "notice": "Allows minters to register collateralized debt positions, thereby giving them the ability to mint Frankencoins."
      },
      "reserve()": {
        "notice": "The contract that holds the reserve."
      },
      "suggestMinter(address,uint256,uint256,string)": {
        "notice": "Publicly accessible method to suggest a new way of minting Frankencoin."
      },
      "synchronizeAccounting(bytes)": {
        "notice": "Uses a multichain call to send home all accrued profits, if any"
      }
    },
    "version": 1
  },
  "storageLayout": {
    "storage": [
      {
        "astId": 8274,
        "contract": "contracts/stablecoin/BridgedFrankencoin.sol:BridgedFrankencoin",
        "label": "_balances",
        "offset": 0,
        "slot": "0",
        "type": "t_mapping(t_address,t_uint256)"
      },
      {
        "astId": 8280,
        "contract": "contracts/stablecoin/BridgedFrankencoin.sol:BridgedFrankencoin",
        "label": "_allowances",
        "offset": 0,
        "slot": "1",
        "type": "t_mapping(t_address,t_mapping(t_address,t_uint256))"
      },
      {
        "astId": 8288,
        "contract": "contracts/stablecoin/BridgedFrankencoin.sol:BridgedFrankencoin",
        "label": "_totalSupply",
        "offset": 0,
        "slot": "2",
        "type": "t_uint256"
      },
      {
        "astId": 8672,
        "contract": "contracts/stablecoin/BridgedFrankencoin.sol:BridgedFrankencoin",
        "label": "nonces",
        "offset": 0,
        "slot": "3",
        "type": "t_mapping(t_address,t_uint256)"
      },
      {
        "astId": 9589,
        "contract": "contracts/stablecoin/BridgedFrankencoin.sol:BridgedFrankencoin",
        "label": "minters",
        "offset": 0,
        "slot": "4",
        "type": "t_mapping(t_address,t_uint256)"
      },
      {
        "astId": 9594,
        "contract": "contracts/stablecoin/BridgedFrankencoin.sol:BridgedFrankencoin",
        "label": "positions",
        "offset": 0,
        "slot": "5",
        "type": "t_mapping(t_address,t_address)"
      },
      {
        "astId": 9596,
        "contract": "contracts/stablecoin/BridgedFrankencoin.sol:BridgedFrankencoin",
        "label": "accruedLoss",
        "offset": 0,
        "slot": "6",
        "type": "t_uint256"
      },
      {
        "astId": 9598,
        "contract": "contracts/stablecoin/BridgedFrankencoin.sol:BridgedFrankencoin",
        "label": "initialized",
        "offset": 0,
        "slot": "7",
        "type": "t_bool"
      }
    ],
    "types": {
      "t_address": {
        "encoding": "inplace",
        "label": "address",
        "numberOfBytes": "20"
      },
      "t_bool": {
        "encoding": "inplace",
        "label": "bool",
        "numberOfBytes": "1"
      },
      "t_mapping(t_address,t_address)": {
        "encoding": "mapping",
        "key": "t_address",
        "label": "mapping(address => address)",
        "numberOfBytes": "32",
        "value": "t_address"
      },
      "t_mapping(t_address,t_mapping(t_address,t_uint256))": {
        "encoding": "mapping",
        "key": "t_address",
        "label": "mapping(address => mapping(address => uint256))",
        "numberOfBytes": "32",
        "value": "t_mapping(t_address,t_uint256)"
      },
      "t_mapping(t_address,t_uint256)": {
        "encoding": "mapping",
        "key": "t_address",
        "label": "mapping(address => uint256)",
        "numberOfBytes": "32",
        "value": "t_uint256"
      },
      "t_uint256": {
        "encoding": "inplace",
        "label": "uint256",
        "numberOfBytes": "32"
      }
    }
  }
}