{
  "address": "0x7e8366A243f3C60FA1054e71F149e14c7D67fc9b",
  "abi": [
    {
      "inputs": [
        {
          "internalType": "address",
          "name": "_router",
          "type": "address"
        },
        {
          "internalType": "uint64",
          "name": "_mainnetChainSelector",
          "type": "uint64"
        },
        {
          "internalType": "address",
          "name": "_mainnetGovernanceAddress",
          "type": "address"
        }
      ],
      "stateMutability": "nonpayable",
      "type": "constructor"
    },
    {
      "inputs": [
        {
          "internalType": "address",
          "name": "router",
          "type": "address"
        }
      ],
      "name": "InvalidRouter",
      "type": "error"
    },
    {
      "inputs": [],
      "name": "InvalidSender",
      "type": "error"
    },
    {
      "inputs": [],
      "name": "InvalidSourceChain",
      "type": "error"
    },
    {
      "inputs": [],
      "name": "NotQualified",
      "type": "error"
    },
    {
      "anonymous": false,
      "inputs": [
        {
          "indexed": true,
          "internalType": "address",
          "name": "from",
          "type": "address"
        },
        {
          "indexed": true,
          "internalType": "address",
          "name": "to",
          "type": "address"
        }
      ],
      "name": "Delegation",
      "type": "event"
    },
    {
      "anonymous": false,
      "inputs": [
        {
          "indexed": false,
          "internalType": "bytes32",
          "name": "messageId",
          "type": "bytes32"
        },
        {
          "indexed": false,
          "internalType": "uint64",
          "name": "sourceChain",
          "type": "uint64"
        },
        {
          "indexed": false,
          "internalType": "uint256",
          "name": "totalVotes",
          "type": "uint256"
        },
        {
          "components": [
            {
              "internalType": "address",
              "name": "voter",
              "type": "address"
            },
            {
              "internalType": "uint256",
              "name": "votes",
              "type": "uint256"
            },
            {
              "internalType": "address",
              "name": "delegatee",
              "type": "address"
            }
          ],
          "indexed": false,
          "internalType": "struct SyncVote[]",
          "name": "syncedVotes",
          "type": "tuple[]"
        }
      ],
      "name": "MessageReceived",
      "type": "event"
    },
    {
      "inputs": [],
      "name": "MAINNET_CHAIN_SELECTOR",
      "outputs": [
        {
          "internalType": "uint64",
          "name": "",
          "type": "uint64"
        }
      ],
      "stateMutability": "view",
      "type": "function"
    },
    {
      "inputs": [],
      "name": "MAINNET_GOVERNANCE_ADDRESS",
      "outputs": [
        {
          "internalType": "address",
          "name": "",
          "type": "address"
        }
      ],
      "stateMutability": "view",
      "type": "function"
    },
    {
      "inputs": [
        {
          "components": [
            {
              "internalType": "bytes32",
              "name": "messageId",
              "type": "bytes32"
            },
            {
              "internalType": "uint64",
              "name": "sourceChainSelector",
              "type": "uint64"
            },
            {
              "internalType": "bytes",
              "name": "sender",
              "type": "bytes"
            },
            {
              "internalType": "bytes",
              "name": "data",
              "type": "bytes"
            },
            {
              "components": [
                {
                  "internalType": "address",
                  "name": "token",
                  "type": "address"
                },
                {
                  "internalType": "uint256",
                  "name": "amount",
                  "type": "uint256"
                }
              ],
              "internalType": "struct Client.EVMTokenAmount[]",
              "name": "destTokenAmounts",
              "type": "tuple[]"
            }
          ],
          "internalType": "struct Client.Any2EVMMessage",
          "name": "message",
          "type": "tuple"
        }
      ],
      "name": "ccipReceive",
      "outputs": [],
      "stateMutability": "nonpayable",
      "type": "function"
    },
    {
      "inputs": [
        {
          "internalType": "address",
          "name": "sender",
          "type": "address"
        },
        {
          "internalType": "address[]",
          "name": "helpers",
          "type": "address[]"
        }
      ],
      "name": "checkQualified",
      "outputs": [],
      "stateMutability": "view",
      "type": "function"
    },
    {
      "inputs": [
        {
          "internalType": "address",
          "name": "delegate_",
          "type": "address"
        }
      ],
      "name": "delegateVoteTo",
      "outputs": [],
      "stateMutability": "nonpayable",
      "type": "function"
    },
    {
      "inputs": [
        {
          "internalType": "address",
          "name": "owner",
          "type": "address"
        }
      ],
      "name": "delegates",
      "outputs": [
        {
          "internalType": "address",
          "name": "delegate",
          "type": "address"
        }
      ],
      "stateMutability": "view",
      "type": "function"
    },
    {
      "inputs": [],
      "name": "getRouter",
      "outputs": [
        {
          "internalType": "address",
          "name": "",
          "type": "address"
        }
      ],
      "stateMutability": "view",
      "type": "function"
    },
    {
      "inputs": [
        {
          "internalType": "bytes4",
          "name": "interfaceId",
          "type": "bytes4"
        }
      ],
      "name": "supportsInterface",
      "outputs": [
        {
          "internalType": "bool",
          "name": "",
          "type": "bool"
        }
      ],
      "stateMutability": "view",
      "type": "function"
    },
    {
      "inputs": [],
      "name": "totalSupply",
      "outputs": [
        {
          "internalType": "uint256",
          "name": "",
          "type": "uint256"
        }
      ],
      "stateMutability": "view",
      "type": "function"
    },
    {
      "inputs": [],
      "name": "totalVotes",
      "outputs": [
        {
          "internalType": "uint256",
          "name": "",
          "type": "uint256"
        }
      ],
      "stateMutability": "view",
      "type": "function"
    },
    {
      "inputs": [
        {
          "internalType": "address",
          "name": "holder",
          "type": "address"
        }
      ],
      "name": "votes",
      "outputs": [
        {
          "internalType": "uint256",
          "name": "",
          "type": "uint256"
        }
      ],
      "stateMutability": "view",
      "type": "function"
    },
    {
      "inputs": [
        {
          "internalType": "address",
          "name": "sender",
          "type": "address"
        },
        {
          "internalType": "address[]",
          "name": "helpers",
          "type": "address[]"
        }
      ],
      "name": "votesDelegated",
      "outputs": [
        {
          "internalType": "uint256",
          "name": "",
          "type": "uint256"
        }
      ],
      "stateMutability": "view",
      "type": "function"
    }
  ],
  "transactionHash": "0xf99d7d3d44081cdaf75dddac4fa96af82326f8b5cfccfc40df6682b965e64ac4",
  "args": [
    "0x9C32fCB86BF0f4a1A8921a9Fe46de3198bb884B2",
    "16015286601757825753",
    "0x08AdafD51205cEB550BB1b34769E89c8A609e6cA"
  ],
  "numDeployments": 1,
  "solcInputHash": "1ccacc52033d69991e02f71aa50e2b65",
  "bytecode": "0x60e060405234801561001057600080fd5b50604051610ec9380380610ec983398101604081905261002f916100a0565b826001600160a01b03811661005e576040516335fdcccd60e21b81526000600482015260240160405180910390fd5b6001600160a01b039081166080526001600160401b0390921660a0521660c052506100f2565b80516001600160a01b038116811461009b57600080fd5b919050565b6000806000606084860312156100b557600080fd5b6100be84610084565b60208501519093506001600160401b03811681146100db57600080fd5b91506100e960408501610084565b90509250925092565b60805160a05160c051610d9361013660003960008181610100015261059e0152600081816101dc01526105480152600081816101b301526103af0152610d936000f3fe608060405234801561001057600080fd5b50600436106100b45760003560e01c80635895b773116100715780635895b7731461017857806385572ffb1461018b5780639823004f1461019e578063b0f479a1146101b1578063c038e298146101d7578063d8bff5a51461021657600080fd5b806301ffc9a7146100b95780630d15fd77146100e157806318160ddd146100f3578063269d34d4146100fb578063352e3a831461013a578063587cde1e1461014f575b600080fd5b6100cc6100c7366004610767565b61023f565b60405190151581526020015b60405180910390f35b6002545b6040519081526020016100d8565b6100e5610276565b6101227f000000000000000000000000000000000000000000000000000000000000000081565b6040516001600160a01b0390911681526020016100d8565b61014d6101483660046107ad565b610286565b005b61012261015d366004610834565b6000602081905290815260409020546001600160a01b031681565b6100e56101863660046107ad565b6102da565b61014d610199366004610851565b6103a4565b61014d6101ac366004610834565b610407565b7f0000000000000000000000000000000000000000000000000000000000000000610122565b6101fe7f000000000000000000000000000000000000000000000000000000000000000081565b6040516001600160401b0390911681526020016100d8565b6100e5610224366004610834565b6001600160a01b031660009081526001602052604090205490565b60006001600160e01b031982166385572ffb60e01b148061027057506001600160e01b031982166301ffc9a760e01b145b92915050565b600061028160025490565b905090565b60006102938484846102da565b905061029e60025490565b6102a99060c86108a1565b6102b5826127106108a1565b10156102d45760405163bcfcdc1160e01b815260040160405180910390fd5b50505050565b6001600160a01b0383166000908152600160205260408120546102fd8484610411565b61030657600080fd5b60005b8381101561039b576000858583818110610325576103256108b8565b905060200201602081019061033a9190610834565b9050866001600160a01b0316816001600160a01b03160361035a57600080fd5b61036487826104e0565b61036d57600080fd5b6001600160a01b03811660009081526001602052604090205461039090846108ce565b925050600101610309565b50949350505050565b336001600160a01b037f000000000000000000000000000000000000000000000000000000000000000016146103f3576040516335fdcccd60e21b815233600482015260240160405180910390fd5b6104046103ff82610ad9565b610546565b50565b610404338261067b565b60006001821161042357506001610270565b600083836000818110610438576104386108b8565b905060200201602081019061044d9190610834565b905060015b838110156104d557816001600160a01b0316858583818110610476576104766108b8565b905060200201602081019061048b9190610834565b6001600160a01b0316116104a457600092505050610270565b8484828181106104b6576104b66108b8565b90506020020160208101906104cb9190610834565b9150600101610452565b506001949350505050565b6000826001600160a01b0316826001600160a01b03160361050357506001610270565b6001600160a01b03821661051957506000610270565b6001600160a01b0380831660009081526020819052604090205461053f918591166104e0565b9050610270565b7f00000000000000000000000000000000000000000000000000000000000000006001600160401b031681602001516001600160401b03161461059c57604051639284b19760e01b815260040160405180910390fd5b7f00000000000000000000000000000000000000000000000000000000000000006001600160a01b031681604001518060200190518101906105de9190610b85565b6001600160a01b03161461060557604051636edaef2f60e11b815260040160405180910390fd5b6000816060015180602001905181019061061f9190610ba2565b905061062a816106d2565b7f7010cc6740340d7ccc25dd76569674c2b8945d3f87633d1cee16cd6176d13120826000015183602001518360200151846000015160405161066f9493929190610cac565b60405180910390a15050565b6001600160a01b0382811660008181526020819052604080822080546001600160a01b0319169486169485179055517fd000f39f92c3ed77f890f16b6ced1555e0ab2cdf470522d2210de67d8c83d45b9190a35050565b602081015160025560005b8151516001600160401b03821610156107635760008260000151826001600160401b031681518110610711576107116108b8565b6020908102919091018101518082015181516001600160a01b03166000908152600190935260409283902055805191810151909250610750919061067b565b508061075b81610d37565b9150506106dd565b5050565b60006020828403121561077957600080fd5b81356001600160e01b03198116811461079157600080fd5b9392505050565b6001600160a01b038116811461040457600080fd5b6000806000604084860312156107c257600080fd5b83356107cd81610798565b925060208401356001600160401b03808211156107e957600080fd5b818601915086601f8301126107fd57600080fd5b81358181111561080c57600080fd5b8760208260051b850101111561082157600080fd5b6020830194508093505050509250925092565b60006020828403121561084657600080fd5b813561079181610798565b60006020828403121561086357600080fd5b81356001600160401b0381111561087957600080fd5b820160a0818503121561079157600080fd5b634e487b7160e01b600052601160045260246000fd5b80820281158282048414176102705761027061088b565b634e487b7160e01b600052603260045260246000fd5b808201808211156102705761027061088b565b634e487b7160e01b600052604160045260246000fd5b604080519081016001600160401b0381118282101715610919576109196108e1565b60405290565b60405160a081016001600160401b0381118282101715610919576109196108e1565b604051606081016001600160401b0381118282101715610919576109196108e1565b604051601f8201601f191681016001600160401b038111828210171561098b5761098b6108e1565b604052919050565b80356001600160401b03811681146109aa57600080fd5b919050565b600082601f8301126109c057600080fd5b81356001600160401b038111156109d9576109d96108e1565b6109ec601f8201601f1916602001610963565b818152846020838601011115610a0157600080fd5b816020850160208301376000918101602001919091529392505050565b60006001600160401b03821115610a3757610a376108e1565b5060051b60200190565b600082601f830112610a5257600080fd5b81356020610a67610a6283610a1e565b610963565b82815260069290921b84018101918181019086841115610a8657600080fd5b8286015b84811015610ace5760408189031215610aa35760008081fd5b610aab6108f7565b8135610ab681610798565b81528185013585820152835291830191604001610a8a565b509695505050505050565b600060a08236031215610aeb57600080fd5b610af361091f565b82358152610b0360208401610993565b602082015260408301356001600160401b0380821115610b2257600080fd5b610b2e368387016109af565b60408401526060850135915080821115610b4757600080fd5b610b53368387016109af565b60608401526080850135915080821115610b6c57600080fd5b50610b7936828601610a41565b60808301525092915050565b600060208284031215610b9757600080fd5b815161079181610798565b60006020808385031215610bb557600080fd5b82516001600160401b0380821115610bcc57600080fd5b81850191506040808388031215610be257600080fd5b610bea6108f7565b835183811115610bf957600080fd5b84019250601f83018813610c0c57600080fd5b8251610c1a610a6282610a1e565b8181526060918202850187019187820191908b841115610c3957600080fd5b958801955b83871015610c935780878d031215610c565760008081fd5b610c5e610941565b8751610c6981610798565b8152878a01518a82015286880151610c8081610798565b8188015283529586019591880191610c3e565b5083525050928401519383019390935250949350505050565b60006080820186835260206001600160401b0387166020850152604086604086015260606080606087015283875180865260a08801915060208901955060005b81811015610d2657865180516001600160a01b03908116855287820151888601529086015116858401529585019591830191600101610cec565b50909b9a5050505050505050505050565b60006001600160401b03808316818103610d5357610d5361088b565b600101939250505056fea26469706673582212201f46daca94de57cb40e750903403ea8e98253c6927a7195f1b17658a70abec8364736f6c63430008180033",
  "devdoc": {
    "kind": "dev",
    "methods": {
      "ccipReceive((bytes32,uint64,bytes,bytes,(address,uint256)[]))": {
        "details": "Note ensure you check the msg.sender is the OffRampRouter",
        "params": {
          "message": "CCIP Message"
        }
      },
      "getRouter()": {
        "returns": {
          "_0": "CCIP router address"
        }
      },
      "supportsInterface(bytes4)": {
        "details": "Should indicate whether the contract implements IAny2EVMMessageReceiver e.g. return interfaceId == type(IAny2EVMMessageReceiver).interfaceId || interfaceId == type(IERC165).interfaceId This allows CCIP to check if ccipReceive is available before calling it. If this returns false or reverts, only tokens are transferred to the receiver. If this returns true, tokens are transferred and ccipReceive is called atomically. Additionally, if the receiver address does not have code associated with it at the time of execution (EXTCODESIZE returns 0), only tokens will be transferred.",
        "params": {
          "interfaceId": "The interfaceId to check"
        },
        "returns": {
          "_0": "true if the interfaceId is supported"
        }
      },
      "votes(address)": {
        "params": {
          "holder": "The address to check."
        }
      },
      "votesDelegated(address,address[])": {
        "params": {
          "helpers": "An incrementally sorted list of helpers without duplicates and without the sender.                  The call fails if the list contains an address that does not delegate to sender.                  For indirect delegates, i.e. a -> b -> c, both a and b must be included for both to count.",
          "sender": "The address whose total voting power is of interest"
        },
        "returns": {
          "_0": "The total number of votes of sender at the current point in time."
        }
      }
    },
    "version": 1
  },
  "userdoc": {
    "kind": "user",
    "methods": {
      "ccipReceive((bytes32,uint64,bytes,bytes,(address,uint256)[]))": {
        "notice": "Called by the Router to deliver a message. If this reverts, any token transfers also revert. The message will move to a FAILED state and become available for manual execution."
      },
      "checkQualified(address,address[])": {
        "notice": "Checks whether the sender address is qualified given a list of helpers that delegated their votes directly or indirectly to the sender. It is the responsiblity of the caller to figure out whether helpes are necessary and to identify them by scanning the blockchain for Delegation events."
      },
      "delegateVoteTo(address)": {
        "notice": "Increases the voting power of the delegate by your number of votes without taking away any voting power from the sender."
      },
      "delegates(address)": {
        "notice": "Keeping track on who delegated votes to whom. Note that delegation does not mean you cannot vote / veto any more, it just means that the delegate can benefit from your votes when invoking a veto. Circular delegations are valid, do not help when voting."
      },
      "getRouter()": {
        "notice": "Return the current router"
      },
      "supportsInterface(bytes4)": {
        "notice": "IERC165 supports an interfaceId"
      },
      "totalSupply()": {
        "notice": "Required for frankencoin contract"
      },
      "totalVotes()": {
        "notice": "Get the total number of votes."
      },
      "votes(address)": {
        "notice": "Get the number of votes held by a holder."
      },
      "votesDelegated(address,address[])": {
        "notice": "The number of votes the sender commands when taking the support of the helpers into account."
      }
    },
    "version": 1
  },
  "storageLayout": {
    "storage": [
      {
        "astId": 12693,
        "contract": "contracts/equity/BridgedGovernance.sol:BridgedGovernance",
        "label": "delegates",
        "offset": 0,
        "slot": "0",
        "type": "t_mapping(t_address,t_address)"
      },
      {
        "astId": 11400,
        "contract": "contracts/equity/BridgedGovernance.sol:BridgedGovernance",
        "label": "_votes",
        "offset": 0,
        "slot": "1",
        "type": "t_mapping(t_address,t_uint256)"
      },
      {
        "astId": 11402,
        "contract": "contracts/equity/BridgedGovernance.sol:BridgedGovernance",
        "label": "_totalVotes",
        "offset": 0,
        "slot": "2",
        "type": "t_uint256"
      }
    ],
    "types": {
      "t_address": {
        "encoding": "inplace",
        "label": "address",
        "numberOfBytes": "20"
      },
      "t_mapping(t_address,t_address)": {
        "encoding": "mapping",
        "key": "t_address",
        "label": "mapping(address => address)",
        "numberOfBytes": "32",
        "value": "t_address"
      },
      "t_mapping(t_address,t_uint256)": {
        "encoding": "mapping",
        "key": "t_address",
        "label": "mapping(address => uint256)",
        "numberOfBytes": "32",
        "value": "t_uint256"
      },
      "t_uint256": {
        "encoding": "inplace",
        "label": "uint256",
        "numberOfBytes": "32"
      }
    }
  }
}