{
  "address": "0xaCE43f0faaf47a04fD62167c423aAC8102181aeC",
  "abi": [
    {
      "inputs": [
        {
          "internalType": "address",
          "name": "router",
          "type": "address"
        },
        {
          "internalType": "uint64",
          "name": "mainnetChainSelector",
          "type": "uint64"
        },
        {
          "internalType": "address",
          "name": "mainnetGovernanceAddress",
          "type": "address"
        }
      ],
      "stateMutability": "nonpayable",
      "type": "constructor"
    },
    {
      "inputs": [
        {
          "internalType": "address",
          "name": "router",
          "type": "address"
        }
      ],
      "name": "InvalidRouter",
      "type": "error"
    },
    {
      "inputs": [],
      "name": "InvalidSender",
      "type": "error"
    },
    {
      "inputs": [],
      "name": "InvalidSourceChain",
      "type": "error"
    },
    {
      "inputs": [],
      "name": "NotQualified",
      "type": "error"
    },
    {
      "anonymous": false,
      "inputs": [
        {
          "indexed": true,
          "internalType": "address",
          "name": "from",
          "type": "address"
        },
        {
          "indexed": true,
          "internalType": "address",
          "name": "to",
          "type": "address"
        }
      ],
      "name": "Delegation",
      "type": "event"
    },
    {
      "anonymous": false,
      "inputs": [
        {
          "indexed": false,
          "internalType": "bytes32",
          "name": "messageId",
          "type": "bytes32"
        },
        {
          "indexed": false,
          "internalType": "uint64",
          "name": "sourceChain",
          "type": "uint64"
        },
        {
          "indexed": false,
          "internalType": "uint256",
          "name": "totalVotes",
          "type": "uint256"
        },
        {
          "components": [
            {
              "internalType": "address",
              "name": "voter",
              "type": "address"
            },
            {
              "internalType": "uint256",
              "name": "votes",
              "type": "uint256"
            },
            {
              "internalType": "address",
              "name": "delegatee",
              "type": "address"
            }
          ],
          "indexed": false,
          "internalType": "struct SyncVote[]",
          "name": "syncedVotes",
          "type": "tuple[]"
        }
      ],
      "name": "MessageReceived",
      "type": "event"
    },
    {
      "inputs": [],
      "name": "MAINNET_CHAIN_SELECTOR",
      "outputs": [
        {
          "internalType": "uint64",
          "name": "",
          "type": "uint64"
        }
      ],
      "stateMutability": "view",
      "type": "function"
    },
    {
      "inputs": [],
      "name": "MAINNET_GOVERNANCE_ADDRESS",
      "outputs": [
        {
          "internalType": "address",
          "name": "",
          "type": "address"
        }
      ],
      "stateMutability": "view",
      "type": "function"
    },
    {
      "inputs": [
        {
          "components": [
            {
              "internalType": "bytes32",
              "name": "messageId",
              "type": "bytes32"
            },
            {
              "internalType": "uint64",
              "name": "sourceChainSelector",
              "type": "uint64"
            },
            {
              "internalType": "bytes",
              "name": "sender",
              "type": "bytes"
            },
            {
              "internalType": "bytes",
              "name": "data",
              "type": "bytes"
            },
            {
              "components": [
                {
                  "internalType": "address",
                  "name": "token",
                  "type": "address"
                },
                {
                  "internalType": "uint256",
                  "name": "amount",
                  "type": "uint256"
                }
              ],
              "internalType": "struct Client.EVMTokenAmount[]",
              "name": "destTokenAmounts",
              "type": "tuple[]"
            }
          ],
          "internalType": "struct Client.Any2EVMMessage",
          "name": "message",
          "type": "tuple"
        }
      ],
      "name": "ccipReceive",
      "outputs": [],
      "stateMutability": "nonpayable",
      "type": "function"
    },
    {
      "inputs": [
        {
          "internalType": "address",
          "name": "sender",
          "type": "address"
        },
        {
          "internalType": "address[]",
          "name": "helpers",
          "type": "address[]"
        }
      ],
      "name": "checkQualified",
      "outputs": [],
      "stateMutability": "view",
      "type": "function"
    },
    {
      "inputs": [
        {
          "internalType": "address",
          "name": "delegate_",
          "type": "address"
        }
      ],
      "name": "delegateVoteTo",
      "outputs": [],
      "stateMutability": "nonpayable",
      "type": "function"
    },
    {
      "inputs": [
        {
          "internalType": "address",
          "name": "owner",
          "type": "address"
        }
      ],
      "name": "delegates",
      "outputs": [
        {
          "internalType": "address",
          "name": "delegate",
          "type": "address"
        }
      ],
      "stateMutability": "view",
      "type": "function"
    },
    {
      "inputs": [],
      "name": "getRouter",
      "outputs": [
        {
          "internalType": "address",
          "name": "",
          "type": "address"
        }
      ],
      "stateMutability": "view",
      "type": "function"
    },
    {
      "inputs": [
        {
          "internalType": "bytes4",
          "name": "interfaceId",
          "type": "bytes4"
        }
      ],
      "name": "supportsInterface",
      "outputs": [
        {
          "internalType": "bool",
          "name": "",
          "type": "bool"
        }
      ],
      "stateMutability": "view",
      "type": "function"
    },
    {
      "inputs": [],
      "name": "totalVotes",
      "outputs": [
        {
          "internalType": "uint256",
          "name": "",
          "type": "uint256"
        }
      ],
      "stateMutability": "view",
      "type": "function"
    },
    {
      "inputs": [
        {
          "internalType": "address",
          "name": "holder",
          "type": "address"
        }
      ],
      "name": "votes",
      "outputs": [
        {
          "internalType": "uint256",
          "name": "",
          "type": "uint256"
        }
      ],
      "stateMutability": "view",
      "type": "function"
    },
    {
      "inputs": [
        {
          "internalType": "address",
          "name": "sender",
          "type": "address"
        },
        {
          "internalType": "address[]",
          "name": "helpers",
          "type": "address[]"
        }
      ],
      "name": "votesDelegated",
      "outputs": [
        {
          "internalType": "uint256",
          "name": "",
          "type": "uint256"
        }
      ],
      "stateMutability": "view",
      "type": "function"
    }
  ],
  "transactionHash": "0x1163ad3e1dc013602ba2b521e2a4fd6578551079a4ecffe8efdead784302db03",
  "args": [
    "0x9C32fCB86BF0f4a1A8921a9Fe46de3198bb884B2",
    "16015286601757825753",
    "0x08AdafD51205cEB550BB1b34769E89c8A609e6cA"
  ],
  "numDeployments": 2,
  "solcInputHash": "4eb5404a5ac94d541291ca8f8e705f4d",
  "bytecode": "0x60e060405234801561001057600080fd5b50604051610ea5380380610ea583398101604081905261002f916100a0565b826001600160a01b03811661005e576040516335fdcccd60e21b81526000600482015260240160405180910390fd5b6001600160a01b039081166080526001600160401b0390921660a0521660c052506100f2565b80516001600160a01b038116811461009b57600080fd5b919050565b6000806000606084860312156100b557600080fd5b6100be84610084565b60208501519093506001600160401b03811681146100db57600080fd5b91506100e960408501610084565b90509250925092565b60805160a05160c051610d706101356000396000818160ed015261057b0152600081816101c901526105250152600081816101a0015261038c0152610d706000f3fe608060405234801561001057600080fd5b50600436106100a95760003560e01c80635895b773116100715780635895b7731461016557806385572ffb146101785780639823004f1461018b578063b0f479a11461019e578063c038e298146101c4578063d8bff5a51461020357600080fd5b806301ffc9a7146100ae5780630d15fd77146100d6578063269d34d4146100e8578063352e3a8314610127578063587cde1e1461013c575b600080fd5b6100c16100bc366004610744565b61022c565b60405190151581526020015b60405180910390f35b6002545b6040519081526020016100cd565b61010f7f000000000000000000000000000000000000000000000000000000000000000081565b6040516001600160a01b0390911681526020016100cd565b61013a61013536600461078a565b610263565b005b61010f61014a366004610811565b6000602081905290815260409020546001600160a01b031681565b6100da61017336600461078a565b6102b7565b61013a61018636600461082e565b610381565b61013a610199366004610811565b6103e4565b7f000000000000000000000000000000000000000000000000000000000000000061010f565b6101eb7f000000000000000000000000000000000000000000000000000000000000000081565b6040516001600160401b0390911681526020016100cd565b6100da610211366004610811565b6001600160a01b031660009081526001602052604090205490565b60006001600160e01b031982166385572ffb60e01b148061025d57506001600160e01b031982166301ffc9a760e01b145b92915050565b60006102708484846102b7565b905061027b60025490565b6102869060c861087e565b6102928261271061087e565b10156102b15760405163bcfcdc1160e01b815260040160405180910390fd5b50505050565b6001600160a01b0383166000908152600160205260408120546102da84846103ee565b6102e357600080fd5b60005b8381101561037857600085858381811061030257610302610895565b90506020020160208101906103179190610811565b9050866001600160a01b0316816001600160a01b03160361033757600080fd5b61034187826104bd565b61034a57600080fd5b6001600160a01b03811660009081526001602052604090205461036d90846108ab565b9250506001016102e6565b50949350505050565b336001600160a01b037f000000000000000000000000000000000000000000000000000000000000000016146103d0576040516335fdcccd60e21b815233600482015260240160405180910390fd5b6103e16103dc82610ab6565b610523565b50565b6103e13382610658565b6000600182116104005750600161025d565b60008383600081811061041557610415610895565b905060200201602081019061042a9190610811565b905060015b838110156104b257816001600160a01b031685858381811061045357610453610895565b90506020020160208101906104689190610811565b6001600160a01b0316116104815760009250505061025d565b84848281811061049357610493610895565b90506020020160208101906104a89190610811565b915060010161042f565b506001949350505050565b6000826001600160a01b0316826001600160a01b0316036104e05750600161025d565b6001600160a01b0382166104f65750600061025d565b6001600160a01b0380831660009081526020819052604090205461051c918591166104bd565b905061025d565b7f00000000000000000000000000000000000000000000000000000000000000006001600160401b031681602001516001600160401b03161461057957604051639284b19760e01b815260040160405180910390fd5b7f00000000000000000000000000000000000000000000000000000000000000006001600160a01b031681604001518060200190518101906105bb9190610b62565b6001600160a01b0316146105e257604051636edaef2f60e11b815260040160405180910390fd5b600081606001518060200190518101906105fc9190610b7f565b9050610607816106af565b7f7010cc6740340d7ccc25dd76569674c2b8945d3f87633d1cee16cd6176d13120826000015183602001518360200151846000015160405161064c9493929190610c89565b60405180910390a15050565b6001600160a01b0382811660008181526020819052604080822080546001600160a01b0319169486169485179055517fd000f39f92c3ed77f890f16b6ced1555e0ab2cdf470522d2210de67d8c83d45b9190a35050565b602081015160025560005b8151516001600160401b03821610156107405760008260000151826001600160401b0316815181106106ee576106ee610895565b6020908102919091018101518082015181516001600160a01b0316600090815260019093526040928390205580519181015190925061072d9190610658565b508061073881610d14565b9150506106ba565b5050565b60006020828403121561075657600080fd5b81356001600160e01b03198116811461076e57600080fd5b9392505050565b6001600160a01b03811681146103e157600080fd5b60008060006040848603121561079f57600080fd5b83356107aa81610775565b925060208401356001600160401b03808211156107c657600080fd5b818601915086601f8301126107da57600080fd5b8135818111156107e957600080fd5b8760208260051b85010111156107fe57600080fd5b6020830194508093505050509250925092565b60006020828403121561082357600080fd5b813561076e81610775565b60006020828403121561084057600080fd5b81356001600160401b0381111561085657600080fd5b820160a0818503121561076e57600080fd5b634e487b7160e01b600052601160045260246000fd5b808202811582820484141761025d5761025d610868565b634e487b7160e01b600052603260045260246000fd5b8082018082111561025d5761025d610868565b634e487b7160e01b600052604160045260246000fd5b604080519081016001600160401b03811182821017156108f6576108f66108be565b60405290565b60405160a081016001600160401b03811182821017156108f6576108f66108be565b604051606081016001600160401b03811182821017156108f6576108f66108be565b604051601f8201601f191681016001600160401b0381118282101715610968576109686108be565b604052919050565b80356001600160401b038116811461098757600080fd5b919050565b600082601f83011261099d57600080fd5b81356001600160401b038111156109b6576109b66108be565b6109c9601f8201601f1916602001610940565b8181528460208386010111156109de57600080fd5b816020850160208301376000918101602001919091529392505050565b60006001600160401b03821115610a1457610a146108be565b5060051b60200190565b600082601f830112610a2f57600080fd5b81356020610a44610a3f836109fb565b610940565b82815260069290921b84018101918181019086841115610a6357600080fd5b8286015b84811015610aab5760408189031215610a805760008081fd5b610a886108d4565b8135610a9381610775565b81528185013585820152835291830191604001610a67565b509695505050505050565b600060a08236031215610ac857600080fd5b610ad06108fc565b82358152610ae060208401610970565b602082015260408301356001600160401b0380821115610aff57600080fd5b610b0b3683870161098c565b60408401526060850135915080821115610b2457600080fd5b610b303683870161098c565b60608401526080850135915080821115610b4957600080fd5b50610b5636828601610a1e565b60808301525092915050565b600060208284031215610b7457600080fd5b815161076e81610775565b60006020808385031215610b9257600080fd5b82516001600160401b0380821115610ba957600080fd5b81850191506040808388031215610bbf57600080fd5b610bc76108d4565b835183811115610bd657600080fd5b84019250601f83018813610be957600080fd5b8251610bf7610a3f826109fb565b8181526060918202850187019187820191908b841115610c1657600080fd5b958801955b83871015610c705780878d031215610c335760008081fd5b610c3b61091e565b8751610c4681610775565b8152878a01518a82015286880151610c5d81610775565b8188015283529586019591880191610c1b565b5083525050928401519383019390935250949350505050565b60006080820186835260206001600160401b0387166020850152604086604086015260606080606087015283875180865260a08801915060208901955060005b81811015610d0357865180516001600160a01b03908116855287820151888601529086015116858401529585019591830191600101610cc9565b50909b9a5050505050505050505050565b60006001600160401b03808316818103610d3057610d30610868565b600101939250505056fea2646970667358221220a3a877554df0853c6ef1608086567d340ad4f2750dc4863bb815d660ffd3ba9764736f6c63430008180033",
  "devdoc": {
    "kind": "dev",
    "methods": {
      "ccipReceive((bytes32,uint64,bytes,bytes,(address,uint256)[]))": {
        "details": "Note ensure you check the msg.sender is the OffRampRouter",
        "params": {
          "message": "CCIP Message"
        }
      },
      "getRouter()": {
        "returns": {
          "_0": "CCIP router address"
        }
      },
      "supportsInterface(bytes4)": {
        "details": "Should indicate whether the contract implements IAny2EVMMessageReceiver e.g. return interfaceId == type(IAny2EVMMessageReceiver).interfaceId || interfaceId == type(IERC165).interfaceId This allows CCIP to check if ccipReceive is available before calling it. If this returns false or reverts, only tokens are transferred to the receiver. If this returns true, tokens are transferred and ccipReceive is called atomically. Additionally, if the receiver address does not have code associated with it at the time of execution (EXTCODESIZE returns 0), only tokens will be transferred.",
        "params": {
          "interfaceId": "The interfaceId to check"
        },
        "returns": {
          "_0": "true if the interfaceId is supported"
        }
      },
      "votes(address)": {
        "params": {
          "holder": "The address to check."
        }
      },
      "votesDelegated(address,address[])": {
        "params": {
          "helpers": "An incrementally sorted list of helpers without duplicates and without the sender.                  The call fails if the list contains an address that does not delegate to sender.                  For indirect delegates, i.e. a -> b -> c, both a and b must be included for both to count.",
          "sender": "The address whose total voting power is of interest"
        },
        "returns": {
          "_0": "The total number of votes of sender at the current point in time."
        }
      }
    },
    "version": 1
  },
  "userdoc": {
    "kind": "user",
    "methods": {
      "ccipReceive((bytes32,uint64,bytes,bytes,(address,uint256)[]))": {
        "notice": "Called by the Router to deliver a message. If this reverts, any token transfers also revert. The message will move to a FAILED state and become available for manual execution."
      },
      "checkQualified(address,address[])": {
        "notice": "Checks whether the sender address is qualified given a list of helpers that delegated their votes directly or indirectly to the sender. It is the responsiblity of the caller to figure out whether helpes are necessary and to identify them by scanning the blockchain for Delegation events."
      },
      "delegateVoteTo(address)": {
        "notice": "Increases the voting power of the delegate by your number of votes without taking away any voting power from the sender."
      },
      "delegates(address)": {
        "notice": "Keeping track on who delegated votes to whom. Note that delegation does not mean you cannot vote / veto any more, it just means that the delegate can benefit from your votes when invoking a veto. Circular delegations are valid, do not help when voting."
      },
      "getRouter()": {
        "notice": "Return the current router"
      },
      "supportsInterface(bytes4)": {
        "notice": "IERC165 supports an interfaceId"
      },
      "totalVotes()": {
        "notice": "Get the total number of votes."
      },
      "votes(address)": {
        "notice": "Get the number of votes held by a holder."
      },
      "votesDelegated(address,address[])": {
        "notice": "The number of votes the sender commands when taking the support of the helpers into account."
      }
    },
    "version": 1
  },
  "storageLayout": {
    "storage": [
      {
        "astId": 5308,
        "contract": "contracts/equity/BridgedGovernance.sol:BridgedGovernance",
        "label": "delegates",
        "offset": 0,
        "slot": "0",
        "type": "t_mapping(t_address,t_address)"
      },
      {
        "astId": 4212,
        "contract": "contracts/equity/BridgedGovernance.sol:BridgedGovernance",
        "label": "_votes",
        "offset": 0,
        "slot": "1",
        "type": "t_mapping(t_address,t_uint256)"
      },
      {
        "astId": 4214,
        "contract": "contracts/equity/BridgedGovernance.sol:BridgedGovernance",
        "label": "_totalVotes",
        "offset": 0,
        "slot": "2",
        "type": "t_uint256"
      }
    ],
    "types": {
      "t_address": {
        "encoding": "inplace",
        "label": "address",
        "numberOfBytes": "20"
      },
      "t_mapping(t_address,t_address)": {
        "encoding": "mapping",
        "key": "t_address",
        "label": "mapping(address => address)",
        "numberOfBytes": "32",
        "value": "t_address"
      },
      "t_mapping(t_address,t_uint256)": {
        "encoding": "mapping",
        "key": "t_address",
        "label": "mapping(address => uint256)",
        "numberOfBytes": "32",
        "value": "t_uint256"
      },
      "t_uint256": {
        "encoding": "inplace",
        "label": "uint256",
        "numberOfBytes": "32"
      }
    }
  }
}