{
  "address": "0xB6D2E9998C194e627Db2FcBa176313c35BFE52E8",
  "abi": [
    {
      "inputs": [
        {
          "internalType": "contract IGovernance",
          "name": "reserve_",
          "type": "address"
        },
        {
          "internalType": "address",
          "name": "router_",
          "type": "address"
        },
        {
          "internalType": "uint256",
          "name": "_minApplicationPeriod",
          "type": "uint256"
        },
        {
          "internalType": "address",
          "name": "_linkToken",
          "type": "address"
        },
        {
          "internalType": "uint64",
          "name": "_mainnetChainSelector",
          "type": "uint64"
        },
        {
          "internalType": "address",
          "name": "_bridgeAccounting",
          "type": "address"
        },
        {
          "internalType": "address",
          "name": "_ccipAdmin",
          "type": "address"
        }
      ],
      "stateMutability": "nonpayable",
      "type": "constructor"
    },
    {
      "inputs": [],
      "name": "AlreadyInitialized",
      "type": "error"
    },
    {
      "inputs": [],
      "name": "AlreadyRegistered",
      "type": "error"
    },
    {
      "inputs": [
        {
          "internalType": "address",
          "name": "spender",
          "type": "address"
        },
        {
          "internalType": "uint256",
          "name": "allowance",
          "type": "uint256"
        },
        {
          "internalType": "uint256",
          "name": "needed",
          "type": "uint256"
        }
      ],
      "name": "ERC20InsufficientAllowance",
      "type": "error"
    },
    {
      "inputs": [
        {
          "internalType": "address",
          "name": "sender",
          "type": "address"
        },
        {
          "internalType": "uint256",
          "name": "balance",
          "type": "uint256"
        },
        {
          "internalType": "uint256",
          "name": "needed",
          "type": "uint256"
        }
      ],
      "name": "ERC20InsufficientBalance",
      "type": "error"
    },
    {
      "inputs": [],
      "name": "FeeTooLow",
      "type": "error"
    },
    {
      "inputs": [
        {
          "internalType": "address",
          "name": "token",
          "type": "address"
        },
        {
          "internalType": "uint256",
          "name": "fee",
          "type": "uint256"
        }
      ],
      "name": "InsufficientFeeTokenAllowance",
      "type": "error"
    },
    {
      "inputs": [
        {
          "internalType": "address",
          "name": "token",
          "type": "address"
        },
        {
          "internalType": "uint256",
          "name": "fee",
          "type": "uint256"
        }
      ],
      "name": "InsufficientFeeTokens",
      "type": "error"
    },
    {
      "inputs": [],
      "name": "InvalidInput",
      "type": "error"
    },
    {
      "inputs": [],
      "name": "NotMinter",
      "type": "error"
    },
    {
      "inputs": [],
      "name": "PeriodTooShort",
      "type": "error"
    },
    {
      "inputs": [],
      "name": "TooLate",
      "type": "error"
    },
    {
      "anonymous": false,
      "inputs": [
        {
          "indexed": false,
          "internalType": "uint256",
          "name": "profit",
          "type": "uint256"
        },
        {
          "indexed": false,
          "internalType": "uint256",
          "name": "losses",
          "type": "uint256"
        }
      ],
      "name": "AccountingSynchronized",
      "type": "event"
    },
    {
      "anonymous": false,
      "inputs": [
        {
          "indexed": true,
          "internalType": "address",
          "name": "owner",
          "type": "address"
        },
        {
          "indexed": true,
          "internalType": "address",
          "name": "spender",
          "type": "address"
        },
        {
          "indexed": false,
          "internalType": "uint256",
          "name": "value",
          "type": "uint256"
        }
      ],
      "name": "Approval",
      "type": "event"
    },
    {
      "anonymous": false,
      "inputs": [
        {
          "indexed": true,
          "internalType": "address",
          "name": "reportingMinter",
          "type": "address"
        },
        {
          "indexed": false,
          "internalType": "uint256",
          "name": "amount",
          "type": "uint256"
        }
      ],
      "name": "Loss",
      "type": "event"
    },
    {
      "anonymous": false,
      "inputs": [
        {
          "indexed": true,
          "internalType": "address",
          "name": "minter",
          "type": "address"
        },
        {
          "indexed": false,
          "internalType": "uint256",
          "name": "applicationPeriod",
          "type": "uint256"
        },
        {
          "indexed": false,
          "internalType": "uint256",
          "name": "applicationFee",
          "type": "uint256"
        },
        {
          "indexed": false,
          "internalType": "string",
          "name": "message",
          "type": "string"
        }
      ],
      "name": "MinterApplied",
      "type": "event"
    },
    {
      "anonymous": false,
      "inputs": [
        {
          "indexed": true,
          "internalType": "address",
          "name": "minter",
          "type": "address"
        },
        {
          "indexed": false,
          "internalType": "string",
          "name": "message",
          "type": "string"
        }
      ],
      "name": "MinterDenied",
      "type": "event"
    },
    {
      "anonymous": false,
      "inputs": [
        {
          "indexed": true,
          "internalType": "address",
          "name": "reportingMinter",
          "type": "address"
        },
        {
          "indexed": false,
          "internalType": "uint256",
          "name": "amount",
          "type": "uint256"
        }
      ],
      "name": "Profit",
      "type": "event"
    },
    {
      "anonymous": false,
      "inputs": [
        {
          "indexed": true,
          "internalType": "address",
          "name": "from",
          "type": "address"
        },
        {
          "indexed": false,
          "internalType": "uint64",
          "name": "toChain",
          "type": "uint64"
        },
        {
          "indexed": true,
          "internalType": "bytes",
          "name": "to",
          "type": "bytes"
        },
        {
          "indexed": false,
          "internalType": "uint256",
          "name": "value",
          "type": "uint256"
        }
      ],
      "name": "Transfer",
      "type": "event"
    },
    {
      "anonymous": false,
      "inputs": [
        {
          "indexed": true,
          "internalType": "address",
          "name": "from",
          "type": "address"
        },
        {
          "indexed": true,
          "internalType": "address",
          "name": "to",
          "type": "address"
        },
        {
          "indexed": false,
          "internalType": "uint256",
          "name": "value",
          "type": "uint256"
        }
      ],
      "name": "Transfer",
      "type": "event"
    },
    {
      "inputs": [],
      "name": "BRIDGE_ACCOUNTING",
      "outputs": [
        {
          "internalType": "address",
          "name": "",
          "type": "address"
        }
      ],
      "stateMutability": "view",
      "type": "function"
    },
    {
      "inputs": [],
      "name": "CCIP_ADMIN",
      "outputs": [
        {
          "internalType": "address",
          "name": "",
          "type": "address"
        }
      ],
      "stateMutability": "view",
      "type": "function"
    },
    {
      "inputs": [],
      "name": "DOMAIN_SEPARATOR",
      "outputs": [
        {
          "internalType": "bytes32",
          "name": "",
          "type": "bytes32"
        }
      ],
      "stateMutability": "view",
      "type": "function"
    },
    {
      "inputs": [],
      "name": "LINK",
      "outputs": [
        {
          "internalType": "address",
          "name": "",
          "type": "address"
        }
      ],
      "stateMutability": "view",
      "type": "function"
    },
    {
      "inputs": [],
      "name": "MAINNET_CHAIN_SELECTOR",
      "outputs": [
        {
          "internalType": "uint64",
          "name": "",
          "type": "uint64"
        }
      ],
      "stateMutability": "view",
      "type": "function"
    },
    {
      "inputs": [],
      "name": "MIN_APPLICATION_PERIOD",
      "outputs": [
        {
          "internalType": "uint256",
          "name": "",
          "type": "uint256"
        }
      ],
      "stateMutability": "view",
      "type": "function"
    },
    {
      "inputs": [],
      "name": "MIN_FEE",
      "outputs": [
        {
          "internalType": "uint256",
          "name": "",
          "type": "uint256"
        }
      ],
      "stateMutability": "view",
      "type": "function"
    },
    {
      "inputs": [],
      "name": "ROUTER",
      "outputs": [
        {
          "internalType": "contract IRouterClient",
          "name": "",
          "type": "address"
        }
      ],
      "stateMutability": "view",
      "type": "function"
    },
    {
      "inputs": [],
      "name": "accruedLoss",
      "outputs": [
        {
          "internalType": "uint256",
          "name": "",
          "type": "uint256"
        }
      ],
      "stateMutability": "view",
      "type": "function"
    },
    {
      "inputs": [
        {
          "internalType": "address",
          "name": "owner",
          "type": "address"
        },
        {
          "internalType": "address",
          "name": "spender",
          "type": "address"
        }
      ],
      "name": "allowance",
      "outputs": [
        {
          "internalType": "uint256",
          "name": "",
          "type": "uint256"
        }
      ],
      "stateMutability": "view",
      "type": "function"
    },
    {
      "inputs": [
        {
          "internalType": "address",
          "name": "spender",
          "type": "address"
        },
        {
          "internalType": "uint256",
          "name": "value",
          "type": "uint256"
        }
      ],
      "name": "approve",
      "outputs": [
        {
          "internalType": "bool",
          "name": "",
          "type": "bool"
        }
      ],
      "stateMutability": "nonpayable",
      "type": "function"
    },
    {
      "inputs": [
        {
          "internalType": "address",
          "name": "account",
          "type": "address"
        }
      ],
      "name": "balanceOf",
      "outputs": [
        {
          "internalType": "uint256",
          "name": "",
          "type": "uint256"
        }
      ],
      "stateMutability": "view",
      "type": "function"
    },
    {
      "inputs": [
        {
          "internalType": "uint256",
          "name": "_amount",
          "type": "uint256"
        }
      ],
      "name": "burn",
      "outputs": [],
      "stateMutability": "nonpayable",
      "type": "function"
    },
    {
      "inputs": [
        {
          "internalType": "address",
          "name": "_owner",
          "type": "address"
        },
        {
          "internalType": "uint256",
          "name": "_amount",
          "type": "uint256"
        }
      ],
      "name": "burnFrom",
      "outputs": [],
      "stateMutability": "nonpayable",
      "type": "function"
    },
    {
      "inputs": [
        {
          "internalType": "address",
          "name": "_minterOrPosition",
          "type": "address"
        }
      ],
      "name": "canMint",
      "outputs": [
        {
          "internalType": "bool",
          "name": "",
          "type": "bool"
        }
      ],
      "stateMutability": "view",
      "type": "function"
    },
    {
      "inputs": [
        {
          "internalType": "address",
          "name": "source",
          "type": "address"
        },
        {
          "internalType": "uint256",
          "name": "_amount",
          "type": "uint256"
        }
      ],
      "name": "collectProfits",
      "outputs": [],
      "stateMutability": "nonpayable",
      "type": "function"
    },
    {
      "inputs": [
        {
          "internalType": "address",
          "name": "source",
          "type": "address"
        },
        {
          "internalType": "uint256",
          "name": "_amount",
          "type": "uint256"
        }
      ],
      "name": "coverLoss",
      "outputs": [],
      "stateMutability": "nonpayable",
      "type": "function"
    },
    {
      "inputs": [],
      "name": "decimals",
      "outputs": [
        {
          "internalType": "uint8",
          "name": "",
          "type": "uint8"
        }
      ],
      "stateMutability": "view",
      "type": "function"
    },
    {
      "inputs": [
        {
          "internalType": "address",
          "name": "_minter",
          "type": "address"
        },
        {
          "internalType": "address[]",
          "name": "_helpers",
          "type": "address[]"
        },
        {
          "internalType": "string",
          "name": "_message",
          "type": "string"
        }
      ],
      "name": "denyMinter",
      "outputs": [],
      "stateMutability": "nonpayable",
      "type": "function"
    },
    {
      "inputs": [],
      "name": "getCCIPAdmin",
      "outputs": [
        {
          "internalType": "address",
          "name": "",
          "type": "address"
        }
      ],
      "stateMutability": "view",
      "type": "function"
    },
    {
      "inputs": [
        {
          "internalType": "address",
          "name": "_position",
          "type": "address"
        }
      ],
      "name": "getPositionParent",
      "outputs": [
        {
          "internalType": "address",
          "name": "",
          "type": "address"
        }
      ],
      "stateMutability": "view",
      "type": "function"
    },
    {
      "inputs": [
        {
          "internalType": "address[]",
          "name": "_minters",
          "type": "address[]"
        },
        {
          "internalType": "string[]",
          "name": "_messages",
          "type": "string[]"
        }
      ],
      "name": "initialize",
      "outputs": [],
      "stateMutability": "nonpayable",
      "type": "function"
    },
    {
      "inputs": [],
      "name": "initialized",
      "outputs": [
        {
          "internalType": "bool",
          "name": "",
          "type": "bool"
        }
      ],
      "stateMutability": "view",
      "type": "function"
    },
    {
      "inputs": [
        {
          "internalType": "address",
          "name": "_minter",
          "type": "address"
        }
      ],
      "name": "isMinter",
      "outputs": [
        {
          "internalType": "bool",
          "name": "",
          "type": "bool"
        }
      ],
      "stateMutability": "view",
      "type": "function"
    },
    {
      "inputs": [
        {
          "internalType": "address",
          "name": "_target",
          "type": "address"
        },
        {
          "internalType": "uint256",
          "name": "_amount",
          "type": "uint256"
        }
      ],
      "name": "mint",
      "outputs": [],
      "stateMutability": "nonpayable",
      "type": "function"
    },
    {
      "inputs": [
        {
          "internalType": "address",
          "name": "minter",
          "type": "address"
        }
      ],
      "name": "minters",
      "outputs": [
        {
          "internalType": "uint256",
          "name": "validityStart",
          "type": "uint256"
        }
      ],
      "stateMutability": "view",
      "type": "function"
    },
    {
      "inputs": [],
      "name": "name",
      "outputs": [
        {
          "internalType": "string",
          "name": "",
          "type": "string"
        }
      ],
      "stateMutability": "pure",
      "type": "function"
    },
    {
      "inputs": [
        {
          "internalType": "address",
          "name": "account",
          "type": "address"
        }
      ],
      "name": "nonces",
      "outputs": [
        {
          "internalType": "uint256",
          "name": "nonce",
          "type": "uint256"
        }
      ],
      "stateMutability": "view",
      "type": "function"
    },
    {
      "inputs": [
        {
          "internalType": "address",
          "name": "owner",
          "type": "address"
        },
        {
          "internalType": "address",
          "name": "spender",
          "type": "address"
        },
        {
          "internalType": "uint256",
          "name": "value",
          "type": "uint256"
        },
        {
          "internalType": "uint256",
          "name": "deadline",
          "type": "uint256"
        },
        {
          "internalType": "uint8",
          "name": "v",
          "type": "uint8"
        },
        {
          "internalType": "bytes32",
          "name": "r",
          "type": "bytes32"
        },
        {
          "internalType": "bytes32",
          "name": "s",
          "type": "bytes32"
        }
      ],
      "name": "permit",
      "outputs": [],
      "stateMutability": "nonpayable",
      "type": "function"
    },
    {
      "inputs": [
        {
          "internalType": "address",
          "name": "position",
          "type": "address"
        }
      ],
      "name": "positions",
      "outputs": [
        {
          "internalType": "address",
          "name": "registeringMinter",
          "type": "address"
        }
      ],
      "stateMutability": "view",
      "type": "function"
    },
    {
      "inputs": [
        {
          "internalType": "address",
          "name": "_position",
          "type": "address"
        }
      ],
      "name": "registerPosition",
      "outputs": [],
      "stateMutability": "nonpayable",
      "type": "function"
    },
    {
      "inputs": [],
      "name": "reserve",
      "outputs": [
        {
          "internalType": "contract IGovernance",
          "name": "",
          "type": "address"
        }
      ],
      "stateMutability": "view",
      "type": "function"
    },
    {
      "inputs": [
        {
          "internalType": "address",
          "name": "_minter",
          "type": "address"
        },
        {
          "internalType": "uint256",
          "name": "_applicationPeriod",
          "type": "uint256"
        },
        {
          "internalType": "uint256",
          "name": "_applicationFee",
          "type": "uint256"
        },
        {
          "internalType": "string",
          "name": "_message",
          "type": "string"
        }
      ],
      "name": "suggestMinter",
      "outputs": [],
      "stateMutability": "nonpayable",
      "type": "function"
    },
    {
      "inputs": [],
      "name": "symbol",
      "outputs": [
        {
          "internalType": "string",
          "name": "",
          "type": "string"
        }
      ],
      "stateMutability": "pure",
      "type": "function"
    },
    {
      "inputs": [
        {
          "components": [
            {
              "internalType": "uint256",
              "name": "gasLimit",
              "type": "uint256"
            },
            {
              "internalType": "bool",
              "name": "allowOutOfOrderExecution",
              "type": "bool"
            }
          ],
          "internalType": "struct Client.EVMExtraArgsV2",
          "name": "extraArgs",
          "type": "tuple"
        }
      ],
      "name": "synchronizeAccounting",
      "outputs": [],
      "stateMutability": "payable",
      "type": "function"
    },
    {
      "inputs": [
        {
          "internalType": "bytes",
          "name": "extraArgs",
          "type": "bytes"
        }
      ],
      "name": "synchronizeAccounting",
      "outputs": [],
      "stateMutability": "payable",
      "type": "function"
    },
    {
      "inputs": [],
      "name": "synchronizeAccounting",
      "outputs": [],
      "stateMutability": "payable",
      "type": "function"
    },
    {
      "inputs": [],
      "name": "totalSupply",
      "outputs": [
        {
          "internalType": "uint256",
          "name": "",
          "type": "uint256"
        }
      ],
      "stateMutability": "view",
      "type": "function"
    },
    {
      "inputs": [
        {
          "internalType": "uint64",
          "name": "targetChain",
          "type": "uint64"
        },
        {
          "internalType": "address",
          "name": "target",
          "type": "address"
        },
        {
          "internalType": "uint256",
          "name": "amount",
          "type": "uint256"
        },
        {
          "components": [
            {
              "internalType": "uint256",
              "name": "gasLimit",
              "type": "uint256"
            },
            {
              "internalType": "bool",
              "name": "allowOutOfOrderExecution",
              "type": "bool"
            }
          ],
          "internalType": "struct Client.EVMExtraArgsV2",
          "name": "extraArgs",
          "type": "tuple"
        }
      ],
      "name": "transfer",
      "outputs": [],
      "stateMutability": "payable",
      "type": "function"
    },
    {
      "inputs": [
        {
          "internalType": "uint64",
          "name": "targetChain",
          "type": "uint64"
        },
        {
          "internalType": "bytes",
          "name": "target",
          "type": "bytes"
        },
        {
          "internalType": "uint256",
          "name": "amount",
          "type": "uint256"
        },
        {
          "internalType": "bytes",
          "name": "extraArgs",
          "type": "bytes"
        }
      ],
      "name": "transfer",
      "outputs": [],
      "stateMutability": "payable",
      "type": "function"
    },
    {
      "inputs": [
        {
          "internalType": "address",
          "name": "recipient",
          "type": "address"
        },
        {
          "internalType": "uint256",
          "name": "amount",
          "type": "uint256"
        }
      ],
      "name": "transfer",
      "outputs": [
        {
          "internalType": "bool",
          "name": "",
          "type": "bool"
        }
      ],
      "stateMutability": "nonpayable",
      "type": "function"
    },
    {
      "inputs": [
        {
          "internalType": "uint64",
          "name": "targetChain",
          "type": "uint64"
        },
        {
          "internalType": "address",
          "name": "target",
          "type": "address"
        },
        {
          "internalType": "uint256",
          "name": "amount",
          "type": "uint256"
        }
      ],
      "name": "transfer",
      "outputs": [],
      "stateMutability": "payable",
      "type": "function"
    },
    {
      "inputs": [
        {
          "internalType": "address",
          "name": "sender",
          "type": "address"
        },
        {
          "internalType": "address",
          "name": "recipient",
          "type": "address"
        },
        {
          "internalType": "uint256",
          "name": "amount",
          "type": "uint256"
        }
      ],
      "name": "transferFrom",
      "outputs": [
        {
          "internalType": "bool",
          "name": "",
          "type": "bool"
        }
      ],
      "stateMutability": "nonpayable",
      "type": "function"
    }
  ],
  "transactionHash": "0x8584da2a082ec1b7359df5e7e7f5865283229eed68a21dd36388dd191551522a",
  "args": [
    "0xaCE43f0faaf47a04fD62167c423aAC8102181aeC",
    "0x9C32fCB86BF0f4a1A8921a9Fe46de3198bb884B2",
    900,
    "0x0Fd9e8d3aF1aaee056EB9e802c3A762a667b1904",
    "16015286601757825753",
    "0x3bF23a52590C2DF855bDbA748489C5fbBA54da12",
    "0x23879A2CD236D5977D934171289c60E9Cbe471E8"
  ],
  "numDeployments": 2,
  "solcInputHash": "b0890394f7104598b97a3ab1d8979fdc",
  "bytecode": "0x6101806040523480156200001257600080fd5b5060405162002c9738038062002c97833981016040819052620000359162000094565b60126080526001600160a01b0395861660a05292851660c05260e093909352938316610160526001600160401b039093166101205281166101005216610140526200013e565b6001600160a01b03811681146200009157600080fd5b50565b600080600080600080600060e0888a031215620000b057600080fd5b8751620000bd816200007b565b6020890151909750620000d0816200007b565b604089015160608a01519197509550620000ea816200007b565b60808901519094506001600160401b03811681146200010857600080fd5b60a08901519093506200011b816200007b565b60c08901519092506200012e816200007b565b8091505092959891949750929550565b60805160a05160c05160e05161010051610120516101405161016051612a6062000237600039600081816107dc01528181610c2101528181610dba01528181610e04015281816111380152818161119d015281816111d001528181611eb901528181611f0501528181611f3c015261205b01526000818161030d015261060d01526000818161075d0152610f300152600081816106430152610edb01526000818161039d0152610fdb0152600081816103d1015261214901526000818161046b01528181610a6701528181610e3001528181611b6d01528181611c0201528181611dc701526120c5015260006104250152612a606000f3fe60806040526004361061025c5760003560e01c806379cc679011610144578063c2ba4744116100b6578063d1a15ff11161007a578063d1a15ff114610819578063d1fa5e9814610839578063d505accf14610859578063dd62ed3e14610879578063e043684214610899578063f46eccc4146108b957600080fd5b8063c2ba474414610797578063c6fede7d146107b7578063cd3293de146107ca578063d15dcd62146107fe578063d1975e6a1461081157600080fd5b80639b404da6116101085780639b404da614610692578063a9059cbb146106b2578063aa271e1a146106d2578063aa5dd7f1146106f2578063b52c696d1461072b578063c038e2981461074b57600080fd5b806379cc6790146105b15780637ecebe00146105d15780638fd6a6ac146105fe57806394b936901461063157806395d89b411461066557600080fd5b8063313ce567116101dd57806352d48abe116101a157806352d48abe146104e257806355f57510146104f55780636b2242e11461052b5780636ebdb8ee1461053e57806370a082311461055e57806376c7a3c71461059457600080fd5b8063313ce5671461041357806332fe7b26146104595780633644e5151461048d57806340c10f19146104a257806342966c68146104c257600080fd5b806318160ddd1161022457806318160ddd1461036157806319e3c428146103765780631a46c7e91461038b5780631b6b6d23146103bf57806323b872dd146103f357600080fd5b806306fdde0314610261578063095ea7b3146102a75780630e57bc7d146102d757806311838010146102fb578063158ef93e14610347575b600080fd5b34801561026d57600080fd5b5060408051808201909152600b81526a233930b735b2b731b7b4b760a91b60208201525b60405161029e91906121f9565b60405180910390f35b3480156102b357600080fd5b506102c76102c2366004612228565b6108e6565b604051901515815260200161029e565b3480156102e357600080fd5b506102ed60065481565b60405190815260200161029e565b34801561030757600080fd5b5061032f7f000000000000000000000000000000000000000000000000000000000000000081565b6040516001600160a01b03909116815260200161029e565b34801561035357600080fd5b506007546102c79060ff1681565b34801561036d57600080fd5b506002546102ed565b610389610384366004612281565b6108fd565b005b34801561039757600080fd5b506102ed7f000000000000000000000000000000000000000000000000000000000000000081565b3480156103cb57600080fd5b5061032f7f000000000000000000000000000000000000000000000000000000000000000081565b3480156103ff57600080fd5b506102c761040e3660046122cf565b61096d565b34801561041f57600080fd5b506104477f000000000000000000000000000000000000000000000000000000000000000081565b60405160ff909116815260200161029e565b34801561046557600080fd5b5061032f7f000000000000000000000000000000000000000000000000000000000000000081565b34801561049957600080fd5b506102ed61098f565b3480156104ae57600080fd5b506103896104bd366004612228565b6109e8565b3480156104ce57600080fd5b506103896104dd36600461230b565b610a49565b6103896104f03660046123c6565b610a56565b34801561050157600080fd5b5061032f610510366004612443565b6005602052600090815260409020546001600160a01b031681565b61038961053936600461245e565b610b01565b34801561054a57600080fd5b50610389610559366004612228565b610b16565b34801561056a57600080fd5b506102ed610579366004612443565b6001600160a01b031660009081526020819052604090205490565b3480156105a057600080fd5b506102ed683635c9adc5dea0000081565b3480156105bd57600080fd5b506103896105cc366004612228565b610b74565b3480156105dd57600080fd5b506102ed6105ec366004612443565b60036020526000908152604090205481565b34801561060a57600080fd5b507f000000000000000000000000000000000000000000000000000000000000000061032f565b34801561063d57600080fd5b5061032f7f000000000000000000000000000000000000000000000000000000000000000081565b34801561067157600080fd5b506040805180820190915260048152632d21a42360e11b6020820152610291565b34801561069e57600080fd5b506103896106ad3660046124ff565b610bd1565b3480156106be57600080fd5b506102c76106cd366004612228565b610ce6565b3480156106de57600080fd5b506102c76106ed366004612443565b610cf3565b3480156106fe57600080fd5b5061032f61070d366004612443565b6001600160a01b039081166000908152600560205260409020541690565b34801561073757600080fd5b50610389610746366004612443565b610d34565b34801561075757600080fd5b5061077f7f000000000000000000000000000000000000000000000000000000000000000081565b6040516001600160401b03909116815260200161029e565b3480156107a357600080fd5b506102c76107b2366004612443565b610d83565b6103896107c536600461257f565b610db8565b3480156107d657600080fd5b5061032f7f000000000000000000000000000000000000000000000000000000000000000081565b61038961080c3660046125bb565b610f97565b610389610fbf565b34801561082557600080fd5b506103896108343660046125d9565b610fd9565b34801561084557600080fd5b50610389610854366004612228565b6110e3565b34801561086557600080fd5b5061038961087436600461262f565b61123e565b34801561088557600080fd5b506102ed6108943660046126a2565b611433565b3480156108a557600080fd5b506103896108b43660046126d5565b611446565b3480156108c557600080fd5b506102ed6108d4366004612443565b60046020526000908152604090205481565b60006108f3338484611586565b5060015b92915050565b6109678461090a856115e8565b846104f061091d3687900387018761274e565b6040805182516024820152602092830151151560448083019190915282518083039091018152606490910190915290810180516001600160e01b0316630181dcf160e41b17905290565b50505050565b600061097a848484611615565b61098584338461172c565b5060019392505050565b604080517f47e79534a245952e8b16893a336b85a3d9ea9fa8c573f3d803afb92a794692186020820152469181019190915230606082015260009060800160405160208183030381529060405280519060200120905090565b6109f133610cf3565b158015610a1d575033600090815260056020526040902054610a1b906001600160a01b0316610cf3565b155b15610a3b57604051633e34a41b60e21b815260040160405180910390fd5b610a458282611794565b5050565b610a533382611831565b50565b610a61333084611615565b610a8c307f000000000000000000000000000000000000000000000000000000000000000084611586565b610aa084610a9b8585856118b3565b61195b565b505082604051610ab091906127a3565b604080519182900382206001600160401b0387168352602083018590529133917f7895812be6b9a01617f760055105f506b5e2f6dff79ff3170e4fdb3391fc0023910160405180910390a350505050565b610a536107c561091d3684900384018461274e565b610b1f33610cf3565b158015610b4b575033600090815260056020526040902054610b49906001600160a01b0316610cf3565b155b15610b6957604051633e34a41b60e21b815260040160405180910390fd5b610a45338383611eb3565b610b7d33610cf3565b158015610ba9575033600090815260056020526040902054610ba7906001600160a01b0316610cf3565b155b15610bc757604051633e34a41b60e21b815260040160405180910390fd5b610a458282611831565b6001600160a01b038516600090815260046020526040902054421115610c0a5760405163ecdd1c2960e01b815260040160405180910390fd5b60405163352e3a8360e01b81526001600160a01b037f0000000000000000000000000000000000000000000000000000000000000000169063352e3a8390610c5a903390889088906004016127bf565b60006040518083038186803b158015610c7257600080fd5b505afa158015610c86573d6000803e3d6000fd5b505050506001600160a01b03851660008181526004602052604080822091909155517fd60c86e83346fdbe3124cb7d1cba32973a9f62d05c4ec801bfe6c09d1038038190610cd79085908590612842565b60405180910390a25050505050565b60006108f3338484611615565b6001600160a01b038116600090815260046020526040812054158015906108f75750506001600160a01b031660009081526004602052604090205442101590565b610d3d33610cf3565b610d5a57604051633e34a41b60e21b815260040160405180910390fd5b6001600160a01b0316600090815260056020526040902080546001600160a01b03191633179055565b6000610d8e82610cf3565b806108f757506001600160a01b038083166000908152600560205260409020546108f79116610cf3565b7f00000000000000000000000000000000000000000000000000000000000000006001600160a01b031660009081526020819052604081205460068054929055908115610e5557610e2a7f00000000000000000000000000000000000000000000000000000000000000003084611615565b610e55307f000000000000000000000000000000000000000000000000000000000000000084611586565b604080516001808252818301909252600091816020015b6040805180820190915260008082526020820152815260200190600190039081610e6c5790505090506040518060400160405280306001600160a01b031681526020018481525081600081518110610ec657610ec6612856565b60200260200101819052506000610f29610eff7f00000000000000000000000000000000000000000000000000000000000000006115e8565b60408051602081018890529081018690526060016040516020818303038152906040528488611fa4565b9050610f557f00000000000000000000000000000000000000000000000000000000000000008261195b565b505060408051858152602081018590527f780ad21fb95421fd83047aa9bb3506c2aea4c8d383daa4476e66d56606632dc2910160405180910390a15050505050565b610fba83610fa4846115e8565b8360405180602001604052806000815250610a56565b505050565b610fd760405180602001604052806000815250610db8565b565b7f000000000000000000000000000000000000000000000000000000000000000084101561101a57604051631260d0af60e31b815260040160405180910390fd5b683635c9adc5dea000008310156110445760405163732f941360e01b815260040160405180910390fd5b6001600160a01b0385166000908152600460205260409020541561107b57604051630ea075bf60e21b815260040160405180910390fd5b611086303385611eb3565b6110908442612882565b6001600160a01b038616600081815260046020526040908190209290925590517f97326258efdae63280617ca33884e507791c2abeed7b82acd77f1853394ef94b90610cd7908790879087908790612895565b6110ec33610cf3565b158015611118575033600090815260056020526040902054611116906001600160a01b0316610cf3565b155b1561113657604051633e34a41b60e21b815260040160405180910390fd5b7f00000000000000000000000000000000000000000000000000000000000000006001600160a01b0316600090815260208190526040902054808211156111cb5761118181836128bf565b600660008282546111929190612882565b909155506111cb90507f00000000000000000000000000000000000000000000000000000000000000006111c683856128bf565b611794565b6111f67f00000000000000000000000000000000000000000000000000000000000000008484611615565b826001600160a01b03167f72fba0ba07d937c660a3130fca36005c0e476cb97b6f00de413976e37eba95018360405161123191815260200190565b60405180910390a2505050565b428410156112935760405162461bcd60e51b815260206004820152601760248201527f5045524d49545f444541444c494e455f4558504952454400000000000000000060448201526064015b60405180910390fd5b6000600161129f61098f565b6001600160a01b038a811660008181526003602090815260409182902080546001810190915582517f6e71edae12b1b97f4d1f60370fef10105fa2faae0126114a169c64845d6126c98184015280840194909452938d166060840152608083018c905260a083019390935260c08083018b90528151808403909101815260e08301909152805192019190912061190160f01b6101008301526101028201929092526101228101919091526101420160408051601f198184030181528282528051602091820120600084529083018083525260ff871690820152606081018590526080810184905260a0016020604051602081039080840390855afa1580156113ab573d6000803e3d6000fd5b5050604051601f1901519150506001600160a01b038116158015906113e15750876001600160a01b0316816001600160a01b0316145b61141e5760405162461bcd60e51b815260206004820152600e60248201526d24a72b20a624a22fa9a4a3a722a960911b604482015260640161128a565b611429818888611586565b5050505050505050565b600061143f8383611feb565b9392505050565b60075460ff16156114695760405162dc149f60e41b815260040160405180910390fd5b8281146114895760405163b4fa3fb360e01b815260040160405180910390fd5b60005b838110156115725742600460008787858181106114ab576114ab612856565b90506020020160208101906114c09190612443565b6001600160a01b031681526020810191909152604001600020558484828181106114ec576114ec612856565b90506020020160208101906115019190612443565b6001600160a01b03167f97326258efdae63280617ca33884e507791c2abeed7b82acd77f1853394ef94b60008086868681811061154057611540612856565b905060200281019061155291906128d2565b6040516115629493929190612895565b60405180910390a260010161148c565b50506007805460ff19166001179055505050565b6001600160a01b0383811660008181526001602090815260408083209487168084529482529182902085905590518481527f8c5be1e5ebec7d5bd14f71427d1e84f3dd0314c0f7b2291e5b200ac8c7c3b92591015b60405180910390a3505050565b604080516001600160a01b0383166020820152606091016040516020818303038152906040529050919050565b6001600160a01b03821661162857600080fd5b6001600160a01b03831660009081526020819052604090205481111561168b576001600160a01b0383166000818152602081905260409081902054905163391434e360e21b8152600481019290925260248201526044810182905260640161128a565b6001600160a01b038316600090815260208190526040812080548392906116b39084906128bf565b90915550506001600160a01b038216600090815260208190526040812080548392906116e0908490612882565b92505081905550816001600160a01b0316836001600160a01b03167fddf252ad1be2c89b69c2b068fc378daa952ba7f163c4a11628f55a4df523b3ef836040516115db91815260200190565b60006117388484611feb565b9050600160ff1b811015610967578181101561178057604051637dc7a0d960e11b81526001600160a01b0385166004820152602481018290526044810183905260640161128a565b610967848461178f85856128bf565b611586565b6001600160a01b0382166117a757600080fd5b80600260008282546117b99190612882565b90915550506001600160a01b038216600090815260208190526040812080548392906117e6908490612882565b90915550506040518181526001600160a01b038316906000907fddf252ad1be2c89b69c2b068fc378daa952ba7f163c4a11628f55a4df523b3ef906020015b60405180910390a35050565b806002600082825461184391906128bf565b90915550506001600160a01b038216600090815260208190526040812080548392906118709084906128bf565b90915550506040518181526000906001600160a01b038416907fddf252ad1be2c89b69c2b068fc378daa952ba7f163c4a11628f55a4df523b3ef90602001611825565b6118bb612171565b604080516001808252818301909252600091816020015b60408051808201909152600080825260208201528152602001906001900390816118d25790505090506040518060400160405280306001600160a01b03168152602001858152508160008151811061192c5761192c612856565b602002602001018190525061195285604051806020016040528060008152508386611fa4565b95945050505050565b600080600061196a85856120ab565b60608501519091506000906001600160a01b031615611d775760608501516040516370a0823160e01b815233600482015283916001600160a01b0316906370a0823190602401602060405180830381865afa1580156119cd573d6000803e3d6000fd5b505050506040513d601f19601f820116820180604052508101906119f19190612918565b1015611a285760608501516040516346d55cf960e01b81526001600160a01b0390911660048201526024810183905260440161128a565b6060850151604051636eb1769f60e11b815233600482015230602482015283916001600160a01b03169063dd62ed3e90604401602060405180830381865afa158015611a78573d6000803e3d6000fd5b505050506040513d601f19601f82011682018060405250810190611a9c9190612918565b1015611ad357606085015160405163def222f760e01b81526001600160a01b0390911660048201526024810183905260440161128a565b60608501516040516323b872dd60e01b8152336004820152306024820152604481018490526001600160a01b03909116906323b872dd906064016020604051808303816000875af1158015611b2c573d6000803e3d6000fd5b505050506040513d601f19601f82011682018060405250810190611b509190612931565b50606085015160405163095ea7b360e01b81526001600160a01b037f000000000000000000000000000000000000000000000000000000000000000081166004830152602482018590529091169063095ea7b3906044016020604051808303816000875af1158015611bc6573d6000803e3d6000fd5b505050506040513d601f19601f82011682018060405250810190611bea9190612931565b506040516396f4e9f960e01b81526001600160a01b037f000000000000000000000000000000000000000000000000000000000000000016906396f4e9f990611c39908990899060040161294e565b6020604051808303816000875af1158015611c58573d6000803e3d6000fd5b505050506040513d601f19601f82011682018060405250810190611c7c9190612918565b60608601516040516370a0823160e01b81523060048201529192506000916001600160a01b03909116906370a0823190602401602060405180830381865afa158015611ccc573d6000803e3d6000fd5b505050506040513d601f19601f82011682018060405250810190611cf09190612918565b90508015611d7157606086015160405163a9059cbb60e01b8152336004820152602481018390526001600160a01b039091169063a9059cbb906044016020604051808303816000875af1158015611d4b573d6000803e3d6000fd5b505050506040513d601f19601f82011682018060405250810190611d6f9190612931565b505b50611ea7565b81341015611db05760608501516040516346d55cf960e01b81526001600160a01b0390911660048201526024810183905260440161128a565b6040516396f4e9f960e01b81526001600160a01b037f000000000000000000000000000000000000000000000000000000000000000016906396f4e9f9908490611e00908a908a9060040161294e565b60206040518083038185885af1158015611e1e573d6000803e3d6000fd5b50505050506040513d601f19601f82011682018060405250810190611e439190612918565b90506000611e5183346128bf565b1115611ea75733611e6283346128bf565b604051600081818185875af1925050503d8060008114611e9e576040519150601f19603f3d011682016040523d82523d6000602084013e611ea3565b606091505b5050505b925090505b9250929050565b611ede827f000000000000000000000000000000000000000000000000000000000000000083611615565b806006541115611f2f578060066000828254611efa91906128bf565b90915550611f2a90507f000000000000000000000000000000000000000000000000000000000000000082611831565b611f69565b60065415611f6957611f637f0000000000000000000000000000000000000000000000000000000000000000600654611831565b60006006555b826001600160a01b03167f5314098314219d6e1ce8e41fc5e6ec1ce2f06a9d583079fb6619af9bf6efdf418260405161123191815260200190565b611fac612171565b6040518060a00160405280868152602001858152602001848152602001611fd161213d565b6001600160a01b0316815260200192909252509392505050565b6001600160a01b03808316600090815260016020908152604080832093851683529290529081205480156120205790506108f7565b61202983610cf3565b8061205357506001600160a01b038084166000908152600560205260409020546120539116610cf3565b8061208f57507f00000000000000000000000000000000000000000000000000000000000000006001600160a01b0316836001600160a01b0316145b156120a157600160ff1b9150506108f7565b60009150506108f7565b6040516320487ded60e01b81526000906001600160a01b037f000000000000000000000000000000000000000000000000000000000000000016906320487ded906120fc908690869060040161294e565b602060405180830381865afa158015612119573d6000803e3d6000fd5b505050506040513d601f19601f8201168201806040525081019061143f9190612918565b600080341161216b57507f000000000000000000000000000000000000000000000000000000000000000090565b50600090565b6040518060a0016040528060608152602001606081526020016060815260200160006001600160a01b03168152602001606081525090565b60005b838110156121c45781810151838201526020016121ac565b50506000910152565b600081518084526121e58160208601602086016121a9565b601f01601f19169290920160200192915050565b60208152600061143f60208301846121cd565b80356001600160a01b038116811461222357600080fd5b919050565b6000806040838503121561223b57600080fd5b6122448361220c565b946020939093013593505050565b80356001600160401b038116811461222357600080fd5b60006040828403121561227b57600080fd5b50919050565b60008060008060a0858703121561229757600080fd5b6122a085612252565b93506122ae6020860161220c565b9250604085013591506122c48660608701612269565b905092959194509250565b6000806000606084860312156122e457600080fd5b6122ed8461220c565b92506122fb6020850161220c565b9150604084013590509250925092565b60006020828403121561231d57600080fd5b5035919050565b634e487b7160e01b600052604160045260246000fd5b600082601f83011261234b57600080fd5b81356001600160401b038082111561236557612365612324565b604051601f8301601f19908116603f0116810190828211818310171561238d5761238d612324565b816040528381528660208588010111156123a657600080fd5b836020870160208301376000602085830101528094505050505092915050565b600080600080608085870312156123dc57600080fd5b6123e585612252565b935060208501356001600160401b038082111561240157600080fd5b61240d8883890161233a565b945060408701359350606087013591508082111561242a57600080fd5b506124378782880161233a565b91505092959194509250565b60006020828403121561245557600080fd5b61143f8261220c565b60006040828403121561247057600080fd5b61143f8383612269565b60008083601f84011261248c57600080fd5b5081356001600160401b038111156124a357600080fd5b6020830191508360208260051b8501011115611eac57600080fd5b60008083601f8401126124d057600080fd5b5081356001600160401b038111156124e757600080fd5b602083019150836020828501011115611eac57600080fd5b60008060008060006060868803121561251757600080fd5b6125208661220c565b945060208601356001600160401b038082111561253c57600080fd5b61254889838a0161247a565b9096509450604088013591508082111561256157600080fd5b5061256e888289016124be565b969995985093965092949392505050565b60006020828403121561259157600080fd5b81356001600160401b038111156125a757600080fd5b6125b38482850161233a565b949350505050565b6000806000606084860312156125d057600080fd5b6122ed84612252565b6000806000806000608086880312156125f157600080fd5b6125fa8661220c565b9450602086013593506040860135925060608601356001600160401b0381111561262357600080fd5b61256e888289016124be565b600080600080600080600060e0888a03121561264a57600080fd5b6126538861220c565b96506126616020890161220c565b95506040880135945060608801359350608088013560ff8116811461268557600080fd5b9699959850939692959460a0840135945060c09093013592915050565b600080604083850312156126b557600080fd5b6126be8361220c565b91506126cc6020840161220c565b90509250929050565b600080600080604085870312156126eb57600080fd5b84356001600160401b038082111561270257600080fd5b61270e8883890161247a565b9096509450602087013591508082111561272757600080fd5b506127348782880161247a565b95989497509550505050565b8015158114610a5357600080fd5b60006040828403121561276057600080fd5b604051604081018181106001600160401b038211171561278257612782612324565b60405282358152602083013561279781612740565b60208201529392505050565b600082516127b58184602087016121a9565b9190910192915050565b6001600160a01b03848116825260406020808401829052908301849052600091859160608501845b8781101561280c57836127f98661220c565b16825293820193908201906001016127e7565b5098975050505050505050565b81835281816020850137506000828201602090810191909152601f909101601f19169091010190565b6020815260006125b3602083018486612819565b634e487b7160e01b600052603260045260246000fd5b634e487b7160e01b600052601160045260246000fd5b808201808211156108f7576108f761286c565b8481528360208201526060604082015260006128b5606083018486612819565b9695505050505050565b818103818111156108f7576108f761286c565b6000808335601e198436030181126128e957600080fd5b8301803591506001600160401b0382111561290357600080fd5b602001915036819003821315611eac57600080fd5b60006020828403121561292a57600080fd5b5051919050565b60006020828403121561294357600080fd5b815161143f81612740565b600060406001600160401b03851683526020604081850152845160a0604086015261297c60e08601826121cd565b905081860151603f198087840301606088015261299983836121cd565b6040890151888203830160808a01528051808352908601945060009350908501905b808410156129ed57845180516001600160a01b03168352860151868301529385019360019390930192908601906129bb565b5060608901516001600160a01b031660a08901526080890151888203830160c08a01529550612a1c81876121cd565b9a995050505050505050505056fea264697066735822122066681cacbd56ca8362fa9e7bd730a6824f5dfcc5ef1fbd2abff60fae2592cd9d64736f6c63430008180033",
  "devdoc": {
    "events": {
      "Approval(address,address,uint256)": {
        "details": "Emitted when the allowance of a `spender` for an `owner` is set by a call to `approve`. `value` is the new allowance."
      },
      "Transfer(address,address,uint256)": {
        "details": "Emitted when `value` tokens are moved from one account (`from`) to another (`to`). Note that `value` may be zero."
      }
    },
    "kind": "dev",
    "methods": {
      "allowance(address,address)": {
        "details": "See `IERC20.allowance`."
      },
      "approve(address,uint256)": {
        "details": "See `IERC20.approve`. Requirements: - `spender` cannot be the zero address."
      },
      "balanceOf(address)": {
        "details": "See `IERC20.balanceOf`."
      },
      "denyMinter(address,address[],string)": {
        "details": "Calling this function is relatively cheap thanks to the deletion of a storage slot."
      },
      "initialize(address[],string[])": {
        "details": "This function is only callable once.",
        "params": {
          "_messages": "List of messages that are displayed to the user when the minter is applied.",
          "_minters": "List of addresses that are allowed to mint Frankencoins."
        }
      },
      "registerPosition(address)": {
        "details": "It is assumed that the responsible minter that registers the position ensures that the position can be trusted."
      },
      "suggestMinter(address,uint256,uint256,string)": {
        "details": "The caller has to pay an application fee that is irrevocably lost even if the new minter is vetoed. The caller must assume that someone will veto the new minter unless there is broad consensus that the new minter adds value to the Frankencoin system. Complex proposals should have application periods and applications fees above the minimum. It is assumed that over time, informal ways to coordinate on new minters emerge. The message parameter might be useful for initiating further communication. Maybe it contains a link to a website describing the proposed minter.",
        "params": {
          "_applicationFee": "The fee paid by the caller, at least MIN_FEE",
          "_applicationPeriod": "The time others have to veto the suggestion, at least MIN_APPLICATION_PERIOD",
          "_message": "An optional human readable message to everyone watching this contract",
          "_minter": "An address that is given the permission to mint Frankencoins"
        }
      },
      "totalSupply()": {
        "details": "See `IERC20.totalSupply`."
      },
      "transfer(address,uint256)": {
        "details": "See `IERC20.transfer`. Requirements: - `recipient` cannot be the zero address. - the caller must have a balance of at least `amount`."
      },
      "transfer(uint64,address,uint256)": {
        "details": "Requires the caller to approve this contract to spend the tokens.",
        "params": {
          "amount": "The amount of tokens to transfer.",
          "target": "The address of the recipient on the destination chain.",
          "targetChain": "The chain selector of the destination chain."
        }
      },
      "transfer(uint64,address,uint256,(uint256,bool))": {
        "details": "Requires the caller to approve this contract to spend the tokens.",
        "params": {
          "amount": "The amount of tokens to transfer.",
          "extraArgs": "Extra arguments for CCIP",
          "target": "The address of the recipient on the destination chain.",
          "targetChain": "The chain selector of the destination chain."
        }
      },
      "transfer(uint64,bytes,uint256,bytes)": {
        "details": "Requires the caller to approve this contract to spend the tokens.",
        "params": {
          "amount": "The amount of tokens to transfer.",
          "extraArgs": "Extra arguments for CCIP",
          "target": "The address of the recipient on the destination chain.",
          "targetChain": "The chain selector of the destination chain."
        }
      },
      "transferFrom(address,address,uint256)": {
        "details": "See `IERC20.transferFrom`. Emits an `Approval` event indicating the updated allowance. This is not required by the EIP. See the note at the beginning of `ERC20`; Requirements: - `sender` and `recipient` cannot be the zero address. - `sender` must have a balance of at least `value`. - the caller must have allowance for `sender`'s tokens of at least `amount`."
      }
    },
    "title": "Bridged Frankencoin ERC-20 Token Like its mainnet counterpart, it has the capapbility to add minting modules. This allows to potentially add similar collateralized minting methods as in the mainnet Frankencoin. However, there is only one FPS, the one on mainnet and voting power has to be projected onto the side chains.",
    "version": 1
  },
  "userdoc": {
    "kind": "user",
    "methods": {
      "MIN_FEE()": {
        "notice": "Minimal fee and application period when suggesting a new minter."
      },
      "burn(uint256)": {
        "notice": "Anyone is allowed to burn their ZCHF."
      },
      "burnFrom(address,uint256)": {
        "notice": "Burn someone elses ZCHF."
      },
      "constructor": {
        "notice": "Initiates the Frankencoin with the provided minimum application period for new plugins in seconds, for example 10 days, i.e. 3600*24*10 = 864000"
      },
      "coverLoss(address,uint256)": {
        "notice": "Notify the Frankencoin that a minter lost economic access to some coins. This does not mean that the coins are literally lost. It just means that some ZCHF will likely never be repaid and that in order to bring the system back into balance, the lost amount of ZCHF must be removed from the reserve instead. For example, if a minter printed 1 million ZCHF for a mortgage and the mortgage turned out to be unsound with the house only yielding 800'000 in the subsequent auction, there is a loss of 200'000 that needs to be covered by the reserve."
      },
      "denyMinter(address,address[],string)": {
        "notice": "Qualified pool share holders can deny minters during the application period."
      },
      "getPositionParent(address)": {
        "notice": "Returns the address of the minter that created this position or null if the provided address is unknown."
      },
      "initialize(address[],string[])": {
        "notice": "Initializes the bridged Frankencoin token."
      },
      "isMinter(address)": {
        "notice": "Returns true if the address is an approved minter."
      },
      "minters(address)": {
        "notice": "Map of minters to approval time stamps. If the time stamp is in the past, the minter contract is allowed to mint Frankencoins."
      },
      "positions(address)": {
        "notice": "List of positions that are allowed to mint and the minter that registered them."
      },
      "registerPosition(address)": {
        "notice": "Allows minters to register collateralized debt positions, thereby giving them the ability to mint Frankencoins."
      },
      "reserve()": {
        "notice": "The contract that holds the reserve."
      },
      "suggestMinter(address,uint256,uint256,string)": {
        "notice": "Publicly accessible method to suggest a new way of minting Frankencoin."
      },
      "synchronizeAccounting(bytes)": {
        "notice": "Uses a multichain call to send home all accrued profits, if any"
      },
      "transfer(uint64,address,uint256)": {
        "notice": "Transfers tokens to the target chain"
      },
      "transfer(uint64,address,uint256,(uint256,bool))": {
        "notice": "Transfers tokens to the target chain"
      },
      "transfer(uint64,bytes,uint256,bytes)": {
        "notice": "Transfers tokens to the target chain"
      }
    },
    "version": 1
  },
  "storageLayout": {
    "storage": [
      {
        "astId": 2177,
        "contract": "contracts/stablecoin/BridgedFrankencoin.sol:BridgedFrankencoin",
        "label": "_balances",
        "offset": 0,
        "slot": "0",
        "type": "t_mapping(t_address,t_uint256)"
      },
      {
        "astId": 2183,
        "contract": "contracts/stablecoin/BridgedFrankencoin.sol:BridgedFrankencoin",
        "label": "_allowances",
        "offset": 0,
        "slot": "1",
        "type": "t_mapping(t_address,t_mapping(t_address,t_uint256))"
      },
      {
        "astId": 2191,
        "contract": "contracts/stablecoin/BridgedFrankencoin.sol:BridgedFrankencoin",
        "label": "_totalSupply",
        "offset": 0,
        "slot": "2",
        "type": "t_uint256"
      },
      {
        "astId": 2575,
        "contract": "contracts/stablecoin/BridgedFrankencoin.sol:BridgedFrankencoin",
        "label": "nonces",
        "offset": 0,
        "slot": "3",
        "type": "t_mapping(t_address,t_uint256)"
      },
      {
        "astId": 2828,
        "contract": "contracts/stablecoin/BridgedFrankencoin.sol:BridgedFrankencoin",
        "label": "minters",
        "offset": 0,
        "slot": "4",
        "type": "t_mapping(t_address,t_uint256)"
      },
      {
        "astId": 2833,
        "contract": "contracts/stablecoin/BridgedFrankencoin.sol:BridgedFrankencoin",
        "label": "positions",
        "offset": 0,
        "slot": "5",
        "type": "t_mapping(t_address,t_address)"
      },
      {
        "astId": 2835,
        "contract": "contracts/stablecoin/BridgedFrankencoin.sol:BridgedFrankencoin",
        "label": "accruedLoss",
        "offset": 0,
        "slot": "6",
        "type": "t_uint256"
      },
      {
        "astId": 2837,
        "contract": "contracts/stablecoin/BridgedFrankencoin.sol:BridgedFrankencoin",
        "label": "initialized",
        "offset": 0,
        "slot": "7",
        "type": "t_bool"
      }
    ],
    "types": {
      "t_address": {
        "encoding": "inplace",
        "label": "address",
        "numberOfBytes": "20"
      },
      "t_bool": {
        "encoding": "inplace",
        "label": "bool",
        "numberOfBytes": "1"
      },
      "t_mapping(t_address,t_address)": {
        "encoding": "mapping",
        "key": "t_address",
        "label": "mapping(address => address)",
        "numberOfBytes": "32",
        "value": "t_address"
      },
      "t_mapping(t_address,t_mapping(t_address,t_uint256))": {
        "encoding": "mapping",
        "key": "t_address",
        "label": "mapping(address => mapping(address => uint256))",
        "numberOfBytes": "32",
        "value": "t_mapping(t_address,t_uint256)"
      },
      "t_mapping(t_address,t_uint256)": {
        "encoding": "mapping",
        "key": "t_address",
        "label": "mapping(address => uint256)",
        "numberOfBytes": "32",
        "value": "t_uint256"
      },
      "t_uint256": {
        "encoding": "inplace",
        "label": "uint256",
        "numberOfBytes": "32"
      }
    }
  }
}