{
  "address": "0x9C4eFCfB1d880a06C6c14c397f0276AF1cB80Adf",
  "abi": [
    {
      "inputs": [
        {
          "internalType": "contract IFrankencoin",
          "name": "zchf_",
          "type": "address"
        },
        {
          "internalType": "address",
          "name": "router_",
          "type": "address"
        },
        {
          "internalType": "uint24",
          "name": "initialRatePPM",
          "type": "uint24"
        },
        {
          "internalType": "uint64",
          "name": "mainnetChainSelector",
          "type": "uint64"
        },
        {
          "internalType": "address",
          "name": "mainnetLeadrate",
          "type": "address"
        }
      ],
      "stateMutability": "nonpayable",
      "type": "constructor"
    },
    {
      "inputs": [
        {
          "internalType": "uint40",
          "name": "remainingSeconds",
          "type": "uint40"
        }
      ],
      "name": "FundsLocked",
      "type": "error"
    },
    {
      "inputs": [
        {
          "internalType": "address",
          "name": "router",
          "type": "address"
        }
      ],
      "name": "InvalidRouter",
      "type": "error"
    },
    {
      "inputs": [],
      "name": "InvalidSender",
      "type": "error"
    },
    {
      "inputs": [],
      "name": "InvalidSourceChain",
      "type": "error"
    },
    {
      "inputs": [],
      "name": "ModuleDisabled",
      "type": "error"
    },
    {
      "inputs": [
        {
          "internalType": "uint32",
          "name": "fee",
          "type": "uint32"
        }
      ],
      "name": "ReferralFeeTooHigh",
      "type": "error"
    },
    {
      "anonymous": false,
      "inputs": [
        {
          "indexed": true,
          "internalType": "address",
          "name": "account",
          "type": "address"
        },
        {
          "indexed": false,
          "internalType": "uint256",
          "name": "interest",
          "type": "uint256"
        },
        {
          "indexed": false,
          "internalType": "uint256",
          "name": "referrerFee",
          "type": "uint256"
        }
      ],
      "name": "InterestCollected",
      "type": "event"
    },
    {
      "anonymous": false,
      "inputs": [
        {
          "indexed": false,
          "internalType": "uint24",
          "name": "newRate",
          "type": "uint24"
        }
      ],
      "name": "RateChanged",
      "type": "event"
    },
    {
      "anonymous": false,
      "inputs": [
        {
          "indexed": true,
          "internalType": "address",
          "name": "account",
          "type": "address"
        },
        {
          "indexed": false,
          "internalType": "uint192",
          "name": "amount",
          "type": "uint192"
        }
      ],
      "name": "Saved",
      "type": "event"
    },
    {
      "anonymous": false,
      "inputs": [
        {
          "indexed": true,
          "internalType": "address",
          "name": "account",
          "type": "address"
        },
        {
          "indexed": false,
          "internalType": "uint192",
          "name": "amount",
          "type": "uint192"
        }
      ],
      "name": "Withdrawn",
      "type": "event"
    },
    {
      "inputs": [],
      "name": "INTEREST_DELAY",
      "outputs": [
        {
          "internalType": "uint64",
          "name": "",
          "type": "uint64"
        }
      ],
      "stateMutability": "view",
      "type": "function"
    },
    {
      "inputs": [],
      "name": "MAINNET_CHAIN_SELECTOR",
      "outputs": [
        {
          "internalType": "uint64",
          "name": "",
          "type": "uint64"
        }
      ],
      "stateMutability": "view",
      "type": "function"
    },
    {
      "inputs": [],
      "name": "MAINNET_LEADRATE_ADDRESS",
      "outputs": [
        {
          "internalType": "address",
          "name": "",
          "type": "address"
        }
      ],
      "stateMutability": "view",
      "type": "function"
    },
    {
      "inputs": [],
      "name": "ZCHF",
      "outputs": [
        {
          "internalType": "contract IFrankencoin",
          "name": "",
          "type": "address"
        }
      ],
      "stateMutability": "view",
      "type": "function"
    },
    {
      "inputs": [
        {
          "internalType": "address",
          "name": "accountOwner",
          "type": "address"
        }
      ],
      "name": "accruedInterest",
      "outputs": [
        {
          "internalType": "uint192",
          "name": "",
          "type": "uint192"
        }
      ],
      "stateMutability": "view",
      "type": "function"
    },
    {
      "inputs": [
        {
          "internalType": "address",
          "name": "accountOwner",
          "type": "address"
        },
        {
          "internalType": "uint256",
          "name": "timestamp",
          "type": "uint256"
        }
      ],
      "name": "accruedInterest",
      "outputs": [
        {
          "internalType": "uint192",
          "name": "",
          "type": "uint192"
        }
      ],
      "stateMutability": "view",
      "type": "function"
    },
    {
      "inputs": [
        {
          "internalType": "uint192",
          "name": "targetAmount",
          "type": "uint192"
        },
        {
          "internalType": "address",
          "name": "referrer",
          "type": "address"
        },
        {
          "internalType": "uint24",
          "name": "referralFeePPM",
          "type": "uint24"
        }
      ],
      "name": "adjust",
      "outputs": [],
      "stateMutability": "nonpayable",
      "type": "function"
    },
    {
      "inputs": [
        {
          "internalType": "uint192",
          "name": "targetAmount",
          "type": "uint192"
        }
      ],
      "name": "adjust",
      "outputs": [],
      "stateMutability": "nonpayable",
      "type": "function"
    },
    {
      "inputs": [
        {
          "components": [
            {
              "internalType": "uint192",
              "name": "saved",
              "type": "uint192"
            },
            {
              "internalType": "uint64",
              "name": "ticks",
              "type": "uint64"
            },
            {
              "internalType": "address",
              "name": "referrer",
              "type": "address"
            },
            {
              "internalType": "uint32",
              "name": "referralFeePPM",
              "type": "uint32"
            }
          ],
          "internalType": "struct AbstractSavings.Account",
          "name": "account",
          "type": "tuple"
        },
        {
          "internalType": "uint64",
          "name": "ticks",
          "type": "uint64"
        }
      ],
      "name": "calculateInterest",
      "outputs": [
        {
          "internalType": "uint192",
          "name": "",
          "type": "uint192"
        }
      ],
      "stateMutability": "pure",
      "type": "function"
    },
    {
      "inputs": [
        {
          "components": [
            {
              "internalType": "bytes32",
              "name": "messageId",
              "type": "bytes32"
            },
            {
              "internalType": "uint64",
              "name": "sourceChainSelector",
              "type": "uint64"
            },
            {
              "internalType": "bytes",
              "name": "sender",
              "type": "bytes"
            },
            {
              "internalType": "bytes",
              "name": "data",
              "type": "bytes"
            },
            {
              "components": [
                {
                  "internalType": "address",
                  "name": "token",
                  "type": "address"
                },
                {
                  "internalType": "uint256",
                  "name": "amount",
                  "type": "uint256"
                }
              ],
              "internalType": "struct Client.EVMTokenAmount[]",
              "name": "destTokenAmounts",
              "type": "tuple[]"
            }
          ],
          "internalType": "struct Client.Any2EVMMessage",
          "name": "message",
          "type": "tuple"
        }
      ],
      "name": "ccipReceive",
      "outputs": [],
      "stateMutability": "nonpayable",
      "type": "function"
    },
    {
      "inputs": [],
      "name": "currentRatePPM",
      "outputs": [
        {
          "internalType": "uint24",
          "name": "",
          "type": "uint24"
        }
      ],
      "stateMutability": "view",
      "type": "function"
    },
    {
      "inputs": [],
      "name": "currentTicks",
      "outputs": [
        {
          "internalType": "uint64",
          "name": "",
          "type": "uint64"
        }
      ],
      "stateMutability": "view",
      "type": "function"
    },
    {
      "inputs": [],
      "name": "dropReferrer",
      "outputs": [],
      "stateMutability": "nonpayable",
      "type": "function"
    },
    {
      "inputs": [],
      "name": "getRouter",
      "outputs": [
        {
          "internalType": "address",
          "name": "",
          "type": "address"
        }
      ],
      "stateMutability": "view",
      "type": "function"
    },
    {
      "inputs": [
        {
          "internalType": "address",
          "name": "owner",
          "type": "address"
        }
      ],
      "name": "refreshBalance",
      "outputs": [
        {
          "internalType": "uint192",
          "name": "",
          "type": "uint192"
        }
      ],
      "stateMutability": "nonpayable",
      "type": "function"
    },
    {
      "inputs": [],
      "name": "refreshMyBalance",
      "outputs": [
        {
          "internalType": "uint192",
          "name": "",
          "type": "uint192"
        }
      ],
      "stateMutability": "nonpayable",
      "type": "function"
    },
    {
      "inputs": [
        {
          "internalType": "address",
          "name": "owner",
          "type": "address"
        },
        {
          "internalType": "uint192",
          "name": "amount",
          "type": "uint192"
        }
      ],
      "name": "save",
      "outputs": [],
      "stateMutability": "nonpayable",
      "type": "function"
    },
    {
      "inputs": [
        {
          "internalType": "uint192",
          "name": "amount",
          "type": "uint192"
        }
      ],
      "name": "save",
      "outputs": [],
      "stateMutability": "nonpayable",
      "type": "function"
    },
    {
      "inputs": [
        {
          "internalType": "uint192",
          "name": "amount",
          "type": "uint192"
        },
        {
          "internalType": "address",
          "name": "referrer",
          "type": "address"
        },
        {
          "internalType": "uint24",
          "name": "referralFeePPM",
          "type": "uint24"
        }
      ],
      "name": "save",
      "outputs": [],
      "stateMutability": "nonpayable",
      "type": "function"
    },
    {
      "inputs": [
        {
          "internalType": "address",
          "name": "",
          "type": "address"
        }
      ],
      "name": "savings",
      "outputs": [
        {
          "internalType": "uint192",
          "name": "saved",
          "type": "uint192"
        },
        {
          "internalType": "uint64",
          "name": "ticks",
          "type": "uint64"
        },
        {
          "internalType": "address",
          "name": "referrer",
          "type": "address"
        },
        {
          "internalType": "uint32",
          "name": "referralFeePPM",
          "type": "uint32"
        }
      ],
      "stateMutability": "view",
      "type": "function"
    },
    {
      "inputs": [
        {
          "internalType": "bytes4",
          "name": "interfaceId",
          "type": "bytes4"
        }
      ],
      "name": "supportsInterface",
      "outputs": [
        {
          "internalType": "bool",
          "name": "",
          "type": "bool"
        }
      ],
      "stateMutability": "view",
      "type": "function"
    },
    {
      "inputs": [
        {
          "internalType": "uint256",
          "name": "timestamp",
          "type": "uint256"
        }
      ],
      "name": "ticks",
      "outputs": [
        {
          "internalType": "uint64",
          "name": "",
          "type": "uint64"
        }
      ],
      "stateMutability": "view",
      "type": "function"
    },
    {
      "inputs": [
        {
          "internalType": "address",
          "name": "target",
          "type": "address"
        },
        {
          "internalType": "uint192",
          "name": "amount",
          "type": "uint192"
        }
      ],
      "name": "withdraw",
      "outputs": [
        {
          "internalType": "uint256",
          "name": "",
          "type": "uint256"
        }
      ],
      "stateMutability": "nonpayable",
      "type": "function"
    },
    {
      "inputs": [
        {
          "internalType": "uint192",
          "name": "amount",
          "type": "uint192"
        },
        {
          "internalType": "address",
          "name": "referrer",
          "type": "address"
        },
        {
          "internalType": "uint24",
          "name": "referralFeePPM",
          "type": "uint24"
        }
      ],
      "name": "withdraw",
      "outputs": [],
      "stateMutability": "nonpayable",
      "type": "function"
    }
  ],
  "transactionHash": "0x1281665df372690f1fbff3548494918e05b9ca4ac5e181249f54b8fdbe0c1b09",
  "args": [
    "0xB6D2E9998C194e627Db2FcBa176313c35BFE52E8",
    "0x9C32fCB86BF0f4a1A8921a9Fe46de3198bb884B2",
    4000,
    "16015286601757825753",
    "0xB0351e929F6Bd42873Ec795919E0f03DbD797caa"
  ],
  "numDeployments": 2,
  "solcInputHash": "4eb5404a5ac94d541291ca8f8e705f4d",
  "bytecode": "0x6101206040526203f4806080523480156200001957600080fd5b5060405162001a1238038062001a128339810160408190526200003c9162000132565b6000805462ffffff85166001600160401b0319909116811763010000004264ffffffffff160217600160401b600160801b031916909155604051908152849084908490849084908a9085907fd76dfbd4c35cffe2a846b6488bc677c511aa4337e1551f3a360427ac7a78de7b9060200160405180910390a1506001600160a01b0390811660a0528116620000ea576040516335fdcccd60e21b81526000600482015260240160405180910390fd5b6001600160a01b0390811660c0526001600160401b0390921660e052166101005250620001c495505050505050565b6001600160a01b03811681146200012f57600080fd5b50565b600080600080600060a086880312156200014b57600080fd5b8551620001588162000119565b60208701519095506200016b8162000119565b604087015190945062ffffff811681146200018557600080fd5b60608701519093506001600160401b0381168114620001a357600080fd5b6080870151909250620001b68162000119565b809150509295509295909350565b60805160a05160c05160e051610100516117d162000241600039600081816102ae0152610ec701526000818161040f0152610e710152600081816103c001526107470152600081816101ce015281816105720152818161093f01528181610c670152610fc60152600081816102d50152610a1001526117d16000f3fe608060405234801561001057600080fd5b50600436106101585760003560e01c806385bd12d1116100c3578063bdc651521161007c578063bdc65152146103f7578063c038e2981461040a578063c198361014610431578063e89c596f14610444578063fd449c141461044c578063fe4f20f51461045f57600080fd5b806385bd12d114610388578063a696399d14610390578063a944a94f146103a3578063b079f163146103b6578063b0f479a1146103be578063b77cd1c7146103e457600080fd5b80634df61d82116101155780634df61d82146102d0578063534cb30d1461030f578063656d16c614610322578063708af4d11461034d57806377267ec31461036257806385572ffb1461037557600080fd5b806301ffc9a71461015d57806306a7b376146101855780631791dc5e146101a85780631836e0da146101c95780631f7cdd5f14610208578063385fc162146102a9575b600080fd5b61017061016b366004611126565b610472565b60405190151581526020015b60405180910390f35b6000546101949062ffffff1681565b60405162ffffff909116815260200161017c565b6101bb6101b6366004611188565b6104a9565b60405190815260200161017c565b6101f07f000000000000000000000000000000000000000000000000000000000000000081565b6040516001600160a01b03909116815260200161017c565b6102636102163660046111bd565b600160208190526000918252604090912080549101546001600160c01b03821691600160c01b90046001600160401b0316906001600160a01b03811690600160a01b900463ffffffff1684565b604080516001600160c01b0390951685526001600160401b0390931660208501526001600160a01b039091169183019190915263ffffffff16606082015260800161017c565b6101f07f000000000000000000000000000000000000000000000000000000000000000081565b6102f77f000000000000000000000000000000000000000000000000000000000000000081565b6040516001600160401b03909116815260200161017c565b6102f761031d3660046111da565b61062e565b61033561033036600461129a565b61067d565b6040516001600160c01b03909116815260200161017c565b61036061035b36600461134c565b610711565b005b6103356103703660046111bd565b610730565b610360610383366004611395565b61073c565b6103356107a0565b61033561039e3660046113cf565b6107b0565b6103606103b136600461134c565b610830565b6102f7610848565b7f00000000000000000000000000000000000000000000000000000000000000006101f0565b6103356103f23660046111bd565b610853565b6103606104053660046113fb565b61086e565b6102f77f000000000000000000000000000000000000000000000000000000000000000081565b61036061043f366004611188565b6108df565b610360610b63565b61036061045a3660046113fb565b610b7a565b61036061046d36600461134c565b610b84565b60006001600160e01b031982166385572ffb60e01b14806104a357506001600160e01b031982166301ffc9a760e01b145b92915050565b6000806104b533610b8e565b80549091506001600160c01b039081169084161061050257805433600090815260016020819052604082209182550180546001600160c01b03191690556001600160c01b03169250610544565b80548390829060009061051f9084906001600160c01b031661142c565b92506101000a8154816001600160c01b0302191690836001600160c01b031602179055505b60405163a9059cbb60e01b81526001600160a01b0385811660048301526001600160c01b03851660248301527f0000000000000000000000000000000000000000000000000000000000000000169063a9059cbb906044016020604051808303816000875af11580156105bb573d6000803e3d6000fd5b505050506040513d601f19601f820116820180604052508101906105df919061144c565b506040516001600160c01b038416815233907f47cf194f5e559cca0413017d38814a7843cc6f3052bc43c8085938774ae581519060200160405180910390a250506001600160c01b0316919050565b6000805462ffffff811690610651906301000000900464ffffffffff168461146e565b61065b919061148e565b6000546104a391906801000000000000000090046001600160401b03166114b9565b600082602001516001600160401b0316826001600160401b03161115806106af575060208301516001600160401b0316155b156106bc575060006104a3565b6301e13380620f424084600001516001600160c01b03168560200151856106e3919061146e565b6001600160401b03166106f691906114d9565b61070091906114f0565b61070a91906114f0565b90506104a3565b61071b33846104a9565b5061072b828262ffffff16610dfa565b505050565b60006104a382426107b0565b336001600160a01b037f0000000000000000000000000000000000000000000000000000000000000000161461078c576040516335fdcccd60e21b81523360048201526024015b60405180910390fd5b61079d6107988261162d565b610e6f565b50565b60006107ab33610853565b905090565b6001600160a01b038281166000908152600160208181526040808420815160808101835281546001600160c01b0381168252600160c01b90046001600160401b0316938101939093529092015493841691810191909152600160a01b90920463ffffffff16606083015290610828816103308561062e565b949350505050565b6108398361086e565b61072b828262ffffff16610dfa565b60006107ab4261062e565b600061085e82610b8e565b546001600160c01b031692915050565b600061087933610b8e565b80549091506001600160c01b03808416911610156108ae5780546108aa9061045a906001600160c01b03168461142c565b5050565b80546001600160c01b03808416911611156108aa57805461072b9033906101b69085906001600160c01b031661142c565b6000805462ffffff16900361090757604051630dbfe5fd60e31b815260040160405180910390fd5b600061091283610b8e565b6040516323b872dd60e01b81523360048201523060248201526001600160c01b03841660448201529091507f00000000000000000000000000000000000000000000000000000000000000006001600160a01b0316906323b872dd906064016020604051808303816000875af1158015610990573d6000803e3d6000fd5b505050506040513d601f19601f820116820180604052508101906109b4919061144c565b5060006109bf610848565b82549091506001600160401b03808316600160c01b9092041610156109e6576109e66116d9565b81546001600160c01b0390811690600090610a03908616836116ef565b6000546001600160401b037f00000000000000000000000000000000000000000000000000000000000000001690610a499062ffffff166001600160c01b0389166114d9565b610a5391906114d9565b8554610a70908690600160c01b90046001600160401b031661146e565b610a83906001600160401b0316856114d9565b610a8d91906116ef565b610a9791906114f0565b845490915085908590600090610ab79084906001600160c01b0316611702565b92506101000a8154816001600160c01b0302191690836001600160c01b031602179055508083610ae791906114b9565b84546001600160401b0391909116600160c01b026001600160c01b039091161784556040516001600160a01b038716907ff195ce54b48d5147da31c1fc525c8828b8836088b505a329e5de2b35da6731e290610b539088906001600160c01b0391909116815260200190565b60405180910390a2505050505050565b610b6c33610b8e565b50610b78600080610dfa565b565b61079d33826108df565b61083933846108df565b6001600160a01b038116600090815260016020526040812081610baf610848565b82549091506001600160401b03600160c01b90910481169082161115610df3576040805160808101825283546001600160c01b0381168252600160c01b90046001600160401b0316602082015260018401546001600160a01b03811692820192909252600160a01b90910463ffffffff166060820152600090610c32908361067d565b90506001600160c01b03811615610dd357604051631a3f4bd360e31b81523060048201526001600160c01b03821660248201527f00000000000000000000000000000000000000000000000000000000000000006001600160a01b03169063d1fa5e9890604401600060405180830381600087803b158015610cb357600080fd5b505af1158015610cc7573d6000803e3d6000fd5b50506040805160808101825286546001600160c01b0381168252600160c01b90046001600160401b0316602082015260018701546001600160a01b03811692820192909252600160a01b90910463ffffffff16606082015260009250610d2e915083610f53565b9050610d3a818361142c565b84548590600090610d559084906001600160c01b0316611702565b92506101000a8154816001600160c01b0302191690836001600160c01b03160217905550856001600160a01b03167f9bbd517758fbae61197f1c1c04c8614064e89512dbaf4350dcdf76fcaa5e21618383604051610dc99291906001600160c01b0392831681529116602082015260400190565b60405180910390a2505b5081546001600160c01b0316600160c01b6001600160401b038316021782555b5092915050565b6203d0908163ffffffff161115610e2c57604051639acdd88960e01b815263ffffffff82166004820152602401610783565b33600090815260016020819052604090912001805463ffffffff909216600160a01b026001600160c01b03199092166001600160a01b0390931692909217179055565b7f00000000000000000000000000000000000000000000000000000000000000006001600160401b031681602001516001600160401b031614610ec557604051639284b19760e01b815260040160405180910390fd5b7f00000000000000000000000000000000000000000000000000000000000000006001600160a01b03168160400151806020019051810190610f079190611722565b6001600160a01b031614610f2e57604051636edaef2f60e11b815260040160405180910390fd5b60008160600151806020019051810190610f48919061173f565b90506108aa81611043565b60408201516000906001600160a01b03161561103b576000620f4240846060015163ffffffff16846001600160c01b0316610f8e91906114d9565b610f9891906114f0565b604085810151905163a9059cbb60e01b81526001600160a01b039182166004820152602481018390529192507f0000000000000000000000000000000000000000000000000000000000000000169063a9059cbb906044016020604051808303816000875af115801561100f573d6000803e3d6000fd5b505050506040513d601f19601f82011682018060405250810190611033919061144c565b5090506104a3565b5060006104a3565b600054429062ffffff811690611067906301000000900464ffffffffff168361175c565b611071919061177a565b64ffffffffff16600060088282829054906101000a90046001600160401b031661109b91906114b9565b82546101009290920a6001600160401b03818102199093169190921691909102179055506000805467ffffffffffffffff1916630100000064ffffffffff84160262ffffff19161762ffffff84169081179091556040519081527fd76dfbd4c35cffe2a846b6488bc677c511aa4337e1551f3a360427ac7a78de7b9060200160405180910390a15050565b60006020828403121561113857600080fd5b81356001600160e01b03198116811461115057600080fd5b9392505050565b6001600160a01b038116811461079d57600080fd5b80356001600160c01b038116811461118357600080fd5b919050565b6000806040838503121561119b57600080fd5b82356111a681611157565b91506111b46020840161116c565b90509250929050565b6000602082840312156111cf57600080fd5b813561115081611157565b6000602082840312156111ec57600080fd5b5035919050565b634e487b7160e01b600052604160045260246000fd5b604080519081016001600160401b038111828210171561122b5761122b6111f3565b60405290565b60405160a081016001600160401b038111828210171561122b5761122b6111f3565b604051601f8201601f191681016001600160401b038111828210171561127b5761127b6111f3565b604052919050565b80356001600160401b038116811461118357600080fd5b60008082840360a08112156112ae57600080fd5b60808112156112bc57600080fd5b50604051608081018181106001600160401b03821117156112df576112df6111f3565b6040526112eb8461116c565b81526112f960208501611283565b6020820152604084013561130c81611157565b6040820152606084013563ffffffff8116811461132857600080fd5b606082015291506111b460808401611283565b62ffffff8116811461079d57600080fd5b60008060006060848603121561136157600080fd5b61136a8461116c565b9250602084013561137a81611157565b9150604084013561138a8161133b565b809150509250925092565b6000602082840312156113a757600080fd5b81356001600160401b038111156113bd57600080fd5b820160a0818503121561115057600080fd5b600080604083850312156113e257600080fd5b82356113ed81611157565b946020939093013593505050565b60006020828403121561140d57600080fd5b6111508261116c565b634e487b7160e01b600052601160045260246000fd5b6001600160c01b03828116828216039080821115610df357610df3611416565b60006020828403121561145e57600080fd5b8151801515811461115057600080fd5b6001600160401b03828116828216039080821115610df357610df3611416565b6001600160401b038181168382160280821691908281146114b1576114b1611416565b505092915050565b6001600160401b03818116838216019080821115610df357610df3611416565b80820281158282048414176104a3576104a3611416565b60008261150d57634e487b7160e01b600052601260045260246000fd5b500490565b600082601f83011261152357600080fd5b81356001600160401b0381111561153c5761153c6111f3565b61154f601f8201601f1916602001611253565b81815284602083860101111561156457600080fd5b816020850160208301376000918101602001919091529392505050565b600082601f83011261159257600080fd5b813560206001600160401b038211156115ad576115ad6111f3565b6115bb818360051b01611253565b82815260069290921b840181019181810190868411156115da57600080fd5b8286015b8481101561162257604081890312156115f75760008081fd5b6115ff611209565b813561160a81611157565b815281850135858201528352918301916040016115de565b509695505050505050565b600060a0823603121561163f57600080fd5b611647611231565b8235815261165760208401611283565b602082015260408301356001600160401b038082111561167657600080fd5b61168236838701611512565b6040840152606085013591508082111561169b57600080fd5b6116a736838701611512565b606084015260808501359150808211156116c057600080fd5b506116cd36828601611581565b60808301525092915050565b634e487b7160e01b600052600160045260246000fd5b808201808211156104a3576104a3611416565b6001600160c01b03818116838216019080821115610df357610df3611416565b60006020828403121561173457600080fd5b815161115081611157565b60006020828403121561175157600080fd5b81516111508161133b565b64ffffffffff828116828216039080821115610df357610df3611416565b64ffffffffff8181168382160280821691908281146114b1576114b161141656fea2646970667358221220fe055105f0879909ce3c8588d459ef5477181d67492c5961b169d6e6c09f5c1964736f6c63430008180033",
  "devdoc": {
    "kind": "dev",
    "methods": {
      "ccipReceive((bytes32,uint64,bytes,bytes,(address,uint256)[]))": {
        "details": "Note ensure you check the msg.sender is the OffRampRouter",
        "params": {
          "message": "CCIP Message"
        }
      },
      "getRouter()": {
        "returns": {
          "_0": "CCIP router address"
        }
      },
      "supportsInterface(bytes4)": {
        "details": "Should indicate whether the contract implements IAny2EVMMessageReceiver e.g. return interfaceId == type(IAny2EVMMessageReceiver).interfaceId || interfaceId == type(IERC165).interfaceId This allows CCIP to check if ccipReceive is available before calling it. If this returns false or reverts, only tokens are transferred to the receiver. If this returns true, tokens are transferred and ccipReceive is called atomically. Additionally, if the receiver address does not have code associated with it at the time of execution (EXTCODESIZE returns 0), only tokens will be transferred.",
        "params": {
          "interfaceId": "The interfaceId to check"
        },
        "returns": {
          "_0": "true if the interfaceId is supported"
        }
      }
    },
    "title": "BridgedSavings Module to enable savings based on a Leadrate (\"Leitzins\") module on a layer-two chain.",
    "version": 1
  },
  "userdoc": {
    "kind": "user",
    "methods": {
      "adjust(uint192,address,uint24)": {
        "notice": "Adjust to the given amount and set the referrer to earn a fee on the collected interest.  Referral fee is given in parts per million and can be at most 250'000, which is 25%."
      },
      "ccipReceive((bytes32,uint64,bytes,bytes,(address,uint256)[]))": {
        "notice": "Called by the Router to deliver a message. If this reverts, any token transfers also revert. The message will move to a FAILED state and become available for manual execution."
      },
      "currentTicks()": {
        "notice": "Total accumulated 'interest ticks' since this contract was deployed. One 'tick' is a ppm-second, so one months of 12% annual interest is   120000*30*24*3600 = 311040000000 ticks. Two months of 6% annual interest would result in the same number of ticks. For simplicity, this is linear, so there is no \"interest on interest\"."
      },
      "dropReferrer()": {
        "notice": "Remove the referrer."
      },
      "getRouter()": {
        "notice": "Return the current router"
      },
      "refreshBalance(address)": {
        "notice": "Collects the accrued interest and adds it to the account. It can be beneficial to do so every now and then in order to start collecting interest on the accrued interest."
      },
      "refreshMyBalance()": {
        "notice": "Shortcut for refreshBalance(msg.sender)"
      },
      "save(address,uint192)": {
        "notice": "Send 'amount' to the account of the provided owner. The funds sent to the account are locked for a while, depending on how much already is in there."
      },
      "save(uint192)": {
        "notice": "Save 'amount'."
      },
      "save(uint192,address,uint24)": {
        "notice": "Save the given amount and set the referrer to earn a fee on the collected interest.  Referral fee is given in parts per million and can be at most 250'000, which is 25%."
      },
      "supportsInterface(bytes4)": {
        "notice": "IERC165 supports an interfaceId"
      },
      "withdraw(address,uint192)": {
        "notice": "Withdraw up to 'amount' to the target address. When trying to withdraw more than available, all that is available is withdrawn. Returns the acutally transferred amount."
      },
      "withdraw(uint192,address,uint24)": {
        "notice": "Withdraw the given amount and set the referrer to earn a fee on the collected interest.  Referral fee is given in parts per million and can be at most 250'000, which is 25%."
      }
    },
    "version": 1
  },
  "storageLayout": {
    "storage": [
      {
        "astId": 6864,
        "contract": "contracts/savings/BridgedSavings.sol:BridgedSavings",
        "label": "currentRatePPM",
        "offset": 0,
        "slot": "0",
        "type": "t_uint24"
      },
      {
        "astId": 6866,
        "contract": "contracts/savings/BridgedSavings.sol:BridgedSavings",
        "label": "anchorTime",
        "offset": 3,
        "slot": "0",
        "type": "t_uint40"
      },
      {
        "astId": 6868,
        "contract": "contracts/savings/BridgedSavings.sol:BridgedSavings",
        "label": "ticksAnchor",
        "offset": 8,
        "slot": "0",
        "type": "t_uint64"
      },
      {
        "astId": 7486,
        "contract": "contracts/savings/BridgedSavings.sol:BridgedSavings",
        "label": "savings",
        "offset": 0,
        "slot": "1",
        "type": "t_mapping(t_address,t_struct(Account)7495_storage)"
      }
    ],
    "types": {
      "t_address": {
        "encoding": "inplace",
        "label": "address",
        "numberOfBytes": "20"
      },
      "t_mapping(t_address,t_struct(Account)7495_storage)": {
        "encoding": "mapping",
        "key": "t_address",
        "label": "mapping(address => struct AbstractSavings.Account)",
        "numberOfBytes": "32",
        "value": "t_struct(Account)7495_storage"
      },
      "t_struct(Account)7495_storage": {
        "encoding": "inplace",
        "label": "struct AbstractSavings.Account",
        "members": [
          {
            "astId": 7488,
            "contract": "contracts/savings/BridgedSavings.sol:BridgedSavings",
            "label": "saved",
            "offset": 0,
            "slot": "0",
            "type": "t_uint192"
          },
          {
            "astId": 7490,
            "contract": "contracts/savings/BridgedSavings.sol:BridgedSavings",
            "label": "ticks",
            "offset": 24,
            "slot": "0",
            "type": "t_uint64"
          },
          {
            "astId": 7492,
            "contract": "contracts/savings/BridgedSavings.sol:BridgedSavings",
            "label": "referrer",
            "offset": 0,
            "slot": "1",
            "type": "t_address"
          },
          {
            "astId": 7494,
            "contract": "contracts/savings/BridgedSavings.sol:BridgedSavings",
            "label": "referralFeePPM",
            "offset": 20,
            "slot": "1",
            "type": "t_uint32"
          }
        ],
        "numberOfBytes": "64"
      },
      "t_uint192": {
        "encoding": "inplace",
        "label": "uint192",
        "numberOfBytes": "24"
      },
      "t_uint24": {
        "encoding": "inplace",
        "label": "uint24",
        "numberOfBytes": "3"
      },
      "t_uint32": {
        "encoding": "inplace",
        "label": "uint32",
        "numberOfBytes": "4"
      },
      "t_uint40": {
        "encoding": "inplace",
        "label": "uint40",
        "numberOfBytes": "5"
      },
      "t_uint64": {
        "encoding": "inplace",
        "label": "uint64",
        "numberOfBytes": "8"
      }
    }
  }
}