{
  "address": "0xDfE98B6eDAdFdA093D73C6773aB4e93D8E6119e3",
  "abi": [
    {
      "inputs": [
        {
          "internalType": "contract TokenAdminRegistry",
          "name": "tokenAdminRegistry",
          "type": "address"
        },
        {
          "internalType": "contract IBasicFrankencoin",
          "name": "zchf",
          "type": "address"
        }
      ],
      "stateMutability": "nonpayable",
      "type": "constructor"
    },
    {
      "inputs": [],
      "name": "AlreadySet",
      "type": "error"
    },
    {
      "inputs": [
        {
          "internalType": "bytes32",
          "name": "hash",
          "type": "bytes32"
        }
      ],
      "name": "ProposalAlreadyMade",
      "type": "error"
    },
    {
      "inputs": [
        {
          "internalType": "uint64",
          "name": "deadline",
          "type": "uint64"
        }
      ],
      "name": "TooEarly",
      "type": "error"
    },
    {
      "inputs": [
        {
          "internalType": "bytes32",
          "name": "hash",
          "type": "bytes32"
        }
      ],
      "name": "UnknownProposal",
      "type": "error"
    },
    {
      "anonymous": false,
      "inputs": [
        {
          "indexed": false,
          "internalType": "bytes32",
          "name": "hash",
          "type": "bytes32"
        },
        {
          "indexed": true,
          "internalType": "address",
          "name": "proposer",
          "type": "address"
        },
        {
          "components": [
            {
              "internalType": "uint64",
              "name": "remoteChainSelector",
              "type": "uint64"
            },
            {
              "internalType": "bytes[]",
              "name": "remotePoolAddresses",
              "type": "bytes[]"
            },
            {
              "internalType": "bytes",
              "name": "remoteTokenAddress",
              "type": "bytes"
            },
            {
              "components": [
                {
                  "internalType": "bool",
                  "name": "isEnabled",
                  "type": "bool"
                },
                {
                  "internalType": "uint128",
                  "name": "capacity",
                  "type": "uint128"
                },
                {
                  "internalType": "uint128",
                  "name": "rate",
                  "type": "uint128"
                }
              ],
              "internalType": "struct RateLimiter.Config",
              "name": "outboundRateLimiterConfig",
              "type": "tuple"
            },
            {
              "components": [
                {
                  "internalType": "bool",
                  "name": "isEnabled",
                  "type": "bool"
                },
                {
                  "internalType": "uint128",
                  "name": "capacity",
                  "type": "uint128"
                },
                {
                  "internalType": "uint128",
                  "name": "rate",
                  "type": "uint128"
                }
              ],
              "internalType": "struct RateLimiter.Config",
              "name": "inboundRateLimiterConfig",
              "type": "tuple"
            }
          ],
          "indexed": false,
          "internalType": "struct ITokenPool.ChainUpdate",
          "name": "update",
          "type": "tuple"
        }
      ],
      "name": "AddChainProposed",
      "type": "event"
    },
    {
      "anonymous": false,
      "inputs": [
        {
          "indexed": false,
          "internalType": "bytes32",
          "name": "hash",
          "type": "bytes32"
        },
        {
          "indexed": true,
          "internalType": "address",
          "name": "proposer",
          "type": "address"
        },
        {
          "indexed": false,
          "internalType": "address",
          "name": "newAdmin",
          "type": "address"
        }
      ],
      "name": "AdminTransferProposed",
      "type": "event"
    },
    {
      "anonymous": false,
      "inputs": [
        {
          "indexed": false,
          "internalType": "address",
          "name": "newAdmin",
          "type": "address"
        }
      ],
      "name": "AdminTransfered",
      "type": "event"
    },
    {
      "anonymous": false,
      "inputs": [
        {
          "components": [
            {
              "internalType": "uint64",
              "name": "remoteChainSelector",
              "type": "uint64"
            },
            {
              "internalType": "bytes[]",
              "name": "remotePoolAddresses",
              "type": "bytes[]"
            },
            {
              "internalType": "bytes",
              "name": "remoteTokenAddress",
              "type": "bytes"
            },
            {
              "components": [
                {
                  "internalType": "bool",
                  "name": "isEnabled",
                  "type": "bool"
                },
                {
                  "internalType": "uint128",
                  "name": "capacity",
                  "type": "uint128"
                },
                {
                  "internalType": "uint128",
                  "name": "rate",
                  "type": "uint128"
                }
              ],
              "internalType": "struct RateLimiter.Config",
              "name": "outboundRateLimiterConfig",
              "type": "tuple"
            },
            {
              "components": [
                {
                  "internalType": "bool",
                  "name": "isEnabled",
                  "type": "bool"
                },
                {
                  "internalType": "uint128",
                  "name": "capacity",
                  "type": "uint128"
                },
                {
                  "internalType": "uint128",
                  "name": "rate",
                  "type": "uint128"
                }
              ],
              "internalType": "struct RateLimiter.Config",
              "name": "inboundRateLimiterConfig",
              "type": "tuple"
            }
          ],
          "indexed": false,
          "internalType": "struct ITokenPool.ChainUpdate",
          "name": "config",
          "type": "tuple"
        }
      ],
      "name": "ChainAdded",
      "type": "event"
    },
    {
      "anonymous": false,
      "inputs": [
        {
          "indexed": false,
          "internalType": "uint64",
          "name": "id",
          "type": "uint64"
        }
      ],
      "name": "ChainRemoved",
      "type": "event"
    },
    {
      "anonymous": false,
      "inputs": [
        {
          "indexed": false,
          "internalType": "bytes32",
          "name": "hash",
          "type": "bytes32"
        }
      ],
      "name": "ProposalDenied",
      "type": "event"
    },
    {
      "anonymous": false,
      "inputs": [
        {
          "indexed": false,
          "internalType": "bytes32",
          "name": "hash",
          "type": "bytes32"
        }
      ],
      "name": "ProposalEnacted",
      "type": "event"
    },
    {
      "anonymous": false,
      "inputs": [
        {
          "indexed": false,
          "internalType": "bytes32",
          "name": "hash",
          "type": "bytes32"
        },
        {
          "indexed": false,
          "internalType": "uint64",
          "name": "deadline",
          "type": "uint64"
        }
      ],
      "name": "ProposalMade",
      "type": "event"
    },
    {
      "anonymous": false,
      "inputs": [
        {
          "indexed": false,
          "internalType": "uint64",
          "name": "remoteChain",
          "type": "uint64"
        },
        {
          "components": [
            {
              "internalType": "bool",
              "name": "isEnabled",
              "type": "bool"
            },
            {
              "internalType": "uint128",
              "name": "capacity",
              "type": "uint128"
            },
            {
              "internalType": "uint128",
              "name": "rate",
              "type": "uint128"
            }
          ],
          "indexed": false,
          "internalType": "struct RateLimiter.Config",
          "name": "inboundConfigs",
          "type": "tuple"
        },
        {
          "components": [
            {
              "internalType": "bool",
              "name": "isEnabled",
              "type": "bool"
            },
            {
              "internalType": "uint128",
              "name": "capacity",
              "type": "uint128"
            },
            {
              "internalType": "uint128",
              "name": "rate",
              "type": "uint128"
            }
          ],
          "indexed": false,
          "internalType": "struct RateLimiter.Config",
          "name": "outboundConfig",
          "type": "tuple"
        }
      ],
      "name": "RateLimit",
      "type": "event"
    },
    {
      "anonymous": false,
      "inputs": [
        {
          "indexed": true,
          "internalType": "uint64",
          "name": "chain",
          "type": "uint64"
        },
        {
          "indexed": true,
          "internalType": "bytes",
          "name": "poolAddress",
          "type": "bytes"
        }
      ],
      "name": "RemotePoolAdded",
      "type": "event"
    },
    {
      "anonymous": false,
      "inputs": [
        {
          "indexed": true,
          "internalType": "uint64",
          "name": "chain",
          "type": "uint64"
        },
        {
          "indexed": true,
          "internalType": "bytes",
          "name": "poolAddress",
          "type": "bytes"
        }
      ],
      "name": "RemotePoolRemoved",
      "type": "event"
    },
    {
      "anonymous": false,
      "inputs": [
        {
          "indexed": false,
          "internalType": "bytes32",
          "name": "hash",
          "type": "bytes32"
        },
        {
          "indexed": true,
          "internalType": "address",
          "name": "proposer",
          "type": "address"
        },
        {
          "components": [
            {
              "internalType": "bool",
              "name": "add",
              "type": "bool"
            },
            {
              "internalType": "uint64",
              "name": "chain",
              "type": "uint64"
            },
            {
              "internalType": "bytes",
              "name": "poolAddress",
              "type": "bytes"
            }
          ],
          "indexed": false,
          "internalType": "struct CCIPAdmin.RemotePoolUpdate",
          "name": "update",
          "type": "tuple"
        }
      ],
      "name": "RemotePoolUpdateProposed",
      "type": "event"
    },
    {
      "anonymous": false,
      "inputs": [
        {
          "indexed": false,
          "internalType": "bytes32",
          "name": "hash",
          "type": "bytes32"
        },
        {
          "indexed": true,
          "internalType": "address",
          "name": "proposer",
          "type": "address"
        },
        {
          "indexed": false,
          "internalType": "uint64",
          "name": "chain",
          "type": "uint64"
        }
      ],
      "name": "RemoveChainProposed",
      "type": "event"
    },
    {
      "inputs": [],
      "name": "DAY",
      "outputs": [
        {
          "internalType": "uint64",
          "name": "",
          "type": "uint64"
        }
      ],
      "stateMutability": "view",
      "type": "function"
    },
    {
      "inputs": [],
      "name": "GOVERNANCE",
      "outputs": [
        {
          "internalType": "contract IGovernance",
          "name": "",
          "type": "address"
        }
      ],
      "stateMutability": "view",
      "type": "function"
    },
    {
      "inputs": [],
      "name": "TOKEN_ADMIN_REGISTRY",
      "outputs": [
        {
          "internalType": "contract TokenAdminRegistry",
          "name": "",
          "type": "address"
        }
      ],
      "stateMutability": "view",
      "type": "function"
    },
    {
      "inputs": [],
      "name": "ZCHF",
      "outputs": [
        {
          "internalType": "address",
          "name": "",
          "type": "address"
        }
      ],
      "stateMutability": "view",
      "type": "function"
    },
    {
      "inputs": [],
      "name": "acceptAdmin",
      "outputs": [],
      "stateMutability": "nonpayable",
      "type": "function"
    },
    {
      "inputs": [],
      "name": "acceptOwnership",
      "outputs": [],
      "stateMutability": "nonpayable",
      "type": "function"
    },
    {
      "inputs": [
        {
          "components": [
            {
              "internalType": "uint64",
              "name": "remoteChainSelector",
              "type": "uint64"
            },
            {
              "internalType": "bytes[]",
              "name": "remotePoolAddresses",
              "type": "bytes[]"
            },
            {
              "internalType": "bytes",
              "name": "remoteTokenAddress",
              "type": "bytes"
            },
            {
              "components": [
                {
                  "internalType": "bool",
                  "name": "isEnabled",
                  "type": "bool"
                },
                {
                  "internalType": "uint128",
                  "name": "capacity",
                  "type": "uint128"
                },
                {
                  "internalType": "uint128",
                  "name": "rate",
                  "type": "uint128"
                }
              ],
              "internalType": "struct RateLimiter.Config",
              "name": "outboundRateLimiterConfig",
              "type": "tuple"
            },
            {
              "components": [
                {
                  "internalType": "bool",
                  "name": "isEnabled",
                  "type": "bool"
                },
                {
                  "internalType": "uint128",
                  "name": "capacity",
                  "type": "uint128"
                },
                {
                  "internalType": "uint128",
                  "name": "rate",
                  "type": "uint128"
                }
              ],
              "internalType": "struct RateLimiter.Config",
              "name": "inboundRateLimiterConfig",
              "type": "tuple"
            }
          ],
          "internalType": "struct ITokenPool.ChainUpdate",
          "name": "config",
          "type": "tuple"
        }
      ],
      "name": "applyAddChain",
      "outputs": [],
      "stateMutability": "nonpayable",
      "type": "function"
    },
    {
      "inputs": [
        {
          "internalType": "address",
          "name": "newAdmin",
          "type": "address"
        }
      ],
      "name": "applyAdminTransfer",
      "outputs": [],
      "stateMutability": "nonpayable",
      "type": "function"
    },
    {
      "inputs": [
        {
          "internalType": "uint64",
          "name": "chain",
          "type": "uint64"
        },
        {
          "components": [
            {
              "internalType": "bool",
              "name": "isEnabled",
              "type": "bool"
            },
            {
              "internalType": "uint128",
              "name": "capacity",
              "type": "uint128"
            },
            {
              "internalType": "uint128",
              "name": "rate",
              "type": "uint128"
            }
          ],
          "internalType": "struct RateLimiter.Config",
          "name": "inbound",
          "type": "tuple"
        },
        {
          "components": [
            {
              "internalType": "bool",
              "name": "isEnabled",
              "type": "bool"
            },
            {
              "internalType": "uint128",
              "name": "capacity",
              "type": "uint128"
            },
            {
              "internalType": "uint128",
              "name": "rate",
              "type": "uint128"
            }
          ],
          "internalType": "struct RateLimiter.Config",
          "name": "outbound",
          "type": "tuple"
        },
        {
          "internalType": "address[]",
          "name": "helpers",
          "type": "address[]"
        }
      ],
      "name": "applyRateLimit",
      "outputs": [],
      "stateMutability": "nonpayable",
      "type": "function"
    },
    {
      "inputs": [
        {
          "components": [
            {
              "internalType": "bool",
              "name": "add",
              "type": "bool"
            },
            {
              "internalType": "uint64",
              "name": "chain",
              "type": "uint64"
            },
            {
              "internalType": "bytes",
              "name": "poolAddress",
              "type": "bytes"
            }
          ],
          "internalType": "struct CCIPAdmin.RemotePoolUpdate",
          "name": "update",
          "type": "tuple"
        }
      ],
      "name": "applyRemotePoolUpdate",
      "outputs": [],
      "stateMutability": "nonpayable",
      "type": "function"
    },
    {
      "inputs": [
        {
          "internalType": "uint64",
          "name": "chainId",
          "type": "uint64"
        }
      ],
      "name": "applyRemoveChain",
      "outputs": [],
      "stateMutability": "nonpayable",
      "type": "function"
    },
    {
      "inputs": [
        {
          "internalType": "bytes32",
          "name": "hash",
          "type": "bytes32"
        },
        {
          "internalType": "address[]",
          "name": "helpers",
          "type": "address[]"
        }
      ],
      "name": "deny",
      "outputs": [],
      "stateMutability": "nonpayable",
      "type": "function"
    },
    {
      "inputs": [
        {
          "internalType": "bytes32",
          "name": "hash",
          "type": "bytes32"
        }
      ],
      "name": "proposals",
      "outputs": [
        {
          "internalType": "uint64",
          "name": "deadline",
          "type": "uint64"
        }
      ],
      "stateMutability": "view",
      "type": "function"
    },
    {
      "inputs": [
        {
          "components": [
            {
              "internalType": "uint64",
              "name": "remoteChainSelector",
              "type": "uint64"
            },
            {
              "internalType": "bytes[]",
              "name": "remotePoolAddresses",
              "type": "bytes[]"
            },
            {
              "internalType": "bytes",
              "name": "remoteTokenAddress",
              "type": "bytes"
            },
            {
              "components": [
                {
                  "internalType": "bool",
                  "name": "isEnabled",
                  "type": "bool"
                },
                {
                  "internalType": "uint128",
                  "name": "capacity",
                  "type": "uint128"
                },
                {
                  "internalType": "uint128",
                  "name": "rate",
                  "type": "uint128"
                }
              ],
              "internalType": "struct RateLimiter.Config",
              "name": "outboundRateLimiterConfig",
              "type": "tuple"
            },
            {
              "components": [
                {
                  "internalType": "bool",
                  "name": "isEnabled",
                  "type": "bool"
                },
                {
                  "internalType": "uint128",
                  "name": "capacity",
                  "type": "uint128"
                },
                {
                  "internalType": "uint128",
                  "name": "rate",
                  "type": "uint128"
                }
              ],
              "internalType": "struct RateLimiter.Config",
              "name": "inboundRateLimiterConfig",
              "type": "tuple"
            }
          ],
          "internalType": "struct ITokenPool.ChainUpdate",
          "name": "config",
          "type": "tuple"
        },
        {
          "internalType": "address[]",
          "name": "helpers",
          "type": "address[]"
        }
      ],
      "name": "proposeAddChain",
      "outputs": [],
      "stateMutability": "nonpayable",
      "type": "function"
    },
    {
      "inputs": [
        {
          "internalType": "address",
          "name": "newAdmin",
          "type": "address"
        },
        {
          "internalType": "address[]",
          "name": "helpers",
          "type": "address[]"
        }
      ],
      "name": "proposeAdminTransfer",
      "outputs": [],
      "stateMutability": "nonpayable",
      "type": "function"
    },
    {
      "inputs": [
        {
          "components": [
            {
              "internalType": "bool",
              "name": "add",
              "type": "bool"
            },
            {
              "internalType": "uint64",
              "name": "chain",
              "type": "uint64"
            },
            {
              "internalType": "bytes",
              "name": "poolAddress",
              "type": "bytes"
            }
          ],
          "internalType": "struct CCIPAdmin.RemotePoolUpdate",
          "name": "update",
          "type": "tuple"
        },
        {
          "internalType": "address[]",
          "name": "helpers",
          "type": "address[]"
        }
      ],
      "name": "proposeRemotePoolUpdate",
      "outputs": [],
      "stateMutability": "nonpayable",
      "type": "function"
    },
    {
      "inputs": [
        {
          "internalType": "uint64",
          "name": "chainId",
          "type": "uint64"
        },
        {
          "internalType": "address[]",
          "name": "helpers",
          "type": "address[]"
        }
      ],
      "name": "proposeRemoveChain",
      "outputs": [],
      "stateMutability": "nonpayable",
      "type": "function"
    },
    {
      "inputs": [
        {
          "internalType": "contract RegistryModuleOwnerCustom",
          "name": "registry",
          "type": "address"
        }
      ],
      "name": "registerToken",
      "outputs": [],
      "stateMutability": "nonpayable",
      "type": "function"
    },
    {
      "inputs": [
        {
          "internalType": "contract ITokenPool",
          "name": "_tokenPool",
          "type": "address"
        },
        {
          "components": [
            {
              "internalType": "uint64",
              "name": "remoteChainSelector",
              "type": "uint64"
            },
            {
              "internalType": "bytes[]",
              "name": "remotePoolAddresses",
              "type": "bytes[]"
            },
            {
              "internalType": "bytes",
              "name": "remoteTokenAddress",
              "type": "bytes"
            },
            {
              "components": [
                {
                  "internalType": "bool",
                  "name": "isEnabled",
                  "type": "bool"
                },
                {
                  "internalType": "uint128",
                  "name": "capacity",
                  "type": "uint128"
                },
                {
                  "internalType": "uint128",
                  "name": "rate",
                  "type": "uint128"
                }
              ],
              "internalType": "struct RateLimiter.Config",
              "name": "outboundRateLimiterConfig",
              "type": "tuple"
            },
            {
              "components": [
                {
                  "internalType": "bool",
                  "name": "isEnabled",
                  "type": "bool"
                },
                {
                  "internalType": "uint128",
                  "name": "capacity",
                  "type": "uint128"
                },
                {
                  "internalType": "uint128",
                  "name": "rate",
                  "type": "uint128"
                }
              ],
              "internalType": "struct RateLimiter.Config",
              "name": "inboundRateLimiterConfig",
              "type": "tuple"
            }
          ],
          "internalType": "struct ITokenPool.ChainUpdate[]",
          "name": "chainsToAdd",
          "type": "tuple[]"
        }
      ],
      "name": "setTokenPool",
      "outputs": [],
      "stateMutability": "nonpayable",
      "type": "function"
    },
    {
      "inputs": [],
      "name": "tokenPool",
      "outputs": [
        {
          "internalType": "contract ITokenPool",
          "name": "",
          "type": "address"
        }
      ],
      "stateMutability": "view",
      "type": "function"
    }
  ],
  "transactionHash": "0xa0e774769fa519e443c845ec38f9ec602ad2724280e391e5e4565b6f534e097b",
  "args": [
    "0x1e73f6842d7afDD78957ac143d1f315404Dd9e5B",
    "0x05C6eEb462A357Bf179e2a95e860eB000941EBaa"
  ],
  "numDeployments": 1,
  "solcInputHash": "22951ac9c2447c131d11a7f7f569b41e",
  "bytecode": "0x60e06040523480156200001157600080fd5b5060405162002290380380620022908339810160408190526200003491620000d0565b806001600160a01b031663cd3293de6040518163ffffffff1660e01b8152600401602060405180830381865afa15801562000073573d6000803e3d6000fd5b505050506040513d601f19601f820116820180604052508101906200009991906200010f565b6001600160a01b0390811660805291821660a0521660c05262000136565b6001600160a01b0381168114620000cd57600080fd5b50565b60008060408385031215620000e457600080fd5b8251620000f181620000b7565b60208401519092506200010481620000b7565b809150509250929050565b6000602082840312156200012257600080fd5b81516200012f81620000b7565b9392505050565b60805160a05160c0516120d6620001ba600039600081816101e40152818161035d0152818161049f01528181610579015281816105ff0152610e3d0152600081816101360152818161038d015281816104ca015281816106270152610e6d0152600081816101bd0152818161084501528181610c4a015261115901526120d66000f3fe608060405234801561001057600080fd5b506004361061012c5760003560e01c80634aef7d8b116100ad5780638bb4e761116100715780638bb4e761146102b8578063a278ce73146102cb578063c2600a1d146102de578063e7865c9a146102f1578063fdc491321461030457600080fd5b80634aef7d8b1461026457806356813c461461027757806366b506321461028a57806379ba50971461029d57806386793134146102a557600080fd5b806314627834116100f457806314627834146101b85780631836e0da146101df57806327cfe856146102065780632865ae721461022857806332ed5b121461023b57600080fd5b80630618da0e1461013157806306b16f921461017557806309824a801461018a5780630e18b6811461019d578063104e9929146101a5575b600080fd5b6101587f000000000000000000000000000000000000000000000000000000000000000081565b6040516001600160a01b0390911681526020015b60405180910390f35b61018861018336600461131b565b610317565b005b61018861019836600461131b565b610488565b6101886105e8565b600054610158906001600160a01b031681565b6101587f000000000000000000000000000000000000000000000000000000000000000081565b6101587f000000000000000000000000000000000000000000000000000000000000000081565b6102106201518081565b6040516001600160401b03909116815260200161016c565b61018861023636600461135b565b610685565b610210610249366004611376565b6001602052600090815260409020546001600160401b031681565b610188610272366004611552565b6107c0565b6101886102853660046115ba565b610841565b6101886102983660046115f8565b610961565b610188610b02565b6101886102b336600461169a565b610b43565b6101886102c63660046117fa565b610c46565b6101886102d9366004611872565b610d72565b6101886102ec3660046118c9565b610de5565b6101886102ff3660046118c9565b610f99565b610188610312366004611904565b611011565b6103468160405160200161032b9190611922565b60405160208183030381529060405280519060200120611089565b604051636ed6fd4760e11b81526001600160a01b037f00000000000000000000000000000000000000000000000000000000000000008116600483015282811660248301527f0000000000000000000000000000000000000000000000000000000000000000169063ddadfa8e90604401600060405180830381600087803b1580156103d157600080fd5b505af11580156103e5573d6000803e3d6000fd5b505060005460405163f2fde38b60e01b81526001600160a01b038581166004830152909116925063f2fde38b9150602401600060405180830381600087803b15801561043057600080fd5b505af1158015610444573d6000803e3d6000fd5b50506040516001600160a01b03841681527f87eedd0e13e9fb80060a41db0a20ab3848c96b515a386eace4d1c22c19f64ba09250602001905060405180910390a150565b60405163cb67e3b160e01b81526001600160a01b037f0000000000000000000000000000000000000000000000000000000000000000811660048301526000917f00000000000000000000000000000000000000000000000000000000000000009091169063cb67e3b190602401606060405180830381865afa158015610513573d6000803e3d6000fd5b505050506040513d601f19601f82011682018060405250810190610537919061195a565b516001600160a01b03161461055f5760405163a741a04560e01b815260040160405180910390fd5b6040516001623b4f2b60e21b031981526001600160a01b037f00000000000000000000000000000000000000000000000000000000000000008116600483015282169063ff12c35490602401600060405180830381600087803b1580156105c557600080fd5b505af11580156105d9573d6000803e3d6000fd5b505050506105e56105e8565b50565b604051630ab0ca6d60e11b81526001600160a01b037f0000000000000000000000000000000000000000000000000000000000000000811660048301527f0000000000000000000000000000000000000000000000000000000000000000169063156194da90602401600060405180830381600087803b15801561066b57600080fd5b505af115801561067f573d6000803e3d6000fd5b50505050565b6106998160405160200161032b91906119ae565b6040805160018082528183019092526000916020808301908036833701905050905081816000815181106106cf576106cf6119e4565b6001600160401b039290921660209283029190910182015260408051600080825292810190915281610717565b610704611297565b8152602001906001900390816106fc5790505b5060005460405163e8a1da1760e01b81529192506001600160a01b03169063e8a1da179061074b9085908590600401611b8c565b600060405180830381600087803b15801561076557600080fd5b505af1158015610779573d6000803e3d6000fd5b50506040516001600160401b03861681527f5204aec90a3c794d8e90fded8b46ae9c7c552803e7e832e0c1d358396d859916925060200190505b60405180910390a1505050565b6000836040516020016107d39190611c32565b6040516020818303038152906040528051906020012090506107f88160078585611155565b336001600160a01b03167fc69c8ca301ca62431960a091e21b4ccba9198869711cb21e33c959537aa6e4448286604051610833929190611c6c565b60405180910390a250505050565b81817f00000000000000000000000000000000000000000000000000000000000000006001600160a01b031663352e3a833384846040518463ffffffff1660e01b815260040161089393929190611c85565b60006040518083038186803b1580156108ab57600080fd5b505afa1580156108bf573d6000803e3d6000fd5b5050506000868152600160205260408120546001600160401b031690039050610903576040516304bbf15f60e11b8152600481018690526024015b60405180910390fd5b60008581526001602052604090819020805467ffffffffffffffff19169055517f1f31008e39db52785cc2c4af1b52bfde142d3ad9ff6b5221888a4700481f2f63906109529087815260200190565b60405180910390a15050505050565b6109758160405160200161032b9190611c32565b805115610a3f57600054602082015160408084015190516318b774f160e21b81526001600160a01b03909316926362ddd3c4926109b6929091600401611ce1565b600060405180830381600087803b1580156109d057600080fd5b505af11580156109e4573d6000803e3d6000fd5b5050505080604001516040516109fa9190611d03565b604051809103902081602001516001600160401b03167f7d628c9a1796743d365ab521a8b2a4686e419b3269919dc9145ea2ce853b54ea60405160405180910390a350565b6000546020820151604080840151905163acfecf9160e01b81526001600160a01b039093169263acfecf9192610a79929091600401611ce1565b600060405180830381600087803b158015610a9357600080fd5b505af1158015610aa7573d6000803e3d6000fd5b505050508060400151604051610abd9190611d03565b604051809103902081602001516001600160401b03167f52d00ee4d9bd51b40168f2afc5848837288ce258784ad914278791464b3f4d7660405160405180910390a350565b60008054604080516379ba509760e01b815290516001600160a01b03909216926379ba50979260048084019382900301818387803b15801561066b57600080fd5b610b578160405160200161032b9190611d1f565b604080516000808252600160208301818152606084018552929391929184015b610b7f611297565b815260200190600190039081610b775790505090508281600081518110610ba857610ba86119e4565b602090810291909101015260005460405163e8a1da1760e01b81526001600160a01b039091169063e8a1da1790610be59085908590600401611b8c565b600060405180830381600087803b158015610bff57600080fd5b505af1158015610c13573d6000803e3d6000fd5b505050507f997ece7f5dbb418762275ab79bd907b726b4b93ce7ce4a3bf20485ed9abe7faa836040516107b39190611d59565b81817f00000000000000000000000000000000000000000000000000000000000000006001600160a01b031663352e3a833384846040518463ffffffff1660e01b8152600401610c9893929190611c85565b60006040518083038186803b158015610cb057600080fd5b505afa158015610cc4573d6000803e3d6000fd5b505060005460405163cf7401f360e01b81526001600160a01b03909116925063cf7401f39150610cfc908a908a908a90600401611dae565b600060405180830381600087803b158015610d1657600080fd5b505af1158015610d2a573d6000803e3d6000fd5b505050507f3deebf0b3430431835efe0c537812d7973219fdd0bdd3aeaddb8db166ab7bf27878787604051610d6193929190611dae565b60405180910390a150505050505050565b600083604051602001610d859190611f5b565b604051602081830303815290604052805190602001209050610daa8160078585611155565b336001600160a01b03167f68457984b8b28a38a49b3e46cb383b047dbca87b3b2e45d9181439f84169d0288286604051610833929190611f95565b6000546001600160a01b031615610e0f5760405163a741a04560e01b815260040160405180910390fd5b600080546001600160a01b0319166001600160a01b03858116918217909255604051634e847fc760e01b81527f00000000000000000000000000000000000000000000000000000000000000008316600482015260248101919091527f000000000000000000000000000000000000000000000000000000000000000090911690634e847fc790604401600060405180830381600087803b158015610eb357600080fd5b505af1158015610ec7573d6000803e3d6000fd5b505060008054604080516379ba509760e01b815290516001600160a01b0390921694506379ba50979350600480820193929182900301818387803b158015610f0e57600080fd5b505af1158015610f22573d6000803e3d6000fd5b50506000805460408051928352602083019081905263e8a1da1760e01b90526001600160a01b0316925063e8a1da179150610f6290858560248301611fae565b600060405180830381600087803b158015610f7c57600080fd5b505af1158015610f90573d6000803e3d6000fd5b50505050505050565b600083604051602001610fac9190611922565b604051602081830303815290604052805190602001209050610fd18160158585611155565b604080518281526001600160a01b038616602082015233917f7e3383d715b50982af3e6f86cd3a22cc104cf300b02375e0c8738244d95857c79101610833565b60008360405160200161102491906119ae565b6040516020818303038152906040528051906020012090506110498160078585611155565b604080518281526001600160401b038616602082015233917f5a570504a3f0608bbc8a5bf898d58fba6c092e1424e5f9e5a3e8635cae1976ce9101610833565b6000818152600160205260408120546001600160401b0316908190036110c5576040516304bbf15f60e11b8152600481018390526024016108fa565b42816001600160401b031611156110fa5760405163d606d83f60e01b81526001600160401b03821660048201526024016108fa565b60008281526001602052604090819020805467ffffffffffffffff19169055517fa3b6368b6d3f37515d1e7c5f2419ec24fb57f5f867fd9456a70d950bdac1f4c6906111499084815260200190565b60405180910390a15050565b81817f00000000000000000000000000000000000000000000000000000000000000006001600160a01b031663352e3a833384846040518463ffffffff1660e01b81526004016111a793929190611c85565b60006040518083038186803b1580156111bf57600080fd5b505afa1580156111d3573d6000803e3d6000fd5b5050506000878152600160205260409020546001600160401b031615905061121157604051634c44e3d360e11b8152600481018790526024016108fa565b61121e620151808661204e565b6112289042612079565b600087815260016020908152604091829020805467ffffffffffffffff19166001600160401b039490941693841790558151898152908101929092527f497e45dce2bd7277051c7194a9252a4560c476938b268b26082614bd9d655e55910160405180910390a1505050505050565b6040518060a0016040528060006001600160401b0316815260200160608152602001606081526020016112e3604080516060810182526000808252602082018190529181019190915290565b815260408051606081018252600080825260208281018290529282015291015290565b6001600160a01b03811681146105e557600080fd5b60006020828403121561132d57600080fd5b813561133881611306565b9392505050565b80356001600160401b038116811461135657600080fd5b919050565b60006020828403121561136d57600080fd5b6113388261133f565b60006020828403121561138857600080fd5b5035919050565b634e487b7160e01b600052604160045260246000fd5b604051606081016001600160401b03811182821017156113c7576113c761138f565b60405290565b60405160a081016001600160401b03811182821017156113c7576113c761138f565b604051601f8201601f191681016001600160401b03811182821017156114175761141761138f565b604052919050565b8035801515811461135657600080fd5b600082601f83011261144057600080fd5b81356001600160401b038111156114595761145961138f565b61146c601f8201601f19166020016113ef565b81815284602083860101111561148157600080fd5b816020850160208301376000918101602001919091529392505050565b6000606082840312156114b057600080fd5b6114b86113a5565b90506114c38261141f565b81526114d16020830161133f565b602082015260408201356001600160401b038111156114ef57600080fd5b6114fb8482850161142f565b60408301525092915050565b60008083601f84011261151957600080fd5b5081356001600160401b0381111561153057600080fd5b6020830191508360208260051b850101111561154b57600080fd5b9250929050565b60008060006040848603121561156757600080fd5b83356001600160401b038082111561157e57600080fd5b61158a8783880161149e565b945060208601359150808211156115a057600080fd5b506115ad86828701611507565b9497909650939450505050565b6000806000604084860312156115cf57600080fd5b8335925060208401356001600160401b038111156115ec57600080fd5b6115ad86828701611507565b60006020828403121561160a57600080fd5b81356001600160401b0381111561162057600080fd5b61162c8482850161149e565b949350505050565b80356001600160801b038116811461135657600080fd5b60006060828403121561165d57600080fd5b6116656113a5565b90506116708261141f565b815261167e60208301611634565b602082015261168f60408301611634565b604082015292915050565b600060208083850312156116ad57600080fd5b82356001600160401b03808211156116c457600080fd5b9084019061012082870312156116d957600080fd5b6116e16113cd565b6116ea8361133f565b815283830135828111156116fd57600080fd5b8301601f8101881361170e57600080fd5b8035838111156117205761172061138f565b8060051b61172f8782016113ef565b918252828101870191878101908b84111561174957600080fd5b88850192505b83831015611785578235878111156117675760008081fd5b6117758d8b8389010161142f565b835250918801919088019061174f565b8089870152505050505060408301359350818411156117a357600080fd5b6117af8785850161142f565b60408201526117c1876060850161164b565b60608201526117d38760c0850161164b565b60808201529695505050505050565b6000606082840312156117f457600080fd5b50919050565b6000806000806000610100868803121561181357600080fd5b61181c8661133f565b945061182b87602088016117e2565b935061183a87608088016117e2565b925060e08601356001600160401b0381111561185557600080fd5b61186188828901611507565b969995985093965092949392505050565b60008060006040848603121561188757600080fd5b83356001600160401b038082111561189e57600080fd5b9085019061012082880312156118b357600080fd5b909350602085013590808211156115a057600080fd5b6000806000604084860312156118de57600080fd5b83356118e981611306565b925060208401356001600160401b038111156115ec57600080fd5b60008060006040848603121561191957600080fd5b6118e98461133f565b6040808252600d908201526c30b236b4b72a3930b739b332b960991b60608201526001600160a01b0391909116602082015260800190565b60006060828403121561196c57600080fd5b6119746113a5565b825161197f81611306565b8152602083015161198f81611306565b602082015260408301516119a281611306565b60408201529392505050565b6040808252600b908201526a3932b6b7bb32a1b430b4b760a91b60608201526001600160401b0391909116602082015260800190565b634e487b7160e01b600052603260045260246000fd5b60008151808452602080850194506020840160005b83811015611a345781516001600160401b031687529582019590820190600101611a0f565b509495945050505050565b60005b83811015611a5a578181015183820152602001611a42565b50506000910152565b60008151808452611a7b816020860160208601611a3f565b601f01601f19169290920160200192915050565b80516001600160401b03168252602080820151610120828501819052815190850181905260009261014080870193600584901b88019091019290820190855b81811015611afd5761013f19898603018652611aeb858451611a63565b95840195945091830191600101611ace565b50505050604084015191508481036040860152611b1a8183611a63565b9150506060830151611b5460608601828051151582526020808201516001600160801b039081169184019190915260409182015116910152565b5060808301518051151560c086015260208101516001600160801b0390811660e0870152604082015116610100860152509392505050565b604081526000611b9f60408301856119fa565b6020838203818501528185518084528284019150828160051b85010183880160005b83811015611bef57601f19878403018552611bdd838351611a8f565b94860194925090850190600101611bc1565b50909998505050505050505050565b8051151582526001600160401b036020820151166020830152600060408201516060604085015261162c6060850182611a63565b60408152601060408201526f72656d6f7465506f6f6c55706461746560801b60608201526080602082015260006113386080830184611bfe565b82815260406020820152600061162c6040830184611bfe565b6001600160a01b03848116825260406020808401829052908301849052600091859160608501845b87811015611cd4578435611cc081611306565b841682529382019390820190600101611cad565b5098975050505050505050565b6001600160401b038316815260406020820152600061162c6040830184611a63565b60008251611d15818460208701611a3f565b9190910192915050565b604081526000611d4760408301600881526730b23221b430b4b760c11b602082015260400190565b828103602084015261162c8185611a8f565b6020815260006113386020830184611a8f565b611d758161141f565b15158252611d8560208201611634565b6001600160801b03808216602085015280611da260408501611634565b16604085015250505050565b6001600160401b038416815260e08101611dcb6020830185611d6c565b61162c6080830184611d6c565b81835281816020850137506000828201602090810191909152601f909101601f19169091010190565b6000808335601e19843603018112611e1857600080fd5b83016020810192503590506001600160401b03811115611e3757600080fd5b80360382131561154b57600080fd5b6000838385526020808601955060208560051b8301018460005b87811015611e9a57848303601f19018952611e7b8288611e01565b611e86858284611dd8565b9a86019a9450505090830190600101611e60565b5090979650505050505050565b60006101206001600160401b0380611ebe8561133f565b1685526020840135601e19853603018112611ed857600080fd5b840160208101903582811115611eed57600080fd5b8060051b3603821315611eff57600080fd5b836020880152611f128488018284611e46565b9350505050611f246040840184611e01565b8583036040870152611f37838284611dd8565b92505050611f4b6060850160608501611d6c565b61133860c0850160c08501611d6c565b604081526000611f8360408301600881526730b23221b430b4b760c11b602082015260400190565b828103602084015261162c8185611ea7565b82815260406020820152600061162c6040830184611ea7565b604081526000611fc160408301866119fa565b602083820360208501528185835260208301905060208660051b840101876000805b8981101561202857868403601f190185528235368c900361011e19018112612009578283fd5b612015858d8301611ea7565b9587019594505091850191600101611fe3565b50919a9950505050505050505050565b634e487b7160e01b600052601160045260246000fd5b6001600160401b0381811683821602808216919082811461207157612071612038565b505092915050565b6001600160401b0381811683821601908082111561209957612099612038565b509291505056fea2646970667358221220b44faff540c5decec889da3fa41b19c05b29e44d3c42438e42c61afc21178b7064736f6c63430008180033",
  "devdoc": {
    "kind": "dev",
    "methods": {
      "applyAddChain((uint64,bytes[],bytes,(bool,uint128,uint128),(bool,uint128,uint128)))": {
        "details": "Bulk function that allows multiple updates at once",
        "params": {
          "config": "RemoteChainUpdate information"
        }
      },
      "applyAdminTransfer(address)": {
        "details": "Transfers admin on the TokenPool and ownership on the ZCHF token on the TokenAdminRegistry",
        "params": {
          "newAdmin": "The address of the new admin"
        }
      },
      "applyRateLimit(uint64,(bool,uint128,uint128),(bool,uint128,uint128),address[])": {
        "params": {
          "chain": "The chain to set the rate limits for",
          "helpers": "Array of helper addresses for qualification check",
          "inbound": "The inbound rate limits",
          "outbound": "The outbound rate limits"
        }
      },
      "applyRemotePoolUpdate((bool,uint64,bytes))": {
        "params": {
          "update": "RemotePoolUpdate information"
        }
      },
      "applyRemoveChain(uint64)": {
        "params": {
          "chainId": "The chain to remove"
        }
      },
      "deny(bytes32,address[])": {
        "details": "Only qualified voters can deny proposals",
        "params": {
          "hash": "The hash of the proposal to deny",
          "helpers": "Array of helper addresses for qualification check"
        }
      },
      "proposeAddChain((uint64,bytes[],bytes,(bool,uint128,uint128),(bool,uint128,uint128)),address[])": {
        "details": "The contract only stores the hash. So the data has to be passed in during apply again",
        "params": {
          "config": "The chain configuration",
          "helpers": "Array of helper addresses for qualification check"
        }
      },
      "proposeAdminTransfer(address,address[])": {
        "details": "Useful to transfer to a new CCIPAdmin contract",
        "params": {
          "helpers": "Array of helper addresses for qualification check",
          "newAdmin": "The address of the new admin"
        }
      },
      "proposeRemotePoolUpdate((bool,uint64,bytes),address[])": {
        "details": "The contract only stores the hash. So the data has to be passed in during apply again",
        "params": {
          "helpers": "The helpers to get enough votes",
          "update": "The update proposal"
        }
      },
      "proposeRemoveChain(uint64,address[])": {
        "details": "The contract only stores the hash. So the data has to be passed in during apply again",
        "params": {
          "chainId": "The chain to remove",
          "helpers": "Array of helper addresses for qualification check"
        }
      },
      "registerToken(address)": {
        "details": "Can only be called while the token admin is not set",
        "params": {
          "registry": "The registry to register the token with"
        }
      },
      "setTokenPool(address,(uint64,bytes[],bytes,(bool,uint128,uint128),(bool,uint128,uint128))[])": {
        "details": "The token pool can only be set once",
        "params": {
          "_tokenPool": "The token pool to set",
          "chainsToAdd": "The chains to add to the token pool"
        }
      }
    },
    "version": 1
  },
  "userdoc": {
    "kind": "user",
    "methods": {
      "acceptAdmin()": {
        "notice": "Accepts the admin role transfer on the TokenAdminRegistry"
      },
      "acceptOwnership()": {
        "notice": "Accepts ownership transfer on the TokenPool"
      },
      "applyAddChain((uint64,bytes[],bytes,(bool,uint128,uint128),(bool,uint128,uint128)))": {
        "notice": "Applies the remote chain updates"
      },
      "applyAdminTransfer(address)": {
        "notice": "Applies the admin transfer"
      },
      "applyRateLimit(uint64,(bool,uint128,uint128),(bool,uint128,uint128),address[])": {
        "notice": "Sets the rate limits for the given chain. Any qualified voter can apply rate limits with immediate effect. Rate limits can only do limited harm, so it is acceptable to be very permissive. At the same time, rate limits are typically applied during emergencies, e.g. when a chain has been hacked. Therefore, it is desirable to ensure that they can be applied quickly. Nonetheless, the proposal fee is still charged to discourage shenenigans."
      },
      "applyRemotePoolUpdate((bool,uint64,bytes))": {
        "notice": "Applies the update on the TokenPool"
      },
      "applyRemoveChain(uint64)": {
        "notice": "Applies the remove chain proposal"
      },
      "deny(bytes32,address[])": {
        "notice": "Denies and removes a pending proposal"
      },
      "proposeAddChain((uint64,bytes[],bytes,(bool,uint128,uint128),(bool,uint128,uint128)),address[])": {
        "notice": "Propose to add or remove remote chains"
      },
      "proposeAdminTransfer(address,address[])": {
        "notice": "Proposed a new admin for the TokenPool and Admin on the Token registry"
      },
      "proposeRemotePoolUpdate((bool,uint64,bytes),address[])": {
        "notice": "Proposed a remote pool update"
      },
      "proposeRemoveChain(uint64,address[])": {
        "notice": "Propose to add or remove remote chains"
      },
      "registerToken(address)": {
        "notice": "Registers the token in the CCIP system"
      },
      "setTokenPool(address,(uint64,bytes[],bytes,(bool,uint128,uint128),(bool,uint128,uint128))[])": {
        "notice": "Sets the token pool to administer, sets in in the TokenAdminRegistry, accept ownership, and applies the chain updates"
      }
    },
    "notice": "The admin for briding Frankencoins using CCIP. Each chain needs an instance of this administrator.",
    "version": 1
  },
  "storageLayout": {
    "storage": [
      {
        "astId": 5000,
        "contract": "contracts/bridge/CCIPAdmin.sol:CCIPAdmin",
        "label": "tokenPool",
        "offset": 0,
        "slot": "0",
        "type": "t_contract(ITokenPool)5816"
      },
      {
        "astId": 5016,
        "contract": "contracts/bridge/CCIPAdmin.sol:CCIPAdmin",
        "label": "proposals",
        "offset": 0,
        "slot": "1",
        "type": "t_mapping(t_bytes32,t_uint64)"
      }
    ],
    "types": {
      "t_bytes32": {
        "encoding": "inplace",
        "label": "bytes32",
        "numberOfBytes": "32"
      },
      "t_contract(ITokenPool)5816": {
        "encoding": "inplace",
        "label": "contract ITokenPool",
        "numberOfBytes": "20"
      },
      "t_mapping(t_bytes32,t_uint64)": {
        "encoding": "mapping",
        "key": "t_bytes32",
        "label": "mapping(bytes32 => uint64)",
        "numberOfBytes": "32",
        "value": "t_uint64"
      },
      "t_uint64": {
        "encoding": "inplace",
        "label": "uint64",
        "numberOfBytes": "8"
      }
    }
  }
}