{
  "address": "0x23879A2CD236D5977D934171289c60E9Cbe471E8",
  "abi": [
    {
      "inputs": [
        {
          "internalType": "contract TokenAdminRegistry",
          "name": "tokenAdminRegistry",
          "type": "address"
        },
        {
          "internalType": "contract IBasicFrankencoin",
          "name": "zchf",
          "type": "address"
        }
      ],
      "stateMutability": "nonpayable",
      "type": "constructor"
    },
    {
      "inputs": [],
      "name": "AlreadyRegistered",
      "type": "error"
    },
    {
      "inputs": [
        {
          "internalType": "bytes32",
          "name": "hash",
          "type": "bytes32"
        }
      ],
      "name": "ProposalAlreadyMade",
      "type": "error"
    },
    {
      "inputs": [],
      "name": "TokenPoolNotSet",
      "type": "error"
    },
    {
      "inputs": [
        {
          "internalType": "uint64",
          "name": "deadline",
          "type": "uint64"
        }
      ],
      "name": "TooEarly",
      "type": "error"
    },
    {
      "inputs": [
        {
          "internalType": "bytes32",
          "name": "hash",
          "type": "bytes32"
        }
      ],
      "name": "UnknownProposal",
      "type": "error"
    },
    {
      "anonymous": false,
      "inputs": [
        {
          "indexed": false,
          "internalType": "bytes32",
          "name": "hash",
          "type": "bytes32"
        },
        {
          "indexed": true,
          "internalType": "address",
          "name": "proposer",
          "type": "address"
        },
        {
          "components": [
            {
              "internalType": "uint64",
              "name": "remoteChainSelector",
              "type": "uint64"
            },
            {
              "internalType": "bytes[]",
              "name": "remotePoolAddresses",
              "type": "bytes[]"
            },
            {
              "internalType": "bytes",
              "name": "remoteTokenAddress",
              "type": "bytes"
            },
            {
              "components": [
                {
                  "internalType": "bool",
                  "name": "isEnabled",
                  "type": "bool"
                },
                {
                  "internalType": "uint128",
                  "name": "capacity",
                  "type": "uint128"
                },
                {
                  "internalType": "uint128",
                  "name": "rate",
                  "type": "uint128"
                }
              ],
              "internalType": "struct RateLimiter.Config",
              "name": "outboundRateLimiterConfig",
              "type": "tuple"
            },
            {
              "components": [
                {
                  "internalType": "bool",
                  "name": "isEnabled",
                  "type": "bool"
                },
                {
                  "internalType": "uint128",
                  "name": "capacity",
                  "type": "uint128"
                },
                {
                  "internalType": "uint128",
                  "name": "rate",
                  "type": "uint128"
                }
              ],
              "internalType": "struct RateLimiter.Config",
              "name": "inboundRateLimiterConfig",
              "type": "tuple"
            }
          ],
          "indexed": false,
          "internalType": "struct ITokenPool.ChainUpdate",
          "name": "update",
          "type": "tuple"
        }
      ],
      "name": "AddChainProposed",
      "type": "event"
    },
    {
      "anonymous": false,
      "inputs": [
        {
          "indexed": false,
          "internalType": "bytes32",
          "name": "hash",
          "type": "bytes32"
        },
        {
          "indexed": true,
          "internalType": "address",
          "name": "proposer",
          "type": "address"
        },
        {
          "indexed": false,
          "internalType": "address",
          "name": "newAdmin",
          "type": "address"
        }
      ],
      "name": "AdminTransferProposed",
      "type": "event"
    },
    {
      "anonymous": false,
      "inputs": [
        {
          "indexed": false,
          "internalType": "address",
          "name": "newAdmin",
          "type": "address"
        }
      ],
      "name": "AdminTransfered",
      "type": "event"
    },
    {
      "anonymous": false,
      "inputs": [
        {
          "components": [
            {
              "internalType": "uint64",
              "name": "remoteChainSelector",
              "type": "uint64"
            },
            {
              "internalType": "bytes[]",
              "name": "remotePoolAddresses",
              "type": "bytes[]"
            },
            {
              "internalType": "bytes",
              "name": "remoteTokenAddress",
              "type": "bytes"
            },
            {
              "components": [
                {
                  "internalType": "bool",
                  "name": "isEnabled",
                  "type": "bool"
                },
                {
                  "internalType": "uint128",
                  "name": "capacity",
                  "type": "uint128"
                },
                {
                  "internalType": "uint128",
                  "name": "rate",
                  "type": "uint128"
                }
              ],
              "internalType": "struct RateLimiter.Config",
              "name": "outboundRateLimiterConfig",
              "type": "tuple"
            },
            {
              "components": [
                {
                  "internalType": "bool",
                  "name": "isEnabled",
                  "type": "bool"
                },
                {
                  "internalType": "uint128",
                  "name": "capacity",
                  "type": "uint128"
                },
                {
                  "internalType": "uint128",
                  "name": "rate",
                  "type": "uint128"
                }
              ],
              "internalType": "struct RateLimiter.Config",
              "name": "inboundRateLimiterConfig",
              "type": "tuple"
            }
          ],
          "indexed": false,
          "internalType": "struct ITokenPool.ChainUpdate",
          "name": "config",
          "type": "tuple"
        }
      ],
      "name": "ChainAdded",
      "type": "event"
    },
    {
      "anonymous": false,
      "inputs": [
        {
          "indexed": false,
          "internalType": "uint64",
          "name": "id",
          "type": "uint64"
        }
      ],
      "name": "ChainRemoved",
      "type": "event"
    },
    {
      "anonymous": false,
      "inputs": [
        {
          "indexed": false,
          "internalType": "bytes32",
          "name": "hash",
          "type": "bytes32"
        }
      ],
      "name": "ProposalDenied",
      "type": "event"
    },
    {
      "anonymous": false,
      "inputs": [
        {
          "indexed": false,
          "internalType": "bytes32",
          "name": "hash",
          "type": "bytes32"
        }
      ],
      "name": "ProposalEnacted",
      "type": "event"
    },
    {
      "anonymous": false,
      "inputs": [
        {
          "indexed": false,
          "internalType": "bytes32",
          "name": "hash",
          "type": "bytes32"
        },
        {
          "indexed": false,
          "internalType": "uint64",
          "name": "deadline",
          "type": "uint64"
        }
      ],
      "name": "ProposalMade",
      "type": "event"
    },
    {
      "anonymous": false,
      "inputs": [
        {
          "indexed": false,
          "internalType": "uint64",
          "name": "remoteChain",
          "type": "uint64"
        },
        {
          "components": [
            {
              "internalType": "bool",
              "name": "isEnabled",
              "type": "bool"
            },
            {
              "internalType": "uint128",
              "name": "capacity",
              "type": "uint128"
            },
            {
              "internalType": "uint128",
              "name": "rate",
              "type": "uint128"
            }
          ],
          "indexed": false,
          "internalType": "struct RateLimiter.Config",
          "name": "inboundConfigs",
          "type": "tuple"
        },
        {
          "components": [
            {
              "internalType": "bool",
              "name": "isEnabled",
              "type": "bool"
            },
            {
              "internalType": "uint128",
              "name": "capacity",
              "type": "uint128"
            },
            {
              "internalType": "uint128",
              "name": "rate",
              "type": "uint128"
            }
          ],
          "indexed": false,
          "internalType": "struct RateLimiter.Config",
          "name": "outboundConfig",
          "type": "tuple"
        }
      ],
      "name": "RateLimit",
      "type": "event"
    },
    {
      "anonymous": false,
      "inputs": [
        {
          "indexed": true,
          "internalType": "uint64",
          "name": "chain",
          "type": "uint64"
        },
        {
          "indexed": true,
          "internalType": "bytes",
          "name": "poolAddress",
          "type": "bytes"
        }
      ],
      "name": "RemotePoolAdded",
      "type": "event"
    },
    {
      "anonymous": false,
      "inputs": [
        {
          "indexed": true,
          "internalType": "uint64",
          "name": "chain",
          "type": "uint64"
        },
        {
          "indexed": true,
          "internalType": "bytes",
          "name": "poolAddress",
          "type": "bytes"
        }
      ],
      "name": "RemotePoolRemoved",
      "type": "event"
    },
    {
      "anonymous": false,
      "inputs": [
        {
          "indexed": false,
          "internalType": "bytes32",
          "name": "hash",
          "type": "bytes32"
        },
        {
          "indexed": true,
          "internalType": "address",
          "name": "proposer",
          "type": "address"
        },
        {
          "components": [
            {
              "internalType": "bool",
              "name": "add",
              "type": "bool"
            },
            {
              "internalType": "uint64",
              "name": "chain",
              "type": "uint64"
            },
            {
              "internalType": "bytes",
              "name": "poolAddress",
              "type": "bytes"
            }
          ],
          "indexed": false,
          "internalType": "struct CCIPAdmin.RemotePoolUpdate",
          "name": "update",
          "type": "tuple"
        }
      ],
      "name": "RemotePoolUpdateProposed",
      "type": "event"
    },
    {
      "anonymous": false,
      "inputs": [
        {
          "indexed": false,
          "internalType": "bytes32",
          "name": "hash",
          "type": "bytes32"
        },
        {
          "indexed": true,
          "internalType": "address",
          "name": "proposer",
          "type": "address"
        },
        {
          "indexed": false,
          "internalType": "uint64",
          "name": "chain",
          "type": "uint64"
        }
      ],
      "name": "RemoveChainProposed",
      "type": "event"
    },
    {
      "anonymous": false,
      "inputs": [
        {
          "indexed": true,
          "internalType": "address",
          "name": "tokenPool",
          "type": "address"
        }
      ],
      "name": "TokenPoolSet",
      "type": "event"
    },
    {
      "inputs": [],
      "name": "DAY",
      "outputs": [
        {
          "internalType": "uint64",
          "name": "",
          "type": "uint64"
        }
      ],
      "stateMutability": "view",
      "type": "function"
    },
    {
      "inputs": [],
      "name": "GOVERNANCE",
      "outputs": [
        {
          "internalType": "contract IGovernance",
          "name": "",
          "type": "address"
        }
      ],
      "stateMutability": "view",
      "type": "function"
    },
    {
      "inputs": [],
      "name": "TOKEN_ADMIN_REGISTRY",
      "outputs": [
        {
          "internalType": "contract TokenAdminRegistry",
          "name": "",
          "type": "address"
        }
      ],
      "stateMutability": "view",
      "type": "function"
    },
    {
      "inputs": [],
      "name": "ZCHF",
      "outputs": [
        {
          "internalType": "address",
          "name": "",
          "type": "address"
        }
      ],
      "stateMutability": "view",
      "type": "function"
    },
    {
      "inputs": [
        {
          "internalType": "contract ITokenPool",
          "name": "_tokenPool",
          "type": "address"
        },
        {
          "components": [
            {
              "internalType": "uint64",
              "name": "remoteChainSelector",
              "type": "uint64"
            },
            {
              "internalType": "bytes[]",
              "name": "remotePoolAddresses",
              "type": "bytes[]"
            },
            {
              "internalType": "bytes",
              "name": "remoteTokenAddress",
              "type": "bytes"
            },
            {
              "components": [
                {
                  "internalType": "bool",
                  "name": "isEnabled",
                  "type": "bool"
                },
                {
                  "internalType": "uint128",
                  "name": "capacity",
                  "type": "uint128"
                },
                {
                  "internalType": "uint128",
                  "name": "rate",
                  "type": "uint128"
                }
              ],
              "internalType": "struct RateLimiter.Config",
              "name": "outboundRateLimiterConfig",
              "type": "tuple"
            },
            {
              "components": [
                {
                  "internalType": "bool",
                  "name": "isEnabled",
                  "type": "bool"
                },
                {
                  "internalType": "uint128",
                  "name": "capacity",
                  "type": "uint128"
                },
                {
                  "internalType": "uint128",
                  "name": "rate",
                  "type": "uint128"
                }
              ],
              "internalType": "struct RateLimiter.Config",
              "name": "inboundRateLimiterConfig",
              "type": "tuple"
            }
          ],
          "internalType": "struct ITokenPool.ChainUpdate[]",
          "name": "chainsToAdd",
          "type": "tuple[]"
        }
      ],
      "name": "acceptAdmin",
      "outputs": [],
      "stateMutability": "nonpayable",
      "type": "function"
    },
    {
      "inputs": [
        {
          "components": [
            {
              "internalType": "uint64",
              "name": "remoteChainSelector",
              "type": "uint64"
            },
            {
              "internalType": "bytes[]",
              "name": "remotePoolAddresses",
              "type": "bytes[]"
            },
            {
              "internalType": "bytes",
              "name": "remoteTokenAddress",
              "type": "bytes"
            },
            {
              "components": [
                {
                  "internalType": "bool",
                  "name": "isEnabled",
                  "type": "bool"
                },
                {
                  "internalType": "uint128",
                  "name": "capacity",
                  "type": "uint128"
                },
                {
                  "internalType": "uint128",
                  "name": "rate",
                  "type": "uint128"
                }
              ],
              "internalType": "struct RateLimiter.Config",
              "name": "outboundRateLimiterConfig",
              "type": "tuple"
            },
            {
              "components": [
                {
                  "internalType": "bool",
                  "name": "isEnabled",
                  "type": "bool"
                },
                {
                  "internalType": "uint128",
                  "name": "capacity",
                  "type": "uint128"
                },
                {
                  "internalType": "uint128",
                  "name": "rate",
                  "type": "uint128"
                }
              ],
              "internalType": "struct RateLimiter.Config",
              "name": "inboundRateLimiterConfig",
              "type": "tuple"
            }
          ],
          "internalType": "struct ITokenPool.ChainUpdate",
          "name": "config",
          "type": "tuple"
        }
      ],
      "name": "applyAddChain",
      "outputs": [],
      "stateMutability": "nonpayable",
      "type": "function"
    },
    {
      "inputs": [
        {
          "internalType": "address",
          "name": "newAdmin",
          "type": "address"
        }
      ],
      "name": "applyAdminTransfer",
      "outputs": [],
      "stateMutability": "nonpayable",
      "type": "function"
    },
    {
      "inputs": [
        {
          "internalType": "uint64",
          "name": "chain",
          "type": "uint64"
        },
        {
          "components": [
            {
              "internalType": "bool",
              "name": "isEnabled",
              "type": "bool"
            },
            {
              "internalType": "uint128",
              "name": "capacity",
              "type": "uint128"
            },
            {
              "internalType": "uint128",
              "name": "rate",
              "type": "uint128"
            }
          ],
          "internalType": "struct RateLimiter.Config",
          "name": "inbound",
          "type": "tuple"
        },
        {
          "components": [
            {
              "internalType": "bool",
              "name": "isEnabled",
              "type": "bool"
            },
            {
              "internalType": "uint128",
              "name": "capacity",
              "type": "uint128"
            },
            {
              "internalType": "uint128",
              "name": "rate",
              "type": "uint128"
            }
          ],
          "internalType": "struct RateLimiter.Config",
          "name": "outbound",
          "type": "tuple"
        },
        {
          "internalType": "address[]",
          "name": "helpers",
          "type": "address[]"
        }
      ],
      "name": "applyRateLimit",
      "outputs": [],
      "stateMutability": "nonpayable",
      "type": "function"
    },
    {
      "inputs": [
        {
          "components": [
            {
              "internalType": "bool",
              "name": "add",
              "type": "bool"
            },
            {
              "internalType": "uint64",
              "name": "chain",
              "type": "uint64"
            },
            {
              "internalType": "bytes",
              "name": "poolAddress",
              "type": "bytes"
            }
          ],
          "internalType": "struct CCIPAdmin.RemotePoolUpdate",
          "name": "update",
          "type": "tuple"
        }
      ],
      "name": "applyRemotePoolUpdate",
      "outputs": [],
      "stateMutability": "nonpayable",
      "type": "function"
    },
    {
      "inputs": [
        {
          "internalType": "uint64",
          "name": "chainId",
          "type": "uint64"
        }
      ],
      "name": "applyRemoveChain",
      "outputs": [],
      "stateMutability": "nonpayable",
      "type": "function"
    },
    {
      "inputs": [
        {
          "internalType": "bytes32",
          "name": "hash",
          "type": "bytes32"
        },
        {
          "internalType": "address[]",
          "name": "helpers",
          "type": "address[]"
        }
      ],
      "name": "deny",
      "outputs": [],
      "stateMutability": "nonpayable",
      "type": "function"
    },
    {
      "inputs": [
        {
          "internalType": "bytes32",
          "name": "hash",
          "type": "bytes32"
        }
      ],
      "name": "proposals",
      "outputs": [
        {
          "internalType": "uint64",
          "name": "deadline",
          "type": "uint64"
        }
      ],
      "stateMutability": "view",
      "type": "function"
    },
    {
      "inputs": [
        {
          "components": [
            {
              "internalType": "uint64",
              "name": "remoteChainSelector",
              "type": "uint64"
            },
            {
              "internalType": "bytes[]",
              "name": "remotePoolAddresses",
              "type": "bytes[]"
            },
            {
              "internalType": "bytes",
              "name": "remoteTokenAddress",
              "type": "bytes"
            },
            {
              "components": [
                {
                  "internalType": "bool",
                  "name": "isEnabled",
                  "type": "bool"
                },
                {
                  "internalType": "uint128",
                  "name": "capacity",
                  "type": "uint128"
                },
                {
                  "internalType": "uint128",
                  "name": "rate",
                  "type": "uint128"
                }
              ],
              "internalType": "struct RateLimiter.Config",
              "name": "outboundRateLimiterConfig",
              "type": "tuple"
            },
            {
              "components": [
                {
                  "internalType": "bool",
                  "name": "isEnabled",
                  "type": "bool"
                },
                {
                  "internalType": "uint128",
                  "name": "capacity",
                  "type": "uint128"
                },
                {
                  "internalType": "uint128",
                  "name": "rate",
                  "type": "uint128"
                }
              ],
              "internalType": "struct RateLimiter.Config",
              "name": "inboundRateLimiterConfig",
              "type": "tuple"
            }
          ],
          "internalType": "struct ITokenPool.ChainUpdate",
          "name": "config",
          "type": "tuple"
        },
        {
          "internalType": "address[]",
          "name": "helpers",
          "type": "address[]"
        }
      ],
      "name": "proposeAddChain",
      "outputs": [],
      "stateMutability": "nonpayable",
      "type": "function"
    },
    {
      "inputs": [
        {
          "internalType": "address",
          "name": "newAdmin",
          "type": "address"
        },
        {
          "internalType": "address[]",
          "name": "helpers",
          "type": "address[]"
        }
      ],
      "name": "proposeAdminTransfer",
      "outputs": [],
      "stateMutability": "nonpayable",
      "type": "function"
    },
    {
      "inputs": [
        {
          "components": [
            {
              "internalType": "bool",
              "name": "add",
              "type": "bool"
            },
            {
              "internalType": "uint64",
              "name": "chain",
              "type": "uint64"
            },
            {
              "internalType": "bytes",
              "name": "poolAddress",
              "type": "bytes"
            }
          ],
          "internalType": "struct CCIPAdmin.RemotePoolUpdate",
          "name": "update",
          "type": "tuple"
        },
        {
          "internalType": "address[]",
          "name": "helpers",
          "type": "address[]"
        }
      ],
      "name": "proposeRemotePoolUpdate",
      "outputs": [],
      "stateMutability": "nonpayable",
      "type": "function"
    },
    {
      "inputs": [
        {
          "internalType": "uint64",
          "name": "chainId",
          "type": "uint64"
        },
        {
          "internalType": "address[]",
          "name": "helpers",
          "type": "address[]"
        }
      ],
      "name": "proposeRemoveChain",
      "outputs": [],
      "stateMutability": "nonpayable",
      "type": "function"
    },
    {
      "inputs": [
        {
          "internalType": "contract RegistryModuleOwnerCustom",
          "name": "registry",
          "type": "address"
        },
        {
          "internalType": "contract ITokenPool",
          "name": "_tokenPool",
          "type": "address"
        },
        {
          "components": [
            {
              "internalType": "uint64",
              "name": "remoteChainSelector",
              "type": "uint64"
            },
            {
              "internalType": "bytes[]",
              "name": "remotePoolAddresses",
              "type": "bytes[]"
            },
            {
              "internalType": "bytes",
              "name": "remoteTokenAddress",
              "type": "bytes"
            },
            {
              "components": [
                {
                  "internalType": "bool",
                  "name": "isEnabled",
                  "type": "bool"
                },
                {
                  "internalType": "uint128",
                  "name": "capacity",
                  "type": "uint128"
                },
                {
                  "internalType": "uint128",
                  "name": "rate",
                  "type": "uint128"
                }
              ],
              "internalType": "struct RateLimiter.Config",
              "name": "outboundRateLimiterConfig",
              "type": "tuple"
            },
            {
              "components": [
                {
                  "internalType": "bool",
                  "name": "isEnabled",
                  "type": "bool"
                },
                {
                  "internalType": "uint128",
                  "name": "capacity",
                  "type": "uint128"
                },
                {
                  "internalType": "uint128",
                  "name": "rate",
                  "type": "uint128"
                }
              ],
              "internalType": "struct RateLimiter.Config",
              "name": "inboundRateLimiterConfig",
              "type": "tuple"
            }
          ],
          "internalType": "struct ITokenPool.ChainUpdate[]",
          "name": "chainsToAdd",
          "type": "tuple[]"
        }
      ],
      "name": "registerToken",
      "outputs": [],
      "stateMutability": "nonpayable",
      "type": "function"
    },
    {
      "inputs": [],
      "name": "tokenPool",
      "outputs": [
        {
          "internalType": "contract ITokenPool",
          "name": "",
          "type": "address"
        }
      ],
      "stateMutability": "view",
      "type": "function"
    }
  ],
  "transactionHash": "0x4302adcc430c73c806f3f97cac21d20bc9b41e5a642096af7be500d8667eebba",
  "args": [
    "0x1e73f6842d7afDD78957ac143d1f315404Dd9e5B",
    "0xB6D2E9998C194e627Db2FcBa176313c35BFE52E8"
  ],
  "numDeployments": 2,
  "solcInputHash": "551a3b5ae0f566ceda95edcb0e9110a1",
  "bytecode": "0x60e06040523480156200001157600080fd5b506040516200235d3803806200235d8339810160408190526200003491620000d0565b806001600160a01b031663cd3293de6040518163ffffffff1660e01b8152600401602060405180830381865afa15801562000073573d6000803e3d6000fd5b505050506040513d601f19601f820116820180604052508101906200009991906200010f565b6001600160a01b0390811660805291821660a0521660c05262000136565b6001600160a01b0381168114620000cd57600080fd5b50565b60008060408385031215620000e457600080fd5b8251620000f181620000b7565b60208401519092506200010481620000b7565b809150509250929050565b6000602082840312156200012257600080fd5b81516200012f81620000b7565b9392505050565b60805160a05160c0516121a3620001ba600039600081816101b30152818161033701528181610c5201528181610d7501528181610e4f01526111610152600081816101200152818161036701528181610c7a01528181610da0015261119101526000818161018c0152818161065e01528181610a75015261100c01526121a36000f3fe608060405234801561001057600080fd5b50600436106101165760003560e01c806356813c46116100a2578063a278ce7311610071578063a278ce7314610292578063e185f1a2146102a5578063e7865c9a146102b8578063f2249822146102cb578063fdc49132146102de57600080fd5b806356813c461461024657806366b5063214610259578063867931341461026c5780638bb4e7611461027f57600080fd5b80631836e0da116100e95780631836e0da146101ae57806327cfe856146101d55780632865ae72146101f757806332ed5b121461020a5780634aef7d8b1461023357600080fd5b80630618da0e1461011b57806306b16f921461015f578063104e9929146101745780631462783414610187575b600080fd5b6101427f000000000000000000000000000000000000000000000000000000000000000081565b6040516001600160a01b0390911681526020015b60405180910390f35b61017261016d366004611384565b6102f1565b005b600054610142906001600160a01b031681565b6101427f000000000000000000000000000000000000000000000000000000000000000081565b6101427f000000000000000000000000000000000000000000000000000000000000000081565b6101df6201518081565b6040516001600160401b039091168152602001610156565b6101726102053660046113c4565b610475565b6101df6102183660046113df565b6001602052600090815260409020546001600160401b031681565b6101726102413660046115bb565b6105d9565b610172610254366004611623565b61065a565b610172610267366004611661565b61077a565b61017261027a366004611703565b610945565b61017261028d366004611863565b610a71565b6101726102a03660046118db565b610bc8565b6101726102b3366004611932565b610c3b565b6101726102c6366004611932565b610ce6565b6101726102d936600461196d565b610d5e565b6101726102ec3660046119d1565b610ec4565b6103208160405160200161030591906119ef565b60405160208183030381529060405280519060200120610f3c565b604051636ed6fd4760e11b81526001600160a01b037f00000000000000000000000000000000000000000000000000000000000000008116600483015282811660248301527f0000000000000000000000000000000000000000000000000000000000000000169063ddadfa8e90604401600060405180830381600087803b1580156103ab57600080fd5b505af11580156103bf573d6000803e3d6000fd5b50506000546001600160a01b031615915061043690505760005460405163f2fde38b60e01b81526001600160a01b0383811660048301529091169063f2fde38b90602401600060405180830381600087803b15801561041d57600080fd5b505af1158015610431573d6000803e3d6000fd5b505050505b6040516001600160a01b03821681527f87eedd0e13e9fb80060a41db0a20ab3848c96b515a386eace4d1c22c19f64ba09060200160405180910390a150565b6000546001600160a01b031661049e5760405163b346648b60e01b815260040160405180910390fd5b6104b2816040516020016103059190611a27565b6040805160018082528183019092526000916020808301908036833701905050905081816000815181106104e8576104e8611a5d565b6001600160401b039290921660209283029190910182015260408051600080825292810190915281610530565b61051d611300565b8152602001906001900390816105155790505b5060005460405163e8a1da1760e01b81529192506001600160a01b03169063e8a1da17906105649085908590600401611c05565b600060405180830381600087803b15801561057e57600080fd5b505af1158015610592573d6000803e3d6000fd5b50506040516001600160401b03861681527f5204aec90a3c794d8e90fded8b46ae9c7c552803e7e832e0c1d358396d859916925060200190505b60405180910390a1505050565b6000836040516020016105ec9190611cab565b6040516020818303038152906040528051906020012090506106118160078585611008565b336001600160a01b03167fc69c8ca301ca62431960a091e21b4ccba9198869711cb21e33c959537aa6e444828660405161064c929190611ce5565b60405180910390a250505050565b81817f00000000000000000000000000000000000000000000000000000000000000006001600160a01b031663352e3a833384846040518463ffffffff1660e01b81526004016106ac93929190611cfe565b60006040518083038186803b1580156106c457600080fd5b505afa1580156106d8573d6000803e3d6000fd5b5050506000868152600160205260408120546001600160401b03169003905061071c576040516304bbf15f60e11b8152600481018690526024015b60405180910390fd5b60008581526001602052604090819020805467ffffffffffffffff19169055517f1f31008e39db52785cc2c4af1b52bfde142d3ad9ff6b5221888a4700481f2f639061076b9087815260200190565b60405180910390a15050505050565b6000546001600160a01b03166107a35760405163b346648b60e01b815260040160405180910390fd5b6107b7816040516020016103059190611cab565b80511561088157600054602082015160408084015190516318b774f160e21b81526001600160a01b03909316926362ddd3c4926107f8929091600401611d5a565b600060405180830381600087803b15801561081257600080fd5b505af1158015610826573d6000803e3d6000fd5b50505050806040015160405161083c9190611d7c565b604051809103902081602001516001600160401b03167f7d628c9a1796743d365ab521a8b2a4686e419b3269919dc9145ea2ce853b54ea60405160405180910390a350565b6000546020820151604080840151905163acfecf9160e01b81526001600160a01b039093169263acfecf91926108bb929091600401611d5a565b600060405180830381600087803b1580156108d557600080fd5b505af11580156108e9573d6000803e3d6000fd5b5050505080604001516040516108ff9190611d7c565b604051809103902081602001516001600160401b03167f52d00ee4d9bd51b40168f2afc5848837288ce258784ad914278791464b3f4d7660405160405180910390a35b50565b6000546001600160a01b031661096e5760405163b346648b60e01b815260040160405180910390fd5b610982816040516020016103059190611d98565b604080516000808252600160208301818152606084018552929391929184015b6109aa611300565b8152602001906001900390816109a257905050905082816000815181106109d3576109d3611a5d565b602090810291909101015260005460405163e8a1da1760e01b81526001600160a01b039091169063e8a1da1790610a109085908590600401611c05565b600060405180830381600087803b158015610a2a57600080fd5b505af1158015610a3e573d6000803e3d6000fd5b505050507f997ece7f5dbb418762275ab79bd907b726b4b93ce7ce4a3bf20485ed9abe7faa836040516105cc9190611dd2565b81817f00000000000000000000000000000000000000000000000000000000000000006001600160a01b031663352e3a833384846040518463ffffffff1660e01b8152600401610ac393929190611cfe565b60006040518083038186803b158015610adb57600080fd5b505afa158015610aef573d6000803e3d6000fd5b50506000546001600160a01b03169150610b1e90505760405163b346648b60e01b815260040160405180910390fd5b60005460405163cf7401f360e01b81526001600160a01b039091169063cf7401f390610b52908a908a908a90600401611e27565b600060405180830381600087803b158015610b6c57600080fd5b505af1158015610b80573d6000803e3d6000fd5b505050507f3deebf0b3430431835efe0c537812d7973219fdd0bdd3aeaddb8db166ab7bf27878787604051610bb793929190611e27565b60405180910390a150505050505050565b600083604051602001610bdb9190611fd4565b604051602081830303815290604052805190602001209050610c008160078585611008565b336001600160a01b03167f68457984b8b28a38a49b3e46cb383b047dbca87b3b2e45d9181439f84169d028828660405161064c92919061200e565b604051630ab0ca6d60e11b81526001600160a01b037f0000000000000000000000000000000000000000000000000000000000000000811660048301527f0000000000000000000000000000000000000000000000000000000000000000169063156194da90602401600060405180830381600087803b158015610cbe57600080fd5b505af1158015610cd2573d6000803e3d6000fd5b50505050610ce183838361114a565b505050565b600083604051602001610cf991906119ef565b604051602081830303815290604052805190602001209050610d1e8160158585611008565b604080518281526001600160a01b038616602082015233917f7e3383d715b50982af3e6f86cd3a22cc104cf300b02375e0c8738244d95857c7910161064c565b60405163cb67e3b160e01b81526001600160a01b037f0000000000000000000000000000000000000000000000000000000000000000811660048301526000917f00000000000000000000000000000000000000000000000000000000000000009091169063cb67e3b190602401606060405180830381865afa158015610de9573d6000803e3d6000fd5b505050506040513d601f19601f82011682018060405250810190610e0d9190612027565b516001600160a01b031614610e3557604051630ea075bf60e21b815260040160405180910390fd5b6040516001623b4f2b60e21b031981526001600160a01b037f00000000000000000000000000000000000000000000000000000000000000008116600483015285169063ff12c35490602401600060405180830381600087803b158015610e9b57600080fd5b505af1158015610eaf573d6000803e3d6000fd5b50505050610ebe838383610c3b565b50505050565b600083604051602001610ed79190611a27565b604051602081830303815290604052805190602001209050610efc8160078585611008565b604080518281526001600160401b038616602082015233917f5a570504a3f0608bbc8a5bf898d58fba6c092e1424e5f9e5a3e8635cae1976ce910161064c565b6000818152600160205260408120546001600160401b031690819003610f78576040516304bbf15f60e11b815260048101839052602401610713565b42816001600160401b03161115610fad5760405163d606d83f60e01b81526001600160401b0382166004820152602401610713565b60008281526001602052604090819020805467ffffffffffffffff19169055517fa3b6368b6d3f37515d1e7c5f2419ec24fb57f5f867fd9456a70d950bdac1f4c690610ffc9084815260200190565b60405180910390a15050565b81817f00000000000000000000000000000000000000000000000000000000000000006001600160a01b031663352e3a833384846040518463ffffffff1660e01b815260040161105a93929190611cfe565b60006040518083038186803b15801561107257600080fd5b505afa158015611086573d6000803e3d6000fd5b5050506000878152600160205260409020546001600160401b03161590506110c457604051634c44e3d360e11b815260048101879052602401610713565b6110d16201518086612091565b6110db90426120bc565b600087815260016020908152604091829020805467ffffffffffffffff19166001600160401b039490941693841790558151898152908101929092527f497e45dce2bd7277051c7194a9252a4560c476938b268b26082614bd9d655e55910160405180910390a1505050505050565b604051634e847fc760e01b81526001600160a01b037f00000000000000000000000000000000000000000000000000000000000000008116600483015284811660248301527f00000000000000000000000000000000000000000000000000000000000000001690634e847fc790604401600060405180830381600087803b1580156111d557600080fd5b505af11580156111e9573d6000803e3d6000fd5b50505050826001600160a01b03166379ba50976040518163ffffffff1660e01b8152600401600060405180830381600087803b15801561122857600080fd5b505af115801561123c573d6000803e3d6000fd5b5050821591506112b69050576040805160008152602081019182905263e8a1da1760e01b9091526001600160a01b0384169063e8a1da1790611283908585602483016120e3565b600060405180830381600087803b15801561129d57600080fd5b505af11580156112b1573d6000803e3d6000fd5b505050505b600080546001600160a01b0319166001600160a01b038516908117825560405190917f05dbcb65b33e42bc9e68704a2b109e0f4eee368a6945cad1e857b0197c9fef4291a2505050565b6040518060a0016040528060006001600160401b03168152602001606081526020016060815260200161134c604080516060810182526000808252602082018190529181019190915290565b815260408051606081018252600080825260208281018290529282015291015290565b6001600160a01b038116811461094257600080fd5b60006020828403121561139657600080fd5b81356113a18161136f565b9392505050565b80356001600160401b03811681146113bf57600080fd5b919050565b6000602082840312156113d657600080fd5b6113a1826113a8565b6000602082840312156113f157600080fd5b5035919050565b634e487b7160e01b600052604160045260246000fd5b604051606081016001600160401b0381118282101715611430576114306113f8565b60405290565b60405160a081016001600160401b0381118282101715611430576114306113f8565b604051601f8201601f191681016001600160401b0381118282101715611480576114806113f8565b604052919050565b803580151581146113bf57600080fd5b600082601f8301126114a957600080fd5b81356001600160401b038111156114c2576114c26113f8565b6114d5601f8201601f1916602001611458565b8181528460208386010111156114ea57600080fd5b816020850160208301376000918101602001919091529392505050565b60006060828403121561151957600080fd5b61152161140e565b905061152c82611488565b815261153a602083016113a8565b602082015260408201356001600160401b0381111561155857600080fd5b61156484828501611498565b60408301525092915050565b60008083601f84011261158257600080fd5b5081356001600160401b0381111561159957600080fd5b6020830191508360208260051b85010111156115b457600080fd5b9250929050565b6000806000604084860312156115d057600080fd5b83356001600160401b03808211156115e757600080fd5b6115f387838801611507565b9450602086013591508082111561160957600080fd5b5061161686828701611570565b9497909650939450505050565b60008060006040848603121561163857600080fd5b8335925060208401356001600160401b0381111561165557600080fd5b61161686828701611570565b60006020828403121561167357600080fd5b81356001600160401b0381111561168957600080fd5b61169584828501611507565b949350505050565b80356001600160801b03811681146113bf57600080fd5b6000606082840312156116c657600080fd5b6116ce61140e565b90506116d982611488565b81526116e76020830161169d565b60208201526116f86040830161169d565b604082015292915050565b6000602080838503121561171657600080fd5b82356001600160401b038082111561172d57600080fd5b90840190610120828703121561174257600080fd5b61174a611436565b611753836113a8565b8152838301358281111561176657600080fd5b8301601f8101881361177757600080fd5b803583811115611789576117896113f8565b8060051b611798878201611458565b918252828101870191878101908b8411156117b257600080fd5b88850192505b838310156117ee578235878111156117d05760008081fd5b6117de8d8b83890101611498565b83525091880191908801906117b8565b80898701525050505050604083013593508184111561180c57600080fd5b61181887858501611498565b604082015261182a87606085016116b4565b606082015261183c8760c085016116b4565b60808201529695505050505050565b60006060828403121561185d57600080fd5b50919050565b6000806000806000610100868803121561187c57600080fd5b611885866113a8565b9450611894876020880161184b565b93506118a3876080880161184b565b925060e08601356001600160401b038111156118be57600080fd5b6118ca88828901611570565b969995985093965092949392505050565b6000806000604084860312156118f057600080fd5b83356001600160401b038082111561190757600080fd5b90850190610120828803121561191c57600080fd5b9093506020850135908082111561160957600080fd5b60008060006040848603121561194757600080fd5b83356119528161136f565b925060208401356001600160401b0381111561165557600080fd5b6000806000806060858703121561198357600080fd5b843561198e8161136f565b9350602085013561199e8161136f565b925060408501356001600160401b038111156119b957600080fd5b6119c587828801611570565b95989497509550505050565b6000806000604084860312156119e657600080fd5b611952846113a8565b6040808252600d908201526c30b236b4b72a3930b739b332b960991b60608201526001600160a01b0391909116602082015260800190565b6040808252600b908201526a3932b6b7bb32a1b430b4b760a91b60608201526001600160401b0391909116602082015260800190565b634e487b7160e01b600052603260045260246000fd5b60008151808452602080850194506020840160005b83811015611aad5781516001600160401b031687529582019590820190600101611a88565b509495945050505050565b60005b83811015611ad3578181015183820152602001611abb565b50506000910152565b60008151808452611af4816020860160208601611ab8565b601f01601f19169290920160200192915050565b80516001600160401b03168252602080820151610120828501819052815190850181905260009261014080870193600584901b88019091019290820190855b81811015611b765761013f19898603018652611b64858451611adc565b95840195945091830191600101611b47565b50505050604084015191508481036040860152611b938183611adc565b9150506060830151611bcd60608601828051151582526020808201516001600160801b039081169184019190915260409182015116910152565b5060808301518051151560c086015260208101516001600160801b0390811660e0870152604082015116610100860152509392505050565b604081526000611c186040830185611a73565b6020838203818501528185518084528284019150828160051b85010183880160005b83811015611c6857601f19878403018552611c56838351611b08565b94860194925090850190600101611c3a565b50909998505050505050505050565b8051151582526001600160401b03602082015116602083015260006040820151606060408501526116956060850182611adc565b60408152601060408201526f72656d6f7465506f6f6c55706461746560801b60608201526080602082015260006113a16080830184611c77565b8281526040602082015260006116956040830184611c77565b6001600160a01b03848116825260406020808401829052908301849052600091859160608501845b87811015611d4d578435611d398161136f565b841682529382019390820190600101611d26565b5098975050505050505050565b6001600160401b03831681526040602082015260006116956040830184611adc565b60008251611d8e818460208701611ab8565b9190910192915050565b604081526000611dc060408301600881526730b23221b430b4b760c11b602082015260400190565b82810360208401526116958185611b08565b6020815260006113a16020830184611b08565b611dee81611488565b15158252611dfe6020820161169d565b6001600160801b03808216602085015280611e1b6040850161169d565b16604085015250505050565b6001600160401b038416815260e08101611e446020830185611de5565b6116956080830184611de5565b81835281816020850137506000828201602090810191909152601f909101601f19169091010190565b6000808335601e19843603018112611e9157600080fd5b83016020810192503590506001600160401b03811115611eb057600080fd5b8036038213156115b457600080fd5b6000838385526020808601955060208560051b8301018460005b87811015611f1357848303601f19018952611ef48288611e7a565b611eff858284611e51565b9a86019a9450505090830190600101611ed9565b5090979650505050505050565b60006101206001600160401b0380611f37856113a8565b1685526020840135601e19853603018112611f5157600080fd5b840160208101903582811115611f6657600080fd5b8060051b3603821315611f7857600080fd5b836020880152611f8b8488018284611ebf565b9350505050611f9d6040840184611e7a565b8583036040870152611fb0838284611e51565b92505050611fc46060850160608501611de5565b6113a160c0850160c08501611de5565b604081526000611ffc60408301600881526730b23221b430b4b760c11b602082015260400190565b82810360208401526116958185611f20565b8281526040602082015260006116956040830184611f20565b60006060828403121561203957600080fd5b61204161140e565b825161204c8161136f565b8152602083015161205c8161136f565b6020820152604083015161206f8161136f565b60408201529392505050565b634e487b7160e01b600052601160045260246000fd5b6001600160401b038181168382160280821691908281146120b4576120b461207b565b505092915050565b6001600160401b038181168382160190808211156120dc576120dc61207b565b5092915050565b6040815260006120f66040830186611a73565b602083820360208501528185835260208301905060208660051b840101876000805b8981101561215d57868403601f190185528235368c900361011e1901811261213e578283fd5b61214a858d8301611f20565b9587019594505091850191600101612118565b50919a995050505050505050505056fea264697066735822122009756230fb3cd9122737e0cda93a26ce8625476d0f2a05f5fae05c4b45fa388564736f6c63430008180033",
  "devdoc": {
    "kind": "dev",
    "methods": {
      "acceptAdmin(address,(uint64,bytes[],bytes,(bool,uint128,uint128),(bool,uint128,uint128))[])": {
        "details": "Can only be called if this contract is the pending owner for the token.",
        "params": {
          "_tokenPool": "The token pool to administer",
          "chainsToAdd": "The chains to add to the token pool"
        }
      },
      "applyAddChain((uint64,bytes[],bytes,(bool,uint128,uint128),(bool,uint128,uint128)))": {
        "details": "Requires the token pool to be set",
        "params": {
          "config": "RemoteChainUpdate information"
        }
      },
      "applyAdminTransfer(address)": {
        "details": "Transfers admin on the TokenPool and ownership on the ZCHF token on the TokenAdminRegistry",
        "params": {
          "newAdmin": "The address of the new admin"
        }
      },
      "applyRateLimit(uint64,(bool,uint128,uint128),(bool,uint128,uint128),address[])": {
        "details": "Requires the token pool to be set",
        "params": {
          "chain": "The chain to set the rate limits for",
          "helpers": "Array of helper addresses for qualification check",
          "inbound": "The inbound rate limits",
          "outbound": "The outbound rate limits"
        }
      },
      "applyRemotePoolUpdate((bool,uint64,bytes))": {
        "details": "Requires the token pool to be set",
        "params": {
          "update": "RemotePoolUpdate information"
        }
      },
      "applyRemoveChain(uint64)": {
        "details": "Requires the token pool to be set",
        "params": {
          "chainId": "The chain to remove"
        }
      },
      "deny(bytes32,address[])": {
        "details": "Only qualified voters can deny proposals",
        "params": {
          "hash": "The hash of the proposal to deny",
          "helpers": "Array of helper addresses for qualification check"
        }
      },
      "proposeAddChain((uint64,bytes[],bytes,(bool,uint128,uint128),(bool,uint128,uint128)),address[])": {
        "details": "The contract only stores the hash. So the data has to be passed in during apply again",
        "params": {
          "config": "The chain configuration",
          "helpers": "Array of helper addresses for qualification check"
        }
      },
      "proposeAdminTransfer(address,address[])": {
        "params": {
          "helpers": "Array of helper addresses for qualification check",
          "newAdmin": "The address of the new admin"
        }
      },
      "proposeRemotePoolUpdate((bool,uint64,bytes),address[])": {
        "details": "The contract only stores the hash. So the data has to be passed in during apply again",
        "params": {
          "helpers": "The helpers to get enough votes",
          "update": "The update proposal"
        }
      },
      "proposeRemoveChain(uint64,address[])": {
        "details": "The contract only stores the hash. So the data has to be passed in during apply again",
        "params": {
          "chainId": "The chain to remove",
          "helpers": "Array of helper addresses for qualification check"
        }
      },
      "registerToken(address,address,(uint64,bytes[],bytes,(bool,uint128,uint128),(bool,uint128,uint128))[])": {
        "details": "Can only be called while the token admin is not set",
        "params": {
          "_tokenPool": "The token pool to administer",
          "chainsToAdd": "The chains to add to the token pool",
          "registry": "The registry to register the token with"
        }
      }
    },
    "version": 1
  },
  "userdoc": {
    "kind": "user",
    "methods": {
      "acceptAdmin(address,(uint64,bytes[],bytes,(bool,uint128,uint128),(bool,uint128,uint128))[])": {
        "notice": "Accepts the admin role transfer on the TokenAdminRegistry and sets the token pool"
      },
      "applyAddChain((uint64,bytes[],bytes,(bool,uint128,uint128),(bool,uint128,uint128)))": {
        "notice": "Applies the remote chain update"
      },
      "applyAdminTransfer(address)": {
        "notice": "Applies the admin transfer"
      },
      "applyRateLimit(uint64,(bool,uint128,uint128),(bool,uint128,uint128),address[])": {
        "notice": "Sets the rate limits for the given chain. Any qualified voter can apply rate limits with immediate effect.         Rate limits can only do limited harm, so it is acceptable to be very permissive. At the same time, rate limits are typically         applied during emergencies, e.g. when a chain has been hacked. Therefore, it is desirable to ensure that         they can be applied quickly."
      },
      "applyRemotePoolUpdate((bool,uint64,bytes))": {
        "notice": "Applies the update on the TokenPool"
      },
      "applyRemoveChain(uint64)": {
        "notice": "Applies the remove chain proposal"
      },
      "deny(bytes32,address[])": {
        "notice": "Denies and removes a pending proposal"
      },
      "proposeAddChain((uint64,bytes[],bytes,(bool,uint128,uint128),(bool,uint128,uint128)),address[])": {
        "notice": "Propose to add a remote chains"
      },
      "proposeAdminTransfer(address,address[])": {
        "notice": "Proposed a new admin for the TokenPool and Admin on the Token registry"
      },
      "proposeRemotePoolUpdate((bool,uint64,bytes),address[])": {
        "notice": "Proposed a remote pool update"
      },
      "proposeRemoveChain(uint64,address[])": {
        "notice": "Propose to add or remove remote chains"
      },
      "registerToken(address,address,(uint64,bytes[],bytes,(bool,uint128,uint128),(bool,uint128,uint128))[])": {
        "notice": "Registers the token in the CCIP system"
      }
    },
    "version": 1
  },
  "storageLayout": {
    "storage": [
      {
        "astId": 5052,
        "contract": "contracts/bridge/CCIPAdmin.sol:CCIPAdmin",
        "label": "tokenPool",
        "offset": 0,
        "slot": "0",
        "type": "t_contract(ITokenPool)6244"
      },
      {
        "astId": 5056,
        "contract": "contracts/bridge/CCIPAdmin.sol:CCIPAdmin",
        "label": "proposals",
        "offset": 0,
        "slot": "1",
        "type": "t_mapping(t_bytes32,t_uint64)"
      }
    ],
    "types": {
      "t_bytes32": {
        "encoding": "inplace",
        "label": "bytes32",
        "numberOfBytes": "32"
      },
      "t_contract(ITokenPool)6244": {
        "encoding": "inplace",
        "label": "contract ITokenPool",
        "numberOfBytes": "20"
      },
      "t_mapping(t_bytes32,t_uint64)": {
        "encoding": "mapping",
        "key": "t_bytes32",
        "label": "mapping(bytes32 => uint64)",
        "numberOfBytes": "32",
        "value": "t_uint64"
      },
      "t_uint64": {
        "encoding": "inplace",
        "label": "uint64",
        "numberOfBytes": "8"
      }
    }
  }
}