{
  "address": "0xE325c1dA55695c2a6347b6d4e8243eaBdBCddDD7",
  "abi": [
    {
      "inputs": [
        {
          "internalType": "uint256",
          "name": "_minApplicationPeriod",
          "type": "uint256"
        },
        {
          "internalType": "address",
          "name": "_ccipAdmin",
          "type": "address"
        },
        {
          "internalType": "address",
          "name": "_reserve",
          "type": "address"
        }
      ],
      "stateMutability": "nonpayable",
      "type": "constructor"
    },
    {
      "inputs": [],
      "name": "AlreadyRegistered",
      "type": "error"
    },
    {
      "inputs": [
        {
          "internalType": "address",
          "name": "spender",
          "type": "address"
        },
        {
          "internalType": "uint256",
          "name": "allowance",
          "type": "uint256"
        },
        {
          "internalType": "uint256",
          "name": "needed",
          "type": "uint256"
        }
      ],
      "name": "ERC20InsufficientAllowance",
      "type": "error"
    },
    {
      "inputs": [
        {
          "internalType": "address",
          "name": "sender",
          "type": "address"
        },
        {
          "internalType": "uint256",
          "name": "balance",
          "type": "uint256"
        },
        {
          "internalType": "uint256",
          "name": "needed",
          "type": "uint256"
        }
      ],
      "name": "ERC20InsufficientBalance",
      "type": "error"
    },
    {
      "inputs": [],
      "name": "FeeTooLow",
      "type": "error"
    },
    {
      "inputs": [],
      "name": "NotMinter",
      "type": "error"
    },
    {
      "inputs": [],
      "name": "PeriodTooShort",
      "type": "error"
    },
    {
      "inputs": [],
      "name": "TooLate",
      "type": "error"
    },
    {
      "anonymous": false,
      "inputs": [
        {
          "indexed": true,
          "internalType": "address",
          "name": "owner",
          "type": "address"
        },
        {
          "indexed": true,
          "internalType": "address",
          "name": "spender",
          "type": "address"
        },
        {
          "indexed": false,
          "internalType": "uint256",
          "name": "value",
          "type": "uint256"
        }
      ],
      "name": "Approval",
      "type": "event"
    },
    {
      "anonymous": false,
      "inputs": [
        {
          "indexed": true,
          "internalType": "address",
          "name": "reportingMinter",
          "type": "address"
        },
        {
          "indexed": false,
          "internalType": "uint256",
          "name": "amount",
          "type": "uint256"
        }
      ],
      "name": "Loss",
      "type": "event"
    },
    {
      "anonymous": false,
      "inputs": [
        {
          "indexed": true,
          "internalType": "address",
          "name": "minter",
          "type": "address"
        },
        {
          "indexed": false,
          "internalType": "uint256",
          "name": "applicationPeriod",
          "type": "uint256"
        },
        {
          "indexed": false,
          "internalType": "uint256",
          "name": "applicationFee",
          "type": "uint256"
        },
        {
          "indexed": false,
          "internalType": "string",
          "name": "message",
          "type": "string"
        }
      ],
      "name": "MinterApplied",
      "type": "event"
    },
    {
      "anonymous": false,
      "inputs": [
        {
          "indexed": true,
          "internalType": "address",
          "name": "minter",
          "type": "address"
        },
        {
          "indexed": false,
          "internalType": "string",
          "name": "message",
          "type": "string"
        }
      ],
      "name": "MinterDenied",
      "type": "event"
    },
    {
      "anonymous": false,
      "inputs": [
        {
          "indexed": true,
          "internalType": "address",
          "name": "reportingMinter",
          "type": "address"
        },
        {
          "indexed": false,
          "internalType": "uint256",
          "name": "amount",
          "type": "uint256"
        }
      ],
      "name": "Profit",
      "type": "event"
    },
    {
      "anonymous": false,
      "inputs": [
        {
          "indexed": true,
          "internalType": "address",
          "name": "from",
          "type": "address"
        },
        {
          "indexed": true,
          "internalType": "address",
          "name": "to",
          "type": "address"
        },
        {
          "indexed": false,
          "internalType": "uint256",
          "name": "value",
          "type": "uint256"
        }
      ],
      "name": "Transfer",
      "type": "event"
    },
    {
      "inputs": [],
      "name": "CCIP_ADMIN",
      "outputs": [
        {
          "internalType": "address",
          "name": "",
          "type": "address"
        }
      ],
      "stateMutability": "view",
      "type": "function"
    },
    {
      "inputs": [],
      "name": "DOMAIN_SEPARATOR",
      "outputs": [
        {
          "internalType": "bytes32",
          "name": "",
          "type": "bytes32"
        }
      ],
      "stateMutability": "view",
      "type": "function"
    },
    {
      "inputs": [],
      "name": "MIN_APPLICATION_PERIOD",
      "outputs": [
        {
          "internalType": "uint256",
          "name": "",
          "type": "uint256"
        }
      ],
      "stateMutability": "view",
      "type": "function"
    },
    {
      "inputs": [],
      "name": "MIN_FEE",
      "outputs": [
        {
          "internalType": "uint256",
          "name": "",
          "type": "uint256"
        }
      ],
      "stateMutability": "view",
      "type": "function"
    },
    {
      "inputs": [
        {
          "internalType": "address",
          "name": "owner",
          "type": "address"
        },
        {
          "internalType": "address",
          "name": "spender",
          "type": "address"
        }
      ],
      "name": "allowance",
      "outputs": [
        {
          "internalType": "uint256",
          "name": "",
          "type": "uint256"
        }
      ],
      "stateMutability": "view",
      "type": "function"
    },
    {
      "inputs": [
        {
          "internalType": "address",
          "name": "spender",
          "type": "address"
        },
        {
          "internalType": "uint256",
          "name": "value",
          "type": "uint256"
        }
      ],
      "name": "approve",
      "outputs": [
        {
          "internalType": "bool",
          "name": "",
          "type": "bool"
        }
      ],
      "stateMutability": "nonpayable",
      "type": "function"
    },
    {
      "inputs": [
        {
          "internalType": "address",
          "name": "account",
          "type": "address"
        }
      ],
      "name": "balanceOf",
      "outputs": [
        {
          "internalType": "uint256",
          "name": "",
          "type": "uint256"
        }
      ],
      "stateMutability": "view",
      "type": "function"
    },
    {
      "inputs": [
        {
          "internalType": "uint256",
          "name": "_amount",
          "type": "uint256"
        }
      ],
      "name": "burn",
      "outputs": [],
      "stateMutability": "nonpayable",
      "type": "function"
    },
    {
      "inputs": [
        {
          "internalType": "address",
          "name": "_owner",
          "type": "address"
        },
        {
          "internalType": "uint256",
          "name": "_amount",
          "type": "uint256"
        }
      ],
      "name": "burnFrom",
      "outputs": [],
      "stateMutability": "nonpayable",
      "type": "function"
    },
    {
      "inputs": [
        {
          "internalType": "address",
          "name": "payer",
          "type": "address"
        },
        {
          "internalType": "uint256",
          "name": "targetTotalBurnAmount",
          "type": "uint256"
        },
        {
          "internalType": "uint32",
          "name": "reservePPM",
          "type": "uint32"
        }
      ],
      "name": "burnFromWithReserve",
      "outputs": [
        {
          "internalType": "uint256",
          "name": "",
          "type": "uint256"
        }
      ],
      "stateMutability": "nonpayable",
      "type": "function"
    },
    {
      "inputs": [
        {
          "internalType": "uint256",
          "name": "_amountExcludingReserve",
          "type": "uint256"
        },
        {
          "internalType": "uint32",
          "name": "_reservePPM",
          "type": "uint32"
        }
      ],
      "name": "burnWithReserve",
      "outputs": [
        {
          "internalType": "uint256",
          "name": "",
          "type": "uint256"
        }
      ],
      "stateMutability": "nonpayable",
      "type": "function"
    },
    {
      "inputs": [
        {
          "internalType": "uint256",
          "name": "amount",
          "type": "uint256"
        },
        {
          "internalType": "uint32",
          "name": "reservePPM",
          "type": "uint32"
        }
      ],
      "name": "burnWithoutReserve",
      "outputs": [],
      "stateMutability": "nonpayable",
      "type": "function"
    },
    {
      "inputs": [
        {
          "internalType": "uint256",
          "name": "mintedAmount",
          "type": "uint256"
        },
        {
          "internalType": "uint32",
          "name": "_reservePPM",
          "type": "uint32"
        }
      ],
      "name": "calculateAssignedReserve",
      "outputs": [
        {
          "internalType": "uint256",
          "name": "",
          "type": "uint256"
        }
      ],
      "stateMutability": "view",
      "type": "function"
    },
    {
      "inputs": [
        {
          "internalType": "uint256",
          "name": "amountExcludingReserve",
          "type": "uint256"
        },
        {
          "internalType": "uint32",
          "name": "reservePPM",
          "type": "uint32"
        }
      ],
      "name": "calculateFreedAmount",
      "outputs": [
        {
          "internalType": "uint256",
          "name": "",
          "type": "uint256"
        }
      ],
      "stateMutability": "view",
      "type": "function"
    },
    {
      "inputs": [
        {
          "internalType": "address",
          "name": "source",
          "type": "address"
        },
        {
          "internalType": "uint256",
          "name": "_amount",
          "type": "uint256"
        }
      ],
      "name": "collectProfits",
      "outputs": [],
      "stateMutability": "nonpayable",
      "type": "function"
    },
    {
      "inputs": [
        {
          "internalType": "address",
          "name": "source",
          "type": "address"
        },
        {
          "internalType": "uint256",
          "name": "_amount",
          "type": "uint256"
        }
      ],
      "name": "coverLoss",
      "outputs": [],
      "stateMutability": "nonpayable",
      "type": "function"
    },
    {
      "inputs": [],
      "name": "decimals",
      "outputs": [
        {
          "internalType": "uint8",
          "name": "",
          "type": "uint8"
        }
      ],
      "stateMutability": "view",
      "type": "function"
    },
    {
      "inputs": [
        {
          "internalType": "address",
          "name": "_minter",
          "type": "address"
        },
        {
          "internalType": "address[]",
          "name": "_helpers",
          "type": "address[]"
        },
        {
          "internalType": "string",
          "name": "_message",
          "type": "string"
        }
      ],
      "name": "denyMinter",
      "outputs": [],
      "stateMutability": "nonpayable",
      "type": "function"
    },
    {
      "inputs": [],
      "name": "equity",
      "outputs": [
        {
          "internalType": "uint256",
          "name": "",
          "type": "uint256"
        }
      ],
      "stateMutability": "view",
      "type": "function"
    },
    {
      "inputs": [],
      "name": "getCCIPAdmin",
      "outputs": [
        {
          "internalType": "address",
          "name": "",
          "type": "address"
        }
      ],
      "stateMutability": "view",
      "type": "function"
    },
    {
      "inputs": [
        {
          "internalType": "address",
          "name": "_position",
          "type": "address"
        }
      ],
      "name": "getPositionParent",
      "outputs": [
        {
          "internalType": "address",
          "name": "",
          "type": "address"
        }
      ],
      "stateMutability": "view",
      "type": "function"
    },
    {
      "inputs": [
        {
          "internalType": "address",
          "name": "_minter",
          "type": "address"
        },
        {
          "internalType": "string",
          "name": "_message",
          "type": "string"
        }
      ],
      "name": "initialize",
      "outputs": [],
      "stateMutability": "nonpayable",
      "type": "function"
    },
    {
      "inputs": [
        {
          "internalType": "address",
          "name": "_minter",
          "type": "address"
        }
      ],
      "name": "isMinter",
      "outputs": [
        {
          "internalType": "bool",
          "name": "",
          "type": "bool"
        }
      ],
      "stateMutability": "view",
      "type": "function"
    },
    {
      "inputs": [
        {
          "internalType": "address",
          "name": "_target",
          "type": "address"
        },
        {
          "internalType": "uint256",
          "name": "_amount",
          "type": "uint256"
        }
      ],
      "name": "mint",
      "outputs": [],
      "stateMutability": "nonpayable",
      "type": "function"
    },
    {
      "inputs": [
        {
          "internalType": "address",
          "name": "_target",
          "type": "address"
        },
        {
          "internalType": "uint256",
          "name": "_amount",
          "type": "uint256"
        },
        {
          "internalType": "uint32",
          "name": "_reservePPM",
          "type": "uint32"
        },
        {
          "internalType": "uint32",
          "name": "_feesPPM",
          "type": "uint32"
        }
      ],
      "name": "mintWithReserve",
      "outputs": [],
      "stateMutability": "nonpayable",
      "type": "function"
    },
    {
      "inputs": [],
      "name": "minterReserve",
      "outputs": [
        {
          "internalType": "uint256",
          "name": "",
          "type": "uint256"
        }
      ],
      "stateMutability": "view",
      "type": "function"
    },
    {
      "inputs": [
        {
          "internalType": "address",
          "name": "minter",
          "type": "address"
        }
      ],
      "name": "minters",
      "outputs": [
        {
          "internalType": "uint256",
          "name": "validityStart",
          "type": "uint256"
        }
      ],
      "stateMutability": "view",
      "type": "function"
    },
    {
      "inputs": [],
      "name": "name",
      "outputs": [
        {
          "internalType": "string",
          "name": "",
          "type": "string"
        }
      ],
      "stateMutability": "pure",
      "type": "function"
    },
    {
      "inputs": [
        {
          "internalType": "address",
          "name": "account",
          "type": "address"
        }
      ],
      "name": "nonces",
      "outputs": [
        {
          "internalType": "uint256",
          "name": "nonce",
          "type": "uint256"
        }
      ],
      "stateMutability": "view",
      "type": "function"
    },
    {
      "inputs": [
        {
          "internalType": "address",
          "name": "owner",
          "type": "address"
        },
        {
          "internalType": "address",
          "name": "spender",
          "type": "address"
        },
        {
          "internalType": "uint256",
          "name": "value",
          "type": "uint256"
        },
        {
          "internalType": "uint256",
          "name": "deadline",
          "type": "uint256"
        },
        {
          "internalType": "uint8",
          "name": "v",
          "type": "uint8"
        },
        {
          "internalType": "bytes32",
          "name": "r",
          "type": "bytes32"
        },
        {
          "internalType": "bytes32",
          "name": "s",
          "type": "bytes32"
        }
      ],
      "name": "permit",
      "outputs": [],
      "stateMutability": "nonpayable",
      "type": "function"
    },
    {
      "inputs": [
        {
          "internalType": "address",
          "name": "position",
          "type": "address"
        }
      ],
      "name": "positions",
      "outputs": [
        {
          "internalType": "address",
          "name": "registeringMinter",
          "type": "address"
        }
      ],
      "stateMutability": "view",
      "type": "function"
    },
    {
      "inputs": [
        {
          "internalType": "address",
          "name": "_position",
          "type": "address"
        }
      ],
      "name": "registerPosition",
      "outputs": [],
      "stateMutability": "nonpayable",
      "type": "function"
    },
    {
      "inputs": [],
      "name": "reserve",
      "outputs": [
        {
          "internalType": "contract IGovernance",
          "name": "",
          "type": "address"
        }
      ],
      "stateMutability": "view",
      "type": "function"
    },
    {
      "inputs": [
        {
          "internalType": "address",
          "name": "_minter",
          "type": "address"
        },
        {
          "internalType": "uint256",
          "name": "_applicationPeriod",
          "type": "uint256"
        },
        {
          "internalType": "uint256",
          "name": "_applicationFee",
          "type": "uint256"
        },
        {
          "internalType": "string",
          "name": "_message",
          "type": "string"
        }
      ],
      "name": "suggestMinter",
      "outputs": [],
      "stateMutability": "nonpayable",
      "type": "function"
    },
    {
      "inputs": [],
      "name": "symbol",
      "outputs": [
        {
          "internalType": "string",
          "name": "",
          "type": "string"
        }
      ],
      "stateMutability": "pure",
      "type": "function"
    },
    {
      "inputs": [],
      "name": "totalSupply",
      "outputs": [
        {
          "internalType": "uint256",
          "name": "",
          "type": "uint256"
        }
      ],
      "stateMutability": "view",
      "type": "function"
    },
    {
      "inputs": [
        {
          "internalType": "address",
          "name": "recipient",
          "type": "address"
        },
        {
          "internalType": "uint256",
          "name": "amount",
          "type": "uint256"
        }
      ],
      "name": "transfer",
      "outputs": [
        {
          "internalType": "bool",
          "name": "",
          "type": "bool"
        }
      ],
      "stateMutability": "nonpayable",
      "type": "function"
    },
    {
      "inputs": [
        {
          "internalType": "address",
          "name": "sender",
          "type": "address"
        },
        {
          "internalType": "address",
          "name": "recipient",
          "type": "address"
        },
        {
          "internalType": "uint256",
          "name": "amount",
          "type": "uint256"
        }
      ],
      "name": "transferFrom",
      "outputs": [
        {
          "internalType": "bool",
          "name": "",
          "type": "bool"
        }
      ],
      "stateMutability": "nonpayable",
      "type": "function"
    }
  ],
  "transactionHash": "0x0a0e999259837fe00ec29d93d9e493259e58c10fa9251f64a0a19965aa9f23a1",
  "args": [
    900,
    "0x6BE007d55F7EFC8fd0eD2Dc79999D7E95D5F5441",
    "0x19F5699A81F1Cc4f4767D6beE463073B08786733"
  ],
  "numDeployments": 1,
  "solcInputHash": "76d7a9ad677e8057d18143f24edcad6f",
  "bytecode": "0x6101006040523480156200001257600080fd5b5060405162004261380380620042618339810160408190526200003591620000db565b601260805260a08390526001600160a01b0380831660c0528116156200005c57806200009a565b306040516200006b90620000b0565b6001600160a01b039091168152602001604051809103906000f08015801562000098573d6000803e3d6000fd5b505b6001600160a01b031660e052506200011c915050565b6122748062001fed83390190565b80516001600160a01b0381168114620000d657600080fd5b919050565b600080600060608486031215620000f157600080fd5b835192506200010360208501620000be565b91506200011360408501620000be565b90509250925092565b60805160a05160c05160e051611e2e620001bf6000396000818161055d0152818161065a0152818161075e015281816109d801528181610a7e01528181610b2a01528181610c6f01528181610fb701528181610ffa0152818161102a015281816112bc01528181611364015281816117490152611807015260008181610298015261046e0152600081816103000152610e5a0152600061033a0152611e2e6000f3fe608060405234801561001057600080fd5b50600436106102325760003560e01c80638fd6a6ac11610130578063c7641866116100b8578063d505accf1161007c578063d505accf146105ad578063dd62ed3e146105c0578063e093c8a4146105d3578063f399e22e146105e6578063f46eccc4146105f957600080fd5b8063c764186614610545578063cd3293de14610558578063d1a15ff11461057f578063d1fa5e9814610592578063d38bb009146105a557600080fd5b8063a47d75ad116100ff578063a47d75ad146104cd578063a9059cbb146104e0578063aa271e1a146104f3578063aa5dd7f114610506578063b52c696d1461053257600080fd5b80638fd6a6ac1461046c57806391a0ac6a1461049257806395d89b411461049a5780639b404da6146104ba57600080fd5b80633644e515116101be57806370a082311161018257806370a08231146103ed57806376c7a3c71461041657806379cc6790146104265780637ecebe00146104395780638112eb2b1461045957600080fd5b80633644e5151461038157806340c10f191461038957806342966c681461039e57806355f57510146103b15780636ebdb8ee146103da57600080fd5b806318160ddd1161020557806318160ddd146102f35780631a46c7e9146102fb57806323b872dd14610322578063313ce56714610335578063315f3e721461036e57600080fd5b806306fdde0314610237578063095ea7b314610270578063118380101461029357806316e0e538146102d2575b600080fd5b60408051808201909152600b81526a233930b735b2b731b7b4b760a91b60208201525b604051610267919061185e565b60405180910390f35b61028361027e3660046118c9565b610619565b6040519015158152602001610267565b6102ba7f000000000000000000000000000000000000000000000000000000000000000081565b6040516001600160a01b039091168152602001610267565b6102e56102e0366004611907565b610630565b604051908152602001610267565b6002546102e5565b6102e57f000000000000000000000000000000000000000000000000000000000000000081565b610283610330366004611933565b6106d4565b61035c7f000000000000000000000000000000000000000000000000000000000000000081565b60405160ff9091168152602001610267565b6102e561037c36600461196f565b6106f6565b6102e56107bd565b61039c6103973660046118c9565b610816565b005b61039c6103ac3660046119ab565b610877565b6102ba6103bf3660046119c4565b6006602052600090815260409020546001600160a01b031681565b61039c6103e83660046118c9565b610884565b6102e56103fb3660046119c4565b6001600160a01b031660009081526020819052604090205490565b6102e5683635c9adc5dea0000081565b61039c6104343660046118c9565b6108e2565b6102e56104473660046119c4565b60036020526000908152604090205481565b61039c6104673660046119df565b61093f565b7f00000000000000000000000000000000000000000000000000000000000000006102ba565b6102e5610a74565b6040805180820190915260048152632d21a42360e11b602082015261025a565b61039c6104c8366004611a75565b610ada565b6102e56104db366004611907565b610be0565b6102836104ee3660046118c9565b610caf565b6102836105013660046119c4565b610cbc565b6102ba6105143660046119c4565b6001600160a01b039081166000908152600660205260409020541690565b61039c6105403660046119c4565b610cfd565b61039c610553366004611907565b610d4c565b6102ba7f000000000000000000000000000000000000000000000000000000000000000081565b61039c61058d366004611b27565b610e58565b61039c6105a03660046118c9565b610f62565b6102e5611099565b61039c6105bb366004611b7e565b6110b1565b6102e56105ce366004611bf1565b6112a6565b6102e56105e1366004611907565b6112b2565b61039c6105f4366004611c1b565b611357565b6102e56106073660046119c4565b60056020526000908152604090205481565b600061062633848461143d565b5060015b92915050565b600080620f42406106478563ffffffff8616611c84565b6106519190611c9b565b905060006106947f00000000000000000000000000000000000000000000000000000000000000006001600160a01b031660009081526020819052604090205490565b905060006106a0611099565b9050808210156106c957806106b58385611c84565b6106bf9190611c9b565b935050505061062a565b82935050505061062a565b60006106e184848461149f565b6106ec8433846115b6565b5060019392505050565b600061070133610cbc565b15801561072d57503360009081526006602052604090205461072b906001600160a01b0316610cbc565b155b1561074b57604051633e34a41b60e21b815260040160405180910390fd5b60006107578484610630565b90506107847f0000000000000000000000000000000000000000000000000000000000000000868361149f565b61078e8585611624565b61079e63ffffffff841685611c84565b600460008282546107af9190611cbd565b909155509095945050505050565b604080517f47e79534a245952e8b16893a336b85a3d9ea9fa8c573f3d803afb92a794692186020820152469181019190915230606082015260009060800160405160208183030381529060405280519060200120905090565b61081f33610cbc565b15801561084b575033600090815260066020526040902054610849906001600160a01b0316610cbc565b155b1561086957604051633e34a41b60e21b815260040160405180910390fd5b61087382826116ae565b5050565b6108813382611624565b50565b61088d33610cbc565b1580156108b95750336000908152600660205260409020546108b7906001600160a01b0316610cbc565b155b156108d757604051633e34a41b60e21b815260040160405180910390fd5b610873338383611743565b6108eb33610cbc565b158015610917575033600090815260066020526040902054610915906001600160a01b0316610cbc565b155b1561093557604051633e34a41b60e21b815260040160405180910390fd5b6108738282611624565b61094833610cbc565b158015610974575033600090815260066020526040902054610972906001600160a01b0316610cbc565b155b1561099257604051633e34a41b60e21b815260040160405180910390fd5b6000620f4240836109a38483611cd0565b6109ad9190611cd0565b6109bd9063ffffffff1686611c84565b6109c79190611c9b565b90506109d385826116ae565b610a067f0000000000000000000000000000000000000000000000000000000000000000610a018387611cbd565b6116ae565b610a1663ffffffff841685611c84565b60046000828254610a279190611ced565b90915550339050600080516020611dd9833981519152620f4240610a518763ffffffff8716611c84565b610a5b9190611c9b565b6040519081526020015b60405180910390a25050505050565b6001600160a01b037f0000000000000000000000000000000000000000000000000000000000000000166000908152602081905260408120546000610ab7611099565b9050808211610ac95760009250505090565b610ad38183611cbd565b9250505090565b6001600160a01b038516600090815260056020526040902054421115610b135760405163ecdd1c2960e01b815260040160405180910390fd5b60405163352e3a8360e01b81526001600160a01b037f0000000000000000000000000000000000000000000000000000000000000000169063352e3a8390610b6390339088908890600401611d00565b60006040518083038186803b158015610b7b57600080fd5b505afa158015610b8f573d6000803e3d6000fd5b505050506001600160a01b03851660008181526005602052604080822091909155517fd60c86e83346fdbe3124cb7d1cba32973a9f62d05c4ec801bfe6c09d1038038190610a659085908590611d83565b6000610beb33610cbc565b158015610c17575033600090815260066020526040902054610c15906001600160a01b0316610cbc565b155b15610c3557604051633e34a41b60e21b815260040160405180910390fd5b6000610c4184846112b2565b9050610c5363ffffffff841682611c84565b60046000828254610c649190611cbd565b90915550610c9e90507f000000000000000000000000000000000000000000000000000000000000000033610c998785611cbd565b61149f565b610ca83382611624565b9392505050565b600061062633848461149f565b6001600160a01b0381166000908152600560205260408120541580159061062a5750506001600160a01b031660009081526005602052604090205442101590565b610d0633610cbc565b610d2357604051633e34a41b60e21b815260040160405180910390fd5b6001600160a01b0316600090815260066020526040902080546001600160a01b03191633179055565b610d5533610cbc565b158015610d81575033600090815260066020526040902054610d7f906001600160a01b0316610cbc565b155b15610d9f57604051633e34a41b60e21b815260040160405180910390fd5b610da93383611624565b6000610dbb63ffffffff831684611c84565b9050600454811115610e0c57336001600160a01b0316600080516020611dd9833981519152620f4240600454610df19190611c9b565b60405190815260200160405180910390a26000600455505050565b8060046000828254610e1e9190611cbd565b90915550339050600080516020611dd9833981519152610e41620f424084611c9b565b6040519081526020015b60405180910390a2505050565b7f0000000000000000000000000000000000000000000000000000000000000000841015610e9957604051631260d0af60e31b815260040160405180910390fd5b683635c9adc5dea00000831015610ec35760405163732f941360e01b815260040160405180910390fd5b6001600160a01b03851660009081526005602052604090205415610efa57604051630ea075bf60e21b815260040160405180910390fd5b610f05303385611743565b610f0f8442611ced565b6001600160a01b038616600081815260056020526040908190209290925590517f97326258efdae63280617ca33884e507791c2abeed7b82acd77f1853394ef94b90610a65908790879087908790611d9f565b610f6b33610cbc565b158015610f97575033600090815260066020526040902054610f95906001600160a01b0316610cbc565b155b15610fb557604051633e34a41b60e21b815260040160405180910390fd5b7f00000000000000000000000000000000000000000000000000000000000000006001600160a01b0316600090815260208190526040902054818110611025576110207f0000000000000000000000000000000000000000000000000000000000000000848461149f565b61105e565b6110507f0000000000000000000000000000000000000000000000000000000000000000848361149f565b61105e83610a018385611cbd565b826001600160a01b03167f72fba0ba07d937c660a3130fca36005c0e476cb97b6f00de413976e37eba950183604051610e4b91815260200190565b6000620f42406004546110ac9190611c9b565b905090565b428410156111065760405162461bcd60e51b815260206004820152601760248201527f5045524d49545f444541444c494e455f4558504952454400000000000000000060448201526064015b60405180910390fd5b600060016111126107bd565b6001600160a01b038a811660008181526003602090815260409182902080546001810190915582517f6e71edae12b1b97f4d1f60370fef10105fa2faae0126114a169c64845d6126c98184015280840194909452938d166060840152608083018c905260a083019390935260c08083018b90528151808403909101815260e08301909152805192019190912061190160f01b6101008301526101028201929092526101228101919091526101420160408051601f198184030181528282528051602091820120600084529083018083525260ff871690820152606081018590526080810184905260a0016020604051602081039080840390855afa15801561121e573d6000803e3d6000fd5b5050604051601f1901519150506001600160a01b038116158015906112545750876001600160a01b0316816001600160a01b0316145b6112915760405162461bcd60e51b815260206004820152600e60248201526d24a72b20a624a22fa9a4a3a722a960911b60448201526064016110fd565b61129c81888861143d565b5050505050505050565b6000610ca88383611797565b6001600160a01b037f00000000000000000000000000000000000000000000000000000000000000001660009081526020819052604081205460006112f5611099565b9050600081831061130c578463ffffffff16611327565b8161131d8463ffffffff8816611c84565b6113279190611c9b565b905061133681620f4240611cbd565b61134387620f4240611c84565b61134d9190611c9b565b9695505050505050565b6002541580156113e657507f00000000000000000000000000000000000000000000000000000000000000006001600160a01b03166318160ddd6040518163ffffffff1660e01b8152600401602060405180830381865afa1580156113c0573d6000803e3d6000fd5b505050506040513d601f19601f820116820180604052508101906113e49190611dbf565b155b6113ef57600080fd5b6001600160a01b038316600081815260056020526040808220429055517f97326258efdae63280617ca33884e507791c2abeed7b82acd77f1853394ef94b91610e4b91819087908790611d9f565b6001600160a01b0383811660008181526001602090815260408083209487168084529482529182902085905590518481527f8c5be1e5ebec7d5bd14f71427d1e84f3dd0314c0f7b2291e5b200ac8c7c3b92591015b60405180910390a3505050565b6001600160a01b0382166114b257600080fd5b6001600160a01b038316600090815260208190526040902054811115611515576001600160a01b0383166000818152602081905260409081902054905163391434e360e21b815260048101929092526024820152604481018290526064016110fd565b6001600160a01b0383166000908152602081905260408120805483929061153d908490611cbd565b90915550506001600160a01b0382166000908152602081905260408120805483929061156a908490611ced565b92505081905550816001600160a01b0316836001600160a01b03167fddf252ad1be2c89b69c2b068fc378daa952ba7f163c4a11628f55a4df523b3ef8360405161149291815260200190565b60006115c28484611797565b9050600160ff1b81101561161e578181101561160a57604051637dc7a0d960e11b81526001600160a01b038516600482015260248101829052604481018390526064016110fd565b61161e84846116198585611cbd565b61143d565b50505050565b80600260008282546116369190611cbd565b90915550506001600160a01b03821660009081526020819052604081208054839290611663908490611cbd565b90915550506040518181526000906001600160a01b038416907fddf252ad1be2c89b69c2b068fc378daa952ba7f163c4a11628f55a4df523b3ef906020015b60405180910390a35050565b6001600160a01b0382166116c157600080fd5b80600260008282546116d39190611ced565b90915550506001600160a01b03821660009081526020819052604081208054839290611700908490611ced565b90915550506040518181526001600160a01b038316906000907fddf252ad1be2c89b69c2b068fc378daa952ba7f163c4a11628f55a4df523b3ef906020016116a2565b61176e827f00000000000000000000000000000000000000000000000000000000000000008361149f565b826001600160a01b0316600080516020611dd983398151915282604051610e4b91815260200190565b6001600160a01b03808316600090815260016020908152604080832093851683529290529081205480156117cc57905061062a565b6117d583610cbc565b806117ff57506001600160a01b038084166000908152600660205260409020546117ff9116610cbc565b8061183b57507f00000000000000000000000000000000000000000000000000000000000000006001600160a01b0316836001600160a01b0316145b1561184d57600160ff1b91505061062a565b600091505061062a565b5092915050565b60006020808352835180602085015260005b8181101561188c57858101830151858201604001528201611870565b506000604082860101526040601f19601f8301168501019250505092915050565b80356001600160a01b03811681146118c457600080fd5b919050565b600080604083850312156118dc57600080fd5b6118e5836118ad565b946020939093013593505050565b803563ffffffff811681146118c457600080fd5b6000806040838503121561191a57600080fd5b8235915061192a602084016118f3565b90509250929050565b60008060006060848603121561194857600080fd5b611951846118ad565b925061195f602085016118ad565b9150604084013590509250925092565b60008060006060848603121561198457600080fd5b61198d846118ad565b9250602084013591506119a2604085016118f3565b90509250925092565b6000602082840312156119bd57600080fd5b5035919050565b6000602082840312156119d657600080fd5b610ca8826118ad565b600080600080608085870312156119f557600080fd5b6119fe856118ad565b935060208501359250611a13604086016118f3565b9150611a21606086016118f3565b905092959194509250565b60008083601f840112611a3e57600080fd5b50813567ffffffffffffffff811115611a5657600080fd5b602083019150836020828501011115611a6e57600080fd5b9250929050565b600080600080600060608688031215611a8d57600080fd5b611a96866118ad565b9450602086013567ffffffffffffffff80821115611ab357600080fd5b818801915088601f830112611ac757600080fd5b813581811115611ad657600080fd5b8960208260051b8501011115611aeb57600080fd5b602083019650809550506040880135915080821115611b0957600080fd5b50611b1688828901611a2c565b969995985093965092949392505050565b600080600080600060808688031215611b3f57600080fd5b611b48866118ad565b94506020860135935060408601359250606086013567ffffffffffffffff811115611b7257600080fd5b611b1688828901611a2c565b600080600080600080600060e0888a031215611b9957600080fd5b611ba2886118ad565b9650611bb0602089016118ad565b95506040880135945060608801359350608088013560ff81168114611bd457600080fd5b9699959850939692959460a0840135945060c09093013592915050565b60008060408385031215611c0457600080fd5b611c0d836118ad565b915061192a602084016118ad565b600080600060408486031215611c3057600080fd5b611c39846118ad565b9250602084013567ffffffffffffffff811115611c5557600080fd5b611c6186828701611a2c565b9497909650939450505050565b634e487b7160e01b600052601160045260246000fd5b808202811582820484141761062a5761062a611c6e565b600082611cb857634e487b7160e01b600052601260045260246000fd5b500490565b8181038181111561062a5761062a611c6e565b63ffffffff82811682821603908082111561185757611857611c6e565b8082018082111561062a5761062a611c6e565b6001600160a01b03848116825260406020808401829052908301849052600091859160608501845b87811015611d4d5783611d3a866118ad565b1682529382019390820190600101611d28565b5098975050505050505050565b81835281816020850137506000828201602090810191909152601f909101601f19169091010190565b602081526000611d97602083018486611d5a565b949350505050565b84815283602082015260606040820152600061134d606083018486611d5a565b600060208284031215611dd157600080fd5b505191905056fe5314098314219d6e1ce8e41fc5e6ec1ce2f06a9d583079fb6619af9bf6efdf41a2646970667358221220f0c81203625f0523f8f0a552d5d697f0a82d0a7d083e89dec6f2e7c069c9751e64736f6c6343000818003360c060405234801561001057600080fd5b50604051620022743803806200227483398101604081905261003191610047565b60126080526001600160a01b031660a052610077565b60006020828403121561005957600080fd5b81516001600160a01b038116811461007057600080fd5b9392505050565b60805160a05161219f620000d5600039600081816104b2015281816107ca0152818161091501528181610a8b01528181610b3c01528181610c5701528181610f930152818161100d015261131501526000610308015261219f6000f3fe608060405234801561001057600080fd5b50600436106101fb5760003560e01c806370a082311161011a578063a9059cbb116100ad578063c9f72b671161007c578063c9f72b67146104d4578063d505accf146104e7578063d87aa643146104fa578063d8bff5a51461050d578063dd62ed3e1461052057600080fd5b8063a9059cbb1461047a578063ad08ce5b1461048d578063b0c2bf06146104a0578063c4d4803a146104ad57600080fd5b806391ac6f99116100e957806391ac6f991461042d57806395d89b41146104405780639823004f1461045f578063a035b1fe1461047257600080fd5b806370a08231146103be5780637ecebe00146103e7578063820710af1461040757806384a7aa0c1461041a57600080fd5b806323b872dd116101925780633644e515116101615780633644e5151461034f5780633ec1619414610357578063587cde1e1461036a5780635895b773146103ab57600080fd5b806323b872dd146102d3578063250f25f4146102e6578063313ce56714610303578063352e3a831461033c57600080fd5b8063151535b9116101ce578063151535b91461029057806318160ddd146102a35780631e9a6950146102ab5780632295abea146102be57600080fd5b806306fdde0314610200578063095ea7b3146102445780630d15fd77146102675780630e89c3701461027d575b600080fd5b6040805180820190915260168152754672616e6b656e636f696e20506f6f6c20536861726560501b60208201525b60405161023b9190611c9d565b60405180910390f35b610257610252366004611d08565b610533565b604051901515815260200161023b565b61026f61054a565b60405190815260200161023b565b61026f61028b366004611d32565b6105a5565b61025761029e366004611d65565b6105ca565b60035461026f565b61026f6102b9366004611d08565b610612565b6102d16102cc366004611dcb565b610626565b005b6102576102e1366004611e16565b6106f5565b6102ee600381565b60405163ffffffff909116815260200161023b565b61032a7f000000000000000000000000000000000000000000000000000000000000000081565b60405160ff909116815260200161023b565b6102d161034a366004611e52565b610717565b61026f61076a565b61026f610365366004611ea4565b6107c3565b610393610378366004611d65565b6000602081905290815260409020546001600160a01b031681565b6040516001600160a01b03909116815260200161023b565b61026f6103b9366004611e52565b610850565b61026f6103cc366004611d65565b6001600160a01b031660009081526001602052604090205490565b61026f6103f5366004611d65565b60046020526000908152604090205481565b6102d1610415366004611ebd565b6108ff565b61026f610428366004611d65565b610a18565b61026f61043b366004611f28565b610a47565b60408051808201909152600381526246505360e81b602082015261022e565b6102d161046d366004611d65565b610a79565b61026f610a86565b610257610488366004611d08565b610be1565b61026f61049b366004611ea4565b610bee565b61026f65076a7000000081565b6103937f000000000000000000000000000000000000000000000000000000000000000081565b61026f6104e2366004611d65565b610d32565b6102d16104f5366004611f6a565b610d7e565b61026f610508366004611fdd565b610f6e565b61026f61051b366004611d65565b6111d4565b61026f61052e366004611fff565b611235565b6000610540338484611262565b5060015b92915050565b600554600090600160c01b90046001600160401b03164260141b61056e9190612048565b6001600160401b031661058060035490565b61058a9190612068565b6005546105a091906001600160c01b031661207f565b905090565b6000806105b33386866112c4565b9050828110156105c257600080fd5b949350505050565b6001600160a01b03811660009081526006602052604081205465076a7000000090610601906001600160401b03164260141b612048565b6001600160401b0316101592915050565b600061061f3384846112c4565b9392505050565b600061063233836113ec565b90506000805b848110801561064657508282105b156106a25761068486868381811061066057610660612092565b90506020020160208101906106759190611d65565b61067f84866120a8565b6113ec565b61068e908361207f565b91508061069a816120bb565b915050610638565b50600081116106b057600080fd5b81816106ba61054a565b6106c491906120a8565b6106ce91906120a8565b6001600160c01b0316600160c01b4260141b6001600160401b031602176005555050505050565b60006107028484846114d9565b61070d8433846115fb565b5060019392505050565b6000610724848484610850565b905061072e61054a565b6107399060c8612068565b61074582612710612068565b10156107645760405163bcfcdc1160e01b815260040160405180910390fd5b50505050565b604080517f47e79534a245952e8b16893a336b85a3d9ea9fa8c573f3d803afb92a794692186020820152469181019190915230606082015260009060800160405160208183030381529060405280519060200120905090565b60006105447f00000000000000000000000000000000000000000000000000000000000000006001600160a01b03166391a0ac6a6040518163ffffffff1660e01b8152600401602060405180830381865afa158015610826573d6000803e3d6000fd5b505050506040513d601f19601f8201168201806040525081019061084a91906120d4565b8361167b565b60008061085c856111d4565b90506108688484611719565b61087157600080fd5b60005b838110156108f657600085858381811061089057610890612092565b90506020020160208101906108a59190611d65565b9050866001600160a01b0316816001600160a01b0316036108c557600080fd5b6108cf87826117e8565b6108d857600080fd5b6108e1816111d4565b6108eb908461207f565b925050600101610874565b50949350505050565b610913670de0b6b3a76400006103e8612068565b7f00000000000000000000000000000000000000000000000000000000000000006001600160a01b03166391a0ac6a6040518163ffffffff1660e01b8152600401602060405180830381865afa158015610971573d6000803e3d6000fd5b505050506040513d601f19601f8201168201806040525081019061099591906120d4565b1061099f57600080fd5b6109aa338585610717565b60005b81811015610a115760008383838181106109c9576109c9612092565b90506020020160208101906109de9190611d65565b9050610a0881610a03836001600160a01b031660009081526001602052604090205490565b61184e565b506001016109ad565b5050505050565b6000610a2261054a565b610a2b836111d4565b610a3d90670de0b6b3a7640000612068565b6105449190612103565b6000610a548533856115fb565b6000610a618686866112c4565b905082811015610a7057600080fd5b95945050505050565b610a8333826118e4565b50565b6000807f00000000000000000000000000000000000000000000000000000000000000006001600160a01b03166391a0ac6a6040518163ffffffff1660e01b8152600401602060405180830381865afa158015610ae7573d6000803e3d6000fd5b505050506040513d601f19601f82011682018060405250810190610b0b91906120d4565b9050801580610b1a5750600354155b15610b2e57670de0b6b3a764000091505090565b600354670de0b6b3a76400007f00000000000000000000000000000000000000000000000000000000000000006001600160a01b03166391a0ac6a6040518163ffffffff1660e01b8152600401602060405180830381865afa158015610b98573d6000803e3d6000fd5b505050506040513d601f19601f82011682018060405250810190610bbc91906120d4565b610bc7906003612068565b610bd19190612068565b610bdb9190612103565b91505090565b60006105403384846114d9565b600080610bfa60035490565b905080610c0f670de0b6b3a76400008561207f565b10610c535760405162461bcd60e51b815260206004820152600f60248201526e746f6f206d616e792073686172657360881b60448201526064015b60405180910390fd5b60007f00000000000000000000000000000000000000000000000000000000000000006001600160a01b03166391a0ac6a6040518163ffffffff1660e01b8152600401602060405180830381865afa158015610cb3573d6000803e3d6000fd5b505050506040513d601f19601f82011682018060405250810190610cd791906120d4565b905060006103e8610cea866103e5612068565b610cf49190612103565b90506000610d1c83610d17610d12610d0c86896120a8565b8861193b565b61195a565b61196b565b9050610d2881846120a8565b9695505050505050565b6001600160a01b038116600090815260066020526040812054601490610d63906001600160401b031642831b612048565b6001600160401b0316901c6001600160401b03169050919050565b42841015610dce5760405162461bcd60e51b815260206004820152601760248201527f5045524d49545f444541444c494e455f455850495245440000000000000000006044820152606401610c4a565b60006001610dda61076a565b6001600160a01b038a811660008181526004602090815260409182902080546001810190915582517f6e71edae12b1b97f4d1f60370fef10105fa2faae0126114a169c64845d6126c98184015280840194909452938d166060840152608083018c905260a083019390935260c08083018b90528151808403909101815260e08301909152805192019190912061190160f01b6101008301526101028201929092526101228101919091526101420160408051601f198184030181528282528051602091820120600084529083018083525260ff871690820152606081018590526080810184905260a0016020604051602081039080840390855afa158015610ee6573d6000803e3d6000fd5b5050604051601f1901519150506001600160a01b03811615801590610f1c5750876001600160a01b0316816001600160a01b0316145b610f595760405162461bcd60e51b815260206004820152600e60248201526d24a72b20a624a22fa9a4a3a722a960911b6044820152606401610c4a565b610f64818888611262565b5050505050505050565b6040516323b872dd60e01b8152336004820152306024820152604481018390526000907f00000000000000000000000000000000000000000000000000000000000000006001600160a01b0316906323b872dd906064016020604051808303816000875af1158015610fe4573d6000803e3d6000fd5b505050506040513d601f19601f820116820180604052508101906110089190612117565b5060007f00000000000000000000000000000000000000000000000000000000000000006001600160a01b03166391a0ac6a6040518163ffffffff1660e01b8152600401602060405180830381865afa158015611069573d6000803e3d6000fd5b505050506040513d601f19601f8201168201806040525081019061108d91906120d4565b90506110a3670de0b6b3a76400006103e8612068565b8110156110e15760405162461bcd60e51b815260206004820152600c60248201526b696e7375662065717569747960a01b6044820152606401610c4a565b6000611106858311156110fd576110f886846120a8565b611100565b60005b8661167b565b90508381101561111557600080fd5b61111f3382611980565b7fd98fb7c2b7c7b545387da80b92c08bc5d2a4b922fb74851c3d27ee07ca897bdf33828761114b610a86565b604080516001600160a01b039095168552602085019390935291830152606082015260800160405180910390a16bffffffffffffffffffffffff61118e60035490565b11156105c25760405162461bcd60e51b81526020600482015260156024820152741d1bdd185b081cdd5c1c1b1e48195e18d959591959605a1b6044820152606401610c4a565b6001600160a01b038116600090815260066020526040812054611203906001600160401b03164260141b612048565b6001600160401b031661122b836001600160a01b031660009081526001602052604090205490565b6105449190612068565b6001600160a01b03808316600090815260026020908152604080832093851683529290529081205461061f565b6001600160a01b0383811660008181526002602090815260408083209487168084529482529182902085905590518481527f8c5be1e5ebec7d5bd14f71427d1e84f3dd0314c0f7b2291e5b200ac8c7c3b92591015b60405180910390a3505050565b60006112cf846105ca565b6112d857600080fd5b60006112e383610bee565b90506112ef858461184e565b60405163a9059cbb60e01b81526001600160a01b038581166004830152602482018390527f0000000000000000000000000000000000000000000000000000000000000000169063a9059cbb906044016020604051808303816000875af115801561135e573d6000803e3d6000fd5b505050506040513d601f19601f820116820180604052508101906113829190612117565b507fd98fb7c2b7c7b545387da80b92c08bc5d2a4b922fb74851c3d27ee07ca897bdf856113ae85612139565b836113b7610a86565b604080516001600160a01b039095168552602085019390935291830152606082015260800160405180910390a1949350505050565b6000806113f8846111d4565b905080831061143d576001600160a01b0384166000908152600660205260409020805467ffffffffffffffff19164260141b6001600160401b03161790559050610544565b6001600160a01b03841660009081526001602052604090205461146084836120a8565b61146a9190612103565b611480906001600160401b034260141b166120a8565b6001600160a01b0385166000908152600660205260409020805467ffffffffffffffff19166001600160401b03929092169190911790556114c0846111d4565b6114ca90826120a8565b915050610544565b5092915050565b6001600160a01b0382166114ec57600080fd5b6114f7838383611a21565b6001600160a01b03831660009081526001602052604090205481111561155a576001600160a01b0383166000818152600160205260409081902054905163391434e360e21b81526004810192909252602482015260448101829052606401610c4a565b6001600160a01b038316600090815260016020526040812080548392906115829084906120a8565b90915550506001600160a01b038216600090815260016020526040812080548392906115af90849061207f565b92505081905550816001600160a01b0316836001600160a01b03167fddf252ad1be2c89b69c2b068fc378daa952ba7f163c4a11628f55a4df523b3ef836040516112b791815260200190565b6001600160a01b03838116600090815260026020908152604080832093861683529290522054600160ff1b811015610764578181101561166757604051637dc7a0d960e11b81526001600160a01b03851660048201526024810182905260448101839052606401610c4a565b610764848461167685856120a8565b611262565b60008061168760035490565b905060006103e861169a856103e5612068565b6116a49190612103565b905060006116bc670de0b6b3a76400006103e8612068565b8610806116c7575082155b6116ef576116ea83610d176116e56116df868b61207f565b8a61193b565b611a45565b61170d565b611703670de0b6b3a76400006103e8612068565b61170d908461207f565b9050610d2883826120a8565b60006001821161172b57506001610544565b60008383600081811061174057611740612092565b90506020020160208101906117559190611d65565b905060015b838110156117dd57816001600160a01b031685858381811061177e5761177e612092565b90506020020160208101906117939190611d65565b6001600160a01b0316116117ac57600092505050610544565b8484828181106117be576117be612092565b90506020020160208101906117d39190611d65565b915060010161175a565b506001915050610544565b6000826001600160a01b0316826001600160a01b03160361180b57506001610544565b6001600160a01b03821661182157506000610544565b6001600160a01b03808316600090815260208190526040902054611847918591166117e8565b9050610544565b61185a82600083611a21565b806003600082825461186c91906120a8565b90915550506001600160a01b038216600090815260016020526040812080548392906118999084906120a8565b90915550506040518181526000906001600160a01b038416907fddf252ad1be2c89b69c2b068fc378daa952ba7f163c4a11628f55a4df523b3ef906020015b60405180910390a35050565b6001600160a01b0382811660008181526020819052604080822080546001600160a01b0319169486169485179055517fd000f39f92c3ed77f890f16b6ced1555e0ab2cdf470522d2210de67d8c83d45b9190a35050565b600081611950670de0b6b3a764000085612068565b61061f9190612103565b6000610544611969838461196b565b835b6000670de0b6b3a76400006119508385612068565b6001600160a01b03821661199357600080fd5b61199f60008383611a21565b80600360008282546119b1919061207f565b90915550506001600160a01b038216600090815260016020526040812080548392906119de90849061207f565b90915550506040518181526001600160a01b038316906000907fddf252ad1be2c89b69c2b068fc378daa952ba7f163c4a11628f55a4df523b3ef906020016118d8565b8015611a40576000611a338383611b37565b9050610764848383611bf5565b505050565b600080670de0b6b3a764000083118015611a665750678ac7230489e8000083105b611a7857670de0b6b3a7640000611aa1565b670de0b6b3a76400006003611a8d82866120a8565b611a979190612103565b611aa1919061207f565b905060005b6000611abb611ab5848561196b565b8461196b565b9050600085611acb836002612068565b611ad5919061207f565b611ae0876002612068565b611aea908461207f565b611af49086612068565b611afe9190612103565b9050838111611b1657611b1181856120a8565b611b20565b611b2084826120a8565b909350915050620f42408111611aa6575092915050565b60006001600160a01b03831615611bed576000611b53846111d4565b9050600083611b77866001600160a01b031660009081526001602052604090205490565b611b81919061207f565b9050611b8d8183612103565b611ba3906001600160401b034260141b166120a8565b6001600160a01b0386166000908152600660205260409020805467ffffffffffffffff19166001600160401b0392909216919091179055611be48183612155565b92505050610544565b506000610544565b4260141b60006001600160a01b03851615611c50576001600160a01b0385166000908152600660205260409020548490611c38906001600160401b031684612048565b6001600160401b0316611c4b9190612068565b611c53565b60005b90508083611c5f61054a565b611c6991906120a8565b611c7391906120a8565b6001600160401b03909216600160c01b026001600160c01b03929092169190911760055550505050565b60006020808352835180602085015260005b81811015611ccb57858101830151858201604001528201611caf565b506000604082860101526040601f19601f8301168501019250505092915050565b80356001600160a01b0381168114611d0357600080fd5b919050565b60008060408385031215611d1b57600080fd5b611d2483611cec565b946020939093013593505050565b600080600060608486031215611d4757600080fd5b611d5084611cec565b95602085013595506040909401359392505050565b600060208284031215611d7757600080fd5b61061f82611cec565b60008083601f840112611d9257600080fd5b5081356001600160401b03811115611da957600080fd5b6020830191508360208260051b8501011115611dc457600080fd5b9250929050565b600080600060408486031215611de057600080fd5b83356001600160401b03811115611df657600080fd5b611e0286828701611d80565b909790965060209590950135949350505050565b600080600060608486031215611e2b57600080fd5b611e3484611cec565b9250611e4260208501611cec565b9150604084013590509250925092565b600080600060408486031215611e6757600080fd5b611e7084611cec565b925060208401356001600160401b03811115611e8b57600080fd5b611e9786828701611d80565b9497909650939450505050565b600060208284031215611eb657600080fd5b5035919050565b60008060008060408587031215611ed357600080fd5b84356001600160401b0380821115611eea57600080fd5b611ef688838901611d80565b90965094506020870135915080821115611f0f57600080fd5b50611f1c87828801611d80565b95989497509550505050565b60008060008060808587031215611f3e57600080fd5b611f4785611cec565b9350611f5560208601611cec565b93969395505050506040820135916060013590565b600080600080600080600060e0888a031215611f8557600080fd5b611f8e88611cec565b9650611f9c60208901611cec565b95506040880135945060608801359350608088013560ff81168114611fc057600080fd5b9699959850939692959460a0840135945060c09093013592915050565b60008060408385031215611ff057600080fd5b50508035926020909101359150565b6000806040838503121561201257600080fd5b61201b83611cec565b915061202960208401611cec565b90509250929050565b634e487b7160e01b600052601160045260246000fd5b6001600160401b038281168282160390808211156114d2576114d2612032565b808202811582820484141761054457610544612032565b8082018082111561054457610544612032565b634e487b7160e01b600052603260045260246000fd5b8181038181111561054457610544612032565b6000600182016120cd576120cd612032565b5060010190565b6000602082840312156120e657600080fd5b5051919050565b634e487b7160e01b600052601260045260246000fd5b600082612112576121126120ed565b500490565b60006020828403121561212957600080fd5b8151801515811461061f57600080fd5b6000600160ff1b820161214e5761214e612032565b5060000390565b600082612164576121646120ed565b50069056fea2646970667358221220c42562fb27afb2967709f125471564f2b965b00e87914a1eda6beaf071c6b1c064736f6c63430008180033",
  "devdoc": {
    "events": {
      "Approval(address,address,uint256)": {
        "details": "Emitted when the allowance of a `spender` for an `owner` is set by a call to `approve`. `value` is the new allowance."
      },
      "Transfer(address,address,uint256)": {
        "details": "Emitted when `value` tokens are moved from one account (`from`) to another (`to`). Note that `value` may be zero."
      }
    },
    "kind": "dev",
    "methods": {
      "allowance(address,address)": {
        "details": "See `IERC20.allowance`."
      },
      "approve(address,uint256)": {
        "details": "See `IERC20.approve`. Requirements: - `spender` cannot be the zero address."
      },
      "balanceOf(address)": {
        "details": "See `IERC20.balanceOf`."
      },
      "denyMinter(address,address[],string)": {
        "details": "Calling this function is relatively cheap thanks to the deletion of a storage slot."
      },
      "equity()": {
        "details": "Note that the equity contract technically holds both the minter reserve as well as the equity, so the minter reserve must be subtracted. All fees and other kind of income is added to the Equity contract and essentially constitutes profits attributable to the pool share holders."
      },
      "minterReserve()": {
        "details": "The minter reserve can be used to cover losses after the equity holders have been wiped out."
      },
      "registerPosition(address)": {
        "details": "It is assumed that the responsible minter that registers the position ensures that the position can be trusted."
      },
      "suggestMinter(address,uint256,uint256,string)": {
        "details": "The caller has to pay an application fee that is irrevocably lost even if the new minter is vetoed. The caller must assume that someone will veto the new minter unless there is broad consensus that the new minter adds value to the Frankencoin system. Complex proposals should have application periods and applications fees above the minimum. It is assumed that over time, informal ways to coordinate on new minters emerge. The message parameter might be useful for initiating further communication. Maybe it contains a link to a website describing the proposed minter.",
        "params": {
          "_applicationFee": "The fee paid by the caller, at least MIN_FEE",
          "_applicationPeriod": "The time others have to veto the suggestion, at least MIN_APPLICATION_PERIOD",
          "_message": "An optional human readable message to everyone watching this contract",
          "_minter": "An address that is given the permission to mint Frankencoins"
        }
      },
      "totalSupply()": {
        "details": "See `IERC20.totalSupply`."
      },
      "transfer(address,uint256)": {
        "details": "See `IERC20.transfer`. Requirements: - `recipient` cannot be the zero address. - the caller must have a balance of at least `amount`."
      },
      "transferFrom(address,address,uint256)": {
        "details": "See `IERC20.transferFrom`. Emits an `Approval` event indicating the updated allowance. This is not required by the EIP. See the note at the beginning of `ERC20`; Requirements: - `sender` and `recipient` cannot be the zero address. - `sender` must have a balance of at least `value`. - the caller must have allowance for `sender`'s tokens of at least `amount`."
      }
    },
    "title": "FrankenCoin",
    "version": 1
  },
  "userdoc": {
    "kind": "user",
    "methods": {
      "MIN_FEE()": {
        "notice": "Minimal fee and application period when suggesting a new minter."
      },
      "burn(uint256)": {
        "notice": "Anyone is allowed to burn their ZCHF."
      },
      "burnFrom(address,uint256)": {
        "notice": "Burn someone elses ZCHF."
      },
      "burnFromWithReserve(address,uint256,uint32)": {
        "notice": "Burns the target amount taking the tokens to be burned from the payer and the payer's reserve. Only use this method for tokens also minted by the caller with the same _reservePPM. Example: the calling contract has previously minted 100 ZCHF with a reserve ratio of 20% (i.e. 200000 ppm). To burn half of that again, the minter calls burnFrom with a target amount of 50 ZCHF. Assuming that reserves are only 90% covered, this call will deduct 41 ZCHF from the payer's balance and 9 from the reserve, while reducing the minter reserve by 10."
      },
      "burnWithReserve(uint256,uint32)": {
        "notice": "Burns the provided number of tokens plus whatever reserves are associated with that amount given the reserve requirement. The caller is only allowed to use this method for tokens also minted through the caller with the same _reservePPM amount. Example: the calling contract has previously minted 100 ZCHF with a reserve ratio of 20% (i.e. 200000 ppm). Now they have 41 ZCHF that they do not need so they decide to repay that amount. Assuming the reserves are only 90% covered, the call to burnWithReserve will burn the 41 plus 9 from the reserve, reducing the outstanding 'debt' of the caller by 50 ZCHF in total. This total is returned by the method so the caller knows how much less they owe."
      },
      "burnWithoutReserve(uint256,uint32)": {
        "notice": "Burn that amount without reclaiming the reserve, but freeing it up and thereby essentially donating it to the pool share holders. This can make sense in combination with 'coverLoss', i.e. when it is the pool share holders that bear the risk and depending on the outcome they make a profit or a loss. Design rule: Minters calling this method are only allowed to so for tokens amounts they previously minted with the same _reservePPM amount. For example, if someone minted 50 ZCHF earlier with a 20% reserve requirement (200000 ppm), they got 40 ZCHF and paid 10 ZCHF into the reserve. Now they want to repay the debt by burning 50 ZCHF. When doing so using this method, 50 ZCHF get burned and on top of that, 10 ZCHF previously assigned to the minter's reserved are reassigned to the pool share holders. CS-ZCHF2-009: the Profit event can overstate profits in case there is no equity capital left."
      },
      "calculateAssignedReserve(uint256,uint32)": {
        "notice": "Calculates the reserve attributable to someone who minted the given amount with the given reserve requirement. Under normal circumstances, this is just the reserve requirement multiplied by the amount. However, after a severe loss of capital that burned into the minter's reserve, this can also be less than that."
      },
      "calculateFreedAmount(uint256,uint32)": {
        "notice": "Calculate the amount that is freed when returning amountExcludingReserve given a reserve ratio of reservePPM, taking into account potential losses. Example values in the comments."
      },
      "constructor": {
        "notice": "Initiates the Frankencoin with the provided minimum application period for new plugins in seconds, for example 10 days, i.e. 3600*24*10 = 864000"
      },
      "coverLoss(address,uint256)": {
        "notice": "Notify the Frankencoin that a minter lost economic access to some coins. This does not mean that the coins are literally lost. It just means that some ZCHF will likely never be repaid and that in order to bring the system back into balance, the lost amount of ZCHF must be removed from the reserve instead. For example, if a minter printed 1 million ZCHF for a mortgage and the mortgage turned out to be unsound with the house only yielding 800'000 in the subsequent auction, there is a loss of 200'000 that needs to be covered by the reserve."
      },
      "denyMinter(address,address[],string)": {
        "notice": "Qualified pool share holders can deny minters during the application period."
      },
      "equity()": {
        "notice": "The amount of equity of the Frankencoin system in ZCHF, owned by the holders of Frankencoin Pool Shares."
      },
      "getPositionParent(address)": {
        "notice": "Returns the address of the minter that created this position or null if the provided address is unknown."
      },
      "isMinter(address)": {
        "notice": "Returns true if the address is an approved minter."
      },
      "mintWithReserve(address,uint256,uint32,uint32)": {
        "notice": "Mints the provided amount of ZCHF to the target address, automatically forwarding the minting fee and the reserve to the right place."
      },
      "minterReserve()": {
        "notice": "The reserve provided by the owners of collateralized positions."
      },
      "minters(address)": {
        "notice": "Map of minters to approval time stamps. If the time stamp is in the past, the minter contract is allowed to mint Frankencoins."
      },
      "positions(address)": {
        "notice": "List of positions that are allowed to mint and the minter that registered them."
      },
      "registerPosition(address)": {
        "notice": "Allows minters to register collateralized debt positions, thereby giving them the ability to mint Frankencoins."
      },
      "reserve()": {
        "notice": "The contract that holds the reserve."
      },
      "suggestMinter(address,uint256,uint256,string)": {
        "notice": "Publicly accessible method to suggest a new way of minting Frankencoin."
      }
    },
    "notice": "The Frankencoin (ZCHF) is an ERC-20 token that is designed to track the value of the Swiss franc. It is not upgradable, but open to arbitrary minting plugins. These are automatically accepted if none of the qualified pool share holders casts a veto, leading to a flexible but conservative governance.",
    "version": 1
  },
  "storageLayout": {
    "storage": [
      {
        "astId": 12206,
        "contract": "contracts/stablecoin/Frankencoin.sol:Frankencoin",
        "label": "_balances",
        "offset": 0,
        "slot": "0",
        "type": "t_mapping(t_address,t_uint256)"
      },
      {
        "astId": 12212,
        "contract": "contracts/stablecoin/Frankencoin.sol:Frankencoin",
        "label": "_allowances",
        "offset": 0,
        "slot": "1",
        "type": "t_mapping(t_address,t_mapping(t_address,t_uint256))"
      },
      {
        "astId": 12220,
        "contract": "contracts/stablecoin/Frankencoin.sol:Frankencoin",
        "label": "_totalSupply",
        "offset": 0,
        "slot": "2",
        "type": "t_uint256"
      },
      {
        "astId": 12604,
        "contract": "contracts/stablecoin/Frankencoin.sol:Frankencoin",
        "label": "nonces",
        "offset": 0,
        "slot": "3",
        "type": "t_mapping(t_address,t_uint256)"
      },
      {
        "astId": 18165,
        "contract": "contracts/stablecoin/Frankencoin.sol:Frankencoin",
        "label": "minterReserveE6",
        "offset": 0,
        "slot": "4",
        "type": "t_uint256"
      },
      {
        "astId": 18170,
        "contract": "contracts/stablecoin/Frankencoin.sol:Frankencoin",
        "label": "minters",
        "offset": 0,
        "slot": "5",
        "type": "t_mapping(t_address,t_uint256)"
      },
      {
        "astId": 18175,
        "contract": "contracts/stablecoin/Frankencoin.sol:Frankencoin",
        "label": "positions",
        "offset": 0,
        "slot": "6",
        "type": "t_mapping(t_address,t_address)"
      }
    ],
    "types": {
      "t_address": {
        "encoding": "inplace",
        "label": "address",
        "numberOfBytes": "20"
      },
      "t_mapping(t_address,t_address)": {
        "encoding": "mapping",
        "key": "t_address",
        "label": "mapping(address => address)",
        "numberOfBytes": "32",
        "value": "t_address"
      },
      "t_mapping(t_address,t_mapping(t_address,t_uint256))": {
        "encoding": "mapping",
        "key": "t_address",
        "label": "mapping(address => mapping(address => uint256))",
        "numberOfBytes": "32",
        "value": "t_mapping(t_address,t_uint256)"
      },
      "t_mapping(t_address,t_uint256)": {
        "encoding": "mapping",
        "key": "t_address",
        "label": "mapping(address => uint256)",
        "numberOfBytes": "32",
        "value": "t_uint256"
      },
      "t_uint256": {
        "encoding": "inplace",
        "label": "uint256",
        "numberOfBytes": "32"
      }
    }
  }
}