{
  "address": "0xa6B5a8dBeE81ADFC1144aD90332B36AC5Fcb8035",
  "abi": [
    {
      "inputs": [
        {
          "internalType": "contract Governance",
          "name": "_governance",
          "type": "address"
        },
        {
          "internalType": "contract IRouterClient",
          "name": "_router",
          "type": "address"
        }
      ],
      "stateMutability": "nonpayable",
      "type": "constructor"
    },
    {
      "inputs": [
        {
          "internalType": "uint256",
          "name": "available",
          "type": "uint256"
        },
        {
          "internalType": "uint256",
          "name": "required",
          "type": "uint256"
        }
      ],
      "name": "InsufficientBalance",
      "type": "error"
    },
    {
      "anonymous": false,
      "inputs": [
        {
          "indexed": true,
          "internalType": "bytes32",
          "name": "messageId",
          "type": "bytes32"
        },
        {
          "indexed": true,
          "internalType": "uint64",
          "name": "destinationChainSelector",
          "type": "uint64"
        },
        {
          "indexed": true,
          "internalType": "bytes",
          "name": "receiver",
          "type": "bytes"
        },
        {
          "indexed": false,
          "internalType": "address",
          "name": "feeToken",
          "type": "address"
        },
        {
          "indexed": false,
          "internalType": "uint256",
          "name": "fees",
          "type": "uint256"
        },
        {
          "indexed": false,
          "internalType": "address[]",
          "name": "syncedVoters",
          "type": "address[]"
        }
      ],
      "name": "MessageSent",
      "type": "event"
    },
    {
      "inputs": [],
      "name": "GOVERNANCE",
      "outputs": [
        {
          "internalType": "contract Governance",
          "name": "",
          "type": "address"
        }
      ],
      "stateMutability": "view",
      "type": "function"
    },
    {
      "inputs": [],
      "name": "ROUTER",
      "outputs": [
        {
          "internalType": "contract IRouterClient",
          "name": "",
          "type": "address"
        }
      ],
      "stateMutability": "view",
      "type": "function"
    },
    {
      "inputs": [
        {
          "internalType": "bytes",
          "name": "_receiver",
          "type": "bytes"
        },
        {
          "internalType": "uint64",
          "name": "_destinationChainSelector",
          "type": "uint64"
        },
        {
          "internalType": "address",
          "name": "_feeTokenAddress",
          "type": "address"
        },
        {
          "internalType": "address[]",
          "name": "_voters",
          "type": "address[]"
        },
        {
          "internalType": "bytes",
          "name": "_extraArgs",
          "type": "bytes"
        }
      ],
      "name": "getCCIPFee",
      "outputs": [
        {
          "internalType": "uint256",
          "name": "",
          "type": "uint256"
        }
      ],
      "stateMutability": "view",
      "type": "function"
    },
    {
      "inputs": [
        {
          "internalType": "bytes",
          "name": "_receiver",
          "type": "bytes"
        },
        {
          "internalType": "address",
          "name": "_feeTokenAddress",
          "type": "address"
        },
        {
          "internalType": "address[]",
          "name": "_voters",
          "type": "address[]"
        },
        {
          "internalType": "bytes",
          "name": "_extraArgs",
          "type": "bytes"
        }
      ],
      "name": "getCCIPMessage",
      "outputs": [
        {
          "components": [
            {
              "internalType": "bytes",
              "name": "receiver",
              "type": "bytes"
            },
            {
              "internalType": "bytes",
              "name": "data",
              "type": "bytes"
            },
            {
              "components": [
                {
                  "internalType": "address",
                  "name": "token",
                  "type": "address"
                },
                {
                  "internalType": "uint256",
                  "name": "amount",
                  "type": "uint256"
                }
              ],
              "internalType": "struct Client.EVMTokenAmount[]",
              "name": "tokenAmounts",
              "type": "tuple[]"
            },
            {
              "internalType": "address",
              "name": "feeToken",
              "type": "address"
            },
            {
              "internalType": "bytes",
              "name": "extraArgs",
              "type": "bytes"
            }
          ],
          "internalType": "struct Client.EVM2AnyMessage",
          "name": "",
          "type": "tuple"
        }
      ],
      "stateMutability": "view",
      "type": "function"
    },
    {
      "inputs": [
        {
          "internalType": "bytes",
          "name": "_receiver",
          "type": "bytes"
        },
        {
          "internalType": "uint64",
          "name": "_destinationChainSelector",
          "type": "uint64"
        },
        {
          "internalType": "address[]",
          "name": "_voters",
          "type": "address[]"
        },
        {
          "internalType": "bytes",
          "name": "_extraArgs",
          "type": "bytes"
        }
      ],
      "name": "syncVotesPayNative",
      "outputs": [
        {
          "internalType": "bytes32",
          "name": "messageId",
          "type": "bytes32"
        }
      ],
      "stateMutability": "payable",
      "type": "function"
    },
    {
      "inputs": [
        {
          "internalType": "bytes",
          "name": "_receiver",
          "type": "bytes"
        },
        {
          "internalType": "uint64",
          "name": "_destinationChainSelector",
          "type": "uint64"
        },
        {
          "internalType": "contract IERC20",
          "name": "_ccipFeeToken",
          "type": "address"
        },
        {
          "internalType": "address[]",
          "name": "_voters",
          "type": "address[]"
        },
        {
          "internalType": "bytes",
          "name": "_extraArgs",
          "type": "bytes"
        }
      ],
      "name": "syncVotesPayToken",
      "outputs": [
        {
          "internalType": "bytes32",
          "name": "messageId",
          "type": "bytes32"
        }
      ],
      "stateMutability": "nonpayable",
      "type": "function"
    }
  ],
  "transactionHash": "0x83f09e38158ad546d284a66bf76196921bcc7ae6623ac1056d9010e2dec48749",
  "args": [
    "0x3e94a9aB9fc662eA83e939c0BC801bE1C131853B",
    "0x0BF3dE8c5D3e8A2B34D2BEeB17ABfCeBaf363A59"
  ],
  "numDeployments": 1,
  "solcInputHash": "76d7a9ad677e8057d18143f24edcad6f",
  "bytecode": "0x60c060405234801561001057600080fd5b5060405161126638038061126683398101604081905261002f9161005e565b6001600160a01b039182166080521660a052610098565b6001600160a01b038116811461005b57600080fd5b50565b6000806040838503121561007157600080fd5b825161007c81610046565b602084015190925061008d81610046565b809150509250929050565b60805160a05161116c6100fa6000396000818160de015281816101860152818161025d0152818161068301528181610721015281816108d8015261096c015260008181609201528181610409015281816104cc01526105c2015261116c6000f3fe6080604052600436106100555760003560e01c806313ca84871461005a578063146278341461008057806332fe7b26146100cc578063334ff87f14610100578063c2969ced1461012d578063e18c59cb1461014d575b600080fd5b61006d610068366004610c60565b61016d565b6040519081526020015b60405180910390f35b34801561008c57600080fd5b506100b47f000000000000000000000000000000000000000000000000000000000000000081565b6040516001600160a01b039091168152602001610077565b3480156100d857600080fd5b506100b47f000000000000000000000000000000000000000000000000000000000000000081565b34801561010c57600080fd5b5061012061011b366004610d26565b61034b565b6040516100779190610e99565b34801561013957600080fd5b5061006d610148366004610eb3565b610657565b34801561015957600080fd5b5061006d610168366004610eb3565b610709565b600080610180898960008989898961034b565b905060007f00000000000000000000000000000000000000000000000000000000000000006001600160a01b03166320487ded89846040518363ffffffff1660e01b81526004016101d2929190610f75565b602060405180830381865afa1580156101ef573d6000803e3d6000fd5b505050506040513d601f19601f820116820180604052508101906102139190610fa0565b905047808211156102465760405163cf47918160e01b815260048101829052602481018390526044015b60405180910390fd5b6040516396f4e9f960e01b81526001600160a01b037f000000000000000000000000000000000000000000000000000000000000000016906396f4e9f9908490610296908d908890600401610f75565b60206040518083038185885af11580156102b4573d6000803e3d6000fd5b50505050506040513d601f19601f820116820180604052508101906102d99190610fa0565b93508a8a6040516102eb929190610fb9565b60405180910390208967ffffffffffffffff16857f62030e04ccd3b2bad6e4798b9ebd92d10d0548f0a357bb5ae088beb434dc57f46000868d8d6040516103359493929190610fc9565b60405180910390a4505050979650505050505050565b610353610b7d565b60008467ffffffffffffffff81111561036e5761036e61102c565b6040519080825280602002602001820160405280156103b957816020015b604080516060810182526000808252602080830182905292820152825260001990920191018161038c5790505b50905060005b858110156105b95760405180606001604052808888848181106103e4576103e4611042565b90506020020160208101906103f99190611058565b6001600160a01b031681526020017f00000000000000000000000000000000000000000000000000000000000000006001600160a01b031663d8bff5a58a8a8681811061044857610448611042565b905060200201602081019061045d9190611058565b6040516001600160e01b031960e084901b1681526001600160a01b039091166004820152602401602060405180830381865afa1580156104a1573d6000803e3d6000fd5b505050506040513d601f19601f820116820180604052508101906104c59190610fa0565b81526020017f00000000000000000000000000000000000000000000000000000000000000006001600160a01b031663587cde1e8a8a8681811061050b5761050b611042565b90506020020160208101906105209190611058565b6040516001600160e01b031960e084901b1681526001600160a01b039091166004820152602401602060405180830381865afa158015610564573d6000803e3d6000fd5b505050506040513d601f19601f820116820180604052508101906105889190611075565b6001600160a01b03168152508282815181106105a6576105a6611042565b60209081029190910101526001016103bf565b5061064a8989897f00000000000000000000000000000000000000000000000000000000000000006001600160a01b0316630d15fd776040518163ffffffff1660e01b8152600401602060405180830381865afa15801561061e573d6000803e3d6000fd5b505050506040513d601f19601f820116820180604052508101906106429190610fa0565b858989610a58565b9998505050505050505050565b6000806106698a8a898989898961034b565b6040516320487ded60e01b81529091506001600160a01b037f000000000000000000000000000000000000000000000000000000000000000016906320487ded906106ba908b908590600401610f75565b602060405180830381865afa1580156106d7573d6000803e3d6000fd5b505050506040513d601f19601f820116820180604052508101906106fb9190610fa0565b9a9950505050505050505050565b60008061071b8a8a898989898961034b565b905060007f00000000000000000000000000000000000000000000000000000000000000006001600160a01b03166320487ded8a846040518363ffffffff1660e01b815260040161076d929190610f75565b602060405180830381865afa15801561078a573d6000803e3d6000fd5b505050506040513d601f19601f820116820180604052508101906107ae9190610fa0565b6040516370a0823160e01b81523360048201529091506000906001600160a01b038a16906370a0823190602401602060405180830381865afa1580156107f8573d6000803e3d6000fd5b505050506040513d601f19601f8201168201806040525081019061081c9190610fa0565b9050808211156108495760405163cf47918160e01b8152600481018290526024810183905260440161023d565b6040516323b872dd60e01b8152336004820152306024820152604481018390526001600160a01b038a16906323b872dd906064016020604051808303816000875af115801561089c573d6000803e3d6000fd5b505050506040513d601f19601f820116820180604052508101906108c09190611092565b5060405163095ea7b360e01b81526001600160a01b037f000000000000000000000000000000000000000000000000000000000000000081166004830152602482018490528a169063095ea7b3906044016020604051808303816000875af1158015610930573d6000803e3d6000fd5b505050506040513d601f19601f820116820180604052508101906109549190611092565b506040516396f4e9f960e01b81526001600160a01b037f000000000000000000000000000000000000000000000000000000000000000016906396f4e9f9906109a3908d908790600401610f75565b6020604051808303816000875af11580156109c2573d6000803e3d6000fd5b505050506040513d601f19601f820116820180604052508101906109e69190610fa0565b93508b8b6040516109f8929190610fb9565b60405180910390208a67ffffffffffffffff16857f62030e04ccd3b2bad6e4798b9ebd92d10d0548f0a357bb5ae088beb434dc57f48c868d8d604051610a419493929190610fc9565b60405180910390a450505098975050505050505050565b610a60610b7d565b6040805180820182528581526020808201889052825160c0601f8c018390049092028101820190935260a083018a815291929182918c908c9081908501838280828437600092019190915250505090825250604051602091820191610ac7918591016110b4565b60408051601f1981840301815291905281526020016000604051908082528060200260200182016040528015610b2357816020015b6040805180820190915260008082526020820152815260200190600190039081610afc5790505b508152602001886001600160a01b0316815260200185858080601f01602080910402602001604051908101604052809392919081815260200183838082843760009201919091525050509152509998505050505050505050565b6040518060a0016040528060608152602001606081526020016060815260200160006001600160a01b03168152602001606081525090565b60008083601f840112610bc757600080fd5b50813567ffffffffffffffff811115610bdf57600080fd5b602083019150836020828501011115610bf757600080fd5b9250929050565b803567ffffffffffffffff81168114610c1657600080fd5b919050565b60008083601f840112610c2d57600080fd5b50813567ffffffffffffffff811115610c4557600080fd5b6020830191508360208260051b8501011115610bf757600080fd5b60008060008060008060006080888a031215610c7b57600080fd5b873567ffffffffffffffff80821115610c9357600080fd5b610c9f8b838c01610bb5565b9099509750879150610cb360208b01610bfe565b965060408a0135915080821115610cc957600080fd5b610cd58b838c01610c1b565b909650945060608a0135915080821115610cee57600080fd5b50610cfb8a828b01610bb5565b989b979a50959850939692959293505050565b6001600160a01b0381168114610d2357600080fd5b50565b60008060008060008060006080888a031215610d4157600080fd5b873567ffffffffffffffff80821115610d5957600080fd5b610d658b838c01610bb5565b909950975060208a01359150610d7a82610d0e565b90955060408901359080821115610cc957600080fd5b6000815180845260005b81811015610db657602081850181015186830182015201610d9a565b506000602082860101526020601f19601f83011685010191505092915050565b6000815160a08452610deb60a0850182610d90565b905060208084015185830382870152610e048382610d90565b60408681015188830389830152805180845290850195509092506000918401905b80831015610e5757855180516001600160a01b0316835285015185830152948401946001929092019190830190610e25565b5060608701519450610e7460608901866001600160a01b03169052565b608087015194508781036080890152610e8d8186610d90565b98975050505050505050565b602081526000610eac6020830184610dd6565b9392505050565b60008060008060008060008060a0898b031215610ecf57600080fd5b883567ffffffffffffffff80821115610ee757600080fd5b610ef38c838d01610bb5565b909a509850889150610f0760208c01610bfe565b975060408b01359150610f1982610d0e565b90955060608a01359080821115610f2f57600080fd5b610f3b8c838d01610c1b565b909650945060808b0135915080821115610f5457600080fd5b50610f618b828c01610bb5565b999c989b5096995094979396929594505050565b67ffffffffffffffff83168152604060208201526000610f986040830184610dd6565b949350505050565b600060208284031215610fb257600080fd5b5051919050565b8183823760009101908152919050565b6001600160a01b03858116825260208083018690526060604084018190528301849052600091859160808501845b8781101561101e57843561100a81610d0e565b841682529382019390820190600101610ff7565b509998505050505050505050565b634e487b7160e01b600052604160045260246000fd5b634e487b7160e01b600052603260045260246000fd5b60006020828403121561106a57600080fd5b8135610eac81610d0e565b60006020828403121561108757600080fd5b8151610eac81610d0e565b6000602082840312156110a457600080fd5b81518015158114610eac57600080fd5b6000602080835260608084018551604080858801528282518085526080890191508684019450600093505b8084101561111d57845180516001600160a01b03908116845288820151898501529084015116838301529386019360019390930192908501906110df565b508589015160408901528096505050505050509291505056fea26469706673582212205b9320f42ba05d63cd3a4adbb7bc59c95c86cde06ac4b7cbc2d21b2d6f942edd64736f6c63430008180033",
  "devdoc": {
    "kind": "dev",
    "methods": {
      "getCCIPFee(bytes,uint64,address,address[],bytes)": {
        "params": {
          "_destinationChainSelector": "The selector of the destination chain.",
          "_extraArgs": "Extra args for ccip message",
          "_feeTokenAddress": "The address of the fee token.",
          "_voters": "Collection of addresses which votes and delegation should be synced"
        },
        "returns": {
          "_0": "uint256 The fee required to send the CCIP message."
        }
      },
      "getCCIPMessage(bytes,address,address[],bytes)": {
        "details": "Gets the necessary information for voters from governance",
        "params": {
          "_extraArgs": "Extra args for ccip message",
          "_feeTokenAddress": "Token used to pay the ccip fees",
          "_receiver": "Address of the recipient on the destination chain",
          "_voters": "Collection of addresses which votes and delegation should be synced"
        },
        "returns": {
          "_0": "Client.EVM2AnyMessage The CCIP message to be sent"
        }
      },
      "syncVotesPayNative(bytes,uint64,address[],bytes)": {
        "details": "extraArgs for CCIP can be provided such as gasLimit or out-of-order execution",
        "params": {
          "_destinationChainSelector": "Chain selector of the destination chain",
          "_extraArgs": "Extra args for ccip message",
          "_receiver": "Address of the recipient on the destination chain",
          "_voters": "Collection of addresses which votes and delegation should be synced"
        },
        "returns": {
          "messageId": "bytes32 MessageID of the sent message"
        }
      },
      "syncVotesPayToken(bytes,uint64,address,address[],bytes)": {
        "details": "extraArgs for CCIP can be provided such as gasLimit or out-of-order execution",
        "params": {
          "_ccipFeeToken": "Token used to pay the ccip fees",
          "_destinationChainSelector": "Chain selector of the destination chain",
          "_extraArgs": "Extra args for ccip message",
          "_receiver": "Address of the recipient on the destination chain",
          "_voters": "Collection of addresses which votes and delegation should be synced"
        },
        "returns": {
          "messageId": "bytes32 MessageID of the sent message"
        }
      }
    },
    "version": 1
  },
  "userdoc": {
    "kind": "user",
    "methods": {
      "getCCIPFee(bytes,uint64,address,address[],bytes)": {
        "notice": "Get the fee required to send a CCIP message."
      },
      "getCCIPMessage(bytes,address,address[],bytes)": {
        "notice": "Gathers necessary information and builds the CCIP message to be sent"
      },
      "syncVotesPayNative(bytes,uint64,address[],bytes)": {
        "notice": "Sync governance votes to destination paying with native token"
      },
      "syncVotesPayToken(bytes,uint64,address,address[],bytes)": {
        "notice": "Sync governance votes to destination paying with ERC20 token"
      }
    },
    "version": 1
  },
  "storageLayout": {
    "storage": [],
    "types": null
  }
}