{
  "address": "0xE20d19b7eE2BADfa2FF4F30952e2bACE18436e22",
  "abi": [
    {
      "inputs": [
        {
          "internalType": "uint256",
          "name": "_minApplicationPeriod",
          "type": "uint256"
        }
      ],
      "stateMutability": "nonpayable",
      "type": "constructor"
    },
    {
      "inputs": [],
      "name": "AlreadyRegistered",
      "type": "error"
    },
    {
      "inputs": [],
      "name": "ECDSAInvalidSignature",
      "type": "error"
    },
    {
      "inputs": [
        {
          "internalType": "uint256",
          "name": "length",
          "type": "uint256"
        }
      ],
      "name": "ECDSAInvalidSignatureLength",
      "type": "error"
    },
    {
      "inputs": [
        {
          "internalType": "bytes32",
          "name": "s",
          "type": "bytes32"
        }
      ],
      "name": "ECDSAInvalidSignatureS",
      "type": "error"
    },
    {
      "inputs": [
        {
          "internalType": "address",
          "name": "spender",
          "type": "address"
        },
        {
          "internalType": "uint256",
          "name": "allowance",
          "type": "uint256"
        },
        {
          "internalType": "uint256",
          "name": "needed",
          "type": "uint256"
        }
      ],
      "name": "ERC20InsufficientAllowance",
      "type": "error"
    },
    {
      "inputs": [
        {
          "internalType": "address",
          "name": "sender",
          "type": "address"
        },
        {
          "internalType": "uint256",
          "name": "balance",
          "type": "uint256"
        },
        {
          "internalType": "uint256",
          "name": "needed",
          "type": "uint256"
        }
      ],
      "name": "ERC20InsufficientBalance",
      "type": "error"
    },
    {
      "inputs": [
        {
          "internalType": "address",
          "name": "approver",
          "type": "address"
        }
      ],
      "name": "ERC20InvalidApprover",
      "type": "error"
    },
    {
      "inputs": [
        {
          "internalType": "address",
          "name": "receiver",
          "type": "address"
        }
      ],
      "name": "ERC20InvalidReceiver",
      "type": "error"
    },
    {
      "inputs": [
        {
          "internalType": "address",
          "name": "sender",
          "type": "address"
        }
      ],
      "name": "ERC20InvalidSender",
      "type": "error"
    },
    {
      "inputs": [
        {
          "internalType": "address",
          "name": "spender",
          "type": "address"
        }
      ],
      "name": "ERC20InvalidSpender",
      "type": "error"
    },
    {
      "inputs": [
        {
          "internalType": "uint256",
          "name": "deadline",
          "type": "uint256"
        }
      ],
      "name": "ERC2612ExpiredSignature",
      "type": "error"
    },
    {
      "inputs": [
        {
          "internalType": "address",
          "name": "signer",
          "type": "address"
        },
        {
          "internalType": "address",
          "name": "owner",
          "type": "address"
        }
      ],
      "name": "ERC2612InvalidSigner",
      "type": "error"
    },
    {
      "inputs": [],
      "name": "FeeTooLow",
      "type": "error"
    },
    {
      "inputs": [
        {
          "internalType": "address",
          "name": "account",
          "type": "address"
        },
        {
          "internalType": "uint256",
          "name": "currentNonce",
          "type": "uint256"
        }
      ],
      "name": "InvalidAccountNonce",
      "type": "error"
    },
    {
      "inputs": [],
      "name": "InvalidShortString",
      "type": "error"
    },
    {
      "inputs": [],
      "name": "NotMinter",
      "type": "error"
    },
    {
      "inputs": [],
      "name": "PeriodTooShort",
      "type": "error"
    },
    {
      "inputs": [
        {
          "internalType": "string",
          "name": "str",
          "type": "string"
        }
      ],
      "name": "StringTooLong",
      "type": "error"
    },
    {
      "inputs": [],
      "name": "TooLate",
      "type": "error"
    },
    {
      "anonymous": false,
      "inputs": [
        {
          "indexed": true,
          "internalType": "address",
          "name": "owner",
          "type": "address"
        },
        {
          "indexed": true,
          "internalType": "address",
          "name": "spender",
          "type": "address"
        },
        {
          "indexed": false,
          "internalType": "uint256",
          "name": "value",
          "type": "uint256"
        }
      ],
      "name": "Approval",
      "type": "event"
    },
    {
      "anonymous": false,
      "inputs": [],
      "name": "EIP712DomainChanged",
      "type": "event"
    },
    {
      "anonymous": false,
      "inputs": [
        {
          "indexed": true,
          "internalType": "address",
          "name": "reportingMinter",
          "type": "address"
        },
        {
          "indexed": false,
          "internalType": "uint256",
          "name": "amount",
          "type": "uint256"
        }
      ],
      "name": "Loss",
      "type": "event"
    },
    {
      "anonymous": false,
      "inputs": [
        {
          "indexed": true,
          "internalType": "address",
          "name": "minter",
          "type": "address"
        },
        {
          "indexed": false,
          "internalType": "uint256",
          "name": "applicationPeriod",
          "type": "uint256"
        },
        {
          "indexed": false,
          "internalType": "uint256",
          "name": "applicationFee",
          "type": "uint256"
        },
        {
          "indexed": false,
          "internalType": "string",
          "name": "message",
          "type": "string"
        }
      ],
      "name": "MinterApplied",
      "type": "event"
    },
    {
      "anonymous": false,
      "inputs": [
        {
          "indexed": true,
          "internalType": "address",
          "name": "minter",
          "type": "address"
        },
        {
          "indexed": false,
          "internalType": "string",
          "name": "message",
          "type": "string"
        }
      ],
      "name": "MinterDenied",
      "type": "event"
    },
    {
      "anonymous": false,
      "inputs": [
        {
          "indexed": true,
          "internalType": "address",
          "name": "reportingMinter",
          "type": "address"
        },
        {
          "indexed": false,
          "internalType": "uint256",
          "name": "amount",
          "type": "uint256"
        }
      ],
      "name": "Profit",
      "type": "event"
    },
    {
      "anonymous": false,
      "inputs": [
        {
          "indexed": true,
          "internalType": "address",
          "name": "from",
          "type": "address"
        },
        {
          "indexed": true,
          "internalType": "address",
          "name": "to",
          "type": "address"
        },
        {
          "indexed": false,
          "internalType": "uint256",
          "name": "value",
          "type": "uint256"
        }
      ],
      "name": "Transfer",
      "type": "event"
    },
    {
      "inputs": [],
      "name": "DOMAIN_SEPARATOR",
      "outputs": [
        {
          "internalType": "bytes32",
          "name": "",
          "type": "bytes32"
        }
      ],
      "stateMutability": "view",
      "type": "function"
    },
    {
      "inputs": [],
      "name": "MIN_APPLICATION_PERIOD",
      "outputs": [
        {
          "internalType": "uint256",
          "name": "",
          "type": "uint256"
        }
      ],
      "stateMutability": "view",
      "type": "function"
    },
    {
      "inputs": [],
      "name": "MIN_FEE",
      "outputs": [
        {
          "internalType": "uint256",
          "name": "",
          "type": "uint256"
        }
      ],
      "stateMutability": "view",
      "type": "function"
    },
    {
      "inputs": [
        {
          "internalType": "address",
          "name": "owner",
          "type": "address"
        },
        {
          "internalType": "address",
          "name": "spender",
          "type": "address"
        }
      ],
      "name": "allowance",
      "outputs": [
        {
          "internalType": "uint256",
          "name": "",
          "type": "uint256"
        }
      ],
      "stateMutability": "view",
      "type": "function"
    },
    {
      "inputs": [
        {
          "internalType": "address",
          "name": "spender",
          "type": "address"
        },
        {
          "internalType": "uint256",
          "name": "value",
          "type": "uint256"
        }
      ],
      "name": "approve",
      "outputs": [
        {
          "internalType": "bool",
          "name": "",
          "type": "bool"
        }
      ],
      "stateMutability": "nonpayable",
      "type": "function"
    },
    {
      "inputs": [
        {
          "internalType": "address",
          "name": "account",
          "type": "address"
        }
      ],
      "name": "balanceOf",
      "outputs": [
        {
          "internalType": "uint256",
          "name": "",
          "type": "uint256"
        }
      ],
      "stateMutability": "view",
      "type": "function"
    },
    {
      "inputs": [
        {
          "internalType": "uint256",
          "name": "_amount",
          "type": "uint256"
        }
      ],
      "name": "burn",
      "outputs": [],
      "stateMutability": "nonpayable",
      "type": "function"
    },
    {
      "inputs": [
        {
          "internalType": "address",
          "name": "_owner",
          "type": "address"
        },
        {
          "internalType": "uint256",
          "name": "_amount",
          "type": "uint256"
        }
      ],
      "name": "burnFrom",
      "outputs": [],
      "stateMutability": "nonpayable",
      "type": "function"
    },
    {
      "inputs": [
        {
          "internalType": "address",
          "name": "payer",
          "type": "address"
        },
        {
          "internalType": "uint256",
          "name": "targetTotalBurnAmount",
          "type": "uint256"
        },
        {
          "internalType": "uint32",
          "name": "reservePPM",
          "type": "uint32"
        }
      ],
      "name": "burnFromWithReserve",
      "outputs": [
        {
          "internalType": "uint256",
          "name": "",
          "type": "uint256"
        }
      ],
      "stateMutability": "nonpayable",
      "type": "function"
    },
    {
      "inputs": [
        {
          "internalType": "uint256",
          "name": "_amountExcludingReserve",
          "type": "uint256"
        },
        {
          "internalType": "uint32",
          "name": "_reservePPM",
          "type": "uint32"
        }
      ],
      "name": "burnWithReserve",
      "outputs": [
        {
          "internalType": "uint256",
          "name": "",
          "type": "uint256"
        }
      ],
      "stateMutability": "nonpayable",
      "type": "function"
    },
    {
      "inputs": [
        {
          "internalType": "uint256",
          "name": "amount",
          "type": "uint256"
        },
        {
          "internalType": "uint32",
          "name": "reservePPM",
          "type": "uint32"
        }
      ],
      "name": "burnWithoutReserve",
      "outputs": [],
      "stateMutability": "nonpayable",
      "type": "function"
    },
    {
      "inputs": [
        {
          "internalType": "uint256",
          "name": "mintedAmount",
          "type": "uint256"
        },
        {
          "internalType": "uint32",
          "name": "_reservePPM",
          "type": "uint32"
        }
      ],
      "name": "calculateAssignedReserve",
      "outputs": [
        {
          "internalType": "uint256",
          "name": "",
          "type": "uint256"
        }
      ],
      "stateMutability": "view",
      "type": "function"
    },
    {
      "inputs": [
        {
          "internalType": "uint256",
          "name": "amountExcludingReserve",
          "type": "uint256"
        },
        {
          "internalType": "uint32",
          "name": "reservePPM",
          "type": "uint32"
        }
      ],
      "name": "calculateFreedAmount",
      "outputs": [
        {
          "internalType": "uint256",
          "name": "",
          "type": "uint256"
        }
      ],
      "stateMutability": "view",
      "type": "function"
    },
    {
      "inputs": [
        {
          "internalType": "address",
          "name": "source",
          "type": "address"
        },
        {
          "internalType": "uint256",
          "name": "_amount",
          "type": "uint256"
        }
      ],
      "name": "collectProfits",
      "outputs": [],
      "stateMutability": "nonpayable",
      "type": "function"
    },
    {
      "inputs": [
        {
          "internalType": "address",
          "name": "source",
          "type": "address"
        },
        {
          "internalType": "uint256",
          "name": "_amount",
          "type": "uint256"
        }
      ],
      "name": "coverLoss",
      "outputs": [],
      "stateMutability": "nonpayable",
      "type": "function"
    },
    {
      "inputs": [],
      "name": "decimals",
      "outputs": [
        {
          "internalType": "uint8",
          "name": "",
          "type": "uint8"
        }
      ],
      "stateMutability": "view",
      "type": "function"
    },
    {
      "inputs": [
        {
          "internalType": "address",
          "name": "_minter",
          "type": "address"
        },
        {
          "internalType": "address[]",
          "name": "_helpers",
          "type": "address[]"
        },
        {
          "internalType": "string",
          "name": "_message",
          "type": "string"
        }
      ],
      "name": "denyMinter",
      "outputs": [],
      "stateMutability": "nonpayable",
      "type": "function"
    },
    {
      "inputs": [],
      "name": "eip712Domain",
      "outputs": [
        {
          "internalType": "bytes1",
          "name": "fields",
          "type": "bytes1"
        },
        {
          "internalType": "string",
          "name": "name",
          "type": "string"
        },
        {
          "internalType": "string",
          "name": "version",
          "type": "string"
        },
        {
          "internalType": "uint256",
          "name": "chainId",
          "type": "uint256"
        },
        {
          "internalType": "address",
          "name": "verifyingContract",
          "type": "address"
        },
        {
          "internalType": "bytes32",
          "name": "salt",
          "type": "bytes32"
        },
        {
          "internalType": "uint256[]",
          "name": "extensions",
          "type": "uint256[]"
        }
      ],
      "stateMutability": "view",
      "type": "function"
    },
    {
      "inputs": [],
      "name": "equity",
      "outputs": [
        {
          "internalType": "uint256",
          "name": "",
          "type": "uint256"
        }
      ],
      "stateMutability": "view",
      "type": "function"
    },
    {
      "inputs": [
        {
          "internalType": "address",
          "name": "_position",
          "type": "address"
        }
      ],
      "name": "getPositionParent",
      "outputs": [
        {
          "internalType": "address",
          "name": "",
          "type": "address"
        }
      ],
      "stateMutability": "view",
      "type": "function"
    },
    {
      "inputs": [
        {
          "internalType": "address",
          "name": "_minter",
          "type": "address"
        },
        {
          "internalType": "string",
          "name": "_message",
          "type": "string"
        }
      ],
      "name": "initialize",
      "outputs": [],
      "stateMutability": "nonpayable",
      "type": "function"
    },
    {
      "inputs": [
        {
          "internalType": "address",
          "name": "_minter",
          "type": "address"
        }
      ],
      "name": "isMinter",
      "outputs": [
        {
          "internalType": "bool",
          "name": "",
          "type": "bool"
        }
      ],
      "stateMutability": "view",
      "type": "function"
    },
    {
      "inputs": [
        {
          "internalType": "address",
          "name": "_target",
          "type": "address"
        },
        {
          "internalType": "uint256",
          "name": "_amount",
          "type": "uint256"
        }
      ],
      "name": "mint",
      "outputs": [],
      "stateMutability": "nonpayable",
      "type": "function"
    },
    {
      "inputs": [
        {
          "internalType": "address",
          "name": "_target",
          "type": "address"
        },
        {
          "internalType": "uint256",
          "name": "_amount",
          "type": "uint256"
        },
        {
          "internalType": "uint32",
          "name": "_reservePPM",
          "type": "uint32"
        },
        {
          "internalType": "uint32",
          "name": "_feesPPM",
          "type": "uint32"
        }
      ],
      "name": "mintWithReserve",
      "outputs": [],
      "stateMutability": "nonpayable",
      "type": "function"
    },
    {
      "inputs": [],
      "name": "minterReserve",
      "outputs": [
        {
          "internalType": "uint256",
          "name": "",
          "type": "uint256"
        }
      ],
      "stateMutability": "view",
      "type": "function"
    },
    {
      "inputs": [
        {
          "internalType": "address",
          "name": "minter",
          "type": "address"
        }
      ],
      "name": "minters",
      "outputs": [
        {
          "internalType": "uint256",
          "name": "validityStart",
          "type": "uint256"
        }
      ],
      "stateMutability": "view",
      "type": "function"
    },
    {
      "inputs": [],
      "name": "name",
      "outputs": [
        {
          "internalType": "string",
          "name": "",
          "type": "string"
        }
      ],
      "stateMutability": "view",
      "type": "function"
    },
    {
      "inputs": [
        {
          "internalType": "address",
          "name": "owner",
          "type": "address"
        }
      ],
      "name": "nonces",
      "outputs": [
        {
          "internalType": "uint256",
          "name": "",
          "type": "uint256"
        }
      ],
      "stateMutability": "view",
      "type": "function"
    },
    {
      "inputs": [
        {
          "internalType": "address",
          "name": "owner",
          "type": "address"
        },
        {
          "internalType": "address",
          "name": "spender",
          "type": "address"
        },
        {
          "internalType": "uint256",
          "name": "value",
          "type": "uint256"
        },
        {
          "internalType": "uint256",
          "name": "deadline",
          "type": "uint256"
        },
        {
          "internalType": "uint8",
          "name": "v",
          "type": "uint8"
        },
        {
          "internalType": "bytes32",
          "name": "r",
          "type": "bytes32"
        },
        {
          "internalType": "bytes32",
          "name": "s",
          "type": "bytes32"
        }
      ],
      "name": "permit",
      "outputs": [],
      "stateMutability": "nonpayable",
      "type": "function"
    },
    {
      "inputs": [
        {
          "internalType": "address",
          "name": "position",
          "type": "address"
        }
      ],
      "name": "positions",
      "outputs": [
        {
          "internalType": "address",
          "name": "registeringMinter",
          "type": "address"
        }
      ],
      "stateMutability": "view",
      "type": "function"
    },
    {
      "inputs": [
        {
          "internalType": "address",
          "name": "_position",
          "type": "address"
        }
      ],
      "name": "registerPosition",
      "outputs": [],
      "stateMutability": "nonpayable",
      "type": "function"
    },
    {
      "inputs": [],
      "name": "reserve",
      "outputs": [
        {
          "internalType": "contract IReserve",
          "name": "",
          "type": "address"
        }
      ],
      "stateMutability": "view",
      "type": "function"
    },
    {
      "inputs": [
        {
          "internalType": "address",
          "name": "_minter",
          "type": "address"
        },
        {
          "internalType": "uint256",
          "name": "_applicationPeriod",
          "type": "uint256"
        },
        {
          "internalType": "uint256",
          "name": "_applicationFee",
          "type": "uint256"
        },
        {
          "internalType": "string",
          "name": "_message",
          "type": "string"
        }
      ],
      "name": "suggestMinter",
      "outputs": [],
      "stateMutability": "nonpayable",
      "type": "function"
    },
    {
      "inputs": [
        {
          "internalType": "bytes4",
          "name": "interfaceId",
          "type": "bytes4"
        }
      ],
      "name": "supportsInterface",
      "outputs": [
        {
          "internalType": "bool",
          "name": "",
          "type": "bool"
        }
      ],
      "stateMutability": "view",
      "type": "function"
    },
    {
      "inputs": [],
      "name": "symbol",
      "outputs": [
        {
          "internalType": "string",
          "name": "",
          "type": "string"
        }
      ],
      "stateMutability": "view",
      "type": "function"
    },
    {
      "inputs": [],
      "name": "totalSupply",
      "outputs": [
        {
          "internalType": "uint256",
          "name": "",
          "type": "uint256"
        }
      ],
      "stateMutability": "view",
      "type": "function"
    },
    {
      "inputs": [
        {
          "internalType": "address",
          "name": "to",
          "type": "address"
        },
        {
          "internalType": "uint256",
          "name": "value",
          "type": "uint256"
        }
      ],
      "name": "transfer",
      "outputs": [
        {
          "internalType": "bool",
          "name": "",
          "type": "bool"
        }
      ],
      "stateMutability": "nonpayable",
      "type": "function"
    },
    {
      "inputs": [
        {
          "internalType": "address",
          "name": "from",
          "type": "address"
        },
        {
          "internalType": "address",
          "name": "to",
          "type": "address"
        },
        {
          "internalType": "uint256",
          "name": "value",
          "type": "uint256"
        }
      ],
      "name": "transferFrom",
      "outputs": [
        {
          "internalType": "bool",
          "name": "",
          "type": "bool"
        }
      ],
      "stateMutability": "nonpayable",
      "type": "function"
    }
  ],
  "transactionHash": "0x87842fddbf4dfa1179011a013cfe17061dd3c096002c0166fd5c5356185281a6",
  "args": [
    900
  ],
  "numDeployments": 1,
  "solcInputHash": "a5d904776755a405eccedd0612080016",
  "bytecode": "0x6101a06040523480156200001257600080fd5b50604051620055833803806200558383398101604081905262000035916200028a565b60405180604001604052806011815260200170446563656e7472616c697a65644555524f60781b81525080604051806040016040528060018152602001603160f81b81525060405180604001604052806011815260200170446563656e7472616c697a65644555524f60781b81525060405180604001604052806005815260200164644555524f60d81b8152508160039081620000d3919062000349565b506004620000e2828262000349565b50620000f491508390506005620001f7565b6101205262000105816006620001f7565b61014052815160208084019190912060e052815190820120610100524660a0526200019360e05161010051604080517f8b73c3c69bb8fe3d512ecc4cf759cc79239f7b179b0ffacaa9a75d522b39400f60208201529081019290925260608201524660808201523060a082015260009060c00160405160208183030381529060405280519060200120905090565b60805250503060c0819052610160839052604051909150620001b5906200027c565b6001600160a01b039091168152602001604051809103906000f080158015620001e2573d6000803e3d6000fd5b506001600160a01b031661018052506200048a565b600060208351101562000217576200020f8362000230565b90506200022a565b8162000224848262000349565b5060ff90505b92915050565b600080829050601f8151111562000267578260405163305a27a960e01b81526004016200025e919062000415565b60405180910390fd5b8051620002748262000465565b179392505050565b612c6f806200291483390190565b6000602082840312156200029d57600080fd5b5051919050565b634e487b7160e01b600052604160045260246000fd5b600181811c90821680620002cf57607f821691505b602082108103620002f057634e487b7160e01b600052602260045260246000fd5b50919050565b601f8211156200034457600081815260208120601f850160051c810160208610156200031f5750805b601f850160051c820191505b8181101562000340578281556001016200032b565b5050505b505050565b81516001600160401b03811115620003655762000365620002a4565b6200037d81620003768454620002ba565b84620002f6565b602080601f831160018114620003b557600084156200039c5750858301515b600019600386901b1c1916600185901b17855562000340565b600085815260208120601f198616915b82811015620003e657888601518255948401946001909101908401620003c5565b5085821015620004055787850151600019600388901b60f8161c191681555b5050505050600190811b01905550565b600060208083528351808285015260005b81811015620004445785810183015185820160400152820162000426565b506000604082860101526040601f19601f8301168501019250505092915050565b80516020808301519190811015620002f05760001960209190910360031b1b16919050565b60805160a05160c05160e05161010051610120516101405161016051610180516123b76200055d600039600081816104d0015281816106b2015281816107b801528181610a0601528181610af201528181610bad01528181610cf20152818161103c0152818161107f015281816110af015281816112e001528181611341015281816113e901526117310152600081816102b50152610edf015260006117b301526000611786015260006116a40152600061167c015260006115d7015260006116010152600061162b01526123b76000f3fe608060405234801561001057600080fd5b50600436106102325760003560e01c806384b0196e11610130578063c7641866116100b8578063d505accf1161007c578063d505accf14610520578063dd62ed3e14610533578063e093c8a414610546578063f399e22e14610559578063f46eccc41461056c57600080fd5b8063c7641866146104b8578063cd3293de146104cb578063d1a15ff1146104f2578063d1fa5e9814610505578063d38bb0091461051857600080fd5b8063a47d75ad116100ff578063a47d75ad14610440578063a9059cbb14610453578063aa271e1a14610466578063aa5dd7f114610479578063b52c696d146104a557600080fd5b806384b0196e1461040257806391a0ac6a1461041d57806395d89b41146104255780639b404da61461042d57600080fd5b80633644e515116101be57806370a082311161018257806370a082311461039057806376c7a3c7146103b957806379cc6790146103c95780637ecebe00146103dc5780638112eb2b146103ef57600080fd5b80633644e5151461030c57806340c10f191461031457806342966c681461032957806355f575101461033c5780636ebdb8ee1461037d57600080fd5b806318160ddd1161020557806318160ddd146102a85780631a46c7e9146102b057806323b872dd146102d7578063313ce567146102ea578063315f3e72146102f957600080fd5b806301ffc9a71461023757806306fdde031461025f578063095ea7b31461027457806316e0e53814610287575b600080fd5b61024a610245366004611ccd565b61058c565b60405190151581526020015b60405180910390f35b6102676105de565b6040516102569190611d3d565b61024a610282366004611d6c565b610670565b61029a610295366004611daa565b610688565b604051908152602001610256565b60025461029a565b61029a7f000000000000000000000000000000000000000000000000000000000000000081565b61024a6102e5366004611dd6565b61072c565b60405160128152602001610256565b61029a610307366004611e12565b610750565b61029a610817565b610327610322366004611d6c565b610826565b005b610327610337366004611e4e565b610887565b61036561034a366004611e67565b600a602052600090815260409020546001600160a01b031681565b6040516001600160a01b039091168152602001610256565b61032761038b366004611d6c565b610894565b61029a61039e366004611e67565b6001600160a01b031660009081526020819052604090205490565b61029a683635c9adc5dea0000081565b6103276103d7366004611d6c565b6108f2565b61029a6103ea366004611e67565b61094f565b6103276103fd366004611e82565b61096d565b61040a610aa2565b6040516102569796959493929190611ecf565b61029a610ae8565b610267610b4e565b61032761043b366004611fae565b610b5d565b61029a61044e366004611daa565b610c63565b61024a610461366004611d6c565b610d32565b61024a610474366004611e67565b610d40565b610365610487366004611e67565b6001600160a01b039081166000908152600a60205260409020541690565b6103276104b3366004611e67565b610d81565b6103276104c6366004611daa565b610dd0565b6103657f000000000000000000000000000000000000000000000000000000000000000081565b610327610500366004612060565b610edd565b610327610513366004611d6c565b610fe7565b61029a61111e565b61032761052e3660046120b7565b611131565b61029a61054136600461212a565b611270565b61029a610554366004611daa565b611337565b610327610567366004612154565b6113dc565b61029a61057a366004611e67565b60096020526000908152604090205481565b60006001600160e01b031982166336372b0760e01b14806105bd57506001600160e01b03198216634ec7fbed60e11b145b806105d857506301ffc9a760e01b6001600160e01b03198316145b92915050565b6060600380546105ed906121a7565b80601f0160208091040260200160405190810160405280929190818152602001828054610619906121a7565b80156106665780601f1061063b57610100808354040283529160200191610666565b820191906000526020600020905b81548152906001019060200180831161064957829003601f168201915b5050505050905090565b60003361067e8185856114c2565b5060019392505050565b600080620f424061069f8563ffffffff86166121f7565b6106a9919061220e565b905060006106ec7f00000000000000000000000000000000000000000000000000000000000000006001600160a01b031660009081526020819052604090205490565b905060006106f861111e565b905080821015610721578061070d83856121f7565b610717919061220e565b93505050506105d8565b8293505050506105d8565b60003361073a8582856114cf565b610745858585611535565b506001949350505050565b600061075b33610d40565b1580156107875750336000908152600a6020526040902054610785906001600160a01b0316610d40565b155b156107a557604051633e34a41b60e21b815260040160405180910390fd5b60006107b18484610688565b90506107de7f00000000000000000000000000000000000000000000000000000000000000008683611535565b6107e88585611594565b6107f863ffffffff8416856121f7565b600860008282546108099190612230565b909155509095945050505050565b60006108216115ca565b905090565b61082f33610d40565b15801561085b5750336000908152600a6020526040902054610859906001600160a01b0316610d40565b155b1561087957604051633e34a41b60e21b815260040160405180910390fd5b61088382826116f5565b5050565b6108913382611594565b50565b61089d33610d40565b1580156108c95750336000908152600a60205260409020546108c7906001600160a01b0316610d40565b155b156108e757604051633e34a41b60e21b815260040160405180910390fd5b61088333838361172b565b6108fb33610d40565b1580156109275750336000908152600a6020526040902054610925906001600160a01b0316610d40565b155b1561094557604051633e34a41b60e21b815260040160405180910390fd5b6108838282611594565b6001600160a01b0381166000908152600760205260408120546105d8565b61097633610d40565b1580156109a25750336000908152600a60205260409020546109a0906001600160a01b0316610d40565b155b156109c057604051633e34a41b60e21b815260040160405180910390fd5b6000620f4240836109d18483612243565b6109db9190612243565b6109eb9063ffffffff16866121f7565b6109f5919061220e565b9050610a0185826116f5565b610a347f0000000000000000000000000000000000000000000000000000000000000000610a2f8387612230565b6116f5565b610a4463ffffffff8416856121f7565b60086000828254610a559190612260565b90915550339050600080516020612362833981519152620f4240610a7f8763ffffffff87166121f7565b610a89919061220e565b6040519081526020015b60405180910390a25050505050565b600060608060008060006060610ab661177f565b610abe6117ac565b60408051600080825260208201909252600f60f81b9b939a50919850469750309650945092509050565b6001600160a01b037f0000000000000000000000000000000000000000000000000000000000000000166000908152602081905260408120546000610b2b61111e565b9050808211610b3d5760009250505090565b610b478183612230565b9250505090565b6060600480546105ed906121a7565b6001600160a01b038516600090815260096020526040902054421115610b965760405163ecdd1c2960e01b815260040160405180910390fd5b60405163352e3a8360e01b81526001600160a01b037f0000000000000000000000000000000000000000000000000000000000000000169063352e3a8390610be690339088908890600401612273565b60006040518083038186803b158015610bfe57600080fd5b505afa158015610c12573d6000803e3d6000fd5b505050506001600160a01b03851660008181526009602052604080822091909155517fd60c86e83346fdbe3124cb7d1cba32973a9f62d05c4ec801bfe6c09d1038038190610a9390859085906122f6565b6000610c6e33610d40565b158015610c9a5750336000908152600a6020526040902054610c98906001600160a01b0316610d40565b155b15610cb857604051633e34a41b60e21b815260040160405180910390fd5b6000610cc48484611337565b9050610cd663ffffffff8416826121f7565b60086000828254610ce79190612230565b90915550610d2190507f000000000000000000000000000000000000000000000000000000000000000033610d1c8785612230565b611535565b610d2b3382611594565b9392505050565b60003361067e818585611535565b6001600160a01b038116600090815260096020526040812054158015906105d85750506001600160a01b031660009081526009602052604090205442101590565b610d8a33610d40565b610da757604051633e34a41b60e21b815260040160405180910390fd5b6001600160a01b03166000908152600a6020526040902080546001600160a01b03191633179055565b610dd933610d40565b158015610e055750336000908152600a6020526040902054610e03906001600160a01b0316610d40565b155b15610e2357604051633e34a41b60e21b815260040160405180910390fd5b610e2d3383611594565b6000610e3f63ffffffff8316846121f7565b9050600854811115610e9057336001600160a01b0316600080516020612362833981519152620f4240600854610e75919061220e565b60405190815260200160405180910390a26000600855505050565b8060086000828254610ea29190612230565b90915550339050600080516020612362833981519152610ec5620f42408461220e565b6040519081526020015b60405180910390a25b505050565b7f0000000000000000000000000000000000000000000000000000000000000000841015610f1e57604051631260d0af60e31b815260040160405180910390fd5b683635c9adc5dea00000831015610f485760405163732f941360e01b815260040160405180910390fd5b6001600160a01b03851660009081526009602052604090205415610f7f57604051630ea075bf60e21b815260040160405180910390fd5b610f8a30338561172b565b610f948442612260565b6001600160a01b038616600081815260096020526040908190209290925590517f97326258efdae63280617ca33884e507791c2abeed7b82acd77f1853394ef94b90610a93908790879087908790612312565b610ff033610d40565b15801561101c5750336000908152600a602052604090205461101a906001600160a01b0316610d40565b155b1561103a57604051633e34a41b60e21b815260040160405180910390fd5b7f00000000000000000000000000000000000000000000000000000000000000006001600160a01b03166000908152602081905260409020548181106110aa576110a57f00000000000000000000000000000000000000000000000000000000000000008484611535565b6110e3565b6110d57f00000000000000000000000000000000000000000000000000000000000000008483611535565b6110e383610a2f8385612230565b826001600160a01b03167f72fba0ba07d937c660a3130fca36005c0e476cb97b6f00de413976e37eba950183604051610ecf91815260200190565b6000620f4240600854610821919061220e565b8342111561115a5760405163313c898160e11b8152600481018590526024015b60405180910390fd5b60007f6e71edae12b1b97f4d1f60370fef10105fa2faae0126114a169c64845d6126c98888886111a78c6001600160a01b0316600090815260076020526040902080546001810190915590565b6040805160208101969096526001600160a01b0394851690860152929091166060840152608083015260a082015260c0810186905260e0016040516020818303038152906040528051906020012090506000611202826117d9565b9050600061121282878787611806565b9050896001600160a01b0316816001600160a01b031614611259576040516325c0072360e11b81526001600160a01b0380831660048301528b166024820152604401611151565b6112648a8a8a6114c2565b50505050505050505050565b6001600160a01b03808316600090815260016020908152604080832093851683529290529081205480156112a55790506105d8565b6112ae83610d40565b806112d857506001600160a01b038084166000908152600a60205260409020546112d89116610d40565b8061131457507f00000000000000000000000000000000000000000000000000000000000000006001600160a01b0316836001600160a01b0316145b1561132657600160ff1b9150506105d8565b60009150506105d8565b5092915050565b6001600160a01b037f000000000000000000000000000000000000000000000000000000000000000016600090815260208190526040812054600061137a61111e565b90506000818310611391578463ffffffff166113ac565b816113a28463ffffffff88166121f7565b6113ac919061220e565b90506113bb81620f4240612230565b6113c887620f42406121f7565b6113d2919061220e565b9695505050505050565b60025415801561146b57507f00000000000000000000000000000000000000000000000000000000000000006001600160a01b03166318160ddd6040518163ffffffff1660e01b8152600401602060405180830381865afa158015611445573d6000803e3d6000fd5b505050506040513d601f19601f820116820180604052508101906114699190612332565b155b61147457600080fd5b6001600160a01b038316600081815260096020526040808220429055517f97326258efdae63280617ca33884e507791c2abeed7b82acd77f1853394ef94b91610ecf91819087908790612312565b610ed88383836001611834565b60006114db8484611270565b9050600019811461152f578181101561152057604051637dc7a0d960e11b81526001600160a01b03841660048201526024810182905260448101839052606401611151565b61152f84848484036000611834565b50505050565b6001600160a01b03831661155f57604051634b637e8f60e11b815260006004820152602401611151565b6001600160a01b0382166115895760405163ec442f0560e01b815260006004820152602401611151565b610ed8838383611909565b6001600160a01b0382166115be57604051634b637e8f60e11b815260006004820152602401611151565b61088382600083611909565b6000306001600160a01b037f00000000000000000000000000000000000000000000000000000000000000001614801561162357507f000000000000000000000000000000000000000000000000000000000000000046145b1561164d57507f000000000000000000000000000000000000000000000000000000000000000090565b610821604080517f8b73c3c69bb8fe3d512ecc4cf759cc79239f7b179b0ffacaa9a75d522b39400f60208201527f0000000000000000000000000000000000000000000000000000000000000000918101919091527f000000000000000000000000000000000000000000000000000000000000000060608201524660808201523060a082015260009060c00160405160208183030381529060405280519060200120905090565b6001600160a01b03821661171f5760405163ec442f0560e01b815260006004820152602401611151565b61088360008383611909565b611756827f000000000000000000000000000000000000000000000000000000000000000083611535565b826001600160a01b031660008051602061236283398151915282604051610ecf91815260200190565b60606108217f00000000000000000000000000000000000000000000000000000000000000006005611a33565b60606108217f00000000000000000000000000000000000000000000000000000000000000006006611a33565b60006105d86117e66115ca565b8360405161190160f01b8152600281019290925260228201526042902090565b60008060008061181888888888611ade565b9250925092506118288282611bad565b50909695505050505050565b6001600160a01b03841661185e5760405163e602df0560e01b815260006004820152602401611151565b6001600160a01b03831661188857604051634a1406b160e11b815260006004820152602401611151565b6001600160a01b038085166000908152600160209081526040808320938716835292905220829055801561152f57826001600160a01b0316846001600160a01b03167f8c5be1e5ebec7d5bd14f71427d1e84f3dd0314c0f7b2291e5b200ac8c7c3b925846040516118fb91815260200190565b60405180910390a350505050565b6001600160a01b0383166119345780600260008282546119299190612260565b909155506119a69050565b6001600160a01b038316600090815260208190526040902054818110156119875760405163391434e360e21b81526001600160a01b03851660048201526024810182905260448101839052606401611151565b6001600160a01b03841660009081526020819052604090209082900390555b6001600160a01b0382166119c2576002805482900390556119e1565b6001600160a01b03821660009081526020819052604090208054820190555b816001600160a01b0316836001600160a01b03167fddf252ad1be2c89b69c2b068fc378daa952ba7f163c4a11628f55a4df523b3ef83604051611a2691815260200190565b60405180910390a3505050565b606060ff8314611a4d57611a4683611c66565b90506105d8565b818054611a59906121a7565b80601f0160208091040260200160405190810160405280929190818152602001828054611a85906121a7565b8015611ad25780601f10611aa757610100808354040283529160200191611ad2565b820191906000526020600020905b815481529060010190602001808311611ab557829003601f168201915b505050505090506105d8565b600080807f7fffffffffffffffffffffffffffffff5d576e7357a4501ddfe92f46681b20a0841115611b195750600091506003905082611ba3565b604080516000808252602082018084528a905260ff891692820192909252606081018790526080810186905260019060a0016020604051602081039080840390855afa158015611b6d573d6000803e3d6000fd5b5050604051601f1901519150506001600160a01b038116611b9957506000925060019150829050611ba3565b9250600091508190505b9450945094915050565b6000826003811115611bc157611bc161234b565b03611bca575050565b6001826003811115611bde57611bde61234b565b03611bfc5760405163f645eedf60e01b815260040160405180910390fd5b6002826003811115611c1057611c1061234b565b03611c315760405163fce698f760e01b815260048101829052602401611151565b6003826003811115611c4557611c4561234b565b03610883576040516335e2f38360e21b815260048101829052602401611151565b60606000611c7383611ca5565b604080516020808252818301909252919250600091906020820181803683375050509182525060208101929092525090565b600060ff8216601f8111156105d857604051632cd44ac360e21b815260040160405180910390fd5b600060208284031215611cdf57600080fd5b81356001600160e01b031981168114610d2b57600080fd5b6000815180845260005b81811015611d1d57602081850181015186830182015201611d01565b506000602082860101526020601f19601f83011685010191505092915050565b602081526000610d2b6020830184611cf7565b80356001600160a01b0381168114611d6757600080fd5b919050565b60008060408385031215611d7f57600080fd5b611d8883611d50565b946020939093013593505050565b803563ffffffff81168114611d6757600080fd5b60008060408385031215611dbd57600080fd5b82359150611dcd60208401611d96565b90509250929050565b600080600060608486031215611deb57600080fd5b611df484611d50565b9250611e0260208501611d50565b9150604084013590509250925092565b600080600060608486031215611e2757600080fd5b611e3084611d50565b925060208401359150611e4560408501611d96565b90509250925092565b600060208284031215611e6057600080fd5b5035919050565b600060208284031215611e7957600080fd5b610d2b82611d50565b60008060008060808587031215611e9857600080fd5b611ea185611d50565b935060208501359250611eb660408601611d96565b9150611ec460608601611d96565b905092959194509250565b60ff60f81b881681526000602060e081840152611eef60e084018a611cf7565b8381036040850152611f01818a611cf7565b606085018990526001600160a01b038816608086015260a0850187905284810360c0860152855180825283870192509083019060005b81811015611f5357835183529284019291840191600101611f37565b50909c9b505050505050505050505050565b60008083601f840112611f7757600080fd5b50813567ffffffffffffffff811115611f8f57600080fd5b602083019150836020828501011115611fa757600080fd5b9250929050565b600080600080600060608688031215611fc657600080fd5b611fcf86611d50565b9450602086013567ffffffffffffffff80821115611fec57600080fd5b818801915088601f83011261200057600080fd5b81358181111561200f57600080fd5b8960208260051b850101111561202457600080fd5b60208301965080955050604088013591508082111561204257600080fd5b5061204f88828901611f65565b969995985093965092949392505050565b60008060008060006080868803121561207857600080fd5b61208186611d50565b94506020860135935060408601359250606086013567ffffffffffffffff8111156120ab57600080fd5b61204f88828901611f65565b600080600080600080600060e0888a0312156120d257600080fd5b6120db88611d50565b96506120e960208901611d50565b95506040880135945060608801359350608088013560ff8116811461210d57600080fd5b9699959850939692959460a0840135945060c09093013592915050565b6000806040838503121561213d57600080fd5b61214683611d50565b9150611dcd60208401611d50565b60008060006040848603121561216957600080fd5b61217284611d50565b9250602084013567ffffffffffffffff81111561218e57600080fd5b61219a86828701611f65565b9497909650939450505050565b600181811c908216806121bb57607f821691505b6020821081036121db57634e487b7160e01b600052602260045260246000fd5b50919050565b634e487b7160e01b600052601160045260246000fd5b80820281158282048414176105d8576105d86121e1565b60008261222b57634e487b7160e01b600052601260045260246000fd5b500490565b818103818111156105d8576105d86121e1565b63ffffffff828116828216039080821115611330576113306121e1565b808201808211156105d8576105d86121e1565b6001600160a01b03848116825260406020808401829052908301849052600091859160608501845b878110156122c057836122ad86611d50565b168252938201939082019060010161229b565b5098975050505050505050565b81835281816020850137506000828201602090810191909152601f909101601f19169091010190565b60208152600061230a6020830184866122cd565b949350505050565b8481528360208201526060604082015260006113d26060830184866122cd565b60006020828403121561234457600080fd5b5051919050565b634e487b7160e01b600052602160045260246000fdfe5314098314219d6e1ce8e41fc5e6ec1ce2f06a9d583079fb6619af9bf6efdf41a2646970667358221220b1e1338574b9b09b249539be8306ea79542268b99b3e0e36d3a0f877966b4a0964736f6c634300081400336101806040523480156200001257600080fd5b5060405162002c6f38038062002c6f833981016040819052620000359162000210565b60405180606001604052806028815260200162002c476028913980604051806040016040528060018152602001603160f81b81525060405180606001604052806028815260200162002c47602891396040805180820190915260058152646e4445505360d81b60208201526003620000ae8382620002e7565b506004620000bd8282620002e7565b50620000cf915083905060056200018b565b61012052620000e08160066200018b565b61014052815160208084019190912060e052815190820120610100524660a0526200016e60e05161010051604080517f8b73c3c69bb8fe3d512ecc4cf759cc79239f7b179b0ffacaa9a75d522b39400f60208201529081019290925260608201524660808201523060a082015260009060c00160405160208183030381529060405280519060200120905090565b60805250503060c052506001600160a01b03166101605262000428565b6000602083511015620001ab57620001a383620001c4565b9050620001be565b81620001b88482620002e7565b5060ff90505b92915050565b600080829050601f81511115620001fb578260405163305a27a960e01b8152600401620001f29190620003b3565b60405180910390fd5b8051620002088262000403565b179392505050565b6000602082840312156200022357600080fd5b81516001600160a01b03811681146200023b57600080fd5b9392505050565b634e487b7160e01b600052604160045260246000fd5b600181811c908216806200026d57607f821691505b6020821081036200028e57634e487b7160e01b600052602260045260246000fd5b50919050565b601f821115620002e257600081815260208120601f850160051c81016020861015620002bd5750805b601f850160051c820191505b81811015620002de57828155600101620002c9565b5050505b505050565b81516001600160401b0381111562000303576200030362000242565b6200031b8162000314845462000258565b8462000294565b602080601f8311600181146200035357600084156200033a5750858301515b600019600386901b1c1916600185901b178555620002de565b600085815260208120601f198616915b82811015620003845788860151825594840194600190910190840162000363565b5085821015620003a35787850151600019600388901b60f8161c191681555b5050505050600190811b01905550565b600060208083528351808285015260005b81811015620003e257858101830151858201604001528201620003c4565b506000604082860101526040601f19601f8301168501019250505092915050565b805160208083015191908110156200028e5760001960209190910360031b1b16919050565b60805160a05160c05160e05161010051610120516101405161016051612781620004c66000396000818161049101528181610854015281816109c801528181610be701528181610c9701528181610db301528181611039015281816110b3015261133e0152600061195301526000611926015260006116b60152600061168e015260006115e9015260006116130152600061163d01526127816000f3fe608060405234801561001057600080fd5b50600436106102115760003560e01c806370a0823111610125578063a9059cbb116100ad578063d395d24b1161007c578063d395d24b1461048c578063d505accf146104b3578063d87aa643146104c6578063d8bff5a5146104d9578063dd62ed3e146104ec57600080fd5b8063a9059cbb14610446578063ad08ce5b14610459578063b0c2bf061461046c578063c9f72b671461047957600080fd5b806384b0196e116100f457806384b0196e146103f557806391ac6f991461041057806395d89b41146104235780639823004f1461042b578063a035b1fe1461043e57600080fd5b806370a08231146103935780637ecebe00146103bc578063820710af146103cf57806384a7aa0c146103e257600080fd5b80632295abea116101a8578063352e3a8311610177578063352e3a83146103115780633644e515146103245780633ec161941461032c578063587cde1e1461033f5780635895b7731461038057600080fd5b80632295abea146102bd57806323b872dd146102d2578063250f25f4146102e5578063313ce5671461030257600080fd5b80630e89c370116101e45780630e89c3701461027c578063151535b91461028f57806318160ddd146102a25780631e9a6950146102aa57600080fd5b806301ffc9a71461021657806306fdde031461023e578063095ea7b3146102535780630d15fd7714610266575b600080fd5b610229610224366004612165565b610525565b60405190151581526020015b60405180910390f35b610246610577565b60405161023591906121d5565b610229610261366004612204565b610609565b61026e610621565b604051908152602001610235565b61026e61028a36600461222e565b61067c565b61022961029d366004612261565b6106a1565b60025461026e565b61026e6102b8366004612204565b6106e9565b6102d06102cb3660046122c7565b6106fd565b005b6102296102e0366004612312565b6107cc565b6102ed600381565b60405163ffffffff9091168152602001610235565b60405160128152602001610235565b6102d061031f36600461234e565b6107f0565b61026e610843565b61026e61033a3660046123a0565b61084d565b61036861034d366004612261565b6009602052600090815260409020546001600160a01b031681565b6040516001600160a01b039091168152602001610235565b61026e61038e36600461234e565b6108da565b61026e6103a1366004612261565b6001600160a01b031660009081526020819052604090205490565b61026e6103ca366004612261565b610994565b6102d06103dd3660046123b9565b6109b2565b61026e6103f0366004612261565b610ad5565b6103fd610b04565b6040516102359796959493929190612424565b61026e61041e3660046124ba565b610b4a565b610246610b7c565b6102d0610439366004612261565b610b8b565b61026e610be2565b610229610454366004612204565b610d3c565b61026e6104673660046123a0565b610d4a565b61026e65076a7000000081565b61026e610487366004612261565b610e8e565b6103687f000000000000000000000000000000000000000000000000000000000000000081565b6102d06104c13660046124fc565b610eda565b61026e6104d436600461256f565b611014565b61026e6104e7366004612261565b61127a565b61026e6104fa366004612591565b6001600160a01b03918216600090815260016020908152604080832093909416825291909152205490565b60006001600160e01b031982166336372b0760e01b148061055657506001600160e01b03198216634ec7fbed60e11b145b8061057157506301ffc9a760e01b6001600160e01b03198316145b92915050565b606060038054610586906125c4565b80601f01602080910402602001604051908101604052809291908181526020018280546105b2906125c4565b80156105ff5780601f106105d4576101008083540402835291602001916105ff565b820191906000526020600020905b8154815290600101906020018083116105e257829003601f168201915b5050505050905090565b6000336106178185856112db565b5060019392505050565b600854600090600160c01b90046001600160401b03164260141b6106459190612614565b6001600160401b031661065760025490565b6106619190612634565b60085461067791906001600160c01b031661264b565b905090565b60008061068a3386866112ed565b90508281101561069957600080fd5b949350505050565b6001600160a01b0381166000908152600a602052604081205465076a70000000906106d8906001600160401b03164260141b612614565b6001600160401b0316101592915050565b60006106f63384846112ed565b9392505050565b60006107093383611415565b90506000805b848110801561071d57508282105b156107795761075b8686838181106107375761073761265e565b905060200201602081019061074c9190612261565b6107568486612674565b611415565b610765908361264b565b91508061077181612687565b91505061070f565b506000811161078757600080fd5b8181610791610621565b61079b9190612674565b6107a59190612674565b6001600160c01b0316600160c01b4260141b6001600160401b031602176008555050505050565b6000336107da858285611505565b6107e585858561157d565b506001949350505050565b60006107fd8484846108da565b9050610807610621565b6108129060c8612634565b61081e82612710612634565b101561083d5760405163bcfcdc1160e01b815260040160405180910390fd5b50505050565b60006106776115dc565b60006105717f00000000000000000000000000000000000000000000000000000000000000006001600160a01b03166391a0ac6a6040518163ffffffff1660e01b8152600401602060405180830381865afa1580156108b0573d6000803e3d6000fd5b505050506040513d601f19601f820116820180604052508101906108d491906126a0565b83611707565b6000806108e68561127a565b90506108f284846117a6565b6108fb57600080fd5b60005b8381101561098b57600085858381811061091a5761091a61265e565b905060200201602081019061092f9190612261565b9050866001600160a01b0316816001600160a01b03160361094f57600080fd5b610959878261187f565b61096257600080fd5b61096b8161127a565b610975908461264b565b925050808061098390612687565b9150506108fe565b50949350505050565b6001600160a01b038116600090815260076020526040812054610571565b6109c6670de0b6b3a76400006103e8612634565b7f00000000000000000000000000000000000000000000000000000000000000006001600160a01b03166391a0ac6a6040518163ffffffff1660e01b8152600401602060405180830381865afa158015610a24573d6000803e3d6000fd5b505050506040513d601f19601f82011682018060405250810190610a4891906126a0565b10610a5257600080fd5b610a5d3385856107f0565b60005b81811015610ace576000838383818110610a7c57610a7c61265e565b9050602002016020810190610a919190612261565b9050610abb81610ab6836001600160a01b031660009081526020819052604090205490565b6118e5565b5080610ac681612687565b915050610a60565b5050505050565b6000610adf610621565b610ae88361127a565b610afa90670de0b6b3a7640000612634565b61057191906126cf565b600060608060008060006060610b1861191f565b610b2061194c565b60408051600080825260208201909252600f60f81b9b939a50919850469750309650945092509050565b6000610b57853385611505565b6000610b648686866112ed565b905082811015610b7357600080fd5b95945050505050565b606060048054610586906125c4565b3360008181526009602052604080822080546001600160a01b0319166001600160a01b03861690811790915590519092917fd000f39f92c3ed77f890f16b6ced1555e0ab2cdf470522d2210de67d8c83d45b91a350565b6000807f00000000000000000000000000000000000000000000000000000000000000006001600160a01b03166391a0ac6a6040518163ffffffff1660e01b8152600401602060405180830381865afa158015610c43573d6000803e3d6000fd5b505050506040513d601f19601f82011682018060405250810190610c6791906126a0565b9050801580610c765750600254155b15610c895766038d7ea4c6800091505090565b600254670de0b6b3a76400007f00000000000000000000000000000000000000000000000000000000000000006001600160a01b03166391a0ac6a6040518163ffffffff1660e01b8152600401602060405180830381865afa158015610cf3573d6000803e3d6000fd5b505050506040513d601f19601f82011682018060405250810190610d1791906126a0565b610d22906003612634565b610d2c9190612634565b610d3691906126cf565b91505090565b60003361061781858561157d565b600080610d5660025490565b905080610d6b670de0b6b3a76400008561264b565b10610daf5760405162461bcd60e51b815260206004820152600f60248201526e746f6f206d616e792073686172657360881b60448201526064015b60405180910390fd5b60007f00000000000000000000000000000000000000000000000000000000000000006001600160a01b03166391a0ac6a6040518163ffffffff1660e01b8152600401602060405180830381865afa158015610e0f573d6000803e3d6000fd5b505050506040513d601f19601f82011682018060405250810190610e3391906126a0565b905060006103e8610e46866103e5612634565b610e5091906126cf565b90506000610e7883610e73610e6e610e688689612674565b88611979565b611998565b6119a9565b9050610e848184612674565b9695505050505050565b6001600160a01b0381166000908152600a6020526040812054601490610ebf906001600160401b031642831b612614565b6001600160401b0316901c6001600160401b03169050919050565b83421115610efe5760405163313c898160e11b815260048101859052602401610da6565b60007f6e71edae12b1b97f4d1f60370fef10105fa2faae0126114a169c64845d6126c9888888610f4b8c6001600160a01b0316600090815260076020526040902080546001810190915590565b6040805160208101969096526001600160a01b0394851690860152929091166060840152608083015260a082015260c0810186905260e0016040516020818303038152906040528051906020012090506000610fa6826119be565b90506000610fb6828787876119eb565b9050896001600160a01b0316816001600160a01b031614610ffd576040516325c0072360e11b81526001600160a01b0380831660048301528b166024820152604401610da6565b6110088a8a8a6112db565b50505050505050505050565b6040516323b872dd60e01b8152336004820152306024820152604481018390526000907f00000000000000000000000000000000000000000000000000000000000000006001600160a01b0316906323b872dd906064016020604051808303816000875af115801561108a573d6000803e3d6000fd5b505050506040513d601f19601f820116820180604052508101906110ae91906126e3565b5060007f00000000000000000000000000000000000000000000000000000000000000006001600160a01b03166391a0ac6a6040518163ffffffff1660e01b8152600401602060405180830381865afa15801561110f573d6000803e3d6000fd5b505050506040513d601f19601f8201168201806040525081019061113391906126a0565b9050611149670de0b6b3a76400006103e8612634565b8110156111875760405162461bcd60e51b815260206004820152600c60248201526b696e7375662065717569747960a01b6044820152606401610da6565b60006111ac858311156111a35761119e8684612674565b6111a6565b60005b86611707565b9050838110156111bb57600080fd5b6111c53382611a19565b7fd98fb7c2b7c7b545387da80b92c08bc5d2a4b922fb74851c3d27ee07ca897bdf3382876111f1610be2565b604080516001600160a01b039095168552602085019390935291830152606082015260800160405180910390a16bffffffffffffffffffffffff61123460025490565b11156106995760405162461bcd60e51b81526020600482015260156024820152741d1bdd185b081cdd5c1c1b1e48195e18d959591959605a1b6044820152606401610da6565b6001600160a01b0381166000908152600a60205260408120546112a9906001600160401b03164260141b612614565b6001600160401b03166112d1836001600160a01b031660009081526020819052604090205490565b6105719190612634565b6112e88383836001611a4f565b505050565b60006112f8846106a1565b61130157600080fd5b600061130c83610d4a565b905061131885846118e5565b60405163a9059cbb60e01b81526001600160a01b038581166004830152602482018390527f0000000000000000000000000000000000000000000000000000000000000000169063a9059cbb906044016020604051808303816000875af1158015611387573d6000803e3d6000fd5b505050506040513d601f19601f820116820180604052508101906113ab91906126e3565b507fd98fb7c2b7c7b545387da80b92c08bc5d2a4b922fb74851c3d27ee07ca897bdf856113d785612705565b836113e0610be2565b604080516001600160a01b039095168552602085019390935291830152606082015260800160405180910390a1949350505050565b6000806114218461127a565b9050808310611469576001600160a01b0384166000908152600a60205260409020805467ffffffffffffffff19164260141b6001600160401b03161790559150819050610571565b6001600160a01b03841660009081526020819052604090205461148c8483612674565b61149691906126cf565b6114ac906001600160401b034260141b16612674565b6001600160a01b0385166000908152600a60205260409020805467ffffffffffffffff19166001600160401b03929092169190911790556114ec8461127a565b6114f69082612674565b915050610571565b5092915050565b6001600160a01b03838116600090815260016020908152604080832093861683529290522054600019811461083d578181101561156e57604051637dc7a0d960e11b81526001600160a01b03841660048201526024810182905260448101839052606401610da6565b61083d84848484036000611a4f565b6001600160a01b0383166115a757604051634b637e8f60e11b815260006004820152602401610da6565b6001600160a01b0382166115d15760405163ec442f0560e01b815260006004820152602401610da6565b6112e8838383611b24565b6000306001600160a01b037f00000000000000000000000000000000000000000000000000000000000000001614801561163557507f000000000000000000000000000000000000000000000000000000000000000046145b1561165f57507f000000000000000000000000000000000000000000000000000000000000000090565b610677604080517f8b73c3c69bb8fe3d512ecc4cf759cc79239f7b179b0ffacaa9a75d522b39400f60208201527f0000000000000000000000000000000000000000000000000000000000000000918101919091527f000000000000000000000000000000000000000000000000000000000000000060608201524660808201523060a082015260009060c00160405160208183030381529060405280519060200120905090565b60008061171360025490565b905060006103e8611726856103e5612634565b61173091906126cf565b90506000611748670de0b6b3a76400006103e8612634565b861080611753575082155b61177b5761177683610e7361177161176b868b61264b565b8a611979565b611b50565b61179a565b611790670de0b6b3a7640000620f4240612634565b61179a908461264b565b9050610e848382612674565b6000600182116117b857506001610571565b6000838360008181106117cd576117cd61265e565b90506020020160208101906117e29190612261565b905060015b8381101561187457816001600160a01b031685858381811061180b5761180b61265e565b90506020020160208101906118209190612261565b6001600160a01b03161161183957600092505050610571565b84848281811061184b5761184b61265e565b90506020020160208101906118609190612261565b91508061186c81612687565b9150506117e7565b506001915050610571565b6000826001600160a01b0316826001600160a01b0316036118a257506001610571565b6001600160a01b0382166118b857506000610571565b6001600160a01b038083166000908152600960205260409020546118de9185911661187f565b9050610571565b6001600160a01b03821661190f57604051634b637e8f60e11b815260006004820152602401610da6565b61191b82600083611b24565b5050565b60606106777f00000000000000000000000000000000000000000000000000000000000000006005611c42565b60606106777f00000000000000000000000000000000000000000000000000000000000000006006611c42565b60008161198e670de0b6b3a764000085612634565b6106f691906126cf565b60006105716119a783846119a9565b835b6000670de0b6b3a764000061198e8385612634565b60006105716119cb6115dc565b8360405161190160f01b8152600281019290925260228201526042902090565b6000806000806119fd88888888611ce6565b925092509250611a0d8282611db5565b50909695505050505050565b6001600160a01b038216611a435760405163ec442f0560e01b815260006004820152602401610da6565b61191b60008383611b24565b6001600160a01b038416611a795760405163e602df0560e01b815260006004820152602401610da6565b6001600160a01b038316611aa357604051634a1406b160e11b815260006004820152602401610da6565b6001600160a01b038085166000908152600160209081526040808320938716835292905220829055801561083d57826001600160a01b0316846001600160a01b03167f8c5be1e5ebec7d5bd14f71427d1e84f3dd0314c0f7b2291e5b200ac8c7c3b92584604051611b1691815260200190565b60405180910390a350505050565b8015611b45576000611b368383611e6e565b9050611b43848383611f2c565b505b6112e8838383611fd4565b600080670de0b6b3a764000083118015611b715750678ac7230489e8000083105b611b8357670de0b6b3a7640000611bac565b670de0b6b3a76400006003611b988286612674565b611ba291906126cf565b611bac919061264b565b905060005b6000611bc6611bc084856119a9565b846119a9565b9050600085611bd6836002612634565b611be0919061264b565b611beb876002612634565b611bf5908461264b565b611bff9086612634565b611c0991906126cf565b9050838111611c2157611c1c8185612674565b611c2b565b611c2b8482612674565b909350915050620f42408111611bb1575092915050565b606060ff8314611c55576118de836120fe565b818054611c61906125c4565b80601f0160208091040260200160405190810160405280929190818152602001828054611c8d906125c4565b8015611cda5780601f10611caf57610100808354040283529160200191611cda565b820191906000526020600020905b815481529060010190602001808311611cbd57829003601f168201915b50505050509050610571565b600080807f7fffffffffffffffffffffffffffffff5d576e7357a4501ddfe92f46681b20a0841115611d215750600091506003905082611dab565b604080516000808252602082018084528a905260ff891692820192909252606081018790526080810186905260019060a0016020604051602081039080840390855afa158015611d75573d6000803e3d6000fd5b5050604051601f1901519150506001600160a01b038116611da157506000925060019150829050611dab565b9250600091508190505b9450945094915050565b6000826003811115611dc957611dc9612721565b03611dd2575050565b6001826003811115611de657611de6612721565b03611e045760405163f645eedf60e01b815260040160405180910390fd5b6002826003811115611e1857611e18612721565b03611e395760405163fce698f760e01b815260048101829052602401610da6565b6003826003811115611e4d57611e4d612721565b0361191b576040516335e2f38360e21b815260048101829052602401610da6565b60006001600160a01b03831615611f24576000611e8a8461127a565b9050600083611eae866001600160a01b031660009081526020819052604090205490565b611eb8919061264b565b9050611ec481836126cf565b611eda906001600160401b034260141b16612674565b6001600160a01b0386166000908152600a60205260409020805467ffffffffffffffff19166001600160401b0392909216919091179055611f1b8183612737565b92505050610571565b506000610571565b4260141b60006001600160a01b03851615611f87576001600160a01b0385166000908152600a60205260409020548490611f6f906001600160401b031684612614565b6001600160401b0316611f829190612634565b611f8a565b60005b90508083611f96610621565b611fa09190612674565b611faa9190612674565b6001600160401b03909216600160c01b026001600160c01b03929092169190911760085550505050565b6001600160a01b038316611fff578060026000828254611ff4919061264b565b909155506120719050565b6001600160a01b038316600090815260208190526040902054818110156120525760405163391434e360e21b81526001600160a01b03851660048201526024810182905260448101839052606401610da6565b6001600160a01b03841660009081526020819052604090209082900390555b6001600160a01b03821661208d576002805482900390556120ac565b6001600160a01b03821660009081526020819052604090208054820190555b816001600160a01b0316836001600160a01b03167fddf252ad1be2c89b69c2b068fc378daa952ba7f163c4a11628f55a4df523b3ef836040516120f191815260200190565b60405180910390a3505050565b6060600061210b8361213d565b604080516020808252818301909252919250600091906020820181803683375050509182525060208101929092525090565b600060ff8216601f81111561057157604051632cd44ac360e21b815260040160405180910390fd5b60006020828403121561217757600080fd5b81356001600160e01b0319811681146106f657600080fd5b6000815180845260005b818110156121b557602081850181015186830182015201612199565b506000602082860101526020601f19601f83011685010191505092915050565b6020815260006106f6602083018461218f565b80356001600160a01b03811681146121ff57600080fd5b919050565b6000806040838503121561221757600080fd5b612220836121e8565b946020939093013593505050565b60008060006060848603121561224357600080fd5b61224c846121e8565b95602085013595506040909401359392505050565b60006020828403121561227357600080fd5b6106f6826121e8565b60008083601f84011261228e57600080fd5b5081356001600160401b038111156122a557600080fd5b6020830191508360208260051b85010111156122c057600080fd5b9250929050565b6000806000604084860312156122dc57600080fd5b83356001600160401b038111156122f257600080fd5b6122fe8682870161227c565b909790965060209590950135949350505050565b60008060006060848603121561232757600080fd5b612330846121e8565b925061233e602085016121e8565b9150604084013590509250925092565b60008060006040848603121561236357600080fd5b61236c846121e8565b925060208401356001600160401b0381111561238757600080fd5b6123938682870161227c565b9497909650939450505050565b6000602082840312156123b257600080fd5b5035919050565b600080600080604085870312156123cf57600080fd5b84356001600160401b03808211156123e657600080fd5b6123f28883890161227c565b9096509450602087013591508082111561240b57600080fd5b506124188782880161227c565b95989497509550505050565b60ff60f81b881681526000602060e08184015261244460e084018a61218f565b8381036040850152612456818a61218f565b606085018990526001600160a01b038816608086015260a0850187905284810360c0860152855180825283870192509083019060005b818110156124a85783518352928401929184019160010161248c565b50909c9b505050505050505050505050565b600080600080608085870312156124d057600080fd5b6124d9856121e8565b93506124e7602086016121e8565b93969395505050506040820135916060013590565b600080600080600080600060e0888a03121561251757600080fd5b612520886121e8565b965061252e602089016121e8565b95506040880135945060608801359350608088013560ff8116811461255257600080fd5b9699959850939692959460a0840135945060c09093013592915050565b6000806040838503121561258257600080fd5b50508035926020909101359150565b600080604083850312156125a457600080fd5b6125ad836121e8565b91506125bb602084016121e8565b90509250929050565b600181811c908216806125d857607f821691505b6020821081036125f857634e487b7160e01b600052602260045260246000fd5b50919050565b634e487b7160e01b600052601160045260246000fd5b6001600160401b038281168282160390808211156114fe576114fe6125fe565b8082028115828204841417610571576105716125fe565b80820180821115610571576105716125fe565b634e487b7160e01b600052603260045260246000fd5b81810381811115610571576105716125fe565b600060018201612699576126996125fe565b5060010190565b6000602082840312156126b257600080fd5b5051919050565b634e487b7160e01b600052601260045260246000fd5b6000826126de576126de6126b9565b500490565b6000602082840312156126f557600080fd5b815180151581146106f657600080fd5b6000600160ff1b820161271a5761271a6125fe565b5060000390565b634e487b7160e01b600052602160045260246000fd5b600082612746576127466126b9565b50069056fea2646970667358221220ee4fc892f3c8a523b9f7c8ca885f19e5f3d7e4825e051297b087de98d52d3e8064736f6c634300081400334e617469766520446563656e7472616c697a6564204575726f2050726f746f636f6c205368617265",
  "devdoc": {
    "errors": {
      "ECDSAInvalidSignature()": [
        {
          "details": "The signature derives the `address(0)`."
        }
      ],
      "ECDSAInvalidSignatureLength(uint256)": [
        {
          "details": "The signature has an invalid length."
        }
      ],
      "ECDSAInvalidSignatureS(bytes32)": [
        {
          "details": "The signature has an S value that is in the upper half order."
        }
      ],
      "ERC20InsufficientAllowance(address,uint256,uint256)": [
        {
          "details": "Indicates a failure with the `spender`s `allowance`. Used in transfers.",
          "params": {
            "allowance": "Amount of tokens a `spender` is allowed to operate with.",
            "needed": "Minimum amount required to perform a transfer.",
            "spender": "Address that may be allowed to operate on tokens without being their owner."
          }
        }
      ],
      "ERC20InsufficientBalance(address,uint256,uint256)": [
        {
          "details": "Indicates an error related to the current `balance` of a `sender`. Used in transfers.",
          "params": {
            "balance": "Current balance for the interacting account.",
            "needed": "Minimum amount required to perform a transfer.",
            "sender": "Address whose tokens are being transferred."
          }
        }
      ],
      "ERC20InvalidApprover(address)": [
        {
          "details": "Indicates a failure with the `approver` of a token to be approved. Used in approvals.",
          "params": {
            "approver": "Address initiating an approval operation."
          }
        }
      ],
      "ERC20InvalidReceiver(address)": [
        {
          "details": "Indicates a failure with the token `receiver`. Used in transfers.",
          "params": {
            "receiver": "Address to which tokens are being transferred."
          }
        }
      ],
      "ERC20InvalidSender(address)": [
        {
          "details": "Indicates a failure with the token `sender`. Used in transfers.",
          "params": {
            "sender": "Address whose tokens are being transferred."
          }
        }
      ],
      "ERC20InvalidSpender(address)": [
        {
          "details": "Indicates a failure with the `spender` to be approved. Used in approvals.",
          "params": {
            "spender": "Address that may be allowed to operate on tokens without being their owner."
          }
        }
      ],
      "ERC2612ExpiredSignature(uint256)": [
        {
          "details": "Permit deadline has expired."
        }
      ],
      "ERC2612InvalidSigner(address,address)": [
        {
          "details": "Mismatched signature."
        }
      ],
      "InvalidAccountNonce(address,uint256)": [
        {
          "details": "The nonce used for an `account` is not the expected current nonce."
        }
      ]
    },
    "events": {
      "Approval(address,address,uint256)": {
        "details": "Emitted when the allowance of a `spender` for an `owner` is set by a call to {approve}. `value` is the new allowance."
      },
      "EIP712DomainChanged()": {
        "details": "MAY be emitted to signal that the domain could have changed."
      },
      "Transfer(address,address,uint256)": {
        "details": "Emitted when `value` tokens are moved from one account (`from`) to another (`to`). Note that `value` may be zero."
      }
    },
    "kind": "dev",
    "methods": {
      "DOMAIN_SEPARATOR()": {
        "details": "Returns the domain separator used in the encoding of the signature for {permit}, as defined by {EIP712}."
      },
      "allowance(address,address)": {
        "details": "We trust minters and the positions they have created to mint and burn as they please, so giving them arbitrary allowances does not pose an additional risk."
      },
      "approve(address,uint256)": {
        "details": "See {IERC20-approve}. NOTE: If `value` is the maximum `uint256`, the allowance is not updated on `transferFrom`. This is semantically equivalent to an infinite approval. Requirements: - `spender` cannot be the zero address."
      },
      "balanceOf(address)": {
        "details": "See {IERC20-balanceOf}."
      },
      "decimals()": {
        "details": "Returns the number of decimals used to get its user representation. For example, if `decimals` equals `2`, a balance of `505` tokens should be displayed to a user as `5.05` (`505 / 10 ** 2`). Tokens usually opt for a value of 18, imitating the relationship between Ether and Wei. This is the default value returned by this function, unless it's overridden. NOTE: This information is only used for _display_ purposes: it in no way affects any of the arithmetic of the contract, including {IERC20-balanceOf} and {IERC20-transfer}."
      },
      "denyMinter(address,address[],string)": {
        "details": "Calling this function is relatively cheap thanks to the deletion of a storage slot."
      },
      "eip712Domain()": {
        "details": "See {IERC-5267}."
      },
      "equity()": {
        "details": "Note that the equity contract technically holds both the minter reserve as well as the equity, so the minter reserve must be subtracted. All fees and other kind of income is added to the Equity contract and essentially constitutes profits attributable to the pool share holders."
      },
      "minterReserve()": {
        "details": "The minter reserve can be used to cover losses after the equity holders have been wiped out."
      },
      "name()": {
        "details": "Returns the name of the token."
      },
      "nonces(address)": {
        "details": "Returns the current nonce for `owner`. This value must be included whenever a signature is generated for {permit}. Every successful call to {permit} increases ``owner``'s nonce by one. This prevents a signature from being used multiple times."
      },
      "permit(address,address,uint256,uint256,uint8,bytes32,bytes32)": {
        "details": "Sets `value` as the allowance of `spender` over ``owner``'s tokens, given ``owner``'s signed approval. IMPORTANT: The same issues {IERC20-approve} has related to transaction ordering also apply here. Emits an {Approval} event. Requirements: - `spender` cannot be the zero address. - `deadline` must be a timestamp in the future. - `v`, `r` and `s` must be a valid `secp256k1` signature from `owner` over the EIP712-formatted function arguments. - the signature must use ``owner``'s current nonce (see {nonces}). For more information on the signature format, see the https://eips.ethereum.org/EIPS/eip-2612#specification[relevant EIP section]. CAUTION: See Security Considerations above."
      },
      "registerPosition(address)": {
        "details": "It is assumed that the responsible minter that registers the position ensures that the position can be trusted."
      },
      "suggestMinter(address,uint256,uint256,string)": {
        "details": "The caller has to pay an application fee that is irrevocably lost even if the new minter is vetoed. The caller must assume that someone will veto the new minter unless there is broad consensus that the new minter adds value to the DecentralizedEURO system. Complex proposals should have application periods and applications fees above the minimum. It is assumed that over time, informal ways to coordinate on new minters emerge. The message parameter might be useful for initiating further communication. Maybe it contains a link to a website describing the proposed minter.",
        "params": {
          "_applicationFee": "The fee paid by the caller, at least MIN_FEE",
          "_applicationPeriod": "The time others have to veto the suggestion, at least MIN_APPLICATION_PERIOD",
          "_message": "An optional human readable message to everyone watching this contract",
          "_minter": "An address that is given the permission to mint DecentralizedEUROs"
        }
      },
      "supportsInterface(bytes4)": {
        "details": "See {IERC165-supportsInterface}."
      },
      "symbol()": {
        "details": "Returns the symbol of the token, usually a shorter version of the name."
      },
      "totalSupply()": {
        "details": "See {IERC20-totalSupply}."
      },
      "transfer(address,uint256)": {
        "details": "See {IERC20-transfer}. Requirements: - `to` cannot be the zero address. - the caller must have a balance of at least `value`."
      },
      "transferFrom(address,address,uint256)": {
        "details": "See {IERC20-transferFrom}. Skips emitting an {Approval} event indicating an allowance update. This is not required by the ERC. See {xref-ERC20-_approve-address-address-uint256-bool-}[_approve]. NOTE: Does not update the allowance if the current allowance is the maximum `uint256`. Requirements: - `from` and `to` cannot be the zero address. - `from` must have a balance of at least `value`. - the caller must have allowance for ``from``'s tokens of at least `value`."
      }
    },
    "title": "DecentralizedEURO",
    "version": 1
  },
  "userdoc": {
    "kind": "user",
    "methods": {
      "MIN_FEE()": {
        "notice": "Minimal fee and application period when suggesting a new minter."
      },
      "allowance(address,address)": {
        "notice": "Make the system more user friendly by skipping the allowance in many cases."
      },
      "burn(uint256)": {
        "notice": "Anyone is allowed to burn their dEURO."
      },
      "burnFrom(address,uint256)": {
        "notice": "Burn someone elses dEURO."
      },
      "burnFromWithReserve(address,uint256,uint32)": {
        "notice": "Burns the target amount taking the tokens to be burned from the payer and the payer's reserve. Only use this method for tokens also minted by the caller with the same _reservePPM. Example: the calling contract has previously minted 100 dEURO with a reserve ratio of 20% (i.e. 200000 ppm). To burn half of that again, the minter calls burnFrom with a target amount of 50 dEURO. Assuming that reserves are only 90% covered, this call will deduct 41 dEURO from the payer's balance and 9 from the reserve, while reducing the minter reserve by 10."
      },
      "burnWithReserve(uint256,uint32)": {
        "notice": "Burns the provided number of tokens plus whatever reserves are associated with that amount given the reserve requirement. The caller is only allowed to use this method for tokens also minted through the caller with the same _reservePPM amount. Example: the calling contract has previously minted 100 dEURO with a reserve ratio of 20% (i.e. 200000 ppm). Now they have 41 dEURO that they do not need so they decide to repay that amount. Assuming the reserves are only 90% covered, the call to burnWithReserve will burn the 41 plus 9 from the reserve, reducing the outstanding 'debt' of the caller by 50 dEURO in total. This total is returned by the method so the caller knows how much less they owe."
      },
      "burnWithoutReserve(uint256,uint32)": {
        "notice": "Burn that amount without reclaiming the reserve, but freeing it up and thereby essentially donating it to the pool share holders. This can make sense in combination with 'coverLoss', i.e. when it is the pool share holders that bear the risk and depending on the outcome they make a profit or a loss. Design rule: Minters calling this method are only allowed to so for tokens amounts they previously minted with the same _reservePPM amount. For example, if someone minted 50 dEURO earlier with a 20% reserve requirement (200000 ppm), they got 40 dEURO and paid 10 dEURO into the reserve. Now they want to repay the debt by burning 50 dEURO. When doing so using this method, 50 dEURO get burned and on top of that, 10 dEURO previously assigned to the minter's reserved are reassigned to the pool share holders."
      },
      "calculateAssignedReserve(uint256,uint32)": {
        "notice": "Calculates the reserve attributable to someone who minted the given amount with the given reserve requirement. Under normal circumstances, this is just the reserver requirement multiplied by the amount. However, after a severe loss of capital that burned into the minter's reserve, this can also be less than that."
      },
      "calculateFreedAmount(uint256,uint32)": {
        "notice": "Calculate the amount that is freed when returning amountExcludingReserve given a reserve ratio of reservePPM, taking into account potential losses. Example values in the comments."
      },
      "constructor": {
        "notice": "Initiates the DecentralizedEURO with the provided minimum application period for new plugins in seconds, for example 10 days, i.e. 3600*24*10 = 864000"
      },
      "coverLoss(address,uint256)": {
        "notice": "Notify the DecentralizedEURO that a minter lost economic access to some coins. This does not mean that the coins are literally lost. It just means that some dEURO will likely never be repaid and that in order to bring the system back into balance, the lost amount of dEURO must be removed from the reserve instead. For example, if a minter printed 1 million dEURO for a mortgage and the mortgage turned out to be unsound with the house only yielding 800'000 in the subsequent auction, there is a loss of 200'000 that needs to be covered by the reserve."
      },
      "denyMinter(address,address[],string)": {
        "notice": "Qualified pool share holders can deny minters during the application period."
      },
      "equity()": {
        "notice": "The amount of equity of the DecentralizedEURO system in dEURO, owned by the holders of Native Decentralized Euro Protocol Shares."
      },
      "getPositionParent(address)": {
        "notice": "Returns the address of the minter that created this position or null if the provided address is unknown."
      },
      "isMinter(address)": {
        "notice": "Returns true if the address is an approved minter."
      },
      "mintWithReserve(address,uint256,uint32,uint32)": {
        "notice": "Mints the provided amount of dEURO to the target address, automatically forwarding the minting fee and the reserve to the right place."
      },
      "minterReserve()": {
        "notice": "The reserve provided by the owners of collateralized positions."
      },
      "minters(address)": {
        "notice": "Map of minters to approval time stamps. If the time stamp is in the past, the minter contract is allowed to mint DecentralizedEUROs."
      },
      "positions(address)": {
        "notice": "List of positions that are allowed to mint and the minter that registered them."
      },
      "registerPosition(address)": {
        "notice": "Allows minters to register collateralized debt positions, thereby giving them the ability to mint DecentralizedEUROs."
      },
      "reserve()": {
        "notice": "The contract that holds the reserve."
      },
      "suggestMinter(address,uint256,uint256,string)": {
        "notice": "Publicly accessible method to suggest a new way of minting DecentralizedEURO."
      }
    },
    "notice": "The DecentralizedEURO (dEURO) is an ERC-20 token that is designed to track the value of the Euro. It is not upgradable, but open to arbitrary minting plugins. These are automatically accepted if none of the qualified pool share holders casts a veto, leading to a flexible but conservative governance.",
    "version": 1
  },
  "storageLayout": {
    "storage": [
      {
        "astId": 422,
        "contract": "contracts/DecentralizedEURO.sol:DecentralizedEURO",
        "label": "_balances",
        "offset": 0,
        "slot": "0",
        "type": "t_mapping(t_address,t_uint256)"
      },
      {
        "astId": 428,
        "contract": "contracts/DecentralizedEURO.sol:DecentralizedEURO",
        "label": "_allowances",
        "offset": 0,
        "slot": "1",
        "type": "t_mapping(t_address,t_mapping(t_address,t_uint256))"
      },
      {
        "astId": 430,
        "contract": "contracts/DecentralizedEURO.sol:DecentralizedEURO",
        "label": "_totalSupply",
        "offset": 0,
        "slot": "2",
        "type": "t_uint256"
      },
      {
        "astId": 432,
        "contract": "contracts/DecentralizedEURO.sol:DecentralizedEURO",
        "label": "_name",
        "offset": 0,
        "slot": "3",
        "type": "t_string_storage"
      },
      {
        "astId": 434,
        "contract": "contracts/DecentralizedEURO.sol:DecentralizedEURO",
        "label": "_symbol",
        "offset": 0,
        "slot": "4",
        "type": "t_string_storage"
      },
      {
        "astId": 3309,
        "contract": "contracts/DecentralizedEURO.sol:DecentralizedEURO",
        "label": "_nameFallback",
        "offset": 0,
        "slot": "5",
        "type": "t_string_storage"
      },
      {
        "astId": 3311,
        "contract": "contracts/DecentralizedEURO.sol:DecentralizedEURO",
        "label": "_versionFallback",
        "offset": 0,
        "slot": "6",
        "type": "t_string_storage"
      },
      {
        "astId": 2157,
        "contract": "contracts/DecentralizedEURO.sol:DecentralizedEURO",
        "label": "_nonces",
        "offset": 0,
        "slot": "7",
        "type": "t_mapping(t_address,t_uint256)"
      },
      {
        "astId": 7157,
        "contract": "contracts/DecentralizedEURO.sol:DecentralizedEURO",
        "label": "minterReserveE6",
        "offset": 0,
        "slot": "8",
        "type": "t_uint256"
      },
      {
        "astId": 7162,
        "contract": "contracts/DecentralizedEURO.sol:DecentralizedEURO",
        "label": "minters",
        "offset": 0,
        "slot": "9",
        "type": "t_mapping(t_address,t_uint256)"
      },
      {
        "astId": 7167,
        "contract": "contracts/DecentralizedEURO.sol:DecentralizedEURO",
        "label": "positions",
        "offset": 0,
        "slot": "10",
        "type": "t_mapping(t_address,t_address)"
      }
    ],
    "types": {
      "t_address": {
        "encoding": "inplace",
        "label": "address",
        "numberOfBytes": "20"
      },
      "t_mapping(t_address,t_address)": {
        "encoding": "mapping",
        "key": "t_address",
        "label": "mapping(address => address)",
        "numberOfBytes": "32",
        "value": "t_address"
      },
      "t_mapping(t_address,t_mapping(t_address,t_uint256))": {
        "encoding": "mapping",
        "key": "t_address",
        "label": "mapping(address => mapping(address => uint256))",
        "numberOfBytes": "32",
        "value": "t_mapping(t_address,t_uint256)"
      },
      "t_mapping(t_address,t_uint256)": {
        "encoding": "mapping",
        "key": "t_address",
        "label": "mapping(address => uint256)",
        "numberOfBytes": "32",
        "value": "t_uint256"
      },
      "t_string_storage": {
        "encoding": "bytes",
        "label": "string",
        "numberOfBytes": "32"
      },
      "t_uint256": {
        "encoding": "inplace",
        "label": "uint256",
        "numberOfBytes": "32"
      }
    }
  }
}