{
  "address": "0xdCecE71551661557536CD7AE1A1b664723B0868c",
  "abi": [
    {
      "inputs": [
        {
          "internalType": "uint256",
          "name": "_minApplicationPeriod",
          "type": "uint256"
        }
      ],
      "stateMutability": "nonpayable",
      "type": "constructor"
    },
    {
      "anonymous": false,
      "inputs": [
        {
          "indexed": true,
          "internalType": "address",
          "name": "owner",
          "type": "address"
        },
        {
          "indexed": true,
          "internalType": "address",
          "name": "spender",
          "type": "address"
        },
        {
          "indexed": false,
          "internalType": "uint256",
          "name": "value",
          "type": "uint256"
        }
      ],
      "name": "Approval",
      "type": "event"
    },
    {
      "anonymous": false,
      "inputs": [
        {
          "indexed": true,
          "internalType": "address",
          "name": "minter",
          "type": "address"
        },
        {
          "indexed": false,
          "internalType": "uint256",
          "name": "applicationPeriod",
          "type": "uint256"
        },
        {
          "indexed": false,
          "internalType": "uint256",
          "name": "applicationFee",
          "type": "uint256"
        },
        {
          "indexed": false,
          "internalType": "string",
          "name": "message",
          "type": "string"
        }
      ],
      "name": "MinterApplied",
      "type": "event"
    },
    {
      "anonymous": false,
      "inputs": [
        {
          "indexed": true,
          "internalType": "address",
          "name": "minter",
          "type": "address"
        },
        {
          "indexed": false,
          "internalType": "string",
          "name": "message",
          "type": "string"
        }
      ],
      "name": "MinterDenied",
      "type": "event"
    },
    {
      "anonymous": false,
      "inputs": [
        {
          "indexed": true,
          "internalType": "address",
          "name": "from",
          "type": "address"
        },
        {
          "indexed": true,
          "internalType": "address",
          "name": "to",
          "type": "address"
        },
        {
          "indexed": false,
          "internalType": "uint256",
          "name": "value",
          "type": "uint256"
        }
      ],
      "name": "Transfer",
      "type": "event"
    },
    {
      "inputs": [],
      "name": "MIN_APPLICATION_PERIOD",
      "outputs": [
        {
          "internalType": "uint256",
          "name": "",
          "type": "uint256"
        }
      ],
      "stateMutability": "view",
      "type": "function"
    },
    {
      "inputs": [],
      "name": "MIN_FEE",
      "outputs": [
        {
          "internalType": "uint256",
          "name": "",
          "type": "uint256"
        }
      ],
      "stateMutability": "view",
      "type": "function"
    },
    {
      "inputs": [
        {
          "internalType": "address",
          "name": "owner",
          "type": "address"
        },
        {
          "internalType": "address",
          "name": "spender",
          "type": "address"
        }
      ],
      "name": "allowance",
      "outputs": [
        {
          "internalType": "uint256",
          "name": "",
          "type": "uint256"
        }
      ],
      "stateMutability": "view",
      "type": "function"
    },
    {
      "inputs": [
        {
          "internalType": "address",
          "name": "spender",
          "type": "address"
        },
        {
          "internalType": "uint256",
          "name": "value",
          "type": "uint256"
        }
      ],
      "name": "approve",
      "outputs": [
        {
          "internalType": "bool",
          "name": "",
          "type": "bool"
        }
      ],
      "stateMutability": "nonpayable",
      "type": "function"
    },
    {
      "inputs": [
        {
          "internalType": "address",
          "name": "account",
          "type": "address"
        }
      ],
      "name": "balanceOf",
      "outputs": [
        {
          "internalType": "uint256",
          "name": "",
          "type": "uint256"
        }
      ],
      "stateMutability": "view",
      "type": "function"
    },
    {
      "inputs": [
        {
          "internalType": "uint256",
          "name": "_amount",
          "type": "uint256"
        }
      ],
      "name": "burn",
      "outputs": [],
      "stateMutability": "nonpayable",
      "type": "function"
    },
    {
      "inputs": [
        {
          "internalType": "uint256",
          "name": "amount",
          "type": "uint256"
        },
        {
          "internalType": "uint32",
          "name": "reservePPM",
          "type": "uint32"
        }
      ],
      "name": "burn",
      "outputs": [],
      "stateMutability": "nonpayable",
      "type": "function"
    },
    {
      "inputs": [
        {
          "internalType": "address",
          "name": "_owner",
          "type": "address"
        },
        {
          "internalType": "uint256",
          "name": "_amount",
          "type": "uint256"
        }
      ],
      "name": "burn",
      "outputs": [],
      "stateMutability": "nonpayable",
      "type": "function"
    },
    {
      "inputs": [
        {
          "internalType": "address",
          "name": "payer",
          "type": "address"
        },
        {
          "internalType": "uint256",
          "name": "targetTotalBurnAmount",
          "type": "uint256"
        },
        {
          "internalType": "uint32",
          "name": "_reservePPM",
          "type": "uint32"
        }
      ],
      "name": "burnFrom",
      "outputs": [
        {
          "internalType": "uint256",
          "name": "",
          "type": "uint256"
        }
      ],
      "stateMutability": "nonpayable",
      "type": "function"
    },
    {
      "inputs": [
        {
          "internalType": "uint256",
          "name": "_amountExcludingReserve",
          "type": "uint256"
        },
        {
          "internalType": "uint32",
          "name": "_reservePPM",
          "type": "uint32"
        }
      ],
      "name": "burnWithReserve",
      "outputs": [
        {
          "internalType": "uint256",
          "name": "",
          "type": "uint256"
        }
      ],
      "stateMutability": "nonpayable",
      "type": "function"
    },
    {
      "inputs": [
        {
          "internalType": "uint256",
          "name": "mintedAmount",
          "type": "uint256"
        },
        {
          "internalType": "uint32",
          "name": "_reservePPM",
          "type": "uint32"
        }
      ],
      "name": "calculateAssignedReserve",
      "outputs": [
        {
          "internalType": "uint256",
          "name": "",
          "type": "uint256"
        }
      ],
      "stateMutability": "view",
      "type": "function"
    },
    {
      "inputs": [],
      "name": "decimals",
      "outputs": [
        {
          "internalType": "uint8",
          "name": "",
          "type": "uint8"
        }
      ],
      "stateMutability": "view",
      "type": "function"
    },
    {
      "inputs": [
        {
          "internalType": "address",
          "name": "_minter",
          "type": "address"
        },
        {
          "internalType": "address[]",
          "name": "_helpers",
          "type": "address[]"
        },
        {
          "internalType": "string",
          "name": "_message",
          "type": "string"
        }
      ],
      "name": "denyMinter",
      "outputs": [],
      "stateMutability": "nonpayable",
      "type": "function"
    },
    {
      "inputs": [],
      "name": "equity",
      "outputs": [
        {
          "internalType": "uint256",
          "name": "",
          "type": "uint256"
        }
      ],
      "stateMutability": "view",
      "type": "function"
    },
    {
      "inputs": [
        {
          "internalType": "address",
          "name": "_minter",
          "type": "address"
        }
      ],
      "name": "isMinter",
      "outputs": [
        {
          "internalType": "bool",
          "name": "",
          "type": "bool"
        }
      ],
      "stateMutability": "view",
      "type": "function"
    },
    {
      "inputs": [
        {
          "internalType": "address",
          "name": "_position",
          "type": "address"
        }
      ],
      "name": "isPosition",
      "outputs": [
        {
          "internalType": "address",
          "name": "",
          "type": "address"
        }
      ],
      "stateMutability": "view",
      "type": "function"
    },
    {
      "inputs": [
        {
          "internalType": "address",
          "name": "_target",
          "type": "address"
        },
        {
          "internalType": "uint256",
          "name": "_amount",
          "type": "uint256"
        }
      ],
      "name": "mint",
      "outputs": [],
      "stateMutability": "nonpayable",
      "type": "function"
    },
    {
      "inputs": [
        {
          "internalType": "address",
          "name": "_target",
          "type": "address"
        },
        {
          "internalType": "uint256",
          "name": "_amount",
          "type": "uint256"
        },
        {
          "internalType": "uint32",
          "name": "_reservePPM",
          "type": "uint32"
        },
        {
          "internalType": "uint32",
          "name": "_feesPPM",
          "type": "uint32"
        }
      ],
      "name": "mint",
      "outputs": [],
      "stateMutability": "nonpayable",
      "type": "function"
    },
    {
      "inputs": [],
      "name": "minterReserve",
      "outputs": [
        {
          "internalType": "uint256",
          "name": "",
          "type": "uint256"
        }
      ],
      "stateMutability": "view",
      "type": "function"
    },
    {
      "inputs": [
        {
          "internalType": "address",
          "name": "",
          "type": "address"
        }
      ],
      "name": "minters",
      "outputs": [
        {
          "internalType": "uint256",
          "name": "",
          "type": "uint256"
        }
      ],
      "stateMutability": "view",
      "type": "function"
    },
    {
      "inputs": [],
      "name": "name",
      "outputs": [
        {
          "internalType": "string",
          "name": "",
          "type": "string"
        }
      ],
      "stateMutability": "pure",
      "type": "function"
    },
    {
      "inputs": [
        {
          "internalType": "uint256",
          "name": "_amount",
          "type": "uint256"
        }
      ],
      "name": "notifyLoss",
      "outputs": [],
      "stateMutability": "nonpayable",
      "type": "function"
    },
    {
      "inputs": [
        {
          "internalType": "address",
          "name": "",
          "type": "address"
        }
      ],
      "name": "positions",
      "outputs": [
        {
          "internalType": "address",
          "name": "",
          "type": "address"
        }
      ],
      "stateMutability": "view",
      "type": "function"
    },
    {
      "inputs": [
        {
          "internalType": "address",
          "name": "_position",
          "type": "address"
        }
      ],
      "name": "registerPosition",
      "outputs": [],
      "stateMutability": "nonpayable",
      "type": "function"
    },
    {
      "inputs": [],
      "name": "reserve",
      "outputs": [
        {
          "internalType": "contract IReserve",
          "name": "",
          "type": "address"
        }
      ],
      "stateMutability": "view",
      "type": "function"
    },
    {
      "inputs": [
        {
          "internalType": "address",
          "name": "_factory",
          "type": "address"
        }
      ],
      "name": "setPositionFactory",
      "outputs": [],
      "stateMutability": "nonpayable",
      "type": "function"
    },
    {
      "inputs": [
        {
          "internalType": "address",
          "name": "_minter",
          "type": "address"
        },
        {
          "internalType": "uint256",
          "name": "_applicationPeriod",
          "type": "uint256"
        },
        {
          "internalType": "uint256",
          "name": "_applicationFee",
          "type": "uint256"
        },
        {
          "internalType": "string",
          "name": "_message",
          "type": "string"
        }
      ],
      "name": "suggestMinter",
      "outputs": [],
      "stateMutability": "nonpayable",
      "type": "function"
    },
    {
      "inputs": [],
      "name": "symbol",
      "outputs": [
        {
          "internalType": "string",
          "name": "",
          "type": "string"
        }
      ],
      "stateMutability": "pure",
      "type": "function"
    },
    {
      "inputs": [],
      "name": "totalSupply",
      "outputs": [
        {
          "internalType": "uint256",
          "name": "",
          "type": "uint256"
        }
      ],
      "stateMutability": "view",
      "type": "function"
    },
    {
      "inputs": [
        {
          "internalType": "address",
          "name": "recipient",
          "type": "address"
        },
        {
          "internalType": "uint256",
          "name": "amount",
          "type": "uint256"
        }
      ],
      "name": "transfer",
      "outputs": [
        {
          "internalType": "bool",
          "name": "",
          "type": "bool"
        }
      ],
      "stateMutability": "nonpayable",
      "type": "function"
    },
    {
      "inputs": [
        {
          "internalType": "address",
          "name": "recipient",
          "type": "address"
        },
        {
          "internalType": "uint256",
          "name": "amount",
          "type": "uint256"
        },
        {
          "internalType": "bytes",
          "name": "data",
          "type": "bytes"
        }
      ],
      "name": "transferAndCall",
      "outputs": [
        {
          "internalType": "bool",
          "name": "",
          "type": "bool"
        }
      ],
      "stateMutability": "nonpayable",
      "type": "function"
    },
    {
      "inputs": [
        {
          "internalType": "address",
          "name": "sender",
          "type": "address"
        },
        {
          "internalType": "address",
          "name": "recipient",
          "type": "address"
        },
        {
          "internalType": "uint256",
          "name": "amount",
          "type": "uint256"
        }
      ],
      "name": "transferFrom",
      "outputs": [
        {
          "internalType": "bool",
          "name": "",
          "type": "bool"
        }
      ],
      "stateMutability": "nonpayable",
      "type": "function"
    }
  ],
  "transactionHash": "0x6b90a4329ad072c054d71f5a94a32f846d51c0ea03dddde3b50e9176cb8c782d",
  "args": [
    900
  ],
  "numDeployments": 1,
  "solcInputHash": "76562a622c535c74b61575acb5b86417",
  "bytecode": "0x60e06040523480156200001157600080fd5b50604051620032b3380380620032b383398101604081905262000034916200009d565b601260805260a081905260405130906200004e906200008f565b6001600160a01b039091168152602001604051809103906000f0801580156200007b573d6000803e3d6000fd5b506001600160a01b031660c05250620000b7565b6117988062001b1b83390190565b600060208284031215620000b057600080fd5b5051919050565b60805160a05160c0516119e06200013b600039600081816104bc015281816105a6015281816108120152818161085501528181610880015281816108c30152818161098901528181610bc401528181610c7f01528181610eb001528181611050015261114c0152600081816102820152610f070152600061030001526119e06000f3fe608060405234801561001057600080fd5b50600436106101f05760003560e01c806395d89b411161010f578063b8f8c133116100a2578063d38bb00911610071578063d38bb009146104f1578063dd62ed3e146104f9578063ea889b8a14610532578063f46eccc41461054557600080fd5b8063b8f8c13314610491578063cbca628e146104a4578063cd3293de146104b7578063d1a15ff1146104de57600080fd5b8063a47d75ad116100de578063a47d75ad14610445578063a9059cbb14610458578063aa271e1a1461046b578063b52c696d1461047e57600080fd5b806395d89b41146103ec5780639b404da61461040c5780639cc063581461041f5780639dc29fac1461043257600080fd5b80634000aea01161018757806361f3d1101161015657806361f3d1101461039857806370a08231146103ab57806376c7a3c7146103d457806391a0ac6a146103e457600080fd5b80634000aea01461033457806340c10f191461034757806342966c681461035c57806355f575101461036f57600080fd5b80631a46c7e9116101c35780631a46c7e91461027d57806323b872dd146102a45780632748913b146102b7578063313ce567146102fb57600080fd5b806306fdde03146101f5578063095ea7b31461023157806316e0e5381461025457806318160ddd14610275575b600080fd5b60408051808201909152600e81526d4672616e6b656e636f696e20563160901b60208201525b604051610228919061143d565b60405180910390f35b61024461023f3660046114ae565b610565565b6040519015158152602001610228565b6102676102623660046114ec565b61057c565b604051908152602001610228565b600254610267565b6102677f000000000000000000000000000000000000000000000000000000000000000081565b6102446102b2366004611518565b61061e565b6102e36102c5366004611554565b6001600160a01b039081166000908152600560205260409020541690565b6040516001600160a01b039091168152602001610228565b6103227f000000000000000000000000000000000000000000000000000000000000000081565b60405160ff9091168152602001610228565b6102446103423660046115bf565b6106c5565b61035a6103553660046114ae565b61075b565b005b61035a61036a366004611619565b6107b6565b6102e361037d366004611554565b6005602052600090815260409020546001600160a01b031681565b61035a6103a6366004611619565b6107c3565b6102676103b9366004611554565b6001600160a01b031660009081526020819052604090205490565b610267683635c9adc5dea0000081565b6102676108b9565b6040805180820190915260048152632d21a42360e11b602082015261021b565b61035a61041a366004611632565b61091f565b61035a61042d3660046114ec565b610a9b565b61035a6104403660046114ae565b610b1c565b6102676104533660046114ec565b610b73565b6102446104663660046114ae565b610cc2565b610244610479366004611554565b610ccf565b61035a61048c366004611554565b610d10565b61035a61049f366004611554565b610d7b565b61035a6104b23660046116e4565b610de3565b6102e37f000000000000000000000000000000000000000000000000000000000000000081565b61035a6104ec366004611731565b610f05565b6102676110d2565b610267610507366004611788565b6001600160a01b03918216600090815260016020908152604080832093909416825291909152205490565b6102676105403660046117b2565b6110ea565b610267610553366004611554565b60046020526000908152604090205481565b60006105723384846111ab565b5060015b92915050565b600080620f42406105938563ffffffff8616611804565b61059d9190611823565b905060006105e07f00000000000000000000000000000000000000000000000000000000000000006001600160a01b031660009081526020819052604090205490565b90506105ea6110d2565b811015610616576105f96110d2565b6106038284611804565b61060d9190611823565b92505050610576565b509050610576565b600061062b84848461120d565b6001600160a01b0384166000908152600160209081526040808320338452909152902054600160ff1b8110156106ba57828110156106a65760405162461bcd60e51b81526020600482015260136024820152720c2e0e0e4deecc2d840dcdee840cadcdeeaced606b1b60448201526064015b60405180910390fd5b6106ba85336106b58685611845565b6111ab565b506001949350505050565b6000806106d28686610cc2565b9050801561075257604051635260769b60e11b81526001600160a01b0387169063a4c0ed369061070c903390899089908990600401611885565b6020604051808303816000875af115801561072b573d6000803e3d6000fd5b505050506040513d601f19601f8201168201806040525081019061074f91906118ad565b90505b95945050505050565b61076433610ccf565b8061078c57503360009081526005602052604090205461078c906001600160a01b0316610ccf565b6107a85760405162461bcd60e51b815260040161069d906118cf565b6107b2828261131e565b5050565b6107c033826113bb565b50565b6107cc33610ccf565b806107f45750336000908152600560205260409020546107f4906001600160a01b0316610ccf565b6108105760405162461bcd60e51b815260040161069d906118cf565b7f00000000000000000000000000000000000000000000000000000000000000006001600160a01b031660009081526020819052604090205481811061087b576107b27f0000000000000000000000000000000000000000000000000000000000000000338461120d565b6108a67f0000000000000000000000000000000000000000000000000000000000000000338361120d565b6107b2336108b48385611845565b61131e565b6001600160a01b037f00000000000000000000000000000000000000000000000000000000000000001660009081526020819052604081205460006108fc6110d2565b905080821161090e5760009250505090565b6109188183611845565b9250505090565b6001600160a01b0385166000908152600460205260409020544211156109725760405162461bcd60e51b8152602060048201526008602482015267746f6f206c61746560c01b604482015260640161069d565b604051635e1121cf60e01b81526001600160a01b037f00000000000000000000000000000000000000000000000000000000000000001690635e1121cf906109c2903390889088906004016118fc565b602060405180830381865afa1580156109df573d6000803e3d6000fd5b505050506040513d601f19601f82011682018060405250810190610a0391906118ad565b610a3f5760405162461bcd60e51b815260206004820152600d60248201526c1b9bdd081c5d585b1a599a5959609a1b604482015260640161069d565b6001600160a01b03851660008181526004602052604080822091909155517fd60c86e83346fdbe3124cb7d1cba32973a9f62d05c4ec801bfe6c09d1038038190610a8c9085908590611956565b60405180910390a25050505050565b610aa433610ccf565b80610acc575033600090815260056020526040902054610acc906001600160a01b0316610ccf565b610ae85760405162461bcd60e51b815260040161069d906118cf565b610af233836113bb565b610b0263ffffffff821683611804565b60036000828254610b139190611845565b90915550505050565b610b2533610ccf565b80610b4d575033600090815260056020526040902054610b4d906001600160a01b0316610ccf565b610b695760405162461bcd60e51b815260040161069d906118cf565b6107b282826113bb565b6000610b7e33610ccf565b80610ba6575033600090815260056020526040902054610ba6906001600160a01b0316610ccf565b610bc25760405162461bcd60e51b815260040161069d906118cf565b7f00000000000000000000000000000000000000000000000000000000000000006001600160a01b031660009081526020819052604081205490610c046110d2565b90506000818310610c1b578463ffffffff16610c36565b81610c2c8463ffffffff8816611804565b610c369190611823565b90506000610c4782620f4240611845565b610c519088611823565b9050610c6363ffffffff871682611804565b60036000828254610c749190611845565b90915550610cae90507f000000000000000000000000000000000000000000000000000000000000000033610ca98a85611845565b61120d565b610cb833826113bb565b9695505050505050565b600061057233848461120d565b6001600160a01b038116600090815260046020526040812054158015906105765750506001600160a01b031660009081526004602052604090205442101590565b610d1933610ccf565b610d525760405162461bcd60e51b815260206004820152600a6024820152693737ba1036b4b73a32b960b11b604482015260640161069d565b6001600160a01b0316600090815260056020526040902080546001600160a01b03191633179055565b60025415610dc15760405162461bcd60e51b81526020600482015260136024820152727365742061742067656e65736973206f6e6c7960681b604482015260640161069d565b600680546001600160a01b0319166001600160a01b0392909216919091179055565b610dec33610ccf565b80610e14575033600090815260056020526040902054610e14906001600160a01b0316610ccf565b610e305760405162461bcd60e51b815260040161069d906118cf565b6000610e4263ffffffff841685611804565b90506000620f4240610e5783620f423f611972565b610e619190611823565b90506000620f4240610e7963ffffffff861688611804565b610e8690620f423f611972565b610e909190611823565b9050610eab8782610ea1858a611845565b6108b49190611845565b610ed97f00000000000000000000000000000000000000000000000000000000000000006108b48385611972565b610ee682620f4240611804565b60036000828254610ef79190611972565b909155505050505050505050565b7f000000000000000000000000000000000000000000000000000000000000000084101580610f345750600254155b80610f4957506006546001600160a01b031633145b610f885760405162461bcd60e51b815260206004820152601060248201526f1c195c9a5bd9081d1bdbc81cda1bdc9d60821b604482015260640161069d565b683635c9adc5dea0000083101580610fa05750600254155b80610fb557506006546001600160a01b031633145b610fef5760405162461bcd60e51b815260206004820152600b60248201526a66656520746f6f206c6f7760a81b604482015260640161069d565b6001600160a01b0385166000908152600460205260409020541561104a5760405162461bcd60e51b8152602060048201526012602482015271185b1c9958591e481c9959da5cdd195c995960721b604482015260640161069d565b611075337f00000000000000000000000000000000000000000000000000000000000000008561120d565b61107f8442611972565b6001600160a01b038616600081815260046020526040908190209290925590517f97326258efdae63280617ca33884e507791c2abeed7b82acd77f1853394ef94b90610a8c90879087908790879061198a565b6000620f42406003546110e59190611823565b905090565b60006110f533610ccf565b8061111d57503360009081526005602052604090205461111d906001600160a01b0316610ccf565b6111395760405162461bcd60e51b815260040161069d906118cf565b6000611145848461057c565b90506111727f0000000000000000000000000000000000000000000000000000000000000000868361120d565b61117c85856113bb565b61118c63ffffffff841685611804565b6003600082825461119d9190611845565b909155509095945050505050565b6001600160a01b0383811660008181526001602090815260408083209487168084529482529182902085905590518481527f8c5be1e5ebec7d5bd14f71427d1e84f3dd0314c0f7b2291e5b200ac8c7c3b92591015b60405180910390a3505050565b6001600160a01b03821661122057600080fd5b6001600160a01b03831660009081526020819052604090205481111561127d5760405162461bcd60e51b81526020600482015260126024820152710c4c2d8c2dcc6ca40dcdee840cadcdeeaced60731b604482015260640161069d565b6001600160a01b038316600090815260208190526040812080548392906112a5908490611845565b90915550506001600160a01b038216600090815260208190526040812080548392906112d2908490611972565b92505081905550816001600160a01b0316836001600160a01b03167fddf252ad1be2c89b69c2b068fc378daa952ba7f163c4a11628f55a4df523b3ef8360405161120091815260200190565b6001600160a01b03821661133157600080fd5b80600260008282546113439190611972565b90915550506001600160a01b03821660009081526020819052604081208054839290611370908490611972565b90915550506040518181526001600160a01b038316906000907fddf252ad1be2c89b69c2b068fc378daa952ba7f163c4a11628f55a4df523b3ef906020015b60405180910390a35050565b80600260008282546113cd9190611845565b90915550506001600160a01b038216600090815260208190526040812080548392906113fa908490611845565b90915550506040518181526000906001600160a01b038416907fddf252ad1be2c89b69c2b068fc378daa952ba7f163c4a11628f55a4df523b3ef906020016113af565b600060208083528351808285015260005b8181101561146a5785810183015185820160400152820161144e565b8181111561147c576000604083870101525b50601f01601f1916929092016040019392505050565b80356001600160a01b03811681146114a957600080fd5b919050565b600080604083850312156114c157600080fd5b6114ca83611492565b946020939093013593505050565b803563ffffffff811681146114a957600080fd5b600080604083850312156114ff57600080fd5b8235915061150f602084016114d8565b90509250929050565b60008060006060848603121561152d57600080fd5b61153684611492565b925061154460208501611492565b9150604084013590509250925092565b60006020828403121561156657600080fd5b61156f82611492565b9392505050565b60008083601f84011261158857600080fd5b50813567ffffffffffffffff8111156115a057600080fd5b6020830191508360208285010111156115b857600080fd5b9250929050565b600080600080606085870312156115d557600080fd5b6115de85611492565b935060208501359250604085013567ffffffffffffffff81111561160157600080fd5b61160d87828801611576565b95989497509550505050565b60006020828403121561162b57600080fd5b5035919050565b60008060008060006060868803121561164a57600080fd5b61165386611492565b9450602086013567ffffffffffffffff8082111561167057600080fd5b818801915088601f83011261168457600080fd5b81358181111561169357600080fd5b8960208260051b85010111156116a857600080fd5b6020830196508095505060408801359150808211156116c657600080fd5b506116d388828901611576565b969995985093965092949392505050565b600080600080608085870312156116fa57600080fd5b61170385611492565b935060208501359250611718604086016114d8565b9150611726606086016114d8565b905092959194509250565b60008060008060006080868803121561174957600080fd5b61175286611492565b94506020860135935060408601359250606086013567ffffffffffffffff81111561177c57600080fd5b6116d388828901611576565b6000806040838503121561179b57600080fd5b6117a483611492565b915061150f60208401611492565b6000806000606084860312156117c757600080fd5b6117d084611492565b9250602084013591506117e5604085016114d8565b90509250925092565b634e487b7160e01b600052601160045260246000fd5b600081600019048311821515161561181e5761181e6117ee565b500290565b60008261184057634e487b7160e01b600052601260045260246000fd5b500490565b600082821015611857576118576117ee565b500390565b81835281816020850137506000828201602090810191909152601f909101601f19169091010190565b60018060a01b0385168152836020820152606060408201526000610cb860608301848661185c565b6000602082840312156118bf57600080fd5b8151801515811461156f57600080fd5b6020808252601390820152723737ba1030b8383937bb32b21036b4b73a32b960691b604082015260600190565b6001600160a01b03848116825260406020808401829052908301849052600091859160608501845b87811015611949578361193686611492565b1682529382019390820190600101611924565b5098975050505050505050565b60208152600061196a60208301848661185c565b949350505050565b60008219821115611985576119856117ee565b500190565b848152836020820152606060408201526000610cb860608301848661185c56fea26469706673582212202175348d05a6e71d5af27813be6dabb3b1a89fc73fea1f227c0d0be458c6f08464736f6c634300080d003360c060405234801561001057600080fd5b5060405161179838038061179883398101604081905261002f91610045565b60126080526001600160a01b031660a052610075565b60006020828403121561005757600080fd5b81516001600160a01b038116811461006e57600080fd5b9392505050565b60805160a0516116d46100c4600039600081816103df0152818161053d015281816106c60152818161098801528181610a3401528181610b2a0152610c310152600061027301526116d46000f3fe608060405234801561001057600080fd5b506004361061018e5760003560e01c80635e1121cf116100de578063a9059cbb11610097578063c4d4803a11610071578063c4d4803a146103da578063d8bff5a514610401578063dd62ed3e14610414578063f97ed5091461044d57600080fd5b8063a9059cbb146103ac578063ad08ce5b146103bf578063b0c2bf06146103d257600080fd5b80635e1121cf1461032157806370a082311461033457806395d89b411461035d5780639823004f1461037c578063a035b1fe14610391578063a4c0ed361461039957600080fd5b806323b872dd1161014b5780633c835ab0116101255780633c835ab0146102a75780633ec16194146102ba5780634000aea0146102cd578063587cde1e146102e057600080fd5b806323b872dd1461023e578063250f25f414610251578063313ce5671461026e57600080fd5b806306fdde0314610193578063095ea7b3146101d75780630d15fd77146101fa578063151535b91461021057806318160ddd146102235780631e9a69501461022b575b600080fd5b6040805180820190915260168152754672616e6b656e636f696e20506f6f6c20536861726560501b60208201525b6040516101ce91906112ff565b60405180910390f35b6101ea6101e5366004611370565b610455565b60405190151581526020016101ce565b61020261046c565b6040519081526020016101ce565b6101ea61021e36600461139a565b6104b5565b600254610202565b610202610239366004611370565b6104ec565b6101ea61024c3660046113b5565b6105b2565b610259600381565b60405163ffffffff90911681526020016101ce565b6102957f000000000000000000000000000000000000000000000000000000000000000081565b60405160ff90911681526020016101ce565b6101ea6102b53660046113f1565b610659565b6102026102c8366004611424565b6106bf565b6101ea6102db36600461143d565b61074c565b6103096102ee36600461139a565b6004602052600090815260409020546001600160a01b031681565b6040516001600160a01b0390911681526020016101ce565b6101ea61032f3660046114c4565b6107e2565b61020261034236600461139a565b6001600160a01b031660009081526020819052604090205490565b60408051808201909152600381526246505360e81b60208201526101c1565b61038f61038a36600461139a565b61091b565b005b610202610972565b6101ea6103a736600461143d565b610a27565b6101ea6103ba366004611370565b610c12565b6102026103cd366004611424565b610c1f565b610202600581565b6103097f000000000000000000000000000000000000000000000000000000000000000081565b61020261040f36600461139a565b610d46565b6102026104223660046113f1565b6001600160a01b03918216600090815260016020908152604080832093909416825291909152205490565b6101ea610d96565b6000610462338484610da1565b5060015b92915050565b6003546000906104869067ffffffffffffffff1643611560565b6002546104939190611577565b6003546104b09190600160401b90046001600160c01b0316611596565b905090565b6001600160a01b03811660009081526005602081905260408220546104e49067ffffffffffffffff1643611560565b101592915050565b60006104f7336104b5565b61050057600080fd5b600061050b83610c1f565b90506105173384610e03565b60405163a9059cbb60e01b81526001600160a01b038581166004830152602482018390527f0000000000000000000000000000000000000000000000000000000000000000169063a9059cbb906044016020604051808303816000875af1158015610586573d6000803e3d6000fd5b505050506040513d601f19601f820116820180604052508101906105aa91906115ae565b509392505050565b60006105bf848484610e99565b6001600160a01b0384166000908152600160209081526040808320338452909152902054600160ff1b81101561064e578281101561063a5760405162461bcd60e51b81526020600482015260136024820152720c2e0e0e4deecc2d840dcdee840cadcdeeaced606b1b60448201526064015b60405180910390fd5b61064e85336106498685611560565b610da1565b506001949350505050565b6000826001600160a01b0316826001600160a01b03160361067c57506001610466565b6001600160a01b03821661069257506000610466565b6001600160a01b038083166000908152600460205260409020546106b891859116610659565b9050610466565b60006104667f00000000000000000000000000000000000000000000000000000000000000006001600160a01b03166391a0ac6a6040518163ffffffff1660e01b8152600401602060405180830381865afa158015610722573d6000803e3d6000fd5b505050506040513d601f19601f8201168201806040525081019061074691906115d0565b83610fb5565b6000806107598686610c12565b905080156107d957604051635260769b60e11b81526001600160a01b0387169063a4c0ed36906107939033908990899089906004016115e9565b6020604051808303816000875af11580156107b2573d6000803e3d6000fd5b505050506040513d601f19601f820116820180604052508101906107d691906115ae565b90505b95945050505050565b6000806107ee85610d46565b905060005b838110156108ef57600085858381811061080f5761080f611631565b9050602002016020810190610824919061139a565b9050866001600160a01b0316816001600160a01b03160361084457600080fd5b61084e8782610659565b61085757600080fd5b6000610864836001611596565b90505b858110156108c55786868281811061088157610881611631565b9050602002016020810190610896919061139a565b6001600160a01b0316826001600160a01b0316036108b357600080fd5b806108bd81611647565b915050610867565b506108cf81610d46565b6108d99084611596565b92505080806108e790611647565b9150506107f3565b506108f861046c565b6109049061012c611577565b61091082612710611577565b101595945050505050565b3360008181526004602052604080822080546001600160a01b0319166001600160a01b03861690811790915590519092917fd000f39f92c3ed77f890f16b6ced1555e0ab2cdf470522d2210de67d8c83d45b91a350565b600061097d60025490565b670de0b6b3a76400007f00000000000000000000000000000000000000000000000000000000000000006001600160a01b03166391a0ac6a6040518163ffffffff1660e01b8152600401602060405180830381865afa1580156109e4573d6000803e3d6000fd5b505050506040513d601f19601f82011682018060405250810190610a0891906115d0565b610a13906003611577565b610a1d9190611577565b6104b09190611676565b6000336001600160a01b037f00000000000000000000000000000000000000000000000000000000000000001614610a975760405162461bcd60e51b815260206004820152601360248201527231b0b63632b91036bab9ba103132903d31b43360691b6044820152606401610631565b600254600003610b2057670de0b6b3a7640000841015610af95760405162461bcd60e51b815260206004820152601960248201527f696e697469616c206465706f736974206d757374203e3d2031000000000000006044820152606401610631565b610b0b85670de0b6b3a7640000610ff0565b610b1d670de0b6b3a764000085611560565b93505b610bbf85610bba867f00000000000000000000000000000000000000000000000000000000000000006001600160a01b03166391a0ac6a6040518163ffffffff1660e01b8152600401602060405180830381865afa158015610b86573d6000803e3d6000fd5b505050506040513d601f19601f82011682018060405250810190610baa91906115d0565b610bb49190611560565b87610fb5565b610ff0565b6001605a1b610bcd60025490565b1061064e5760405162461bcd60e51b81526020600482015260156024820152741d1bdd185b081cdd5c1c1b1e48195e18d959591959605a1b6044820152606401610631565b6000610462338484610e99565b600080610c2b60025490565b905060007f00000000000000000000000000000000000000000000000000000000000000006001600160a01b03166391a0ac6a6040518163ffffffff1660e01b8152600401602060405180830381865afa158015610c8d573d6000803e3d6000fd5b505050506040513d601f19601f82011682018060405250810190610cb191906115d0565b905081610cc6670de0b6b3a764000086611596565b10610d055760405162461bcd60e51b815260206004820152600f60248201526e746f6f206d616e792073686172657360881b6044820152606401610631565b6000610d118584611560565b90506000610d3083610d2b610d268588611091565b6110b7565b6110c8565b9050610d3c8184611560565b9695505050505050565b6001600160a01b038116600090815260056020526040812054610d739067ffffffffffffffff1643611560565b6001600160a01b0383166000908152602081905260409020546104669190611577565b60006104b0336104b5565b6001600160a01b0383811660008181526001602090815260408083209487168084529482529182902085905590518481527f8c5be1e5ebec7d5bd14f71427d1e84f3dd0314c0f7b2291e5b200ac8c7c3b92591015b60405180910390a3505050565b610e0f826000836110dd565b8060026000828254610e219190611560565b90915550506001600160a01b03821660009081526020819052604081208054839290610e4e908490611560565b90915550506040518181526000906001600160a01b038416907fddf252ad1be2c89b69c2b068fc378daa952ba7f163c4a11628f55a4df523b3ef906020015b60405180910390a35050565b6001600160a01b038216610eac57600080fd5b610eb78383836110dd565b6001600160a01b038316600090815260208190526040902054811115610f145760405162461bcd60e51b81526020600482015260126024820152710c4c2d8c2dcc6ca40dcdee840cadcdeeaced60731b6044820152606401610631565b6001600160a01b03831660009081526020819052604081208054839290610f3c908490611560565b90915550506001600160a01b03821660009081526020819052604081208054839290610f69908490611596565b92505081905550816001600160a01b0316836001600160a01b03167fddf252ad1be2c89b69c2b068fc378daa952ba7f163c4a11628f55a4df523b3ef83604051610df691815260200190565b600080610fc160025490565b90506000610fe482610d2b610fdf610fd9888a611596565b89611091565b611103565b90506107d98282611560565b6001600160a01b03821661100357600080fd5b61100f600083836110dd565b80600260008282546110219190611596565b90915550506001600160a01b0382166000908152602081905260408120805483929061104e908490611596565b90915550506040518181526001600160a01b038316906000907fddf252ad1be2c89b69c2b068fc378daa952ba7f163c4a11628f55a4df523b3ef90602001610e8d565b6000816110a6670de0b6b3a764000085611577565b6110b09190611676565b9392505050565b60006104666110c683846110c8565b835b6000670de0b6b3a76400006110a68385611577565b80156110fe5760006110ef83836111a8565b90506110fc84838361125b565b505b505050565b6000670de0b6b3a764000081805b829150600061112961112385866110c8565b856110c8565b905061116284610d2b61113d896002611577565b6111479085611596565b89611153866002611577565b61115d9190611596565b611091565b935083831161118357662386f26fc1000061117d8486611560565b11611197565b662386f26fc100006111958585611560565b115b915050806111115750909392505050565b60006001600160a01b038316156112535760006111c484610d46565b90506000836111e8866001600160a01b031660009081526020819052604090205490565b6111f29190611596565b90506111fe8183611676565b6112089043611560565b6001600160a01b0386166000908152600560205260409020805467ffffffffffffffff191667ffffffffffffffff9290921691909117905561124a818361168a565b92505050610466565b506000610466565b60006001600160a01b038416156112aa576001600160a01b038416600090815260056020526040902054839061129b9067ffffffffffffffff1643611560565b6112a59190611577565b6112ad565b60005b905080826112b961046c565b6112c39190611560565b6112cd9190611560565b4367ffffffffffffffff166001600160c01b0391909116600160401b0267ffffffffffffffff19161760035550505050565b600060208083528351808285015260005b8181101561132c57858101830151858201604001528201611310565b8181111561133e576000604083870101525b50601f01601f1916929092016040019392505050565b80356001600160a01b038116811461136b57600080fd5b919050565b6000806040838503121561138357600080fd5b61138c83611354565b946020939093013593505050565b6000602082840312156113ac57600080fd5b6110b082611354565b6000806000606084860312156113ca57600080fd5b6113d384611354565b92506113e160208501611354565b9150604084013590509250925092565b6000806040838503121561140457600080fd5b61140d83611354565b915061141b60208401611354565b90509250929050565b60006020828403121561143657600080fd5b5035919050565b6000806000806060858703121561145357600080fd5b61145c85611354565b935060208501359250604085013567ffffffffffffffff8082111561148057600080fd5b818701915087601f83011261149457600080fd5b8135818111156114a357600080fd5b8860208285010111156114b557600080fd5b95989497505060200194505050565b6000806000604084860312156114d957600080fd5b6114e284611354565b9250602084013567ffffffffffffffff808211156114ff57600080fd5b818601915086601f83011261151357600080fd5b81358181111561152257600080fd5b8760208260051b850101111561153757600080fd5b6020830194508093505050509250925092565b634e487b7160e01b600052601160045260246000fd5b6000828210156115725761157261154a565b500390565b60008160001904831182151516156115915761159161154a565b500290565b600082198211156115a9576115a961154a565b500190565b6000602082840312156115c057600080fd5b815180151581146110b057600080fd5b6000602082840312156115e257600080fd5b5051919050565b6001600160a01b0385168152602081018490526060604082018190528101829052818360808301376000818301608090810191909152601f909201601f191601019392505050565b634e487b7160e01b600052603260045260246000fd5b6000600182016116595761165961154a565b5060010190565b634e487b7160e01b600052601260045260246000fd5b60008261168557611685611660565b500490565b60008261169957611699611660565b50069056fea2646970667358221220ac89e78ad57a66e58f305e3cdca1d0322f8915f51fb63779beabfc97c625b5ad64736f6c634300080d0033",
  "devdoc": {
    "kind": "dev",
    "methods": {
      "allowance(address,address)": {
        "details": "See `IERC20.allowance`."
      },
      "approve(address,uint256)": {
        "details": "See `IERC20.approve`. Requirements: - `spender` cannot be the zero address."
      },
      "balanceOf(address)": {
        "details": "See `IERC20.balanceOf`."
      },
      "equity()": {
        "returns": {
          "_0": "ZCHF in dec18 format"
        }
      },
      "mint(address,uint256)": {
        "params": {
          "_amount": "amount in dec18 format",
          "_target": "address that receives ZCHF if it's a minter"
        }
      },
      "mint(address,uint256,uint32,uint32)": {
        "params": {
          "_amount": "amount ZCHF before fees and pool contribution requested                      number in dec18 format",
          "_feesPPM": "fees in parts per million",
          "_reservePPM": "reserve requirement in parts per million",
          "_target": "address that receives ZCHF if it's a minter"
        }
      },
      "suggestMinter(address,uint256,uint256,string)": {
        "params": {
          "_applicationFee": "application fee in parts per million",
          "_applicationPeriod": "application period in seconds",
          "_message": "message string",
          "_minter": "address of the position want to add to the minters"
        }
      },
      "totalSupply()": {
        "details": "See `IERC20.totalSupply`."
      },
      "transfer(address,uint256)": {
        "details": "See `IERC20.transfer`. Requirements: - `recipient` cannot be the zero address. - the caller must have a balance of at least `amount`."
      },
      "transferFrom(address,address,uint256)": {
        "details": "See `IERC20.transferFrom`. Emits an `Approval` event indicating the updated allowance. This is not required by the EIP. See the note at the beginning of `ERC20`; Requirements: - `sender` and `recipient` cannot be the zero address. - `sender` must have a balance of at least `value`. - the caller must have allowance for `sender`'s tokens of at least `amount`."
      }
    },
    "version": 1
  },
  "userdoc": {
    "kind": "user",
    "methods": {
      "equity()": {
        "notice": "Get reserve balance (amount of ZCHF)"
      },
      "mint(address,uint256)": {
        "notice": "Mint amount of ZCHF for address _target"
      },
      "mint(address,uint256,uint32,uint32)": {
        "notice": "Mint amount of ZCHF for address _target"
      },
      "suggestMinter(address,uint256,uint256,string)": {
        "notice": "Minting is suggested either by (1) person applying for a new original position, or (2) by the minting hub when cloning a position. The minting hub has the priviledge to call with zero application fee and period."
      }
    },
    "version": 1
  },
  "storageLayout": {
    "storage": [
      {
        "astId": 10,
        "contract": "contracts/Frankencoin.sol:Frankencoin",
        "label": "_balances",
        "offset": 0,
        "slot": "0",
        "type": "t_mapping(t_address,t_uint256)"
      },
      {
        "astId": 16,
        "contract": "contracts/Frankencoin.sol:Frankencoin",
        "label": "_allowances",
        "offset": 0,
        "slot": "1",
        "type": "t_mapping(t_address,t_mapping(t_address,t_uint256))"
      },
      {
        "astId": 18,
        "contract": "contracts/Frankencoin.sol:Frankencoin",
        "label": "_totalSupply",
        "offset": 0,
        "slot": "2",
        "type": "t_uint256"
      },
      {
        "astId": 1060,
        "contract": "contracts/Frankencoin.sol:Frankencoin",
        "label": "minterReserveE6",
        "offset": 0,
        "slot": "3",
        "type": "t_uint256"
      },
      {
        "astId": 1064,
        "contract": "contracts/Frankencoin.sol:Frankencoin",
        "label": "minters",
        "offset": 0,
        "slot": "4",
        "type": "t_mapping(t_address,t_uint256)"
      },
      {
        "astId": 1068,
        "contract": "contracts/Frankencoin.sol:Frankencoin",
        "label": "positions",
        "offset": 0,
        "slot": "5",
        "type": "t_mapping(t_address,t_address)"
      },
      {
        "astId": 1070,
        "contract": "contracts/Frankencoin.sol:Frankencoin",
        "label": "positionFactory",
        "offset": 0,
        "slot": "6",
        "type": "t_address"
      }
    ],
    "types": {
      "t_address": {
        "encoding": "inplace",
        "label": "address",
        "numberOfBytes": "20"
      },
      "t_mapping(t_address,t_address)": {
        "encoding": "mapping",
        "key": "t_address",
        "label": "mapping(address => address)",
        "numberOfBytes": "32",
        "value": "t_address"
      },
      "t_mapping(t_address,t_mapping(t_address,t_uint256))": {
        "encoding": "mapping",
        "key": "t_address",
        "label": "mapping(address => mapping(address => uint256))",
        "numberOfBytes": "32",
        "value": "t_mapping(t_address,t_uint256)"
      },
      "t_mapping(t_address,t_uint256)": {
        "encoding": "mapping",
        "key": "t_address",
        "label": "mapping(address => uint256)",
        "numberOfBytes": "32",
        "value": "t_uint256"
      },
      "t_uint256": {
        "encoding": "inplace",
        "label": "uint256",
        "numberOfBytes": "32"
      }
    }
  }
}