{
  "address": "0x5037Df9b4Fb98FE5d4e106Ba615D45d625138FAF",
  "abi": [
    {
      "inputs": [
        {
          "internalType": "address",
          "name": "_reserve",
          "type": "address"
        }
      ],
      "stateMutability": "nonpayable",
      "type": "constructor"
    },
    {
      "anonymous": false,
      "inputs": [
        {
          "indexed": true,
          "internalType": "address",
          "name": "owner",
          "type": "address"
        },
        {
          "indexed": true,
          "internalType": "address",
          "name": "spender",
          "type": "address"
        },
        {
          "indexed": false,
          "internalType": "uint256",
          "name": "value",
          "type": "uint256"
        }
      ],
      "name": "Approval",
      "type": "event"
    },
    {
      "anonymous": false,
      "inputs": [
        {
          "indexed": true,
          "internalType": "address",
          "name": "minter",
          "type": "address"
        },
        {
          "indexed": false,
          "internalType": "uint256",
          "name": "applicationPeriod",
          "type": "uint256"
        },
        {
          "indexed": false,
          "internalType": "uint256",
          "name": "applicationFee",
          "type": "uint256"
        },
        {
          "indexed": false,
          "internalType": "string",
          "name": "message",
          "type": "string"
        }
      ],
      "name": "MinterApplied",
      "type": "event"
    },
    {
      "anonymous": false,
      "inputs": [
        {
          "indexed": true,
          "internalType": "address",
          "name": "minter",
          "type": "address"
        },
        {
          "indexed": false,
          "internalType": "string",
          "name": "message",
          "type": "string"
        }
      ],
      "name": "MinterDenied",
      "type": "event"
    },
    {
      "anonymous": false,
      "inputs": [
        {
          "indexed": true,
          "internalType": "address",
          "name": "from",
          "type": "address"
        },
        {
          "indexed": true,
          "internalType": "address",
          "name": "to",
          "type": "address"
        },
        {
          "indexed": false,
          "internalType": "uint256",
          "name": "value",
          "type": "uint256"
        }
      ],
      "name": "Transfer",
      "type": "event"
    },
    {
      "inputs": [],
      "name": "MIN_APPLICATION_PERIOD",
      "outputs": [
        {
          "internalType": "uint256",
          "name": "",
          "type": "uint256"
        }
      ],
      "stateMutability": "view",
      "type": "function"
    },
    {
      "inputs": [],
      "name": "MIN_FEE",
      "outputs": [
        {
          "internalType": "uint256",
          "name": "",
          "type": "uint256"
        }
      ],
      "stateMutability": "view",
      "type": "function"
    },
    {
      "inputs": [
        {
          "internalType": "address",
          "name": "owner",
          "type": "address"
        },
        {
          "internalType": "address",
          "name": "spender",
          "type": "address"
        }
      ],
      "name": "allowance",
      "outputs": [
        {
          "internalType": "uint256",
          "name": "",
          "type": "uint256"
        }
      ],
      "stateMutability": "view",
      "type": "function"
    },
    {
      "inputs": [
        {
          "internalType": "address",
          "name": "spender",
          "type": "address"
        },
        {
          "internalType": "uint256",
          "name": "value",
          "type": "uint256"
        }
      ],
      "name": "approve",
      "outputs": [
        {
          "internalType": "bool",
          "name": "",
          "type": "bool"
        }
      ],
      "stateMutability": "nonpayable",
      "type": "function"
    },
    {
      "inputs": [
        {
          "internalType": "address",
          "name": "account",
          "type": "address"
        }
      ],
      "name": "balanceOf",
      "outputs": [
        {
          "internalType": "uint256",
          "name": "",
          "type": "uint256"
        }
      ],
      "stateMutability": "view",
      "type": "function"
    },
    {
      "inputs": [
        {
          "internalType": "uint256",
          "name": "amount",
          "type": "uint256"
        }
      ],
      "name": "burn",
      "outputs": [],
      "stateMutability": "nonpayable",
      "type": "function"
    },
    {
      "inputs": [
        {
          "internalType": "uint256",
          "name": "amount",
          "type": "uint256"
        },
        {
          "internalType": "uint32",
          "name": "reservePPM",
          "type": "uint32"
        }
      ],
      "name": "burn",
      "outputs": [],
      "stateMutability": "nonpayable",
      "type": "function"
    },
    {
      "inputs": [
        {
          "internalType": "address",
          "name": "owner",
          "type": "address"
        },
        {
          "internalType": "uint256",
          "name": "amount",
          "type": "uint256"
        }
      ],
      "name": "burn",
      "outputs": [],
      "stateMutability": "nonpayable",
      "type": "function"
    },
    {
      "inputs": [],
      "name": "decimals",
      "outputs": [
        {
          "internalType": "uint8",
          "name": "",
          "type": "uint8"
        }
      ],
      "stateMutability": "view",
      "type": "function"
    },
    {
      "inputs": [
        {
          "internalType": "address",
          "name": "minter",
          "type": "address"
        },
        {
          "internalType": "address[]",
          "name": "helpers",
          "type": "address[]"
        },
        {
          "internalType": "string",
          "name": "message",
          "type": "string"
        }
      ],
      "name": "denyMinter",
      "outputs": [],
      "stateMutability": "nonpayable",
      "type": "function"
    },
    {
      "inputs": [],
      "name": "getReserveTarget",
      "outputs": [
        {
          "internalType": "uint256",
          "name": "",
          "type": "uint256"
        }
      ],
      "stateMutability": "view",
      "type": "function"
    },
    {
      "inputs": [
        {
          "internalType": "address",
          "name": "minter",
          "type": "address"
        }
      ],
      "name": "isMinter",
      "outputs": [
        {
          "internalType": "bool",
          "name": "",
          "type": "bool"
        }
      ],
      "stateMutability": "view",
      "type": "function"
    },
    {
      "inputs": [
        {
          "internalType": "address",
          "name": "target",
          "type": "address"
        },
        {
          "internalType": "uint256",
          "name": "amount",
          "type": "uint256"
        }
      ],
      "name": "mint",
      "outputs": [],
      "stateMutability": "nonpayable",
      "type": "function"
    },
    {
      "inputs": [
        {
          "internalType": "address",
          "name": "target",
          "type": "address"
        },
        {
          "internalType": "uint256",
          "name": "amount",
          "type": "uint256"
        },
        {
          "internalType": "uint32",
          "name": "reservePPM",
          "type": "uint32"
        },
        {
          "internalType": "uint32",
          "name": "feesPPM",
          "type": "uint32"
        }
      ],
      "name": "mint",
      "outputs": [],
      "stateMutability": "nonpayable",
      "type": "function"
    },
    {
      "inputs": [
        {
          "internalType": "address",
          "name": "",
          "type": "address"
        }
      ],
      "name": "minters",
      "outputs": [
        {
          "internalType": "uint256",
          "name": "",
          "type": "uint256"
        }
      ],
      "stateMutability": "view",
      "type": "function"
    },
    {
      "inputs": [],
      "name": "name",
      "outputs": [
        {
          "internalType": "string",
          "name": "",
          "type": "string"
        }
      ],
      "stateMutability": "pure",
      "type": "function"
    },
    {
      "inputs": [
        {
          "internalType": "uint256",
          "name": "amount",
          "type": "uint256"
        }
      ],
      "name": "notifyLoss",
      "outputs": [],
      "stateMutability": "nonpayable",
      "type": "function"
    },
    {
      "inputs": [
        {
          "internalType": "address",
          "name": "",
          "type": "address"
        }
      ],
      "name": "positions",
      "outputs": [
        {
          "internalType": "address",
          "name": "",
          "type": "address"
        }
      ],
      "stateMutability": "view",
      "type": "function"
    },
    {
      "inputs": [
        {
          "internalType": "address",
          "name": "position",
          "type": "address"
        }
      ],
      "name": "registerPosition",
      "outputs": [],
      "stateMutability": "nonpayable",
      "type": "function"
    },
    {
      "inputs": [],
      "name": "reserve",
      "outputs": [
        {
          "internalType": "address",
          "name": "",
          "type": "address"
        }
      ],
      "stateMutability": "view",
      "type": "function"
    },
    {
      "inputs": [],
      "name": "reserveTarget",
      "outputs": [
        {
          "internalType": "uint256",
          "name": "",
          "type": "uint256"
        }
      ],
      "stateMutability": "view",
      "type": "function"
    },
    {
      "inputs": [],
      "name": "reserveTargetFulfilled",
      "outputs": [
        {
          "internalType": "bool",
          "name": "",
          "type": "bool"
        }
      ],
      "stateMutability": "view",
      "type": "function"
    },
    {
      "inputs": [],
      "name": "reserves",
      "outputs": [
        {
          "internalType": "uint256",
          "name": "",
          "type": "uint256"
        }
      ],
      "stateMutability": "view",
      "type": "function"
    },
    {
      "inputs": [
        {
          "internalType": "address",
          "name": "minter",
          "type": "address"
        },
        {
          "internalType": "uint256",
          "name": "applicationPeriod",
          "type": "uint256"
        },
        {
          "internalType": "uint256",
          "name": "applicationFee",
          "type": "uint256"
        },
        {
          "internalType": "string",
          "name": "message",
          "type": "string"
        }
      ],
      "name": "suggestMinter",
      "outputs": [],
      "stateMutability": "nonpayable",
      "type": "function"
    },
    {
      "inputs": [],
      "name": "symbol",
      "outputs": [
        {
          "internalType": "string",
          "name": "",
          "type": "string"
        }
      ],
      "stateMutability": "pure",
      "type": "function"
    },
    {
      "inputs": [],
      "name": "totalSupply",
      "outputs": [
        {
          "internalType": "uint256",
          "name": "",
          "type": "uint256"
        }
      ],
      "stateMutability": "view",
      "type": "function"
    },
    {
      "inputs": [
        {
          "internalType": "address",
          "name": "recipient",
          "type": "address"
        },
        {
          "internalType": "uint256",
          "name": "amount",
          "type": "uint256"
        }
      ],
      "name": "transfer",
      "outputs": [
        {
          "internalType": "bool",
          "name": "",
          "type": "bool"
        }
      ],
      "stateMutability": "nonpayable",
      "type": "function"
    },
    {
      "inputs": [
        {
          "internalType": "address",
          "name": "recipient",
          "type": "address"
        },
        {
          "internalType": "uint256",
          "name": "amount",
          "type": "uint256"
        },
        {
          "internalType": "bytes",
          "name": "data",
          "type": "bytes"
        }
      ],
      "name": "transferAndCall",
      "outputs": [
        {
          "internalType": "bool",
          "name": "",
          "type": "bool"
        }
      ],
      "stateMutability": "nonpayable",
      "type": "function"
    },
    {
      "inputs": [
        {
          "internalType": "address",
          "name": "sender",
          "type": "address"
        },
        {
          "internalType": "address",
          "name": "recipient",
          "type": "address"
        },
        {
          "internalType": "uint256",
          "name": "amount",
          "type": "uint256"
        }
      ],
      "name": "transferFrom",
      "outputs": [
        {
          "internalType": "bool",
          "name": "",
          "type": "bool"
        }
      ],
      "stateMutability": "nonpayable",
      "type": "function"
    }
  ],
  "transactionHash": "0xc6bc4db482e1e72766f2fd0736a4047167733e39de5fe91878b6324c91332110",
  "args": [
    "0xA365E1B43Dd4F6fbAD6b450AbFEf4C4C2db392d9"
  ],
  "numDeployments": 2,
  "solcInputHash": "1f04a4c1b32c645347f16fe8381bf97e",
  "bytecode": "0x60c060405234801561001057600080fd5b506040516116aa3803806116aa83398101604081905261002f91610045565b60126080526001600160a01b031660a052610075565b60006020828403121561005757600080fd5b81516001600160a01b038116811461006e57600080fd5b9392505050565b60805160a0516115d16100d96000396000818161036601528181610464015281816106ba015281816106fd01528181610728015281816107700152818161082001528181610ba101528181610bef0152610d770152600061026701526115d16000f3fe608060405234801561001057600080fd5b50600436106101cf5760003560e01c806376c7a3c711610104578063a9059cbb116100a2578063cd3293de11610071578063cd3293de1461045f578063d1a15ff114610486578063dd62ed3e14610499578063f46eccc4146104d257600080fd5b8063a9059cbb14610413578063aa271e1a14610426578063b52c696d14610439578063cbca628e1461044c57600080fd5b80639b404da6116100de5780639b404da6146103d25780639cc06358146103e55780639dc29fac146103f8578063a16498d91461040b57600080fd5b806376c7a3c71461039a57806381676185146103aa57806395d89b41146103b257600080fd5b80634000aea01161017157806355f575101161014b57806355f57510146102df57806361f3d1101461032057806370a082311461033357806375172a8b1461035c57600080fd5b80634000aea0146102a457806340c10f19146102b757806342966c68146102cc57600080fd5b80631a46c7e9116101ad5780631a46c7e91461024557806323b872dd1461024f578063313ce5671461026257806331ae50bc1461029b57600080fd5b806306fdde03146101d4578063095ea7b31461021057806318160ddd14610233575b600080fd5b60408051808201909152600e81526d4672616e6b656e636f696e20563160901b60208201525b604051610207919061107b565b60405180910390f35b61022361021e3660046110b1565b6104f2565b6040519015158152602001610207565b6002545b604051908152602001610207565b610237620d2f0081565b61022361025d3660046110db565b610508565b6102897f000000000000000000000000000000000000000000000000000000000000000081565b60405160ff9091168152602001610207565b61023760035481565b6102236102b2366004611160565b610564565b6102ca6102c53660046110b1565b6105fa565b005b6102ca6102da3660046111ba565b61065e565b6103086102ed3660046111d3565b6005602052600090815260409020546001600160a01b031681565b6040516001600160a01b039091168152602001610207565b6102ca61032e3660046111ba565b61066b565b6102376103413660046111d3565b6001600160a01b031660009081526020819052604090205490565b6001600160a01b037f000000000000000000000000000000000000000000000000000000000000000016600090815260208190526040902054610237565b610237683635c9adc5dea0000081565b610223610766565b6040805180820190915260048152632d21a42360e11b60208201526101fa565b6102ca6103e03660046111ee565b6107b6565b6102ca6103f33660046112b4565b610932565b6102ca6104063660046110b1565b6109b3565b610237610a0a565b6102236104213660046110b1565b610a1d565b6102236104343660046111d3565b610a2a565b6102ca6104473660046111d3565b610a6e565b6102ca61045a3660046112e0565b610ad9565b6103087f000000000000000000000000000000000000000000000000000000000000000081565b6102ca61049436600461132d565b610c73565b6102376104a7366004611384565b6001600160a01b03918216600090815260016020908152604080832093909416825291909152205490565b6102376104e03660046111d3565b60046020526000908152604090205481565b60006104ff338484610df9565b50600192915050565b6000610515848484610e5b565b6001600160a01b0384166000908152600160209081526040808320338452909152902054600160ff1b81101561055957610559853361055486856113c4565b610df9565b506001949350505050565b6000806105718686610a1d565b905080156105f157604051635260769b60e11b81526001600160a01b0387169063a4c0ed36906105ab903390899089908990600401611404565b6020604051808303816000875af11580156105ca573d6000803e3d6000fd5b505050506040513d601f19601f820116820180604052508101906105ee9190611436565b90505b95945050505050565b61060333610a2a565b8061062b57503360009081526005602052604090205461062b906001600160a01b0316610a2a565b6106505760405162461bcd60e51b815260040161064790611458565b60405180910390fd5b61065a8282610f0f565b5050565b6106683382610fac565b50565b61067433610a2a565b8061069c57503360009081526005602052604090205461069c906001600160a01b0316610a2a565b6106b85760405162461bcd60e51b815260040161064790611458565b7f00000000000000000000000000000000000000000000000000000000000000006001600160a01b03166000908152602081905260409020548181106107235761065a7f00000000000000000000000000000000000000000000000000000000000000003384610e5b565b61074e7f00000000000000000000000000000000000000000000000000000000000000003383610e5b565b61065a3361075c83856113c4565b610f0f565b905090565b6001600160a01b037f0000000000000000000000000000000000000000000000000000000000000000166000908152602081905260408120546107ac90620f4240611485565b6003541115905090565b6001600160a01b0385166000908152600460205260409020544211156108095760405162461bcd60e51b8152602060048201526008602482015267746f6f206c61746560c01b6044820152606401610647565b604051635e1121cf60e01b81526001600160a01b037f00000000000000000000000000000000000000000000000000000000000000001690635e1121cf90610859903390889088906004016114a4565b602060405180830381865afa158015610876573d6000803e3d6000fd5b505050506040513d601f19601f8201168201806040525081019061089a9190611436565b6108d65760405162461bcd60e51b815260206004820152600d60248201526c1b9bdd081c5d585b1a599a5959609a1b6044820152606401610647565b6001600160a01b03851660008181526004602052604080822091909155517fd60c86e83346fdbe3124cb7d1cba32973a9f62d05c4ec801bfe6c09d103803819061092390859085906114fe565b60405180910390a25050505050565b61093b33610a2a565b80610963575033600090815260056020526040902054610963906001600160a01b0316610a2a565b61097f5760405162461bcd60e51b815260040161064790611458565b6109893383610fac565b6109998263ffffffff8316611485565b600360008282546109aa91906113c4565b90915550505050565b6109bc33610a2a565b806109e45750336000908152600560205260409020546109e4906001600160a01b0316610a2a565b610a005760405162461bcd60e51b815260040161064790611458565b61065a8282610fac565b6000620f4240600354610761919061151a565b60006104ff338484610e5b565b6001600160a01b03811660009081526004602052604081205415801590610a6857506001600160a01b03821660009081526004602052604090205442115b92915050565b610a7733610a2a565b610ab05760405162461bcd60e51b815260206004820152600a6024820152693737ba1036b4b73a32b960b11b6044820152606401610647565b6001600160a01b0316600090815260056020526040902080546001600160a01b03191633179055565b610ae233610a2a565b80610b0a575033600090815260056020526040902054610b0a906001600160a01b0316610a2a565b610b265760405162461bcd60e51b815260040161064790611458565b6000610b3863ffffffff841685611485565b90508060036000828254610b4c919061153c565b90915550610b5f9050620f42408261151a565b90506000620f4240610b7763ffffffff851687611485565b610b81919061151a565b9050610b9c8682610b9285896113c4565b61075c91906113c4565b610bca7f000000000000000000000000000000000000000000000000000000000000000061075c838561153c565b60408051600081526020810191829052635260769b60e11b9091526001600160a01b037f0000000000000000000000000000000000000000000000000000000000000000169063a4c0ed3690610c27903390869060248101611554565b6020604051808303816000875af1158015610c46573d6000803e3d6000fd5b505050506040513d601f19601f82011682018060405250810190610c6a9190611436565b50505050505050565b620d2f0084101580610c855750600254155b610cc45760405162461bcd60e51b815260206004820152601060248201526f1c195c9a5bd9081d1bdbc81cda1bdc9d60821b6044820152606401610647565b683635c9adc5dea0000083101580610cdc5750600254155b610d165760405162461bcd60e51b815260206004820152600b60248201526a66656520746f6f206c6f7760a81b6044820152606401610647565b6001600160a01b03851660009081526004602052604090205415610d715760405162461bcd60e51b8152602060048201526012602482015271185b1c9958591e481c9959da5cdd195c995960721b6044820152606401610647565b610d9c337f000000000000000000000000000000000000000000000000000000000000000085610e5b565b610da6844261153c565b6001600160a01b038616600081815260046020526040908190209290925590517f97326258efdae63280617ca33884e507791c2abeed7b82acd77f1853394ef94b9061092390879087908790879061157b565b6001600160a01b0383811660008181526001602090815260408083209487168084529482529182902085905590518481527f8c5be1e5ebec7d5bd14f71427d1e84f3dd0314c0f7b2291e5b200ac8c7c3b92591015b60405180910390a3505050565b6001600160a01b038216610e6e57600080fd5b6001600160a01b03831660009081526020819052604081208054839290610e969084906113c4565b90915550506001600160a01b03821660009081526020819052604081208054839290610ec390849061153c565b92505081905550816001600160a01b0316836001600160a01b03167fddf252ad1be2c89b69c2b068fc378daa952ba7f163c4a11628f55a4df523b3ef83604051610e4e91815260200190565b6001600160a01b038216610f2257600080fd5b8060026000828254610f34919061153c565b90915550506001600160a01b03821660009081526020819052604081208054839290610f6190849061153c565b90915550506040518181526001600160a01b038316906000907fddf252ad1be2c89b69c2b068fc378daa952ba7f163c4a11628f55a4df523b3ef906020015b60405180910390a35050565b8060026000828254610fbe91906113c4565b90915550506001600160a01b03821660009081526020819052604081208054839290610feb9084906113c4565b90915550506040518181526000906001600160a01b038416907fddf252ad1be2c89b69c2b068fc378daa952ba7f163c4a11628f55a4df523b3ef90602001610fa0565b6000815180845260005b8181101561105457602081850181015186830182015201611038565b81811115611066576000602083870101525b50601f01601f19169290920160200192915050565b60208152600061108e602083018461102e565b9392505050565b80356001600160a01b03811681146110ac57600080fd5b919050565b600080604083850312156110c457600080fd5b6110cd83611095565b946020939093013593505050565b6000806000606084860312156110f057600080fd5b6110f984611095565b925061110760208501611095565b9150604084013590509250925092565b60008083601f84011261112957600080fd5b50813567ffffffffffffffff81111561114157600080fd5b60208301915083602082850101111561115957600080fd5b9250929050565b6000806000806060858703121561117657600080fd5b61117f85611095565b935060208501359250604085013567ffffffffffffffff8111156111a257600080fd5b6111ae87828801611117565b95989497509550505050565b6000602082840312156111cc57600080fd5b5035919050565b6000602082840312156111e557600080fd5b61108e82611095565b60008060008060006060868803121561120657600080fd5b61120f86611095565b9450602086013567ffffffffffffffff8082111561122c57600080fd5b818801915088601f83011261124057600080fd5b81358181111561124f57600080fd5b8960208260051b850101111561126457600080fd5b60208301965080955050604088013591508082111561128257600080fd5b5061128f88828901611117565b969995985093965092949392505050565b803563ffffffff811681146110ac57600080fd5b600080604083850312156112c757600080fd5b823591506112d7602084016112a0565b90509250929050565b600080600080608085870312156112f657600080fd5b6112ff85611095565b935060208501359250611314604086016112a0565b9150611322606086016112a0565b905092959194509250565b60008060008060006080868803121561134557600080fd5b61134e86611095565b94506020860135935060408601359250606086013567ffffffffffffffff81111561137857600080fd5b61128f88828901611117565b6000806040838503121561139757600080fd5b6113a083611095565b91506112d760208401611095565b634e487b7160e01b600052601160045260246000fd5b6000828210156113d6576113d66113ae565b500390565b81835281816020850137506000828201602090810191909152601f909101601f19169091010190565b60018060a01b038516815283602082015260606040820152600061142c6060830184866113db565b9695505050505050565b60006020828403121561144857600080fd5b8151801515811461108e57600080fd5b6020808252601390820152723737ba1030b8383937bb32b21036b4b73a32b960691b604082015260600190565b600081600019048311821515161561149f5761149f6113ae565b500290565b6001600160a01b03848116825260406020808401829052908301849052600091859160608501845b878110156114f157836114de86611095565b16825293820193908201906001016114cc565b5098975050505050505050565b6020815260006115126020830184866113db565b949350505050565b60008261153757634e487b7160e01b600052601260045260246000fd5b500490565b6000821982111561154f5761154f6113ae565b500190565b60018060a01b03841681528260208201526060604082015260006105f1606083018461102e565b84815283602082015260606040820152600061142c6060830184866113db56fea26469706673582212200a2e9f077ab13b83f377e7138feb10d45e70872a77ae7ca15252cd7119eb924a64736f6c634300080d0033",
  "devdoc": {
    "kind": "dev",
    "methods": {
      "allowance(address,address)": {
        "details": "See `IERC20.allowance`."
      },
      "approve(address,uint256)": {
        "details": "See `IERC20.approve`. Requirements: - `spender` cannot be the zero address."
      },
      "balanceOf(address)": {
        "details": "See `IERC20.balanceOf`."
      },
      "totalSupply()": {
        "details": "See `IERC20.totalSupply`."
      },
      "transfer(address,uint256)": {
        "details": "See `IERC20.transfer`. Requirements: - `recipient` cannot be the zero address. - the caller must have a balance of at least `amount`."
      },
      "transferFrom(address,address,uint256)": {
        "details": "See `IERC20.transferFrom`. Emits an `Approval` event indicating the updated allowance. This is not required by the EIP. See the note at the beginning of `ERC20`; Requirements: - `sender` and `recipient` cannot be the zero address. - `sender` must have a balance of at least `value`. - the caller must have allowance for `sender`'s tokens of at least `amount`."
      }
    },
    "version": 1
  },
  "userdoc": {
    "kind": "user",
    "methods": {},
    "version": 1
  },
  "storageLayout": {
    "storage": [
      {
        "astId": 10,
        "contract": "contracts/Frankencoin.sol:Frankencoin",
        "label": "_balances",
        "offset": 0,
        "slot": "0",
        "type": "t_mapping(t_address,t_uint256)"
      },
      {
        "astId": 16,
        "contract": "contracts/Frankencoin.sol:Frankencoin",
        "label": "_allowances",
        "offset": 0,
        "slot": "1",
        "type": "t_mapping(t_address,t_mapping(t_address,t_uint256))"
      },
      {
        "astId": 18,
        "contract": "contracts/Frankencoin.sol:Frankencoin",
        "label": "_totalSupply",
        "offset": 0,
        "slot": "2",
        "type": "t_uint256"
      },
      {
        "astId": 389,
        "contract": "contracts/Frankencoin.sol:Frankencoin",
        "label": "reserveTarget",
        "offset": 0,
        "slot": "3",
        "type": "t_uint256"
      },
      {
        "astId": 393,
        "contract": "contracts/Frankencoin.sol:Frankencoin",
        "label": "minters",
        "offset": 0,
        "slot": "4",
        "type": "t_mapping(t_address,t_uint256)"
      },
      {
        "astId": 397,
        "contract": "contracts/Frankencoin.sol:Frankencoin",
        "label": "positions",
        "offset": 0,
        "slot": "5",
        "type": "t_mapping(t_address,t_address)"
      }
    ],
    "types": {
      "t_address": {
        "encoding": "inplace",
        "label": "address",
        "numberOfBytes": "20"
      },
      "t_mapping(t_address,t_address)": {
        "encoding": "mapping",
        "key": "t_address",
        "label": "mapping(address => address)",
        "numberOfBytes": "32",
        "value": "t_address"
      },
      "t_mapping(t_address,t_mapping(t_address,t_uint256))": {
        "encoding": "mapping",
        "key": "t_address",
        "label": "mapping(address => mapping(address => uint256))",
        "numberOfBytes": "32",
        "value": "t_mapping(t_address,t_uint256)"
      },
      "t_mapping(t_address,t_uint256)": {
        "encoding": "mapping",
        "key": "t_address",
        "label": "mapping(address => uint256)",
        "numberOfBytes": "32",
        "value": "t_uint256"
      },
      "t_uint256": {
        "encoding": "inplace",
        "label": "uint256",
        "numberOfBytes": "32"
      }
    }
  }
}