{
  "address": "0xEef1CaCe8eaEae155a6E4b834261F44aC6de21EE",
  "abi": [
    {
      "inputs": [
        {
          "internalType": "uint256",
          "name": "_minApplicationPeriod",
          "type": "uint256"
        }
      ],
      "stateMutability": "nonpayable",
      "type": "constructor"
    },
    {
      "anonymous": false,
      "inputs": [
        {
          "indexed": true,
          "internalType": "address",
          "name": "owner",
          "type": "address"
        },
        {
          "indexed": true,
          "internalType": "address",
          "name": "spender",
          "type": "address"
        },
        {
          "indexed": false,
          "internalType": "uint256",
          "name": "value",
          "type": "uint256"
        }
      ],
      "name": "Approval",
      "type": "event"
    },
    {
      "anonymous": false,
      "inputs": [
        {
          "indexed": true,
          "internalType": "address",
          "name": "minter",
          "type": "address"
        },
        {
          "indexed": false,
          "internalType": "uint256",
          "name": "applicationPeriod",
          "type": "uint256"
        },
        {
          "indexed": false,
          "internalType": "uint256",
          "name": "applicationFee",
          "type": "uint256"
        },
        {
          "indexed": false,
          "internalType": "string",
          "name": "message",
          "type": "string"
        }
      ],
      "name": "MinterApplied",
      "type": "event"
    },
    {
      "anonymous": false,
      "inputs": [
        {
          "indexed": true,
          "internalType": "address",
          "name": "minter",
          "type": "address"
        },
        {
          "indexed": false,
          "internalType": "string",
          "name": "message",
          "type": "string"
        }
      ],
      "name": "MinterDenied",
      "type": "event"
    },
    {
      "anonymous": false,
      "inputs": [
        {
          "indexed": true,
          "internalType": "address",
          "name": "from",
          "type": "address"
        },
        {
          "indexed": true,
          "internalType": "address",
          "name": "to",
          "type": "address"
        },
        {
          "indexed": false,
          "internalType": "uint256",
          "name": "value",
          "type": "uint256"
        }
      ],
      "name": "Transfer",
      "type": "event"
    },
    {
      "inputs": [],
      "name": "DOMAIN_SEPARATOR",
      "outputs": [
        {
          "internalType": "bytes32",
          "name": "",
          "type": "bytes32"
        }
      ],
      "stateMutability": "view",
      "type": "function"
    },
    {
      "inputs": [],
      "name": "MIN_APPLICATION_PERIOD",
      "outputs": [
        {
          "internalType": "uint256",
          "name": "",
          "type": "uint256"
        }
      ],
      "stateMutability": "view",
      "type": "function"
    },
    {
      "inputs": [],
      "name": "MIN_FEE",
      "outputs": [
        {
          "internalType": "uint256",
          "name": "",
          "type": "uint256"
        }
      ],
      "stateMutability": "view",
      "type": "function"
    },
    {
      "inputs": [
        {
          "internalType": "address",
          "name": "owner",
          "type": "address"
        },
        {
          "internalType": "address",
          "name": "spender",
          "type": "address"
        }
      ],
      "name": "allowance",
      "outputs": [
        {
          "internalType": "uint256",
          "name": "",
          "type": "uint256"
        }
      ],
      "stateMutability": "view",
      "type": "function"
    },
    {
      "inputs": [
        {
          "internalType": "address",
          "name": "spender",
          "type": "address"
        },
        {
          "internalType": "uint256",
          "name": "value",
          "type": "uint256"
        }
      ],
      "name": "approve",
      "outputs": [
        {
          "internalType": "bool",
          "name": "",
          "type": "bool"
        }
      ],
      "stateMutability": "nonpayable",
      "type": "function"
    },
    {
      "inputs": [
        {
          "internalType": "address",
          "name": "account",
          "type": "address"
        }
      ],
      "name": "balanceOf",
      "outputs": [
        {
          "internalType": "uint256",
          "name": "",
          "type": "uint256"
        }
      ],
      "stateMutability": "view",
      "type": "function"
    },
    {
      "inputs": [
        {
          "internalType": "uint256",
          "name": "_amount",
          "type": "uint256"
        }
      ],
      "name": "burn",
      "outputs": [],
      "stateMutability": "nonpayable",
      "type": "function"
    },
    {
      "inputs": [
        {
          "internalType": "uint256",
          "name": "amount",
          "type": "uint256"
        },
        {
          "internalType": "uint32",
          "name": "reservePPM",
          "type": "uint32"
        }
      ],
      "name": "burn",
      "outputs": [],
      "stateMutability": "nonpayable",
      "type": "function"
    },
    {
      "inputs": [
        {
          "internalType": "address",
          "name": "_owner",
          "type": "address"
        },
        {
          "internalType": "uint256",
          "name": "_amount",
          "type": "uint256"
        }
      ],
      "name": "burn",
      "outputs": [],
      "stateMutability": "nonpayable",
      "type": "function"
    },
    {
      "inputs": [
        {
          "internalType": "address",
          "name": "payer",
          "type": "address"
        },
        {
          "internalType": "uint256",
          "name": "targetTotalBurnAmount",
          "type": "uint256"
        },
        {
          "internalType": "uint32",
          "name": "_reservePPM",
          "type": "uint32"
        }
      ],
      "name": "burnFrom",
      "outputs": [
        {
          "internalType": "uint256",
          "name": "",
          "type": "uint256"
        }
      ],
      "stateMutability": "nonpayable",
      "type": "function"
    },
    {
      "inputs": [
        {
          "internalType": "uint256",
          "name": "_amountExcludingReserve",
          "type": "uint256"
        },
        {
          "internalType": "uint32",
          "name": "_reservePPM",
          "type": "uint32"
        }
      ],
      "name": "burnWithReserve",
      "outputs": [
        {
          "internalType": "uint256",
          "name": "",
          "type": "uint256"
        }
      ],
      "stateMutability": "nonpayable",
      "type": "function"
    },
    {
      "inputs": [
        {
          "internalType": "uint256",
          "name": "mintedAmount",
          "type": "uint256"
        },
        {
          "internalType": "uint32",
          "name": "_reservePPM",
          "type": "uint32"
        }
      ],
      "name": "calculateAssignedReserve",
      "outputs": [
        {
          "internalType": "uint256",
          "name": "",
          "type": "uint256"
        }
      ],
      "stateMutability": "view",
      "type": "function"
    },
    {
      "inputs": [],
      "name": "decimals",
      "outputs": [
        {
          "internalType": "uint8",
          "name": "",
          "type": "uint8"
        }
      ],
      "stateMutability": "view",
      "type": "function"
    },
    {
      "inputs": [
        {
          "internalType": "address",
          "name": "_minter",
          "type": "address"
        },
        {
          "internalType": "address[]",
          "name": "_helpers",
          "type": "address[]"
        },
        {
          "internalType": "string",
          "name": "_message",
          "type": "string"
        }
      ],
      "name": "denyMinter",
      "outputs": [],
      "stateMutability": "nonpayable",
      "type": "function"
    },
    {
      "inputs": [],
      "name": "equity",
      "outputs": [
        {
          "internalType": "uint256",
          "name": "",
          "type": "uint256"
        }
      ],
      "stateMutability": "view",
      "type": "function"
    },
    {
      "inputs": [
        {
          "internalType": "address",
          "name": "_minter",
          "type": "address"
        }
      ],
      "name": "isMinter",
      "outputs": [
        {
          "internalType": "bool",
          "name": "",
          "type": "bool"
        }
      ],
      "stateMutability": "view",
      "type": "function"
    },
    {
      "inputs": [
        {
          "internalType": "address",
          "name": "_position",
          "type": "address"
        }
      ],
      "name": "isPosition",
      "outputs": [
        {
          "internalType": "address",
          "name": "",
          "type": "address"
        }
      ],
      "stateMutability": "view",
      "type": "function"
    },
    {
      "inputs": [
        {
          "internalType": "address",
          "name": "_target",
          "type": "address"
        },
        {
          "internalType": "uint256",
          "name": "_amount",
          "type": "uint256"
        }
      ],
      "name": "mint",
      "outputs": [],
      "stateMutability": "nonpayable",
      "type": "function"
    },
    {
      "inputs": [
        {
          "internalType": "address",
          "name": "_target",
          "type": "address"
        },
        {
          "internalType": "uint256",
          "name": "_amount",
          "type": "uint256"
        },
        {
          "internalType": "uint32",
          "name": "_reservePPM",
          "type": "uint32"
        },
        {
          "internalType": "uint32",
          "name": "_feesPPM",
          "type": "uint32"
        }
      ],
      "name": "mint",
      "outputs": [],
      "stateMutability": "nonpayable",
      "type": "function"
    },
    {
      "inputs": [],
      "name": "minterReserve",
      "outputs": [
        {
          "internalType": "uint256",
          "name": "",
          "type": "uint256"
        }
      ],
      "stateMutability": "view",
      "type": "function"
    },
    {
      "inputs": [
        {
          "internalType": "address",
          "name": "",
          "type": "address"
        }
      ],
      "name": "minters",
      "outputs": [
        {
          "internalType": "uint256",
          "name": "",
          "type": "uint256"
        }
      ],
      "stateMutability": "view",
      "type": "function"
    },
    {
      "inputs": [],
      "name": "name",
      "outputs": [
        {
          "internalType": "string",
          "name": "",
          "type": "string"
        }
      ],
      "stateMutability": "pure",
      "type": "function"
    },
    {
      "inputs": [
        {
          "internalType": "address",
          "name": "",
          "type": "address"
        }
      ],
      "name": "nonces",
      "outputs": [
        {
          "internalType": "uint256",
          "name": "",
          "type": "uint256"
        }
      ],
      "stateMutability": "view",
      "type": "function"
    },
    {
      "inputs": [
        {
          "internalType": "uint256",
          "name": "_amount",
          "type": "uint256"
        }
      ],
      "name": "notifyLoss",
      "outputs": [],
      "stateMutability": "nonpayable",
      "type": "function"
    },
    {
      "inputs": [
        {
          "internalType": "address",
          "name": "owner",
          "type": "address"
        },
        {
          "internalType": "address",
          "name": "spender",
          "type": "address"
        },
        {
          "internalType": "uint256",
          "name": "value",
          "type": "uint256"
        },
        {
          "internalType": "uint256",
          "name": "deadline",
          "type": "uint256"
        },
        {
          "internalType": "uint8",
          "name": "v",
          "type": "uint8"
        },
        {
          "internalType": "bytes32",
          "name": "r",
          "type": "bytes32"
        },
        {
          "internalType": "bytes32",
          "name": "s",
          "type": "bytes32"
        }
      ],
      "name": "permit",
      "outputs": [],
      "stateMutability": "nonpayable",
      "type": "function"
    },
    {
      "inputs": [
        {
          "internalType": "address",
          "name": "",
          "type": "address"
        }
      ],
      "name": "positions",
      "outputs": [
        {
          "internalType": "address",
          "name": "",
          "type": "address"
        }
      ],
      "stateMutability": "view",
      "type": "function"
    },
    {
      "inputs": [
        {
          "internalType": "address",
          "name": "_position",
          "type": "address"
        }
      ],
      "name": "registerPosition",
      "outputs": [],
      "stateMutability": "nonpayable",
      "type": "function"
    },
    {
      "inputs": [],
      "name": "reserve",
      "outputs": [
        {
          "internalType": "contract IReserve",
          "name": "",
          "type": "address"
        }
      ],
      "stateMutability": "view",
      "type": "function"
    },
    {
      "inputs": [
        {
          "internalType": "address",
          "name": "_minter",
          "type": "address"
        },
        {
          "internalType": "uint256",
          "name": "_applicationPeriod",
          "type": "uint256"
        },
        {
          "internalType": "uint256",
          "name": "_applicationFee",
          "type": "uint256"
        },
        {
          "internalType": "string",
          "name": "_message",
          "type": "string"
        }
      ],
      "name": "suggestMinter",
      "outputs": [],
      "stateMutability": "nonpayable",
      "type": "function"
    },
    {
      "inputs": [],
      "name": "symbol",
      "outputs": [
        {
          "internalType": "string",
          "name": "",
          "type": "string"
        }
      ],
      "stateMutability": "pure",
      "type": "function"
    },
    {
      "inputs": [],
      "name": "totalSupply",
      "outputs": [
        {
          "internalType": "uint256",
          "name": "",
          "type": "uint256"
        }
      ],
      "stateMutability": "view",
      "type": "function"
    },
    {
      "inputs": [
        {
          "internalType": "address",
          "name": "recipient",
          "type": "address"
        },
        {
          "internalType": "uint256",
          "name": "amount",
          "type": "uint256"
        }
      ],
      "name": "transfer",
      "outputs": [
        {
          "internalType": "bool",
          "name": "",
          "type": "bool"
        }
      ],
      "stateMutability": "nonpayable",
      "type": "function"
    },
    {
      "inputs": [
        {
          "internalType": "address",
          "name": "recipient",
          "type": "address"
        },
        {
          "internalType": "uint256",
          "name": "amount",
          "type": "uint256"
        },
        {
          "internalType": "bytes",
          "name": "data",
          "type": "bytes"
        }
      ],
      "name": "transferAndCall",
      "outputs": [
        {
          "internalType": "bool",
          "name": "",
          "type": "bool"
        }
      ],
      "stateMutability": "nonpayable",
      "type": "function"
    },
    {
      "inputs": [
        {
          "internalType": "address",
          "name": "sender",
          "type": "address"
        },
        {
          "internalType": "address",
          "name": "recipient",
          "type": "address"
        },
        {
          "internalType": "uint256",
          "name": "amount",
          "type": "uint256"
        }
      ],
      "name": "transferFrom",
      "outputs": [
        {
          "internalType": "bool",
          "name": "",
          "type": "bool"
        }
      ],
      "stateMutability": "nonpayable",
      "type": "function"
    }
  ],
  "transactionHash": "0xaa22ce2eb08c48df5a3992ea20941840c737ac339261640ca0f7b67779397415",
  "args": [
    900
  ],
  "numDeployments": 1,
  "solcInputHash": "35c53c9822df511dc79e606069bca182",
  "bytecode": "0x60e06040523480156200001157600080fd5b506040516200383c3803806200383c83398101604081905262000034916200009d565b601260805260a081905260405130906200004e906200008f565b6001600160a01b039091168152602001604051809103906000f0801580156200007b573d6000803e3d6000fd5b506001600160a01b031660c05250620000b7565b611ac58062001d7783390190565b600060208284031215620000b057600080fd5b5051919050565b60805160a05160c051611c3c6200013b6000396000818161050d0152818161060a01528181610876015281816108b9015281816108e401528181610927015281816109ed01528181610c2801528181610ce301528181610eac0152818161102201526113350152600081816102980152610f03015260006103160152611c3c6000f3fe608060405234801561001057600080fd5b50600436106102065760003560e01c806391a0ac6a1161011a578063b52c696d116100ad578063d38bb0091161007c578063d38bb00914610542578063d505accf1461054a578063dd62ed3e1461055d578063ea889b8a14610596578063f46eccc4146105a957600080fd5b8063b52c696d146104e2578063cbca628e146104f5578063cd3293de14610508578063d1a15ff11461052f57600080fd5b80639dc29fac116100e95780639dc29fac14610496578063a47d75ad146104a9578063a9059cbb146104bc578063aa271e1a146104cf57600080fd5b806391a0ac6a1461044857806395d89b41146104505780639b404da6146104705780639cc063581461048357600080fd5b80633644e5151161019d57806355f575101161016c57806355f57510146103b357806361f3d110146103dc57806370a08231146103ef57806376c7a3c7146104185780637ecebe001461042857600080fd5b80633644e5151461034a5780634000aea01461037857806340c10f191461038b57806342966c68146103a057600080fd5b80631a46c7e9116101d95780631a46c7e91461029357806323b872dd146102ba5780632748913b146102cd578063313ce5671461031157600080fd5b806306fdde031461020b578063095ea7b31461024757806316e0e5381461026a57806318160ddd1461028b575b600080fd5b60408051808201909152600e81526d4672616e6b656e636f696e20563160901b60208201525b60405161023e9190611626565b60405180910390f35b61025a610255366004611697565b6105c9565b604051901515815260200161023e565b61027d6102783660046116d5565b6105e0565b60405190815260200161023e565b60025461027d565b61027d7f000000000000000000000000000000000000000000000000000000000000000081565b61025a6102c8366004611701565b610682565b6102f96102db36600461173d565b6001600160a01b039081166000908152600660205260409020541690565b6040516001600160a01b03909116815260200161023e565b6103387f000000000000000000000000000000000000000000000000000000000000000081565b60405160ff909116815260200161023e565b604080514660208083019190915230828401528251808303840181526060909201909252805191012061027d565b61025a6103863660046117a8565b610729565b61039e610399366004611697565b6107bf565b005b61039e6103ae366004611802565b61081a565b6102f96103c136600461173d565b6006602052600090815260409020546001600160a01b031681565b61039e6103ea366004611802565b610827565b61027d6103fd36600461173d565b6001600160a01b031660009081526020819052604090205490565b61027d683635c9adc5dea0000081565b61027d61043636600461173d565b60036020526000908152604090205481565b61027d61091d565b6040805180820190915260048152632d21a42360e11b6020820152610231565b61039e61047e36600461181b565b610983565b61039e6104913660046116d5565b610aff565b61039e6104a4366004611697565b610b80565b61027d6104b73660046116d5565b610bd7565b61025a6104ca366004611697565b610d26565b61025a6104dd36600461173d565b610d33565b61039e6104f036600461173d565b610d74565b61039e6105033660046118cd565b610ddf565b6102f97f000000000000000000000000000000000000000000000000000000000000000081565b61039e61053d36600461191a565b610f01565b61027d6110a4565b61039e610558366004611971565b6110bc565b61027d61056b3660046119e4565b6001600160a01b03918216600090815260016020908152604080832093909416825291909152205490565b61027d6105a4366004611a0e565b6112d3565b61027d6105b736600461173d565b60056020526000908152604090205481565b60006105d6338484611394565b5060015b92915050565b600080620f42406105f78563ffffffff8616611a60565b6106019190611a7f565b905060006106447f00000000000000000000000000000000000000000000000000000000000000006001600160a01b031660009081526020819052604090205490565b905061064e6110a4565b81101561067a5761065d6110a4565b6106678284611a60565b6106719190611a7f565b925050506105da565b5090506105da565b600061068f8484846113f6565b6001600160a01b0384166000908152600160209081526040808320338452909152902054600160ff1b81101561071e578281101561070a5760405162461bcd60e51b81526020600482015260136024820152720c2e0e0e4deecc2d840dcdee840cadcdeeaced606b1b60448201526064015b60405180910390fd5b61071e85336107198685611aa1565b611394565b506001949350505050565b6000806107368686610d26565b905080156107b657604051635260769b60e11b81526001600160a01b0387169063a4c0ed3690610770903390899089908990600401611ae1565b6020604051808303816000875af115801561078f573d6000803e3d6000fd5b505050506040513d601f19601f820116820180604052508101906107b39190611b09565b90505b95945050505050565b6107c833610d33565b806107f05750336000908152600660205260409020546107f0906001600160a01b0316610d33565b61080c5760405162461bcd60e51b815260040161070190611b2b565b6108168282611507565b5050565b61082433826115a4565b50565b61083033610d33565b80610858575033600090815260066020526040902054610858906001600160a01b0316610d33565b6108745760405162461bcd60e51b815260040161070190611b2b565b7f00000000000000000000000000000000000000000000000000000000000000006001600160a01b03166000908152602081905260409020548181106108df576108167f000000000000000000000000000000000000000000000000000000000000000033846113f6565b61090a7f000000000000000000000000000000000000000000000000000000000000000033836113f6565b610816336109188385611aa1565b611507565b6001600160a01b037f00000000000000000000000000000000000000000000000000000000000000001660009081526020819052604081205460006109606110a4565b90508082116109725760009250505090565b61097c8183611aa1565b9250505090565b6001600160a01b0385166000908152600560205260409020544211156109d65760405162461bcd60e51b8152602060048201526008602482015267746f6f206c61746560c01b6044820152606401610701565b604051635e1121cf60e01b81526001600160a01b037f00000000000000000000000000000000000000000000000000000000000000001690635e1121cf90610a2690339088908890600401611b58565b602060405180830381865afa158015610a43573d6000803e3d6000fd5b505050506040513d601f19601f82011682018060405250810190610a679190611b09565b610aa35760405162461bcd60e51b815260206004820152600d60248201526c1b9bdd081c5d585b1a599a5959609a1b6044820152606401610701565b6001600160a01b03851660008181526005602052604080822091909155517fd60c86e83346fdbe3124cb7d1cba32973a9f62d05c4ec801bfe6c09d1038038190610af09085908590611bb2565b60405180910390a25050505050565b610b0833610d33565b80610b30575033600090815260066020526040902054610b30906001600160a01b0316610d33565b610b4c5760405162461bcd60e51b815260040161070190611b2b565b610b5633836115a4565b610b6663ffffffff821683611a60565b60046000828254610b779190611aa1565b90915550505050565b610b8933610d33565b80610bb1575033600090815260066020526040902054610bb1906001600160a01b0316610d33565b610bcd5760405162461bcd60e51b815260040161070190611b2b565b61081682826115a4565b6000610be233610d33565b80610c0a575033600090815260066020526040902054610c0a906001600160a01b0316610d33565b610c265760405162461bcd60e51b815260040161070190611b2b565b7f00000000000000000000000000000000000000000000000000000000000000006001600160a01b031660009081526020819052604081205490610c686110a4565b90506000818310610c7f578463ffffffff16610c9a565b81610c908463ffffffff8816611a60565b610c9a9190611a7f565b90506000610cab82620f4240611aa1565b610cb59088611a7f565b9050610cc763ffffffff871682611a60565b60046000828254610cd89190611aa1565b90915550610d1290507f000000000000000000000000000000000000000000000000000000000000000033610d0d8a85611aa1565b6113f6565b610d1c33826115a4565b9695505050505050565b60006105d63384846113f6565b6001600160a01b038116600090815260056020526040812054158015906105da5750506001600160a01b031660009081526005602052604090205442101590565b610d7d33610d33565b610db65760405162461bcd60e51b815260206004820152600a6024820152693737ba1036b4b73a32b960b11b6044820152606401610701565b6001600160a01b0316600090815260066020526040902080546001600160a01b03191633179055565b610de833610d33565b80610e10575033600090815260066020526040902054610e10906001600160a01b0316610d33565b610e2c5760405162461bcd60e51b815260040161070190611b2b565b6000610e3e63ffffffff841685611a60565b90506000620f4240610e5383620f423f611bce565b610e5d9190611a7f565b90506000620f4240610e7563ffffffff861688611a60565b610e8290620f423f611bce565b610e8c9190611a7f565b9050610ea78782610e9d858a611aa1565b6109189190611aa1565b610ed57f00000000000000000000000000000000000000000000000000000000000000006109188385611bce565b610ee282620f4240611a60565b60046000828254610ef39190611bce565b909155505050505050505050565b7f000000000000000000000000000000000000000000000000000000000000000084101580610f305750600254155b610f6f5760405162461bcd60e51b815260206004820152601060248201526f1c195c9a5bd9081d1bdbc81cda1bdc9d60821b6044820152606401610701565b683635c9adc5dea0000083101580610f875750600254155b610fc15760405162461bcd60e51b815260206004820152600b60248201526a66656520746f6f206c6f7760a81b6044820152606401610701565b6001600160a01b0385166000908152600560205260409020541561101c5760405162461bcd60e51b8152602060048201526012602482015271185b1c9958591e481c9959da5cdd195c995960721b6044820152606401610701565b611047337f0000000000000000000000000000000000000000000000000000000000000000856113f6565b6110518442611bce565b6001600160a01b038616600081815260056020526040908190209290925590517f97326258efdae63280617ca33884e507791c2abeed7b82acd77f1853394ef94b90610af0908790879087908790611be6565b6000620f42406004546110b79190611a7f565b905090565b4284101561110c5760405162461bcd60e51b815260206004820152601760248201527f5045524d49545f444541444c494e455f455850495245440000000000000000006044820152606401610701565b6000600161113f604080514660208083019190915230828401528251808303840181526060909201909252805191012090565b6001600160a01b038a811660008181526003602090815260409182902080546001810190915582517f6e71edae12b1b97f4d1f60370fef10105fa2faae0126114a169c64845d6126c98184015280840194909452938d166060840152608083018c905260a083019390935260c08083018b90528151808403909101815260e08301909152805192019190912061190160f01b6101008301526101028201929092526101228101919091526101420160408051601f198184030181528282528051602091820120600084529083018083525260ff871690820152606081018590526080810184905260a0016020604051602081039080840390855afa15801561124b573d6000803e3d6000fd5b5050604051601f1901519150506001600160a01b038116158015906112815750876001600160a01b0316816001600160a01b0316145b6112be5760405162461bcd60e51b815260206004820152600e60248201526d24a72b20a624a22fa9a4a3a722a960911b6044820152606401610701565b6112c9818888611394565b5050505050505050565b60006112de33610d33565b80611306575033600090815260066020526040902054611306906001600160a01b0316610d33565b6113225760405162461bcd60e51b815260040161070190611b2b565b600061132e84846105e0565b905061135b7f000000000000000000000000000000000000000000000000000000000000000086836113f6565b61136585856115a4565b61137563ffffffff841685611a60565b600460008282546113869190611aa1565b909155509095945050505050565b6001600160a01b0383811660008181526001602090815260408083209487168084529482529182902085905590518481527f8c5be1e5ebec7d5bd14f71427d1e84f3dd0314c0f7b2291e5b200ac8c7c3b92591015b60405180910390a3505050565b6001600160a01b03821661140957600080fd5b6001600160a01b0383166000908152602081905260409020548111156114665760405162461bcd60e51b81526020600482015260126024820152710c4c2d8c2dcc6ca40dcdee840cadcdeeaced60731b6044820152606401610701565b6001600160a01b0383166000908152602081905260408120805483929061148e908490611aa1565b90915550506001600160a01b038216600090815260208190526040812080548392906114bb908490611bce565b92505081905550816001600160a01b0316836001600160a01b03167fddf252ad1be2c89b69c2b068fc378daa952ba7f163c4a11628f55a4df523b3ef836040516113e991815260200190565b6001600160a01b03821661151a57600080fd5b806002600082825461152c9190611bce565b90915550506001600160a01b03821660009081526020819052604081208054839290611559908490611bce565b90915550506040518181526001600160a01b038316906000907fddf252ad1be2c89b69c2b068fc378daa952ba7f163c4a11628f55a4df523b3ef906020015b60405180910390a35050565b80600260008282546115b69190611aa1565b90915550506001600160a01b038216600090815260208190526040812080548392906115e3908490611aa1565b90915550506040518181526000906001600160a01b038416907fddf252ad1be2c89b69c2b068fc378daa952ba7f163c4a11628f55a4df523b3ef90602001611598565b600060208083528351808285015260005b8181101561165357858101830151858201604001528201611637565b81811115611665576000604083870101525b50601f01601f1916929092016040019392505050565b80356001600160a01b038116811461169257600080fd5b919050565b600080604083850312156116aa57600080fd5b6116b38361167b565b946020939093013593505050565b803563ffffffff8116811461169257600080fd5b600080604083850312156116e857600080fd5b823591506116f8602084016116c1565b90509250929050565b60008060006060848603121561171657600080fd5b61171f8461167b565b925061172d6020850161167b565b9150604084013590509250925092565b60006020828403121561174f57600080fd5b6117588261167b565b9392505050565b60008083601f84011261177157600080fd5b50813567ffffffffffffffff81111561178957600080fd5b6020830191508360208285010111156117a157600080fd5b9250929050565b600080600080606085870312156117be57600080fd5b6117c78561167b565b935060208501359250604085013567ffffffffffffffff8111156117ea57600080fd5b6117f68782880161175f565b95989497509550505050565b60006020828403121561181457600080fd5b5035919050565b60008060008060006060868803121561183357600080fd5b61183c8661167b565b9450602086013567ffffffffffffffff8082111561185957600080fd5b818801915088601f83011261186d57600080fd5b81358181111561187c57600080fd5b8960208260051b850101111561189157600080fd5b6020830196508095505060408801359150808211156118af57600080fd5b506118bc8882890161175f565b969995985093965092949392505050565b600080600080608085870312156118e357600080fd5b6118ec8561167b565b935060208501359250611901604086016116c1565b915061190f606086016116c1565b905092959194509250565b60008060008060006080868803121561193257600080fd5b61193b8661167b565b94506020860135935060408601359250606086013567ffffffffffffffff81111561196557600080fd5b6118bc8882890161175f565b600080600080600080600060e0888a03121561198c57600080fd5b6119958861167b565b96506119a36020890161167b565b95506040880135945060608801359350608088013560ff811681146119c757600080fd5b9699959850939692959460a0840135945060c09093013592915050565b600080604083850312156119f757600080fd5b611a008361167b565b91506116f86020840161167b565b600080600060608486031215611a2357600080fd5b611a2c8461167b565b925060208401359150611a41604085016116c1565b90509250925092565b634e487b7160e01b600052601160045260246000fd5b6000816000190483118215151615611a7a57611a7a611a4a565b500290565b600082611a9c57634e487b7160e01b600052601260045260246000fd5b500490565b600082821015611ab357611ab3611a4a565b500390565b81835281816020850137506000828201602090810191909152601f909101601f19169091010190565b60018060a01b0385168152836020820152606060408201526000610d1c606083018486611ab8565b600060208284031215611b1b57600080fd5b8151801515811461175857600080fd5b6020808252601390820152723737ba1030b8383937bb32b21036b4b73a32b960691b604082015260600190565b6001600160a01b03848116825260406020808401829052908301849052600091859160608501845b87811015611ba55783611b928661167b565b1682529382019390820190600101611b80565b5098975050505050505050565b602081526000611bc6602083018486611ab8565b949350505050565b60008219821115611be157611be1611a4a565b500190565b848152836020820152606060408201526000610d1c606083018486611ab856fea2646970667358221220bb4a75d831ef6097ece5a37541ed96df08ab5145bb499ec6a3eae347c2cef42364736f6c634300080d003360c060405234801561001057600080fd5b50604051611ac5380380611ac583398101604081905261002f91610045565b60126080526001600160a01b031660a052610075565b60006020828403121561005757600080fd5b81516001600160a01b038116811461006e57600080fd5b9392505050565b60805160a051611a016100c46000396000818161046e015281816105e00152818161076901528181610a2b01528181610ad701528181610bcd0152610cd4015260006102b40152611a016000f3fe608060405234801561001057600080fd5b50600436106101cf5760003560e01c80635e1121cf11610104578063a9059cbb116100a2578063d505accf11610071578063d505accf14610490578063d8bff5a5146104a3578063dd62ed3e146104b6578063f97ed509146104ef57600080fd5b8063a9059cbb1461043b578063ad08ce5b1461044e578063b0c2bf0614610461578063c4d4803a1461046957600080fd5b806395d89b41116100de57806395d89b41146103ec5780639823004f1461040b578063a035b1fe14610420578063a4c0ed361461042857600080fd5b80635e1121cf1461039057806370a08231146103a35780637ecebe00146103cc57600080fd5b8063250f25f4116101715780633c835ab01161014b5780633c835ab0146103165780633ec16194146103295780634000aea01461033c578063587cde1e1461034f57600080fd5b8063250f25f414610292578063313ce567146102af5780633644e515146102e857600080fd5b8063151535b9116101ad578063151535b91461025157806318160ddd146102645780631e9a69501461026c57806323b872dd1461027f57600080fd5b806306fdde03146101d4578063095ea7b3146102185780630d15fd771461023b575b600080fd5b6040805180820190915260168152754672616e6b656e636f696e20506f6f6c20536861726560501b60208201525b60405161020f91906115b9565b60405180910390f35b61022b61022636600461162a565b6104f7565b604051901515815260200161020f565b61024361050e565b60405190815260200161020f565b61022b61025f366004611654565b610557565b600254610243565b61024361027a36600461162a565b61058f565b61022b61028d36600461166f565b610655565b61029a600381565b60405163ffffffff909116815260200161020f565b6102d67f000000000000000000000000000000000000000000000000000000000000000081565b60405160ff909116815260200161020f565b6040805146602080830191909152308284015282518083038401815260609092019092528051910120610243565b61022b6103243660046116ab565b6106fc565b6102436103373660046116de565b610762565b61022b61034a3660046116f7565b6107ef565b61037861035d366004611654565b6005602052600090815260409020546001600160a01b031681565b6040516001600160a01b03909116815260200161020f565b61022b61039e36600461177e565b610885565b6102436103b1366004611654565b6001600160a01b031660009081526020819052604090205490565b6102436103da366004611654565b60036020526000908152604090205481565b60408051808201909152600381526246505360e81b6020820152610202565b61041e610419366004611654565b6109be565b005b610243610a15565b61022b6104363660046116f7565b610aca565b61022b61044936600461162a565b610cb5565b61024361045c3660046116de565b610cc2565b610243600581565b6103787f000000000000000000000000000000000000000000000000000000000000000081565b61041e61049e366004611804565b610de9565b6102436104b1366004611654565b611000565b6102436104c43660046116ab565b6001600160a01b03918216600090815260016020908152604080832093909416825291909152205490565b61022b611050565b600061050433848461105b565b5060015b92915050565b6004546000906105289067ffffffffffffffff164361188d565b60025461053591906118a4565b6004546105529190600160401b90046001600160c01b03166118c3565b905090565b6001600160a01b0381166000908152600660205260408120546005906105879067ffffffffffffffff164361188d565b101592915050565b600061059a33610557565b6105a357600080fd5b60006105ae83610cc2565b90506105ba33846110bd565b60405163a9059cbb60e01b81526001600160a01b038581166004830152602482018390527f0000000000000000000000000000000000000000000000000000000000000000169063a9059cbb906044016020604051808303816000875af1158015610629573d6000803e3d6000fd5b505050506040513d601f19601f8201168201806040525081019061064d91906118db565b509392505050565b6000610662848484611153565b6001600160a01b0384166000908152600160209081526040808320338452909152902054600160ff1b8110156106f157828110156106dd5760405162461bcd60e51b81526020600482015260136024820152720c2e0e0e4deecc2d840dcdee840cadcdeeaced606b1b60448201526064015b60405180910390fd5b6106f185336106ec868561188d565b61105b565b506001949350505050565b6000826001600160a01b0316826001600160a01b03160361071f57506001610508565b6001600160a01b03821661073557506000610508565b6001600160a01b0380831660009081526005602052604090205461075b918591166106fc565b9050610508565b60006105087f00000000000000000000000000000000000000000000000000000000000000006001600160a01b03166391a0ac6a6040518163ffffffff1660e01b8152600401602060405180830381865afa1580156107c5573d6000803e3d6000fd5b505050506040513d601f19601f820116820180604052508101906107e991906118fd565b8361126f565b6000806107fc8686610cb5565b9050801561087c57604051635260769b60e11b81526001600160a01b0387169063a4c0ed3690610836903390899089908990600401611916565b6020604051808303816000875af1158015610855573d6000803e3d6000fd5b505050506040513d601f19601f8201168201806040525081019061087991906118db565b90505b95945050505050565b60008061089185611000565b905060005b838110156109925760008585838181106108b2576108b261195e565b90506020020160208101906108c79190611654565b9050866001600160a01b0316816001600160a01b0316036108e757600080fd5b6108f187826106fc565b6108fa57600080fd5b60006109078360016118c3565b90505b85811015610968578686828181106109245761092461195e565b90506020020160208101906109399190611654565b6001600160a01b0316826001600160a01b03160361095657600080fd5b8061096081611974565b91505061090a565b5061097281611000565b61097c90846118c3565b925050808061098a90611974565b915050610896565b5061099b61050e565b6109a79061012c6118a4565b6109b3826127106118a4565b101595945050505050565b3360008181526005602052604080822080546001600160a01b0319166001600160a01b03861690811790915590519092917fd000f39f92c3ed77f890f16b6ced1555e0ab2cdf470522d2210de67d8c83d45b91a350565b6000610a2060025490565b670de0b6b3a76400007f00000000000000000000000000000000000000000000000000000000000000006001600160a01b03166391a0ac6a6040518163ffffffff1660e01b8152600401602060405180830381865afa158015610a87573d6000803e3d6000fd5b505050506040513d601f19601f82011682018060405250810190610aab91906118fd565b610ab69060036118a4565b610ac091906118a4565b61055291906119a3565b6000336001600160a01b037f00000000000000000000000000000000000000000000000000000000000000001614610b3a5760405162461bcd60e51b815260206004820152601360248201527231b0b63632b91036bab9ba103132903d31b43360691b60448201526064016106d4565b600254600003610bc357670de0b6b3a7640000841015610b9c5760405162461bcd60e51b815260206004820152601960248201527f696e697469616c206465706f736974206d757374203e3d20310000000000000060448201526064016106d4565b610bae85670de0b6b3a76400006112aa565b610bc0670de0b6b3a76400008561188d565b93505b610c6285610c5d867f00000000000000000000000000000000000000000000000000000000000000006001600160a01b03166391a0ac6a6040518163ffffffff1660e01b8152600401602060405180830381865afa158015610c29573d6000803e3d6000fd5b505050506040513d601f19601f82011682018060405250810190610c4d91906118fd565b610c57919061188d565b8761126f565b6112aa565b6001605a1b610c7060025490565b106106f15760405162461bcd60e51b81526020600482015260156024820152741d1bdd185b081cdd5c1c1b1e48195e18d959591959605a1b60448201526064016106d4565b6000610504338484611153565b600080610cce60025490565b905060007f00000000000000000000000000000000000000000000000000000000000000006001600160a01b03166391a0ac6a6040518163ffffffff1660e01b8152600401602060405180830381865afa158015610d30573d6000803e3d6000fd5b505050506040513d601f19601f82011682018060405250810190610d5491906118fd565b905081610d69670de0b6b3a7640000866118c3565b10610da85760405162461bcd60e51b815260206004820152600f60248201526e746f6f206d616e792073686172657360881b60448201526064016106d4565b6000610db4858461188d565b90506000610dd383610dce610dc9858861134b565b611371565b611382565b9050610ddf818461188d565b9695505050505050565b42841015610e395760405162461bcd60e51b815260206004820152601760248201527f5045524d49545f444541444c494e455f4558504952454400000000000000000060448201526064016106d4565b60006001610e6c604080514660208083019190915230828401528251808303840181526060909201909252805191012090565b6001600160a01b038a811660008181526003602090815260409182902080546001810190915582517f6e71edae12b1b97f4d1f60370fef10105fa2faae0126114a169c64845d6126c98184015280840194909452938d166060840152608083018c905260a083019390935260c08083018b90528151808403909101815260e08301909152805192019190912061190160f01b6101008301526101028201929092526101228101919091526101420160408051601f198184030181528282528051602091820120600084529083018083525260ff871690820152606081018590526080810184905260a0016020604051602081039080840390855afa158015610f78573d6000803e3d6000fd5b5050604051601f1901519150506001600160a01b03811615801590610fae5750876001600160a01b0316816001600160a01b0316145b610feb5760405162461bcd60e51b815260206004820152600e60248201526d24a72b20a624a22fa9a4a3a722a960911b60448201526064016106d4565b610ff681888861105b565b5050505050505050565b6001600160a01b03811660009081526006602052604081205461102d9067ffffffffffffffff164361188d565b6001600160a01b03831660009081526020819052604090205461050891906118a4565b600061055233610557565b6001600160a01b0383811660008181526001602090815260408083209487168084529482529182902085905590518481527f8c5be1e5ebec7d5bd14f71427d1e84f3dd0314c0f7b2291e5b200ac8c7c3b92591015b60405180910390a3505050565b6110c982600083611397565b80600260008282546110db919061188d565b90915550506001600160a01b0382166000908152602081905260408120805483929061110890849061188d565b90915550506040518181526000906001600160a01b038416907fddf252ad1be2c89b69c2b068fc378daa952ba7f163c4a11628f55a4df523b3ef906020015b60405180910390a35050565b6001600160a01b03821661116657600080fd5b611171838383611397565b6001600160a01b0383166000908152602081905260409020548111156111ce5760405162461bcd60e51b81526020600482015260126024820152710c4c2d8c2dcc6ca40dcdee840cadcdeeaced60731b60448201526064016106d4565b6001600160a01b038316600090815260208190526040812080548392906111f690849061188d565b90915550506001600160a01b038216600090815260208190526040812080548392906112239084906118c3565b92505081905550816001600160a01b0316836001600160a01b03167fddf252ad1be2c89b69c2b068fc378daa952ba7f163c4a11628f55a4df523b3ef836040516110b091815260200190565b60008061127b60025490565b9050600061129e82610dce611299611293888a6118c3565b8961134b565b6113bd565b905061087c828261188d565b6001600160a01b0382166112bd57600080fd5b6112c960008383611397565b80600260008282546112db91906118c3565b90915550506001600160a01b038216600090815260208190526040812080548392906113089084906118c3565b90915550506040518181526001600160a01b038316906000907fddf252ad1be2c89b69c2b068fc378daa952ba7f163c4a11628f55a4df523b3ef90602001611147565b600081611360670de0b6b3a7640000856118a4565b61136a91906119a3565b9392505050565b60006105086113808384611382565b835b6000670de0b6b3a764000061136083856118a4565b80156113b85760006113a98383611462565b90506113b6848383611515565b505b505050565b6000670de0b6b3a764000081805b82915060006113e36113dd8586611382565b85611382565b905061141c84610dce6113f78960026118a4565b61140190856118c3565b8961140d8660026118a4565b61141791906118c3565b61134b565b935083831161143d57662386f26fc10000611437848661188d565b11611451565b662386f26fc1000061144f858561188d565b115b915050806113cb5750909392505050565b60006001600160a01b0383161561150d57600061147e84611000565b90506000836114a2866001600160a01b031660009081526020819052604090205490565b6114ac91906118c3565b90506114b881836119a3565b6114c2904361188d565b6001600160a01b0386166000908152600660205260409020805467ffffffffffffffff191667ffffffffffffffff9290921691909117905561150481836119b7565b92505050610508565b506000610508565b60006001600160a01b03841615611564576001600160a01b03841660009081526006602052604090205483906115559067ffffffffffffffff164361188d565b61155f91906118a4565b611567565b60005b9050808261157361050e565b61157d919061188d565b611587919061188d565b4367ffffffffffffffff166001600160c01b0391909116600160401b0267ffffffffffffffff19161760045550505050565b600060208083528351808285015260005b818110156115e6578581018301518582016040015282016115ca565b818111156115f8576000604083870101525b50601f01601f1916929092016040019392505050565b80356001600160a01b038116811461162557600080fd5b919050565b6000806040838503121561163d57600080fd5b6116468361160e565b946020939093013593505050565b60006020828403121561166657600080fd5b61136a8261160e565b60008060006060848603121561168457600080fd5b61168d8461160e565b925061169b6020850161160e565b9150604084013590509250925092565b600080604083850312156116be57600080fd5b6116c78361160e565b91506116d56020840161160e565b90509250929050565b6000602082840312156116f057600080fd5b5035919050565b6000806000806060858703121561170d57600080fd5b6117168561160e565b935060208501359250604085013567ffffffffffffffff8082111561173a57600080fd5b818701915087601f83011261174e57600080fd5b81358181111561175d57600080fd5b88602082850101111561176f57600080fd5b95989497505060200194505050565b60008060006040848603121561179357600080fd5b61179c8461160e565b9250602084013567ffffffffffffffff808211156117b957600080fd5b818601915086601f8301126117cd57600080fd5b8135818111156117dc57600080fd5b8760208260051b85010111156117f157600080fd5b6020830194508093505050509250925092565b600080600080600080600060e0888a03121561181f57600080fd5b6118288861160e565b96506118366020890161160e565b95506040880135945060608801359350608088013560ff8116811461185a57600080fd5b9699959850939692959460a0840135945060c09093013592915050565b634e487b7160e01b600052601160045260246000fd5b60008282101561189f5761189f611877565b500390565b60008160001904831182151516156118be576118be611877565b500290565b600082198211156118d6576118d6611877565b500190565b6000602082840312156118ed57600080fd5b8151801515811461136a57600080fd5b60006020828403121561190f57600080fd5b5051919050565b6001600160a01b0385168152602081018490526060604082018190528101829052818360808301376000818301608090810191909152601f909201601f191601019392505050565b634e487b7160e01b600052603260045260246000fd5b60006001820161198657611986611877565b5060010190565b634e487b7160e01b600052601260045260246000fd5b6000826119b2576119b261198d565b500490565b6000826119c6576119c661198d565b50069056fea264697066735822122003095385dac6beddca2fd095ee7b2a30cf2425645a018a2437f60d38125db77464736f6c634300080d0033",
  "devdoc": {
    "kind": "dev",
    "methods": {
      "allowance(address,address)": {
        "details": "See `IERC20.allowance`."
      },
      "approve(address,uint256)": {
        "details": "See `IERC20.approve`. Requirements: - `spender` cannot be the zero address."
      },
      "balanceOf(address)": {
        "details": "See `IERC20.balanceOf`."
      },
      "equity()": {
        "returns": {
          "_0": "ZCHF in dec18 format"
        }
      },
      "mint(address,uint256)": {
        "params": {
          "_amount": "amount in dec18 format",
          "_target": "address that receives ZCHF if it's a minter"
        }
      },
      "mint(address,uint256,uint32,uint32)": {
        "params": {
          "_amount": "amount ZCHF before fees and pool contribution requested                      number in dec18 format",
          "_feesPPM": "fees in parts per million",
          "_reservePPM": "reserve requirement in parts per million",
          "_target": "address that receives ZCHF if it's a minter"
        }
      },
      "suggestMinter(address,uint256,uint256,string)": {
        "params": {
          "_applicationFee": "application fee in parts per million",
          "_applicationPeriod": "application period in seconds",
          "_message": "message string",
          "_minter": "address of the position want to add to the minters"
        }
      },
      "totalSupply()": {
        "details": "See `IERC20.totalSupply`."
      },
      "transfer(address,uint256)": {
        "details": "See `IERC20.transfer`. Requirements: - `recipient` cannot be the zero address. - the caller must have a balance of at least `amount`."
      },
      "transferFrom(address,address,uint256)": {
        "details": "See `IERC20.transferFrom`. Emits an `Approval` event indicating the updated allowance. This is not required by the EIP. See the note at the beginning of `ERC20`; Requirements: - `sender` and `recipient` cannot be the zero address. - `sender` must have a balance of at least `value`. - the caller must have allowance for `sender`'s tokens of at least `amount`."
      }
    },
    "version": 1
  },
  "userdoc": {
    "kind": "user",
    "methods": {
      "equity()": {
        "notice": "Get reserve balance (amount of ZCHF)"
      },
      "mint(address,uint256)": {
        "notice": "Mint amount of ZCHF for address _target"
      },
      "mint(address,uint256,uint32,uint32)": {
        "notice": "Mint amount of ZCHF for address _target"
      },
      "suggestMinter(address,uint256,uint256,string)": {
        "notice": "Minting is suggested either by (1) person applying for a new original position, or (2) by the minting hub when cloning a position. The minting hub has the priviledge to call with zero application fee and period."
      }
    },
    "version": 1
  },
  "storageLayout": {
    "storage": [
      {
        "astId": 29,
        "contract": "contracts/Frankencoin.sol:Frankencoin",
        "label": "_balances",
        "offset": 0,
        "slot": "0",
        "type": "t_mapping(t_address,t_uint256)"
      },
      {
        "astId": 35,
        "contract": "contracts/Frankencoin.sol:Frankencoin",
        "label": "_allowances",
        "offset": 0,
        "slot": "1",
        "type": "t_mapping(t_address,t_mapping(t_address,t_uint256))"
      },
      {
        "astId": 37,
        "contract": "contracts/Frankencoin.sol:Frankencoin",
        "label": "_totalSupply",
        "offset": 0,
        "slot": "2",
        "type": "t_uint256"
      },
      {
        "astId": 408,
        "contract": "contracts/Frankencoin.sol:Frankencoin",
        "label": "nonces",
        "offset": 0,
        "slot": "3",
        "type": "t_mapping(t_address,t_uint256)"
      },
      {
        "astId": 1187,
        "contract": "contracts/Frankencoin.sol:Frankencoin",
        "label": "minterReserveE6",
        "offset": 0,
        "slot": "4",
        "type": "t_uint256"
      },
      {
        "astId": 1191,
        "contract": "contracts/Frankencoin.sol:Frankencoin",
        "label": "minters",
        "offset": 0,
        "slot": "5",
        "type": "t_mapping(t_address,t_uint256)"
      },
      {
        "astId": 1195,
        "contract": "contracts/Frankencoin.sol:Frankencoin",
        "label": "positions",
        "offset": 0,
        "slot": "6",
        "type": "t_mapping(t_address,t_address)"
      }
    ],
    "types": {
      "t_address": {
        "encoding": "inplace",
        "label": "address",
        "numberOfBytes": "20"
      },
      "t_mapping(t_address,t_address)": {
        "encoding": "mapping",
        "key": "t_address",
        "label": "mapping(address => address)",
        "numberOfBytes": "32",
        "value": "t_address"
      },
      "t_mapping(t_address,t_mapping(t_address,t_uint256))": {
        "encoding": "mapping",
        "key": "t_address",
        "label": "mapping(address => mapping(address => uint256))",
        "numberOfBytes": "32",
        "value": "t_mapping(t_address,t_uint256)"
      },
      "t_mapping(t_address,t_uint256)": {
        "encoding": "mapping",
        "key": "t_address",
        "label": "mapping(address => uint256)",
        "numberOfBytes": "32",
        "value": "t_uint256"
      },
      "t_uint256": {
        "encoding": "inplace",
        "label": "uint256",
        "numberOfBytes": "32"
      }
    }
  }
}