{
  "address": "0x28c4efd564103730160ad1E6A241b30808445363",
  "abi": [
    {
      "inputs": [
        {
          "internalType": "uint256",
          "name": "_minApplicationPeriod",
          "type": "uint256"
        }
      ],
      "stateMutability": "nonpayable",
      "type": "constructor"
    },
    {
      "inputs": [],
      "name": "AlreadyRegistered",
      "type": "error"
    },
    {
      "inputs": [
        {
          "internalType": "address",
          "name": "spender",
          "type": "address"
        },
        {
          "internalType": "uint256",
          "name": "allowance",
          "type": "uint256"
        },
        {
          "internalType": "uint256",
          "name": "needed",
          "type": "uint256"
        }
      ],
      "name": "ERC20InsufficientAllowance",
      "type": "error"
    },
    {
      "inputs": [
        {
          "internalType": "address",
          "name": "sender",
          "type": "address"
        },
        {
          "internalType": "uint256",
          "name": "balance",
          "type": "uint256"
        },
        {
          "internalType": "uint256",
          "name": "needed",
          "type": "uint256"
        }
      ],
      "name": "ERC20InsufficientBalance",
      "type": "error"
    },
    {
      "inputs": [],
      "name": "FeeTooLow",
      "type": "error"
    },
    {
      "inputs": [],
      "name": "NotMinter",
      "type": "error"
    },
    {
      "inputs": [],
      "name": "PeriodTooShort",
      "type": "error"
    },
    {
      "inputs": [],
      "name": "TooLate",
      "type": "error"
    },
    {
      "anonymous": false,
      "inputs": [
        {
          "indexed": true,
          "internalType": "address",
          "name": "owner",
          "type": "address"
        },
        {
          "indexed": true,
          "internalType": "address",
          "name": "spender",
          "type": "address"
        },
        {
          "indexed": false,
          "internalType": "uint256",
          "name": "value",
          "type": "uint256"
        }
      ],
      "name": "Approval",
      "type": "event"
    },
    {
      "anonymous": false,
      "inputs": [
        {
          "indexed": true,
          "internalType": "address",
          "name": "reportingMinter",
          "type": "address"
        },
        {
          "indexed": false,
          "internalType": "uint256",
          "name": "amount",
          "type": "uint256"
        },
        {
          "indexed": false,
          "internalType": "uint256",
          "name": "reserve",
          "type": "uint256"
        }
      ],
      "name": "Loss",
      "type": "event"
    },
    {
      "anonymous": false,
      "inputs": [
        {
          "indexed": true,
          "internalType": "address",
          "name": "minter",
          "type": "address"
        },
        {
          "indexed": false,
          "internalType": "uint256",
          "name": "applicationPeriod",
          "type": "uint256"
        },
        {
          "indexed": false,
          "internalType": "uint256",
          "name": "applicationFee",
          "type": "uint256"
        },
        {
          "indexed": false,
          "internalType": "string",
          "name": "message",
          "type": "string"
        }
      ],
      "name": "MinterApplied",
      "type": "event"
    },
    {
      "anonymous": false,
      "inputs": [
        {
          "indexed": true,
          "internalType": "address",
          "name": "minter",
          "type": "address"
        },
        {
          "indexed": false,
          "internalType": "string",
          "name": "message",
          "type": "string"
        }
      ],
      "name": "MinterDenied",
      "type": "event"
    },
    {
      "anonymous": false,
      "inputs": [
        {
          "indexed": true,
          "internalType": "address",
          "name": "reportingMinter",
          "type": "address"
        },
        {
          "indexed": false,
          "internalType": "uint256",
          "name": "amount",
          "type": "uint256"
        },
        {
          "indexed": false,
          "internalType": "uint256",
          "name": "reserve",
          "type": "uint256"
        }
      ],
      "name": "Profit",
      "type": "event"
    },
    {
      "anonymous": false,
      "inputs": [
        {
          "indexed": true,
          "internalType": "address",
          "name": "from",
          "type": "address"
        },
        {
          "indexed": true,
          "internalType": "address",
          "name": "to",
          "type": "address"
        },
        {
          "indexed": false,
          "internalType": "uint256",
          "name": "value",
          "type": "uint256"
        }
      ],
      "name": "Transfer",
      "type": "event"
    },
    {
      "inputs": [],
      "name": "DOMAIN_SEPARATOR",
      "outputs": [
        {
          "internalType": "bytes32",
          "name": "",
          "type": "bytes32"
        }
      ],
      "stateMutability": "view",
      "type": "function"
    },
    {
      "inputs": [],
      "name": "MIN_APPLICATION_PERIOD",
      "outputs": [
        {
          "internalType": "uint256",
          "name": "",
          "type": "uint256"
        }
      ],
      "stateMutability": "view",
      "type": "function"
    },
    {
      "inputs": [],
      "name": "MIN_FEE",
      "outputs": [
        {
          "internalType": "uint256",
          "name": "",
          "type": "uint256"
        }
      ],
      "stateMutability": "view",
      "type": "function"
    },
    {
      "inputs": [
        {
          "internalType": "address",
          "name": "owner",
          "type": "address"
        },
        {
          "internalType": "address",
          "name": "spender",
          "type": "address"
        }
      ],
      "name": "allowance",
      "outputs": [
        {
          "internalType": "uint256",
          "name": "",
          "type": "uint256"
        }
      ],
      "stateMutability": "view",
      "type": "function"
    },
    {
      "inputs": [
        {
          "internalType": "address",
          "name": "spender",
          "type": "address"
        },
        {
          "internalType": "uint256",
          "name": "value",
          "type": "uint256"
        }
      ],
      "name": "approve",
      "outputs": [
        {
          "internalType": "bool",
          "name": "",
          "type": "bool"
        }
      ],
      "stateMutability": "nonpayable",
      "type": "function"
    },
    {
      "inputs": [
        {
          "internalType": "address",
          "name": "account",
          "type": "address"
        }
      ],
      "name": "balanceOf",
      "outputs": [
        {
          "internalType": "uint256",
          "name": "",
          "type": "uint256"
        }
      ],
      "stateMutability": "view",
      "type": "function"
    },
    {
      "inputs": [
        {
          "internalType": "uint256",
          "name": "_amount",
          "type": "uint256"
        }
      ],
      "name": "burn",
      "outputs": [],
      "stateMutability": "nonpayable",
      "type": "function"
    },
    {
      "inputs": [
        {
          "internalType": "address",
          "name": "_owner",
          "type": "address"
        },
        {
          "internalType": "uint256",
          "name": "_amount",
          "type": "uint256"
        }
      ],
      "name": "burnFrom",
      "outputs": [],
      "stateMutability": "nonpayable",
      "type": "function"
    },
    {
      "inputs": [
        {
          "internalType": "address",
          "name": "payer",
          "type": "address"
        },
        {
          "internalType": "uint256",
          "name": "targetTotalBurnAmount",
          "type": "uint256"
        },
        {
          "internalType": "uint32",
          "name": "reservePPM",
          "type": "uint32"
        }
      ],
      "name": "burnFromWithReserve",
      "outputs": [
        {
          "internalType": "uint256",
          "name": "",
          "type": "uint256"
        }
      ],
      "stateMutability": "nonpayable",
      "type": "function"
    },
    {
      "inputs": [
        {
          "internalType": "uint256",
          "name": "_amountExcludingReserve",
          "type": "uint256"
        },
        {
          "internalType": "uint32",
          "name": "_reservePPM",
          "type": "uint32"
        }
      ],
      "name": "burnWithReserve",
      "outputs": [
        {
          "internalType": "uint256",
          "name": "",
          "type": "uint256"
        }
      ],
      "stateMutability": "nonpayable",
      "type": "function"
    },
    {
      "inputs": [
        {
          "internalType": "uint256",
          "name": "amount",
          "type": "uint256"
        },
        {
          "internalType": "uint32",
          "name": "reservePPM",
          "type": "uint32"
        }
      ],
      "name": "burnWithoutReserve",
      "outputs": [],
      "stateMutability": "nonpayable",
      "type": "function"
    },
    {
      "inputs": [
        {
          "internalType": "uint256",
          "name": "mintedAmount",
          "type": "uint256"
        },
        {
          "internalType": "uint32",
          "name": "_reservePPM",
          "type": "uint32"
        }
      ],
      "name": "calculateAssignedReserve",
      "outputs": [
        {
          "internalType": "uint256",
          "name": "",
          "type": "uint256"
        }
      ],
      "stateMutability": "view",
      "type": "function"
    },
    {
      "inputs": [
        {
          "internalType": "uint256",
          "name": "amountExcludingReserve",
          "type": "uint256"
        },
        {
          "internalType": "uint32",
          "name": "reservePPM",
          "type": "uint32"
        }
      ],
      "name": "calculateFreedAmount",
      "outputs": [
        {
          "internalType": "uint256",
          "name": "",
          "type": "uint256"
        }
      ],
      "stateMutability": "view",
      "type": "function"
    },
    {
      "inputs": [
        {
          "internalType": "address",
          "name": "source",
          "type": "address"
        },
        {
          "internalType": "uint256",
          "name": "_amount",
          "type": "uint256"
        }
      ],
      "name": "collectProfits",
      "outputs": [],
      "stateMutability": "nonpayable",
      "type": "function"
    },
    {
      "inputs": [
        {
          "internalType": "address",
          "name": "source",
          "type": "address"
        },
        {
          "internalType": "uint256",
          "name": "_amount",
          "type": "uint256"
        }
      ],
      "name": "coverLoss",
      "outputs": [],
      "stateMutability": "nonpayable",
      "type": "function"
    },
    {
      "inputs": [],
      "name": "decimals",
      "outputs": [
        {
          "internalType": "uint8",
          "name": "",
          "type": "uint8"
        }
      ],
      "stateMutability": "view",
      "type": "function"
    },
    {
      "inputs": [
        {
          "internalType": "address",
          "name": "_minter",
          "type": "address"
        },
        {
          "internalType": "address[]",
          "name": "_helpers",
          "type": "address[]"
        },
        {
          "internalType": "string",
          "name": "_message",
          "type": "string"
        }
      ],
      "name": "denyMinter",
      "outputs": [],
      "stateMutability": "nonpayable",
      "type": "function"
    },
    {
      "inputs": [],
      "name": "equity",
      "outputs": [
        {
          "internalType": "uint256",
          "name": "",
          "type": "uint256"
        }
      ],
      "stateMutability": "view",
      "type": "function"
    },
    {
      "inputs": [
        {
          "internalType": "address",
          "name": "_position",
          "type": "address"
        }
      ],
      "name": "getPositionParent",
      "outputs": [
        {
          "internalType": "address",
          "name": "",
          "type": "address"
        }
      ],
      "stateMutability": "view",
      "type": "function"
    },
    {
      "inputs": [
        {
          "internalType": "address",
          "name": "_minter",
          "type": "address"
        },
        {
          "internalType": "string",
          "name": "_message",
          "type": "string"
        }
      ],
      "name": "initialize",
      "outputs": [],
      "stateMutability": "nonpayable",
      "type": "function"
    },
    {
      "inputs": [
        {
          "internalType": "address",
          "name": "_minter",
          "type": "address"
        }
      ],
      "name": "isMinter",
      "outputs": [
        {
          "internalType": "bool",
          "name": "",
          "type": "bool"
        }
      ],
      "stateMutability": "view",
      "type": "function"
    },
    {
      "inputs": [
        {
          "internalType": "address",
          "name": "_target",
          "type": "address"
        },
        {
          "internalType": "uint256",
          "name": "_amount",
          "type": "uint256"
        }
      ],
      "name": "mint",
      "outputs": [],
      "stateMutability": "nonpayable",
      "type": "function"
    },
    {
      "inputs": [
        {
          "internalType": "address",
          "name": "_target",
          "type": "address"
        },
        {
          "internalType": "uint256",
          "name": "_amount",
          "type": "uint256"
        },
        {
          "internalType": "uint32",
          "name": "_reservePPM",
          "type": "uint32"
        },
        {
          "internalType": "uint32",
          "name": "_feesPPM",
          "type": "uint32"
        }
      ],
      "name": "mintWithReserve",
      "outputs": [],
      "stateMutability": "nonpayable",
      "type": "function"
    },
    {
      "inputs": [],
      "name": "minterReserve",
      "outputs": [
        {
          "internalType": "uint256",
          "name": "",
          "type": "uint256"
        }
      ],
      "stateMutability": "view",
      "type": "function"
    },
    {
      "inputs": [
        {
          "internalType": "address",
          "name": "minter",
          "type": "address"
        }
      ],
      "name": "minters",
      "outputs": [
        {
          "internalType": "uint256",
          "name": "validityStart",
          "type": "uint256"
        }
      ],
      "stateMutability": "view",
      "type": "function"
    },
    {
      "inputs": [],
      "name": "name",
      "outputs": [
        {
          "internalType": "string",
          "name": "",
          "type": "string"
        }
      ],
      "stateMutability": "pure",
      "type": "function"
    },
    {
      "inputs": [
        {
          "internalType": "address",
          "name": "account",
          "type": "address"
        }
      ],
      "name": "nonces",
      "outputs": [
        {
          "internalType": "uint256",
          "name": "nonce",
          "type": "uint256"
        }
      ],
      "stateMutability": "view",
      "type": "function"
    },
    {
      "inputs": [
        {
          "internalType": "address",
          "name": "owner",
          "type": "address"
        },
        {
          "internalType": "address",
          "name": "spender",
          "type": "address"
        },
        {
          "internalType": "uint256",
          "name": "value",
          "type": "uint256"
        },
        {
          "internalType": "uint256",
          "name": "deadline",
          "type": "uint256"
        },
        {
          "internalType": "uint8",
          "name": "v",
          "type": "uint8"
        },
        {
          "internalType": "bytes32",
          "name": "r",
          "type": "bytes32"
        },
        {
          "internalType": "bytes32",
          "name": "s",
          "type": "bytes32"
        }
      ],
      "name": "permit",
      "outputs": [],
      "stateMutability": "nonpayable",
      "type": "function"
    },
    {
      "inputs": [
        {
          "internalType": "address",
          "name": "position",
          "type": "address"
        }
      ],
      "name": "positions",
      "outputs": [
        {
          "internalType": "address",
          "name": "registeringMinter",
          "type": "address"
        }
      ],
      "stateMutability": "view",
      "type": "function"
    },
    {
      "inputs": [
        {
          "internalType": "address",
          "name": "_position",
          "type": "address"
        }
      ],
      "name": "registerPosition",
      "outputs": [],
      "stateMutability": "nonpayable",
      "type": "function"
    },
    {
      "inputs": [],
      "name": "reserve",
      "outputs": [
        {
          "internalType": "contract IReserve",
          "name": "",
          "type": "address"
        }
      ],
      "stateMutability": "view",
      "type": "function"
    },
    {
      "inputs": [
        {
          "internalType": "address",
          "name": "_minter",
          "type": "address"
        },
        {
          "internalType": "uint256",
          "name": "_applicationPeriod",
          "type": "uint256"
        },
        {
          "internalType": "uint256",
          "name": "_applicationFee",
          "type": "uint256"
        },
        {
          "internalType": "string",
          "name": "_message",
          "type": "string"
        }
      ],
      "name": "suggestMinter",
      "outputs": [],
      "stateMutability": "nonpayable",
      "type": "function"
    },
    {
      "inputs": [],
      "name": "symbol",
      "outputs": [
        {
          "internalType": "string",
          "name": "",
          "type": "string"
        }
      ],
      "stateMutability": "pure",
      "type": "function"
    },
    {
      "inputs": [],
      "name": "totalSupply",
      "outputs": [
        {
          "internalType": "uint256",
          "name": "",
          "type": "uint256"
        }
      ],
      "stateMutability": "view",
      "type": "function"
    },
    {
      "inputs": [
        {
          "internalType": "address",
          "name": "recipient",
          "type": "address"
        },
        {
          "internalType": "uint256",
          "name": "amount",
          "type": "uint256"
        }
      ],
      "name": "transfer",
      "outputs": [
        {
          "internalType": "bool",
          "name": "",
          "type": "bool"
        }
      ],
      "stateMutability": "nonpayable",
      "type": "function"
    },
    {
      "inputs": [
        {
          "internalType": "address",
          "name": "sender",
          "type": "address"
        },
        {
          "internalType": "address",
          "name": "recipient",
          "type": "address"
        },
        {
          "internalType": "uint256",
          "name": "amount",
          "type": "uint256"
        }
      ],
      "name": "transferFrom",
      "outputs": [
        {
          "internalType": "bool",
          "name": "",
          "type": "bool"
        }
      ],
      "stateMutability": "nonpayable",
      "type": "function"
    }
  ],
  "transactionHash": "0xa9edd1c910e02ee0bb226946e24129b6d7040582a482b966207fae8b8afe7bc1",
  "args": [
    900
  ],
  "numDeployments": 5,
  "solcInputHash": "a5e53493ba634ae078d9725a4878d409",
  "bytecode": "0x60e06040523480156200001157600080fd5b50604051620041cb380380620041cb83398101604081905262000034916200009d565b601260805260a081905260405130906200004e906200008f565b6001600160a01b039091168152602001604051809103906000f0801580156200007b573d6000803e3d6000fd5b506001600160a01b031660c05250620000b7565b6122888062001f4383390190565b600060208284031215620000b057600080fd5b5051919050565b60805160a05160c051611dfa62000149600039600081816104fa015281816105f7015281816106fb0152818161097501528181610a2501528181610ad101528181610c1601528181610f7c01528181610fbf01528181610fef015281816112870152818161132f0152818161171401526117d40152600081816102ab0152610e1f015260006102e50152611dfa6000f3fe608060405234801561001057600080fd5b506004361061021c5760003560e01c806391a0ac6a11610125578063cd3293de116100ad578063d505accf1161007c578063d505accf1461054a578063dd62ed3e1461055d578063e093c8a414610570578063f399e22e14610583578063f46eccc41461059657600080fd5b8063cd3293de146104f5578063d1a15ff11461051c578063d1fa5e981461052f578063d38bb0091461054257600080fd5b8063a9059cbb116100f4578063a9059cbb1461047d578063aa271e1a14610490578063aa5dd7f1146104a3578063b52c696d146104cf578063c7641866146104e257600080fd5b806391a0ac6a1461042f57806395d89b41146104375780639b404da614610457578063a47d75ad1461046a57600080fd5b806340c10f19116101a857806370a082311161017757806370a08231146103b057806376c7a3c7146103d957806379cc6790146103e95780637ecebe00146103fc5780638112eb2b1461041c57600080fd5b806340c10f191461033457806342966c681461034957806355f575101461035c5780636ebdb8ee1461039d57600080fd5b80631a46c7e9116101ef5780631a46c7e9146102a657806323b872dd146102cd578063313ce567146102e0578063315f3e72146103195780633644e5151461032c57600080fd5b806306fdde0314610221578063095ea7b31461025a57806316e0e5381461027d57806318160ddd1461029e575b600080fd5b60408051808201909152600b81526a233930b735b2b731b7b4b760a91b60208201525b604051610251919061182b565b60405180910390f35b61026d610268366004611895565b6105b6565b6040519015158152602001610251565b61029061028b3660046118d3565b6105cd565b604051908152602001610251565b600254610290565b6102907f000000000000000000000000000000000000000000000000000000000000000081565b61026d6102db3660046118ff565b610671565b6103077f000000000000000000000000000000000000000000000000000000000000000081565b60405160ff9091168152602001610251565b61029061032736600461193b565b610693565b61029061075a565b610347610342366004611895565b6107b3565b005b610347610357366004611977565b610814565b61038561036a366004611990565b6006602052600090815260409020546001600160a01b031681565b6040516001600160a01b039091168152602001610251565b6103476103ab366004611895565b610821565b6102906103be366004611990565b6001600160a01b031660009081526020819052604090205490565b610290683635c9adc5dea0000081565b6103476103f7366004611895565b61087f565b61029061040a366004611990565b60036020526000908152604090205481565b61034761042a3660046119ab565b6108dc565b610290610a1b565b6040805180820190915260048152632d21a42360e11b6020820152610244565b610347610465366004611a41565b610a81565b6102906104783660046118d3565b610b87565b61026d61048b366004611895565b610c56565b61026d61049e366004611990565b610c63565b6103856104b1366004611990565b6001600160a01b039081166000908152600660205260409020541690565b6103476104dd366004611990565b610ca4565b6103476104f03660046118d3565b610cf3565b6103857f000000000000000000000000000000000000000000000000000000000000000081565b61034761052a366004611af3565b610e1d565b61034761053d366004611895565b610f27565b610290611064565b610347610558366004611b4a565b61107c565b61029061056b366004611bbd565b611271565b61029061057e3660046118d3565b61127d565b610347610591366004611be7565b611322565b6102906105a4366004611990565b60056020526000908152604090205481565b60006105c3338484611408565b5060015b92915050565b600080620f42406105e48563ffffffff8616611c50565b6105ee9190611c67565b905060006106317f00000000000000000000000000000000000000000000000000000000000000006001600160a01b031660009081526020819052604090205490565b9050600061063d611064565b90508082101561066657806106528385611c50565b61065c9190611c67565b93505050506105c7565b8293505050506105c7565b600061067e84848461146a565b610689843384611581565b5060019392505050565b600061069e33610c63565b1580156106ca5750336000908152600660205260409020546106c8906001600160a01b0316610c63565b155b156106e857604051633e34a41b60e21b815260040160405180910390fd5b60006106f484846105cd565b90506107217f0000000000000000000000000000000000000000000000000000000000000000868361146a565b61072b85856115ef565b61073b63ffffffff841685611c50565b6004600082825461074c9190611c89565b909155509095945050505050565b604080517f47e79534a245952e8b16893a336b85a3d9ea9fa8c573f3d803afb92a794692186020820152469181019190915230606082015260009060800160405160208183030381529060405280519060200120905090565b6107bc33610c63565b1580156107e85750336000908152600660205260409020546107e6906001600160a01b0316610c63565b155b1561080657604051633e34a41b60e21b815260040160405180910390fd5b6108108282611679565b5050565b61081e33826115ef565b50565b61082a33610c63565b158015610856575033600090815260066020526040902054610854906001600160a01b0316610c63565b155b1561087457604051633e34a41b60e21b815260040160405180910390fd5b61081033838361170e565b61088833610c63565b1580156108b45750336000908152600660205260409020546108b2906001600160a01b0316610c63565b155b156108d257604051633e34a41b60e21b815260040160405180910390fd5b61081082826115ef565b6108e533610c63565b15801561091157503360009081526006602052604090205461090f906001600160a01b0316610c63565b155b1561092f57604051633e34a41b60e21b815260040160405180910390fd5b6000620f4240836109408483611c9c565b61094a9190611c9c565b61095a9063ffffffff1686611c50565b6109649190611c67565b90506109708582611679565b6109a37f000000000000000000000000000000000000000000000000000000000000000061099e8387611c89565b611679565b6109b363ffffffff841685611c50565b600460008282546109c49190611cb9565b90915550339050600080516020611da5833981519152620f42406109ee8763ffffffff8716611c50565b6109f89190611c67565b600454604080519283526020830191909152015b60405180910390a25050505050565b6001600160a01b037f0000000000000000000000000000000000000000000000000000000000000000166000908152602081905260408120546000610a5e611064565b9050808211610a705760009250505090565b610a7a8183611c89565b9250505090565b6001600160a01b038516600090815260056020526040902054421115610aba5760405163ecdd1c2960e01b815260040160405180910390fd5b60405163352e3a8360e01b81526001600160a01b037f0000000000000000000000000000000000000000000000000000000000000000169063352e3a8390610b0a90339088908890600401611ccc565b60006040518083038186803b158015610b2257600080fd5b505afa158015610b36573d6000803e3d6000fd5b505050506001600160a01b03851660008181526005602052604080822091909155517fd60c86e83346fdbe3124cb7d1cba32973a9f62d05c4ec801bfe6c09d1038038190610a0c9085908590611d4f565b6000610b9233610c63565b158015610bbe575033600090815260066020526040902054610bbc906001600160a01b0316610c63565b155b15610bdc57604051633e34a41b60e21b815260040160405180910390fd5b6000610be8848461127d565b9050610bfa63ffffffff841682611c50565b60046000828254610c0b9190611c89565b90915550610c4590507f000000000000000000000000000000000000000000000000000000000000000033610c408785611c89565b61146a565b610c4f33826115ef565b9392505050565b60006105c333848461146a565b6001600160a01b038116600090815260056020526040812054158015906105c75750506001600160a01b031660009081526005602052604090205442101590565b610cad33610c63565b610cca57604051633e34a41b60e21b815260040160405180910390fd5b6001600160a01b0316600090815260066020526040902080546001600160a01b03191633179055565b610cfc33610c63565b158015610d28575033600090815260066020526040902054610d26906001600160a01b0316610c63565b155b15610d4657604051633e34a41b60e21b815260040160405180910390fd5b610d5033836115ef565b6000610d6263ffffffff831684611c50565b9050600454811115610db957336001600160a01b0316600080516020611da5833981519152620f4240600454610d989190611c67565b60408051918252600060208301520160405180910390a26000600455505050565b8060046000828254610dcb9190611c89565b90915550339050600080516020611da5833981519152610dee620f424084611c67565b620f4240600454610dff9190611c67565b604080519283526020830191909152015b60405180910390a2505050565b7f0000000000000000000000000000000000000000000000000000000000000000841015610e5e57604051631260d0af60e31b815260040160405180910390fd5b683635c9adc5dea00000831015610e885760405163732f941360e01b815260040160405180910390fd5b6001600160a01b03851660009081526005602052604090205415610ebf57604051630ea075bf60e21b815260040160405180910390fd5b610eca30338561170e565b610ed48442611cb9565b6001600160a01b038616600081815260056020526040908190209290925590517f97326258efdae63280617ca33884e507791c2abeed7b82acd77f1853394ef94b90610a0c908790879087908790611d6b565b610f3033610c63565b158015610f5c575033600090815260066020526040902054610f5a906001600160a01b0316610c63565b155b15610f7a57604051633e34a41b60e21b815260040160405180910390fd5b7f00000000000000000000000000000000000000000000000000000000000000006001600160a01b0316600090815260208190526040902054818110610fea57610fe57f0000000000000000000000000000000000000000000000000000000000000000848461146a565b611023565b6110157f0000000000000000000000000000000000000000000000000000000000000000848361146a565b6110238361099e8385611c89565b60408051838152602081018390526001600160a01b038516917f68968dce3e47f9519d4b1886045d266b13a87545a0831788b35556bbf8abb6c79101610e10565b6000620f42406004546110779190611c67565b905090565b428410156110d15760405162461bcd60e51b815260206004820152601760248201527f5045524d49545f444541444c494e455f4558504952454400000000000000000060448201526064015b60405180910390fd5b600060016110dd61075a565b6001600160a01b038a811660008181526003602090815260409182902080546001810190915582517f6e71edae12b1b97f4d1f60370fef10105fa2faae0126114a169c64845d6126c98184015280840194909452938d166060840152608083018c905260a083019390935260c08083018b90528151808403909101815260e08301909152805192019190912061190160f01b6101008301526101028201929092526101228101919091526101420160408051601f198184030181528282528051602091820120600084529083018083525260ff871690820152606081018590526080810184905260a0016020604051602081039080840390855afa1580156111e9573d6000803e3d6000fd5b5050604051601f1901519150506001600160a01b0381161580159061121f5750876001600160a01b0316816001600160a01b0316145b61125c5760405162461bcd60e51b815260206004820152600e60248201526d24a72b20a624a22fa9a4a3a722a960911b60448201526064016110c8565b611267818888611408565b5050505050505050565b6000610c4f8383611764565b6001600160a01b037f00000000000000000000000000000000000000000000000000000000000000001660009081526020819052604081205460006112c0611064565b905060008183106112d7578463ffffffff166112f2565b816112e88463ffffffff8816611c50565b6112f29190611c67565b905061130181620f4240611c89565b61130e87620f4240611c50565b6113189190611c67565b9695505050505050565b6002541580156113b157507f00000000000000000000000000000000000000000000000000000000000000006001600160a01b03166318160ddd6040518163ffffffff1660e01b8152600401602060405180830381865afa15801561138b573d6000803e3d6000fd5b505050506040513d601f19601f820116820180604052508101906113af9190611d8b565b155b6113ba57600080fd5b6001600160a01b038316600081815260056020526040808220429055517f97326258efdae63280617ca33884e507791c2abeed7b82acd77f1853394ef94b91610e1091819087908790611d6b565b6001600160a01b0383811660008181526001602090815260408083209487168084529482529182902085905590518481527f8c5be1e5ebec7d5bd14f71427d1e84f3dd0314c0f7b2291e5b200ac8c7c3b92591015b60405180910390a3505050565b6001600160a01b03821661147d57600080fd5b6001600160a01b0383166000908152602081905260409020548111156114e0576001600160a01b0383166000818152602081905260409081902054905163391434e360e21b815260048101929092526024820152604481018290526064016110c8565b6001600160a01b03831660009081526020819052604081208054839290611508908490611c89565b90915550506001600160a01b03821660009081526020819052604081208054839290611535908490611cb9565b92505081905550816001600160a01b0316836001600160a01b03167fddf252ad1be2c89b69c2b068fc378daa952ba7f163c4a11628f55a4df523b3ef8360405161145d91815260200190565b600061158d8484611764565b9050600160ff1b8110156115e957818110156115d557604051637dc7a0d960e11b81526001600160a01b038516600482015260248101829052604481018390526064016110c8565b6115e984846115e48585611c89565b611408565b50505050565b80600260008282546116019190611c89565b90915550506001600160a01b0382166000908152602081905260408120805483929061162e908490611c89565b90915550506040518181526000906001600160a01b038416907fddf252ad1be2c89b69c2b068fc378daa952ba7f163c4a11628f55a4df523b3ef906020015b60405180910390a35050565b6001600160a01b03821661168c57600080fd5b806002600082825461169e9190611cb9565b90915550506001600160a01b038216600090815260208190526040812080548392906116cb908490611cb9565b90915550506040518181526001600160a01b038316906000907fddf252ad1be2c89b69c2b068fc378daa952ba7f163c4a11628f55a4df523b3ef9060200161166d565b611739827f00000000000000000000000000000000000000000000000000000000000000008361146a565b826001600160a01b0316600080516020611da583398151915282620f4240600454610dff9190611c67565b6001600160a01b03808316600090815260016020908152604080832093851683529290529081205480156117995790506105c7565b6117a283610c63565b806117cc57506001600160a01b038084166000908152600660205260409020546117cc9116610c63565b8061180857507f00000000000000000000000000000000000000000000000000000000000000006001600160a01b0316836001600160a01b0316145b1561181a57600160ff1b9150506105c7565b60009150506105c7565b5092915050565b600060208083528351808285015260005b818110156118585785810183015185820160400152820161183c565b506000604082860101526040601f19601f8301168501019250505092915050565b80356001600160a01b038116811461189057600080fd5b919050565b600080604083850312156118a857600080fd5b6118b183611879565b946020939093013593505050565b803563ffffffff8116811461189057600080fd5b600080604083850312156118e657600080fd5b823591506118f6602084016118bf565b90509250929050565b60008060006060848603121561191457600080fd5b61191d84611879565b925061192b60208501611879565b9150604084013590509250925092565b60008060006060848603121561195057600080fd5b61195984611879565b92506020840135915061196e604085016118bf565b90509250925092565b60006020828403121561198957600080fd5b5035919050565b6000602082840312156119a257600080fd5b610c4f82611879565b600080600080608085870312156119c157600080fd5b6119ca85611879565b9350602085013592506119df604086016118bf565b91506119ed606086016118bf565b905092959194509250565b60008083601f840112611a0a57600080fd5b50813567ffffffffffffffff811115611a2257600080fd5b602083019150836020828501011115611a3a57600080fd5b9250929050565b600080600080600060608688031215611a5957600080fd5b611a6286611879565b9450602086013567ffffffffffffffff80821115611a7f57600080fd5b818801915088601f830112611a9357600080fd5b813581811115611aa257600080fd5b8960208260051b8501011115611ab757600080fd5b602083019650809550506040880135915080821115611ad557600080fd5b50611ae2888289016119f8565b969995985093965092949392505050565b600080600080600060808688031215611b0b57600080fd5b611b1486611879565b94506020860135935060408601359250606086013567ffffffffffffffff811115611b3e57600080fd5b611ae2888289016119f8565b600080600080600080600060e0888a031215611b6557600080fd5b611b6e88611879565b9650611b7c60208901611879565b95506040880135945060608801359350608088013560ff81168114611ba057600080fd5b9699959850939692959460a0840135945060c09093013592915050565b60008060408385031215611bd057600080fd5b611bd983611879565b91506118f660208401611879565b600080600060408486031215611bfc57600080fd5b611c0584611879565b9250602084013567ffffffffffffffff811115611c2157600080fd5b611c2d868287016119f8565b9497909650939450505050565b634e487b7160e01b600052601160045260246000fd5b80820281158282048414176105c7576105c7611c3a565b600082611c8457634e487b7160e01b600052601260045260246000fd5b500490565b818103818111156105c7576105c7611c3a565b63ffffffff82811682821603908082111561182457611824611c3a565b808201808211156105c7576105c7611c3a565b6001600160a01b03848116825260406020808401829052908301849052600091859160608501845b87811015611d195783611d0686611879565b1682529382019390820190600101611cf4565b5098975050505050505050565b81835281816020850137506000828201602090810191909152601f909101601f19169091010190565b602081526000611d63602083018486611d26565b949350505050565b848152836020820152606060408201526000611318606083018486611d26565b600060208284031215611d9d57600080fd5b505191905056feccd7238a587ca4ccdab9f52533787066603f50db964bc819b82ad7e7036e1769a2646970667358221220328797b78c279efbb99c50a66e64664cfbff61031b91220d079d32a9156cbdc864736f6c6343000814003360c060405234801561001057600080fd5b50604051620022883803806200228883398101604081905261003191610047565b60126080526001600160a01b031660a052610077565b60006020828403121561005957600080fd5b81516001600160a01b038116811461007057600080fd5b9392505050565b60805160a0516121b3620000d5600039600081816104b2015281816107ca0152818161092001528181610aea01528181610b9b01528181610cb601528181610ff20152818161106c01526113740152600061030801526121b36000f3fe608060405234801561001057600080fd5b50600436106101fb5760003560e01c806370a082311161011a578063a9059cbb116100ad578063c9f72b671161007c578063c9f72b67146104d4578063d505accf146104e7578063d87aa643146104fa578063d8bff5a51461050d578063dd62ed3e1461052057600080fd5b8063a9059cbb1461047a578063ad08ce5b1461048d578063b0c2bf06146104a0578063c4d4803a146104ad57600080fd5b806391ac6f99116100e957806391ac6f991461042d57806395d89b41146104405780639823004f1461045f578063a035b1fe1461047257600080fd5b806370a08231146103be5780637ecebe00146103e7578063820710af1461040757806384a7aa0c1461041a57600080fd5b806323b872dd116101925780633644e515116101615780633644e5151461034f5780633ec1619414610357578063587cde1e1461036a5780635895b773146103ab57600080fd5b806323b872dd146102d3578063250f25f4146102e6578063313ce56714610303578063352e3a831461033c57600080fd5b8063151535b9116101ce578063151535b91461029057806318160ddd146102a35780631e9a6950146102ab5780632295abea146102be57600080fd5b806306fdde0314610200578063095ea7b3146102445780630d15fd77146102675780630e89c3701461027d575b600080fd5b6040805180820190915260168152754672616e6b656e636f696e20506f6f6c20536861726560501b60208201525b60405161023b9190611cb2565b60405180910390f35b610257610252366004611d1c565b610533565b604051901515815260200161023b565b61026f61054a565b60405190815260200161023b565b61026f61028b366004611d46565b6105a5565b61025761029e366004611d79565b6105ca565b60025461026f565b61026f6102b9366004611d1c565b610612565b6102d16102cc366004611ddf565b610626565b005b6102576102e1366004611e2a565b6106f5565b6102ee600381565b60405163ffffffff909116815260200161023b565b61032a7f000000000000000000000000000000000000000000000000000000000000000081565b60405160ff909116815260200161023b565b6102d161034a366004611e66565b610717565b61026f61076a565b61026f610365366004611eb8565b6107c3565b610393610378366004611d79565b6005602052600090815260409020546001600160a01b031681565b6040516001600160a01b03909116815260200161023b565b61026f6103b9366004611e66565b610850565b61026f6103cc366004611d79565b6001600160a01b031660009081526020819052604090205490565b61026f6103f5366004611d79565b60036020526000908152604090205481565b6102d1610415366004611ed1565b61090a565b61026f610428366004611d79565b610a2d565b61026f61043b366004611f3c565b610a5c565b60408051808201909152600381526246505360e81b602082015261022e565b6102d161046d366004611d79565b610a8e565b61026f610ae5565b610257610488366004611d1c565b610c40565b61026f61049b366004611eb8565b610c4d565b61026f65076a7000000081565b6103937f000000000000000000000000000000000000000000000000000000000000000081565b61026f6104e2366004611d79565b610d91565b6102d16104f5366004611f7e565b610ddd565b61026f610508366004611ff1565b610fcd565b61026f61051b366004611d79565b611233565b61026f61052e366004612013565b611294565b60006105403384846112c1565b5060015b92915050565b600454600090600160c01b90046001600160401b03164260141b61056e919061205c565b6001600160401b031661058060025490565b61058a919061207c565b6004546105a091906001600160c01b0316612093565b905090565b6000806105b3338686611323565b9050828110156105c257600080fd5b949350505050565b6001600160a01b03811660009081526006602052604081205465076a7000000090610601906001600160401b03164260141b61205c565b6001600160401b0316101592915050565b600061061f338484611323565b9392505050565b6000610632338361144b565b90506000805b848110801561064657508282105b156106a257610684868683818110610660576106606120a6565b90506020020160208101906106759190611d79565b61067f84866120bc565b61144b565b61068e9083612093565b91508061069a816120cf565b915050610638565b50600081116106b057600080fd5b81816106ba61054a565b6106c491906120bc565b6106ce91906120bc565b6001600160c01b0316600160c01b4260141b6001600160401b031602176004555050505050565b600061070284848461153b565b61070d84338461165d565b5060019392505050565b6000610724848484610850565b905061072e61054a565b6107399060c861207c565b6107458261271061207c565b10156107645760405163bcfcdc1160e01b815260040160405180910390fd5b50505050565b604080517f47e79534a245952e8b16893a336b85a3d9ea9fa8c573f3d803afb92a794692186020820152469181019190915230606082015260009060800160405160208183030381529060405280519060200120905090565b60006105447f00000000000000000000000000000000000000000000000000000000000000006001600160a01b03166391a0ac6a6040518163ffffffff1660e01b8152600401602060405180830381865afa158015610826573d6000803e3d6000fd5b505050506040513d601f19601f8201168201806040525081019061084a91906120e8565b836116dd565b60008061085c85611233565b9050610868848461177b565b61087157600080fd5b60005b83811015610901576000858583818110610890576108906120a6565b90506020020160208101906108a59190611d79565b9050866001600160a01b0316816001600160a01b0316036108c557600080fd5b6108cf8782611854565b6108d857600080fd5b6108e181611233565b6108eb9084612093565b92505080806108f9906120cf565b915050610874565b50949350505050565b61091e670de0b6b3a76400006103e861207c565b7f00000000000000000000000000000000000000000000000000000000000000006001600160a01b03166391a0ac6a6040518163ffffffff1660e01b8152600401602060405180830381865afa15801561097c573d6000803e3d6000fd5b505050506040513d601f19601f820116820180604052508101906109a091906120e8565b106109aa57600080fd5b6109b5338585610717565b60005b81811015610a265760008383838181106109d4576109d46120a6565b90506020020160208101906109e99190611d79565b9050610a1381610a0e836001600160a01b031660009081526020819052604090205490565b6118ba565b5080610a1e816120cf565b9150506109b8565b5050505050565b6000610a3761054a565b610a4083611233565b610a5290670de0b6b3a764000061207c565b6105449190612117565b6000610a6985338561165d565b6000610a76868686611323565b905082811015610a8557600080fd5b95945050505050565b3360008181526005602052604080822080546001600160a01b0319166001600160a01b03861690811790915590519092917fd000f39f92c3ed77f890f16b6ced1555e0ab2cdf470522d2210de67d8c83d45b91a350565b6000807f00000000000000000000000000000000000000000000000000000000000000006001600160a01b03166391a0ac6a6040518163ffffffff1660e01b8152600401602060405180830381865afa158015610b46573d6000803e3d6000fd5b505050506040513d601f19601f82011682018060405250810190610b6a91906120e8565b9050801580610b795750600254155b15610b8d57670de0b6b3a764000091505090565b600254670de0b6b3a76400007f00000000000000000000000000000000000000000000000000000000000000006001600160a01b03166391a0ac6a6040518163ffffffff1660e01b8152600401602060405180830381865afa158015610bf7573d6000803e3d6000fd5b505050506040513d601f19601f82011682018060405250810190610c1b91906120e8565b610c2690600361207c565b610c30919061207c565b610c3a9190612117565b91505090565b600061054033848461153b565b600080610c5960025490565b905080610c6e670de0b6b3a764000085612093565b10610cb25760405162461bcd60e51b815260206004820152600f60248201526e746f6f206d616e792073686172657360881b60448201526064015b60405180910390fd5b60007f00000000000000000000000000000000000000000000000000000000000000006001600160a01b03166391a0ac6a6040518163ffffffff1660e01b8152600401602060405180830381865afa158015610d12573d6000803e3d6000fd5b505050506040513d601f19601f82011682018060405250810190610d3691906120e8565b905060006103e8610d49866103e561207c565b610d539190612117565b90506000610d7b83610d76610d71610d6b86896120bc565b88611950565b61196f565b611980565b9050610d8781846120bc565b9695505050505050565b6001600160a01b038116600090815260066020526040812054601490610dc2906001600160401b031642831b61205c565b6001600160401b0316901c6001600160401b03169050919050565b42841015610e2d5760405162461bcd60e51b815260206004820152601760248201527f5045524d49545f444541444c494e455f455850495245440000000000000000006044820152606401610ca9565b60006001610e3961076a565b6001600160a01b038a811660008181526003602090815260409182902080546001810190915582517f6e71edae12b1b97f4d1f60370fef10105fa2faae0126114a169c64845d6126c98184015280840194909452938d166060840152608083018c905260a083019390935260c08083018b90528151808403909101815260e08301909152805192019190912061190160f01b6101008301526101028201929092526101228101919091526101420160408051601f198184030181528282528051602091820120600084529083018083525260ff871690820152606081018590526080810184905260a0016020604051602081039080840390855afa158015610f45573d6000803e3d6000fd5b5050604051601f1901519150506001600160a01b03811615801590610f7b5750876001600160a01b0316816001600160a01b0316145b610fb85760405162461bcd60e51b815260206004820152600e60248201526d24a72b20a624a22fa9a4a3a722a960911b6044820152606401610ca9565b610fc38188886112c1565b5050505050505050565b6040516323b872dd60e01b8152336004820152306024820152604481018390526000907f00000000000000000000000000000000000000000000000000000000000000006001600160a01b0316906323b872dd906064016020604051808303816000875af1158015611043573d6000803e3d6000fd5b505050506040513d601f19601f82011682018060405250810190611067919061212b565b5060007f00000000000000000000000000000000000000000000000000000000000000006001600160a01b03166391a0ac6a6040518163ffffffff1660e01b8152600401602060405180830381865afa1580156110c8573d6000803e3d6000fd5b505050506040513d601f19601f820116820180604052508101906110ec91906120e8565b9050611102670de0b6b3a76400006103e861207c565b8110156111405760405162461bcd60e51b815260206004820152600c60248201526b696e7375662065717569747960a01b6044820152606401610ca9565b60006111658583111561115c5761115786846120bc565b61115f565b60005b866116dd565b90508381101561117457600080fd5b61117e3382611995565b7fd98fb7c2b7c7b545387da80b92c08bc5d2a4b922fb74851c3d27ee07ca897bdf3382876111aa610ae5565b604080516001600160a01b039095168552602085019390935291830152606082015260800160405180910390a16bffffffffffffffffffffffff6111ed60025490565b11156105c25760405162461bcd60e51b81526020600482015260156024820152741d1bdd185b081cdd5c1c1b1e48195e18d959591959605a1b6044820152606401610ca9565b6001600160a01b038116600090815260066020526040812054611262906001600160401b03164260141b61205c565b6001600160401b031661128a836001600160a01b031660009081526020819052604090205490565b610544919061207c565b6001600160a01b03808316600090815260016020908152604080832093851683529290529081205461061f565b6001600160a01b0383811660008181526001602090815260408083209487168084529482529182902085905590518481527f8c5be1e5ebec7d5bd14f71427d1e84f3dd0314c0f7b2291e5b200ac8c7c3b92591015b60405180910390a3505050565b600061132e846105ca565b61133757600080fd5b600061134283610c4d565b905061134e85846118ba565b60405163a9059cbb60e01b81526001600160a01b038581166004830152602482018390527f0000000000000000000000000000000000000000000000000000000000000000169063a9059cbb906044016020604051808303816000875af11580156113bd573d6000803e3d6000fd5b505050506040513d601f19601f820116820180604052508101906113e1919061212b565b507fd98fb7c2b7c7b545387da80b92c08bc5d2a4b922fb74851c3d27ee07ca897bdf8561140d8561214d565b83611416610ae5565b604080516001600160a01b039095168552602085019390935291830152606082015260800160405180910390a1949350505050565b60008061145784611233565b905080831061149f576001600160a01b0384166000908152600660205260409020805467ffffffffffffffff19164260141b6001600160401b03161790559150819050610544565b6001600160a01b0384166000908152602081905260409020546114c284836120bc565b6114cc9190612117565b6114e2906001600160401b034260141b166120bc565b6001600160a01b0385166000908152600660205260409020805467ffffffffffffffff19166001600160401b039290921691909117905561152284611233565b61152c90826120bc565b915050610544565b5092915050565b6001600160a01b03821661154e57600080fd5b611559838383611a36565b6001600160a01b0383166000908152602081905260409020548111156115bc576001600160a01b0383166000818152602081905260409081902054905163391434e360e21b81526004810192909252602482015260448101829052606401610ca9565b6001600160a01b038316600090815260208190526040812080548392906115e49084906120bc565b90915550506001600160a01b03821660009081526020819052604081208054839290611611908490612093565b92505081905550816001600160a01b0316836001600160a01b03167fddf252ad1be2c89b69c2b068fc378daa952ba7f163c4a11628f55a4df523b3ef8360405161131691815260200190565b6001600160a01b03838116600090815260016020908152604080832093861683529290522054600160ff1b81101561076457818110156116c957604051637dc7a0d960e11b81526001600160a01b03851660048201526024810182905260448101839052606401610ca9565b61076484846116d885856120bc565b6112c1565b6000806116e960025490565b905060006103e86116fc856103e561207c565b6117069190612117565b9050600061171e670de0b6b3a76400006103e861207c565b861080611729575082155b6117515761174c83610d76611747611741868b612093565b8a611950565b611a5a565b61176f565b611765670de0b6b3a76400006103e861207c565b61176f9084612093565b9050610d8783826120bc565b60006001821161178d57506001610544565b6000838360008181106117a2576117a26120a6565b90506020020160208101906117b79190611d79565b905060015b8381101561184957816001600160a01b03168585838181106117e0576117e06120a6565b90506020020160208101906117f59190611d79565b6001600160a01b03161161180e57600092505050610544565b848482818110611820576118206120a6565b90506020020160208101906118359190611d79565b915080611841816120cf565b9150506117bc565b506001915050610544565b6000826001600160a01b0316826001600160a01b03160361187757506001610544565b6001600160a01b03821661188d57506000610544565b6001600160a01b038083166000908152600560205260409020546118b391859116611854565b9050610544565b6118c682600083611a36565b80600260008282546118d891906120bc565b90915550506001600160a01b038216600090815260208190526040812080548392906119059084906120bc565b90915550506040518181526000906001600160a01b038416907fddf252ad1be2c89b69c2b068fc378daa952ba7f163c4a11628f55a4df523b3ef906020015b60405180910390a35050565b600081611965670de0b6b3a76400008561207c565b61061f9190612117565b600061054461197e8384611980565b835b6000670de0b6b3a7640000611965838561207c565b6001600160a01b0382166119a857600080fd5b6119b460008383611a36565b80600260008282546119c69190612093565b90915550506001600160a01b038216600090815260208190526040812080548392906119f3908490612093565b90915550506040518181526001600160a01b038316906000907fddf252ad1be2c89b69c2b068fc378daa952ba7f163c4a11628f55a4df523b3ef90602001611944565b8015611a55576000611a488383611b4c565b9050610764848383611c0a565b505050565b600080670de0b6b3a764000083118015611a7b5750678ac7230489e8000083105b611a8d57670de0b6b3a7640000611ab6565b670de0b6b3a76400006003611aa282866120bc565b611aac9190612117565b611ab69190612093565b905060005b6000611ad0611aca8485611980565b84611980565b9050600085611ae083600261207c565b611aea9190612093565b611af587600261207c565b611aff9084612093565b611b09908661207c565b611b139190612117565b9050838111611b2b57611b2681856120bc565b611b35565b611b3584826120bc565b909350915050620f42408111611abb575092915050565b60006001600160a01b03831615611c02576000611b6884611233565b9050600083611b8c866001600160a01b031660009081526020819052604090205490565b611b969190612093565b9050611ba28183612117565b611bb8906001600160401b034260141b166120bc565b6001600160a01b0386166000908152600660205260409020805467ffffffffffffffff19166001600160401b0392909216919091179055611bf98183612169565b92505050610544565b506000610544565b4260141b60006001600160a01b03851615611c65576001600160a01b0385166000908152600660205260409020548490611c4d906001600160401b03168461205c565b6001600160401b0316611c60919061207c565b611c68565b60005b90508083611c7461054a565b611c7e91906120bc565b611c8891906120bc565b6001600160401b03909216600160c01b026001600160c01b03929092169190911760045550505050565b600060208083528351808285015260005b81811015611cdf57858101830151858201604001528201611cc3565b506000604082860101526040601f19601f8301168501019250505092915050565b80356001600160a01b0381168114611d1757600080fd5b919050565b60008060408385031215611d2f57600080fd5b611d3883611d00565b946020939093013593505050565b600080600060608486031215611d5b57600080fd5b611d6484611d00565b95602085013595506040909401359392505050565b600060208284031215611d8b57600080fd5b61061f82611d00565b60008083601f840112611da657600080fd5b5081356001600160401b03811115611dbd57600080fd5b6020830191508360208260051b8501011115611dd857600080fd5b9250929050565b600080600060408486031215611df457600080fd5b83356001600160401b03811115611e0a57600080fd5b611e1686828701611d94565b909790965060209590950135949350505050565b600080600060608486031215611e3f57600080fd5b611e4884611d00565b9250611e5660208501611d00565b9150604084013590509250925092565b600080600060408486031215611e7b57600080fd5b611e8484611d00565b925060208401356001600160401b03811115611e9f57600080fd5b611eab86828701611d94565b9497909650939450505050565b600060208284031215611eca57600080fd5b5035919050565b60008060008060408587031215611ee757600080fd5b84356001600160401b0380821115611efe57600080fd5b611f0a88838901611d94565b90965094506020870135915080821115611f2357600080fd5b50611f3087828801611d94565b95989497509550505050565b60008060008060808587031215611f5257600080fd5b611f5b85611d00565b9350611f6960208601611d00565b93969395505050506040820135916060013590565b600080600080600080600060e0888a031215611f9957600080fd5b611fa288611d00565b9650611fb060208901611d00565b95506040880135945060608801359350608088013560ff81168114611fd457600080fd5b9699959850939692959460a0840135945060c09093013592915050565b6000806040838503121561200457600080fd5b50508035926020909101359150565b6000806040838503121561202657600080fd5b61202f83611d00565b915061203d60208401611d00565b90509250929050565b634e487b7160e01b600052601160045260246000fd5b6001600160401b0382811682821603908082111561153457611534612046565b808202811582820484141761054457610544612046565b8082018082111561054457610544612046565b634e487b7160e01b600052603260045260246000fd5b8181038181111561054457610544612046565b6000600182016120e1576120e1612046565b5060010190565b6000602082840312156120fa57600080fd5b5051919050565b634e487b7160e01b600052601260045260246000fd5b60008261212657612126612101565b500490565b60006020828403121561213d57600080fd5b8151801515811461061f57600080fd5b6000600160ff1b820161216257612162612046565b5060000390565b60008261217857612178612101565b50069056fea2646970667358221220194c78407dd8c2c5a78c721b214d1577a2e4444aa98e02189d2c093f9674816a64736f6c63430008140033",
  "devdoc": {
    "events": {
      "Approval(address,address,uint256)": {
        "details": "Emitted when the allowance of a `spender` for an `owner` is set by a call to `approve`. `value` is the new allowance."
      },
      "Transfer(address,address,uint256)": {
        "details": "Emitted when `value` tokens are moved from one account (`from`) to another (`to`). Note that `value` may be zero."
      }
    },
    "kind": "dev",
    "methods": {
      "allowance(address,address)": {
        "details": "See `IERC20.allowance`."
      },
      "approve(address,uint256)": {
        "details": "See `IERC20.approve`. Requirements: - `spender` cannot be the zero address."
      },
      "balanceOf(address)": {
        "details": "See `IERC20.balanceOf`."
      },
      "denyMinter(address,address[],string)": {
        "details": "Calling this function is relatively cheap thanks to the deletion of a storage slot."
      },
      "equity()": {
        "details": "Note that the equity contract technically holds both the minter reserve as well as the equity, so the minter reserve must be subtracted. All fees and other kind of income is added to the Equity contract and essentially constitutes profits attributable to the pool share holders."
      },
      "minterReserve()": {
        "details": "The minter reserve can be used to cover losses after the equity holders have been wiped out."
      },
      "registerPosition(address)": {
        "details": "It is assumed that the responsible minter that registers the position ensures that the position can be trusted."
      },
      "suggestMinter(address,uint256,uint256,string)": {
        "details": "The caller has to pay an application fee that is irrevocably lost even if the new minter is vetoed. The caller must assume that someone will veto the new minter unless there is broad consensus that the new minter adds value to the Frankencoin system. Complex proposals should have application periods and applications fees above the minimum. It is assumed that over time, informal ways to coordinate on new minters emerge. The message parameter might be useful for initiating further communication. Maybe it contains a link to a website describing the proposed minter.",
        "params": {
          "_applicationFee": "The fee paid by the caller, at least MIN_FEE",
          "_applicationPeriod": "The time others have to veto the suggestion, at least MIN_APPLICATION_PERIOD",
          "_message": "An optional human readable message to everyone watching this contract",
          "_minter": "An address that is given the permission to mint Frankencoins"
        }
      },
      "totalSupply()": {
        "details": "See `IERC20.totalSupply`."
      },
      "transfer(address,uint256)": {
        "details": "See `IERC20.transfer`. Requirements: - `recipient` cannot be the zero address. - the caller must have a balance of at least `amount`."
      },
      "transferFrom(address,address,uint256)": {
        "details": "See `IERC20.transferFrom`. Emits an `Approval` event indicating the updated allowance. This is not required by the EIP. See the note at the beginning of `ERC20`; Requirements: - `sender` and `recipient` cannot be the zero address. - `sender` must have a balance of at least `value`. - the caller must have allowance for `sender`'s tokens of at least `amount`."
      }
    },
    "title": "FrankenCoin",
    "version": 1
  },
  "userdoc": {
    "kind": "user",
    "methods": {
      "MIN_FEE()": {
        "notice": "Minimal fee and application period when suggesting a new minter."
      },
      "burn(uint256)": {
        "notice": "Anyone is allowed to burn their ZCHF."
      },
      "burnFrom(address,uint256)": {
        "notice": "Burn someone elses ZCHF."
      },
      "burnFromWithReserve(address,uint256,uint32)": {
        "notice": "Burns the target amount taking the tokens to be burned from the payer and the payer's reserve. Only use this method for tokens also minted by the caller with the same _reservePPM. Example: the calling contract has previously minted 100 ZCHF with a reserve ratio of 20% (i.e. 200000 ppm). To burn half of that again, the minter calls burnFrom with a target amount of 50 ZCHF. Assuming that reserves are only 90% covered, this call will deduct 41 ZCHF from the payer's balance and 9 from the reserve, while reducing the minter reserve by 10."
      },
      "burnWithReserve(uint256,uint32)": {
        "notice": "Burns the provided number of tokens plus whatever reserves are associated with that amount given the reserve requirement. The caller is only allowed to use this method for tokens also minted through the caller with the same _reservePPM amount. Example: the calling contract has previously minted 100 ZCHF with a reserve ratio of 20% (i.e. 200000 ppm). Now they have 41 ZCHF that they do not need so they decide to repay that amount. Assuming the reserves are only 90% covered, the call to burnWithReserve will burn the 41 plus 9 from the reserve, reducing the outstanding 'debt' of the caller by 50 ZCHF in total. This total is returned by the method so the caller knows how much less they owe."
      },
      "burnWithoutReserve(uint256,uint32)": {
        "notice": "Burn that amount without reclaiming the reserve, but freeing it up and thereby essentially donating it to the pool share holders. This can make sense in combination with 'coverLoss', i.e. when it is the pool share holders that bear the risk and depending on the outcome they make a profit or a loss. Design rule: Minters calling this method are only allowed to so for tokens amounts they previously minted with the same _reservePPM amount. For example, if someone minted 50 ZCHF earlier with a 20% reserve requirement (200000 ppm), they got 40 ZCHF and paid 10 ZCHF into the reserve. Now they want to repay the debt by burning 50 ZCHF. When doing so using this method, 50 ZCHF get burned and on top of that, 10 ZCHF previously assigned to the minter's reserved are reassigned to the pool share holders."
      },
      "calculateAssignedReserve(uint256,uint32)": {
        "notice": "Calculates the reserve attributable to someone who minted the given amount with the given reserve requirement. Under normal circumstances, this is just the reserver requirement multiplied by the amount. However, after a severe loss of capital that burned into the minter's reserve, this can also be less than that."
      },
      "calculateFreedAmount(uint256,uint32)": {
        "notice": "Calculate the amount that is freed when returning amountExcludingReserve given a reserve ratio of reservePPM, taking into account potential losses. Example values in the comments."
      },
      "constructor": {
        "notice": "Initiates the Frankencoin with the provided minimum application period for new plugins in seconds, for example 10 days, i.e. 3600*24*10 = 864000"
      },
      "coverLoss(address,uint256)": {
        "notice": "Notify the Frankencoin that a minter lost economic access to some coins. This does not mean that the coins are literally lost. It just means that some ZCHF will likely never be repaid and that in order to bring the system back into balance, the lost amount of ZCHF must be removed from the reserve instead. For example, if a minter printed 1 million ZCHF for a mortgage and the mortgage turned out to be unsound with the house only yielding 800'000 in the subsequent auction, there is a loss of 200'000 that needs to be covered by the reserve."
      },
      "denyMinter(address,address[],string)": {
        "notice": "Qualified pool share holders can deny minters during the application period."
      },
      "equity()": {
        "notice": "The amount of equity of the Frankencoin system in ZCHF, owned by the holders of Frankencoin Pool Shares."
      },
      "getPositionParent(address)": {
        "notice": "Returns the address of the minter that created this position or null if the provided address is unknown."
      },
      "isMinter(address)": {
        "notice": "Returns true if the address is an approved minter."
      },
      "mintWithReserve(address,uint256,uint32,uint32)": {
        "notice": "Mints the provided amount of ZCHF to the target address, automatically forwarding the minting fee and the reserve to the right place."
      },
      "minterReserve()": {
        "notice": "The reserve provided by the owners of collateralized positions."
      },
      "minters(address)": {
        "notice": "Map of minters to approval time stamps. If the time stamp is in the past, the minter contract is allowed to mint Frankencoins."
      },
      "positions(address)": {
        "notice": "List of positions that are allowed to mint and the minter that registered them."
      },
      "registerPosition(address)": {
        "notice": "Allows minters to register collateralized debt positions, thereby giving them the ability to mint Frankencoins."
      },
      "reserve()": {
        "notice": "The contract that holds the reserve."
      },
      "suggestMinter(address,uint256,uint256,string)": {
        "notice": "Publicly accessible method to suggest a new way of minting Frankencoin."
      }
    },
    "notice": "The Frankencoin (ZCHF) is an ERC-20 token that is designed to track the value of the Swiss franc. It is not upgradable, but open to arbitrary minting plugins. These are automatically accepted if none of the qualified pool share holders casts a veto, leading to a flexible but conservative governance.",
    "version": 1
  },
  "storageLayout": {
    "storage": [
      {
        "astId": 8030,
        "contract": "contracts/Frankencoin.sol:Frankencoin",
        "label": "_balances",
        "offset": 0,
        "slot": "0",
        "type": "t_mapping(t_address,t_uint256)"
      },
      {
        "astId": 8036,
        "contract": "contracts/Frankencoin.sol:Frankencoin",
        "label": "_allowances",
        "offset": 0,
        "slot": "1",
        "type": "t_mapping(t_address,t_mapping(t_address,t_uint256))"
      },
      {
        "astId": 8044,
        "contract": "contracts/Frankencoin.sol:Frankencoin",
        "label": "_totalSupply",
        "offset": 0,
        "slot": "2",
        "type": "t_uint256"
      },
      {
        "astId": 8428,
        "contract": "contracts/Frankencoin.sol:Frankencoin",
        "label": "nonces",
        "offset": 0,
        "slot": "3",
        "type": "t_mapping(t_address,t_uint256)"
      },
      {
        "astId": 1162,
        "contract": "contracts/Frankencoin.sol:Frankencoin",
        "label": "minterReserveE6",
        "offset": 0,
        "slot": "4",
        "type": "t_uint256"
      },
      {
        "astId": 1167,
        "contract": "contracts/Frankencoin.sol:Frankencoin",
        "label": "minters",
        "offset": 0,
        "slot": "5",
        "type": "t_mapping(t_address,t_uint256)"
      },
      {
        "astId": 1172,
        "contract": "contracts/Frankencoin.sol:Frankencoin",
        "label": "positions",
        "offset": 0,
        "slot": "6",
        "type": "t_mapping(t_address,t_address)"
      }
    ],
    "types": {
      "t_address": {
        "encoding": "inplace",
        "label": "address",
        "numberOfBytes": "20"
      },
      "t_mapping(t_address,t_address)": {
        "encoding": "mapping",
        "key": "t_address",
        "label": "mapping(address => address)",
        "numberOfBytes": "32",
        "value": "t_address"
      },
      "t_mapping(t_address,t_mapping(t_address,t_uint256))": {
        "encoding": "mapping",
        "key": "t_address",
        "label": "mapping(address => mapping(address => uint256))",
        "numberOfBytes": "32",
        "value": "t_mapping(t_address,t_uint256)"
      },
      "t_mapping(t_address,t_uint256)": {
        "encoding": "mapping",
        "key": "t_address",
        "label": "mapping(address => uint256)",
        "numberOfBytes": "32",
        "value": "t_uint256"
      },
      "t_uint256": {
        "encoding": "inplace",
        "label": "uint256",
        "numberOfBytes": "32"
      }
    }
  }
}