{
  "address": "0xe679B93c300b3ba507693d7Af21A8B0d3fd363aF",
  "abi": [
    {
      "inputs": [
        {
          "internalType": "contract IGovernance",
          "name": "equity_",
          "type": "address"
        },
        {
          "internalType": "uint24",
          "name": "initialRatePPM",
          "type": "uint24"
        }
      ],
      "stateMutability": "nonpayable",
      "type": "constructor"
    },
    {
      "inputs": [],
      "name": "ChangeNotReady",
      "type": "error"
    },
    {
      "inputs": [],
      "name": "NoPendingChange",
      "type": "error"
    },
    {
      "anonymous": false,
      "inputs": [
        {
          "indexed": false,
          "internalType": "uint24",
          "name": "newRate",
          "type": "uint24"
        }
      ],
      "name": "RateChanged",
      "type": "event"
    },
    {
      "anonymous": false,
      "inputs": [
        {
          "indexed": false,
          "internalType": "address",
          "name": "who",
          "type": "address"
        },
        {
          "indexed": false,
          "internalType": "uint24",
          "name": "nextRate",
          "type": "uint24"
        },
        {
          "indexed": false,
          "internalType": "uint40",
          "name": "nextChange",
          "type": "uint40"
        }
      ],
      "name": "RateProposed",
      "type": "event"
    },
    {
      "inputs": [],
      "name": "applyChange",
      "outputs": [],
      "stateMutability": "nonpayable",
      "type": "function"
    },
    {
      "inputs": [],
      "name": "currentRatePPM",
      "outputs": [
        {
          "internalType": "uint24",
          "name": "",
          "type": "uint24"
        }
      ],
      "stateMutability": "view",
      "type": "function"
    },
    {
      "inputs": [],
      "name": "currentTicks",
      "outputs": [
        {
          "internalType": "uint64",
          "name": "",
          "type": "uint64"
        }
      ],
      "stateMutability": "view",
      "type": "function"
    },
    {
      "inputs": [],
      "name": "equity",
      "outputs": [
        {
          "internalType": "contract IGovernance",
          "name": "",
          "type": "address"
        }
      ],
      "stateMutability": "view",
      "type": "function"
    },
    {
      "inputs": [],
      "name": "nextChange",
      "outputs": [
        {
          "internalType": "uint40",
          "name": "",
          "type": "uint40"
        }
      ],
      "stateMutability": "view",
      "type": "function"
    },
    {
      "inputs": [],
      "name": "nextRatePPM",
      "outputs": [
        {
          "internalType": "uint24",
          "name": "",
          "type": "uint24"
        }
      ],
      "stateMutability": "view",
      "type": "function"
    },
    {
      "inputs": [
        {
          "internalType": "uint24",
          "name": "newRatePPM_",
          "type": "uint24"
        },
        {
          "internalType": "address[]",
          "name": "helpers",
          "type": "address[]"
        }
      ],
      "name": "proposeChange",
      "outputs": [],
      "stateMutability": "nonpayable",
      "type": "function"
    },
    {
      "inputs": [
        {
          "internalType": "uint256",
          "name": "timestamp",
          "type": "uint256"
        }
      ],
      "name": "ticks",
      "outputs": [
        {
          "internalType": "uint64",
          "name": "",
          "type": "uint64"
        }
      ],
      "stateMutability": "view",
      "type": "function"
    }
  ],
  "transactionHash": "0x72f4090e596cbb7f2d115dcb4d6d6d8d9f5196d7e6f3686c6bd9f110d910d902",
  "args": [
    "0x3e94a9aB9fc662eA83e939c0BC801bE1C131853B",
    4000
  ],
  "numDeployments": 1,
  "solcInputHash": "76d7a9ad677e8057d18143f24edcad6f",
  "bytecode": "0x60a060405234801561001057600080fd5b506040516107fb3803806107fb83398101604081905261002f916100f1565b6000805462ffffff83166001600160401b0319909116811763010000004264ffffffffff160217600160401b600160801b03191690915560405190815281907fd76dfbd4c35cffe2a846b6488bc677c511aa4337e1551f3a360427ac7a78de7b9060200160405180910390a1506001600160a01b039190911660805260008054600160801b600160c01b031916600160801b62ffffff9093169290920264ffffffffff60981b191691909117600160981b4264ffffffffff160217905561013f565b6000806040838503121561010457600080fd5b82516001600160a01b038116811461011b57600080fd5b602084015190925062ffffff8116811461013457600080fd5b809150509250929050565b60805161069a6101616000396000818161011901526101a0015261069a6000f3fe608060405234801561001057600080fd5b50600436106100885760003560e01c8063534cb30d1161005b578063534cb30d146100e857806391a0ac6a14610114578063b079f16314610153578063b6f83c171461015b57600080fd5b806306a7b3761461008d5780631de252e4146100b55780632e4b20ab146100ca5780634e65037e146100e0575b600080fd5b60005461009c9062ffffff1681565b60405162ffffff90911681526020015b60405180910390f35b6100c86100c336600461047b565b610189565b005b60005461009c90600160801b900462ffffff1681565b6100c86102ae565b6100fb6100f636600461050b565b610330565b60405167ffffffffffffffff90911681526020016100ac565b61013b7f000000000000000000000000000000000000000000000000000000000000000081565b6040516001600160a01b0390911681526020016100ac565b6100fb610386565b60005461017390600160981b900464ffffffffff1681565b60405164ffffffffff90911681526020016100ac565b60405163352e3a8360e01b81526001600160a01b037f0000000000000000000000000000000000000000000000000000000000000000169063352e3a83906101d990339086908690600401610524565b60006040518083038186803b1580156101f157600080fd5b505afa158015610205573d6000803e3d6000fd5b50506000805462ffffff60801b1916600160801b62ffffff8816021790555061023390504262093a8061059d565b6000805464ffffffffff60981b1916600160981b64ffffffffff9384168102919091179182905560408051338152600160801b840462ffffff16602082015291909204909216908201527e4964f2e48bd8a460fb41883098593956d335f36fdded4ca9cbac9252d72b2f9060600160405180910390a1505050565b60005462ffffff600160801b820481169116036102de5760405163147fde5f60e31b815260040160405180910390fd5b600054429064ffffffffff600160981b90910481169082161015610315576040516301b3782160e21b815260040160405180910390fd5b60005461032d90600160801b900462ffffff16610396565b50565b6000805462ffffff811690610353906301000000900464ffffffffff16846105b0565b61035d91906105d8565b600054610380919068010000000000000000900467ffffffffffffffff16610604565b92915050565b600061039142610330565b905090565b600054429062ffffff8116906103ba906301000000900464ffffffffff1683610625565b6103c49190610643565b64ffffffffff16600060088282829054906101000a900467ffffffffffffffff166103ef9190610604565b82546101009290920a67ffffffffffffffff818102199093169190921691909102179055506000805467ffffffffffffffff1916630100000064ffffffffff84160262ffffff19161762ffffff84169081179091556040519081527fd76dfbd4c35cffe2a846b6488bc677c511aa4337e1551f3a360427ac7a78de7b9060200160405180910390a15050565b60008060006040848603121561049057600080fd5b833562ffffff811681146104a357600080fd5b9250602084013567ffffffffffffffff808211156104c057600080fd5b818601915086601f8301126104d457600080fd5b8135818111156104e357600080fd5b8760208260051b85010111156104f857600080fd5b6020830194508093505050509250925092565b60006020828403121561051d57600080fd5b5035919050565b6001600160a01b0384811682526040602080840182905290830184905260009185916060850184805b88811015610578578535858116808214610565578384fd5b845250948301949183019160010161054d565b50909998505050505050505050565b634e487b7160e01b600052601160045260246000fd5b8082018082111561038057610380610587565b67ffffffffffffffff8281168282160390808211156105d1576105d1610587565b5092915050565b67ffffffffffffffff8181168382160280821691908281146105fc576105fc610587565b505092915050565b67ffffffffffffffff8181168382160190808211156105d1576105d1610587565b64ffffffffff8281168282160390808211156105d1576105d1610587565b64ffffffffff8181168382160280821691908281146105fc576105fc61058756fea2646970667358221220cf4873969d0883a7e1a6c7b91a97f6b8c5aab96f443f9a6f6782e255587d4dd364736f6c63430008180033",
  "devdoc": {
    "kind": "dev",
    "methods": {},
    "title": "Leadrate (attempt at translating the nicely concise German term 'Leitzins') A module that can provide other modules with the lead interest rate for the system.*",
    "version": 1
  },
  "userdoc": {
    "kind": "user",
    "methods": {
      "applyChange()": {
        "notice": "Setting a previously proposed interest rate change into force."
      },
      "currentTicks()": {
        "notice": "Total accumulated 'interest ticks' since this contract was deployed. One 'tick' is a ppm-second, so one months of 12% annual interest is   120000*30*24*3600 = 311040000000 ticks. Two months of 6% annual interest would result in the same number of ticks. For simplicity, this is linear, so there is no \"interest on interest\"."
      },
      "proposeChange(uint24,address[])": {
        "notice": "Proposes a new interest rate that will automatically be applied after seven days. To cancel a proposal, just overwrite it with a new one proposing the current rate."
      }
    },
    "version": 1
  },
  "storageLayout": {
    "storage": [
      {
        "astId": 16572,
        "contract": "contracts/rate/Leadrate.sol:Leadrate",
        "label": "currentRatePPM",
        "offset": 0,
        "slot": "0",
        "type": "t_uint24"
      },
      {
        "astId": 16574,
        "contract": "contracts/rate/Leadrate.sol:Leadrate",
        "label": "anchorTime",
        "offset": 3,
        "slot": "0",
        "type": "t_uint40"
      },
      {
        "astId": 16576,
        "contract": "contracts/rate/Leadrate.sol:Leadrate",
        "label": "ticksAnchor",
        "offset": 8,
        "slot": "0",
        "type": "t_uint64"
      },
      {
        "astId": 16753,
        "contract": "contracts/rate/Leadrate.sol:Leadrate",
        "label": "nextRatePPM",
        "offset": 16,
        "slot": "0",
        "type": "t_uint24"
      },
      {
        "astId": 16755,
        "contract": "contracts/rate/Leadrate.sol:Leadrate",
        "label": "nextChange",
        "offset": 19,
        "slot": "0",
        "type": "t_uint40"
      }
    ],
    "types": {
      "t_uint24": {
        "encoding": "inplace",
        "label": "uint24",
        "numberOfBytes": "3"
      },
      "t_uint40": {
        "encoding": "inplace",
        "label": "uint40",
        "numberOfBytes": "5"
      },
      "t_uint64": {
        "encoding": "inplace",
        "label": "uint64",
        "numberOfBytes": "8"
      }
    }
  }
}