{
  "address": "0x41Cd0881BBeD2ef1f6b4f369aAA7C25D34eF0688",
  "abi": [
    {
      "inputs": [
        {
          "internalType": "address",
          "name": "_zchf",
          "type": "address"
        },
        {
          "internalType": "address",
          "name": "_factory",
          "type": "address"
        }
      ],
      "stateMutability": "nonpayable",
      "type": "constructor"
    },
    {
      "inputs": [],
      "name": "InvalidPos",
      "type": "error"
    },
    {
      "inputs": [],
      "name": "UnexpectedPrice",
      "type": "error"
    },
    {
      "anonymous": false,
      "inputs": [
        {
          "indexed": true,
          "internalType": "address",
          "name": "position",
          "type": "address"
        },
        {
          "indexed": false,
          "internalType": "uint256",
          "name": "number",
          "type": "uint256"
        },
        {
          "indexed": false,
          "internalType": "uint256",
          "name": "size",
          "type": "uint256"
        }
      ],
      "name": "ChallengeAverted",
      "type": "event"
    },
    {
      "anonymous": false,
      "inputs": [
        {
          "indexed": true,
          "internalType": "address",
          "name": "challenger",
          "type": "address"
        },
        {
          "indexed": true,
          "internalType": "address",
          "name": "position",
          "type": "address"
        },
        {
          "indexed": false,
          "internalType": "uint256",
          "name": "size",
          "type": "uint256"
        },
        {
          "indexed": false,
          "internalType": "uint256",
          "name": "number",
          "type": "uint256"
        }
      ],
      "name": "ChallengeStarted",
      "type": "event"
    },
    {
      "anonymous": false,
      "inputs": [
        {
          "indexed": true,
          "internalType": "address",
          "name": "position",
          "type": "address"
        },
        {
          "indexed": false,
          "internalType": "uint256",
          "name": "number",
          "type": "uint256"
        },
        {
          "indexed": false,
          "internalType": "uint256",
          "name": "bid",
          "type": "uint256"
        },
        {
          "indexed": false,
          "internalType": "uint256",
          "name": "acquiredCollateral",
          "type": "uint256"
        },
        {
          "indexed": false,
          "internalType": "uint256",
          "name": "challengeSize",
          "type": "uint256"
        }
      ],
      "name": "ChallengeSucceeded",
      "type": "event"
    },
    {
      "anonymous": false,
      "inputs": [
        {
          "indexed": true,
          "internalType": "address",
          "name": "owner",
          "type": "address"
        },
        {
          "indexed": true,
          "internalType": "address",
          "name": "position",
          "type": "address"
        },
        {
          "indexed": false,
          "internalType": "address",
          "name": "zchf",
          "type": "address"
        },
        {
          "indexed": false,
          "internalType": "address",
          "name": "collateral",
          "type": "address"
        },
        {
          "indexed": false,
          "internalType": "uint256",
          "name": "price",
          "type": "uint256"
        }
      ],
      "name": "PositionOpened",
      "type": "event"
    },
    {
      "anonymous": false,
      "inputs": [
        {
          "indexed": false,
          "internalType": "address",
          "name": "collateral",
          "type": "address"
        },
        {
          "indexed": true,
          "internalType": "address",
          "name": "beneficiary",
          "type": "address"
        },
        {
          "indexed": false,
          "internalType": "uint256",
          "name": "amount",
          "type": "uint256"
        }
      ],
      "name": "PostPonedReturn",
      "type": "event"
    },
    {
      "inputs": [],
      "name": "CHALLENGER_REWARD",
      "outputs": [
        {
          "internalType": "uint32",
          "name": "",
          "type": "uint32"
        }
      ],
      "stateMutability": "view",
      "type": "function"
    },
    {
      "inputs": [],
      "name": "OPENING_FEE",
      "outputs": [
        {
          "internalType": "uint256",
          "name": "",
          "type": "uint256"
        }
      ],
      "stateMutability": "view",
      "type": "function"
    },
    {
      "inputs": [
        {
          "internalType": "uint32",
          "name": "_challengeNumber",
          "type": "uint32"
        },
        {
          "internalType": "uint256",
          "name": "size",
          "type": "uint256"
        },
        {
          "internalType": "bool",
          "name": "postponeCollateralReturn",
          "type": "bool"
        }
      ],
      "name": "bid",
      "outputs": [],
      "stateMutability": "nonpayable",
      "type": "function"
    },
    {
      "inputs": [
        {
          "internalType": "uint256",
          "name": "",
          "type": "uint256"
        }
      ],
      "name": "challenges",
      "outputs": [
        {
          "internalType": "address",
          "name": "challenger",
          "type": "address"
        },
        {
          "internalType": "uint64",
          "name": "start",
          "type": "uint64"
        },
        {
          "internalType": "contract IPosition",
          "name": "position",
          "type": "address"
        },
        {
          "internalType": "uint256",
          "name": "size",
          "type": "uint256"
        }
      ],
      "stateMutability": "view",
      "type": "function"
    },
    {
      "inputs": [
        {
          "internalType": "address",
          "name": "position",
          "type": "address"
        },
        {
          "internalType": "uint256",
          "name": "_initialCollateral",
          "type": "uint256"
        },
        {
          "internalType": "uint256",
          "name": "_initialMint",
          "type": "uint256"
        },
        {
          "internalType": "uint256",
          "name": "expiration",
          "type": "uint256"
        }
      ],
      "name": "clonePosition",
      "outputs": [
        {
          "internalType": "address",
          "name": "",
          "type": "address"
        }
      ],
      "stateMutability": "nonpayable",
      "type": "function"
    },
    {
      "inputs": [
        {
          "internalType": "address",
          "name": "_positionAddr",
          "type": "address"
        },
        {
          "internalType": "uint256",
          "name": "_collateralAmount",
          "type": "uint256"
        },
        {
          "internalType": "uint256",
          "name": "expectedPrice",
          "type": "uint256"
        }
      ],
      "name": "launchChallenge",
      "outputs": [
        {
          "internalType": "uint256",
          "name": "",
          "type": "uint256"
        }
      ],
      "stateMutability": "nonpayable",
      "type": "function"
    },
    {
      "inputs": [
        {
          "internalType": "address",
          "name": "_collateralAddress",
          "type": "address"
        },
        {
          "internalType": "uint256",
          "name": "_minCollateral",
          "type": "uint256"
        },
        {
          "internalType": "uint256",
          "name": "_initialCollateral",
          "type": "uint256"
        },
        {
          "internalType": "uint256",
          "name": "_mintingMaximum",
          "type": "uint256"
        },
        {
          "internalType": "uint256",
          "name": "_initPeriodSeconds",
          "type": "uint256"
        },
        {
          "internalType": "uint256",
          "name": "_expirationSeconds",
          "type": "uint256"
        },
        {
          "internalType": "uint64",
          "name": "_challengeSeconds",
          "type": "uint64"
        },
        {
          "internalType": "uint32",
          "name": "_annualInterestPPM",
          "type": "uint32"
        },
        {
          "internalType": "uint256",
          "name": "_liqPrice",
          "type": "uint256"
        },
        {
          "internalType": "uint32",
          "name": "_reservePPM",
          "type": "uint32"
        }
      ],
      "name": "openPosition",
      "outputs": [
        {
          "internalType": "address",
          "name": "",
          "type": "address"
        }
      ],
      "stateMutability": "nonpayable",
      "type": "function"
    },
    {
      "inputs": [
        {
          "internalType": "address",
          "name": "_collateralAddress",
          "type": "address"
        },
        {
          "internalType": "uint256",
          "name": "_minCollateral",
          "type": "uint256"
        },
        {
          "internalType": "uint256",
          "name": "_initialCollateral",
          "type": "uint256"
        },
        {
          "internalType": "uint256",
          "name": "_mintingMaximum",
          "type": "uint256"
        },
        {
          "internalType": "uint256",
          "name": "_expirationSeconds",
          "type": "uint256"
        },
        {
          "internalType": "uint64",
          "name": "_challengeSeconds",
          "type": "uint64"
        },
        {
          "internalType": "uint32",
          "name": "_annualInterestPPM",
          "type": "uint32"
        },
        {
          "internalType": "uint256",
          "name": "_liqPrice",
          "type": "uint256"
        },
        {
          "internalType": "uint32",
          "name": "_reservePPM",
          "type": "uint32"
        }
      ],
      "name": "openPositionOneWeek",
      "outputs": [
        {
          "internalType": "address",
          "name": "",
          "type": "address"
        }
      ],
      "stateMutability": "nonpayable",
      "type": "function"
    },
    {
      "inputs": [
        {
          "internalType": "address",
          "name": "collateral",
          "type": "address"
        },
        {
          "internalType": "address",
          "name": "owner",
          "type": "address"
        }
      ],
      "name": "pendingReturns",
      "outputs": [
        {
          "internalType": "uint256",
          "name": "amount",
          "type": "uint256"
        }
      ],
      "stateMutability": "view",
      "type": "function"
    },
    {
      "inputs": [
        {
          "internalType": "uint32",
          "name": "challengeNumber",
          "type": "uint32"
        }
      ],
      "name": "price",
      "outputs": [
        {
          "internalType": "uint256",
          "name": "",
          "type": "uint256"
        }
      ],
      "stateMutability": "view",
      "type": "function"
    },
    {
      "inputs": [
        {
          "internalType": "address",
          "name": "collateral",
          "type": "address"
        },
        {
          "internalType": "address",
          "name": "target",
          "type": "address"
        }
      ],
      "name": "returnPostponedCollateral",
      "outputs": [],
      "stateMutability": "nonpayable",
      "type": "function"
    },
    {
      "inputs": [],
      "name": "zchf",
      "outputs": [
        {
          "internalType": "contract IFrankencoin",
          "name": "",
          "type": "address"
        }
      ],
      "stateMutability": "view",
      "type": "function"
    }
  ],
  "transactionHash": "0xbcc5fb214b4c0080b52e4888a9d18f84a5aaf972f407f1066ffd9438f92ba83f",
  "args": [
    "0xb8C70553165e197f20a0ceC3dbab439c970f816f",
    "0x895eaA01CaFe0985B5A90728d0395DA41CDA77Ba"
  ],
  "numDeployments": 4,
  "solcInputHash": "024db87fd1b3ed736bed5abfcf48ad8d",
  "bytecode": "0x60c060405234801562000010575f80fd5b506040516200234e3803806200234e833981016040819052620000339162000067565b6001600160a01b0391821660a052166080526200009d565b80516001600160a01b038116811462000062575f80fd5b919050565b5f806040838503121562000079575f80fd5b62000084836200004b565b915062000094602084016200004b565b90509250929050565b60805160a05161221f6200012f5f395f81816101d8015281816103640152818161046e015281816104c9015281816104f901528181610688015281816108f501528181610ceb01528181610f4f0152818161118f0152818161147c015281816118e90152818161199f01528181611a5301528181611af60152611b8501525f81816103df0152610ec2015261221f5ff3fe608060405234801561000f575f80fd5b50600436106100b1575f3560e01c8063a859b47b1161006e578063a859b47b146101a2578063af5806b6146101b5578063c4d4803a146101d3578063e6c99cdf146101fa578063e6ca1df21461020d578063e85cde6f14610220575f80fd5b806306c697ef146100b55780632bf78dd8146100e5578063643745fb146101035780637eb81bb31461012d5780638f1c335c146101425780638f1d377614610155575b5f80fd5b6100c86100c3366004611dcd565b610233565b6040516001600160a01b0390911681526020015b60405180910390f35b6100f5683635c9adc5dea0000081565b6040519081526020016100dc565b6100f5610111366004611e61565b600160209081525f928352604080842090915290825290205481565b61014061013b366004611ea5565b6106cf565b005b6100f5610150366004611ee4565b6108d0565b610168610163366004611f16565b610c75565b604080516001600160a01b0395861681526001600160401b03949094166020850152919093169082015260608101919091526080016100dc565b6100c86101b0366004611f2d565b610cc6565b6101be614e2081565b60405163ffffffff90911681526020016100dc565b6100c87f000000000000000000000000000000000000000000000000000000000000000081565b6100c8610208366004611f65565b611292565b6100f561021b366004611fee565b6112b6565b61014061022e366004611e61565b6113cc565b5f620f42408463ffffffff161115610249575f80fd5b620f42408263ffffffff16111561025e575f80fd5b60188b6001600160a01b031663313ce5676040518163ffffffff1660e01b8152600401602060405180830381865afa15801561029c573d5f803e3d5ffd5b505050506040513d601f19601f820116820180604052508101906102c09190612009565b60ff1611156102cd575f80fd5b898910156103215760405162461bcd60e51b815260206004820152601760248201527f6d7573742073746172742077697468206d696e20636f6c000000000000000000604482015260640160405180910390fd5b700eb194f8e1ae525fd5dcfab0800000000061033d848c61203d565b1015610347575f80fd5b60405163c3fd1c3760e01b81523360048201526001600160a01b037f0000000000000000000000000000000000000000000000000000000000000000811660248301528c81166044830152606482018c9052608482018a905260a4820189905260c482018890526001600160401b03871660e483015263ffffffff868116610104840152610124830186905284166101448301525f917f00000000000000000000000000000000000000000000000000000000000000009091169063c3fd1c3790610164016020604051808303815f875af1158015610428573d5f803e3d5ffd5b505050506040513d601f19601f8201168201806040525081019061044c919061205a565b60405163b52c696d60e01b81526001600160a01b0380831660048301529192507f00000000000000000000000000000000000000000000000000000000000000009091169063b52c696d906024015f604051808303815f87803b1580156104b1575f80fd5b505af11580156104c3573d5f803e3d5ffd5b505050507f00000000000000000000000000000000000000000000000000000000000000006001600160a01b03166323b872dd337f00000000000000000000000000000000000000000000000000000000000000006001600160a01b031663cd3293de6040518163ffffffff1660e01b8152600401602060405180830381865afa158015610553573d5f803e3d5ffd5b505050506040513d601f19601f82011682018060405250810190610577919061205a565b683635c9adc5dea000006040518463ffffffff1660e01b815260040161059f93929190612075565b6020604051808303815f875af11580156105bb573d5f803e3d5ffd5b505050506040513d601f19601f820116820180604052508101906105df9190612099565b506040516323b872dd60e01b81526001600160a01b038d16906323b872dd9061061090339085908f90600401612075565b6020604051808303815f875af115801561062c573d5f803e3d5ffd5b505050506040513d601f19601f820116820180604052508101906106509190612099565b50806001600160a01b0316336001600160a01b03167f591ede549d7e337ac63249acd2d7849532b0a686377bbf0b0cca6c8abd9552f27f00000000000000000000000000000000000000000000000000000000000000008f886040516106b893929190612075565b60405180910390a39b9a5050505050505050505050565b5f808463ffffffff16815481106106e8576106e86120b4565b5f91825260208083206040805160808101825260039490940290910180546001600160a01b038082168652600160a01b9091046001600160401b0316938501939093526001810154909216838201819052600290920154606080850191909152815163194c325560e11b81529151939550849384939263329864aa9260048083019391928290030181865afa158015610783573d5f803e3d5ffd5b505050506040513d601f19601f820116820180604052508101906107a791906120c8565b925092509250858460600151106107be57856107c4565b83606001515b95508184602001516107d691906120fd565b6001600160401b03164211610845576107f18488858961145f565b604080850151815163ffffffff8a168152602081018990526001600160a01b03909116917f1eee30d91b773ac47d7485a3acb6bcd8c7c9cd8d95301b1af361baf5f0991d2e910160405180910390a26108c7565b61085184888888611702565b5f80610860868686868c61180e565b604080890151815163ffffffff8e16815260208101849052918201849052606082018c90529294509092506001600160a01b03909116907f7d3a26e8d43c5b70f86266bfa26c212e3c097716ff7240ccb6a9034e48754e239060800160405180910390a250505b50505050505050565b60405163aa5dd7f160e01b81526001600160a01b0384811660048301525f91859130917f00000000000000000000000000000000000000000000000000000000000000009091169063aa5dd7f190602401602060405180830381865afa15801561093c573d5f803e3d5ffd5b505050506040513d601f19601f82011682018060405250810190610960919061205a565b6001600160a01b031614610987576040516369229ba760e01b815260040160405180910390fd5b5f85905083816001600160a01b031663a035b1fe6040518163ffffffff1660e01b81526004016020604051808303815f875af11580156109c9573d5f803e3d5ffd5b505050506040513d601f19601f820116820180604052508101906109ed9190612124565b14610a0b57604051630d57523160e11b815260040160405180910390fd5b806001600160a01b031663d8dfeb456040518163ffffffff1660e01b81526004016020604051808303815f875af1158015610a48573d5f803e3d5ffd5b505050506040513d601f19601f82011682018060405250810190610a6c919061205a565b6001600160a01b03166323b872dd3330886040518463ffffffff1660e01b8152600401610a9b93929190612075565b6020604051808303815f875af1158015610ab7573d5f803e3d5ffd5b505050506040513d601f19601f82011682018060405250810190610adb9190612099565b505f8054604080516080810182523381526001600160401b03428116602083019081526001600160a01b03878116848601818152606086018e8152600189018a559880529451600388027f290decd9548b62a8d60345a988386fc84ba6bc95484008f6362f93160ef3e563810180549551909616600160a01b026001600160e01b0319909516918416919091179390931790935592517f290decd9548b62a8d60345a988386fc84ba6bc95484008f6362f93160ef3e56482018054919094166001600160a01b0319919091161790925593517f290decd9548b62a8d60345a988386fc84ba6bc95484008f6362f93160ef3e56590910155516342d0204160e01b81529091906342d0204190610bf890899060040190815260200190565b5f604051808303815f87803b158015610c0f575f80fd5b505af1158015610c21573d5f803e3d5ffd5b505060408051898152602081018590526001600160a01b03861693503392507fc4b384b2c5ca32c8e77081f4083be594a1ea9ba34f208a9f9a458f70608585f5910160405180910390a39695505050505050565b5f8181548110610c83575f80fd5b5f9182526020909120600390910201805460018201546002909201546001600160a01b038083169450600160a01b9092046001600160401b031692919091169084565b60405163aa5dd7f160e01b81526001600160a01b0385811660048301525f91869130917f00000000000000000000000000000000000000000000000000000000000000009091169063aa5dd7f190602401602060405180830381865afa158015610d32573d5f803e3d5ffd5b505050506040513d601f19601f82011682018060405250810190610d56919061205a565b6001600160a01b031614610d7d576040516369229ba760e01b815260040160405180910390fd5b5f869050806001600160a01b03166346c715fa6040518163ffffffff1660e01b81526004016020604051808303815f875af1158015610dbe573d5f803e3d5ffd5b505050506040513d601f19601f82011682018060405250810190610de2919061205a565b6001600160a01b0316634665096d6040518163ffffffff1660e01b81526004016020604051808303815f875af1158015610e1e573d5f803e3d5ffd5b505050506040513d601f19601f82011682018060405250810190610e429190612124565b841115610e4d575f80fd5b604051635861764160e11b8152600481018690526001600160a01b0382169063b0c2ec82906024015f604051808303815f87803b158015610e8c575f80fd5b505af1158015610e9e573d5f803e3d5ffd5b5050604051630167d12360e71b81526001600160a01b038a811660048301525f93507f000000000000000000000000000000000000000000000000000000000000000016915063b3e89180906024016020604051808303815f875af1158015610f09573d5f803e3d5ffd5b505050506040513d601f19601f82011682018060405250810190610f2d919061205a565b60405163b52c696d60e01b81526001600160a01b0380831660048301529192507f00000000000000000000000000000000000000000000000000000000000000009091169063b52c696d906024015f604051808303815f87803b158015610f92575f80fd5b505af1158015610fa4573d5f803e3d5ffd5b50505050806001600160a01b031663aee1a95933846001600160a01b031663a035b1fe6040518163ffffffff1660e01b81526004016020604051808303815f875af1158015610ff5573d5f803e3d5ffd5b505050506040513d601f19601f820116820180604052508101906110199190612124565b6040516001600160e01b031960e085901b1681526001600160a01b0390921660048301526024820152604481018a9052606481018990526084810188905260a4015f604051808303815f87803b158015611071575f80fd5b505af1158015611083573d5f803e3d5ffd5b50505050816001600160a01b031663d8dfeb456040518163ffffffff1660e01b81526004016020604051808303815f875af11580156110c4573d5f803e3d5ffd5b505050506040513d601f19601f820116820180604052508101906110e8919061205a565b6001600160a01b03166323b872dd33838a6040518463ffffffff1660e01b815260040161111793929190612075565b6020604051808303815f875af1158015611133573d5f803e3d5ffd5b505050506040513d601f19601f820116820180604052508101906111579190612099565b50806001600160a01b0316336001600160a01b03167f591ede549d7e337ac63249acd2d7849532b0a686377bbf0b0cca6c8abd9552f27f0000000000000000000000000000000000000000000000000000000000000000846001600160a01b031663d8dfeb456040518163ffffffff1660e01b81526004016020604051808303815f875af11580156111eb573d5f803e3d5ffd5b505050506040513d601f19601f8201168201806040525081019061120f919061205a565b856001600160a01b031663a035b1fe6040518163ffffffff1660e01b81526004016020604051808303815f875af115801561124c573d5f803e3d5ffd5b505050506040513d601f19601f820116820180604052508101906112709190612124565b60405161127f93929190612075565b60405180910390a3979650505050505050565b5f6112a88a8a8a8a62093a808b8b8b8b8b610233565b9a9950505050505050505050565b5f805f8363ffffffff16815481106112d0576112d06120b4565b5f9182526020918290206040805160808101825260039390930290910180546001600160a01b03808216808652600160a01b9092046001600160401b031695850195909552600182015490941691830191909152600201546060820152915061133b57505f92915050565b5f805f83604001516001600160a01b031663329864aa6040518163ffffffff1660e01b8152600401606060405180830381865afa15801561137e573d5f803e3d5ffd5b505050506040513d601f19601f820116820180604052508101906113a291906120c8565b9250925092506113c28285602001516113bb91906120fd565b8285611bf9565b9695505050505050565b6001600160a01b038281165f81815260016020908152604080832033845290915280822080549290555163a9059cbb60e01b81529284166004840152602483018190529163a9059cbb906044016020604051808303815f875af1158015611435573d5f803e3d5ffd5b505050506040513d601f19601f820116820180604052508101906114599190612099565b50505050565b83516001600160a01b031633146115225783516001600160a01b037f000000000000000000000000000000000000000000000000000000000000000016906323b872dd903390670de0b6b3a76400006114b8878761203d565b6114c2919061213b565b6040518463ffffffff1660e01b81526004016114e093929190612075565b6020604051808303815f875af11580156114fc573d5f803e3d5ffd5b505050506040513d601f19601f820116820180604052508101906115209190612099565b505b83604001516001600160a01b03166349746f10826040518263ffffffff1660e01b815260040161155491815260200190565b5f604051808303815f87803b15801561156b575f80fd5b505af115801561157d573d5f803e3d5ffd5b5050505083604001516001600160a01b031663d8dfeb456040518163ffffffff1660e01b81526004016020604051808303815f875af11580156115c2573d5f803e3d5ffd5b505050506040513d601f19601f820116820180604052508101906115e6919061205a565b60405163a9059cbb60e01b8152336004820152602481018390526001600160a01b03919091169063a9059cbb906044016020604051808303815f875af1158015611632573d5f803e3d5ffd5b505050506040513d601f19601f820116820180604052508101906116569190612099565b5083606001518110156116a357808460600151611673919061215a565b5f8463ffffffff168154811061168b5761168b6120b4565b905f5260205f20906003020160020181905550611459565b836060015181146116b2575f80fd5b5f8363ffffffff16815481106116ca576116ca6120b4565b5f9182526020822060039091020180546001600160e01b03191681556001810180546001600160a01b03191690556002015550505050565b61177384604001516001600160a01b031663d8dfeb456040518163ffffffff1660e01b81526004016020604051808303815f875af1158015611746573d5f803e3d5ffd5b505050506040513d601f19601f8201168201806040525081019061176a919061205a565b85518484611c8e565b818460600151036117cd575f8363ffffffff1681548110611796576117966120b4565b5f9182526020822060039091020180546001600160e01b03191681556001810180546001600160a01b031916905560020155611459565b815f8463ffffffff16815481106117e6576117e66120b4565b905f5260205f2090600302016002015f828254611803919061215a565b909155505050505050565b60408086015190516310554f3960e11b8152336004820152602481018390525f91829182918291829182916001600160a01b03909116906320aa9e72906044016080604051808303815f875af115801561186a573d5f803e3d5ffd5b505050506040513d601f19601f8201168201806040525081019061188e919061216d565b93509350935093505f670de0b6b3a7640000846118bb8c8f602001516118b491906120fd565b8c8f611bf9565b6118c5919061203d565b6118cf919061213b565b6040516323b872dd60e01b81529091506001600160a01b037f000000000000000000000000000000000000000000000000000000000000000016906323b872dd9061192290339030908690600401612075565b6020604051808303815f875af115801561193e573d5f803e3d5ffd5b505050506040513d601f19601f820116820180604052508101906119629190612099565b505f620f4240611974614e208461203d565b61197e919061213b565b90505f61198b85836121b6565b905080831115611a41576001600160a01b037f00000000000000000000000000000000000000000000000000000000000000001663a9059cbb886119cf848761215a565b6040516001600160e01b031960e085901b1681526001600160a01b03909216600483015260248201526044016020604051808303815f875af1158015611a17573d5f803e3d5ffd5b505050506040513d601f19601f82011682018060405250810190611a3b9190612099565b50611ace565b80831015611ace576001600160a01b037f0000000000000000000000000000000000000000000000000000000000000000166361f3d110611a82858461215a565b6040518263ffffffff1660e01b8152600401611aa091815260200190565b5f604051808303815f87803b158015611ab7575f80fd5b505af1158015611ac9573d5f803e3d5ffd5b505050505b8d5160405163a9059cbb60e01b81526001600160a01b039182166004820152602481018490527f00000000000000000000000000000000000000000000000000000000000000009091169063a9059cbb906044016020604051808303815f875af1158015611b3e573d5f803e3d5ffd5b505050506040513d601f19601f82011682018060405250810190611b629190612099565b506040516363b20c3360e11b81526004810186905263ffffffff851660248201527f00000000000000000000000000000000000000000000000000000000000000006001600160a01b03169063c7641866906044015f604051808303815f87803b158015611bce575f80fd5b505af1158015611be0573d5f803e3d5ffd5b50979a5093985050505050505050509550959350505050565b5f426001600160401b0380861690821611611c175782915050611c87565b611c2184866120fd565b6001600160401b0316816001600160401b031610611c42575f915050611c87565b5f611c4d86836121c9565b611c5790866121c9565b6001600160401b0316905080856001600160401b031685611c78919061213b565b611c82919061203d565b925050505b9392505050565b8015611d1a576001600160a01b038085165f90815260016020908152604080832093871683529290529081208054849290611cca9084906121b6565b9091555050604080516001600160a01b038681168252602082018590528516917f8ab298b78a235f73eee230f82012c0cf4db76003eaabd16a0195f112e7d625c8910160405180910390a2611459565b60405163a9059cbb60e01b81526001600160a01b0384811660048301526024820184905285169063a9059cbb906044016020604051808303815f875af1158015611d66573d5f803e3d5ffd5b505050506040513d601f19601f82011682018060405250810190611d8a9190612099565b5050505050565b6001600160a01b0381168114611da5575f80fd5b50565b6001600160401b0381168114611da5575f80fd5b63ffffffff81168114611da5575f80fd5b5f805f805f805f805f806101408b8d031215611de7575f80fd5b8a35611df281611d91565b995060208b0135985060408b0135975060608b0135965060808b0135955060a08b0135945060c08b0135611e2581611da8565b935060e08b0135611e3581611dbc565b92506101008b013591506101208b0135611e4e81611dbc565b809150509295989b9194979a5092959850565b5f8060408385031215611e72575f80fd5b8235611e7d81611d91565b91506020830135611e8d81611d91565b809150509250929050565b8015158114611da5575f80fd5b5f805f60608486031215611eb7575f80fd5b8335611ec281611dbc565b9250602084013591506040840135611ed981611e98565b809150509250925092565b5f805f60608486031215611ef6575f80fd5b8335611f0181611d91565b95602085013595506040909401359392505050565b5f60208284031215611f26575f80fd5b5035919050565b5f805f8060808587031215611f40575f80fd5b8435611f4b81611d91565b966020860135965060408601359560600135945092505050565b5f805f805f805f805f6101208a8c031215611f7e575f80fd5b8935611f8981611d91565b985060208a0135975060408a0135965060608a0135955060808a0135945060a08a0135611fb581611da8565b935060c08a0135611fc581611dbc565b925060e08a013591506101008a0135611fdd81611dbc565b809150509295985092959850929598565b5f60208284031215611ffe575f80fd5b8135611c8781611dbc565b5f60208284031215612019575f80fd5b815160ff81168114611c87575f80fd5b634e487b7160e01b5f52601160045260245ffd5b808202811582820484141761205457612054612029565b92915050565b5f6020828403121561206a575f80fd5b8151611c8781611d91565b6001600160a01b039384168152919092166020820152604081019190915260600190565b5f602082840312156120a9575f80fd5b8151611c8781611e98565b634e487b7160e01b5f52603260045260245ffd5b5f805f606084860312156120da575f80fd5b8351925060208401516120ec81611da8565b6040850151909250611ed981611da8565b6001600160401b0381811683821601908082111561211d5761211d612029565b5092915050565b5f60208284031215612134575f80fd5b5051919050565b5f8261215557634e487b7160e01b5f52601260045260245ffd5b500490565b8181038181111561205457612054612029565b5f805f8060808587031215612180575f80fd5b845161218b81611d91565b80945050602085015192506040850151915060608501516121ab81611dbc565b939692955090935050565b8082018082111561205457612054612029565b6001600160401b0382811682821603908082111561211d5761211d61202956fea26469706673582212205caa05344a2958d2ace78a563f58505d06595676327716f08800571701b2741d64736f6c63430008140033",
  "devdoc": {
    "details": "Only one instance of this contract is required, whereas every new position comes with a new position contract. Pending challenges are stored as structs in an array.",
    "kind": "dev",
    "methods": {
      "bid(uint32,uint256,bool)": {
        "details": "In case that the collateral cannot be transfered back to the challenger (i.e. because the collateral token has a blacklist and the challenger is on it), it is possible to postpone the return of the collateral.",
        "params": {
          "_challengeNumber": "index of the challenge as broadcast in the event",
          "postponeCollateralReturn": "To postpone the return of the collateral to the challenger. Usually false.",
          "size": "how much of the collateral the caller wants to bid for at most                          (automatically reduced to the available amount)"
        }
      },
      "clonePosition(address,uint256,uint256,uint256)": {
        "details": "This needs an allowance to be set on the collateral contract such that the minting hub can get the collateral."
      },
      "launchChallenge(address,uint256,uint256)": {
        "params": {
          "_collateralAmount": "size of the collateral we want to challenge (dec 18)",
          "_positionAddr": "address of the position we want to challenge",
          "expectedPrice": "position.price() to guard against the minter fruntrunning with a price change"
        },
        "returns": {
          "_0": "index of the challenge in challenge-array"
        }
      },
      "openPosition(address,uint256,uint256,uint256,uint256,uint256,uint64,uint32,uint256,uint32)": {
        "details": "For a successful call, you must set an allowance for the collateral token, allowing the minting hub to transfer the initial collateral amount to the newly created position and to withdraw the fees.",
        "params": {
          "_annualInterestPPM": "ppm of minted amount that is paid as fee for each year of duration",
          "_challengeSeconds": "challenge period. Longer for less liquid collateral.",
          "_collateralAddress": "address of collateral token",
          "_expirationSeconds": "position tenor in unit of timestamp (seconds) from 'now'",
          "_initialCollateral": "amount of initial collateral to be deposited",
          "_liqPrice": "Liquidation price with (36 - token decimals) decimals,                           e.g. 18 decimals for an 18 dec collateral, 36 decs for a 0 dec collateral.",
          "_minCollateral": "minimum collateral required to prevent dust amounts",
          "_mintingMaximum": "maximal amount of ZCHF that can be minted by the position owner",
          "_reservePPM": "ppm of minted amount that is locked as borrower's reserve, e.g. 20%"
        },
        "returns": {
          "_0": "address           address of created position"
        }
      },
      "price(uint32)": {
        "details": "The price comes with (36-collateral.decimals()) digits, such that multiplying it with the raw collateral amount always yields a price with 36 digits, or 18 digits after dividing by 10**18 again."
      }
    },
    "stateVariables": {
      "pendingReturns": {
        "details": "It maps collateral => beneficiary => amount."
      }
    },
    "title": "Minting Hub",
    "version": 1
  },
  "userdoc": {
    "kind": "user",
    "methods": {
      "CHALLENGER_REWARD()": {
        "notice": "The challenger reward in parts per million (ppm) relative to the challenged amount, whereas challenged amount if defined as the challenged collateral amount times the liquidation price."
      },
      "OPENING_FEE()": {
        "notice": "Irrevocable fee in ZCHF when proposing a new position (but not when cloning an existing one)."
      },
      "bid(uint32,uint256,bool)": {
        "notice": "Post a bid in ZCHF given an open challenge."
      },
      "clonePosition(address,uint256,uint256,uint256)": {
        "notice": "Clones an existing position and immediately tries to mint the specified amount using the given collateral."
      },
      "launchChallenge(address,uint256,uint256)": {
        "notice": "Launch a challenge (Dutch auction) on a position"
      },
      "openPosition(address,uint256,uint256,uint256,uint256,uint256,uint64,uint32,uint256,uint32)": {
        "notice": "Open a collateralized loan position. See also https://docs.frankencoin.com/positions/open ."
      },
      "pendingReturns(address,address)": {
        "notice": "Map to remember pending postponed collateral returns."
      },
      "price(uint32)": {
        "notice": "Get the price per unit of the collateral for the given challenge."
      },
      "returnPostponedCollateral(address,address)": {
        "notice": "Challengers can call this method to withdraw collateral whose return was postponed."
      }
    },
    "notice": "The central hub for creating, cloning and challenging collateralized Frankencoin positions.",
    "version": 1
  },
  "storageLayout": {
    "storage": [
      {
        "astId": 1980,
        "contract": "contracts/MintingHub.sol:MintingHub",
        "label": "challenges",
        "offset": 0,
        "slot": "0",
        "type": "t_array(t_struct(Challenge)1997_storage)dyn_storage"
      },
      {
        "astId": 1987,
        "contract": "contracts/MintingHub.sol:MintingHub",
        "label": "pendingReturns",
        "offset": 0,
        "slot": "1",
        "type": "t_mapping(t_address,t_mapping(t_address,t_uint256))"
      }
    ],
    "types": {
      "t_address": {
        "encoding": "inplace",
        "label": "address",
        "numberOfBytes": "20"
      },
      "t_array(t_struct(Challenge)1997_storage)dyn_storage": {
        "base": "t_struct(Challenge)1997_storage",
        "encoding": "dynamic_array",
        "label": "struct MintingHub.Challenge[]",
        "numberOfBytes": "32"
      },
      "t_contract(IPosition)4837": {
        "encoding": "inplace",
        "label": "contract IPosition",
        "numberOfBytes": "20"
      },
      "t_mapping(t_address,t_mapping(t_address,t_uint256))": {
        "encoding": "mapping",
        "key": "t_address",
        "label": "mapping(address => mapping(address => uint256))",
        "numberOfBytes": "32",
        "value": "t_mapping(t_address,t_uint256)"
      },
      "t_mapping(t_address,t_uint256)": {
        "encoding": "mapping",
        "key": "t_address",
        "label": "mapping(address => uint256)",
        "numberOfBytes": "32",
        "value": "t_uint256"
      },
      "t_struct(Challenge)1997_storage": {
        "encoding": "inplace",
        "label": "struct MintingHub.Challenge",
        "members": [
          {
            "astId": 1989,
            "contract": "contracts/MintingHub.sol:MintingHub",
            "label": "challenger",
            "offset": 0,
            "slot": "0",
            "type": "t_address"
          },
          {
            "astId": 1991,
            "contract": "contracts/MintingHub.sol:MintingHub",
            "label": "start",
            "offset": 20,
            "slot": "0",
            "type": "t_uint64"
          },
          {
            "astId": 1994,
            "contract": "contracts/MintingHub.sol:MintingHub",
            "label": "position",
            "offset": 0,
            "slot": "1",
            "type": "t_contract(IPosition)4837"
          },
          {
            "astId": 1996,
            "contract": "contracts/MintingHub.sol:MintingHub",
            "label": "size",
            "offset": 0,
            "slot": "2",
            "type": "t_uint256"
          }
        ],
        "numberOfBytes": "96"
      },
      "t_uint256": {
        "encoding": "inplace",
        "label": "uint256",
        "numberOfBytes": "32"
      },
      "t_uint64": {
        "encoding": "inplace",
        "label": "uint64",
        "numberOfBytes": "8"
      }
    }
  }
}