{
  "address": "0x12003fD56802dE26cAE698A9d9cb06921c053e83",
  "abi": [
    {
      "inputs": [
        {
          "internalType": "address",
          "name": "_zchf",
          "type": "address"
        },
        {
          "internalType": "address",
          "name": "_factory",
          "type": "address"
        }
      ],
      "stateMutability": "nonpayable",
      "type": "constructor"
    },
    {
      "inputs": [],
      "name": "InvalidPos",
      "type": "error"
    },
    {
      "inputs": [],
      "name": "UnexpectedPrice",
      "type": "error"
    },
    {
      "anonymous": false,
      "inputs": [
        {
          "indexed": true,
          "internalType": "address",
          "name": "position",
          "type": "address"
        },
        {
          "indexed": false,
          "internalType": "uint256",
          "name": "number",
          "type": "uint256"
        },
        {
          "indexed": false,
          "internalType": "uint256",
          "name": "size",
          "type": "uint256"
        }
      ],
      "name": "ChallengeAverted",
      "type": "event"
    },
    {
      "anonymous": false,
      "inputs": [
        {
          "indexed": true,
          "internalType": "address",
          "name": "challenger",
          "type": "address"
        },
        {
          "indexed": true,
          "internalType": "address",
          "name": "position",
          "type": "address"
        },
        {
          "indexed": false,
          "internalType": "uint256",
          "name": "size",
          "type": "uint256"
        },
        {
          "indexed": false,
          "internalType": "uint256",
          "name": "number",
          "type": "uint256"
        }
      ],
      "name": "ChallengeStarted",
      "type": "event"
    },
    {
      "anonymous": false,
      "inputs": [
        {
          "indexed": true,
          "internalType": "address",
          "name": "position",
          "type": "address"
        },
        {
          "indexed": false,
          "internalType": "uint256",
          "name": "number",
          "type": "uint256"
        },
        {
          "indexed": false,
          "internalType": "uint256",
          "name": "bid",
          "type": "uint256"
        },
        {
          "indexed": false,
          "internalType": "uint256",
          "name": "acquiredCollateral",
          "type": "uint256"
        },
        {
          "indexed": false,
          "internalType": "uint256",
          "name": "challengeSize",
          "type": "uint256"
        }
      ],
      "name": "ChallengeSucceeded",
      "type": "event"
    },
    {
      "anonymous": false,
      "inputs": [
        {
          "indexed": true,
          "internalType": "address",
          "name": "owner",
          "type": "address"
        },
        {
          "indexed": true,
          "internalType": "address",
          "name": "position",
          "type": "address"
        },
        {
          "indexed": false,
          "internalType": "address",
          "name": "zchf",
          "type": "address"
        },
        {
          "indexed": false,
          "internalType": "address",
          "name": "collateral",
          "type": "address"
        },
        {
          "indexed": false,
          "internalType": "uint256",
          "name": "price",
          "type": "uint256"
        }
      ],
      "name": "PositionOpened",
      "type": "event"
    },
    {
      "anonymous": false,
      "inputs": [
        {
          "indexed": false,
          "internalType": "address",
          "name": "collateral",
          "type": "address"
        },
        {
          "indexed": true,
          "internalType": "address",
          "name": "beneficiary",
          "type": "address"
        },
        {
          "indexed": false,
          "internalType": "uint256",
          "name": "amount",
          "type": "uint256"
        }
      ],
      "name": "PostPonedReturn",
      "type": "event"
    },
    {
      "inputs": [],
      "name": "CHALLENGER_REWARD",
      "outputs": [
        {
          "internalType": "uint32",
          "name": "",
          "type": "uint32"
        }
      ],
      "stateMutability": "view",
      "type": "function"
    },
    {
      "inputs": [],
      "name": "OPENING_FEE",
      "outputs": [
        {
          "internalType": "uint256",
          "name": "",
          "type": "uint256"
        }
      ],
      "stateMutability": "view",
      "type": "function"
    },
    {
      "inputs": [
        {
          "internalType": "uint32",
          "name": "_challengeNumber",
          "type": "uint32"
        },
        {
          "internalType": "uint256",
          "name": "size",
          "type": "uint256"
        },
        {
          "internalType": "bool",
          "name": "postponeCollateralReturn",
          "type": "bool"
        }
      ],
      "name": "bid",
      "outputs": [],
      "stateMutability": "nonpayable",
      "type": "function"
    },
    {
      "inputs": [
        {
          "internalType": "address",
          "name": "_positionAddr",
          "type": "address"
        },
        {
          "internalType": "uint256",
          "name": "_collateralAmount",
          "type": "uint256"
        },
        {
          "internalType": "uint256",
          "name": "expectedPrice",
          "type": "uint256"
        }
      ],
      "name": "challenge",
      "outputs": [
        {
          "internalType": "uint256",
          "name": "",
          "type": "uint256"
        }
      ],
      "stateMutability": "nonpayable",
      "type": "function"
    },
    {
      "inputs": [
        {
          "internalType": "uint256",
          "name": "",
          "type": "uint256"
        }
      ],
      "name": "challenges",
      "outputs": [
        {
          "internalType": "address",
          "name": "challenger",
          "type": "address"
        },
        {
          "internalType": "uint64",
          "name": "start",
          "type": "uint64"
        },
        {
          "internalType": "contract IPosition",
          "name": "position",
          "type": "address"
        },
        {
          "internalType": "uint256",
          "name": "size",
          "type": "uint256"
        }
      ],
      "stateMutability": "view",
      "type": "function"
    },
    {
      "inputs": [
        {
          "internalType": "address",
          "name": "position",
          "type": "address"
        },
        {
          "internalType": "uint256",
          "name": "_initialCollateral",
          "type": "uint256"
        },
        {
          "internalType": "uint256",
          "name": "_initialMint",
          "type": "uint256"
        },
        {
          "internalType": "uint256",
          "name": "expiration",
          "type": "uint256"
        }
      ],
      "name": "clone",
      "outputs": [
        {
          "internalType": "address",
          "name": "",
          "type": "address"
        }
      ],
      "stateMutability": "nonpayable",
      "type": "function"
    },
    {
      "inputs": [
        {
          "internalType": "address",
          "name": "_collateralAddress",
          "type": "address"
        },
        {
          "internalType": "uint256",
          "name": "_minCollateral",
          "type": "uint256"
        },
        {
          "internalType": "uint256",
          "name": "_initialCollateral",
          "type": "uint256"
        },
        {
          "internalType": "uint256",
          "name": "_mintingMaximum",
          "type": "uint256"
        },
        {
          "internalType": "uint256",
          "name": "_initPeriodSeconds",
          "type": "uint256"
        },
        {
          "internalType": "uint256",
          "name": "_expirationSeconds",
          "type": "uint256"
        },
        {
          "internalType": "uint64",
          "name": "_challengeSeconds",
          "type": "uint64"
        },
        {
          "internalType": "uint32",
          "name": "_annualInterestPPM",
          "type": "uint32"
        },
        {
          "internalType": "uint256",
          "name": "_liqPrice",
          "type": "uint256"
        },
        {
          "internalType": "uint32",
          "name": "_reservePPM",
          "type": "uint32"
        }
      ],
      "name": "openPosition",
      "outputs": [
        {
          "internalType": "address",
          "name": "",
          "type": "address"
        }
      ],
      "stateMutability": "nonpayable",
      "type": "function"
    },
    {
      "inputs": [
        {
          "internalType": "address",
          "name": "_collateralAddress",
          "type": "address"
        },
        {
          "internalType": "uint256",
          "name": "_minCollateral",
          "type": "uint256"
        },
        {
          "internalType": "uint256",
          "name": "_initialCollateral",
          "type": "uint256"
        },
        {
          "internalType": "uint256",
          "name": "_mintingMaximum",
          "type": "uint256"
        },
        {
          "internalType": "uint256",
          "name": "_expirationSeconds",
          "type": "uint256"
        },
        {
          "internalType": "uint64",
          "name": "_challengeSeconds",
          "type": "uint64"
        },
        {
          "internalType": "uint32",
          "name": "_annualInterestPPM",
          "type": "uint32"
        },
        {
          "internalType": "uint256",
          "name": "_liqPrice",
          "type": "uint256"
        },
        {
          "internalType": "uint32",
          "name": "_reservePPM",
          "type": "uint32"
        }
      ],
      "name": "openPositionOneWeek",
      "outputs": [
        {
          "internalType": "address",
          "name": "",
          "type": "address"
        }
      ],
      "stateMutability": "nonpayable",
      "type": "function"
    },
    {
      "inputs": [
        {
          "internalType": "address",
          "name": "collateral",
          "type": "address"
        },
        {
          "internalType": "address",
          "name": "owner",
          "type": "address"
        }
      ],
      "name": "pendingReturns",
      "outputs": [
        {
          "internalType": "uint256",
          "name": "amount",
          "type": "uint256"
        }
      ],
      "stateMutability": "view",
      "type": "function"
    },
    {
      "inputs": [
        {
          "internalType": "uint32",
          "name": "challengeNumber",
          "type": "uint32"
        }
      ],
      "name": "price",
      "outputs": [
        {
          "internalType": "uint256",
          "name": "",
          "type": "uint256"
        }
      ],
      "stateMutability": "view",
      "type": "function"
    },
    {
      "inputs": [
        {
          "internalType": "address",
          "name": "collateral",
          "type": "address"
        },
        {
          "internalType": "address",
          "name": "target",
          "type": "address"
        }
      ],
      "name": "returnPostponedCollateral",
      "outputs": [],
      "stateMutability": "nonpayable",
      "type": "function"
    },
    {
      "inputs": [],
      "name": "zchf",
      "outputs": [
        {
          "internalType": "contract IFrankencoin",
          "name": "",
          "type": "address"
        }
      ],
      "stateMutability": "view",
      "type": "function"
    }
  ],
  "transactionHash": "0xbbb63a83aae2c9cb47e1b1475f1da00b7b53bb242172e79c340e059d4970995c",
  "args": [
    "0x73aDCc946149c273fB6db938C20CA42270c5C623",
    "0xACC9b9640F5568D85E9392ac823491D3E5029430"
  ],
  "numDeployments": 5,
  "solcInputHash": "91f3a13e83985ed8eeb69da620d82092",
  "bytecode": "0x60c06040523480156200001157600080fd5b506040516200248338038062002483833981016040819052620000349162000069565b6001600160a01b0391821660a05216608052620000a1565b80516001600160a01b03811681146200006457600080fd5b919050565b600080604083850312156200007d57600080fd5b62000088836200004c565b915062000098602084016200004c565b90509250929050565b60805160a05161234c62000137600039600081816101dd0152818161038401528181610492015281816104f201528181610522015281816106b9015281816107260152818161099d01528181610bf001528181610f7601528181611536015281816119c501528181611a8001528181611b3701528181611bdf0152611c71015260008181610400015261090d015261234c6000f3fe608060405234801561001057600080fd5b50600436106100b45760003560e01c8063af5806b611610071578063af5806b6146101a7578063c14a9f05146101c5578063c4d4803a146101d8578063e6c99cdf146101ff578063e6ca1df214610212578063e85cde6f1461022557600080fd5b806306c697ef146100b95780632bf78dd8146100e95780635cb4791914610107578063643745fb1461011a5780637eb81bb3146101455780638f1d37761461015a575b600080fd5b6100cc6100c7366004611ec8565b610238565b6040516001600160a01b0390911681526020015b60405180910390f35b6100f9683635c9adc5dea0000081565b6040519081526020016100e0565b6100cc610115366004611f62565b610700565b6100f9610128366004611f9d565b600160209081526000928352604080842090915290825290205481565b610158610153366004611fe4565b610cf9565b005b61016d610168366004612026565b610efc565b604080516001600160a01b0395861681526001600160401b03949094166020850152919093169082015260608101919091526080016100e0565b6101b0614e2081565b60405163ffffffff90911681526020016100e0565b6100f96101d336600461203f565b610f50565b6100cc7f000000000000000000000000000000000000000000000000000000000000000081565b6100cc61020d366004612074565b611308565b6100f9610220366004612103565b61132d565b610158610233366004611f9d565b611469565b6000620f42408463ffffffff16111561025057600080fd5b63ffffffff8216614e20118015906102715750620f42408263ffffffff1611155b61027a57600080fd5b60188b6001600160a01b031663313ce5676040518163ffffffff1660e01b8152600401602060405180830381865afa1580156102ba573d6000803e3d6000fd5b505050506040513d601f19601f820116820180604052508101906102de9190612120565b60ff1611156102ec57600080fd5b898910156103405760405162461bcd60e51b815260206004820152601760248201527f6d7573742073746172742077697468206d696e20636f6c000000000000000000604482015260640160405180910390fd5b700eb194f8e1ae525fd5dcfab0800000000061035c848c612159565b101561036757600080fd5b60405163c3fd1c3760e01b81523360048201526001600160a01b037f0000000000000000000000000000000000000000000000000000000000000000811660248301528c81166044830152606482018c9052608482018a905260a4820189905260c482018890526001600160401b03871660e483015263ffffffff868116610104840152610124830186905284166101448301526000917f00000000000000000000000000000000000000000000000000000000000000009091169063c3fd1c3790610164016020604051808303816000875af115801561044c573d6000803e3d6000fd5b505050506040513d601f19601f820116820180604052508101906104709190612176565b60405163b52c696d60e01b81526001600160a01b0380831660048301529192507f00000000000000000000000000000000000000000000000000000000000000009091169063b52c696d90602401600060405180830381600087803b1580156104d857600080fd5b505af11580156104ec573d6000803e3d6000fd5b505050507f00000000000000000000000000000000000000000000000000000000000000006001600160a01b03166323b872dd337f00000000000000000000000000000000000000000000000000000000000000006001600160a01b031663cd3293de6040518163ffffffff1660e01b8152600401602060405180830381865afa15801561057e573d6000803e3d6000fd5b505050506040513d601f19601f820116820180604052508101906105a29190612176565b683635c9adc5dea000006040518463ffffffff1660e01b81526004016105ca93929190612193565b6020604051808303816000875af11580156105e9573d6000803e3d6000fd5b505050506040513d601f19601f8201168201806040525081019061060d91906121b7565b506040516323b872dd60e01b81526001600160a01b038d16906323b872dd9061063e90339085908f90600401612193565b6020604051808303816000875af115801561065d573d6000803e3d6000fd5b505050506040513d601f19601f8201168201806040525081019061068191906121b7565b50806001600160a01b0316336001600160a01b03167f591ede549d7e337ac63249acd2d7849532b0a686377bbf0b0cca6c8abd9552f27f00000000000000000000000000000000000000000000000000000000000000008f886040516106e993929190612193565b60405180910390a39b9a5050505050505050505050565b60405163aa5dd7f160e01b81526001600160a01b038581166004830152600091869130917f00000000000000000000000000000000000000000000000000000000000000009091169063aa5dd7f190602401602060405180830381865afa15801561076f573d6000803e3d6000fd5b505050506040513d601f19601f820116820180604052508101906107939190612176565b6001600160a01b0316146107ba576040516369229ba760e01b815260040160405180910390fd5b6000869050806001600160a01b03166346c715fa6040518163ffffffff1660e01b81526004016020604051808303816000875af11580156107ff573d6000803e3d6000fd5b505050506040513d601f19601f820116820180604052508101906108239190612176565b6001600160a01b0316634665096d6040518163ffffffff1660e01b81526004016020604051808303816000875af1158015610862573d6000803e3d6000fd5b505050506040513d601f19601f8201168201806040525081019061088691906121d4565b84111561089257600080fd5b604051635861764160e11b8152600481018690526001600160a01b0382169063b0c2ec8290602401600060405180830381600087803b1580156108d457600080fd5b505af11580156108e8573d6000803e3d6000fd5b5050604051630167d12360e71b81526001600160a01b038a81166004830152600093507f000000000000000000000000000000000000000000000000000000000000000016915063b3e89180906024016020604051808303816000875af1158015610957573d6000803e3d6000fd5b505050506040513d601f19601f8201168201806040525081019061097b9190612176565b60405163b52c696d60e01b81526001600160a01b0380831660048301529192507f00000000000000000000000000000000000000000000000000000000000000009091169063b52c696d90602401600060405180830381600087803b1580156109e357600080fd5b505af11580156109f7573d6000803e3d6000fd5b50505050806001600160a01b031663aee1a95933846001600160a01b031663a035b1fe6040518163ffffffff1660e01b81526004016020604051808303816000875af1158015610a4b573d6000803e3d6000fd5b505050506040513d601f19601f82011682018060405250810190610a6f91906121d4565b6040516001600160e01b031960e085901b1681526001600160a01b0390921660048301526024820152604481018a9052606481018990526084810188905260a401600060405180830381600087803b158015610aca57600080fd5b505af1158015610ade573d6000803e3d6000fd5b50505050816001600160a01b031663d8dfeb456040518163ffffffff1660e01b81526004016020604051808303816000875af1158015610b22573d6000803e3d6000fd5b505050506040513d601f19601f82011682018060405250810190610b469190612176565b6001600160a01b03166323b872dd33838a6040518463ffffffff1660e01b8152600401610b7593929190612193565b6020604051808303816000875af1158015610b94573d6000803e3d6000fd5b505050506040513d601f19601f82011682018060405250810190610bb891906121b7565b50806001600160a01b0316336001600160a01b03167f591ede549d7e337ac63249acd2d7849532b0a686377bbf0b0cca6c8abd9552f27f0000000000000000000000000000000000000000000000000000000000000000846001600160a01b031663d8dfeb456040518163ffffffff1660e01b81526004016020604051808303816000875af1158015610c4f573d6000803e3d6000fd5b505050506040513d601f19601f82011682018060405250810190610c739190612176565b856001600160a01b031663a035b1fe6040518163ffffffff1660e01b81526004016020604051808303816000875af1158015610cb3573d6000803e3d6000fd5b505050506040513d601f19601f82011682018060405250810190610cd791906121d4565b604051610ce693929190612193565b60405180910390a3979650505050505050565b6000808463ffffffff1681548110610d1357610d136121ed565b600091825260208083206040805160808101825260039490940290910180546001600160a01b038082168652600160a01b9091046001600160401b03169385018490526001820154168483018190526002909101546060850152905163d6e8f96b60e01b815260048101929092529193508291829163d6e8f96b90602401606060405180830381865afa158015610dae573d6000803e3d6000fd5b505050506040513d601f19601f82011682018060405250810190610dd29190612203565b92509250925085846060015110610de95785610def565b83606001515b9550818460200151610e01919061223b565b6001600160401b03164211610e7057610e1c84888589611500565b604080850151815163ffffffff8a168152602081018990526001600160a01b03909116917f1eee30d91b773ac47d7485a3acb6bcd8c7c9cd8d95301b1af361baf5f0991d2e910160405180910390a2610ef3565b610e7c848888886117d0565b600080610e8c868686868c6118e5565b604080890151815163ffffffff8e16815260208101849052918201849052606082018c90529294509092506001600160a01b03909116907f7d3a26e8d43c5b70f86266bfa26c212e3c097716ff7240ccb6a9034e48754e239060800160405180910390a250505b50505050505050565b60008181548110610f0c57600080fd5b60009182526020909120600390910201805460018201546002909201546001600160a01b038083169450600160a01b9092046001600160401b031692919091169084565b60405163aa5dd7f160e01b81526001600160a01b038481166004830152600091859130917f00000000000000000000000000000000000000000000000000000000000000009091169063aa5dd7f190602401602060405180830381865afa158015610fbf573d6000803e3d6000fd5b505050506040513d601f19601f82011682018060405250810190610fe39190612176565b6001600160a01b03161461100a576040516369229ba760e01b815260040160405180910390fd5b600085905083816001600160a01b031663a035b1fe6040518163ffffffff1660e01b81526004016020604051808303816000875af1158015611050573d6000803e3d6000fd5b505050506040513d601f19601f8201168201806040525081019061107491906121d4565b1461109257604051630d57523160e11b815260040160405180910390fd5b806001600160a01b031663d8dfeb456040518163ffffffff1660e01b81526004016020604051808303816000875af11580156110d2573d6000803e3d6000fd5b505050506040513d601f19601f820116820180604052508101906110f69190612176565b6001600160a01b03166323b872dd3330886040518463ffffffff1660e01b815260040161112593929190612193565b6020604051808303816000875af1158015611144573d6000803e3d6000fd5b505050506040513d601f19601f8201168201806040525081019061116891906121b7565b5060008054604080516080810182523381526001600160401b03428116602083019081526001600160a01b03878116848601818152606086018e8152600189018a559880529451600388027f290decd9548b62a8d60345a988386fc84ba6bc95484008f6362f93160ef3e563810180549551909616600160a01b026001600160e01b0319909516918416919091179390931790935592517f290decd9548b62a8d60345a988386fc84ba6bc95484008f6362f93160ef3e56482018054919094166001600160a01b0319919091161790925593517f290decd9548b62a8d60345a988386fc84ba6bc95484008f6362f93160ef3e56590910155516342d0204160e01b81529091906342d020419061128690899060040190815260200190565b600060405180830381600087803b1580156112a057600080fd5b505af11580156112b4573d6000803e3d6000fd5b505060408051898152602081018590526001600160a01b03861693503392507fc4b384b2c5ca32c8e77081f4083be594a1ea9ba34f208a9f9a458f70608585f5910160405180910390a39695505050505050565b600061131f8a8a8a8a62093a808b8b8b8b8b610238565b9a9950505050505050505050565b60008060008363ffffffff1681548110611349576113496121ed565b60009182526020918290206040805160808101825260039390930290910180546001600160a01b03808216808652600160a01b9092046001600160401b03169585019590955260018201549094169183019190915260020154606082015291506113b65750600092915050565b600080600083604001516001600160a01b031663d6e8f96b85602001516040518263ffffffff1660e01b81526004016113fe91906001600160401b0391909116815260200190565b606060405180830381865afa15801561141b573d6000803e3d6000fd5b505050506040513d601f19601f8201168201806040525081019061143f9190612203565b92509250925061145f828560200151611458919061223b565b8285611cea565b9695505050505050565b6001600160a01b03828116600081815260016020908152604080832033845290915280822080549290555163a9059cbb60e01b81529284166004840152602483018190529163a9059cbb906044016020604051808303816000875af11580156114d6573d6000803e3d6000fd5b505050506040513d601f19601f820116820180604052508101906114fa91906121b7565b50505050565b83602001516001600160401b0316420361151957600080fd5b83516001600160a01b031633146115df5783516001600160a01b037f000000000000000000000000000000000000000000000000000000000000000016906323b872dd903390670de0b6b3a76400006115728787612159565b61157c9190612262565b6040518463ffffffff1660e01b815260040161159a93929190612193565b6020604051808303816000875af11580156115b9573d6000803e3d6000fd5b505050506040513d601f19601f820116820180604052508101906115dd91906121b7565b505b83604001516001600160a01b03166349746f10826040518263ffffffff1660e01b815260040161161191815260200190565b600060405180830381600087803b15801561162b57600080fd5b505af115801561163f573d6000803e3d6000fd5b5050505083604001516001600160a01b031663d8dfeb456040518163ffffffff1660e01b81526004016020604051808303816000875af1158015611687573d6000803e3d6000fd5b505050506040513d601f19601f820116820180604052508101906116ab9190612176565b60405163a9059cbb60e01b8152336004820152602481018390526001600160a01b03919091169063a9059cbb906044016020604051808303816000875af11580156116fa573d6000803e3d6000fd5b505050506040513d601f19601f8201168201806040525081019061171e91906121b7565b50836060015181101561176e5780846060015161173b9190612284565b60008463ffffffff1681548110611754576117546121ed565b9060005260206000209060030201600201819055506114fa565b8360600151811461177e57600080fd5b60008363ffffffff1681548110611797576117976121ed565b60009182526020822060039091020180546001600160e01b03191681556001810180546001600160a01b03191690556002015550505050565b61184484604001516001600160a01b031663d8dfeb456040518163ffffffff1660e01b81526004016020604051808303816000875af1158015611817573d6000803e3d6000fd5b505050506040513d601f19601f8201168201806040525081019061183b9190612176565b85518484611d82565b818460600151036118a05760008363ffffffff1681548110611868576118686121ed565b60009182526020822060039091020180546001600160e01b03191681556001810180546001600160a01b0319169055600201556114fa565b8160008463ffffffff16815481106118ba576118ba6121ed565b906000526020600020906003020160020160008282546118da9190612284565b909155505050505050565b60408086015190516310554f3960e11b815233600482015260248101839052600091829182918291829182916001600160a01b03909116906320aa9e72906044016080604051808303816000875af1158015611945573d6000803e3d6000fd5b505050506040513d601f19601f820116820180604052508101906119699190612297565b93509350935093506000670de0b6b3a7640000846119978c8f60200151611990919061223b565b8c8f611cea565b6119a19190612159565b6119ab9190612262565b6040516323b872dd60e01b81529091506001600160a01b037f000000000000000000000000000000000000000000000000000000000000000016906323b872dd906119fe90339030908690600401612193565b6020604051808303816000875af1158015611a1d573d6000803e3d6000fd5b505050506040513d601f19601f82011682018060405250810190611a4191906121b7565b506000620f4240611a54614e2084612159565b611a5e9190612262565b90506000611a6c85836122e3565b905080831115611b25576001600160a01b037f00000000000000000000000000000000000000000000000000000000000000001663a9059cbb88611ab08487612284565b6040516001600160e01b031960e085901b1681526001600160a01b03909216600483015260248201526044016020604051808303816000875af1158015611afb573d6000803e3d6000fd5b505050506040513d601f19601f82011682018060405250810190611b1f91906121b7565b50611bb7565b80831015611bb7576001600160a01b037f0000000000000000000000000000000000000000000000000000000000000000166361f3d110611b668584612284565b6040518263ffffffff1660e01b8152600401611b8491815260200190565b600060405180830381600087803b158015611b9e57600080fd5b505af1158015611bb2573d6000803e3d6000fd5b505050505b8d5160405163a9059cbb60e01b81526001600160a01b039182166004820152602481018490527f00000000000000000000000000000000000000000000000000000000000000009091169063a9059cbb906044016020604051808303816000875af1158015611c2a573d6000803e3d6000fd5b505050506040513d601f19601f82011682018060405250810190611c4e91906121b7565b506040516363b20c3360e11b81526004810186905263ffffffff851660248201527f00000000000000000000000000000000000000000000000000000000000000006001600160a01b03169063c764186690604401600060405180830381600087803b158015611cbd57600080fd5b505af1158015611cd1573d6000803e3d6000fd5b50979a5093985050505050505050509550959350505050565b6000426001600160401b0380861690821611611d095782915050611d7b565b611d13848661223b565b6001600160401b0316816001600160401b031610611d35576000915050611d7b565b6000611d4186836122f6565b611d4b90866122f6565b6001600160401b0316905080856001600160401b031685611d6c9190612262565b611d769190612159565b925050505b9392505050565b8015611e0f576001600160a01b03808516600090815260016020908152604080832093871683529290529081208054849290611dbf9084906122e3565b9091555050604080516001600160a01b038681168252602082018590528516917f8ab298b78a235f73eee230f82012c0cf4db76003eaabd16a0195f112e7d625c8910160405180910390a26114fa565b60405163a9059cbb60e01b81526001600160a01b0384811660048301526024820184905285169063a9059cbb906044016020604051808303816000875af1158015611e5e573d6000803e3d6000fd5b505050506040513d601f19601f82011682018060405250810190611e8291906121b7565b5050505050565b6001600160a01b0381168114611e9e57600080fd5b50565b6001600160401b0381168114611e9e57600080fd5b63ffffffff81168114611e9e57600080fd5b6000806000806000806000806000806101408b8d031215611ee857600080fd5b8a35611ef381611e89565b995060208b0135985060408b0135975060608b0135965060808b0135955060a08b0135945060c08b0135611f2681611ea1565b935060e08b0135611f3681611eb6565b92506101008b013591506101208b0135611f4f81611eb6565b809150509295989b9194979a5092959850565b60008060008060808587031215611f7857600080fd5b8435611f8381611e89565b966020860135965060408601359560600135945092505050565b60008060408385031215611fb057600080fd5b8235611fbb81611e89565b91506020830135611fcb81611e89565b809150509250929050565b8015158114611e9e57600080fd5b600080600060608486031215611ff957600080fd5b833561200481611eb6565b925060208401359150604084013561201b81611fd6565b809150509250925092565b60006020828403121561203857600080fd5b5035919050565b60008060006060848603121561205457600080fd5b833561205f81611e89565b95602085013595506040909401359392505050565b60008060008060008060008060006101208a8c03121561209357600080fd5b893561209e81611e89565b985060208a0135975060408a0135965060608a0135955060808a0135945060a08a01356120ca81611ea1565b935060c08a01356120da81611eb6565b925060e08a013591506101008a01356120f281611eb6565b809150509295985092959850929598565b60006020828403121561211557600080fd5b8135611d7b81611eb6565b60006020828403121561213257600080fd5b815160ff81168114611d7b57600080fd5b634e487b7160e01b600052601160045260246000fd5b808202811582820484141761217057612170612143565b92915050565b60006020828403121561218857600080fd5b8151611d7b81611e89565b6001600160a01b039384168152919092166020820152604081019190915260600190565b6000602082840312156121c957600080fd5b8151611d7b81611fd6565b6000602082840312156121e657600080fd5b5051919050565b634e487b7160e01b600052603260045260246000fd5b60008060006060848603121561221857600080fd5b83519250602084015161222a81611ea1565b604085015190925061201b81611ea1565b6001600160401b0381811683821601908082111561225b5761225b612143565b5092915050565b60008261227f57634e487b7160e01b600052601260045260246000fd5b500490565b8181038181111561217057612170612143565b600080600080608085870312156122ad57600080fd5b84516122b881611e89565b80945050602085015192506040850151915060608501516122d881611eb6565b939692955090935050565b8082018082111561217057612170612143565b6001600160401b0382811682821603908082111561225b5761225b61214356fea2646970667358221220b4da235d02c51b1bf0792fd0468a50e2d542bbc0177474a494d046b8837d966964736f6c63430008140033",
  "devdoc": {
    "details": "Only one instance of this contract is required, whereas every new position comes with a new position contract. Pending challenges are stored as structs in an array.",
    "kind": "dev",
    "methods": {
      "bid(uint32,uint256,bool)": {
        "details": "In case that the collateral cannot be transfered back to the challenger (i.e. because the collateral token has a blacklist and the challenger is on it), it is possible to postpone the return of the collateral.",
        "params": {
          "_challengeNumber": "index of the challenge as broadcast in the event",
          "postponeCollateralReturn": "To postpone the return of the collateral to the challenger. Usually false.",
          "size": "how much of the collateral the caller wants to bid for at most                          (automatically reduced to the available amount)"
        }
      },
      "challenge(address,uint256,uint256)": {
        "params": {
          "_collateralAmount": "size of the collateral we want to challenge (dec 18)",
          "_positionAddr": "address of the position we want to challenge",
          "expectedPrice": "position.price() to guard against the minter fruntrunning with a price change"
        },
        "returns": {
          "_0": "index of the challenge in challenge-array"
        }
      },
      "clone(address,uint256,uint256,uint256)": {
        "details": "This needs an allowance to be set on the collateral contract such that the minting hub can get the collateral."
      },
      "openPosition(address,uint256,uint256,uint256,uint256,uint256,uint64,uint32,uint256,uint32)": {
        "details": "For a successful call, you must set an allowance for the collateral token, allowing the minting hub to transfer the initial collateral amount to the newly created position and to withdraw the fees.",
        "params": {
          "_annualInterestPPM": "ppm of minted amount that is paid as fee for each year of duration",
          "_challengeSeconds": "challenge period. Longer for less liquid collateral.",
          "_collateralAddress": "address of collateral token",
          "_expirationSeconds": "position tenor in unit of timestamp (seconds) from 'now'",
          "_initialCollateral": "amount of initial collateral to be deposited",
          "_liqPrice": "Liquidation price with (36 - token decimals) decimals,                           e.g. 18 decimals for an 18 dec collateral, 36 decs for a 0 dec collateral.",
          "_minCollateral": "minimum collateral required to prevent dust amounts",
          "_mintingMaximum": "maximal amount of ZCHF that can be minted by the position owner",
          "_reservePPM": "ppm of minted amount that is locked as borrower's reserve, e.g. 20%"
        },
        "returns": {
          "_0": "address           address of created position"
        }
      },
      "price(uint32)": {
        "details": "The price comes with (36-collateral.decimals()) digits, such that multiplying it with the raw collateral amount always yields a price with 36 digits, or 18 digits after dividing by 10**18 again."
      }
    },
    "stateVariables": {
      "pendingReturns": {
        "details": "It maps collateral => beneficiary => amount."
      }
    },
    "title": "Minting Hub",
    "version": 1
  },
  "userdoc": {
    "kind": "user",
    "methods": {
      "CHALLENGER_REWARD()": {
        "notice": "The challenger reward in parts per million (ppm) relative to the challenged amount, whereas challenged amount if defined as the challenged collateral amount times the liquidation price."
      },
      "OPENING_FEE()": {
        "notice": "Irrevocable fee in ZCHF when proposing a new position (but not when cloning an existing one)."
      },
      "bid(uint32,uint256,bool)": {
        "notice": "Post a bid in ZCHF given an open challenge."
      },
      "challenge(address,uint256,uint256)": {
        "notice": "Launch a challenge (Dutch auction) on a position"
      },
      "clone(address,uint256,uint256,uint256)": {
        "notice": "Clones an existing position and immediately tries to mint the specified amount using the given collateral."
      },
      "openPosition(address,uint256,uint256,uint256,uint256,uint256,uint64,uint32,uint256,uint32)": {
        "notice": "Open a collateralized loan position. See also https://docs.frankencoin.com/positions/open ."
      },
      "pendingReturns(address,address)": {
        "notice": "Map to remember pending postponed collateral returns."
      },
      "price(uint32)": {
        "notice": "Get the price per unit of the collateral for the given challenge."
      },
      "returnPostponedCollateral(address,address)": {
        "notice": "Challengers can call this method to withdraw collateral whose return was postponed."
      }
    },
    "notice": "The central hub for creating, cloning and challenging collateralized Frankencoin positions.",
    "version": 1
  },
  "storageLayout": {
    "storage": [
      {
        "astId": 1980,
        "contract": "contracts/MintingHub.sol:MintingHub",
        "label": "challenges",
        "offset": 0,
        "slot": "0",
        "type": "t_array(t_struct(Challenge)1997_storage)dyn_storage"
      },
      {
        "astId": 1987,
        "contract": "contracts/MintingHub.sol:MintingHub",
        "label": "pendingReturns",
        "offset": 0,
        "slot": "1",
        "type": "t_mapping(t_address,t_mapping(t_address,t_uint256))"
      }
    ],
    "types": {
      "t_address": {
        "encoding": "inplace",
        "label": "address",
        "numberOfBytes": "20"
      },
      "t_array(t_struct(Challenge)1997_storage)dyn_storage": {
        "base": "t_struct(Challenge)1997_storage",
        "encoding": "dynamic_array",
        "label": "struct MintingHub.Challenge[]",
        "numberOfBytes": "32"
      },
      "t_contract(IPosition)4776": {
        "encoding": "inplace",
        "label": "contract IPosition",
        "numberOfBytes": "20"
      },
      "t_mapping(t_address,t_mapping(t_address,t_uint256))": {
        "encoding": "mapping",
        "key": "t_address",
        "label": "mapping(address => mapping(address => uint256))",
        "numberOfBytes": "32",
        "value": "t_mapping(t_address,t_uint256)"
      },
      "t_mapping(t_address,t_uint256)": {
        "encoding": "mapping",
        "key": "t_address",
        "label": "mapping(address => uint256)",
        "numberOfBytes": "32",
        "value": "t_uint256"
      },
      "t_struct(Challenge)1997_storage": {
        "encoding": "inplace",
        "label": "struct MintingHub.Challenge",
        "members": [
          {
            "astId": 1989,
            "contract": "contracts/MintingHub.sol:MintingHub",
            "label": "challenger",
            "offset": 0,
            "slot": "0",
            "type": "t_address"
          },
          {
            "astId": 1991,
            "contract": "contracts/MintingHub.sol:MintingHub",
            "label": "start",
            "offset": 20,
            "slot": "0",
            "type": "t_uint64"
          },
          {
            "astId": 1994,
            "contract": "contracts/MintingHub.sol:MintingHub",
            "label": "position",
            "offset": 0,
            "slot": "1",
            "type": "t_contract(IPosition)4776"
          },
          {
            "astId": 1996,
            "contract": "contracts/MintingHub.sol:MintingHub",
            "label": "size",
            "offset": 0,
            "slot": "2",
            "type": "t_uint256"
          }
        ],
        "numberOfBytes": "96"
      },
      "t_uint256": {
        "encoding": "inplace",
        "label": "uint256",
        "numberOfBytes": "32"
      },
      "t_uint64": {
        "encoding": "inplace",
        "label": "uint64",
        "numberOfBytes": "8"
      }
    }
  }
}