{
  "address": "0x01242C959729774aA2cF6B54FeE10BD51db8c705",
  "abi": [
    {
      "inputs": [
        {
          "internalType": "address",
          "name": "_zchf",
          "type": "address"
        },
        {
          "internalType": "address",
          "name": "factory",
          "type": "address"
        }
      ],
      "stateMutability": "nonpayable",
      "type": "constructor"
    },
    {
      "anonymous": false,
      "inputs": [
        {
          "indexed": false,
          "internalType": "uint256",
          "name": "number",
          "type": "uint256"
        }
      ],
      "name": "ChallengeAverted",
      "type": "event"
    },
    {
      "anonymous": false,
      "inputs": [
        {
          "indexed": true,
          "internalType": "address",
          "name": "challenger",
          "type": "address"
        },
        {
          "indexed": false,
          "internalType": "address",
          "name": "position",
          "type": "address"
        },
        {
          "indexed": false,
          "internalType": "uint256",
          "name": "size",
          "type": "uint256"
        },
        {
          "indexed": false,
          "internalType": "uint256",
          "name": "number",
          "type": "uint256"
        }
      ],
      "name": "ChallengeStarted",
      "type": "event"
    },
    {
      "anonymous": false,
      "inputs": [
        {
          "indexed": false,
          "internalType": "uint256",
          "name": "number",
          "type": "uint256"
        }
      ],
      "name": "ChallengeSucceeded",
      "type": "event"
    },
    {
      "anonymous": false,
      "inputs": [
        {
          "indexed": false,
          "internalType": "uint256",
          "name": "challengedId",
          "type": "uint256"
        },
        {
          "indexed": false,
          "internalType": "uint256",
          "name": "bidAmount",
          "type": "uint256"
        },
        {
          "indexed": false,
          "internalType": "address",
          "name": "bidder",
          "type": "address"
        }
      ],
      "name": "NewBid",
      "type": "event"
    },
    {
      "inputs": [],
      "name": "BASE",
      "outputs": [
        {
          "internalType": "uint32",
          "name": "",
          "type": "uint32"
        }
      ],
      "stateMutability": "view",
      "type": "function"
    },
    {
      "inputs": [],
      "name": "CHALLENGER_REWARD",
      "outputs": [
        {
          "internalType": "uint32",
          "name": "",
          "type": "uint32"
        }
      ],
      "stateMutability": "view",
      "type": "function"
    },
    {
      "inputs": [],
      "name": "OPENING_FEE",
      "outputs": [
        {
          "internalType": "uint256",
          "name": "",
          "type": "uint256"
        }
      ],
      "stateMutability": "view",
      "type": "function"
    },
    {
      "inputs": [
        {
          "internalType": "uint256",
          "name": "_challengeNumber",
          "type": "uint256"
        },
        {
          "internalType": "uint256",
          "name": "_bidAmountZCHF",
          "type": "uint256"
        }
      ],
      "name": "bid",
      "outputs": [],
      "stateMutability": "nonpayable",
      "type": "function"
    },
    {
      "inputs": [
        {
          "internalType": "uint256",
          "name": "",
          "type": "uint256"
        }
      ],
      "name": "challenges",
      "outputs": [
        {
          "internalType": "address",
          "name": "challenger",
          "type": "address"
        },
        {
          "internalType": "contract IPosition",
          "name": "position",
          "type": "address"
        },
        {
          "internalType": "uint256",
          "name": "size",
          "type": "uint256"
        },
        {
          "internalType": "uint256",
          "name": "end",
          "type": "uint256"
        },
        {
          "internalType": "address",
          "name": "bidder",
          "type": "address"
        },
        {
          "internalType": "uint256",
          "name": "bid",
          "type": "uint256"
        }
      ],
      "stateMutability": "view",
      "type": "function"
    },
    {
      "inputs": [
        {
          "internalType": "address",
          "name": "position",
          "type": "address"
        },
        {
          "internalType": "uint256",
          "name": "_initialCollateral",
          "type": "uint256"
        },
        {
          "internalType": "uint256",
          "name": "_initialMint",
          "type": "uint256"
        }
      ],
      "name": "clonePosition",
      "outputs": [
        {
          "internalType": "address",
          "name": "",
          "type": "address"
        }
      ],
      "stateMutability": "nonpayable",
      "type": "function"
    },
    {
      "inputs": [
        {
          "internalType": "uint256",
          "name": "_challengeNumber",
          "type": "uint256"
        }
      ],
      "name": "end",
      "outputs": [],
      "stateMutability": "nonpayable",
      "type": "function"
    },
    {
      "inputs": [
        {
          "internalType": "address",
          "name": "_positionAddr",
          "type": "address"
        },
        {
          "internalType": "uint256",
          "name": "_collateralAmount",
          "type": "uint256"
        }
      ],
      "name": "launchChallenge",
      "outputs": [
        {
          "internalType": "uint256",
          "name": "",
          "type": "uint256"
        }
      ],
      "stateMutability": "nonpayable",
      "type": "function"
    },
    {
      "inputs": [
        {
          "internalType": "address",
          "name": "_collateral",
          "type": "address"
        },
        {
          "internalType": "uint256",
          "name": "_minCollateral",
          "type": "uint256"
        },
        {
          "internalType": "uint256",
          "name": "_initialCollateral",
          "type": "uint256"
        },
        {
          "internalType": "uint256",
          "name": "_initialLimit",
          "type": "uint256"
        },
        {
          "internalType": "uint256",
          "name": "_duration",
          "type": "uint256"
        },
        {
          "internalType": "uint256",
          "name": "_challengePeriod",
          "type": "uint256"
        },
        {
          "internalType": "uint32",
          "name": "_fees",
          "type": "uint32"
        },
        {
          "internalType": "uint256",
          "name": "_liqPrice",
          "type": "uint256"
        },
        {
          "internalType": "uint32",
          "name": "_reserve",
          "type": "uint32"
        }
      ],
      "name": "openPosition",
      "outputs": [
        {
          "internalType": "address",
          "name": "",
          "type": "address"
        }
      ],
      "stateMutability": "nonpayable",
      "type": "function"
    },
    {
      "inputs": [],
      "name": "reserve",
      "outputs": [
        {
          "internalType": "contract IReserve",
          "name": "",
          "type": "address"
        }
      ],
      "stateMutability": "view",
      "type": "function"
    },
    {
      "inputs": [],
      "name": "zchf",
      "outputs": [
        {
          "internalType": "contract IFrankencoin",
          "name": "",
          "type": "address"
        }
      ],
      "stateMutability": "view",
      "type": "function"
    }
  ],
  "transactionHash": "0x177e58e2907c604cf9207d3a43aa5cf144059567de86a941bf4d60e77d697f44",
  "args": [
    "0x04Bc61c1A937F78B13Eb72A9d74dFC582b3Dd15c",
    "0xA709095F741D12f7137690CF160bA8354a5932AB"
  ],
  "numDeployments": 1,
  "solcInputHash": "7cf77f9f93d5b0516774db7ea876a2dc",
  "bytecode": "0x60c06040523480156200001157600080fd5b5060405162001ad338038062001ad3833981016040819052620000349162000069565b6001600160a01b0391821660a05216608052620000a1565b80516001600160a01b03811681146200006457600080fd5b919050565b600080604083850312156200007d57600080fd5b62000088836200004c565b915062000098602084016200004c565b90509250929050565b60805160a05161199c62000137600039600081816101bf0152818161021c0152818161032201528181610382015281816103b2015281816105e70152818161073601528181610a2501528181610ae601528181610bb401528181610c84015281816110dd015281816113b2015281816114810152818161153101526115c50152600081816102920152610bf3015261199c6000f3fe608060405234801561001057600080fd5b50600436106100a95760003560e01c80637b7da10e116100715780637b7da10e146101375780638f1d37761461014a578063af5806b61461019c578063c4d4803a146101ba578063cd3293de146101e1578063ec342ad0146101e957600080fd5b80630ad24528146100ae5780632bf78dd8146100c35780633611a3b7146100e6578063598647f81461011157806374362a2514610124575b600080fd5b6100c16100bc3660046116c5565b6101f3565b005b6100d3683635c9adc5dea0000081565b6040519081526020015b60405180910390f35b6100f96100f4366004611705565b6101ff565b6040516001600160a01b0390911681526020016100dd565b6100c161011f36600461178b565b610520565b6100f96101323660046117ad565b610ac2565b6100d36101453660046117e2565b610dc1565b61015d6101583660046116c5565b611082565b604080516001600160a01b03978816815295871660208701528501939093526060840191909152909216608082015260a081019190915260c0016100dd565b6101a5614e2081565b60405163ffffffff90911681526020016100dd565b6100f97f000000000000000000000000000000000000000000000000000000000000000081565b6100f96110d9565b6101a5620f424081565b6101fc81611162565b50565b6040516353af180760e01b81523360048201526001600160a01b037f0000000000000000000000000000000000000000000000000000000000000000811660248301528a81166044830152606482018a90526084820189905260a4820188905260c4820187905260e4820186905263ffffffff8581166101048401526101248301859052831661014483015260009182917f000000000000000000000000000000000000000000000000000000000000000016906353af180790610164016020604051808303816000875af11580156102dc573d6000803e3d6000fd5b505050506040513d601f19601f82011682018060405250810190610300919061180e565b60405163b52c696d60e01b81526001600160a01b0380831660048301529192507f00000000000000000000000000000000000000000000000000000000000000009091169063b52c696d90602401600060405180830381600087803b15801561036857600080fd5b505af115801561037c573d6000803e3d6000fd5b505050507f00000000000000000000000000000000000000000000000000000000000000006001600160a01b03166323b872dd337f00000000000000000000000000000000000000000000000000000000000000006001600160a01b031663cd3293de6040518163ffffffff1660e01b8152600401602060405180830381865afa15801561040e573d6000803e3d6000fd5b505050506040513d601f19601f82011682018060405250810190610432919061180e565b683635c9adc5dea000006040518463ffffffff1660e01b815260040161045a93929190611832565b6020604051808303816000875af1158015610479573d6000803e3d6000fd5b505050506040513d601f19601f8201168201806040525081019061049d9190611856565b506040516323b872dd60e01b81526001600160a01b038c16906323b872dd906104ce90339085908e90600401611832565b6020604051808303816000875af11580156104ed573d6000803e3d6000fd5b505050506040513d601f19601f820116820180604052508101906105119190611856565b509a9950505050505050505050565b600080838154811061053457610534611878565b906000526020600020906006020190508060030154421061055d5761055883611162565b505050565b806005015482116105ac5760405162461bcd60e51b81526020600482015260146024820152736869676865722062696420617661696c61626c6560601b60448201526064015b60405180910390fd5b60058101541561065657600481810154600583015460405163a9059cbb60e01b81526001600160a01b039283169381019390935260248301527f0000000000000000000000000000000000000000000000000000000000000000169063a9059cbb906044016020604051808303816000875af1158015610630573d6000803e3d6000fd5b505050506040513d601f19601f820116820180604052508101906106549190611856565b505b6040805184815260208101849052338183015290517f0b946a7d9cbd47da0dd592970ef1259349c40f44b231f11da4babeb56c07dd2d9181900360600190a160018101546002820154604051631f4a712160e11b81526001600160a01b0390921691633e94e242916106d5918690600401918252602082015260400190565b6020604051808303816000875af11580156106f4573d6000803e3d6000fd5b505050506040513d601f19601f820116820180604052508101906107189190611856565b1561093a5780546040516323b872dd60e01b81526001600160a01b037f00000000000000000000000000000000000000000000000000000000000000008116926323b872dd9261077092339216908790600401611832565b6020604051808303816000875af115801561078f573d6000803e3d6000fd5b505050506040513d601f19601f820116820180604052508101906107b39190611856565b508060010160009054906101000a90046001600160a01b03166001600160a01b031663d8dfeb456040518163ffffffff1660e01b81526004016020604051808303816000875af115801561080b573d6000803e3d6000fd5b505050506040513d601f19601f8201168201806040525081019061082f919061180e565b600282015460405163a9059cbb60e01b815233600482015260248101919091526001600160a01b03919091169063a9059cbb906044016020604051808303816000875af1158015610884573d6000803e3d6000fd5b505050506040513d601f19601f820116820180604052508101906108a89190611856565b506040518381527f3505429b87a031d0988af558339ac48cce30340b782fd716405bf21bc07408c09060200160405180910390a1600083815481106108ef576108ef611878565b60009182526020822060069091020180546001600160a01b03199081168255600182018054821690556002820183905560038201839055600482018054909116905560050155505050565b81670de0b6b3a76400008260010160009054906101000a90046001600160a01b03166001600160a01b031663a035b1fe6040518163ffffffff1660e01b81526004016020604051808303816000875af115801561099b573d6000803e3d6000fd5b505050506040513d601f19601f820116820180604052508101906109bf919061188e565b83600201546109ce91906118bd565b6109d891906118dc565b11610a0e5760405162461bcd60e51b81526004016105a3906020808252600490820152631dda1bdd60e21b604082015260600190565b6040516323b872dd60e01b81526001600160a01b037f000000000000000000000000000000000000000000000000000000000000000016906323b872dd90610a5e90339030908790600401611832565b6020604051808303816000875af1158015610a7d573d6000803e3d6000fd5b505050506040513d601f19601f82011682018060405250810190610aa19190611856565b50600581018290556004810180546001600160a01b03191633179055505050565b604051632748913b60e01b81526001600160a01b03848116600483015260009130917f00000000000000000000000000000000000000000000000000000000000000001690632748913b90602401602060405180830381865afa158015610b2d573d6000803e3d6000fd5b505050506040513d601f19601f82011682018060405250810190610b51919061180e565b6001600160a01b031614610b955760405162461bcd60e51b815260206004820152600b60248201526a6e6f74206f757220706f7360a81b60448201526064016105a3565b604051632e292e8d60e01b81526001600160a01b0385811660048301527f00000000000000000000000000000000000000000000000000000000000000008116602483015233604483015260648201859052608482018490526000917f000000000000000000000000000000000000000000000000000000000000000090911690632e292e8d9060a4016020604051808303816000875af1158015610c3e573d6000803e3d6000fd5b505050506040513d601f19601f82011682018060405250810190610c62919061180e565b60405163b52c696d60e01b81526001600160a01b0380831660048301529192507f00000000000000000000000000000000000000000000000000000000000000009091169063b52c696d90602401600060405180830381600087803b158015610cca57600080fd5b505af1158015610cde573d6000803e3d6000fd5b50505050806001600160a01b031663d8dfeb456040518163ffffffff1660e01b81526004016020604051808303816000875af1158015610d22573d6000803e3d6000fd5b505050506040513d601f19601f82011682018060405250810190610d46919061180e565b6001600160a01b03166323b872dd3383876040518463ffffffff1660e01b8152600401610d7593929190611832565b6020604051808303816000875af1158015610d94573d6000803e3d6000fd5b505050506040513d601f19601f82011682018060405250810190610db89190611856565b50949350505050565b600080839050806001600160a01b031663d8dfeb456040518163ffffffff1660e01b81526004016020604051808303816000875af1158015610e07573d6000803e3d6000fd5b505050506040513d601f19601f82011682018060405250810190610e2b919061180e565b6001600160a01b03166323b872dd3330866040518463ffffffff1660e01b8152600401610e5a93929190611832565b6020604051808303816000875af1158015610e79573d6000803e3d6000fd5b505050506040513d601f19601f82011682018060405250810190610e9d9190611856565b5060008080549050905060006040518060c00160405280336001600160a01b03168152602001846001600160a01b03168152602001868152602001846001600160a01b031663f3f480d96040518163ffffffff1660e01b81526004016020604051808303816000875af1158015610f18573d6000803e3d6000fd5b505050506040513d601f19601f82011682018060405250810190610f3c919061188e565b610f4690426118fe565b815260006020808301829052604092830182905284546001808201875595835291819020845160069093020180546001600160a01b03199081166001600160a01b03948516178255918501519581018054831696841696909617909555838301516002860155606084015160038601556080840151600480870180549093169184169190911790915560a090930151600590940193909355516342d0204160e01b8152908101869052908316906342d0204190602401600060405180830381600087803b15801561101657600080fd5b505af115801561102a573d6000803e3d6000fd5b5050604080516001600160a01b0386168152602081018890529081018490523392507fc4b384b2c5ca32c8e77081f4083be594a1ea9ba34f208a9f9a458f70608585f5915060600160405180910390a2949350505050565b6000818154811061109257600080fd5b60009182526020909120600690910201805460018201546002830154600384015460048501546005909501546001600160a01b039485169650928416949193909291169086565b60007f00000000000000000000000000000000000000000000000000000000000000006001600160a01b031663cd3293de6040518163ffffffff1660e01b8152600401602060405180830381865afa158015611139573d6000803e3d6000fd5b505050506040513d601f19601f8201168201806040525081019061115d919061180e565b905090565b600080828154811061117657611176611878565b9060005260206000209060060201905060008160010160009054906101000a90046001600160a01b03166001600160a01b031663d8dfeb456040518163ffffffff1660e01b81526004016020604051808303816000875af11580156111df573d6000803e3d6000fd5b505050506040513d601f19601f82011682018060405250810190611203919061180e565b905081600301544210156112505760405162461bcd60e51b81526020600482015260146024820152731c195c9a5bd9081a185cc81b9bdd08195b99195960621b60448201526064016105a3565b8154600283015460405163a9059cbb60e01b81526001600160a01b03928316600482015260248101919091529082169063a9059cbb906044016020604051808303816000875af11580156112a8573d6000803e3d6000fd5b505050506040513d601f19601f820116820180604052508101906112cc9190611856565b5060048201546000906001600160a01b0316156112f65760048301546001600160a01b03166112f8565b335b60018401546005850154600286015460405163707271b160e01b81526001600160a01b0380861660048301526024820193909352604481019190915292935060009283928392169063707271b1906064016060604051808303816000875af1158015611368573d6000803e3d6000fd5b505050506040513d601f19601f8201168201806040525081019061138c9190611916565b925092509250856005015483101561145957600486015460058701546001600160a01b037f000000000000000000000000000000000000000000000000000000000000000081169263a9059cbb929116906113e890879061194f565b6040516001600160e01b031960e085901b1681526001600160a01b03909216600483015260248201526044016020604051808303816000875af1158015611433573d6000803e3d6000fd5b505050506040513d601f19601f820116820180604052508101906114579190611856565b505b6000620f424061146b614e20856118bd565b61147591906118dc565b90506001600160a01b037f0000000000000000000000000000000000000000000000000000000000000000166361f3d110856114b186856118fe565b6114bb919061194f565b6040518263ffffffff1660e01b81526004016114d991815260200190565b600060405180830381600087803b1580156114f357600080fd5b505af1158015611507573d6000803e3d6000fd5b5050885460405163a9059cbb60e01b81526001600160a01b039182166004820152602481018590527f0000000000000000000000000000000000000000000000000000000000000000909116925063a9059cbb91506044016020604051808303816000875af115801561157e573d6000803e3d6000fd5b505050506040513d601f19601f820116820180604052508101906115a29190611856565b506040516313980c6b60e31b81526004810184905263ffffffff831660248201527f00000000000000000000000000000000000000000000000000000000000000006001600160a01b031690639cc0635890604401600060405180830381600087803b15801561161157600080fd5b505af1158015611625573d6000803e3d6000fd5b505050507f05f9cc3345665aee5729d9564c27530d8b2ad3b4eb7e5d2503b15dc98498e7268860405161165a91815260200190565b60405180910390a16000888154811061167557611675611878565b60009182526020822060069091020180546001600160a01b031990811682556001820180548216905560028201839055600382018390556004820180549091169055600501555050505050505050565b6000602082840312156116d757600080fd5b5035919050565b6001600160a01b03811681146101fc57600080fd5b63ffffffff811681146101fc57600080fd5b60008060008060008060008060006101208a8c03121561172457600080fd5b893561172f816116de565b985060208a0135975060408a0135965060608a0135955060808a0135945060a08a0135935060c08a0135611762816116f3565b925060e08a013591506101008a013561177a816116f3565b809150509295985092959850929598565b6000806040838503121561179e57600080fd5b50508035926020909101359150565b6000806000606084860312156117c257600080fd5b83356117cd816116de565b95602085013595506040909401359392505050565b600080604083850312156117f557600080fd5b8235611800816116de565b946020939093013593505050565b60006020828403121561182057600080fd5b815161182b816116de565b9392505050565b6001600160a01b039384168152919092166020820152604081019190915260600190565b60006020828403121561186857600080fd5b8151801515811461182b57600080fd5b634e487b7160e01b600052603260045260246000fd5b6000602082840312156118a057600080fd5b5051919050565b634e487b7160e01b600052601160045260246000fd5b60008160001904831182151516156118d7576118d76118a7565b500290565b6000826118f957634e487b7160e01b600052601260045260246000fd5b500490565b60008219821115611911576119116118a7565b500190565b60008060006060848603121561192b57600080fd5b83519250602084015191506040840151611944816116f3565b809150509250925092565b600082821015611961576119616118a7565b50039056fea2646970667358221220dc32d82603d1a9483216d0261d089cdcb1bb48f7e471ac100e891115e9b72c6464736f6c634300080d0033",
  "devdoc": {
    "kind": "dev",
    "methods": {
      "bid(uint256,uint256)": {
        "params": {
          "_bidAmountZCHF": "how much to bid for the collateral of this challenge (dec 18)",
          "_challengeNumber": "index of the challenge in the challenges array"
        }
      },
      "end(uint256)": {
        "params": {
          "_challengeNumber": "number of the challenge in challenge-array"
        }
      },
      "launchChallenge(address,uint256)": {
        "params": {
          "_collateralAmount": "size of the collateral we want to challenge (dec 18)",
          "_positionAddr": "address of the position we want to challenge"
        },
        "returns": {
          "_0": "index of the challenge in challenge-array"
        }
      },
      "openPosition(address,uint256,uint256,uint256,uint256,uint256,uint32,uint256,uint32)": {
        "params": {
          "_challengePeriod": "challenge period. Longer for less liquid collateral.",
          "_collateral": "address of collateral token",
          "_duration": "position tenor in unit of timestamp (seconds) from 'now'",
          "_fees": "percentage minting fee that will be added to reserve,                           basis 1000_000",
          "_initialCollateral": "amount of initial collateral to be deposited",
          "_initialLimit": "maximal amount of ZCHF that can be minted by the position owner ",
          "_liqPrice": "Liquidation price (dec18) that together with the reserve and                           fees determines the minimal collateralization ratio",
          "_minCollateral": "minimum collateral required to prevent dust amounts",
          "_reserve": "percentage reserve amount that is added as the                            borrower's stake into reserve, basis 1000_000"
        },
        "returns": {
          "_0": "address of resulting position"
        }
      }
    },
    "version": 1
  },
  "userdoc": {
    "kind": "user",
    "methods": {
      "bid(uint256,uint256)": {
        "notice": "Post a bid (ZCHF amount) for an existing challenge (given collateral amount)"
      },
      "end(uint256)": {
        "notice": "Ends a challenge successfully after the auction period ended. Example: A challenged position had 1000 ABC tokens as collateral with a minting limit of 200,000 ZCHF, out of which 60,000 have been minted and thereof 15,000 used to buy reserve tokens. The challenger auctioned off 400 ABC tokens, challenging 40% of the position. The highest bid was 75,000 ZCHF, below the 40% * 200,000 = 80,000 ZCHF needed to avert the challenge. The reserve ratio of the position is 25%.  Now, the following happens when calling this method: - 400 ABC from the position owner are transferred to the bidder - The challenger's 400 ABC are returned to the challenger - 40% of the reserve bought with the 15,000 ZCHF is sold off (approximately), yielding e.g. 5,600 ZCHF - 40% * 60,000 = 24,000 ZCHF are burned - 80,000 * 2% = 1600 ZCHF are given to the challenger as a reward - 40% * (100%-25%) * (200,000 - 60,000) = 42,000 are given to the position owner for selling off unused collateral - The remaining 75,000 + 5,600 - 1,600 - 24,000 - 42,000 = 13,000 ZCHF are sent to the reserve pool If the highest bid was only 60,000 ZCHF, then we would have had a shortfall of 2,000 ZCHF that would in the first priority be covered by the reserve and in the second priority by minting unbacked ZCHF, triggering a  balance alert."
      },
      "launchChallenge(address,uint256)": {
        "notice": "Launch a challenge on a position"
      },
      "openPosition(address,uint256,uint256,uint256,uint256,uint256,uint32,uint256,uint32)": {
        "notice": "open a collateralized loan position"
      }
    },
    "notice": "A hub for creating collateralized minting positions for a given collateral.",
    "version": 1
  },
  "storageLayout": {
    "storage": [
      {
        "astId": 2238,
        "contract": "contracts/MintingHub.sol:MintingHub",
        "label": "challenges",
        "offset": 0,
        "slot": "0",
        "type": "t_array(t_struct(Challenge)2252_storage)dyn_storage"
      }
    ],
    "types": {
      "t_address": {
        "encoding": "inplace",
        "label": "address",
        "numberOfBytes": "20"
      },
      "t_array(t_struct(Challenge)2252_storage)dyn_storage": {
        "base": "t_struct(Challenge)2252_storage",
        "encoding": "dynamic_array",
        "label": "struct MintingHub.Challenge[]",
        "numberOfBytes": "32"
      },
      "t_contract(IPosition)2058": {
        "encoding": "inplace",
        "label": "contract IPosition",
        "numberOfBytes": "20"
      },
      "t_struct(Challenge)2252_storage": {
        "encoding": "inplace",
        "label": "struct MintingHub.Challenge",
        "members": [
          {
            "astId": 2240,
            "contract": "contracts/MintingHub.sol:MintingHub",
            "label": "challenger",
            "offset": 0,
            "slot": "0",
            "type": "t_address"
          },
          {
            "astId": 2243,
            "contract": "contracts/MintingHub.sol:MintingHub",
            "label": "position",
            "offset": 0,
            "slot": "1",
            "type": "t_contract(IPosition)2058"
          },
          {
            "astId": 2245,
            "contract": "contracts/MintingHub.sol:MintingHub",
            "label": "size",
            "offset": 0,
            "slot": "2",
            "type": "t_uint256"
          },
          {
            "astId": 2247,
            "contract": "contracts/MintingHub.sol:MintingHub",
            "label": "end",
            "offset": 0,
            "slot": "3",
            "type": "t_uint256"
          },
          {
            "astId": 2249,
            "contract": "contracts/MintingHub.sol:MintingHub",
            "label": "bidder",
            "offset": 0,
            "slot": "4",
            "type": "t_address"
          },
          {
            "astId": 2251,
            "contract": "contracts/MintingHub.sol:MintingHub",
            "label": "bid",
            "offset": 0,
            "slot": "5",
            "type": "t_uint256"
          }
        ],
        "numberOfBytes": "192"
      },
      "t_uint256": {
        "encoding": "inplace",
        "label": "uint256",
        "numberOfBytes": "32"
      }
    }
  }
}