{
  "address": "0xd9216441b8b489483Bd838832282fbcAa2dc9d29",
  "abi": [
    {
      "inputs": [
        {
          "internalType": "address",
          "name": "_zchf",
          "type": "address"
        },
        {
          "internalType": "address",
          "name": "factory",
          "type": "address"
        }
      ],
      "stateMutability": "nonpayable",
      "type": "constructor"
    },
    {
      "anonymous": false,
      "inputs": [
        {
          "indexed": true,
          "internalType": "address",
          "name": "position",
          "type": "address"
        },
        {
          "indexed": false,
          "internalType": "uint256",
          "name": "number",
          "type": "uint256"
        }
      ],
      "name": "ChallengeAverted",
      "type": "event"
    },
    {
      "anonymous": false,
      "inputs": [
        {
          "indexed": true,
          "internalType": "address",
          "name": "challenger",
          "type": "address"
        },
        {
          "indexed": true,
          "internalType": "address",
          "name": "position",
          "type": "address"
        },
        {
          "indexed": false,
          "internalType": "uint256",
          "name": "size",
          "type": "uint256"
        },
        {
          "indexed": false,
          "internalType": "uint256",
          "name": "number",
          "type": "uint256"
        }
      ],
      "name": "ChallengeStarted",
      "type": "event"
    },
    {
      "anonymous": false,
      "inputs": [
        {
          "indexed": true,
          "internalType": "address",
          "name": "position",
          "type": "address"
        },
        {
          "indexed": false,
          "internalType": "uint256",
          "name": "bid",
          "type": "uint256"
        },
        {
          "indexed": false,
          "internalType": "uint256",
          "name": "number",
          "type": "uint256"
        }
      ],
      "name": "ChallengeSucceeded",
      "type": "event"
    },
    {
      "anonymous": false,
      "inputs": [
        {
          "indexed": false,
          "internalType": "uint256",
          "name": "challengedId",
          "type": "uint256"
        },
        {
          "indexed": false,
          "internalType": "uint256",
          "name": "bidAmount",
          "type": "uint256"
        },
        {
          "indexed": false,
          "internalType": "address",
          "name": "bidder",
          "type": "address"
        }
      ],
      "name": "NewBid",
      "type": "event"
    },
    {
      "inputs": [],
      "name": "BASE",
      "outputs": [
        {
          "internalType": "uint32",
          "name": "",
          "type": "uint32"
        }
      ],
      "stateMutability": "view",
      "type": "function"
    },
    {
      "inputs": [],
      "name": "CHALLENGER_REWARD",
      "outputs": [
        {
          "internalType": "uint32",
          "name": "",
          "type": "uint32"
        }
      ],
      "stateMutability": "view",
      "type": "function"
    },
    {
      "inputs": [],
      "name": "OPENING_FEE",
      "outputs": [
        {
          "internalType": "uint256",
          "name": "",
          "type": "uint256"
        }
      ],
      "stateMutability": "view",
      "type": "function"
    },
    {
      "inputs": [
        {
          "internalType": "uint256",
          "name": "_challengeNumber",
          "type": "uint256"
        },
        {
          "internalType": "uint256",
          "name": "_bidAmountZCHF",
          "type": "uint256"
        },
        {
          "internalType": "uint256",
          "name": "expectedSize",
          "type": "uint256"
        }
      ],
      "name": "bid",
      "outputs": [],
      "stateMutability": "nonpayable",
      "type": "function"
    },
    {
      "inputs": [
        {
          "internalType": "uint256",
          "name": "",
          "type": "uint256"
        }
      ],
      "name": "challenges",
      "outputs": [
        {
          "internalType": "address",
          "name": "challenger",
          "type": "address"
        },
        {
          "internalType": "contract IPosition",
          "name": "position",
          "type": "address"
        },
        {
          "internalType": "uint256",
          "name": "size",
          "type": "uint256"
        },
        {
          "internalType": "uint256",
          "name": "end",
          "type": "uint256"
        },
        {
          "internalType": "address",
          "name": "bidder",
          "type": "address"
        },
        {
          "internalType": "uint256",
          "name": "bid",
          "type": "uint256"
        }
      ],
      "stateMutability": "view",
      "type": "function"
    },
    {
      "inputs": [
        {
          "internalType": "address",
          "name": "position",
          "type": "address"
        },
        {
          "internalType": "uint256",
          "name": "_initialCollateral",
          "type": "uint256"
        },
        {
          "internalType": "uint256",
          "name": "_initialMint",
          "type": "uint256"
        }
      ],
      "name": "clonePosition",
      "outputs": [
        {
          "internalType": "address",
          "name": "",
          "type": "address"
        }
      ],
      "stateMutability": "nonpayable",
      "type": "function"
    },
    {
      "inputs": [
        {
          "internalType": "uint256",
          "name": "_challengeNumber",
          "type": "uint256"
        }
      ],
      "name": "end",
      "outputs": [],
      "stateMutability": "nonpayable",
      "type": "function"
    },
    {
      "inputs": [
        {
          "internalType": "uint256",
          "name": "_challengeNumber",
          "type": "uint256"
        }
      ],
      "name": "isChallengeOpen",
      "outputs": [
        {
          "internalType": "bool",
          "name": "",
          "type": "bool"
        }
      ],
      "stateMutability": "view",
      "type": "function"
    },
    {
      "inputs": [
        {
          "internalType": "address",
          "name": "_positionAddr",
          "type": "address"
        },
        {
          "internalType": "uint256",
          "name": "_collateralAmount",
          "type": "uint256"
        }
      ],
      "name": "launchChallenge",
      "outputs": [
        {
          "internalType": "uint256",
          "name": "",
          "type": "uint256"
        }
      ],
      "stateMutability": "nonpayable",
      "type": "function"
    },
    {
      "inputs": [
        {
          "internalType": "uint256",
          "name": "challenge",
          "type": "uint256"
        }
      ],
      "name": "minBid",
      "outputs": [
        {
          "internalType": "uint256",
          "name": "",
          "type": "uint256"
        }
      ],
      "stateMutability": "view",
      "type": "function"
    },
    {
      "inputs": [
        {
          "internalType": "address",
          "name": "_collateral",
          "type": "address"
        },
        {
          "internalType": "uint256",
          "name": "_minCollateral",
          "type": "uint256"
        },
        {
          "internalType": "uint256",
          "name": "_initialCollateral",
          "type": "uint256"
        },
        {
          "internalType": "uint256",
          "name": "_initialLimit",
          "type": "uint256"
        },
        {
          "internalType": "uint256",
          "name": "_duration",
          "type": "uint256"
        },
        {
          "internalType": "uint256",
          "name": "_challengePeriod",
          "type": "uint256"
        },
        {
          "internalType": "uint32",
          "name": "_mintingFeePPM",
          "type": "uint32"
        },
        {
          "internalType": "uint256",
          "name": "_liqPrice",
          "type": "uint256"
        },
        {
          "internalType": "uint32",
          "name": "_reservePPM",
          "type": "uint32"
        }
      ],
      "name": "openPosition",
      "outputs": [
        {
          "internalType": "address",
          "name": "",
          "type": "address"
        }
      ],
      "stateMutability": "nonpayable",
      "type": "function"
    },
    {
      "inputs": [],
      "name": "reserve",
      "outputs": [
        {
          "internalType": "contract IReserve",
          "name": "",
          "type": "address"
        }
      ],
      "stateMutability": "view",
      "type": "function"
    },
    {
      "inputs": [
        {
          "internalType": "uint256",
          "name": "_challengeNumber",
          "type": "uint256"
        },
        {
          "internalType": "uint256",
          "name": "splitOffAmount",
          "type": "uint256"
        }
      ],
      "name": "splitChallenge",
      "outputs": [
        {
          "internalType": "uint256",
          "name": "",
          "type": "uint256"
        }
      ],
      "stateMutability": "nonpayable",
      "type": "function"
    },
    {
      "inputs": [],
      "name": "zchf",
      "outputs": [
        {
          "internalType": "contract IFrankencoin",
          "name": "",
          "type": "address"
        }
      ],
      "stateMutability": "view",
      "type": "function"
    }
  ],
  "transactionHash": "0x931a024ffae3d5eba34073709fec922960030553f19599731776c5a47632eb77",
  "args": [
    "0xE945D11699725E43d793D7EE83468C131F4a99E2",
    "0x0D0937819250BB440a9Fa3985822507D5Ad9fE75"
  ],
  "numDeployments": 1,
  "solcInputHash": "fd71bf242377b6ea7da508eabd4d7c4f",
  "bytecode": "0x60c06040523480156200001157600080fd5b506040516200210f3803806200210f833981016040819052620000349162000069565b6001600160a01b0391821660a05216608052620000a1565b80516001600160a01b03811681146200006457600080fd5b919050565b600080604083850312156200007d57600080fd5b62000088836200004c565b915062000098602084016200004c565b90509250929050565b60805160a051611fdf62000130600039600081816102360152818161033d0152818161048c015281816107f5015281816108b2015281816109b801528181610a1801528181610a4801528181610bda01528181610dad015281816116bd0152818161199201528181611a6101528181611b110152611ba50152600081816109280152610d1e0152611fdf6000f3fe608060405234801561001057600080fd5b50600436106100ea5760003560e01c8063af5806b61161008c578063c4d4803a11610066578063c4d4803a14610231578063c536022714610258578063cd3293de1461026b578063ec342ad01461027357600080fd5b8063af5806b6146101dd578063be747fd5146101fb578063c0dba9441461020e57600080fd5b80633611a3b7116100c85780633611a3b71461013a57806374362a25146101655780637b7da10e146101785780638f1d37761461018b57600080fd5b80630ad24528146100ef5780632ac9bf09146101045780632bf78dd814610117575b600080fd5b6101026100fd366004611cdc565b61027d565b005b610102610112366004611cf5565b610289565b610127683635c9adc5dea0000081565b6040519081526020015b60405180910390f35b61014d610148366004611d48565b610895565b6040516001600160a01b039091168152602001610131565b61014d610173366004611dce565b610bb6565b610127610186366004611e03565b610fd4565b61019e610199366004611cdc565b61128f565b604080516001600160a01b03978816815295871660208701528501939093526060840191909152909216608082015260a081019190915260c001610131565b6101e6614e2081565b60405163ffffffff9091168152602001610131565b610127610209366004611e2f565b6112e6565b61022161021c366004611cdc565b611658565b6040519015158152602001610131565b61014d7f000000000000000000000000000000000000000000000000000000000000000081565b610127610266366004611cdc565b611688565b61014d6116b9565b6101e6620f424081565b61028681611742565b50565b600080848154811061029d5761029d611e51565b90600052602060002090600602019050806003015442106102c6576102c184611742565b61088f565b806002015482146103025760405162461bcd60e51b81526020600482015260016024820152607360f81b60448201526064015b60405180910390fd5b6005810154156103ac57600481810154600583015460405163a9059cbb60e01b81526001600160a01b039283169381019390935260248301527f0000000000000000000000000000000000000000000000000000000000000000169063a9059cbb906044016020604051808303816000875af1158015610386573d6000803e3d6000fd5b505050506040513d601f19601f820116820180604052508101906103aa9190611e67565b505b6040805185815260208101859052338183015290517f0b946a7d9cbd47da0dd592970ef1259349c40f44b231f11da4babeb56c07dd2d9181900360600190a160018101546002820154604051631f4a712160e11b81526001600160a01b0390921691633e94e2429161042b918790600401918252602082015260400190565b6020604051808303816000875af115801561044a573d6000803e3d6000fd5b505050506040513d601f19601f8201168201806040525081019061046e9190611e67565b156106a15780546040516323b872dd60e01b81526001600160a01b037f00000000000000000000000000000000000000000000000000000000000000008116926323b872dd926104c692339216908890600401611e90565b6020604051808303816000875af11580156104e5573d6000803e3d6000fd5b505050506040513d601f19601f820116820180604052508101906105099190611e67565b508060010160009054906101000a90046001600160a01b03166001600160a01b031663d8dfeb456040518163ffffffff1660e01b81526004016020604051808303816000875af1158015610561573d6000803e3d6000fd5b505050506040513d601f19601f820116820180604052508101906105859190611eb4565b600282015460405163a9059cbb60e01b815233600482015260248101919091526001600160a01b03919091169063a9059cbb906044016020604051808303816000875af11580156105da573d6000803e3d6000fd5b505050506040513d601f19601f820116820180604052508101906105fe9190611e67565b5060018101546040518581526001600160a01b03909116907f77f5c683926510b182ace6fbf98ddedb0d8f79ddbcbd37b76472bd0428d328ca9060200160405180910390a26000848154811061065657610656611e51565b60009182526020822060069091020180546001600160a01b0319908116825560018201805482169055600282018390556003820183905560048201805490911690556005015561088f565b6106aa81611cbb565b8310156106e95760405162461bcd60e51b815260206004820152600d60248201526c18995b1bddc81b5a5b88189a59609a1b60448201526064016102f9565b60006106f742610708611ee7565b90508160030154811061070c57600382018190555b61071e84670de0b6b3a7640000611eff565b8260010160009054906101000a90046001600160a01b03166001600160a01b031663a035b1fe6040518163ffffffff1660e01b81526004016020604051808303816000875af1158015610775573d6000803e3d6000fd5b505050506040513d601f19601f820116820180604052508101906107999190611f1e565b83600201546107a89190611eff565b116107de5760405162461bcd60e51b81526004016102f9906020808252600490820152631dda1bdd60e21b604082015260600190565b6040516323b872dd60e01b81526001600160a01b037f000000000000000000000000000000000000000000000000000000000000000016906323b872dd9061082e90339030908990600401611e90565b6020604051808303816000875af115801561084d573d6000803e3d6000fd5b505050506040513d601f19601f820116820180604052508101906108719190611e67565b5050600581018390556004810180546001600160a01b031916331790555b50505050565b6040516353af180760e01b81523360048201526001600160a01b037f0000000000000000000000000000000000000000000000000000000000000000811660248301528a81166044830152606482018a90526084820189905260a4820188905260c4820187905260e4820186905263ffffffff8581166101048401526101248301859052831661014483015260009182917f000000000000000000000000000000000000000000000000000000000000000016906353af180790610164016020604051808303816000875af1158015610972573d6000803e3d6000fd5b505050506040513d601f19601f820116820180604052508101906109969190611eb4565b60405163b52c696d60e01b81526001600160a01b0380831660048301529192507f00000000000000000000000000000000000000000000000000000000000000009091169063b52c696d90602401600060405180830381600087803b1580156109fe57600080fd5b505af1158015610a12573d6000803e3d6000fd5b505050507f00000000000000000000000000000000000000000000000000000000000000006001600160a01b03166323b872dd337f00000000000000000000000000000000000000000000000000000000000000006001600160a01b031663cd3293de6040518163ffffffff1660e01b8152600401602060405180830381865afa158015610aa4573d6000803e3d6000fd5b505050506040513d601f19601f82011682018060405250810190610ac89190611eb4565b683635c9adc5dea000006040518463ffffffff1660e01b8152600401610af093929190611e90565b6020604051808303816000875af1158015610b0f573d6000803e3d6000fd5b505050506040513d601f19601f82011682018060405250810190610b339190611e67565b506040516323b872dd60e01b81526001600160a01b038c16906323b872dd90610b6490339085908e90600401611e90565b6020604051808303816000875af1158015610b83573d6000803e3d6000fd5b505050506040513d601f19601f82011682018060405250810190610ba79190611e67565b509a9950505050505050505050565b604051632748913b60e01b81526001600160a01b03848116600483015260009130917f00000000000000000000000000000000000000000000000000000000000000001690632748913b90602401602060405180830381865afa158015610c21573d6000803e3d6000fd5b505050506040513d601f19601f82011682018060405250810190610c459190611eb4565b6001600160a01b031614610c895760405162461bcd60e51b815260206004820152600b60248201526a6e6f74206f757220706f7360a81b60448201526064016102f9565b604051635861764160e11b81526004810183905284906000906001600160a01b0383169063b0c2ec82906024016020604051808303816000875af1158015610cd5573d6000803e3d6000fd5b505050506040513d601f19601f82011682018060405250810190610cf99190611f1e565b604051630167d12360e71b81526001600160a01b0388811660048301529192506000917f0000000000000000000000000000000000000000000000000000000000000000169063b3e89180906024016020604051808303816000875af1158015610d67573d6000803e3d6000fd5b505050506040513d601f19601f82011682018060405250810190610d8b9190611eb4565b60405163b52c696d60e01b81526001600160a01b0380831660048301529192507f00000000000000000000000000000000000000000000000000000000000000009091169063b52c696d90602401600060405180830381600087803b158015610df357600080fd5b505af1158015610e07573d6000803e3d6000fd5b50505050826001600160a01b031663d8dfeb456040518163ffffffff1660e01b81526004016020604051808303816000875af1158015610e4b573d6000803e3d6000fd5b505050506040513d601f19601f82011682018060405250810190610e6f9190611eb4565b6001600160a01b03166323b872dd3383896040518463ffffffff1660e01b8152600401610e9e93929190611e90565b6020604051808303816000875af1158015610ebd573d6000803e3d6000fd5b505050506040513d601f19601f82011682018060405250810190610ee19190611e67565b50806001600160a01b031663aee1a95933856001600160a01b031663a035b1fe6040518163ffffffff1660e01b81526004016020604051808303816000875af1158015610f32573d6000803e3d6000fd5b505050506040513d601f19601f82011682018060405250810190610f569190611f1e565b6040516001600160e01b031960e085901b1681526001600160a01b039092166004830152602482015260448101859052606481018990526084810188905260a401600060405180830381600087803b158015610fb157600080fd5b505af1158015610fc5573d6000803e3d6000fd5b50929998505050505050505050565b600080839050806001600160a01b031663d8dfeb456040518163ffffffff1660e01b81526004016020604051808303816000875af115801561101a573d6000803e3d6000fd5b505050506040513d601f19601f8201168201806040525081019061103e9190611eb4565b6001600160a01b03166323b872dd3330866040518463ffffffff1660e01b815260040161106d93929190611e90565b6020604051808303816000875af115801561108c573d6000803e3d6000fd5b505050506040513d601f19601f820116820180604052508101906110b09190611e67565b5060008080549050905060006040518060c00160405280336001600160a01b03168152602001846001600160a01b03168152602001868152602001846001600160a01b031663f3f480d96040518163ffffffff1660e01b81526004016020604051808303816000875af115801561112b573d6000803e3d6000fd5b505050506040513d601f19601f8201168201806040525081019061114f9190611f1e565b6111599042611ee7565b815260006020808301829052604092830182905284546001808201875595835291819020845160069093020180546001600160a01b03199081166001600160a01b03948516178255918501519581018054831696841696909617909555838301516002860155606084015160038601556080840151600480870180549093169184169190911790915560a090930151600590940193909355516342d0204160e01b8152908101869052908316906342d0204190602401600060405180830381600087803b15801561122957600080fd5b505af115801561123d573d6000803e3d6000fd5b505060408051878152602081018590526001600160a01b03861693503392507fc4b384b2c5ca32c8e77081f4083be594a1ea9ba34f208a9f9a458f70608585f5910160405180910390a3949350505050565b6000818154811061129f57600080fd5b60009182526020909120600690910201805460018201546002830154600384015460048501546005909501546001600160a01b039485169650928416949193909291169086565b600080600084815481106112fc576112fc611e51565b6000918252602090912060069091020180549091506001600160a01b031661132357600080fd5b6040805160c08101825282546001600160a01b0390811682526001840154811660208301529181018590526003830154606082015260048301549091166080820152600282015460058301546000929160a0830191611383908890611eff565b61138d9190611f37565b81525090508060a001518260050160008282546113aa9190611f59565b909155505060408101516002830180546000906113c8908490611f59565b9091555050600182015460408051632eaf9f1d60e21b815290516000926001600160a01b03169163babe7c74916004808301926020929190829003018187875af115801561141a573d6000803e3d6000fd5b505050506040513d601f19601f8201168201806040525081019061143e9190611f1e565b9050808360020154101561145157600080fd5b808260400151101561146257600080fd5b600080546001808201835591805283517f290decd9548b62a8d60345a988386fc84ba6bc95484008f6362f93160ef3e5636006830290810180546001600160a01b03199081166001600160a01b03948516179091556020808801517f290decd9548b62a8d60345a988386fc84ba6bc95484008f6362f93160ef3e5648401805484169186169190911790556040808901517f290decd9548b62a8d60345a988386fc84ba6bc95484008f6362f93160ef3e56585015560608901517f290decd9548b62a8d60345a988386fc84ba6bc95484008f6362f93160ef3e56685015560808901517f290decd9548b62a8d60345a988386fc84ba6bc95484008f6362f93160ef3e567850180549094169086161790925560a08801517f290decd9548b62a8d60345a988386fc84ba6bc95484008f6362f93160ef3e56890930192909255938701548754600289015486519081529283018c9052939490831693909216917fc4b384b2c5ca32c8e77081f4083be594a1ea9ba34f208a9f9a458f70608585f5910160405180910390a382602001516001600160a01b031683600001516001600160a01b03167fc4b384b2c5ca32c8e77081f4083be594a1ea9ba34f208a9f9a458f70608585f5856040015184604051611646929190918252602082015260400190565b60405180910390a39695505050505050565b6000426000838154811061166e5761166e611e51565b906000526020600020906006020160030154119050919050565b60006116b3600083815481106116a0576116a0611e51565b9060005260206000209060060201611cbb565b92915050565b60007f00000000000000000000000000000000000000000000000000000000000000006001600160a01b031663cd3293de6040518163ffffffff1660e01b8152600401602060405180830381865afa158015611719573d6000803e3d6000fd5b505050506040513d601f19601f8201168201806040525081019061173d9190611eb4565b905090565b600080828154811061175657611756611e51565b9060005260206000209060060201905060008160010160009054906101000a90046001600160a01b03166001600160a01b031663d8dfeb456040518163ffffffff1660e01b81526004016020604051808303816000875af11580156117bf573d6000803e3d6000fd5b505050506040513d601f19601f820116820180604052508101906117e39190611eb4565b905081600301544210156118305760405162461bcd60e51b81526020600482015260146024820152731c195c9a5bd9081a185cc81b9bdd08195b99195960621b60448201526064016102f9565b8154600283015460405163a9059cbb60e01b81526001600160a01b03928316600482015260248101919091529082169063a9059cbb906044016020604051808303816000875af1158015611888573d6000803e3d6000fd5b505050506040513d601f19601f820116820180604052508101906118ac9190611e67565b5060048201546000906001600160a01b0316156118d65760048301546001600160a01b03166118d8565b335b60018401546005850154600286015460405163707271b160e01b81526001600160a01b0380861660048301526024820193909352604481019190915292935060009283928392169063707271b1906064016060604051808303816000875af1158015611948573d6000803e3d6000fd5b505050506040513d601f19601f8201168201806040525081019061196c9190611f70565b9250925092508560050154831015611a3957600486015460058701546001600160a01b037f000000000000000000000000000000000000000000000000000000000000000081169263a9059cbb929116906119c8908790611f59565b6040516001600160e01b031960e085901b1681526001600160a01b03909216600483015260248201526044016020604051808303816000875af1158015611a13573d6000803e3d6000fd5b505050506040513d601f19601f82011682018060405250810190611a379190611e67565b505b6000620f4240611a4b614e2085611eff565b611a559190611f37565b90506001600160a01b037f0000000000000000000000000000000000000000000000000000000000000000166361f3d11085611a918685611ee7565b611a9b9190611f59565b6040518263ffffffff1660e01b8152600401611ab991815260200190565b600060405180830381600087803b158015611ad357600080fd5b505af1158015611ae7573d6000803e3d6000fd5b5050885460405163a9059cbb60e01b81526001600160a01b039182166004820152602481018590527f0000000000000000000000000000000000000000000000000000000000000000909116925063a9059cbb91506044016020604051808303816000875af1158015611b5e573d6000803e3d6000fd5b505050506040513d601f19601f82011682018060405250810190611b829190611e67565b506040516313980c6b60e31b81526004810184905263ffffffff831660248201527f00000000000000000000000000000000000000000000000000000000000000006001600160a01b031690639cc0635890604401600060405180830381600087803b158015611bf157600080fd5b505af1158015611c05573d6000803e3d6000fd5b505050506001870154600588015460408051918252602082018b90526001600160a01b03909216917ff7bf51234e6ca827a69443267d342998768b8e753f1ec6e1fd72d70714443b16910160405180910390a260008881548110611c6b57611c6b611e51565b60009182526020822060069091020180546001600160a01b031990811682556001820180548216905560028201839055600382018390556004820180549091169055600501555050505050505050565b60006103e882600501546103ed611cd29190611eff565b6116b39190611f37565b600060208284031215611cee57600080fd5b5035919050565b600080600060608486031215611d0a57600080fd5b505081359360208301359350604090920135919050565b6001600160a01b038116811461028657600080fd5b63ffffffff8116811461028657600080fd5b60008060008060008060008060006101208a8c031215611d6757600080fd5b8935611d7281611d21565b985060208a0135975060408a0135965060608a0135955060808a0135945060a08a0135935060c08a0135611da581611d36565b925060e08a013591506101008a0135611dbd81611d36565b809150509295985092959850929598565b600080600060608486031215611de357600080fd5b8335611dee81611d21565b95602085013595506040909401359392505050565b60008060408385031215611e1657600080fd5b8235611e2181611d21565b946020939093013593505050565b60008060408385031215611e4257600080fd5b50508035926020909101359150565b634e487b7160e01b600052603260045260246000fd5b600060208284031215611e7957600080fd5b81518015158114611e8957600080fd5b9392505050565b6001600160a01b039384168152919092166020820152604081019190915260600190565b600060208284031215611ec657600080fd5b8151611e8981611d21565b634e487b7160e01b600052601160045260246000fd5b60008219821115611efa57611efa611ed1565b500190565b6000816000190483118215151615611f1957611f19611ed1565b500290565b600060208284031215611f3057600080fd5b5051919050565b600082611f5457634e487b7160e01b600052601260045260246000fd5b500490565b600082821015611f6b57611f6b611ed1565b500390565b600080600060608486031215611f8557600080fd5b83519250602084015191506040840151611f9e81611d36565b80915050925092509256fea264697066735822122075cc113887d032a8ec78868e8cab73274cbe04d6db626425d45ffe379b79088864736f6c634300080d0033",
  "devdoc": {
    "kind": "dev",
    "methods": {
      "bid(uint256,uint256,uint256)": {
        "params": {
          "_bidAmountZCHF": "how much to bid for the collateral of this challenge (dec 18)",
          "_challengeNumber": "index of the challenge in the challenges array"
        }
      },
      "end(uint256)": {
        "params": {
          "_challengeNumber": "number of the challenge in challenge-array"
        }
      },
      "launchChallenge(address,uint256)": {
        "params": {
          "_collateralAmount": "size of the collateral we want to challenge (dec 18)",
          "_positionAddr": "address of the position we want to challenge"
        },
        "returns": {
          "_0": "index of the challenge in challenge-array"
        }
      },
      "openPosition(address,uint256,uint256,uint256,uint256,uint256,uint32,uint256,uint32)": {
        "params": {
          "_challengePeriod": "challenge period. Longer for less liquid collateral.",
          "_collateral": "address of collateral token",
          "_duration": "position tenor in unit of timestamp (seconds) from 'now'",
          "_initialCollateral": "amount of initial collateral to be deposited",
          "_initialLimit": "maximal amount of ZCHF that can be minted by the position owner",
          "_liqPrice": "Liquidation price (dec18) that together with the reserve and                           fees determines the minimal collateralization ratio",
          "_minCollateral": "minimum collateral required to prevent dust amounts",
          "_mintingFeePPM": "percentage minting fee that will be added to reserve,                           basis 1000_000",
          "_reservePPM": "percentage reserve amount that is added as the                           borrower's stake into reserve, basis 1000_000"
        },
        "returns": {
          "_0": "address of resulting position"
        }
      }
    },
    "version": 1
  },
  "userdoc": {
    "kind": "user",
    "methods": {
      "bid(uint256,uint256,uint256)": {
        "notice": "Post a bid (ZCHF amount) for an existing challenge (given collateral amount)"
      },
      "end(uint256)": {
        "notice": "Ends a challenge successfully after the auction period ended. Example: A challenged position had 1000 ABC tokens as collateral with a minting limit of 200,000 ZCHF, out of which 60,000 have been minted and thereof 15,000 used to buy reserve tokens. The challenger auctioned off 400 ABC tokens, challenging 40% of the position. The highest bid was 75,000 ZCHF, below the 40% * 200,000 = 80,000 ZCHF needed to avert the challenge. The reserve ratio of the position is 25%. Now, the following happens when calling this method: - 400 ABC from the position owner are transferred to the bidder - The challenger's 400 ABC are returned to the challenger - 40% of the reserve bought with the 15,000 ZCHF is sold off (approximately), yielding e.g. 5,600 ZCHF - 40% * 60,000 = 24,000 ZCHF are burned - 80,000 * 2% = 1600 ZCHF are given to the challenger as a reward - 40% * (100%-25%) * (200,000 - 60,000) = 42,000 are given to the position owner for selling off unused collateral - The remaining 75,000 + 5,600 - 1,600 - 24,000 - 42,000 = 13,000 ZCHF are sent to the reserve pool If the highest bid was only 60,000 ZCHF, then we would have had a shortfall of 2,000 ZCHF that would in the first priority be covered by the reserve and in the second priority by minting unbacked ZCHF, triggering a balance alert."
      },
      "launchChallenge(address,uint256)": {
        "notice": "Launch a challenge on a position"
      },
      "openPosition(address,uint256,uint256,uint256,uint256,uint256,uint32,uint256,uint32)": {
        "notice": "open a collateralized loan position"
      }
    },
    "notice": "A hub for creating collateralized minting positions for a given collateral.",
    "version": 1
  },
  "storageLayout": {
    "storage": [
      {
        "astId": 510,
        "contract": "contracts/MintingHub.sol:MintingHub",
        "label": "challenges",
        "offset": 0,
        "slot": "0",
        "type": "t_array(t_struct(Challenge)524_storage)dyn_storage"
      }
    ],
    "types": {
      "t_address": {
        "encoding": "inplace",
        "label": "address",
        "numberOfBytes": "20"
      },
      "t_array(t_struct(Challenge)524_storage)dyn_storage": {
        "base": "t_struct(Challenge)524_storage",
        "encoding": "dynamic_array",
        "label": "struct MintingHub.Challenge[]",
        "numberOfBytes": "32"
      },
      "t_contract(IPosition)330": {
        "encoding": "inplace",
        "label": "contract IPosition",
        "numberOfBytes": "20"
      },
      "t_struct(Challenge)524_storage": {
        "encoding": "inplace",
        "label": "struct MintingHub.Challenge",
        "members": [
          {
            "astId": 512,
            "contract": "contracts/MintingHub.sol:MintingHub",
            "label": "challenger",
            "offset": 0,
            "slot": "0",
            "type": "t_address"
          },
          {
            "astId": 515,
            "contract": "contracts/MintingHub.sol:MintingHub",
            "label": "position",
            "offset": 0,
            "slot": "1",
            "type": "t_contract(IPosition)330"
          },
          {
            "astId": 517,
            "contract": "contracts/MintingHub.sol:MintingHub",
            "label": "size",
            "offset": 0,
            "slot": "2",
            "type": "t_uint256"
          },
          {
            "astId": 519,
            "contract": "contracts/MintingHub.sol:MintingHub",
            "label": "end",
            "offset": 0,
            "slot": "3",
            "type": "t_uint256"
          },
          {
            "astId": 521,
            "contract": "contracts/MintingHub.sol:MintingHub",
            "label": "bidder",
            "offset": 0,
            "slot": "4",
            "type": "t_address"
          },
          {
            "astId": 523,
            "contract": "contracts/MintingHub.sol:MintingHub",
            "label": "bid",
            "offset": 0,
            "slot": "5",
            "type": "t_uint256"
          }
        ],
        "numberOfBytes": "192"
      },
      "t_uint256": {
        "encoding": "inplace",
        "label": "uint256",
        "numberOfBytes": "32"
      }
    }
  }
}