{
    "address": "0xB6d3b7d819cDFf7dC6838349314D8d40C284B117",
    "abi": [
        {
            "inputs": [],
            "stateMutability": "nonpayable",
            "type": "constructor"
        },
        {
            "anonymous": false,
            "inputs": [
                {
                    "indexed": true,
                    "internalType": "address",
                    "name": "owner",
                    "type": "address"
                },
                {
                    "indexed": true,
                    "internalType": "address",
                    "name": "spender",
                    "type": "address"
                },
                {
                    "indexed": false,
                    "internalType": "uint256",
                    "name": "value",
                    "type": "uint256"
                }
            ],
            "name": "Approval",
            "type": "event"
        },
        {
            "anonymous": false,
            "inputs": [
                {
                    "indexed": true,
                    "internalType": "address",
                    "name": "from",
                    "type": "address"
                },
                {
                    "indexed": true,
                    "internalType": "address",
                    "name": "to",
                    "type": "address"
                },
                {
                    "indexed": false,
                    "internalType": "uint256",
                    "name": "value",
                    "type": "uint256"
                }
            ],
            "name": "Transfer",
            "type": "event"
        },
        {
            "inputs": [
                {
                    "internalType": "address",
                    "name": "owner",
                    "type": "address"
                },
                {
                    "internalType": "address",
                    "name": "spender",
                    "type": "address"
                }
            ],
            "name": "allowance",
            "outputs": [
                {
                    "internalType": "uint256",
                    "name": "",
                    "type": "uint256"
                }
            ],
            "stateMutability": "view",
            "type": "function"
        },
        {
            "inputs": [
                {
                    "internalType": "address",
                    "name": "spender",
                    "type": "address"
                },
                {
                    "internalType": "uint256",
                    "name": "value",
                    "type": "uint256"
                }
            ],
            "name": "approve",
            "outputs": [
                {
                    "internalType": "bool",
                    "name": "",
                    "type": "bool"
                }
            ],
            "stateMutability": "nonpayable",
            "type": "function"
        },
        {
            "inputs": [
                {
                    "internalType": "address",
                    "name": "account",
                    "type": "address"
                }
            ],
            "name": "balanceOf",
            "outputs": [
                {
                    "internalType": "uint256",
                    "name": "",
                    "type": "uint256"
                }
            ],
            "stateMutability": "view",
            "type": "function"
        },
        {
            "inputs": [],
            "name": "decimals",
            "outputs": [
                {
                    "internalType": "uint8",
                    "name": "",
                    "type": "uint8"
                }
            ],
            "stateMutability": "view",
            "type": "function"
        },
        {
            "inputs": [
                {
                    "internalType": "address",
                    "name": "_account",
                    "type": "address"
                },
                {
                    "internalType": "uint256",
                    "name": "_amount",
                    "type": "uint256"
                }
            ],
            "name": "mint",
            "outputs": [],
            "stateMutability": "nonpayable",
            "type": "function"
        },
        {
            "inputs": [],
            "name": "name",
            "outputs": [
                {
                    "internalType": "string",
                    "name": "",
                    "type": "string"
                }
            ],
            "stateMutability": "pure",
            "type": "function"
        },
        {
            "inputs": [],
            "name": "symbol",
            "outputs": [
                {
                    "internalType": "string",
                    "name": "",
                    "type": "string"
                }
            ],
            "stateMutability": "pure",
            "type": "function"
        },
        {
            "inputs": [],
            "name": "totalSupply",
            "outputs": [
                {
                    "internalType": "uint256",
                    "name": "",
                    "type": "uint256"
                }
            ],
            "stateMutability": "view",
            "type": "function"
        },
        {
            "inputs": [
                {
                    "internalType": "address",
                    "name": "recipient",
                    "type": "address"
                },
                {
                    "internalType": "uint256",
                    "name": "amount",
                    "type": "uint256"
                }
            ],
            "name": "transfer",
            "outputs": [
                {
                    "internalType": "bool",
                    "name": "",
                    "type": "bool"
                }
            ],
            "stateMutability": "nonpayable",
            "type": "function"
        },
        {
            "inputs": [
                {
                    "internalType": "address",
                    "name": "recipient",
                    "type": "address"
                },
                {
                    "internalType": "uint256",
                    "name": "amount",
                    "type": "uint256"
                },
                {
                    "internalType": "bytes",
                    "name": "data",
                    "type": "bytes"
                }
            ],
            "name": "transferAndCall",
            "outputs": [
                {
                    "internalType": "bool",
                    "name": "",
                    "type": "bool"
                }
            ],
            "stateMutability": "nonpayable",
            "type": "function"
        },
        {
            "inputs": [
                {
                    "internalType": "address",
                    "name": "sender",
                    "type": "address"
                },
                {
                    "internalType": "address",
                    "name": "recipient",
                    "type": "address"
                },
                {
                    "internalType": "uint256",
                    "name": "amount",
                    "type": "uint256"
                }
            ],
            "name": "transferFrom",
            "outputs": [
                {
                    "internalType": "bool",
                    "name": "",
                    "type": "bool"
                }
            ],
            "stateMutability": "nonpayable",
            "type": "function"
        }
    ],
    "transactionHash": "0x07a63baa0496e92056d650b1a951e958d318df7dc4b9e82049bf9c6a568e1ead",
    "args": [],
    "numDeployments": 1,
    "solcInputHash": "6c496beb1d81759105068f0146200159",
    "bytecode": "0x60a060405234801561001057600080fd5b50601260805260805161083e6100316000396000610138015261083e6000f3fe608060405234801561001057600080fd5b50600436106100a95760003560e01c80634000aea0116100715780634000aea01461016c57806340c10f191461017f57806370a082311461019457806395d89b41146101bd578063a9059cbb146101dd578063dd62ed3e146101f057600080fd5b806306fdde03146100ae578063095ea7b3146100eb57806318160ddd1461010e57806323b872dd14610120578063313ce56714610133575b600080fd5b60408051808201909152600f81526e2c21a4231026b7b1b5902a37b5b2b760891b60208201525b6040516100e291906105a6565b60405180910390f35b6100fe6100f9366004610617565b610229565b60405190151581526020016100e2565b6002545b6040519081526020016100e2565b6100fe61012e366004610641565b61023f565b61015a7f000000000000000000000000000000000000000000000000000000000000000081565b60405160ff90911681526020016100e2565b6100fe61017a36600461067d565b6102e6565b61019261018d366004610617565b61037c565b005b6101126101a2366004610704565b6001600160a01b031660009081526020819052604090205490565b6040805180820190915260048152632c21a42360e11b60208201526100d5565b6100fe6101eb366004610617565b61038a565b6101126101fe366004610726565b6001600160a01b03918216600090815260016020908152604080832093909416825291909152205490565b6000610236338484610397565b50600192915050565b600061024c8484846103f9565b6001600160a01b0384166000908152600160209081526040808320338452909152902054600160ff1b8110156102db57828110156102c75760405162461bcd60e51b81526020600482015260136024820152720c2e0e0e4deecc2d840dcdee840cadcdeeaced606b1b60448201526064015b60405180910390fd5b6102db85336102d6868561076f565b610397565b506001949350505050565b6000806102f3868661038a565b9050801561037357604051635260769b60e11b81526001600160a01b0387169063a4c0ed369061032d903390899089908990600401610786565b6020604051808303816000875af115801561034c573d6000803e3d6000fd5b505050506040513d601f19601f8201168201806040525081019061037091906107ce565b90505b95945050505050565b610386828261050a565b5050565b60006102363384846103f9565b6001600160a01b0383811660008181526001602090815260408083209487168084529482529182902085905590518481527f8c5be1e5ebec7d5bd14f71427d1e84f3dd0314c0f7b2291e5b200ac8c7c3b92591015b60405180910390a3505050565b6001600160a01b03821661040c57600080fd5b6001600160a01b0383166000908152602081905260409020548111156104695760405162461bcd60e51b81526020600482015260126024820152710c4c2d8c2dcc6ca40dcdee840cadcdeeaced60731b60448201526064016102be565b6001600160a01b0383166000908152602081905260408120805483929061049190849061076f565b90915550506001600160a01b038216600090815260208190526040812080548392906104be9084906107f0565b92505081905550816001600160a01b0316836001600160a01b03167fddf252ad1be2c89b69c2b068fc378daa952ba7f163c4a11628f55a4df523b3ef836040516103ec91815260200190565b6001600160a01b03821661051d57600080fd5b806002600082825461052f91906107f0565b90915550506001600160a01b0382166000908152602081905260408120805483929061055c9084906107f0565b90915550506040518181526001600160a01b038316906000907fddf252ad1be2c89b69c2b068fc378daa952ba7f163c4a11628f55a4df523b3ef9060200160405180910390a35050565b600060208083528351808285015260005b818110156105d3578581018301518582016040015282016105b7565b818111156105e5576000604083870101525b50601f01601f1916929092016040019392505050565b80356001600160a01b038116811461061257600080fd5b919050565b6000806040838503121561062a57600080fd5b610633836105fb565b946020939093013593505050565b60008060006060848603121561065657600080fd5b61065f846105fb565b925061066d602085016105fb565b9150604084013590509250925092565b6000806000806060858703121561069357600080fd5b61069c856105fb565b935060208501359250604085013567ffffffffffffffff808211156106c057600080fd5b818701915087601f8301126106d457600080fd5b8135818111156106e357600080fd5b8860208285010111156106f557600080fd5b95989497505060200194505050565b60006020828403121561071657600080fd5b61071f826105fb565b9392505050565b6000806040838503121561073957600080fd5b610742836105fb565b9150610750602084016105fb565b90509250929050565b634e487b7160e01b600052601160045260246000fd5b60008282101561078157610781610759565b500390565b6001600160a01b0385168152602081018490526060604082018190528101829052818360808301376000818301608090810191909152601f909201601f191601019392505050565b6000602082840312156107e057600080fd5b8151801515811461071f57600080fd5b6000821982111561080357610803610759565b50019056fea26469706673582212201d5a8e840f8ed309b9dddb56fc39907c61124663614349b64d328a28ffbc22ad64736f6c634300080d0033",
    "devdoc": {
        "kind": "dev",
        "methods": {
            "allowance(address,address)": {
                "details": "See `IERC20.allowance`."
            },
            "approve(address,uint256)": {
                "details": "See `IERC20.approve`. Requirements: - `spender` cannot be the zero address."
            },
            "balanceOf(address)": {
                "details": "See `IERC20.balanceOf`."
            },
            "totalSupply()": {
                "details": "See `IERC20.totalSupply`."
            },
            "transfer(address,uint256)": {
                "details": "See `IERC20.transfer`. Requirements: - `recipient` cannot be the zero address. - the caller must have a balance of at least `amount`."
            },
            "transferFrom(address,address,uint256)": {
                "details": "See `IERC20.transferFrom`. Emits an `Approval` event indicating the updated allowance. This is not required by the EIP. See the note at the beginning of `ERC20`; Requirements: - `sender` and `recipient` cannot be the zero address. - `sender` must have a balance of at least `value`. - the caller must have allowance for `sender`'s tokens of at least `amount`."
            }
        },
        "version": 1
    },
    "userdoc": {
        "kind": "user",
        "methods": {},
        "version": 1
    },
    "storageLayout": {
        "storage": [
            {
                "astId": 29,
                "contract": "contracts/mocks/MockXCHFToken.sol:MockXCHFToken",
                "label": "_balances",
                "offset": 0,
                "slot": "0",
                "type": "t_mapping(t_address,t_uint256)"
            },
            {
                "astId": 35,
                "contract": "contracts/mocks/MockXCHFToken.sol:MockXCHFToken",
                "label": "_allowances",
                "offset": 0,
                "slot": "1",
                "type": "t_mapping(t_address,t_mapping(t_address,t_uint256))"
            },
            {
                "astId": 37,
                "contract": "contracts/mocks/MockXCHFToken.sol:MockXCHFToken",
                "label": "_totalSupply",
                "offset": 0,
                "slot": "2",
                "type": "t_uint256"
            }
        ],
        "types": {
            "t_address": {
                "encoding": "inplace",
                "label": "address",
                "numberOfBytes": "20"
            },
            "t_mapping(t_address,t_mapping(t_address,t_uint256))": {
                "encoding": "mapping",
                "key": "t_address",
                "label": "mapping(address => mapping(address => uint256))",
                "numberOfBytes": "32",
                "value": "t_mapping(t_address,t_uint256)"
            },
            "t_mapping(t_address,t_uint256)": {
                "encoding": "mapping",
                "key": "t_address",
                "label": "mapping(address => uint256)",
                "numberOfBytes": "32",
                "value": "t_uint256"
            },
            "t_uint256": {
                "encoding": "inplace",
                "label": "uint256",
                "numberOfBytes": "32"
            }
        }
    }
}