{
    "address": "0xC5Bdf340EE520965b0B8BeAA85B6bDbf90d5b277",
    "abi": [
        {
            "inputs": [],
            "stateMutability": "nonpayable",
            "type": "constructor"
        },
        {
            "anonymous": false,
            "inputs": [
                {
                    "indexed": true,
                    "internalType": "address",
                    "name": "owner",
                    "type": "address"
                },
                {
                    "indexed": true,
                    "internalType": "address",
                    "name": "spender",
                    "type": "address"
                },
                {
                    "indexed": false,
                    "internalType": "uint256",
                    "name": "value",
                    "type": "uint256"
                }
            ],
            "name": "Approval",
            "type": "event"
        },
        {
            "anonymous": false,
            "inputs": [
                {
                    "indexed": true,
                    "internalType": "address",
                    "name": "from",
                    "type": "address"
                },
                {
                    "indexed": true,
                    "internalType": "address",
                    "name": "to",
                    "type": "address"
                },
                {
                    "indexed": false,
                    "internalType": "uint256",
                    "name": "value",
                    "type": "uint256"
                }
            ],
            "name": "Transfer",
            "type": "event"
        },
        {
            "inputs": [
                {
                    "internalType": "address",
                    "name": "owner",
                    "type": "address"
                },
                {
                    "internalType": "address",
                    "name": "spender",
                    "type": "address"
                }
            ],
            "name": "allowance",
            "outputs": [
                {
                    "internalType": "uint256",
                    "name": "",
                    "type": "uint256"
                }
            ],
            "stateMutability": "view",
            "type": "function"
        },
        {
            "inputs": [
                {
                    "internalType": "address",
                    "name": "spender",
                    "type": "address"
                },
                {
                    "internalType": "uint256",
                    "name": "value",
                    "type": "uint256"
                }
            ],
            "name": "approve",
            "outputs": [
                {
                    "internalType": "bool",
                    "name": "",
                    "type": "bool"
                }
            ],
            "stateMutability": "nonpayable",
            "type": "function"
        },
        {
            "inputs": [
                {
                    "internalType": "address",
                    "name": "account",
                    "type": "address"
                }
            ],
            "name": "balanceOf",
            "outputs": [
                {
                    "internalType": "uint256",
                    "name": "",
                    "type": "uint256"
                }
            ],
            "stateMutability": "view",
            "type": "function"
        },
        {
            "inputs": [],
            "name": "decimals",
            "outputs": [
                {
                    "internalType": "uint8",
                    "name": "",
                    "type": "uint8"
                }
            ],
            "stateMutability": "view",
            "type": "function"
        },
        {
            "inputs": [
                {
                    "internalType": "address",
                    "name": "_account",
                    "type": "address"
                },
                {
                    "internalType": "uint256",
                    "name": "_amount",
                    "type": "uint256"
                }
            ],
            "name": "mint",
            "outputs": [],
            "stateMutability": "nonpayable",
            "type": "function"
        },
        {
            "inputs": [],
            "name": "name",
            "outputs": [
                {
                    "internalType": "string",
                    "name": "",
                    "type": "string"
                }
            ],
            "stateMutability": "pure",
            "type": "function"
        },
        {
            "inputs": [],
            "name": "symbol",
            "outputs": [
                {
                    "internalType": "string",
                    "name": "",
                    "type": "string"
                }
            ],
            "stateMutability": "pure",
            "type": "function"
        },
        {
            "inputs": [],
            "name": "totalSupply",
            "outputs": [
                {
                    "internalType": "uint256",
                    "name": "",
                    "type": "uint256"
                }
            ],
            "stateMutability": "view",
            "type": "function"
        },
        {
            "inputs": [
                {
                    "internalType": "address",
                    "name": "recipient",
                    "type": "address"
                },
                {
                    "internalType": "uint256",
                    "name": "amount",
                    "type": "uint256"
                }
            ],
            "name": "transfer",
            "outputs": [
                {
                    "internalType": "bool",
                    "name": "",
                    "type": "bool"
                }
            ],
            "stateMutability": "nonpayable",
            "type": "function"
        },
        {
            "inputs": [
                {
                    "internalType": "address",
                    "name": "recipient",
                    "type": "address"
                },
                {
                    "internalType": "uint256",
                    "name": "amount",
                    "type": "uint256"
                },
                {
                    "internalType": "bytes",
                    "name": "data",
                    "type": "bytes"
                }
            ],
            "name": "transferAndCall",
            "outputs": [
                {
                    "internalType": "bool",
                    "name": "",
                    "type": "bool"
                }
            ],
            "stateMutability": "nonpayable",
            "type": "function"
        },
        {
            "inputs": [
                {
                    "internalType": "address",
                    "name": "sender",
                    "type": "address"
                },
                {
                    "internalType": "address",
                    "name": "recipient",
                    "type": "address"
                },
                {
                    "internalType": "uint256",
                    "name": "amount",
                    "type": "uint256"
                }
            ],
            "name": "transferFrom",
            "outputs": [
                {
                    "internalType": "bool",
                    "name": "",
                    "type": "bool"
                }
            ],
            "stateMutability": "nonpayable",
            "type": "function"
        }
    ],
    "transactionHash": "0xc120fd59adbca9fc0364d6ee3cc1e5ecb4557c47ed26fc41e8377be4a00a8a60",
    "args": [],
    "numDeployments": 1,
    "solcInputHash": "6c496beb1d81759105068f0146200159",
    "bytecode": "0x60a060405234801561001057600080fd5b50601260805260805161084b6100316000396000610146015261084b6000f3fe608060405234801561001057600080fd5b50600436106100a95760003560e01c80634000aea0116100715780634000aea01461017a57806340c10f191461018d57806370a08231146101a257806395d89b41146101cb578063a9059cbb146101ea578063dd62ed3e146101fd57600080fd5b806306fdde03146100ae578063095ea7b3146100f957806318160ddd1461011c57806323b872dd1461012e578063313ce56714610141575b600080fd5b60408051808201909152601781527f564f4c20766f6c6174696c65206d6f636b20746f6b656e00000000000000000060208201525b6040516100f091906105b3565b60405180910390f35b61010c610107366004610624565b610236565b60405190151581526020016100f0565b6002545b6040519081526020016100f0565b61010c61013c36600461064e565b61024c565b6101687f000000000000000000000000000000000000000000000000000000000000000081565b60405160ff90911681526020016100f0565b61010c61018836600461068a565b6102f3565b6101a061019b366004610624565b610389565b005b6101206101b0366004610711565b6001600160a01b031660009081526020819052604090205490565b6040805180820190915260038152621593d360ea1b60208201526100e3565b61010c6101f8366004610624565b610397565b61012061020b366004610733565b6001600160a01b03918216600090815260016020908152604080832093909416825291909152205490565b60006102433384846103a4565b50600192915050565b6000610259848484610406565b6001600160a01b0384166000908152600160209081526040808320338452909152902054600160ff1b8110156102e857828110156102d45760405162461bcd60e51b81526020600482015260136024820152720c2e0e0e4deecc2d840dcdee840cadcdeeaced606b1b60448201526064015b60405180910390fd5b6102e885336102e3868561077c565b6103a4565b506001949350505050565b6000806103008686610397565b9050801561038057604051635260769b60e11b81526001600160a01b0387169063a4c0ed369061033a903390899089908990600401610793565b6020604051808303816000875af1158015610359573d6000803e3d6000fd5b505050506040513d601f19601f8201168201806040525081019061037d91906107db565b90505b95945050505050565b6103938282610517565b5050565b6000610243338484610406565b6001600160a01b0383811660008181526001602090815260408083209487168084529482529182902085905590518481527f8c5be1e5ebec7d5bd14f71427d1e84f3dd0314c0f7b2291e5b200ac8c7c3b92591015b60405180910390a3505050565b6001600160a01b03821661041957600080fd5b6001600160a01b0383166000908152602081905260409020548111156104765760405162461bcd60e51b81526020600482015260126024820152710c4c2d8c2dcc6ca40dcdee840cadcdeeaced60731b60448201526064016102cb565b6001600160a01b0383166000908152602081905260408120805483929061049e90849061077c565b90915550506001600160a01b038216600090815260208190526040812080548392906104cb9084906107fd565b92505081905550816001600160a01b0316836001600160a01b03167fddf252ad1be2c89b69c2b068fc378daa952ba7f163c4a11628f55a4df523b3ef836040516103f991815260200190565b6001600160a01b03821661052a57600080fd5b806002600082825461053c91906107fd565b90915550506001600160a01b038216600090815260208190526040812080548392906105699084906107fd565b90915550506040518181526001600160a01b038316906000907fddf252ad1be2c89b69c2b068fc378daa952ba7f163c4a11628f55a4df523b3ef9060200160405180910390a35050565b600060208083528351808285015260005b818110156105e0578581018301518582016040015282016105c4565b818111156105f2576000604083870101525b50601f01601f1916929092016040019392505050565b80356001600160a01b038116811461061f57600080fd5b919050565b6000806040838503121561063757600080fd5b61064083610608565b946020939093013593505050565b60008060006060848603121561066357600080fd5b61066c84610608565b925061067a60208501610608565b9150604084013590509250925092565b600080600080606085870312156106a057600080fd5b6106a985610608565b935060208501359250604085013567ffffffffffffffff808211156106cd57600080fd5b818701915087601f8301126106e157600080fd5b8135818111156106f057600080fd5b88602082850101111561070257600080fd5b95989497505060200194505050565b60006020828403121561072357600080fd5b61072c82610608565b9392505050565b6000806040838503121561074657600080fd5b61074f83610608565b915061075d60208401610608565b90509250929050565b634e487b7160e01b600052601160045260246000fd5b60008282101561078e5761078e610766565b500390565b6001600160a01b0385168152602081018490526060604082018190528101829052818360808301376000818301608090810191909152601f909201601f191601019392505050565b6000602082840312156107ed57600080fd5b8151801515811461072c57600080fd5b6000821982111561081057610810610766565b50019056fea2646970667358221220a1e3068fb21df57e6fada7b2f9a1e7a6ce8c3dfca8fa6c61af2000669641aae364736f6c634300080d0033",
    "devdoc": {
        "kind": "dev",
        "methods": {
            "allowance(address,address)": {
                "details": "See `IERC20.allowance`."
            },
            "approve(address,uint256)": {
                "details": "See `IERC20.approve`. Requirements: - `spender` cannot be the zero address."
            },
            "balanceOf(address)": {
                "details": "See `IERC20.balanceOf`."
            },
            "totalSupply()": {
                "details": "See `IERC20.totalSupply`."
            },
            "transfer(address,uint256)": {
                "details": "See `IERC20.transfer`. Requirements: - `recipient` cannot be the zero address. - the caller must have a balance of at least `amount`."
            },
            "transferFrom(address,address,uint256)": {
                "details": "See `IERC20.transferFrom`. Emits an `Approval` event indicating the updated allowance. This is not required by the EIP. See the note at the beginning of `ERC20`; Requirements: - `sender` and `recipient` cannot be the zero address. - `sender` must have a balance of at least `value`. - the caller must have allowance for `sender`'s tokens of at least `amount`."
            }
        },
        "version": 1
    },
    "userdoc": {
        "kind": "user",
        "methods": {},
        "version": 1
    },
    "storageLayout": {
        "storage": [
            {
                "astId": 29,
                "contract": "contracts/mocks/MockVOLToken.sol:MockVOLToken",
                "label": "_balances",
                "offset": 0,
                "slot": "0",
                "type": "t_mapping(t_address,t_uint256)"
            },
            {
                "astId": 35,
                "contract": "contracts/mocks/MockVOLToken.sol:MockVOLToken",
                "label": "_allowances",
                "offset": 0,
                "slot": "1",
                "type": "t_mapping(t_address,t_mapping(t_address,t_uint256))"
            },
            {
                "astId": 37,
                "contract": "contracts/mocks/MockVOLToken.sol:MockVOLToken",
                "label": "_totalSupply",
                "offset": 0,
                "slot": "2",
                "type": "t_uint256"
            }
        ],
        "types": {
            "t_address": {
                "encoding": "inplace",
                "label": "address",
                "numberOfBytes": "20"
            },
            "t_mapping(t_address,t_mapping(t_address,t_uint256))": {
                "encoding": "mapping",
                "key": "t_address",
                "label": "mapping(address => mapping(address => uint256))",
                "numberOfBytes": "32",
                "value": "t_mapping(t_address,t_uint256)"
            },
            "t_mapping(t_address,t_uint256)": {
                "encoding": "mapping",
                "key": "t_address",
                "label": "mapping(address => uint256)",
                "numberOfBytes": "32",
                "value": "t_uint256"
            },
            "t_uint256": {
                "encoding": "inplace",
                "label": "uint256",
                "numberOfBytes": "32"
            }
        }
    }
}