{
  "address": "0xE3d245a6B6d5e792f84E078Be0122139346439C3",
  "abi": [
    {
      "inputs": [
        {
          "internalType": "address",
          "name": "_existing",
          "type": "address"
        },
        {
          "internalType": "address",
          "name": "_zchf",
          "type": "address"
        },
        {
          "internalType": "address",
          "name": "_owner",
          "type": "address"
        },
        {
          "internalType": "uint256",
          "name": "_initialCol",
          "type": "uint256"
        },
        {
          "internalType": "uint256",
          "name": "_initialMint",
          "type": "uint256"
        }
      ],
      "name": "clonePosition",
      "outputs": [
        {
          "internalType": "address",
          "name": "",
          "type": "address"
        }
      ],
      "stateMutability": "nonpayable",
      "type": "function"
    },
    {
      "inputs": [
        {
          "internalType": "address",
          "name": "_owner",
          "type": "address"
        },
        {
          "internalType": "address",
          "name": "_zchf",
          "type": "address"
        },
        {
          "internalType": "address",
          "name": "_collateral",
          "type": "address"
        },
        {
          "internalType": "uint256",
          "name": "_minCollateral",
          "type": "uint256"
        },
        {
          "internalType": "uint256",
          "name": "_initialCollateral",
          "type": "uint256"
        },
        {
          "internalType": "uint256",
          "name": "_initialLimit",
          "type": "uint256"
        },
        {
          "internalType": "uint256",
          "name": "_duration",
          "type": "uint256"
        },
        {
          "internalType": "uint256",
          "name": "_challengePeriod",
          "type": "uint256"
        },
        {
          "internalType": "uint32",
          "name": "_mintingFeePPM",
          "type": "uint32"
        },
        {
          "internalType": "uint256",
          "name": "_liqPrice",
          "type": "uint256"
        },
        {
          "internalType": "uint32",
          "name": "_reserve",
          "type": "uint32"
        }
      ],
      "name": "createNewPosition",
      "outputs": [
        {
          "internalType": "address",
          "name": "",
          "type": "address"
        }
      ],
      "stateMutability": "nonpayable",
      "type": "function"
    }
  ],
  "transactionHash": "0xfbe19fc06595f795db213d188fa659aec4701a3f310a87772edafaf1f5fd2682",
  "args": [],
  "numDeployments": 1,
  "solcInputHash": "23f3044768f8f95e181e4d95b88161f9",
  "bytecode": "0x608060405234801561001057600080fd5b50612c26806100206000396000f3fe608060405234801561001057600080fd5b50600436106100365760003560e01c80632e292e8d1461003b57806353af18071461006a575b600080fd5b61004e6100493660046103fe565b61007d565b6040516001600160a01b03909116815260200160405180910390f35b61004e610078366004610472565b6102d8565b604051635861764160e11b815260048101829052600090869082906001600160a01b0383169063b0c2ec82906024016020604051808303816000875af11580156100cb573d6000803e3d6000fd5b505050506040513d601f19601f820116820180604052508101906100ef919061051a565b9050600061015d836001600160a01b03166346c715fa6040518163ffffffff1660e01b8152600401602060405180830381865afa158015610134573d6000803e3d6000fd5b505050506040513d601f19601f820116820180604052508101906101589190610533565b610387565b60405163d1a15ff160e01b81526001600160a01b0380831660048301526000602483018190526044830152608060648301526005608483015264636c6f6e6560d81b60a48301529192509089169063d1a15ff19060c401600060405180830381600087803b1580156101ce57600080fd5b505af11580156101e2573d6000803e3d6000fd5b50505050806001600160a01b031663aee1a95988856001600160a01b031663a035b1fe6040518163ffffffff1660e01b8152600401602060405180830381865afa158015610234573d6000803e3d6000fd5b505050506040513d601f19601f82011682018060405250810190610258919061051a565b6040516001600160e01b031960e085901b1681526001600160a01b039092166004830152602482015260448101859052606481018990526084810188905260a401600060405180830381600087803b1580156102b357600080fd5b505af11580156102c7573d6000803e3d6000fd5b50929b9a5050505050505050505050565b60008b338c8c8c8c8c8c8c8c8c8c6040516102f2906103d9565b6001600160a01b039c8d1681529a8c1660208c0152988b1660408b0152969099166060890152608088019490945260a087019290925260c086015260e085015261010084015263ffffffff9384166101208401526101408301529190911661016082015261018001604051809103906000f080158015610376573d6000803e3d6000fd5b509c9b505050505050505050505050565b6000808260601b9050604051733d602d80600a3d3981f3363d3d373d3d3d363d7360601b81528160148201526e5af43d82803e903d91602b57fd5bf360881b60288201526037816000f0949350505050565b6126998061055883390190565b6001600160a01b03811681146103fb57600080fd5b50565b600080600080600060a0868803121561041657600080fd5b8535610421816103e6565b94506020860135610431816103e6565b93506040860135610441816103e6565b94979396509394606081013594506080013592915050565b803563ffffffff8116811461046d57600080fd5b919050565b60008060008060008060008060008060006101608c8e03121561049457600080fd5b8b3561049f816103e6565b9a5060208c01356104af816103e6565b995060408c01356104bf816103e6565b985060608c0135975060808c0135965060a08c0135955060c08c0135945060e08c013593506104f16101008d01610459565b92506101208c013591506105086101408d01610459565b90509295989b509295989b9093969950565b60006020828403121561052c57600080fd5b5051919050565b60006020828403121561054557600080fd5b8151610550816103e6565b939250505056fe6101c06040523480156200001257600080fd5b5060405162002699380380620026998339810160408190526200003591620001fb565b8b6001600160a01b038116620000775760405162461bcd60e51b815260206004820152600360248201526203078360ec1b604482015260640160405180910390fd5b600080546001600160a01b0319166001600160a01b03831690811782556040519091907f8be0079c531659141344cd1fd0a4f28419497f9722a3daafe3b4186f6b6457e0908290a3503360e0523060c0526001600160a01b038b81166101005260018390558a81166101205289166101405263ffffffff8084166101805281166101a052878710156200010957600080fd5b6101608890526200011b8542620002ba565b60a052608084905262000130610e10620001a4565b600586905560c05161014051604080516001600160a01b0393841681528d84166020820152918316828201526060820185905251918e16917f591ede549d7e337ac63249acd2d7849532b0a686377bbf0b0cca6c8abd9552f29181900360800190a2505050505050505050505050620002e1565b6000620001b28242620002ba565b9050600454811115620001c55760048190555b5050565b80516001600160a01b0381168114620001e157600080fd5b919050565b805163ffffffff81168114620001e157600080fd5b6000806000806000806000806000806000806101808d8f0312156200021f57600080fd5b6200022a8d620001c9565b9b506200023a60208e01620001c9565b9a506200024a60408e01620001c9565b99506200025a60608e01620001c9565b985060808d0151975060a08d0151965060c08d0151955060e08d015194506101008d015193506200028f6101208e01620001e6565b92506101408d01519150620002a86101608e01620001e6565b90509295989b509295989b509295989b565b60008219821115620002dc57634e487b7160e01b600052601160045260246000fd5b500190565b60805160a05160c05160e05161010051610120516101405161016051610180516101a05161224062000459600039600081816102a301528181610560015281816110440152818161128e01528181611a5f0152611ba2015260008181610407015281816105b70152611bca01526000818161047001528181610b2601528181610e6601526114040152600081816104e50152818161078c01528181610a6401528181610f21015281816112100152818161154a01528181611799015261192a0152600081816104be015281816106400152818161089301528181610bbe01528181610fd8015281816113610152818161152201528181611a890152611bf101526000818161025101528181610c4d01528181610e2701526110fd015260008181610497015281816113a6015261165001526000818161034f01526114f40152600081816103280152818161097c01528181610afd01528181610c8c01528181610dae01526115ed0152600061053201526122406000f3fe608060405234801561001057600080fd5b50600436106101f05760003560e01c8063787a08a61161010f578063b0c2ec82116100a2578063d8dfeb4511610071578063d8dfeb45146104e0578063d9caed1214610507578063f2fde38b1461051a578063f3f480d91461052d57600080fd5b8063b0c2ec8214610458578063babe7c741461046b578063c45a015514610492578063c4d4803a146104b957600080fd5b8063a1362033116100de578063a136203314610402578063a4c0ed3614610429578063a4d66daf1461043c578063aee1a9591461044557600080fd5b8063787a08a6146103d45780638da5cb5b146103dd57806397fbdf08146103f0578063a035b1fe146103f957600080fd5b806340c10f19116101875780634f02c420116101565780634f02c420146103715780636f871cec1461037a578063707271b11461038d57806372bf079e146103c157600080fd5b806340c10f19146102fd57806342d02041146103105780634665096d1461032357806346c715fa1461034a57600080fd5b8063365a86fc116101c3578063365a86fc1461024c578063371fd8e61461028b5780633a7c29fb1461029e5780633e94e242146102da57600080fd5b806308262940146101f55780631bbea34c1461021b57806324e657fe14610230578063350c35e914610239575b600080fd5b610208610203366004611d2f565b610554565b6040519081526020015b60405180910390f35b61022e610229366004611da8565b610600565b005b61020860035481565b61022e610247366004611e57565b6109e0565b6102737f000000000000000000000000000000000000000000000000000000000000000081565b6040516001600160a01b039091168152602001610212565b61022e610299366004611e83565b610b5e565b6102c57f000000000000000000000000000000000000000000000000000000000000000081565b60405163ffffffff9091168152602001610212565b6102ed6102e8366004611e9c565b610c40565b6040519015158152602001610212565b61022e61030b366004611e57565b610d12565b61022e61031e366004611e83565b610e1c565b6102087f000000000000000000000000000000000000000000000000000000000000000081565b6102737f000000000000000000000000000000000000000000000000000000000000000081565b61020860025481565b61022e610388366004611ebe565b610ef1565b6103a061039b366004611eea565b6110ee565b60408051938452602084019290925263ffffffff1690820152606001610212565b61022e6103cf366004611e83565b6112b5565b61020860045481565b600054610273906001600160a01b031681565b610208610e1081565b61020860015481565b6102c57f000000000000000000000000000000000000000000000000000000000000000081565b6102ed610437366004611f1f565b611355565b61020860055481565b61022e610453366004611f6f565b61139b565b610208610466366004611e83565b6115ad565b6102087f000000000000000000000000000000000000000000000000000000000000000081565b6102737f000000000000000000000000000000000000000000000000000000000000000081565b6102737f000000000000000000000000000000000000000000000000000000000000000081565b6102737f000000000000000000000000000000000000000000000000000000000000000081565b61022e610515366004611fb3565b611759565b61022e610528366004611ff4565b61184d565b6102087f000000000000000000000000000000000000000000000000000000000000000081565b600080620f42406105857f000000000000000000000000000000000000000000000000000000000000000082612027565b6105959063ffffffff168661204c565b61059f919061206b565b905082156105ae5790506105fa565b620f42406105dc7f000000000000000000000000000000000000000000000000000000000000000082612027565b6105ec9063ffffffff168661204c565b6105f6919061206b565b9150505b92915050565b6002541561063e5760405162461bcd60e51b81526020600482015260066024820152651b5a5b9d195960d21b60448201526064015b60405180910390fd5b7f00000000000000000000000000000000000000000000000000000000000000006001600160a01b031663cd3293de6040518163ffffffff1660e01b8152600401602060405180830381865afa15801561069c573d6000803e3d6000fd5b505050506040513d601f19601f820116820180604052508101906106c0919061208d565b6001600160a01b0316635e1121cf3386866040518463ffffffff1660e01b81526004016106ef939291906120aa565b602060405180830381865afa15801561070c573d6000803e3d6000fd5b505050506040513d601f19601f820116820180604052508101906107309190612106565b61076c5760405162461bcd60e51b815260206004820152600d60248201526c1b9bdd081c5d585b1a599a5959609a1b6044820152606401610635565b6000546040516370a0823160e01b81523060048201526001600160a01b037f000000000000000000000000000000000000000000000000000000000000000081169263a9059cbb9291169083906370a0823190602401602060405180830381865afa1580156107df573d6000803e3d6000fd5b505050506040513d601f19601f820116820180604052508101906108039190612123565b6040516001600160e01b031960e085901b1681526001600160a01b03909216600483015260248201526044016020604051808303816000875af115801561084e573d6000803e3d6000fd5b505050506040513d601f19601f820116820180604052508101906108729190612106565b506000546040516370a0823160e01b81523060048201526001600160a01b037f000000000000000000000000000000000000000000000000000000000000000081169263a9059cbb9291169083906370a0823190602401602060405180830381865afa1580156108e6573d6000803e3d6000fd5b505050506040513d601f19601f8201168201806040525081019061090a9190612123565b6040516001600160e01b031960e085901b1681526001600160a01b03909216600483015260248201526044016020604051808303816000875af1158015610955573d6000803e3d6000fd5b505050506040513d601f19601f820116820180604052508101906109799190612106565b507f000000000000000000000000000000000000000000000000000000000000000060045560405133907faca80c800ec0d2aa9d9d31b7f886a1dd3067d4676abc637626a18ffb9381653d906109d2908590859061213c565b60405180910390a250505050565b6000546001600160a01b0316331480610a0257506000546001600160a01b0316155b610a1e5760405162461bcd60e51b81526004016106359061216b565b60035415610a3e5760405162461bcd60e51b81526004016106359061218e565b60405163a9059cbb60e01b81526001600160a01b038381166004830152602482018390527f0000000000000000000000000000000000000000000000000000000000000000169063a9059cbb906044016020604051808303816000875af1158015610aad573d6000803e3d6000fd5b505050506040513d601f19601f82011682018060405250810190610ad19190612106565b506000610adc611912565b9050610aea816001546119a2565b610af357600080fd5b80600003610b24577f0000000000000000000000000000000000000000000000000000000000000000600455610b51565b7f0000000000000000000000000000000000000000000000000000000000000000811015610b5157600080fd5b610b596119cd565b505050565b6000546001600160a01b0316331480610b8057506000546001600160a01b0316155b610b9c5760405162461bcd60e51b81526004016106359061216b565b6040516323b872dd60e01b8152336004820152306024820152604481018290527f00000000000000000000000000000000000000000000000000000000000000006001600160a01b0316906323b872dd906064016020604051808303816000875af1158015610c0f573d6000803e3d6000fd5b505050506040513d601f19601f82011682018060405250810190610c339190612106565b50610c3d81611a24565b50565b6000336001600160a01b037f00000000000000000000000000000000000000000000000000000000000000001614610c8a5760405162461bcd60e51b8152600401610635906121ba565b7f00000000000000000000000000000000000000000000000000000000000000004210610cb9575060006105fa565b82600154610cc7919061204c565b610cd9670de0b6b3a76400008461204c565b10610d0a578260036000828254610cf091906121db565b90915550610d02905062015180611b09565b5060016105fa565b5060006105fa565b6000546001600160a01b0316331480610d3457506000546001600160a01b0316155b610d505760405162461bcd60e51b81526004016106359061216b565b60035415610d705760405162461bcd60e51b81526004016106359061218e565b4260045410610dac5760405162461bcd60e51b815260206004820152600860248201526731b7b7b63237bbb760c11b6044820152606401610635565b7f0000000000000000000000000000000000000000000000000000000000000000421115610e065760405162461bcd60e51b8152602060048201526007602482015266195e1c1a5c995960ca1b6044820152606401610635565b610e188282610e13611912565b611b27565b5050565b336001600160a01b037f00000000000000000000000000000000000000000000000000000000000000001614610e645760405162461bcd60e51b8152600401610635906121ba565b7f000000000000000000000000000000000000000000000000000000000000000081101580610e9a5750610e96611912565b8110155b610ed75760405162461bcd60e51b815260206004820152600e60248201526d1cda5e99481d1bdbc81cdb585b1b60921b6044820152606401610635565b8060036000828254610ee991906121f2565b909155505050565b6001548114610f0357610f03816112b5565b6000610f0d611912565b905080831115610fcc576001600160a01b037f0000000000000000000000000000000000000000000000000000000000000000166323b872dd3330610f5285886121db565b6040516001600160e01b031960e086901b1681526001600160a01b03938416600482015292909116602483015260448201526064016020604051808303816000875af1158015610fa6573d6000803e3d6000fd5b505050506040513d601f19601f82011682018060405250810190610fca9190612106565b505b6002548410156110b6577f00000000000000000000000000000000000000000000000000000000000000006001600160a01b031663ea889b8a338660025461101491906121db565b6040516001600160e01b031960e085901b1681526001600160a01b039092166004830152602482015263ffffffff7f00000000000000000000000000000000000000000000000000000000000000001660448201526064016020604051808303816000875af115801561108b573d6000803e3d6000fd5b505050506040513d601f19601f820116820180604052508101906110af9190612123565b5060028490555b808310156110cc576110cc3361024785846121db565b6002548411156110e8576110e8336002548661030b91906121db565b50505050565b60008080336001600160a01b037f0000000000000000000000000000000000000000000000000000000000000000161461113a5760405162461bcd60e51b8152600401610635906121ba565b836003600082825461114c91906121db565b92505081905550600061116160015486611cbe565b905060025481111561119b5761118261117c86600254611cbe565b82611cdd565b945061119361117c87600254611cbe565b955060025490505b8086106111ea5760405162461bcd60e51b815260206004820152601860248201527f6368616c6c656e6765206e6f74207375636365737366756c00000000000000006044820152606401610635565b60405163a9059cbb60e01b81526001600160a01b038881166004830152602482018790527f0000000000000000000000000000000000000000000000000000000000000000169063a9059cbb906044016020604051808303816000875af1158015611259573d6000803e3d6000fd5b505050506040513d601f19601f8201168201806040525081019061127d9190612106565b5061128781611cf2565b94969495507f0000000000000000000000000000000000000000000000000000000000000000949350505050565b6000546001600160a01b03163314806112d757506000546001600160a01b0316155b6112f35760405162461bcd60e51b81526004016106359061216b565b600354156113135760405162461bcd60e51b81526004016106359061218e565b60015481111561132e576113296203f480611b09565b611348565b61133f611339611912565b826119a2565b61134857600080fd5b6001819055610c3d6119cd565b60006001600160a01b037f00000000000000000000000000000000000000000000000000000000000000001633036101f05761139084611a24565b506001949350505050565b336001600160a01b037f000000000000000000000000000000000000000000000000000000000000000016146114025760405162461bcd60e51b815260206004820152600c60248201526b666163746f7279206f6e6c7960a01b6044820152606401610635565b7f00000000000000000000000000000000000000000000000000000000000000008210156114645760405162461bcd60e51b815260206004820152600f60248201526e0c6ded8d840dcdee840cadcdeeaced608b1b6044820152606401610635565b61146d8561184d565b81611480670de0b6b3a76400008361204c565b61148a919061206b565b60018190558410156114de5760405162461bcd60e51b815260206004820152601e60248201527f63616e206f6e6c7920726564756365207072696365206f6e20636c6f6e6500006044820152606401610635565b60058390556114ee858284611b27565b604080517f00000000000000000000000000000000000000000000000000000000000000006001600160a01b0390811682527f0000000000000000000000000000000000000000000000000000000000000000811660208301527f0000000000000000000000000000000000000000000000000000000000000000811682840152606082018790529151918716917f591ede549d7e337ac63249acd2d7849532b0a686377bbf0b0cca6c8abd9552f29181900360800190a25050505050565b600042600454106115eb5760405162461bcd60e51b815260206004820152600860248201526731b7b7b63237bbb760c11b6044820152606401610635565b7f00000000000000000000000000000000000000000000000000000000000000004211156116455760405162461bcd60e51b8152602060048201526007602482015266195e1c1a5c995960ca1b6044820152606401610635565b336001600160a01b037f000000000000000000000000000000000000000000000000000000000000000016146116ac5760405162461bcd60e51b815260206004820152600c60248201526b6f6e6c7920666163746f727960a01b6044820152606401610635565b600554826002546116bd91906121f2565b11156116fc5760405162461bcd60e51b815260206004820152600e60248201526d1b1a5b5a5d08195e18d95959195960921b6044820152606401610635565b600060028360025460055461171191906121db565b61171b91906121db565b611725919061206b565b905061173183826121f2565b6005600082825461174291906121db565b90915550611752905083826121f2565b9392505050565b6000546001600160a01b031633148061177b57506000546001600160a01b0316155b6117975760405162461bcd60e51b81526004016106359061216b565b7f00000000000000000000000000000000000000000000000000000000000000006001600160a01b0316836001600160a01b0316036117da57610b5982826109e0565b60405163a9059cbb60e01b81526001600160a01b0383811660048301526024820183905284169063a9059cbb906044016020604051808303816000875af1158015611829573d6000803e3d6000fd5b505050506040513d601f19601f820116820180604052508101906110e89190612106565b6000546001600160a01b031633148061186f57506000546001600160a01b0316155b61188b5760405162461bcd60e51b81526004016106359061216b565b6001600160a01b0381166118c75760405162461bcd60e51b815260206004820152600360248201526203078360ec1b6044820152606401610635565b600080546001600160a01b0319166001600160a01b0383169081178255604051909182917f8be0079c531659141344cd1fd0a4f28419497f9722a3daafe3b4186f6b6457e09190a350565b6040516370a0823160e01b81523060048201526000907f00000000000000000000000000000000000000000000000000000000000000006001600160a01b0316906370a0823190602401602060405180830381865afa158015611979573d6000803e3d6000fd5b505050506040513d601f19601f8201168201806040525081019061199d9190612123565b905090565b6000670de0b6b3a76400006002546119ba919061204c565b6119c4838561204c565b10159392505050565b7fcb2040b7eb3265a4335698c9ecbe81a5f9857e92aa32e07ce235f44c321a7e356119f6611912565b60015460025460055460408051948552602085019390935291830152606082015260800160405180910390a1565b60035415611a445760405162461bcd60e51b81526004016106359061218e565b60405163a47d75ad60e01b81526004810182905263ffffffff7f00000000000000000000000000000000000000000000000000000000000000001660248201526000907f00000000000000000000000000000000000000000000000000000000000000006001600160a01b03169063a47d75ad906044016020604051808303816000875af1158015611ada573d6000803e3d6000fd5b505050506040513d601f19601f82011682018060405250810190611afe9190612123565b9050610e1881611cf2565b6000611b1582426121f2565b9050600454811115610e185760045550565b60055482600254611b3891906121f2565b1115611b775760405162461bcd60e51b815260206004820152600e60248201526d1b1a5b5a5d08195e18d95959195960921b6044820152606401610635565b6040516365e5314760e11b81526001600160a01b0384811660048301526024820184905263ffffffff7f0000000000000000000000000000000000000000000000000000000000000000811660448401527f00000000000000000000000000000000000000000000000000000000000000001660648301527f0000000000000000000000000000000000000000000000000000000000000000169063cbca628e90608401600060405180830381600087803b158015611c3557600080fd5b505af1158015611c49573d6000803e3d6000fd5b505050508160026000828254611c5f91906121f2565b92505081905550611c72816001546119a2565b610b515760405162461bcd60e51b815260206004820152601760248201527f6e6f742077656c6c20636f6c6c61746572616c697a65640000000000000000006044820152606401610635565b6000670de0b6b3a7640000611cd3838561204c565b611752919061206b565b600081611cd3670de0b6b3a76400008561204c565b600254811115611d0157600080fd5b8060026000828254611d1391906121db565b90915550610c3d90506119cd565b8015158114610c3d57600080fd5b60008060408385031215611d4257600080fd5b823591506020830135611d5481611d21565b809150509250929050565b60008083601f840112611d7157600080fd5b50813567ffffffffffffffff811115611d8957600080fd5b602083019150836020828501011115611da157600080fd5b9250929050565b60008060008060408587031215611dbe57600080fd5b843567ffffffffffffffff80821115611dd657600080fd5b818701915087601f830112611dea57600080fd5b813581811115611df957600080fd5b8860208260051b8501011115611e0e57600080fd5b602092830196509450908601359080821115611e2957600080fd5b50611e3687828801611d5f565b95989497509550505050565b6001600160a01b0381168114610c3d57600080fd5b60008060408385031215611e6a57600080fd5b8235611e7581611e42565b946020939093013593505050565b600060208284031215611e9557600080fd5b5035919050565b60008060408385031215611eaf57600080fd5b50508035926020909101359150565b600080600060608486031215611ed357600080fd5b505081359360208301359350604090920135919050565b600080600060608486031215611eff57600080fd5b8335611f0a81611e42565b95602085013595506040909401359392505050565b60008060008060608587031215611f3557600080fd5b8435611f4081611e42565b935060208501359250604085013567ffffffffffffffff811115611f6357600080fd5b611e3687828801611d5f565b600080600080600060a08688031215611f8757600080fd5b8535611f9281611e42565b97602087013597506040870135966060810135965060800135945092505050565b600080600060608486031215611fc857600080fd5b8335611fd381611e42565b92506020840135611fe381611e42565b929592945050506040919091013590565b60006020828403121561200657600080fd5b813561175281611e42565b634e487b7160e01b600052601160045260246000fd5b600063ffffffff8381169083168181101561204457612044612011565b039392505050565b600081600019048311821515161561206657612066612011565b500290565b60008261208857634e487b7160e01b600052601260045260246000fd5b500490565b60006020828403121561209f57600080fd5b815161175281611e42565b6001600160a01b03848116825260406020808401829052908301849052600091859160608501845b878110156120f95784356120e581611e42565b8416825293820193908201906001016120d2565b5098975050505050505050565b60006020828403121561211857600080fd5b815161175281611d21565b60006020828403121561213557600080fd5b5051919050565b60208152816020820152818360408301376000818301604090810191909152601f909201601f19160101919050565b6020808252600990820152683737ba1037bbb732b960b91b604082015260600190565b6020808252601290820152716368616c6c656e6765732070656e64696e6760701b604082015260600190565b6020808252600790820152663737ba10343ab160c91b604082015260600190565b6000828210156121ed576121ed612011565b500390565b6000821982111561220557612205612011565b50019056fea264697066735822122018c70ece6381c42b53c568d1b86a646fc0b4cad160426083a5d0351dc48b539164736f6c634300080d0033a2646970667358221220760718b614b8f72945f9e80702855c387f5f7622a6eb31a9b599c721a496c68864736f6c634300080d0033",
  "devdoc": {
    "kind": "dev",
    "methods": {
      "clonePosition(address,address,address,uint256,uint256)": {
        "params": {
          "_existing": "address of the position we want to clone",
          "_initialCol": "initial collateral to be posted by owner (dec 18)",
          "_initialMint": "initial amount to mint before fees/reserve by owner",
          "_owner": "owner address of the new clone",
          "_zchf": "ZCHF address"
        },
        "returns": {
          "_0": "address of the newly created clone position"
        }
      }
    },
    "version": 1
  },
  "userdoc": {
    "kind": "user",
    "methods": {
      "clonePosition(address,address,address,uint256,uint256)": {
        "notice": "clone an existing position. This can be a clone of another clone, or an origin position. If it's another clone, then the liquidation price is taken from the clone and the rest from the origin. Limit is \"inherited\" (and adjusted) from the origin."
      }
    },
    "version": 1
  },
  "storageLayout": {
    "storage": [],
    "types": null
  }
}