{
  "address": "0x07bfD7B49474DFc25069Db0B4555DcCe43e1016A",
  "abi": [
    {
      "inputs": [
        {
          "internalType": "address",
          "name": "_existing",
          "type": "address"
        }
      ],
      "name": "clonePosition",
      "outputs": [
        {
          "internalType": "address",
          "name": "",
          "type": "address"
        }
      ],
      "stateMutability": "nonpayable",
      "type": "function"
    },
    {
      "inputs": [
        {
          "internalType": "address",
          "name": "_owner",
          "type": "address"
        },
        {
          "internalType": "address",
          "name": "_zchf",
          "type": "address"
        },
        {
          "internalType": "address",
          "name": "_collateral",
          "type": "address"
        },
        {
          "internalType": "uint256",
          "name": "_minCollateral",
          "type": "uint256"
        },
        {
          "internalType": "uint256",
          "name": "_initialCollateral",
          "type": "uint256"
        },
        {
          "internalType": "uint256",
          "name": "_initialLimit",
          "type": "uint256"
        },
        {
          "internalType": "uint256",
          "name": "_duration",
          "type": "uint256"
        },
        {
          "internalType": "uint256",
          "name": "_challengePeriod",
          "type": "uint256"
        },
        {
          "internalType": "uint32",
          "name": "_mintingFeePPM",
          "type": "uint32"
        },
        {
          "internalType": "uint256",
          "name": "_liqPrice",
          "type": "uint256"
        },
        {
          "internalType": "uint32",
          "name": "_reserve",
          "type": "uint32"
        }
      ],
      "name": "createNewPosition",
      "outputs": [
        {
          "internalType": "address",
          "name": "",
          "type": "address"
        }
      ],
      "stateMutability": "nonpayable",
      "type": "function"
    }
  ],
  "transactionHash": "0xe517070af7f77738c989910f2d86cd16ac03600eb1e3a7e421e1fddac42e1549",
  "args": [],
  "numDeployments": 1,
  "solcInputHash": "c97375061196e52900df82053541782a",
  "bytecode": "0x608060405234801561001057600080fd5b506127b6806100206000396000f3fe608060405234801561001057600080fd5b50600436106100365760003560e01c806353af18071461003b578063b3e891801461006a575b600080fd5b61004e610049366004610236565b61007d565b6040516001600160a01b03909116815260200160405180910390f35b61004e6100783660046102de565b61012c565b60008b338c8c8c8c8c8c8c8c8c8c604051610097906101f8565b6001600160a01b039c8d1681529a8c1660208c0152988b1660408b0152969099166060890152608088019490945260a087019290925260c086015260e085015261010084015263ffffffff9384166101208401526101408301529190911661016082015261018001604051809103906000f08015801561011b573d6000803e3d6000fd5b509c9b505050505050505050505050565b600080829050600061019e826001600160a01b03166346c715fa6040518163ffffffff1660e01b8152600401602060405180830381865afa158015610175573d6000803e3d6000fd5b505050506040513d601f19601f820116820180604052508101906101999190610302565b6101a6565b949350505050565b6000808260601b9050604051733d602d80600a3d3981f3363d3d373d3d3d363d7360601b81528160148201526e5af43d82803e903d91602b57fd5bf360881b60288201526037816000f0949350505050565b6124618061032083390190565b6001600160a01b038116811461021a57600080fd5b50565b803563ffffffff8116811461023157600080fd5b919050565b60008060008060008060008060008060006101608c8e03121561025857600080fd5b8b3561026381610205565b9a5060208c013561027381610205565b995060408c013561028381610205565b985060608c0135975060808c0135965060a08c0135955060c08c0135945060e08c013593506102b56101008d0161021d565b92506101208c013591506102cc6101408d0161021d565b90509295989b509295989b9093969950565b6000602082840312156102f057600080fd5b81356102fb81610205565b9392505050565b60006020828403121561031457600080fd5b81516102fb8161020556fe6101a06040523480156200001257600080fd5b5060405162002461380380620024618339810160408190526200003591620001f7565b8b6001600160a01b038116620000775760405162461bcd60e51b815260206004820152600360248201526203078360ec1b604482015260640160405180910390fd5b600080546001600160a01b0319166001600160a01b03831690811782556040519091907f8be0079c531659141344cd1fd0a4f28419497f9722a3daafe3b4186f6b6457e0908290a3503060c0526001600160a01b038b811660e05260018390558a81166101005289166101205263ffffffff80841661016052811661018052878710156200010457600080fd5b610140889052620001168542620002b6565b60a05260808490526200012c62093a80620001a0565b600586905560c05161012051604080516001600160a01b0393841681528d84166020820152918316828201526060820185905251918e16917f591ede549d7e337ac63249acd2d7849532b0a686377bbf0b0cca6c8abd9552f29181900360800190a2505050505050505050505050620002dd565b6000620001ae8242620002b6565b9050600454811115620001c15760048190555b5050565b80516001600160a01b0381168114620001dd57600080fd5b919050565b805163ffffffff81168114620001dd57600080fd5b6000806000806000806000806000806000806101808d8f0312156200021b57600080fd5b620002268d620001c5565b9b506200023660208e01620001c5565b9a506200024660408e01620001c5565b99506200025660608e01620001c5565b985060808d0151975060a08d0151965060c08d0151955060e08d015194506101008d015193506200028b6101208e01620001e2565b92506101408d01519150620002a46101608e01620001e2565b90509295989b509295989b509295989b565b60008219821115620002d857634e487b7160e01b600052601160045260246000fd5b500190565b60805160a05160c05160e05161010051610120516101405161016051610180516120256200043c600039600081816102a30152818161055b01528181610e81015281816110ad01528181611844015261198701526000818161041f015281816105b201526119af0152600081816104880152818161091301528181610c5f01526112080152600081816104e00152818161085101528181610d5e015281816110070152818161134e0152818161157e015261170f0152600081816104b90152818161063b015281816109ab01528181610e1501528181611184015281816113260152818161186e01526119d601526000818161025101528181610a3a01528181610c1401528181610f3c015281816111c9015261145401526000818161034f01526112f801526000818161032801528181610769015281816108ea01528181610a7901528181610b9b01526113f10152600061052d01526120256000f3fe608060405234801561001057600080fd5b50600436106101f05760003560e01c806372bf079e1161010f578063b0c2ec82116100a2578063d8dfeb4511610071578063d8dfeb45146104db578063d9caed1214610502578063f2fde38b14610515578063f3f480d91461052857600080fd5b8063b0c2ec8214610470578063babe7c7414610483578063c2c4e7be146104aa578063c4d4803a146104b457600080fd5b8063a1362033116100de578063a13620331461041a578063a4c0ed3614610441578063a4d66daf14610454578063aee1a9591461045d57600080fd5b806372bf079e146103e2578063787a08a6146103f55780638da5cb5b146103fe578063a035b1fe1461041157600080fd5b806340c10f191161018757806348dc68451161015657806348dc6845146103715780634f02c4201461037b5780636f871cec14610384578063707271b11461039757600080fd5b806340c10f19146102fd57806342d02041146103105780634665096d1461032357806346c715fa1461034a57600080fd5b8063365a86fc116101c3578063365a86fc1461024c578063371fd8e61461028b5780633a7c29fb1461029e5780633e94e242146102da57600080fd5b806308262940146101f55780631bbea34c1461021b57806324e657fe14610230578063350c35e914610239575b600080fd5b610208610203366004611b14565b61054f565b6040519081526020015b60405180910390f35b61022e610229366004611b8d565b6105fb565b005b61020860035481565b61022e610247366004611c3c565b6107cd565b6102737f000000000000000000000000000000000000000000000000000000000000000081565b6040516001600160a01b039091168152602001610212565b61022e610299366004611c68565b61094b565b6102c57f000000000000000000000000000000000000000000000000000000000000000081565b60405163ffffffff9091168152602001610212565b6102ed6102e8366004611c81565b610a2d565b6040519015158152602001610212565b61022e61030b366004611c3c565b610aff565b61022e61031e366004611c68565b610c09565b6102087f000000000000000000000000000000000000000000000000000000000000000081565b6102737f000000000000000000000000000000000000000000000000000000000000000081565b6102086203f48081565b61020860025481565b61022e610392366004611ca3565b610d2e565b6103aa6103a5366004611ccf565b610f2b565b604080516001600160a01b039096168652602086019490945292840191909152606083015263ffffffff16608082015260a001610212565b61022e6103f0366004611c68565b6110d8565b61020860045481565b600054610273906001600160a01b031681565b61020860015481565b6102c57f000000000000000000000000000000000000000000000000000000000000000081565b6102ed61044f366004611d04565b611178565b61020860055481565b61022e61046b366004611d54565b6111be565b61020861047e366004611c68565b6113b1565b6102087f000000000000000000000000000000000000000000000000000000000000000081565b61020862093a8081565b6102737f000000000000000000000000000000000000000000000000000000000000000081565b6102737f000000000000000000000000000000000000000000000000000000000000000081565b61022e610510366004611d98565b61153e565b61022e610523366004611dd9565b611632565b6102087f000000000000000000000000000000000000000000000000000000000000000081565b600080620f42406105807f000000000000000000000000000000000000000000000000000000000000000082611e0c565b6105909063ffffffff1686611e31565b61059a9190611e50565b905082156105a95790506105f5565b620f42406105d77f000000000000000000000000000000000000000000000000000000000000000082611e0c565b6105e79063ffffffff1686611e31565b6105f19190611e50565b9150505b92915050565b600254156106395760405162461bcd60e51b81526020600482015260066024820152651b5a5b9d195960d21b60448201526064015b60405180910390fd5b7f00000000000000000000000000000000000000000000000000000000000000006001600160a01b031663cd3293de6040518163ffffffff1660e01b8152600401602060405180830381865afa158015610697573d6000803e3d6000fd5b505050506040513d601f19601f820116820180604052508101906106bb9190611e72565b6001600160a01b0316635e1121cf3386866040518463ffffffff1660e01b81526004016106ea93929190611e8f565b602060405180830381865afa158015610707573d6000803e3d6000fd5b505050506040513d601f19601f8201168201806040525081019061072b9190611eeb565b6107675760405162461bcd60e51b815260206004820152600d60248201526c1b9bdd081c5d585b1a599a5959609a1b6044820152606401610630565b7f000000000000000000000000000000000000000000000000000000000000000060045560405133907faca80c800ec0d2aa9d9d31b7f886a1dd3067d4676abc637626a18ffb9381653d906107bf9085908590611f08565b60405180910390a250505050565b6000546001600160a01b03163314806107ef57506000546001600160a01b0316155b61080b5760405162461bcd60e51b815260040161063090611f37565b6003541561082b5760405162461bcd60e51b815260040161063090611f5a565b60405163a9059cbb60e01b81526001600160a01b038381166004830152602482018390527f0000000000000000000000000000000000000000000000000000000000000000169063a9059cbb906044016020604051808303816000875af115801561089a573d6000803e3d6000fd5b505050506040513d601f19601f820116820180604052508101906108be9190611eeb565b5060006108c96116f7565b90506108d781600154611787565b6108e057600080fd5b80600003610911577f000000000000000000000000000000000000000000000000000000000000000060045561093e565b7f000000000000000000000000000000000000000000000000000000000000000081101561093e57600080fd5b6109466117b2565b505050565b6000546001600160a01b031633148061096d57506000546001600160a01b0316155b6109895760405162461bcd60e51b815260040161063090611f37565b6040516323b872dd60e01b8152336004820152306024820152604481018290527f00000000000000000000000000000000000000000000000000000000000000006001600160a01b0316906323b872dd906064016020604051808303816000875af11580156109fc573d6000803e3d6000fd5b505050506040513d601f19601f82011682018060405250810190610a209190611eeb565b50610a2a81611809565b50565b6000336001600160a01b037f00000000000000000000000000000000000000000000000000000000000000001614610a775760405162461bcd60e51b815260040161063090611f86565b7f00000000000000000000000000000000000000000000000000000000000000004210610aa6575060006105f5565b82600154610ab49190611e31565b610ac6670de0b6b3a764000084611e31565b10610af7578260036000828254610add9190611fa7565b90915550610aef9050620151806118ee565b5060016105f5565b5060006105f5565b6000546001600160a01b0316331480610b2157506000546001600160a01b0316155b610b3d5760405162461bcd60e51b815260040161063090611f37565b60035415610b5d5760405162461bcd60e51b815260040161063090611f5a565b4260045410610b995760405162461bcd60e51b815260206004820152600860248201526731b7b7b63237bbb760c11b6044820152606401610630565b7f0000000000000000000000000000000000000000000000000000000000000000421115610bf35760405162461bcd60e51b8152602060048201526007602482015266195e1c1a5c995960ca1b6044820152606401610630565b610c058282610c006116f7565b61190c565b5050565b336001600160a01b037f00000000000000000000000000000000000000000000000000000000000000001614610c515760405162461bcd60e51b815260040161063090611f86565b6000610c5b6116f7565b90507f000000000000000000000000000000000000000000000000000000000000000082101580610c8b57508082145b610ccd5760405162461bcd60e51b815260206004820152601360248201527218da185b1b195b99d9481d1bdbc81cdb585b1b606a1b6044820152606401610630565b80821115610d135760405162461bcd60e51b81526020600482015260136024820152726368616c6c656e676520746f6f206c6172676560681b6044820152606401610630565b8160036000828254610d259190611fbe565b90915550505050565b6001548114610d4057610d40816110d8565b6000610d4a6116f7565b905080831115610e09576001600160a01b037f0000000000000000000000000000000000000000000000000000000000000000166323b872dd3330610d8f8588611fa7565b6040516001600160e01b031960e086901b1681526001600160a01b03938416600482015292909116602483015260448201526064016020604051808303816000875af1158015610de3573d6000803e3d6000fd5b505050506040513d601f19601f82011682018060405250810190610e079190611eeb565b505b600254841015610ef3577f00000000000000000000000000000000000000000000000000000000000000006001600160a01b031663ea889b8a3386600254610e519190611fa7565b6040516001600160e01b031960e085901b1681526001600160a01b039092166004830152602482015263ffffffff7f00000000000000000000000000000000000000000000000000000000000000001660448201526064016020604051808303816000875af1158015610ec8573d6000803e3d6000fd5b505050506040513d601f19601f82011682018060405250810190610eec9190611fd6565b5060028490555b80831015610f0957610f09336102478584611fa7565b600254841115610f2557610f25336002548661030b9190611fa7565b50505050565b600080808080336001600160a01b037f00000000000000000000000000000000000000000000000000000000000000001614610f795760405162461bcd60e51b815260040161063090611f86565b8560036000828254610f8b9190611fa7565b9091555060009050610f9b6116f7565b90506000610fab60015489611aa3565b90506000610fbb60015484611aa3565b905080821115610fe157610fd8610fd28b83611aa3565b83611ac2565b99508091508298505b60405163a9059cbb60e01b81526001600160a01b038c81166004830152602482018b90527f0000000000000000000000000000000000000000000000000000000000000000169063a9059cbb906044016020604051808303816000875af1158015611050573d6000803e3d6000fd5b505050506040513d601f19601f820116820180604052508101906110749190611eeb565b5060008260025410156110895760025461108b565b825b905061109681611ad7565b6000546001600160a01b03169c9a9b5091999198507f000000000000000000000000000000000000000000000000000000000000000097509095505050505050565b6000546001600160a01b03163314806110fa57506000546001600160a01b0316155b6111165760405162461bcd60e51b815260040161063090611f37565b600354156111365760405162461bcd60e51b815260040161063090611f5a565b6001548111156111515761114c6203f4806118ee565b61116b565b61116261115c6116f7565b82611787565b61116b57600080fd5b6001819055610a2a6117b2565b60006001600160a01b037f00000000000000000000000000000000000000000000000000000000000000001633036101f0576111b384611809565b506001949350505050565b336001600160a01b037f000000000000000000000000000000000000000000000000000000000000000016146112065760405162461bcd60e51b815260040161063090611f86565b7f00000000000000000000000000000000000000000000000000000000000000008210156112685760405162461bcd60e51b815260206004820152600f60248201526e0c6ded8d840dcdee840cadcdeeaced608b1b6044820152606401610630565b61127185611632565b81611284670de0b6b3a764000083611e31565b61128e9190611e50565b60018190558410156112e25760405162461bcd60e51b815260206004820152601e60248201527f63616e206f6e6c7920726564756365207072696365206f6e20636c6f6e6500006044820152606401610630565b60058390556112f285828461190c565b604080517f00000000000000000000000000000000000000000000000000000000000000006001600160a01b0390811682527f0000000000000000000000000000000000000000000000000000000000000000811660208301527f0000000000000000000000000000000000000000000000000000000000000000811682840152606082018790529151918716917f591ede549d7e337ac63249acd2d7849532b0a686377bbf0b0cca6c8abd9552f29181900360800190a25050505050565b600042600454106113ef5760405162461bcd60e51b815260206004820152600860248201526731b7b7b63237bbb760c11b6044820152606401610630565b7f00000000000000000000000000000000000000000000000000000000000000004211156114495760405162461bcd60e51b8152602060048201526007602482015266195e1c1a5c995960ca1b6044820152606401610630565b336001600160a01b037f000000000000000000000000000000000000000000000000000000000000000016146114915760405162461bcd60e51b815260040161063090611f86565b600554826002546114a29190611fbe565b11156114e15760405162461bcd60e51b815260206004820152600e60248201526d1b1a5b5a5d08195e18d95959195960921b6044820152606401610630565b60006002836002546005546114f69190611fa7565b6115009190611fa7565b61150a9190611e50565b90506115168382611fbe565b600560008282546115279190611fa7565b9091555061153790508382611fbe565b9392505050565b6000546001600160a01b031633148061156057506000546001600160a01b0316155b61157c5760405162461bcd60e51b815260040161063090611f37565b7f00000000000000000000000000000000000000000000000000000000000000006001600160a01b0316836001600160a01b0316036115bf5761094682826107cd565b60405163a9059cbb60e01b81526001600160a01b0383811660048301526024820183905284169063a9059cbb906044016020604051808303816000875af115801561160e573d6000803e3d6000fd5b505050506040513d601f19601f82011682018060405250810190610f259190611eeb565b6000546001600160a01b031633148061165457506000546001600160a01b0316155b6116705760405162461bcd60e51b815260040161063090611f37565b6001600160a01b0381166116ac5760405162461bcd60e51b815260206004820152600360248201526203078360ec1b6044820152606401610630565b600080546001600160a01b0319166001600160a01b0383169081178255604051909182917f8be0079c531659141344cd1fd0a4f28419497f9722a3daafe3b4186f6b6457e09190a350565b6040516370a0823160e01b81523060048201526000907f00000000000000000000000000000000000000000000000000000000000000006001600160a01b0316906370a0823190602401602060405180830381865afa15801561175e573d6000803e3d6000fd5b505050506040513d601f19601f820116820180604052508101906117829190611fd6565b905090565b6000670de0b6b3a764000060025461179f9190611e31565b6117a98385611e31565b10159392505050565b7fcb2040b7eb3265a4335698c9ecbe81a5f9857e92aa32e07ce235f44c321a7e356117db6116f7565b60015460025460055460408051948552602085019390935291830152606082015260800160405180910390a1565b600354156118295760405162461bcd60e51b815260040161063090611f5a565b60405163a47d75ad60e01b81526004810182905263ffffffff7f00000000000000000000000000000000000000000000000000000000000000001660248201526000907f00000000000000000000000000000000000000000000000000000000000000006001600160a01b03169063a47d75ad906044016020604051808303816000875af11580156118bf573d6000803e3d6000fd5b505050506040513d601f19601f820116820180604052508101906118e39190611fd6565b9050610c0581611ad7565b60006118fa8242611fbe565b9050600454811115610c055760045550565b6005548260025461191d9190611fbe565b111561195c5760405162461bcd60e51b815260206004820152600e60248201526d1b1a5b5a5d08195e18d95959195960921b6044820152606401610630565b6040516365e5314760e11b81526001600160a01b0384811660048301526024820184905263ffffffff7f0000000000000000000000000000000000000000000000000000000000000000811660448401527f00000000000000000000000000000000000000000000000000000000000000001660648301527f0000000000000000000000000000000000000000000000000000000000000000169063cbca628e90608401600060405180830381600087803b158015611a1a57600080fd5b505af1158015611a2e573d6000803e3d6000fd5b505050508160026000828254611a449190611fbe565b92505081905550611a5781600154611787565b61093e5760405162461bcd60e51b815260206004820152601760248201527f6e6f742077656c6c20636f6c6c61746572616c697a65640000000000000000006044820152606401610630565b6000670de0b6b3a7640000611ab88385611e31565b6115379190611e50565b600081611ab8670de0b6b3a764000085611e31565b600254811115611ae657600080fd5b8060026000828254611af89190611fa7565b90915550610a2a90506117b2565b8015158114610a2a57600080fd5b60008060408385031215611b2757600080fd5b823591506020830135611b3981611b06565b809150509250929050565b60008083601f840112611b5657600080fd5b50813567ffffffffffffffff811115611b6e57600080fd5b602083019150836020828501011115611b8657600080fd5b9250929050565b60008060008060408587031215611ba357600080fd5b843567ffffffffffffffff80821115611bbb57600080fd5b818701915087601f830112611bcf57600080fd5b813581811115611bde57600080fd5b8860208260051b8501011115611bf357600080fd5b602092830196509450908601359080821115611c0e57600080fd5b50611c1b87828801611b44565b95989497509550505050565b6001600160a01b0381168114610a2a57600080fd5b60008060408385031215611c4f57600080fd5b8235611c5a81611c27565b946020939093013593505050565b600060208284031215611c7a57600080fd5b5035919050565b60008060408385031215611c9457600080fd5b50508035926020909101359150565b600080600060608486031215611cb857600080fd5b505081359360208301359350604090920135919050565b600080600060608486031215611ce457600080fd5b8335611cef81611c27565b95602085013595506040909401359392505050565b60008060008060608587031215611d1a57600080fd5b8435611d2581611c27565b935060208501359250604085013567ffffffffffffffff811115611d4857600080fd5b611c1b87828801611b44565b600080600080600060a08688031215611d6c57600080fd5b8535611d7781611c27565b97602087013597506040870135966060810135965060800135945092505050565b600080600060608486031215611dad57600080fd5b8335611db881611c27565b92506020840135611dc881611c27565b929592945050506040919091013590565b600060208284031215611deb57600080fd5b813561153781611c27565b634e487b7160e01b600052601160045260246000fd5b600063ffffffff83811690831681811015611e2957611e29611df6565b039392505050565b6000816000190483118215151615611e4b57611e4b611df6565b500290565b600082611e6d57634e487b7160e01b600052601260045260246000fd5b500490565b600060208284031215611e8457600080fd5b815161153781611c27565b6001600160a01b03848116825260406020808401829052908301849052600091859160608501845b87811015611ede578435611eca81611c27565b841682529382019390820190600101611eb7565b5098975050505050505050565b600060208284031215611efd57600080fd5b815161153781611b06565b60208152816020820152818360408301376000818301604090810191909152601f909201601f19160101919050565b6020808252600990820152683737ba1037bbb732b960b91b604082015260600190565b6020808252601290820152716368616c6c656e6765732070656e64696e6760701b604082015260600190565b6020808252600790820152663737ba10343ab160c91b604082015260600190565b600082821015611fb957611fb9611df6565b500390565b60008219821115611fd157611fd1611df6565b500190565b600060208284031215611fe857600080fd5b505191905056fea2646970667358221220bb0e797cb5fe077bc5bf93665a28f757815ccc3248143ac42416a797261cadd964736f6c634300080d0033a2646970667358221220f127352c963db19e073217d55c2d39f4f95ada1603b9d7120b19160c12677b6064736f6c634300080d0033",
  "devdoc": {
    "kind": "dev",
    "methods": {
      "clonePosition(address)": {
        "params": {
          "_existing": "address of the position we want to clone"
        },
        "returns": {
          "_0": "address of the newly created clone position"
        }
      }
    },
    "version": 1
  },
  "userdoc": {
    "kind": "user",
    "methods": {
      "clonePosition(address)": {
        "notice": "clone an existing position. This can be a clone of another clone, or an origin position. If it's another clone, then the liquidation price is taken from the clone and the rest from the origin. Limit is \"inherited\" (and adjusted) from the origin."
      }
    },
    "version": 1
  },
  "storageLayout": {
    "storage": [],
    "types": null
  }
}