{
  "address": "0x895eaA01CaFe0985B5A90728d0395DA41CDA77Ba",
  "abi": [
    {
      "inputs": [
        {
          "internalType": "address",
          "name": "_existing",
          "type": "address"
        }
      ],
      "name": "clonePosition",
      "outputs": [
        {
          "internalType": "address",
          "name": "",
          "type": "address"
        }
      ],
      "stateMutability": "nonpayable",
      "type": "function"
    },
    {
      "inputs": [
        {
          "internalType": "address",
          "name": "_owner",
          "type": "address"
        },
        {
          "internalType": "address",
          "name": "_zchf",
          "type": "address"
        },
        {
          "internalType": "address",
          "name": "_collateral",
          "type": "address"
        },
        {
          "internalType": "uint256",
          "name": "_minCollateral",
          "type": "uint256"
        },
        {
          "internalType": "uint256",
          "name": "_initialLimit",
          "type": "uint256"
        },
        {
          "internalType": "uint256",
          "name": "_initPeriod",
          "type": "uint256"
        },
        {
          "internalType": "uint256",
          "name": "_duration",
          "type": "uint256"
        },
        {
          "internalType": "uint64",
          "name": "_challengePeriod",
          "type": "uint64"
        },
        {
          "internalType": "uint32",
          "name": "_annualInterestPPM",
          "type": "uint32"
        },
        {
          "internalType": "uint256",
          "name": "_liqPrice",
          "type": "uint256"
        },
        {
          "internalType": "uint32",
          "name": "_reserve",
          "type": "uint32"
        }
      ],
      "name": "createNewPosition",
      "outputs": [
        {
          "internalType": "address",
          "name": "",
          "type": "address"
        }
      ],
      "stateMutability": "nonpayable",
      "type": "function"
    }
  ],
  "transactionHash": "0xbcbc8e2a96b936989f04fb0d25c2f962de74fcaa9e352aab6c2a2df6696386d4",
  "args": [],
  "numDeployments": 3,
  "solcInputHash": "024db87fd1b3ed736bed5abfcf48ad8d",
  "bytecode": "0x608060405234801561000f575f80fd5b506123f58061001d5f395ff3fe608060405234801561000f575f80fd5b5060043610610034575f3560e01c8063b3e8918014610038578063c3fd1c3714610067575b5f80fd5b61004b61004636600461026d565b61007a565b6040516001600160a01b03909116815260200160405180910390f35b61004b6100753660046102a7565b6100f0565b5f808290505f6100e8826001600160a01b03166346c715fa6040518163ffffffff1660e01b8152600401602060405180830381865afa1580156100bf573d5f803e3d5ffd5b505050506040513d601f19601f820116820180604052508101906100e3919061035d565b6101a5565b949350505050565b5f8b338c8c8c8c8c8c8c8c8c8c60405161010990610249565b6001600160a01b039c8d1681529a8c1660208c0152988b1660408b0152969099166060890152608088019490945260a087019290925260c086015260e085015267ffffffffffffffff1661010084015263ffffffff9384166101208401526101408301529190911661016082015261018001604051809103905ff080158015610194573d5f803e3d5ffd5b509c9b505050505050505050505050565b5f808260601b9050604051733d602d80600a3d3981f3363d3d373d3d3d363d7360601b81528160148201526e5af43d82803e903d91602b57fd5bf360881b60288201526037815ff09250506001600160a01b0382166102435760405162461bcd60e51b8152602060048201526016602482015275115490cc4c4d8dce8818dc99585d194819985a5b195960521b604482015260640160405180910390fd5b50919050565b6120478061037983390190565b6001600160a01b038116811461026a575f80fd5b50565b5f6020828403121561027d575f80fd5b813561028881610256565b9392505050565b803563ffffffff811681146102a2575f80fd5b919050565b5f805f805f805f805f805f6101608c8e0312156102c2575f80fd5b8b356102cd81610256565b9a5060208c01356102dd81610256565b995060408c01356102ed81610256565b985060608c0135975060808c0135965060a08c0135955060c08c0135945060e08c013567ffffffffffffffff81168114610325575f80fd5b93506103346101008d0161028f565b92506101208c0135915061034b6101408d0161028f565b90509295989b509295989b9093969950565b5f6020828403121561036d575f80fd5b81516102888161025656fe6101a060405234801562000011575f80fd5b5060405162002047380380620020478339810160408190526200003491620001a5565b6203f48086101562000044575f80fd5b6200004f8c620000db565b3060c0526001600160a01b038b811660e0528a81166101005289166101205263ffffffff808416610160528116610180526101408890526001600160401b0384166080526200009f864262000285565b60a08190526004819055620000b690869062000285565b6006556005879055620000c9826200013d565b505050505050505050505050620002bb565b6001600160a01b038116620000ee575f80fd5b5f80546001600160a01b038381166001600160a01b0319831681178455604051919092169283917f8be0079c531659141344cd1fd0a4f28419497f9722a3daafe3b4186f6b6457e09190a35050565b670de0b6b3a7640000600554620001559190620002a1565b61014051620001659083620002a1565b111562000170575f80fd5b600155565b80516001600160a01b03811681146200018c575f80fd5b919050565b805163ffffffff811681146200018c575f80fd5b5f805f805f805f805f805f806101808d8f031215620001c2575f80fd5b620001cd8d62000175565b9b50620001dd60208e0162000175565b9a50620001ed60408e0162000175565b9950620001fd60608e0162000175565b985060808d0151975060a08d0151965060c08d0151955060e08d015194506101008d015160018060401b038116811462000235575f80fd5b9350620002466101208e0162000191565b92506101408d015191506200025f6101608e0162000191565b90509295989b509295989b509295989b565b634e487b7160e01b5f52601160045260245ffd5b808201808211156200029b576200029b62000271565b92915050565b80820281158282048414176200029b576200029b62000271565b60805160a05160c05160e0516101005161012051610140516101605161018051611c54620003f35f395f8181610357015281816105c20152818161061e0152818161087401528181610a1301528181610ed601526116d701525f818161041f0152610b9001525f81816104980152818161091401528181610c97015281816110ce0152818161156b01526117f301525f818161052201528181610db60152818161128e0152818161138801526114f201525f81816104fb0152818161068b0152818161098501528181610a3c01528181610e6a01526116a601525f81816102e8015281816107c601528181610c5701528181610d2c0152818161108e015261120c01525f6103ad01525f81816104bf0152818161064b01528181610b070152610b3401525f818161029d015261056f0152611c545ff3fe608060405234801561000f575f80fd5b50600436106101fd575f3560e01c806372bf079e11610114578063b0c2ec82116100a9578063c4d4803a11610079578063c4d4803a146104f6578063d8dfeb451461051d578063d9caed1214610544578063f2fde38b14610557578063f3f480d91461056a575f80fd5b8063b0c2ec8214610480578063babe7c7414610493578063be9a6555146104ba578063c2b6b58c146104e1575f80fd5b8063a035b1fe116100e4578063a035b1fe14610453578063a4d66daf1461045c578063a9ced3f014610465578063aee1a9591461046d575f80fd5b806372bf079e146103fe578063787a08a6146104115780637bd6fb9b1461041a5780638da5cb5b14610441575f80fd5b8063383ef46e116101955780634665096d116101655780634665096d1461039f57806346c715fa146103a857806349746f10146103cf5780634f02c420146103e25780636f871cec146103eb575f80fd5b8063383ef46e146103355780633a7c29fb1461035257806340c10f191461037957806342d020411461038c575f80fd5b8063329864aa116101d0578063329864aa14610288578063350c35e9146102d0578063365a86fc146102e3578063371fd8e614610322575f80fd5b806308262940146102015780631bbea34c1461022757806320aa9e721461023c57806324e657fe1461027f575b5f80fd5b61021461020f366004611895565b6105aa565b6040519081526020015b60405180910390f35b61023a6102353660046118c3565b610649565b005b61024f61024a366004611991565b6107b7565b604080516001600160a01b03909516855260208501939093529183015263ffffffff16606082015260800161021e565b61021460035481565b6001546040805191825267ffffffffffffffff7f000000000000000000000000000000000000000000000000000000000000000016602083018190529082015260600161021e565b61023a6102de366004611991565b61089c565b61030a7f000000000000000000000000000000000000000000000000000000000000000081565b6040516001600160a01b03909116815260200161021e565b61023a6103303660046119bb565b610963565b61033d610aff565b60405163ffffffff909116815260200161021e565b61033d7f000000000000000000000000000000000000000000000000000000000000000081565b61023a610387366004611991565b610bc8565b61023a61039a3660046119bb565b610c4c565b61021460065481565b61030a7f000000000000000000000000000000000000000000000000000000000000000081565b61023a6103dd3660046119bb565b610d21565b61021460025481565b61023a6103f93660046119d2565b610d90565b61023a61040c3660046119bb565b610f8f565b61021460045481565b61033d7f000000000000000000000000000000000000000000000000000000000000000081565b5f5461030a906001600160a01b031681565b61021460015481565b61021460055481565b610214611033565b61023a61047b3660046119fb565b611083565b61023a61048e3660046119bb565b61119c565b6102147f000000000000000000000000000000000000000000000000000000000000000081565b6102147f000000000000000000000000000000000000000000000000000000000000000081565b6004546040515f19909114815260200161021e565b61030a7f000000000000000000000000000000000000000000000000000000000000000081565b61030a7f000000000000000000000000000000000000000000000000000000000000000081565b61023a610552366004611a3b565b611283565b61023a610565366004611a79565b61135f565b6105917f000000000000000000000000000000000000000000000000000000000000000081565b60405167ffffffffffffffff909116815260200161021e565b5f811561061557620f42406105bd610aff565b6105ea7f0000000000000000000000000000000000000000000000000000000000000000620f4240611aa8565b6105f49190611aa8565b6106049063ffffffff1685611acc565b61060e9190611ae3565b9050610643565b620f42406105f47f000000000000000000000000000000000000000000000000000000000000000082611aa8565b92915050565b7f000000000000000000000000000000000000000000000000000000000000000042106106895760405163ecdd1c2960e01b815260040160405180910390fd5b7f00000000000000000000000000000000000000000000000000000000000000006001600160a01b031663cd3293de6040518163ffffffff1660e01b8152600401602060405180830381865afa1580156106e5573d5f803e3d5ffd5b505050506040513d601f19601f820116820180604052508101906107099190611b02565b6001600160a01b031663352e3a833386866040518463ffffffff1660e01b815260040161073893929190611b1d565b5f6040518083038186803b15801561074e575f80fd5b505afa158015610760573d5f803e3d5ffd5b5050505061076e5f19600455565b336001600160a01b03167faca80c800ec0d2aa9d9d31b7f886a1dd3067d4676abc637626a18ffb9381653d83836040516107a9929190611b78565b60405180910390a250505050565b5f808080336001600160a01b037f00000000000000000000000000000000000000000000000000000000000000001614610804576040516313bd2e8360e31b815260040160405180910390fd5b8460035f8282546108159190611ba6565b909155505f9050610824611371565b905085811015610832578095505b5f61084060025488846113fe565b905061084b81611478565b61085588886114c5565b506108626203f4806115eb565b5f546001600160a01b031698969750957f000000000000000000000000000000000000000000000000000000000000000095509350505050565b6108a533611608565b600354156108c65760405163d26e2de960e01b815260040160405180910390fd5b60045442111580156108db57506004545f1914155b156108f957604051631c02820f60e21b815260040160405180910390fd5b5f61090483836114c5565b905061091281600154611635565b7f00000000000000000000000000000000000000000000000000000000000000008110801561094057505f81115b1561095e57604051633a23d82560e01b815260040160405180910390fd5b505050565b6040516323b872dd60e01b8152336004820152306024820152604481018290527f00000000000000000000000000000000000000000000000000000000000000006001600160a01b0316906323b872dd906064016020604051808303815f875af11580156109d3573d5f803e3d5ffd5b505050506040513d601f19601f820116820180604052508101906109f79190611bb9565b5060405163a47d75ad60e01b81526004810182905263ffffffff7f00000000000000000000000000000000000000000000000000000000000000001660248201525f907f00000000000000000000000000000000000000000000000000000000000000006001600160a01b03169063a47d75ad906044016020604051808303815f875af1158015610a8a573d5f803e3d5ffd5b505050506040513d601f19601f82011682018060405250810190610aae9190611bd4565b9050610ab981611478565b5f80516020611bff833981519152610acf611371565b60015460025460055460408051948552602085019390935291830152606082015260800160405180910390a15050565b6006545f90817f00000000000000000000000000000000000000000000000000000000000000004210610b325742610b54565b7f00000000000000000000000000000000000000000000000000000000000000005b90505f610b646224ea0084611ba6565b821015610b7a57610b758284611ba6565b610b7f565b6224ea005b90506301e13380610bb663ffffffff7f00000000000000000000000000000000000000000000000000000000000000001683611acc565b610bc09190611ae3565b935050505090565b610bd133611608565b60035415610bf25760405163d26e2de960e01b815260040160405180910390fd5b6004544211610c1457604051631c02820f60e21b815260040160405180910390fd5b6006544210610c3657604051630407b05b60e31b815260040160405180910390fd5b610c488282610c43611371565b611674565b5050565b336001600160a01b037f00000000000000000000000000000000000000000000000000000000000000001614610c95576040516313bd2e8360e31b815260040160405180910390fd5b7f000000000000000000000000000000000000000000000000000000000000000081108015610cca5750610cc7611371565b81105b15610ce857604051633c80636b60e21b815260040160405180910390fd5b805f03610d0857604051633c80636b60e21b815260040160405180910390fd5b8060035f828254610d199190611beb565b909155505050565b336001600160a01b037f00000000000000000000000000000000000000000000000000000000000000001614610d6a576040516313bd2e8360e31b815260040160405180910390fd5b8060035f828254610d7b9190611ba6565b90915550610d8d9050620151806115eb565b50565b610d9933611608565b5f610da2611371565b905080831115610e5e576001600160a01b037f0000000000000000000000000000000000000000000000000000000000000000166323b872dd3330610de78588611ba6565b6040516001600160e01b031960e086901b1681526001600160a01b03938416600482015292909116602483015260448201526064016020604051808303815f875af1158015610e38573d5f803e3d5ffd5b505050506040513d601f19601f82011682018060405250810190610e5c9190611bb9565b505b600254841015610f45577f00000000000000000000000000000000000000000000000000000000000000006001600160a01b031663315f3e723386600254610ea69190611ba6565b6040516001600160e01b031960e085901b1681526001600160a01b039092166004830152602482015263ffffffff7f00000000000000000000000000000000000000000000000000000000000000001660448201526064016020604051808303815f875af1158015610f1a573d5f803e3d5ffd5b505050506040513d601f19601f82011682018060405250810190610f3e9190611bd4565b5060028490555b80831015610f5b57610f5b336102de8584611ba6565b600254841115610f7757610f7733600254866103879190611ba6565b6001548214610f8957610f8982610f8f565b50505050565b610f9833611608565b60035415610fb95760405163d26e2de960e01b815260040160405180910390fd5b600154811115610fd457610fcf6203f4806115eb565b610fe5565b610fe5610fdf611371565b82611635565b610fee816117d8565b5f80516020611bff833981519152611004611371565b60015460025460055460408051948552602085019390935291830152606082015260800160405180910390a150565b5f80670de0b6b3a7640000600154611049611371565b6110539190611acc565b61105d9190611ae3565b9050600554811061106f575f91505090565b8060055461107d9190611ba6565b91505090565b336001600160a01b037f000000000000000000000000000000000000000000000000000000000000000016146110cc576040516313bd2e8360e31b815260040160405180910390fd5b7f000000000000000000000000000000000000000000000000000000000000000083101561110d57604051633a23d82560e01b815260040160405180910390fd5b5f83611121670de0b6b3a764000085611acc565b61112b9190611ae3565b9050670de0b6b3a76400006111408583611acc565b61114a9190611ae3565b92508481111561116d57604051633a23d82560e01b815260040160405180910390fd5b61117686611827565b60058390556006829055611189816117d8565b611194868486611674565b505050505050565b600354156111bd5760405163d26e2de960e01b815260040160405180910390fd5b60045442116111df57604051631c02820f60e21b815260040160405180910390fd5b600654421061120157604051630407b05b60e31b815260040160405180910390fd5b336001600160a01b037f0000000000000000000000000000000000000000000000000000000000000000161461124a576040516313bd2e8360e31b815260040160405180910390fd5b611252611033565b81111561127257604051631930e3c960e11b815260040160405180910390fd5b8060055f828254610d199190611ba6565b61128c33611608565b7f00000000000000000000000000000000000000000000000000000000000000006001600160a01b0316836001600160a01b0316036112cf5761095e828261089c565b5f6112d8611371565b60405163a9059cbb60e01b81526001600160a01b038581166004830152602482018590529192509085169063a9059cbb906044016020604051808303815f875af1158015611328573d5f803e3d5ffd5b505050506040513d601f19601f8201168201806040525081019061134c9190611bb9565b50611355611371565b8114610f89575f80fd5b61136833611608565b610d8d81611827565b6040516370a0823160e01b81523060048201525f907f00000000000000000000000000000000000000000000000000000000000000006001600160a01b0316906370a0823190602401602060405180830381865afa1580156113d5573d5f803e3d5ffd5b505050506040513d601f19601f820116820180604052508101906113f99190611bd4565b905090565b5f825f0361140d57505f611471565b83611419845f19611ae3565b111561143b578161142a8486611acc565b6114349190611ae3565b9050611471565b82841161145c578361144d8385611ae3565b6114579190611acc565b611434565b826114678386611ae3565b6114349190611acc565b9392505050565b6002548111156114b45760025461148f9082611ba6565b604051635795d46960e11b81526004016114ab91815260200190565b60405180910390fd5b8060025f828254610d199190611ba6565b5f811561155e5760405163a9059cbb60e01b81526001600160a01b038481166004830152602482018490527f0000000000000000000000000000000000000000000000000000000000000000169063a9059cbb906044016020604051808303815f875af1158015611538573d5f803e3d5ffd5b505050506040513d601f19601f8201168201806040525081019061155c9190611bb9565b505b5f611567611371565b90507f0000000000000000000000000000000000000000000000000000000000000000811080156115985750600354155b156115a7576115a75f19600455565b60015460025460055460408051858152602081019490945283019190915260608201525f80516020611bff8339815191529060800160405180910390a19392505050565b5f6115f68242611beb565b9050600454811115610c485760045550565b5f546001600160a01b03828116911614610d8d576040516330cd747160e01b815260040160405180910390fd5b670de0b6b3a764000060025461164b9190611acc565b6116558284611acc565b1015610c4857604051633a23d82560e01b815260040160405180910390fd5b600554826002546116859190611beb565b11156116a457604051631930e3c960e11b815260040160405180910390fd5b7f00000000000000000000000000000000000000000000000000000000000000006001600160a01b0316638112eb2b84847f00000000000000000000000000000000000000000000000000000000000000006116fe610aff565b6040516001600160e01b031960e087901b1681526001600160a01b039094166004850152602484019290925263ffffffff90811660448401521660648201526084015f604051808303815f87803b158015611757575f80fd5b505af1158015611769573d5f803e3d5ffd5b505050508160025f82825461177e9190611beb565b9250508190555061179181600154611635565b5f80516020611bff8339815191526117a7611371565b60015460025460055460408051948552602085019390935291830152606082015260800160405180910390a1505050565b670de0b6b3a76400006005546117ee9190611acc565b6118187f000000000000000000000000000000000000000000000000000000000000000083611acc565b1115611822575f80fd5b600155565b6001600160a01b038116611839575f80fd5b5f80546001600160a01b038381166001600160a01b0319831681178455604051919092169283917f8be0079c531659141344cd1fd0a4f28419497f9722a3daafe3b4186f6b6457e09190a35050565b8015158114610d8d575f80fd5b5f80604083850312156118a6575f80fd5b8235915060208301356118b881611888565b809150509250929050565b5f805f80604085870312156118d6575f80fd5b843567ffffffffffffffff808211156118ed575f80fd5b818701915087601f830112611900575f80fd5b81358181111561190e575f80fd5b8860208260051b8501011115611922575f80fd5b60209283019650945090860135908082111561193c575f80fd5b818701915087601f83011261194f575f80fd5b81358181111561195d575f80fd5b88602082850101111561196e575f80fd5b95989497505060200194505050565b6001600160a01b0381168114610d8d575f80fd5b5f80604083850312156119a2575f80fd5b82356119ad8161197d565b946020939093013593505050565b5f602082840312156119cb575f80fd5b5035919050565b5f805f606084860312156119e4575f80fd5b505081359360208301359350604090920135919050565b5f805f805f60a08688031215611a0f575f80fd5b8535611a1a8161197d565b97602087013597506040870135966060810135965060800135945092505050565b5f805f60608486031215611a4d575f80fd5b8335611a588161197d565b92506020840135611a688161197d565b929592945050506040919091013590565b5f60208284031215611a89575f80fd5b81356114718161197d565b634e487b7160e01b5f52601160045260245ffd5b63ffffffff828116828216039080821115611ac557611ac5611a94565b5092915050565b808202811582820484141761064357610643611a94565b5f82611afd57634e487b7160e01b5f52601260045260245ffd5b500490565b5f60208284031215611b12575f80fd5b81516114718161197d565b6001600160a01b038481168252604060208084018290529083018490525f91859160608501845b87811015611b6b578435611b578161197d565b841682529382019390820190600101611b44565b5098975050505050505050565b60208152816020820152818360408301375f818301604090810191909152601f909201601f19160101919050565b8181038181111561064357610643611a94565b5f60208284031215611bc9575f80fd5b815161147181611888565b5f60208284031215611be4575f80fd5b5051919050565b8082018082111561064357610643611a9456fecb2040b7eb3265a4335698c9ecbe81a5f9857e92aa32e07ce235f44c321a7e35a2646970667358221220e0d1472eeed867eebc25a0da31ae960eff9373280d4f47ced7a6aa819f798c1964736f6c63430008140033a2646970667358221220ba34661e60bdd68f5bc1e9b494071d64c76f4ebabe1e32951d428ddf01ba88aa64736f6c63430008140033",
  "devdoc": {
    "kind": "dev",
    "methods": {
      "clonePosition(address)": {
        "params": {
          "_existing": "address of the position we want to clone"
        },
        "returns": {
          "_0": "address of the newly created clone position"
        }
      }
    },
    "version": 1
  },
  "userdoc": {
    "kind": "user",
    "methods": {
      "clonePosition(address)": {
        "notice": "clone an existing position. This can be a clone of another clone, or an original position."
      },
      "createNewPosition(address,address,address,uint256,uint256,uint256,uint256,uint64,uint32,uint256,uint32)": {
        "notice": "Create a completely new position in a newly deployed contract. Must be called through minting hub to be recognized as valid position."
      }
    },
    "version": 1
  },
  "storageLayout": {
    "storage": [],
    "types": null
  }
}