{
  "address": "0xFe62262AF70F10eC8988E336Aa8a06F51a21dCB9",
  "abi": [
    {
      "inputs": [
        {
          "internalType": "address",
          "name": "_existing",
          "type": "address"
        },
        {
          "internalType": "address",
          "name": "_zchf",
          "type": "address"
        },
        {
          "internalType": "address",
          "name": "_owner",
          "type": "address"
        },
        {
          "internalType": "uint256",
          "name": "_initialCol",
          "type": "uint256"
        },
        {
          "internalType": "uint256",
          "name": "_initialMint",
          "type": "uint256"
        }
      ],
      "name": "clonePosition",
      "outputs": [
        {
          "internalType": "address",
          "name": "",
          "type": "address"
        }
      ],
      "stateMutability": "nonpayable",
      "type": "function"
    },
    {
      "inputs": [
        {
          "internalType": "address",
          "name": "_owner",
          "type": "address"
        },
        {
          "internalType": "address",
          "name": "_zchf",
          "type": "address"
        },
        {
          "internalType": "address",
          "name": "_collateral",
          "type": "address"
        },
        {
          "internalType": "uint256",
          "name": "_minCollateral",
          "type": "uint256"
        },
        {
          "internalType": "uint256",
          "name": "_initialCollateral",
          "type": "uint256"
        },
        {
          "internalType": "uint256",
          "name": "_initialLimit",
          "type": "uint256"
        },
        {
          "internalType": "uint256",
          "name": "_duration",
          "type": "uint256"
        },
        {
          "internalType": "uint256",
          "name": "_challengePeriod",
          "type": "uint256"
        },
        {
          "internalType": "uint32",
          "name": "_mintingFeePPM",
          "type": "uint32"
        },
        {
          "internalType": "uint256",
          "name": "_liqPrice",
          "type": "uint256"
        },
        {
          "internalType": "uint32",
          "name": "_reserve",
          "type": "uint32"
        }
      ],
      "name": "createNewPosition",
      "outputs": [
        {
          "internalType": "address",
          "name": "",
          "type": "address"
        }
      ],
      "stateMutability": "nonpayable",
      "type": "function"
    }
  ],
  "transactionHash": "0x9b29119e4e2b4e19ff931b3bb983187e223d9e5371ed690c7dbb828d969817de",
  "args": [],
  "numDeployments": 2,
  "solcInputHash": "e54a962cacadea7af8465d9609173d5f",
  "bytecode": "0x608060405234801561001057600080fd5b506129e6806100206000396000f3fe608060405234801561001057600080fd5b50600436106100365760003560e01c80632e292e8d1461003b57806353af18071461006a575b600080fd5b61004e6100493660046103fe565b61007d565b6040516001600160a01b03909116815260200160405180910390f35b61004e610078366004610472565b6102d8565b604051635861764160e11b815260048101829052600090869082906001600160a01b0383169063b0c2ec82906024016020604051808303816000875af11580156100cb573d6000803e3d6000fd5b505050506040513d601f19601f820116820180604052508101906100ef919061051a565b9050600061015d836001600160a01b03166346c715fa6040518163ffffffff1660e01b8152600401602060405180830381865afa158015610134573d6000803e3d6000fd5b505050506040513d601f19601f820116820180604052508101906101589190610533565b610387565b60405163d1a15ff160e01b81526001600160a01b0380831660048301526000602483018190526044830152608060648301526005608483015264636c6f6e6560d81b60a48301529192509089169063d1a15ff19060c401600060405180830381600087803b1580156101ce57600080fd5b505af11580156101e2573d6000803e3d6000fd5b50505050806001600160a01b031663aee1a95988856001600160a01b031663a035b1fe6040518163ffffffff1660e01b8152600401602060405180830381865afa158015610234573d6000803e3d6000fd5b505050506040513d601f19601f82011682018060405250810190610258919061051a565b6040516001600160e01b031960e085901b1681526001600160a01b039092166004830152602482015260448101859052606481018990526084810188905260a401600060405180830381600087803b1580156102b357600080fd5b505af11580156102c7573d6000803e3d6000fd5b50929b9a5050505050505050505050565b60008b338c8c8c8c8c8c8c8c8c8c6040516102f2906103d9565b6001600160a01b039c8d1681529a8c1660208c0152988b1660408b0152969099166060890152608088019490945260a087019290925260c086015260e085015261010084015263ffffffff9384166101208401526101408301529190911661016082015261018001604051809103906000f080158015610376573d6000803e3d6000fd5b509c9b505050505050505050505050565b6000808260601b9050604051733d602d80600a3d3981f3363d3d373d3d3d363d7360601b81528160148201526e5af43d82803e903d91602b57fd5bf360881b60288201526037816000f0949350505050565b6124598061055883390190565b6001600160a01b03811681146103fb57600080fd5b50565b600080600080600060a0868803121561041657600080fd5b8535610421816103e6565b94506020860135610431816103e6565b93506040860135610441816103e6565b94979396509394606081013594506080013592915050565b803563ffffffff8116811461046d57600080fd5b919050565b60008060008060008060008060008060006101608c8e03121561049457600080fd5b8b3561049f816103e6565b9a5060208c01356104af816103e6565b995060408c01356104bf816103e6565b985060608c0135975060808c0135965060a08c0135955060c08c0135945060e08c013593506104f16101008d01610459565b92506101208c013591506105086101408d01610459565b90509295989b509295989b9093969950565b60006020828403121561052c57600080fd5b5051919050565b60006020828403121561054557600080fd5b8151610550816103e6565b939250505056fe6101c06040523480156200001257600080fd5b50604051620024593803806200245983398101604081905262000035916200021e565b8b6001600160a01b038116620000775760405162461bcd60e51b815260206004820152600360248201526203078360ec1b604482015260640160405180910390fd5b600080546001600160a01b0319166001600160a01b03831690811782556040519091907f8be0079c531659141344cd1fd0a4f28419497f9722a3daafe3b4186f6b6457e0908290a3503360e0523060c0526001600160a01b038b81166101005260018390558a81166101205289166101405263ffffffff8084166101805281166101a052878710156200010957600080fd5b6101608890526200011b8542620002dd565b60a05260808490526200013162093a80620001c7565b6005869055600054604080516001600160a01b038c81168252602082018b9052918101899052606081018890526080810187905263ffffffff80871660a0830152841660c08201523060e082015291811691908d16907f20a1ca7ca54d1dbfc5caf1f939b383152cfe258c231381e70ab81932fe01aca8906101000160405180910390a350505050505050505050505062000304565b6000620001d58242620002dd565b9050600454811115620001e85760048190555b5050565b80516001600160a01b03811681146200020457600080fd5b919050565b805163ffffffff811681146200020457600080fd5b6000806000806000806000806000806000806101808d8f0312156200024257600080fd5b6200024d8d620001ec565b9b506200025d60208e01620001ec565b9a506200026d60408e01620001ec565b99506200027d60608e01620001ec565b985060808d0151975060a08d0151965060c08d0151955060e08d015194506101008d01519350620002b26101208e0162000209565b92506101408d01519150620002cb6101608e0162000209565b90509295989b509295989b509295989b565b60008219821115620002ff57634e487b7160e01b600052601160045260246000fd5b500190565b60805160a05160c05160e05161010051610120516101405161016051610180516101a051612007620004526000396000818161029801528181610541015281816111b10152818161185201526119950152600081816103e80152818161059801526119bd01526000818161045101528181610b0701526113270152600081816104c60152818161076d01528181610a450152818161113301528181611598015261172f01526000818161049f015281816106210152818161087401528181610b9f01528181610d4a015281816112840152818161187c01526119e401526000818161024601528181610c2e01528181610ed90152611020015260008181610478015281816112c9015261144f0152600061034c0152600081816103250152818161095d01528181610ade01528181610c6d01528181610e6001526113ec0152600061051301526120076000f3fe608060405234801561001057600080fd5b50600436106101e55760003560e01c806372bf079e1161010f578063b0c2ec82116100a2578063d8dfeb4511610071578063d8dfeb45146104c1578063d9caed12146104e8578063f2fde38b146104fb578063f3f480d91461050e57600080fd5b8063b0c2ec8214610439578063babe7c741461044c578063c45a015514610473578063c4d4803a1461049a57600080fd5b8063a1362033116100de578063a1362033146103e3578063a4c0ed361461040a578063a4d66daf1461041d578063aee1a9591461042657600080fd5b806372bf079e146103ab578063787a08a6146103be5780638da5cb5b146103c7578063a035b1fe146103da57600080fd5b80633e94e242116101875780634665096d116101565780634665096d1461032057806346c715fa146103475780634f02c4201461036e578063707271b11461037757600080fd5b80633e94e242146102cf578063402d8883146102f257806340c10f19146102fa57806342d020411461030d57600080fd5b8063350c35e9116101c3578063350c35e91461022e578063365a86fc14610241578063371fd8e6146102805780633a7c29fb1461029357600080fd5b806308262940146101ea5780631bbea34c1461021057806324e657fe14610225575b600080fd5b6101fd6101f8366004611b22565b610535565b6040519081526020015b60405180910390f35b61022361021e366004611b9b565b6105e1565b005b6101fd60035481565b61022361023c366004611c4a565b6109c1565b6102687f000000000000000000000000000000000000000000000000000000000000000081565b6040516001600160a01b039091168152602001610207565b61022361028e366004611c76565b610b3f565b6102ba7f000000000000000000000000000000000000000000000000000000000000000081565b60405163ffffffff9091168152602001610207565b6102e26102dd366004611c8f565b610c21565b6040519015158152602001610207565b610223610cf3565b610223610308366004611c4a565b610dc4565b61022361031b366004611c76565b610ece565b6101fd7f000000000000000000000000000000000000000000000000000000000000000081565b6102687f000000000000000000000000000000000000000000000000000000000000000081565b6101fd60025481565b61038a610385366004611cb1565b611011565b60408051938452602084019290925263ffffffff1690820152606001610207565b6102236103b9366004611c76565b6111d8565b6101fd60045481565b600054610268906001600160a01b031681565b6101fd60015481565b6102ba7f000000000000000000000000000000000000000000000000000000000000000081565b6102e2610418366004611ce6565b611278565b6101fd60055481565b610223610434366004611d36565b6112be565b6101fd610447366004611c76565b6113ac565b6101fd7f000000000000000000000000000000000000000000000000000000000000000081565b6102687f000000000000000000000000000000000000000000000000000000000000000081565b6102687f000000000000000000000000000000000000000000000000000000000000000081565b6102687f000000000000000000000000000000000000000000000000000000000000000081565b6102236104f6366004611d7a565b611558565b610223610509366004611dbb565b611652565b6101fd7f000000000000000000000000000000000000000000000000000000000000000081565b600080620f42406105667f000000000000000000000000000000000000000000000000000000000000000082611dee565b6105769063ffffffff1686611e13565b6105809190611e32565b9050821561058f5790506105db565b620f42406105bd7f000000000000000000000000000000000000000000000000000000000000000082611dee565b6105cd9063ffffffff1686611e13565b6105d79190611e32565b9150505b92915050565b6002541561061f5760405162461bcd60e51b81526020600482015260066024820152651b5a5b9d195960d21b60448201526064015b60405180910390fd5b7f00000000000000000000000000000000000000000000000000000000000000006001600160a01b031663cd3293de6040518163ffffffff1660e01b8152600401602060405180830381865afa15801561067d573d6000803e3d6000fd5b505050506040513d601f19601f820116820180604052508101906106a19190611e54565b6001600160a01b0316635e1121cf3386866040518463ffffffff1660e01b81526004016106d093929190611e71565b602060405180830381865afa1580156106ed573d6000803e3d6000fd5b505050506040513d601f19601f820116820180604052508101906107119190611ecd565b61074d5760405162461bcd60e51b815260206004820152600d60248201526c1b9bdd081c5d585b1a599a5959609a1b6044820152606401610616565b6000546040516370a0823160e01b81523060048201526001600160a01b037f000000000000000000000000000000000000000000000000000000000000000081169263a9059cbb9291169083906370a0823190602401602060405180830381865afa1580156107c0573d6000803e3d6000fd5b505050506040513d601f19601f820116820180604052508101906107e49190611eea565b6040516001600160e01b031960e085901b1681526001600160a01b03909216600483015260248201526044016020604051808303816000875af115801561082f573d6000803e3d6000fd5b505050506040513d601f19601f820116820180604052508101906108539190611ecd565b506000546040516370a0823160e01b81523060048201526001600160a01b037f000000000000000000000000000000000000000000000000000000000000000081169263a9059cbb9291169083906370a0823190602401602060405180830381865afa1580156108c7573d6000803e3d6000fd5b505050506040513d601f19601f820116820180604052508101906108eb9190611eea565b6040516001600160e01b031960e085901b1681526001600160a01b03909216600483015260248201526044016020604051808303816000875af1158015610936573d6000803e3d6000fd5b505050506040513d601f19601f8201168201806040525081019061095a9190611ecd565b507f000000000000000000000000000000000000000000000000000000000000000060045560405133907faca80c800ec0d2aa9d9d31b7f886a1dd3067d4676abc637626a18ffb9381653d906109b39085908590611f03565b60405180910390a250505050565b6000546001600160a01b03163314806109e357506000546001600160a01b0316155b6109ff5760405162461bcd60e51b815260040161061690611f32565b60035415610a1f5760405162461bcd60e51b815260040161061690611f55565b60405163a9059cbb60e01b81526001600160a01b038381166004830152602482018390527f0000000000000000000000000000000000000000000000000000000000000000169063a9059cbb906044016020604051808303816000875af1158015610a8e573d6000803e3d6000fd5b505050506040513d601f19601f82011682018060405250810190610ab29190611ecd565b506000610abd611717565b9050610acb816001546117a7565b610ad457600080fd5b80600003610b05577f0000000000000000000000000000000000000000000000000000000000000000600455610b32565b7f0000000000000000000000000000000000000000000000000000000000000000811015610b3257600080fd5b610b3a6117c0565b505050565b6000546001600160a01b0316331480610b6157506000546001600160a01b0316155b610b7d5760405162461bcd60e51b815260040161061690611f32565b6040516323b872dd60e01b8152336004820152306024820152604481018290527f00000000000000000000000000000000000000000000000000000000000000006001600160a01b0316906323b872dd906064016020604051808303816000875af1158015610bf0573d6000803e3d6000fd5b505050506040513d601f19601f82011682018060405250810190610c149190611ecd565b50610c1e81611817565b50565b6000336001600160a01b037f00000000000000000000000000000000000000000000000000000000000000001614610c6b5760405162461bcd60e51b815260040161061690611f81565b7f00000000000000000000000000000000000000000000000000000000000000004210610c9a575060006105db565b82600154610ca89190611e13565b610cba670de0b6b3a764000084611e13565b10610ceb578260036000828254610cd19190611fa2565b90915550610ce39050620151806118fc565b5060016105db565b5060006105db565b6000546001600160a01b0316331480610d1557506000546001600160a01b0316155b610d315760405162461bcd60e51b815260040161061690611f32565b6040516370a0823160e01b8152306004820152610dc2907f00000000000000000000000000000000000000000000000000000000000000006001600160a01b0316906370a0823190602401602060405180830381865afa158015610d99573d6000803e3d6000fd5b505050506040513d601f19601f82011682018060405250810190610dbd9190611eea565b611817565b565b6000546001600160a01b0316331480610de657506000546001600160a01b0316155b610e025760405162461bcd60e51b815260040161061690611f32565b60035415610e225760405162461bcd60e51b815260040161061690611f55565b4260045410610e5e5760405162461bcd60e51b815260206004820152600860248201526731b7b7b63237bbb760c11b6044820152606401610616565b7f0000000000000000000000000000000000000000000000000000000000000000421115610eb85760405162461bcd60e51b8152602060048201526007602482015266195e1c1a5c995960ca1b6044820152606401610616565b610eca8282610ec5611717565b61191a565b5050565b336001600160a01b037f00000000000000000000000000000000000000000000000000000000000000001614610f165760405162461bcd60e51b815260040161061690611f81565b6000610f20611717565b905080821115610f6b5760405162461bcd60e51b81526020600482015260166024820152751cda5e9948195e1959591cc818dbdb1b185d195c985b60521b6044820152606401610616565b60008111610fab5760405162461bcd60e51b815260206004820152600d60248201526c1b9bc818dbdb1b185d195c985b609a1b6044820152606401610616565b610fb6601482611e32565b821015610ff65760405162461bcd60e51b815260206004820152600e60248201526d1cda5e99481d1bdbc81cdb585b1b60921b6044820152606401610616565b81600360008282546110089190611fb9565b90915550505050565b60008080336001600160a01b037f0000000000000000000000000000000000000000000000000000000000000000161461105d5760405162461bcd60e51b815260040161061690611f81565b836003600082825461106f9190611fa2565b92505081905550600061108460015486611ab1565b90506002548111156110be576110a561109f86600254611ab1565b82611ad0565b94506110b661109f87600254611ab1565b955060025490505b80861061110d5760405162461bcd60e51b815260206004820152601860248201527f6368616c6c656e6765206e6f74207375636365737366756c00000000000000006044820152606401610616565b60405163a9059cbb60e01b81526001600160a01b038881166004830152602482018790527f0000000000000000000000000000000000000000000000000000000000000000169063a9059cbb906044016020604051808303816000875af115801561117c573d6000803e3d6000fd5b505050506040513d601f19601f820116820180604052508101906111a09190611ecd565b506111aa81611ae5565b94969495507f0000000000000000000000000000000000000000000000000000000000000000949350505050565b6000546001600160a01b03163314806111fa57506000546001600160a01b0316155b6112165760405162461bcd60e51b815260040161061690611f32565b600354156112365760405162461bcd60e51b815260040161061690611f55565b6001548111156112515761124c6203f4806118fc565b61126b565b61126261125c611717565b826117a7565b61126b57600080fd5b6001819055610c1e6117c0565b60006001600160a01b037f00000000000000000000000000000000000000000000000000000000000000001633036101e5576112b384611817565b506001949350505050565b336001600160a01b037f000000000000000000000000000000000000000000000000000000000000000016146113255760405162461bcd60e51b815260206004820152600c60248201526b666163746f7279206f6e6c7960a01b6044820152606401610616565b7f00000000000000000000000000000000000000000000000000000000000000008210156113875760405162461bcd60e51b815260206004820152600f60248201526e0c6ded8d840dcdee840cadcdeeaced608b1b6044820152606401610616565b61139085611652565b600184905560058390556113a585828461191a565b5050505050565b600042600454106113ea5760405162461bcd60e51b815260206004820152600860248201526731b7b7b63237bbb760c11b6044820152606401610616565b7f00000000000000000000000000000000000000000000000000000000000000004211156114445760405162461bcd60e51b8152602060048201526007602482015266195e1c1a5c995960ca1b6044820152606401610616565b336001600160a01b037f000000000000000000000000000000000000000000000000000000000000000016146114ab5760405162461bcd60e51b815260206004820152600c60248201526b6f6e6c7920666163746f727960a01b6044820152606401610616565b600554826002546114bc9190611fb9565b11156114fb5760405162461bcd60e51b815260206004820152600e60248201526d1b1a5b5a5d08195e18d95959195960921b6044820152606401610616565b60006002836002546005546115109190611fa2565b61151a9190611fa2565b6115249190611e32565b90506115308382611fb9565b600560008282546115419190611fa2565b9091555061155190508382611fb9565b9392505050565b6000546001600160a01b031633148061157a57506000546001600160a01b0316155b6115965760405162461bcd60e51b815260040161061690611f32565b7f00000000000000000000000000000000000000000000000000000000000000006001600160a01b0316836001600160a01b0316036115d957610b3a82826109c1565b60405163a9059cbb60e01b81526001600160a01b0383811660048301526024820183905284169063a9059cbb906044016020604051808303816000875af1158015611628573d6000803e3d6000fd5b505050506040513d601f19601f8201168201806040525081019061164c9190611ecd565b50505050565b6000546001600160a01b031633148061167457506000546001600160a01b0316155b6116905760405162461bcd60e51b815260040161061690611f32565b6001600160a01b0381166116cc5760405162461bcd60e51b815260206004820152600360248201526203078360ec1b6044820152606401610616565b600080546001600160a01b0319166001600160a01b0383169081178255604051909182917f8be0079c531659141344cd1fd0a4f28419497f9722a3daafe3b4186f6b6457e09190a350565b6040516370a0823160e01b81523060048201526000907f00000000000000000000000000000000000000000000000000000000000000006001600160a01b0316906370a0823190602401602060405180830381865afa15801561177e573d6000803e3d6000fd5b505050506040513d601f19601f820116820180604052508101906117a29190611eea565b905090565b6002546000906117b78385611e13565b10159392505050565b7fcb2040b7eb3265a4335698c9ecbe81a5f9857e92aa32e07ce235f44c321a7e356117e9611717565b60015460025460055460408051948552602085019390935291830152606082015260800160405180910390a1565b600354156118375760405162461bcd60e51b815260040161061690611f55565b60405163a47d75ad60e01b81526004810182905263ffffffff7f00000000000000000000000000000000000000000000000000000000000000001660248201526000907f00000000000000000000000000000000000000000000000000000000000000006001600160a01b03169063a47d75ad906044016020604051808303816000875af11580156118cd573d6000803e3d6000fd5b505050506040513d601f19601f820116820180604052508101906118f19190611eea565b9050610eca81611ae5565b60006119088242611fb9565b9050600454811115610eca5760045550565b6005548260025461192b9190611fb9565b111561196a5760405162461bcd60e51b815260206004820152600e60248201526d1b1a5b5a5d08195e18d95959195960921b6044820152606401610616565b6040516365e5314760e11b81526001600160a01b0384811660048301526024820184905263ffffffff7f0000000000000000000000000000000000000000000000000000000000000000811660448401527f00000000000000000000000000000000000000000000000000000000000000001660648301527f0000000000000000000000000000000000000000000000000000000000000000169063cbca628e90608401600060405180830381600087803b158015611a2857600080fd5b505af1158015611a3c573d6000803e3d6000fd5b505050508160026000828254611a529190611fb9565b92505081905550611a65816001546117a7565b610b325760405162461bcd60e51b815260206004820152601760248201527f6e6f742077656c6c20636f6c6c61746572616c697a65640000000000000000006044820152606401610616565b6000670de0b6b3a7640000611ac68385611e13565b6115519190611e32565b600081611ac6670de0b6b3a764000085611e13565b600254811115611af457600080fd5b8060026000828254611b069190611fa2565b90915550610c1e90506117c0565b8015158114610c1e57600080fd5b60008060408385031215611b3557600080fd5b823591506020830135611b4781611b14565b809150509250929050565b60008083601f840112611b6457600080fd5b50813567ffffffffffffffff811115611b7c57600080fd5b602083019150836020828501011115611b9457600080fd5b9250929050565b60008060008060408587031215611bb157600080fd5b843567ffffffffffffffff80821115611bc957600080fd5b818701915087601f830112611bdd57600080fd5b813581811115611bec57600080fd5b8860208260051b8501011115611c0157600080fd5b602092830196509450908601359080821115611c1c57600080fd5b50611c2987828801611b52565b95989497509550505050565b6001600160a01b0381168114610c1e57600080fd5b60008060408385031215611c5d57600080fd5b8235611c6881611c35565b946020939093013593505050565b600060208284031215611c8857600080fd5b5035919050565b60008060408385031215611ca257600080fd5b50508035926020909101359150565b600080600060608486031215611cc657600080fd5b8335611cd181611c35565b95602085013595506040909401359392505050565b60008060008060608587031215611cfc57600080fd5b8435611d0781611c35565b935060208501359250604085013567ffffffffffffffff811115611d2a57600080fd5b611c2987828801611b52565b600080600080600060a08688031215611d4e57600080fd5b8535611d5981611c35565b97602087013597506040870135966060810135965060800135945092505050565b600080600060608486031215611d8f57600080fd5b8335611d9a81611c35565b92506020840135611daa81611c35565b929592945050506040919091013590565b600060208284031215611dcd57600080fd5b813561155181611c35565b634e487b7160e01b600052601160045260246000fd5b600063ffffffff83811690831681811015611e0b57611e0b611dd8565b039392505050565b6000816000190483118215151615611e2d57611e2d611dd8565b500290565b600082611e4f57634e487b7160e01b600052601260045260246000fd5b500490565b600060208284031215611e6657600080fd5b815161155181611c35565b6001600160a01b03848116825260406020808401829052908301849052600091859160608501845b87811015611ec0578435611eac81611c35565b841682529382019390820190600101611e99565b5098975050505050505050565b600060208284031215611edf57600080fd5b815161155181611b14565b600060208284031215611efc57600080fd5b5051919050565b60208152816020820152818360408301376000818301604090810191909152601f909201601f19160101919050565b6020808252600990820152683737ba1037bbb732b960b91b604082015260600190565b6020808252601290820152716368616c6c656e6765732070656e64696e6760701b604082015260600190565b6020808252600790820152663737ba10343ab160c91b604082015260600190565b600082821015611fb457611fb4611dd8565b500390565b60008219821115611fcc57611fcc611dd8565b50019056fea26469706673582212208281221389f7e0b3ac6a2eb24cc25431e645b5817be22f82928b95a5c354b41964736f6c634300080d0033a2646970667358221220fef1e4f79027cfe3b7b72373a48ce89545027e495d4549b1da00cd1e70b4caa164736f6c634300080d0033",
  "devdoc": {
    "kind": "dev",
    "methods": {
      "clonePosition(address,address,address,uint256,uint256)": {
        "params": {
          "_existing": "address of the position we want to clone",
          "_initialCol": "initial collateral to be posted by owner (dec 18)",
          "_initialMint": "initial amount to mint before fees/reserve by owner",
          "_owner": "owner address of the new clone",
          "_zchf": "ZCHF address"
        },
        "returns": {
          "_0": "address of the newly created clone position"
        }
      }
    },
    "version": 1
  },
  "userdoc": {
    "kind": "user",
    "methods": {
      "clonePosition(address,address,address,uint256,uint256)": {
        "notice": "clone an existing position. This can be a clone of another clone, or an origin position. If it's another clone, then the liquidation price is taken from the clone and the rest from the origin. Limit is \"inherited\" (and adjusted) from the origin."
      }
    },
    "version": 1
  },
  "storageLayout": {
    "storage": [],
    "types": null
  }
}