{
  "address": "0xA365E1B43Dd4F6fbAD6b450AbFEf4C4C2db392d9",
  "abi": [
    {
      "inputs": [],
      "stateMutability": "nonpayable",
      "type": "constructor"
    },
    {
      "anonymous": false,
      "inputs": [
        {
          "indexed": true,
          "internalType": "address",
          "name": "owner",
          "type": "address"
        },
        {
          "indexed": true,
          "internalType": "address",
          "name": "spender",
          "type": "address"
        },
        {
          "indexed": false,
          "internalType": "uint256",
          "name": "value",
          "type": "uint256"
        }
      ],
      "name": "Approval",
      "type": "event"
    },
    {
      "anonymous": false,
      "inputs": [
        {
          "indexed": true,
          "internalType": "address",
          "name": "from",
          "type": "address"
        },
        {
          "indexed": true,
          "internalType": "address",
          "name": "to",
          "type": "address"
        },
        {
          "indexed": false,
          "internalType": "uint256",
          "name": "value",
          "type": "uint256"
        }
      ],
      "name": "Transfer",
      "type": "event"
    },
    {
      "inputs": [
        {
          "internalType": "address",
          "name": "owner",
          "type": "address"
        },
        {
          "internalType": "address",
          "name": "spender",
          "type": "address"
        }
      ],
      "name": "allowance",
      "outputs": [
        {
          "internalType": "uint256",
          "name": "",
          "type": "uint256"
        }
      ],
      "stateMutability": "view",
      "type": "function"
    },
    {
      "inputs": [
        {
          "internalType": "address",
          "name": "spender",
          "type": "address"
        },
        {
          "internalType": "uint256",
          "name": "value",
          "type": "uint256"
        }
      ],
      "name": "approve",
      "outputs": [
        {
          "internalType": "bool",
          "name": "",
          "type": "bool"
        }
      ],
      "stateMutability": "nonpayable",
      "type": "function"
    },
    {
      "inputs": [
        {
          "internalType": "address",
          "name": "account",
          "type": "address"
        }
      ],
      "name": "balanceOf",
      "outputs": [
        {
          "internalType": "uint256",
          "name": "",
          "type": "uint256"
        }
      ],
      "stateMutability": "view",
      "type": "function"
    },
    {
      "inputs": [
        {
          "internalType": "address",
          "name": "delegate",
          "type": "address"
        },
        {
          "internalType": "address",
          "name": "owner",
          "type": "address"
        }
      ],
      "name": "canVoteFor",
      "outputs": [
        {
          "internalType": "bool",
          "name": "",
          "type": "bool"
        }
      ],
      "stateMutability": "view",
      "type": "function"
    },
    {
      "inputs": [],
      "name": "decimals",
      "outputs": [
        {
          "internalType": "uint8",
          "name": "",
          "type": "uint8"
        }
      ],
      "stateMutability": "view",
      "type": "function"
    },
    {
      "inputs": [
        {
          "internalType": "address",
          "name": "delegate",
          "type": "address"
        }
      ],
      "name": "delegateVoteTo",
      "outputs": [],
      "stateMutability": "nonpayable",
      "type": "function"
    },
    {
      "inputs": [
        {
          "internalType": "address",
          "name": "frankencoin",
          "type": "address"
        }
      ],
      "name": "initialize",
      "outputs": [],
      "stateMutability": "nonpayable",
      "type": "function"
    },
    {
      "inputs": [
        {
          "internalType": "address",
          "name": "sender",
          "type": "address"
        },
        {
          "internalType": "address[]",
          "name": "helpers",
          "type": "address[]"
        }
      ],
      "name": "isQualified",
      "outputs": [
        {
          "internalType": "bool",
          "name": "",
          "type": "bool"
        }
      ],
      "stateMutability": "view",
      "type": "function"
    },
    {
      "inputs": [],
      "name": "name",
      "outputs": [
        {
          "internalType": "string",
          "name": "",
          "type": "string"
        }
      ],
      "stateMutability": "pure",
      "type": "function"
    },
    {
      "inputs": [
        {
          "internalType": "address",
          "name": "from",
          "type": "address"
        },
        {
          "internalType": "uint256",
          "name": "amount",
          "type": "uint256"
        },
        {
          "internalType": "bytes",
          "name": "",
          "type": "bytes"
        }
      ],
      "name": "onTokenTransfer",
      "outputs": [
        {
          "internalType": "bool",
          "name": "",
          "type": "bool"
        }
      ],
      "stateMutability": "nonpayable",
      "type": "function"
    },
    {
      "inputs": [],
      "name": "price",
      "outputs": [
        {
          "internalType": "uint256",
          "name": "",
          "type": "uint256"
        }
      ],
      "stateMutability": "view",
      "type": "function"
    },
    {
      "inputs": [
        {
          "internalType": "uint256",
          "name": "shares",
          "type": "uint256"
        }
      ],
      "name": "redeem",
      "outputs": [
        {
          "internalType": "uint256",
          "name": "",
          "type": "uint256"
        }
      ],
      "stateMutability": "nonpayable",
      "type": "function"
    },
    {
      "inputs": [
        {
          "internalType": "uint256",
          "name": "partsPerMillion",
          "type": "uint256"
        }
      ],
      "name": "redeemFraction",
      "outputs": [
        {
          "internalType": "uint256",
          "name": "",
          "type": "uint256"
        }
      ],
      "stateMutability": "nonpayable",
      "type": "function"
    },
    {
      "inputs": [
        {
          "internalType": "address",
          "name": "holder",
          "type": "address"
        }
      ],
      "name": "redeemableBalance",
      "outputs": [
        {
          "internalType": "uint256",
          "name": "",
          "type": "uint256"
        }
      ],
      "stateMutability": "view",
      "type": "function"
    },
    {
      "inputs": [],
      "name": "symbol",
      "outputs": [
        {
          "internalType": "string",
          "name": "",
          "type": "string"
        }
      ],
      "stateMutability": "pure",
      "type": "function"
    },
    {
      "inputs": [],
      "name": "totalSupply",
      "outputs": [
        {
          "internalType": "uint256",
          "name": "",
          "type": "uint256"
        }
      ],
      "stateMutability": "view",
      "type": "function"
    },
    {
      "inputs": [],
      "name": "totalVotes",
      "outputs": [
        {
          "internalType": "uint256",
          "name": "",
          "type": "uint256"
        }
      ],
      "stateMutability": "view",
      "type": "function"
    },
    {
      "inputs": [
        {
          "internalType": "address",
          "name": "recipient",
          "type": "address"
        },
        {
          "internalType": "uint256",
          "name": "amount",
          "type": "uint256"
        }
      ],
      "name": "transfer",
      "outputs": [
        {
          "internalType": "bool",
          "name": "",
          "type": "bool"
        }
      ],
      "stateMutability": "nonpayable",
      "type": "function"
    },
    {
      "inputs": [
        {
          "internalType": "address",
          "name": "recipient",
          "type": "address"
        },
        {
          "internalType": "uint256",
          "name": "amount",
          "type": "uint256"
        },
        {
          "internalType": "bytes",
          "name": "data",
          "type": "bytes"
        }
      ],
      "name": "transferAndCall",
      "outputs": [
        {
          "internalType": "bool",
          "name": "",
          "type": "bool"
        }
      ],
      "stateMutability": "nonpayable",
      "type": "function"
    },
    {
      "inputs": [
        {
          "internalType": "address",
          "name": "sender",
          "type": "address"
        },
        {
          "internalType": "address",
          "name": "recipient",
          "type": "address"
        },
        {
          "internalType": "uint256",
          "name": "amount",
          "type": "uint256"
        }
      ],
      "name": "transferFrom",
      "outputs": [
        {
          "internalType": "bool",
          "name": "",
          "type": "bool"
        }
      ],
      "stateMutability": "nonpayable",
      "type": "function"
    },
    {
      "inputs": [
        {
          "internalType": "address",
          "name": "holder",
          "type": "address"
        }
      ],
      "name": "votes",
      "outputs": [
        {
          "internalType": "uint256",
          "name": "",
          "type": "uint256"
        }
      ],
      "stateMutability": "view",
      "type": "function"
    },
    {
      "inputs": [],
      "name": "zchf",
      "outputs": [
        {
          "internalType": "contract IFrankencoin",
          "name": "",
          "type": "address"
        }
      ],
      "stateMutability": "view",
      "type": "function"
    }
  ],
  "transactionHash": "0x414e6746c9f5627ab06a8cabcbd258853475554b08e7cdbbdbfdbda75912ab1a",
  "args": [],
  "numDeployments": 2,
  "solcInputHash": "1f04a4c1b32c645347f16fe8381bf97e",
  "bytecode": "0x60a060405234801561001057600080fd5b50601260805260805161140361003160003960006101e401526114036000f3fe608060405234801561001057600080fd5b50600436106101425760003560e01c80639823004f116100b8578063c4d4803a1161007c578063c4d4803a14610319578063c4d66de814610344578063d8bff5a514610357578063db006a751461036a578063dd62ed3e1461037d578063ecc1a3c7146103b657600080fd5b80639823004f14610299578063a035b1fe146102d8578063a0641288146102e0578063a4c0ed36146102f3578063a9059cbb1461030657600080fd5b8063313ce5671161010a578063313ce567146101df5780633c835ab0146102185780634000aea01461022b5780635e1121cf1461023e57806370a082311461025157806395d89b411461027a57600080fd5b806306fdde0314610147578063095ea7b31461018b5780630d15fd77146101ae57806318160ddd146101c457806323b872dd146101cc575b600080fd5b6040805180820190915260168152754672616e6b656e636f696e20506f6f6c20536861726560501b60208201525b6040516101829190611027565b60405180910390f35b61019e610199366004611098565b6103c9565b6040519015158152602001610182565b6101b66103e0565b604051908152602001610182565b6002546101b6565b61019e6101da3660046110c2565b610429565b6102067f000000000000000000000000000000000000000000000000000000000000000081565b60405160ff9091168152602001610182565b61019e6102263660046110fe565b610485565b61019e610239366004611131565b6104eb565b61019e61024c3660046111b8565b610581565b6101b661025f36600461123e565b6001600160a01b031660009081526020819052604090205490565b60408051808201909152600381526246505360e81b6020820152610175565b6102d66102a736600461123e565b33600090815260046020526040902080546001600160a01b0319166001600160a01b0392909216919091179055565b005b6101b66106ba565b6101b66102ee36600461123e565b610750565b61019e610301366004611131565b6107f4565b61019e610314366004611098565b610914565b60065461032c906001600160a01b031681565b6040516001600160a01b039091168152602001610182565b6102d661035236600461123e565b610921565b6101b661036536600461123e565b61099c565b6101b6610378366004611260565b6109ec565b6101b661038b3660046110fe565b6001600160a01b03918216600090815260016020908152604080832093909416825291909152205490565b6101b66103c4366004611260565b610c25565b60006103d6338484610c52565b5060015b92915050565b6003546000906103fa9067ffffffffffffffff164361128f565b60025461040791906112a6565b6003546104249190600160401b90046001600160c01b03166112c5565b905090565b6000610436848484610cb4565b6001600160a01b0384166000908152600160209081526040808320338452909152902054600160ff1b81101561047a5761047a8533610475868561128f565b610c52565b506001949350505050565b6000826001600160a01b0316826001600160a01b0316036104a8575060016103da565b6001600160a01b0382166104be575060006103da565b6001600160a01b038083166000908152600460205260409020546104e491859116610485565b90506103da565b6000806104f88686610914565b9050801561057857604051635260769b60e11b81526001600160a01b0387169063a4c0ed36906105329033908990899089906004016112dd565b6020604051808303816000875af1158015610551573d6000803e3d6000fd5b505050506040513d601f19601f820116820180604052508101906105759190611325565b90505b95945050505050565b60008061058d8561099c565b905060005b8381101561068e5760008585838181106105ae576105ae611347565b90506020020160208101906105c3919061123e565b9050866001600160a01b0316816001600160a01b0316036105e357600080fd5b6105ed8782610485565b6105f657600080fd5b60006106038360016112c5565b90505b858110156106645786868281811061062057610620611347565b9050602002016020810190610635919061123e565b6001600160a01b0316826001600160a01b03160361065257600080fd5b8061065c8161135d565b915050610606565b5061066e8161099c565b61067890846112c5565b92505080806106869061135d565b915050610592565b506106976103e0565b6106a39061012c6112a6565b6106af826127106112a6565b101595945050505050565b6006546040516370a0823160e01b815230600482015260009182916001600160a01b03909116906370a0823190602401602060405180830381865afa158015610707573d6000803e3d6000fd5b505050506040513d601f19601f8201168201806040525081019061072b9190611376565b90508060000361073d57600091505090565b60025461074a90826113a5565b91505090565b600061075b60025490565b6006546040516370a0823160e01b81523060048201526001600160a01b03909116906370a0823190602401602060405180830381865afa1580156107a3573d6000803e3d6000fd5b505050506040513d601f19601f820116820180604052508101906107c79190611376565b6001600160a01b0384166000908152602081905260409020546107ea91906112a6565b6103da91906113a5565b6006546000906001600160a01b0316331461084c5760405162461bcd60e51b815260206004820152601360248201527231b0b63632b91036bab9ba103132903d31b43360691b60448201526064015b60405180910390fd5b600061085760025490565b9050806000036108705761086b8686610d73565b610908565b6006546040516370a0823160e01b815230600482015261090891889188916001600160a01b0316906370a0823190602401602060405180830381865afa1580156108be573d6000803e3d6000fd5b505050506040513d601f19601f820116820180604052508101906108e29190611376565b6108ec919061128f565b6002546108f990896112a6565b61090391906113a5565b610d73565b50600195945050505050565b60006103d6338484610cb4565b6006546001600160a01b03161561097a5760405162461bcd60e51b815260206004820152601860248201527f5a434846206164647265737320616c72656164792073657400000000000000006044820152606401610843565b600680546001600160a01b0319166001600160a01b0392909216919091179055565b6001600160a01b0381166000908152600560205260408120546109c99067ffffffffffffffff164361128f565b6001600160a01b0383166000908152602081905260409020546103da91906112a6565b6000806109f860025490565b6006546040516370a0823160e01b81523060048201526001600160a01b03909116906370a0823190602401602060405180830381865afa158015610a40573d6000803e3d6000fd5b505050506040513d601f19601f82011682018060405250810190610a649190611376565b610a6e90856112a6565b610a7891906113a5565b9050610a843384610e1c565b60065460405163a9059cbb60e01b8152336004820152602481018390526001600160a01b039091169063a9059cbb906044016020604051808303816000875af1158015610ad5573d6000803e3d6000fd5b505050506040513d601f19601f82011682018060405250810190610af99190611325565b50600660009054906101000a90046001600160a01b03166001600160a01b031663816761856040518163ffffffff1660e01b8152600401602060405180830381865afa158015610b4d573d6000803e3d6000fd5b505050506040513d601f19601f82011682018060405250810190610b719190611325565b80610be357506006546040516355138f0d60e11b81523360048201526001600160a01b039091169063aa271e1a90602401602060405180830381865afa158015610bbf573d6000803e3d6000fd5b505050506040513d601f19601f82011682018060405250810190610be39190611325565b6103da5760405162461bcd60e51b81526020600482015260136024820152721c995cd95c9d99481c995c5d5a5c995b595b9d606a1b6044820152606401610843565b336000908152602081905260408120546103da90620f424090610c4890856112a6565b61037891906113a5565b6001600160a01b0383811660008181526001602090815260408083209487168084529482529182902085905590518481527f8c5be1e5ebec7d5bd14f71427d1e84f3dd0314c0f7b2291e5b200ac8c7c3b92591015b60405180910390a3505050565b6001600160a01b038216610cc757600080fd5b610cd2838383610eaa565b6001600160a01b03831660009081526020819052604081208054839290610cfa90849061128f565b90915550506001600160a01b03821660009081526020819052604081208054839290610d279084906112c5565b92505081905550816001600160a01b0316836001600160a01b03167fddf252ad1be2c89b69c2b068fc378daa952ba7f163c4a11628f55a4df523b3ef83604051610ca791815260200190565b6001600160a01b038216610d8657600080fd5b610d9260008383610eaa565b8060026000828254610da491906112c5565b90915550506001600160a01b03821660009081526020819052604081208054839290610dd19084906112c5565b90915550506040518181526001600160a01b038316906000907fddf252ad1be2c89b69c2b068fc378daa952ba7f163c4a11628f55a4df523b3ef906020015b60405180910390a35050565b610e2882600083610eaa565b8060026000828254610e3a919061128f565b90915550506001600160a01b03821660009081526020819052604081208054839290610e6790849061128f565b90915550506040518181526000906001600160a01b038416907fddf252ad1be2c89b69c2b068fc378daa952ba7f163c4a11628f55a4df523b3ef90602001610e10565b8015610ecb576000610ebc8383610ed0565b9050610ec9848383610f83565b505b505050565b60006001600160a01b03831615610f7b576000610eec8461099c565b9050600083610f10866001600160a01b031660009081526020819052604090205490565b610f1a91906112c5565b9050610f2681836113a5565b610f30904361128f565b6001600160a01b0386166000908152600560205260409020805467ffffffffffffffff191667ffffffffffffffff92909216919091179055610f7281836113b9565b925050506103da565b5060006103da565b60006001600160a01b03841615610fd2576001600160a01b0384166000908152600560205260409020548390610fc39067ffffffffffffffff164361128f565b610fcd91906112a6565b610fd5565b60005b90508082610fe16103e0565b610feb919061128f565b610ff5919061128f565b4367ffffffffffffffff166001600160c01b0391909116600160401b0267ffffffffffffffff19161760035550505050565b600060208083528351808285015260005b8181101561105457858101830151858201604001528201611038565b81811115611066576000604083870101525b50601f01601f1916929092016040019392505050565b80356001600160a01b038116811461109357600080fd5b919050565b600080604083850312156110ab57600080fd5b6110b48361107c565b946020939093013593505050565b6000806000606084860312156110d757600080fd5b6110e08461107c565b92506110ee6020850161107c565b9150604084013590509250925092565b6000806040838503121561111157600080fd5b61111a8361107c565b91506111286020840161107c565b90509250929050565b6000806000806060858703121561114757600080fd5b6111508561107c565b935060208501359250604085013567ffffffffffffffff8082111561117457600080fd5b818701915087601f83011261118857600080fd5b81358181111561119757600080fd5b8860208285010111156111a957600080fd5b95989497505060200194505050565b6000806000604084860312156111cd57600080fd5b6111d68461107c565b9250602084013567ffffffffffffffff808211156111f357600080fd5b818601915086601f83011261120757600080fd5b81358181111561121657600080fd5b8760208260051b850101111561122b57600080fd5b6020830194508093505050509250925092565b60006020828403121561125057600080fd5b6112598261107c565b9392505050565b60006020828403121561127257600080fd5b5035919050565b634e487b7160e01b600052601160045260246000fd5b6000828210156112a1576112a1611279565b500390565b60008160001904831182151516156112c0576112c0611279565b500290565b600082198211156112d8576112d8611279565b500190565b6001600160a01b0385168152602081018490526060604082018190528101829052818360808301376000818301608090810191909152601f909201601f191601019392505050565b60006020828403121561133757600080fd5b8151801515811461125957600080fd5b634e487b7160e01b600052603260045260246000fd5b60006001820161136f5761136f611279565b5060010190565b60006020828403121561138857600080fd5b5051919050565b634e487b7160e01b600052601260045260246000fd5b6000826113b4576113b461138f565b500490565b6000826113c8576113c861138f565b50069056fea2646970667358221220515e14f4698623d7b66dd86a2c9fbcec60bfd0a1f4ebc873673cdf1d6d30a75664736f6c634300080d0033",
  "devdoc": {
    "kind": "dev",
    "methods": {
      "allowance(address,address)": {
        "details": "See `IERC20.allowance`."
      },
      "approve(address,uint256)": {
        "details": "See `IERC20.approve`. Requirements: - `spender` cannot be the zero address."
      },
      "balanceOf(address)": {
        "details": "See `IERC20.balanceOf`."
      },
      "totalSupply()": {
        "details": "See `IERC20.totalSupply`."
      },
      "transfer(address,uint256)": {
        "details": "See `IERC20.transfer`. Requirements: - `recipient` cannot be the zero address. - the caller must have a balance of at least `amount`."
      },
      "transferFrom(address,address,uint256)": {
        "details": "See `IERC20.transferFrom`. Emits an `Approval` event indicating the updated allowance. This is not required by the EIP. See the note at the beginning of `ERC20`; Requirements: - `sender` and `recipient` cannot be the zero address. - `sender` must have a balance of at least `value`. - the caller must have allowance for `sender`'s tokens of at least `amount`."
      }
    },
    "title": "Reserve pool for the Frankencoin",
    "version": 1
  },
  "userdoc": {
    "kind": "user",
    "methods": {},
    "version": 1
  },
  "storageLayout": {
    "storage": [
      {
        "astId": 10,
        "contract": "contracts/ReservePool.sol:ReservePool",
        "label": "_balances",
        "offset": 0,
        "slot": "0",
        "type": "t_mapping(t_address,t_uint256)"
      },
      {
        "astId": 16,
        "contract": "contracts/ReservePool.sol:ReservePool",
        "label": "_allowances",
        "offset": 0,
        "slot": "1",
        "type": "t_mapping(t_address,t_mapping(t_address,t_uint256))"
      },
      {
        "astId": 18,
        "contract": "contracts/ReservePool.sol:ReservePool",
        "label": "_totalSupply",
        "offset": 0,
        "slot": "2",
        "type": "t_uint256"
      },
      {
        "astId": 2663,
        "contract": "contracts/ReservePool.sol:ReservePool",
        "label": "totalVotesAnchorTime",
        "offset": 0,
        "slot": "3",
        "type": "t_uint64"
      },
      {
        "astId": 2665,
        "contract": "contracts/ReservePool.sol:ReservePool",
        "label": "totalVotesAtAnchor",
        "offset": 8,
        "slot": "3",
        "type": "t_uint192"
      },
      {
        "astId": 2672,
        "contract": "contracts/ReservePool.sol:ReservePool",
        "label": "delegates",
        "offset": 0,
        "slot": "4",
        "type": "t_mapping(t_address,t_address)"
      },
      {
        "astId": 2676,
        "contract": "contracts/ReservePool.sol:ReservePool",
        "label": "voteAnchor",
        "offset": 0,
        "slot": "5",
        "type": "t_mapping(t_address,t_uint64)"
      },
      {
        "astId": 2679,
        "contract": "contracts/ReservePool.sol:ReservePool",
        "label": "zchf",
        "offset": 0,
        "slot": "6",
        "type": "t_contract(IFrankencoin)1036"
      }
    ],
    "types": {
      "t_address": {
        "encoding": "inplace",
        "label": "address",
        "numberOfBytes": "20"
      },
      "t_contract(IFrankencoin)1036": {
        "encoding": "inplace",
        "label": "contract IFrankencoin",
        "numberOfBytes": "20"
      },
      "t_mapping(t_address,t_address)": {
        "encoding": "mapping",
        "key": "t_address",
        "label": "mapping(address => address)",
        "numberOfBytes": "32",
        "value": "t_address"
      },
      "t_mapping(t_address,t_mapping(t_address,t_uint256))": {
        "encoding": "mapping",
        "key": "t_address",
        "label": "mapping(address => mapping(address => uint256))",
        "numberOfBytes": "32",
        "value": "t_mapping(t_address,t_uint256)"
      },
      "t_mapping(t_address,t_uint256)": {
        "encoding": "mapping",
        "key": "t_address",
        "label": "mapping(address => uint256)",
        "numberOfBytes": "32",
        "value": "t_uint256"
      },
      "t_mapping(t_address,t_uint64)": {
        "encoding": "mapping",
        "key": "t_address",
        "label": "mapping(address => uint64)",
        "numberOfBytes": "32",
        "value": "t_uint64"
      },
      "t_uint192": {
        "encoding": "inplace",
        "label": "uint192",
        "numberOfBytes": "24"
      },
      "t_uint256": {
        "encoding": "inplace",
        "label": "uint256",
        "numberOfBytes": "32"
      },
      "t_uint64": {
        "encoding": "inplace",
        "label": "uint64",
        "numberOfBytes": "8"
      }
    }
  }
}