{
  "address": "0x3f41bc2895c6ad65b1855753870f8847947fa0b1",
  "abi": [
    {
      "inputs": [
        {
          "internalType": "address",
          "name": "other",
          "type": "address"
        },
        {
          "internalType": "address",
          "name": "zchfAddress",
          "type": "address"
        },
        {
          "internalType": "uint256",
          "name": "limit_",
          "type": "uint256"
        }
      ],
      "stateMutability": "nonpayable",
      "type": "constructor"
    },
    {
      "inputs": [
        {
          "internalType": "uint256",
          "name": "amount",
          "type": "uint256"
        }
      ],
      "name": "burn",
      "outputs": [],
      "stateMutability": "nonpayable",
      "type": "function"
    },
    {
      "inputs": [
        {
          "internalType": "address",
          "name": "target",
          "type": "address"
        },
        {
          "internalType": "uint256",
          "name": "amount",
          "type": "uint256"
        }
      ],
      "name": "burnFrom",
      "outputs": [],
      "stateMutability": "nonpayable",
      "type": "function"
    },
    {
      "inputs": [],
      "name": "chf",
      "outputs": [
        {
          "internalType": "contract IERC20",
          "name": "",
          "type": "address"
        }
      ],
      "stateMutability": "view",
      "type": "function"
    },
    {
      "inputs": [],
      "name": "horizon",
      "outputs": [
        {
          "internalType": "uint256",
          "name": "",
          "type": "uint256"
        }
      ],
      "stateMutability": "view",
      "type": "function"
    },
    {
      "inputs": [],
      "name": "limit",
      "outputs": [
        {
          "internalType": "uint256",
          "name": "",
          "type": "uint256"
        }
      ],
      "stateMutability": "view",
      "type": "function"
    },
    {
      "inputs": [
        {
          "internalType": "uint256",
          "name": "amount",
          "type": "uint256"
        }
      ],
      "name": "mint",
      "outputs": [],
      "stateMutability": "nonpayable",
      "type": "function"
    },
    {
      "inputs": [
        {
          "internalType": "address",
          "name": "target",
          "type": "address"
        },
        {
          "internalType": "uint256",
          "name": "amount",
          "type": "uint256"
        }
      ],
      "name": "mintTo",
      "outputs": [],
      "stateMutability": "nonpayable",
      "type": "function"
    },
    {
      "inputs": [
        {
          "internalType": "address",
          "name": "from",
          "type": "address"
        },
        {
          "internalType": "uint256",
          "name": "amount",
          "type": "uint256"
        },
        {
          "internalType": "bytes",
          "name": "",
          "type": "bytes"
        }
      ],
      "name": "onTokenTransfer",
      "outputs": [
        {
          "internalType": "bool",
          "name": "",
          "type": "bool"
        }
      ],
      "stateMutability": "nonpayable",
      "type": "function"
    },
    {
      "inputs": [],
      "name": "zchf",
      "outputs": [
        {
          "internalType": "contract IFrankencoin",
          "name": "",
          "type": "address"
        }
      ],
      "stateMutability": "view",
      "type": "function"
    }
  ],
  "transactionHash": "0xe7d2ba771e4b7692821090e457615edf8824430338dd5c0e77853a3d572bc48f",
  "args": [
    "0xCf3f8985e8aA051C15ED7baBCeEAc9aaD6711a85",
    "0x304B992EFb5d140393542D072e52279A43a6EA75",
    {
      "type": "BigNumber",
      "hex": "0x084595161401484a000000"
    }
  ],
  "numDeployments": 2,
  "solcInputHash": "09447aacbad411411a5163007528fe30",
  "bytecode": "0x610100604052348015610010575f80fd5b506040516108b93803806108b983398101604081905261002f91610079565b6001600160a01b03808416608052821660a052610050426301dfe2006100b2565b60c05260e052506100d79050565b80516001600160a01b0381168114610074575f80fd5b919050565b5f805f6060848603121561008b575f80fd5b6100948461005e565b92506100a26020850161005e565b9150604084015190509250925092565b808201808211156100d157634e487b7160e01b5f52601160045260245ffd5b92915050565b60805160a05160c05160e0516107726101475f395f818161018301526104db01525f81816099015261046e01525f81816101aa015281816102dc0152818161037f01526105ca01525f818160d3015281816101fc0152818161029d015281816103fa01526104fd01526107725ff3fe608060405234801561000f575f80fd5b5060043610610090575f3560e01c806379cc67901161006357806379cc679014610135578063a0712d6814610148578063a4c0ed361461015b578063a4d66daf1461017e578063c4d4803a146101a5575f80fd5b80631ce832b51461009457806337b272b0146100ce57806342966c681461010d578063449a52f814610122575b5f80fd5b6100bb7f000000000000000000000000000000000000000000000000000000000000000081565b6040519081526020015b60405180910390f35b6100f57f000000000000000000000000000000000000000000000000000000000000000081565b6040516001600160a01b0390911681526020016100c5565b61012061011b366004610625565b6101cc565b005b610120610130366004610657565b6101da565b610120610143366004610657565b61027d565b610120610156366004610625565b610288565b61016e61016936600461067f565b610292565b60405190151581526020016100c5565b6100bb7f000000000000000000000000000000000000000000000000000000000000000081565b6100f57f000000000000000000000000000000000000000000000000000000000000000081565b6101d7333383610359565b50565b6040516323b872dd60e01b8152336004820152306024820152604481018290527f00000000000000000000000000000000000000000000000000000000000000006001600160a01b0316906323b872dd906064016020604051808303815f875af115801561024a573d5f803e3d5ffd5b505050506040513d601f19601f8201168201806040525081019061026e91906106ff565b50610279828261046c565b5050565b610279338383610359565b6101d733826101da565b5f6001600160a01b037f00000000000000000000000000000000000000000000000000000000000000001633036102d2576102cd858561046c565b61034e565b6001600160a01b037f000000000000000000000000000000000000000000000000000000000000000016330361030d576102cd308686610359565b60405162461bcd60e51b81526020600482015260116024820152703ab739bab83837b93a32b2103a37b5b2b760791b60448201526064015b60405180910390fd5b506001949350505050565b60405163079cc67960e41b81526001600160a01b038481166004830152602482018390527f000000000000000000000000000000000000000000000000000000000000000016906379cc6790906044015f604051808303815f87803b1580156103c0575f80fd5b505af11580156103d2573d5f803e3d5ffd5b505060405163a9059cbb60e01b81526001600160a01b038581166004830152602482018590527f000000000000000000000000000000000000000000000000000000000000000016925063a9059cbb91506044016020604051808303815f875af1158015610442573d5f803e3d5ffd5b505050506040513d601f19601f8201168201806040525081019061046691906106ff565b50505050565b7f00000000000000000000000000000000000000000000000000000000000000004211156104c65760405162461bcd60e51b8152602060048201526007602482015266195e1c1a5c995960ca1b6044820152606401610345565b6040516370a0823160e01b81523060048201527f0000000000000000000000000000000000000000000000000000000000000000907f00000000000000000000000000000000000000000000000000000000000000006001600160a01b0316906370a0823190602401602060405180830381865afa15801561054a573d5f803e3d5ffd5b505050506040513d601f19601f8201168201806040525081019061056e9190610725565b11156105a45760405162461bcd60e51b81526020600482015260056024820152641b1a5b5a5d60da1b6044820152606401610345565b6040516340c10f1960e01b81526001600160a01b038381166004830152602482018390527f000000000000000000000000000000000000000000000000000000000000000016906340c10f19906044015f604051808303815f87803b15801561060b575f80fd5b505af115801561061d573d5f803e3d5ffd5b505050505050565b5f60208284031215610635575f80fd5b5035919050565b80356001600160a01b0381168114610652575f80fd5b919050565b5f8060408385031215610668575f80fd5b6106718361063c565b946020939093013593505050565b5f805f8060608587031215610692575f80fd5b61069b8561063c565b935060208501359250604085013567ffffffffffffffff808211156106be575f80fd5b818701915087601f8301126106d1575f80fd5b8135818111156106df575f80fd5b8860208285010111156106f0575f80fd5b95989497505060200194505050565b5f6020828403121561070f575f80fd5b8151801515811461071e575f80fd5b9392505050565b5f60208284031215610735575f80fd5b505191905056fea264697066735822122043824e554a1224e7e6e47fe7d804128df0caa3698198ce331bf802b4585d8f5464736f6c63430008140033",
  "devdoc": {
    "kind": "dev",
    "methods": {},
    "version": 1
  },
  "userdoc": {
    "kind": "user",
    "methods": {
      "burnFrom(address,uint256)": {
        "notice": "Burn the indicated amount of Frankencoin and send the same number of source coin to the caller. No allowance required."
      },
      "horizon()": {
        "notice": "The time horizon after which this bridge expires and needs to be replaced by a new contract."
      },
      "limit()": {
        "notice": "The maximum amount of outstanding converted source stablecoins."
      },
      "mint(uint256)": {
        "notice": "Convenience method for mint(msg.sender, amount)"
      },
      "mintTo(address,uint256)": {
        "notice": "Mint the target amount of Frankencoins, taking the equal amount of source coins from the sender. This only works if an allowance for the source coins has been set and the caller has enough of them."
      },
      "onTokenTransfer(address,uint256,bytes)": {
        "notice": "Supporting the direct minting and burning through ERC-677, if supported by the sent coin."
      }
    },
    "notice": "A minting contract for another Swiss franc stablecoin ('source stablecoin') that we trust.",
    "version": 1
  },
  "storageLayout": {
    "storage": [],
    "types": null
  }
}