{
  "address": "0x7DfBc328c817127197F02B0Fe0F2925aDf977d64",
  "abi": [
    {
      "inputs": [
        {
          "internalType": "address",
          "name": "other",
          "type": "address"
        },
        {
          "internalType": "address",
          "name": "zchfAddress",
          "type": "address"
        },
        {
          "internalType": "uint256",
          "name": "limit_",
          "type": "uint256"
        }
      ],
      "stateMutability": "nonpayable",
      "type": "constructor"
    },
    {
      "inputs": [
        {
          "internalType": "uint256",
          "name": "time",
          "type": "uint256"
        },
        {
          "internalType": "uint256",
          "name": "expiration",
          "type": "uint256"
        }
      ],
      "name": "Expired",
      "type": "error"
    },
    {
      "inputs": [
        {
          "internalType": "uint256",
          "name": "amount",
          "type": "uint256"
        },
        {
          "internalType": "uint256",
          "name": "limit",
          "type": "uint256"
        }
      ],
      "name": "Limit",
      "type": "error"
    },
    {
      "inputs": [
        {
          "internalType": "address",
          "name": "token",
          "type": "address"
        }
      ],
      "name": "UnsupportedToken",
      "type": "error"
    },
    {
      "inputs": [
        {
          "internalType": "uint256",
          "name": "amount",
          "type": "uint256"
        }
      ],
      "name": "burn",
      "outputs": [],
      "stateMutability": "nonpayable",
      "type": "function"
    },
    {
      "inputs": [
        {
          "internalType": "address",
          "name": "target",
          "type": "address"
        },
        {
          "internalType": "uint256",
          "name": "amount",
          "type": "uint256"
        }
      ],
      "name": "burnAndSend",
      "outputs": [],
      "stateMutability": "nonpayable",
      "type": "function"
    },
    {
      "inputs": [],
      "name": "chf",
      "outputs": [
        {
          "internalType": "contract IERC20",
          "name": "",
          "type": "address"
        }
      ],
      "stateMutability": "view",
      "type": "function"
    },
    {
      "inputs": [],
      "name": "horizon",
      "outputs": [
        {
          "internalType": "uint256",
          "name": "",
          "type": "uint256"
        }
      ],
      "stateMutability": "view",
      "type": "function"
    },
    {
      "inputs": [],
      "name": "limit",
      "outputs": [
        {
          "internalType": "uint256",
          "name": "",
          "type": "uint256"
        }
      ],
      "stateMutability": "view",
      "type": "function"
    },
    {
      "inputs": [
        {
          "internalType": "uint256",
          "name": "amount",
          "type": "uint256"
        }
      ],
      "name": "mint",
      "outputs": [],
      "stateMutability": "nonpayable",
      "type": "function"
    },
    {
      "inputs": [
        {
          "internalType": "address",
          "name": "target",
          "type": "address"
        },
        {
          "internalType": "uint256",
          "name": "amount",
          "type": "uint256"
        }
      ],
      "name": "mintTo",
      "outputs": [],
      "stateMutability": "nonpayable",
      "type": "function"
    },
    {
      "inputs": [],
      "name": "minted",
      "outputs": [
        {
          "internalType": "uint256",
          "name": "",
          "type": "uint256"
        }
      ],
      "stateMutability": "view",
      "type": "function"
    },
    {
      "inputs": [],
      "name": "zchf",
      "outputs": [
        {
          "internalType": "contract IFrankencoin",
          "name": "",
          "type": "address"
        }
      ],
      "stateMutability": "view",
      "type": "function"
    }
  ],
  "transactionHash": "0x326431bb8ee14154d116d6dc9f90321d5c9eb13368f4d6c9cdf723c4d6615750",
  "args": [
    "0xe94c49Dcf0c7D761c173E9C131B132A1Cfb81A80",
    "0xb8C70553165e197f20a0ceC3dbab439c970f816f",
    "10000000000000000000000000"
  ],
  "numDeployments": 3,
  "solcInputHash": "024db87fd1b3ed736bed5abfcf48ad8d",
  "bytecode": "0x610100604052348015610010575f80fd5b5060405161073438038061073483398101604081905261002f9161007b565b6001600160a01b03808416608052821660a052610050426301dfe2006100b4565b60c05260e05250505f80556100d9565b80516001600160a01b0381168114610076575f80fd5b919050565b5f805f6060848603121561008d575f80fd5b61009684610060565b92506100a460208501610060565b9150604084015190509250925092565b808201808211156100d357634e487b7160e01b5f52601160045260245ffd5b92915050565b60805160a05160c05160e0516105f26101425f395f8181610168015281816104a301526104de01525f81816099015281816103a101526103dc01525f818161018f0152818161029d015261043301525f818160d3015281816101e1015261031801526105f25ff3fe608060405234801561000f575f80fd5b5060043610610090575f3560e01c80634f02c420116100635780634f02c420146101355780639e41b44d1461013d578063a0712d6814610150578063a4d66daf14610163578063c4d4803a1461018a575f80fd5b80631ce832b51461009457806337b272b0146100ce57806342966c681461010d578063449a52f814610122575b5f80fd5b6100bb7f000000000000000000000000000000000000000000000000000000000000000081565b6040519081526020015b60405180910390f35b6100f57f000000000000000000000000000000000000000000000000000000000000000081565b6040516001600160a01b0390911681526020016100c5565b61012061011b36600461050a565b6101b1565b005b610120610130366004610521565b6101bf565b6100bb5f5481565b61012061014b366004610521565b610262565b61012061015e36600461050a565b61026d565b6100bb7f000000000000000000000000000000000000000000000000000000000000000081565b6100f57f000000000000000000000000000000000000000000000000000000000000000081565b6101bc333383610277565b50565b6040516323b872dd60e01b8152336004820152306024820152604481018290527f00000000000000000000000000000000000000000000000000000000000000006001600160a01b0316906323b872dd906064016020604051808303815f875af115801561022f573d5f803e3d5ffd5b505050506040513d601f19601f820116820180604052508101906102539190610556565b5061025e828261039f565b5050565b61025e338383610277565b6101bc33826101bf565b60405163079cc67960e41b81526001600160a01b038481166004830152602482018390527f000000000000000000000000000000000000000000000000000000000000000016906379cc6790906044015f604051808303815f87803b1580156102de575f80fd5b505af11580156102f0573d5f803e3d5ffd5b505060405163a9059cbb60e01b81526001600160a01b038581166004830152602482018590527f000000000000000000000000000000000000000000000000000000000000000016925063a9059cbb91506044016020604051808303815f875af1158015610360573d5f803e3d5ffd5b505050506040513d601f19601f820116820180604052508101906103849190610556565b50805f808282546103959190610590565b9091555050505050565b7f000000000000000000000000000000000000000000000000000000000000000042111561040d5760405163aa2fd92560e01b81524260048201527f000000000000000000000000000000000000000000000000000000000000000060248201526044015b60405180910390fd5b6040516340c10f1960e01b81526001600160a01b038381166004830152602482018390527f000000000000000000000000000000000000000000000000000000000000000016906340c10f19906044015f604051808303815f87803b158015610474575f80fd5b505af1158015610486573d5f803e3d5ffd5b50505050805f8082825461049a91906105a9565b90915550505f547f0000000000000000000000000000000000000000000000000000000000000000101561025e57604051631927a4b960e21b8152600481018290527f00000000000000000000000000000000000000000000000000000000000000006024820152604401610404565b5f6020828403121561051a575f80fd5b5035919050565b5f8060408385031215610532575f80fd5b82356001600160a01b0381168114610548575f80fd5b946020939093013593505050565b5f60208284031215610566575f80fd5b81518015158114610575575f80fd5b9392505050565b634e487b7160e01b5f52601160045260245ffd5b818103818111156105a3576105a361057c565b92915050565b808201808211156105a3576105a361057c56fea2646970667358221220855a2492c396fd37fced8ea4d912f5c5f7a043770061503bca914aec434d30eb64736f6c63430008140033",
  "devdoc": {
    "author": "Frankencoin",
    "kind": "dev",
    "methods": {
      "mintTo(address,uint256)": {
        "details": "This only works if an allowance for the source coins has been set and the caller has enough of them."
      }
    },
    "title": "Stable Coin Bridge",
    "version": 1
  },
  "userdoc": {
    "kind": "user",
    "methods": {
      "burn(uint256)": {
        "notice": "Convenience method for burnAndSend(msg.sender, amount)"
      },
      "burnAndSend(address,uint256)": {
        "notice": "Burn the indicated amount of Frankencoin and send the same number of source coin to the caller."
      },
      "horizon()": {
        "notice": "The time horizon after which this bridge expires and needs to be replaced by a new contract."
      },
      "limit()": {
        "notice": "The maximum amount of outstanding converted source stablecoins."
      },
      "mint(uint256)": {
        "notice": "Convenience method for mint(msg.sender, amount)"
      },
      "mintTo(address,uint256)": {
        "notice": "Mint the target amount of Frankencoins, taking the equal amount of source coins from the sender."
      }
    },
    "notice": "A minting contract for another Swiss franc stablecoin ('source stablecoin') that we trust.",
    "version": 1
  },
  "storageLayout": {
    "storage": [
      {
        "astId": 4287,
        "contract": "contracts/StablecoinBridge.sol:StablecoinBridge",
        "label": "minted",
        "offset": 0,
        "slot": "0",
        "type": "t_uint256"
      }
    ],
    "types": {
      "t_uint256": {
        "encoding": "inplace",
        "label": "uint256",
        "numberOfBytes": "32"
      }
    }
  }
}